S01400004750494F5F546872656164582E73726563D2
S1130000E820FE1F951F0000D11B0000911F000077
S1130010911F0000911F0000911F000000000000CC
S1130020000000000000000000000000911F00001C
S1130030911F0000000000004D2C0000212D000045
S1130040C10A0000F90A0000310B000000000000A2
S1130050000000000000000000000000000000009C
S1130060000000000000000000000000000000008C
S1130070000000000000000000000000000000007C
S1130080000000000000000000000000000000006C
S1130400FFFFFFFFFFF9FFFFFCFFFFFFFFFFFFFF01
S1130410FCFFFFFFFFFFFFFFFCFFFF00FFFFFF00EC
S1130420FCFFFFFFFFFFFFFFFCFF7F40FFFF7F405C
S1130430FCFF7F40FFFF7F40FFFFFFFFFFFFFFFF49
S1130440FFFFFFFFFFFFFFFFFFFFFFFFFFFFFFFFB8
S1130450FFFFFFFFFFFFFFFFFFFFFFFFFFFFFFFFA8
S1130460FFFFFFFFFFFFFFFFFFFFFFFFFFFFFFFF98
S1130470FFFFFFFFFFFFFFFFFFFFFFFFFFFFFFFF88
S1130480FFFFFFFFFFFFFFFFFFFFFFFFFFFFFFFF78
S1130490FFFFFFFFFFFFFFFFFFFFFFFFFFFFFFFF68
S11304A0FFFFFFFFFFFFFFFFFFFFFFFFFFFFFFFF58
S11304B0FFFFFFFFFFFFFFFFFFFFFFFFFFFFFFFF48
S11304C0FFFFFFFFFFFFFFFFFFFFFFFFFFFFFFFF38
S11304D0FFFFFFFFFFFFFFFFFFFFFFFFFFFFFFFF28
S11304E0FFFFFFFFFFFFFFFFFFFFFFFFFFFFFFFF18
S11304F0FFFFFFFFFFFFFFFFFFFFFFFFFFFFFFFF08
S113050010B5054C237833B9044B13B10448AFF349
S113051000800123237010BD5804FE1F000000005A
S1130520BC350000084B10B51BB108480849AFF3AF
S113053000800848036803B910BD074B002BFBD0AB
S1130540BDE81040184700BF00000000BC350000A3
S11305505C04FE1F3C04FE1F00000000012907D0BC
S113056029B9074A1378184300F030001070704717
S1130570034A137803F0300323EA00001070704735
S1130580000D0440000A4001024B41EA0242C250FD
S1130590704700BF08000440000A400100F1804099
S11305A000F104100068000C704700BF034B000A00
S11305B003EB401341EA02425A60704708000440CA
S11305C0030AC0B200EB03139B0003F1804303F55D
S11305D081231868C0F34000704700BF000A40013F
S11305E000F1804000F10410006880B2704700BF41
S11305F0000A400100F1804000F58020006880B2CC
S1130600704700BF000A400100F1804000F58020DF
S113061003681B0C1B04194301607047030AC0B232
S113062000EB03139B000E4A03F1804310B44020F7
S113063003F581230024D470D070C8031A6805D54B
S113064022F4803221F480301A601860044A196060
S113065000218023D170D3705DF8044B704700BF34
S1130660000D0440020AC3B203EB02139B0003F122
S1130670804303F5812301291B6804490CBF43F01F
S1130680010323F001031940FFF7C8BFD5FC011F84
S1130690020AC3B203EB02139B0003F1804303F588
S11306A081231B6829B1064943F004031940FFF76D
S11306B0B5BF034923F004031940FFF7AFBF00BFE0
S11306C0D5FC011F0346012200201A709A7058704D
S11306D0D870704798B138B5038873B105460024C3
S11306E06B6803EBC40253F834109088FFF796FF4D
S11306F001342B88A4B2A342F2D8002038BD0120D3
S1130700704700BF08B540F60733984201D903206B
S113071008BDFFF783FF002008BD00BF40F6073384
S1130720984202D903231846704739B110B50C46D4
S1130730FFF746FF00232070184610BD0123F2E79F
S1130740B0F5306F02D903231846704739B110B59C
S11307500C46FFF743FF00232080184610BD0123F9
S1130760F2E700BF0AB903207047B0F5306F08B54F
S113077001D9032008BD0B46114022EA0302FFF70A
S113078001FF002008BD00BF012901D903207047E3
S113079040F60732904208B501D9032008BDFFF79F
S11307A061FF002008BD00BF0AB903207047B0F5FF
S11307B0306FFAD870B514460E460546FFF718FF99
S11307C004EA0603184383B266EA04012846194082
S11307D0FFF718FF002070BD012901D903207047DD
S11307E040F60732904208B501D9032008BDFFF74F
S11307F04FFF002008BD00BFB0F5306F02D90323BE
S11308001846704739B110B50C46FFF7C5FE0023F2
S11308102080184610BD0123F2E700BF38B540F62A
S113082007339842044601D9032038BD0D4681B1EF
S113083000F47F40FFF7B0FEE4B2012202FA04F3B1
S11308409BB2184083420BBF002000202A702870FE
S113085038BD012038BD00BFB0F5306F01D9032089
S11308607047002AFBD008B50B46114022EA030268
S1130870FFF79CFE002008BD40F60733984201D9DB
S1130880032070470129FBD810B5C3B200F47F449C
S113089008D001229A4092B200212046FFF786FE3A
S11308A0002010BD994089B20022F6E7202801D922
S11308B003207047012908B501D9032008BDFFF7BB
S11308C04DFE002008BD00BF0378094AD25C53B234
S11308D0032B0AD05B090121064802F01F0201FA2A
S11308E002F240F82320002070476420704700BFC4
S11308F08830000000E100E00378094AD25C53B27A
S1130900032B0BD05B0920330121064802F01F02A0
S113091001FA02F240F82320002070476420704757
S11309208830000000E100E002780548835C01F0B3
S1130930030123F00303194381540020704700BFCF
S113094000600040027803498B5C63F07F038B54A2
S11309500020704700600040027803498B5C03F07C
S11309607F038B540020704700600040024B1B68DB
S113097003600020704700BF9830000002681049EF
S1130980D3B210B5C95C4BB2032B09D05B09203339
S113099001F01F0101200B4C00FA01F144F823106F
S11309A0094B53F82210002402F11E004C608C60A5
S11309B0C0B243F8224001F045FA204610BD00BF02
S11309C08830000000E100E07404FE1F2DE9F041CE
S11309D00C681E34E4B2074620460D4601F01EFAA8
S11309E010B10820BDE8F081AA682B68002A58D00D
S11309F03048314EE96846F823705FFA83FE7A6026
S1130A0010F80E80B9604FFA88F6032E43D0E879C7
S1130A1050BB084611461A46284B3A607960B860C4
S1130A2013F80E2002F07F0203F80E203878A9791B
S1130A301A5C01F0030122F0300242EA01121A5456
S1130A403C782A79185D02F0030120F003020A437E
S1130A501A5568790028C5D039785A5C62F07F024B
S1130A605A540020BDE8F081304601F0ABF9730917
S1130A709B0003F1604303F5614308F01F08012262
S1130A8002FA08F2C3F880211A602A68A968E868A3
S1130A905FFA82FEC0E7204601F0D4F93046BDE893
S1130AA0F0810549E86841F823705FFA83FE114636
S1130AB01A46B1E7883000007404FE1F006000404D
S1130AC000B5012083B001F06BFC002001F07AF93D
S1130AD0084B1A68536833B102A8926840F8082D8D
S1130AE0002201929847012001F058FC03B05DF800
S1130AF004FB00BF7404FE1F00B5012083B001F0A5
S1130B004FFC012001F05EF9084B9A6A536833B137
S1130B1002A8926840F8082D0A2201929847012001
S1130B2001F03CFC03B05DF804FB00BF7404FE1F3D
S1130B3000B5012083B001F033FC022001F042F93A
S1130B40084BDA6A536833B102A8926840F8082D5A
S1130B500B2201929847012001F020FC03B05DF8BC
S1130B6004FB00BF7404FE1F024B23F82010002076
S1130B70704700BF10100440024A002342F820309E
S1130B801846704710100440034A137863F07F033B
S1130B9013700020704700BF00100440034A13780C
S1130BA003F07F0313700020704700BF001004405F
S1130BB020B1034B1B68036000207047012070477D
S1130BC0B830000058B1012807D1084B002040215B
S1130BD04122187119711A71704701207047034B33
S1130BE040214122987099709A7070470010044017
S1130BF0E8B130B40F4A536823F480435360456826
S1130C005DB1836803EB85055C8813F8041B0A4A0D
S1130C1089000A44AB421480F6D1007828B1074A0F
S1130C20137863F07F031370002030BC70470120F9
S1130C30704700BF007004401010044000100440CE
S1130C40084B094A094810B40021094C1A604FF4B2
S1130C5000425C60D86059619A601A615DF8044B87
S1130C60704700BF4004FE1F0024F40000366E01EC
S1130C7000127A0019491A4A0B8D03F0030332F863
S1130C80132052B310B40C8D16480B8D14F0100FB2
S1130C9014BF0021032107EE902A50F821205DF8AB
S1130CA0044B07EE102AF8EE676AB8EE477AC3F3EE
S1130CB0052387EE267A07EE903AF8EEE77AF7EE08
S1130CC0006A77EEA67AF6EE006A67EEA67A67EE19
S1130CD0277AFCEEE77AC0ED057A704700E0014020
S1130CE0BC3000004004FE1F0E4AB2F8FE339BB233
S1130CF043F4254343F00103A2F8FE3392F813347E
S1130D00000100F0300003F0CF03034382F81334F2
S1130D10B2F8FE3345F6FE210B4043F42543A2F816
S1130D20FE33704700E001400E4AB2F8FE339BB236
S1130D3043F4254343F00103A2F8FE3392F88134CF
S1130D40400000F0020003F0FD03034382F8813405
S1130D50B2F8FE3345F6FE210B4043F42543A2F8D6
S1130D60FE33704700E00140264AB2F8FE339BB2DE
S1130D7043F4254343F00103A2F8FE3305280BD8BE
S1130D80DFE800F02028300338181E4A92F8323089
S1130D9023F0010382F832301A4AB2F8FE3323F406
S1130DA0145323F001035B045B0C43F42543A2F8C2
S1130DB0FE337047134A92F82A3023F0010382F875
S1130DC02A30E9E70F4A92F8363023F0010382F81B
S1130DD03630E1E70B4A92F8383023F0010382F809
S1130DE03830D9E7074A92F8903423F0010382F8A7
S1130DF09034D1E7034A92F8803423F0010382F857
S1130E008034C9E700E00140264AB2F8FE339BB2C1
S1130E1043F4254343F00103A2F8FE3305280BD81D
S1130E20DFE800F02028300338181E4A92F83230E8
S1130E3043F0010382F832301A4AB2F8FE3323F445
S1130E40145323F001035B045B0C43F42543A2F821
S1130E50FE337047134A92F82A3043F0010382F8B4
S1130E602A30E9E70F4A92F8363043F0010382F85A
S1130E703630E1E70B4A92F8383043F0010382F848
S1130E803830D9E7074A92F8903443F0010382F8E6
S1130E909034D1E7034A92F8803443F0010382F896
S1130EA08034C9E700E00140032810D0052808D0A9
S1130EB008B100207047094B93F83C0000F0010092
S1130EC07047064B93F83C00C0F340107047034B47
S1130ED093F83C00C0F3C000704700BF00E001403D
S1130EE0052834D8DFE800F00B131B232B03194B20
S1130EF093F82A0000F0010080F001007047154BC0
S1130F0093F8360000F0010080F001007047114BA7
S1130F1093F8380000F0010080F0010070470D4B99
S1130F2093F8900400F0010080F001007047094B31
S1130F3093F8320000F0010080F001007047054B87
S1130F4093F8800400F0010080F001007047002055
S1130F50704700BF00E00140024B1A6A93F8263044
S1130F60704700BF00E001400E4AB2F8FE339BB266
S1130F7043F4254343F00103A2F8FE3392F81334FB
S1130F8000F0010023F0400343EA801382F8133495
S1130F90B2F8FE3345F6FE210B4043F42543A2F894
S1130FA0FE33704700E001400E4AB2F8FE339BB2B4
S1130FB043F4254343F00103A2F8FE3392F8A23030
S1130FC001F00F0123F00F03194382F8A210B2F8C5
S1130FD0FE3345F6FE210B4043F42543A2F8FE33CD
S1130FE0704700BF00E0014005288CBF00200120AD
S1130FF0704700BF06288CBF00200120704700BF47
S1131000024B93F8260000F00700704700E001400F
S11310100E4AB2F8FE339BB243F4254343F0010376
S1131020A2F8FE3392F8263000F0070023F00703FD
S1131030184382F82600B2F8FE3345F6FE210B4031
S113104043F42543A2F8FE33704700BF00E001409B
S1131050034B1B8D13F0100F0CBF032000207047AF
S113106000E001400F4A1049B2F8FE3311F81010A5
S11310709BB243F4254343F00103A2F8FE33138DDE
S113108001F0010123F0100343EA01131385B2F8C0
S1131090FE3345F6FE210B4043F42543A2F8FE330C
S11310A0704700BF00E00140CC300000114AB2F8A4
S11310B0FE3330EE000A9BB243F42543FCEEC07AC3
S11310C043F00103A2F8FE3317EE903A118D013B71
S11310D021F47C5103F03F0341EA03231385B2F862
S11310E0FE3345F6FE210B4043F42543A2F8FE33BC
S11310F0704700BF00E001400E4A0F49B2F8FE33CA
S113110031F810109BB243F4254343F00103A2F8D5
S1131110FE33138D01F0030123F003030B43138506
S1131120B2F8FE3345F6FE210B4043F42543A2F802
S1131130FE33704700E00140C4300000F0B5164AA9
S1131140B2F8FE339BB243F4254343F00103A2F803
S1131150FE3390F800C090F801E08778C6780579EE
S11311604479817900236CF30E336EF30A2367F319
S1131170061366F3020365F3124364F31E7361F30B
S11311801A631362B2F8FE3345F6FE210B4043F4B2
S11311902543A2F8FE33F0BD00E001400E4B1A6A6D
S11311A0C2F3023202701A6AC2F3022242701A6A4D
S11311B0C2F3021282701A6A02F00702C2701A6A3B
S11311C0C2F3024202711A6AC2F3027242711B6ACA
S11311D0C3F302638371704700E00140062828D8F6
S11311E0DFE800F0090E13181D220400124B186AE0
S11311F0C0F302607047104B186AC0F302307047A6
S11312000D4B186AC0F3022070470B4B186AC0F3E9
S113121002107047084B186A00F007007047064B2D
S1131220186AC0F302407047034B186AC0F3027097
S113123070470020704700BF00E0014008B5FFF789
S1131240CDFF054B054A93F8263003F0070352F807
S1131250233023FA00F008BD00E001404004FE1FE3
S1131260024B53F82000C840704700BF4004FE1FE3
S11312700F4BB3F8FE2392B242F4254242F001022E
S1131280A3F8FE2393F8402062F07F0283F8402005
S113129093F8402042F0010283F84020B3F8FE2383
S11312A045F6FE210A4042F42542A3F8FE23704786
S11312B000E001400F4BB3F8FE2392B242F4254202
S11312C042F00102A3F8FE2393F8402022F0010229
S11312D083F8402093F8402002F07F0283F84020F6
S11312E0B3F8FE2345F6FE210A4042F42542A3F852
S11312F0FE23704700E00140024B93F84000C00910
S1131300704700BF00E00140024B93F8410000F039
S11313100100704700E00140114A92F8410010F0CA
S1131320010001D100207047B2F8FE339BB243F4B0
S1131330254343F00103A2F8FE3392F8413023F031
S1131340010382F84130B2F8FE3323F4145323F03E
S113135001035B045B0C43F42543A2F8FE3370479E
S113136000E001400E4AB2F8FE339BB243F4254339
S113137043F00103A2F8FE3392F8303000F001008C
S113138023F00103184382F83000B2F8FE3345F627
S1131390FE210B4043F42543A2F8FE33704700BFFF
S11313A000E001400C4AB2F8FE339BB243F42543FB
S11313B043F00103A2F8FE3392F8523043F00103E4
S11313C082F85230B2F8FE3345F6FE210B4043F466
S11313D02543A2F8FE33704700E001400C4AB2F8FE
S11313E0FE339BB243F4254343F00103A2F8FE33DA
S11313F092F8523023F0010382F85230B2F8FE33EF
S113140045F6FE210B4043F42543A2F8FE33704712
S113141000E00140164BB3F8FE2392B242F4254299
S113142042F00102A3F8FE2393F83E2002F07F026B
S113143083F83E2093F83E2001F0070122F0700269
S113144042EA011283F83E2093F83E2000F00700A0
S113145022F00702104383F83E00B3F8FE2345F65A
S1131460FE210A4042F42542A3F8FE23704700BF40
S113147000E001400C4AB2F8FE339BB243F425432A
S113148043F00103A2F8FE3392F83E3063F07F0389
S113149082F83E30B2F8FE3345F6FE210B4043F4A9
S11314A02543A2F8FE33704700E001400C4AB2F82D
S11314B0FE339BB243F4254343F00103A2F8FE3309
S11314C092F83E3003F07F0382F83E30B2F8FE33E8
S11314D045F6FE210B4043F42543A2F8FE33704742
S11314E000E001400C4AB2F8FE339BB243F42543BA
S11314F043F00103A2F8FE3392F8533043F00103A2
S113150082F85330B2F8FE3345F6FE210B4043F423
S11315102543A2F8FE33704700E001400C4AB2F8BC
S1131520FE339BB243F4254343F00103A2F8FE3398
S113153092F8533023F0010382F85330B2F8FE33AB
S113154045F6FE210B4043F42543A2F8FE337047D1
S113155000E001400E4AB2F8FE339BB243F4254347
S113156043F00103A2F8FE3392F8243000F00700A0
S113157023F0700343EA001382F82430B2F8FE33F8
S113158045F6FE210B4043F42543A2F8FE33704791
S113159000E001400E4B19681A68920715D501380E
S11315A00022B0F1807F1A6002D3196010467047A0
S11315B010B4084C5860F02084F82300072101205F
S11315C09A6019605DF8044B70470120704700BFB2
S11315D010E000E000ED00E00C4B1A7902F00E027E
S11315E042F0F0021A711A7A00F0010022F00402AB
S11315F042EA80021A721A7A22F0080242EAC00011
S113160018721A7942F0F1021A71704700200040F2
S1131610094B1A7942F0F1021A711A7A00F00100AA
S113162022F0100242EA00121A721A7902F00E0233
S113163042F0F0021A71704700200040054A92F807
S11316401C3100F0070023F00703184382F81C0143
S1131650704700BF00C00140024B93F81C0100F02A
S11316600700704700C00140002070470020704709
S113167000207047024B1B6803600020704700BFC6
S11316803031000038B50C460546FFF7B9FC287028
S11316902046FFF783FD002038BD00BF70B500244D
S11316A00C600D460646FFF7A5FC10B9032420463E
S11316B070BD3046FFF7C2FD2860204670BD00BFF4
S11316C010B5FFF721FE68B1FFF79AFC0446FFF757
S11316D0BFFC052C04D0032C04D140F2971010BD9C
S11316E00328FAD0FFF718FE002010BD08B5FFF755
S11316F039FE002008BD00BF08B5FFF753FE0020E7
S113170008BD00BF08B5FFF769FE002008BD00BF93
S113171008B5FFF77FFE002008BD00BF08B5FFF73E
S1131720A9FE002008BD00BF08B5FFF7BFFE0020DA
S113173008BD00BF08B5FFF7D5FE002008BD00BFF7
S113174008B5FFF7EBFE002008BD00BF08B5FFF7A2
S113175001FF002008BD00BF08B500F017FA07EE2E
S1131760900AB8EE677AF7EE007A87EE877ADFEDB3
S1131770097ADFED096A67EE277AC6EEA77AFCEEEE
S1131780E77A17EE900AFFF705FF00280CBF122036
S1131790002008BD0024744900401C4600B583B0F5
S11317A04FF6FF730193FFF74BFA0420FFF72CFB6E
S11317B004E0019B3BB1019B013B01930420FFF733
S11317C08FFB0028F5D1019B23B94FF4CD7003B0F2
S11317D05DF804FB05210420FFF7BEFB0020FFF7A2
S11317E0A3FA0020FFF780FA0020FFF7BDFB0320D7
S11317F00921FFF7D9FB002003B05DF804FB00BF0B
S113180010B50446FFF7F0FB08B9032010BD631EB2
S1131810012B0FD9042C0DD02CB1032C03D0052C93
S113182001D0002010BD2046FFF75AFB68B94FF4E1
S1131830C87010BD2046FFF753FB40F291130028F7
S113184014BF18464FF4C87010BD2046FFF72CFB98
S113185040F2931300280CBF18464FF4C97010BD12
S113186070B582B00E460546FFF7BEFB10B90320E3
S113187002B070BD052D284616D0FFF731FB18B114
S113188040F2911002B070BD6B1E012B4AD9042D99
S113189030D00DB1032DEBD12846FFF705FB00280E
S11318A040D040F29310E3E7FFF71AFBE8B9307831
S11318B0FFF716FB10B94FF4CA70D9E72846FFF7B3
S11318C0F3FA04460028ECD13078FFF7CBFB7078AC
S11318D0FFF712FC96ED010AFFF7E8FBFFF7CAF9E0
S11318E02846FFF741FA2046C2E7FFF7C3F940F262
S11318F09110BDE72846FFF737FA4FF6FF730193BF
S113190004E0019B3BB1019B013B01930420FFF7E1
S1131910E7FA0028F5D0019B002B0CBF4FF4CD70E3
S11319200020A5E72846FFF71FFA0020A0E700BF24
S113193010B582B00446FFF757FB10B9032002B07C
S113194010BDFFF75DFB844216D0052810D0012C92
S113195015D02046FFF7C4FA40B1022C39D0042C2C
S11319601AD094B1032C10D0052C0ED00020E6E739
S1131970FFF76EFBA042EAD140F29110DFE7FFF7D8
S1131980BBFC08B340F29510D9E72046FFF78CFA68
S1131990F8B940F29310D2E72046FFF735FA4FF634
S11319A0FF73019304E0019B3BB1019B013B019355
S11319B00420FFF795FA0028F5D1019B002B0CBFFA
S11319C04FF4CD700020BAE72046FFF789FA0028CB
S11319D0CCD02046FFF718FAC8E700BF00B583B0A3
S11319E039B9FFF791FC70B14FF4CB7003B05DF8D7
S11319F004FB0146012000F0E3F8FFF739FC002066
S1131A0003B05DF804FB0190FFF754FC019803B0A8
S1131A105DF804FB70B50D460446FFF7E5FA08B916
S1131A20032070BD2046A979FFF71AFC2A4B98427F
S1131A30064634D80020FFF7CFFD0020FFF7E8FD6D
S1131A40264B9E4234D8FFF707FE0026FFF7D8FA4C
S1131A50844207D0DCB1032C19D0052C17D02046C2
S1131A60FFF7D6FA00F092F81D4B1E49186042F2B7
S1131A701070FFF771FE2846FFF760FBFFF7ECFDDF
S1131A80864222D03046FFF7D9FD002070BD2046A3
S1131A90FFF70AFA0028E2D14FF4C97070BD0120A3
S1131AA0FFF79AFD104B9E4211D90120FFF7B0FDBC
S1131AB00E4B9E4294BF01260226FFF7CDFDB04295
S1131AC0C4D23046FFF7BAFDC0E7002070BD002045
S1131AD0FFF79EFDECE700BFFF0D2707FFB3C4042B
S1131AE07C05FE1F40420F00FFC1EB0BFF67890915
S1131AF070B5234D82B02B68984700216E6803208F
S1131B00B04701211F4AAC698DF8011003230192EB
S1131B108DF800300320A047B0F5C97FFAD169469B
S1131B200520B047184A92F8003143F0010382F8C7
S1131B3000310520A047B0F5C97FFAD10022012465
S1131B40022369468DF806208DF801308DF80230A5
S1131B508DF805308DF80040EB688DF803408DF862
S1131B600440052098472B6D042098476B6A204653
S1131B709847AB6A9847AB6C984702B070BD00BFFA
S1131B80D43000000000A04100C0014000B5054B66
S1131B9083B05B6901A906209847019803B05DF8FA
S1131BA004FB00BFD4300000044B002103F13002D9
S1131BB043F8041B9342FBD1704700BFB404FE1FDB
S1131BC0024B43F820100020704700BFB404FE1FEE
S1131BD008B57A4BB3F84031D90700F1C180774B8F
S1131BE0B3F840319A0700F1B080744BB3F8403138
S1131BF05B0700F19F80714BB3F84031180700F187
S1131C008E806E4BB3F84031D9067CD46B4BB3F85D
S1131C104001C0F38010002869D1684BB3F840310B
S1131C201A0658D4654BB3F84031DB0547D4634BEF
S1131C30B3F84031980536D4604BB3F840315905B8
S1131C4024D45E4BB3F840311A0512D45B4BB3F87D
S1131C504031DB0400D408BD594BDB6A002B40F053
S1131C60AA80564AB2F8303143F48053A2F8303196
S1131C7008BD534B9B6A002B40F09A804F4AB2F840
S1131C80303143F40063A2F83031DFE74C4B5B6A38
S1131C90002B40F08A80494AB2F8303143F4806323
S1131CA0A2F83031CDE7464B1B6A002B7AD1434A68
S1131CB0B2F8303143F40073A2F83031BCE7404B42
S1131CC0DB69002B6BD13D4AB2F8303143F48073A9
S1131CD0A2F83031ABE73A4B1B68002B5CD1374A92
S1131CE0B2F8303143F08003A2F830319AE7344B34
S1131CF05B68002B4ED1314AB2F8303143F04003D7
S1131D00A2F8303189E72E4B9B69002B3FD12B4A37
S1131D10B2F8303143F01003A2F8303176E7284BA3
S1131D205B698BBB254AB2F8303143F00803A2F853
S1131D30303166E7224B1B691BBB204AB2F83031B5
S1131D4043F00403A2F8303155E71D4B9B68ABB94F
S1131D501A4AB2F8303143F00203A2F8303144E7B2
S1131D60174BDB683BB9154AB2F8303143F0010335
S1131D70A2F8303133E703209847F4E7022098476C
S1131D80E6E704209847D8E705209847CAE70620E5
S1131D909847BCE79847AEE7002098479FE707209D
S1131DA0984790E70820984781E70920984772E709
S1131DB00A20984762E70B20984752E700600040EA
S1131DC0B404FE1F002808DB800000F1804000F509
S1131DD0C640036823F4803303607047F0B50B4BAF
S1131DE00B4F0C4C0C4A4FF0800C3026F0204FF077
S1131DF0010E0B2583F800C30C21C7F800E083F81B
S1131E000163256083F802031160F0BD00E100E086
S1131E10006300400463004008630040084B012154
S1131E20034402E0C3E8401F40B1D3E84F2F12F04F
S1131E30FF0FF7D0BFF32F8F08207047704700BF04
S1131E40E404FE1F014B00221A547047E404FE1FF1
S1131E50044B002103F1760203F8011F9342FBD1E6
S1131E60704700BFE304FE1F0E4B33F8102092B2FC
S1131E702AB133F81020013A92B223F8102033F833
S1131E8010309BB263B9084A0849B2F8FE3331F8FE
S1131E9010109BB243F4254323EA0103A2F8FE3356
S1131EA0704700BF5C05FE1F00E0014034310000B4
S1131EB0104A32F810309BB2ABB910B40E4C0F4933
S1131EC0B4F8FE3331F810109BB243F425430B43AE
S1131ED0A4F8FE3332F810305DF8044B01339BB2A2
S1131EE022F81030704732F8103001339BB222F8D8
S1131EF0103070475C05FE1F00E0014034310000E3
S1131F00024B00221A805A809A8070475C05FE1F9B
S1131F10F8B50788AFB341681B4C002601EBC70E28
S1131F204FF0010C37468888002334F8132082428E
S1131F3016D00133032BF8D108317145F3D1F643A0
S1131F40F6B20120FFF7B4FF104A92F8BB341F43E6
S1131F503E4082F8BB640120BDE8F840FFF784BF2F
S1131F600A6802F0B852B2F1807F05D00CFA03F58A
S1131F7046EA0502D6B2DCE70CFA03F21743FFB2D5
S1131F80D7E7FF26DDE700BF3C31000000E0014059
S1131F90FEE700BF08B500F005F800F08FF8FEE793
S1131FA0704700BF204A08B5D2F8883043F4700364
S1131FB0C2F888300020FFF7F3FFFFF7F5FDFFF7C5
S1131FC097FDFFF79DFF1948FFF7A2FF184B17482D
S1131FD01B689847174A184BD21A05D01A44002197
S1131FE003F8011B9342FBD1144A1548801A07D009
S1131FF0144B184413F8011B02F8011B8342F9D156
S1132000FFF7C4FD104B18600120FFF7C9FFFFF76D
S11320101FFFFFF7E3FE0D4B0D481B689847002098
S1132020BDE8084000F016B800ED00E0A83100005B
S113203030300000E40CFE1F5804FE1F0000FE1F99
S11320404004FE1FC03500007C05FE1F9C300000CC
S113205044310000704700BF00F062B800B589B099
S11320600A4B00934FF480610123B422019102933F
S113207003930493059306920549064A06480023F0
S113208000F074F809B05DF804FB00BFE820FE1FFF
S113209070310000592000008005FE1F704700BF0A
S11320A0FFF7FCBF704700BF10B50446FFF7D6FF2B
S11320B0FFF7F6FF2046FFF7F5FF10BD08B572B62F
S11320C000F04EF9002008BD10B5094B5C6882B0E1
S11320D0A3690DF10701062098479DF80710E369ED
S11320E0B1FA81F14FF4C0604909984702B010BDBC
S11320F0A031000010B5094B5C6882B0A3690DF1F2
S11321000701052098479DF80710E369B1FA81F1AA
S113211040F201604909984702B010BDA0310000A7
S113212008B50F4B9A6859681868126890470D4BA8
S11321309A6859681268186890470B4B5C680021CC
S1132140E3694FF4C0609847E369002140F20160FD
S11321509847E36940F2026000219847FEE700BF18
S11321608031000050310000A03100002DE9F04F13
S113217087B0044610AD1498039095E8A003DDF8E9
S113218054A016980CB1B42803D00E2007B0BDE8B3
S1132190F08FEFF3108072B6DFF830B1DBF8006037
S11321A00136CBF8006080F31088434E434836680C
S11321B004960668049828B3B44223D0781E2844B1
S11321C005934FF0000E8C460346F168A9423ED8B1
S11321D03069A8423BD9012000258B420EF1010E43
S11321E005D331698B4238BF012038BF00250499DB
S11321F0D6F888608E4503D0B44201D00128E4D1DA
S1132200059B6146EFF3108072B6DBF800E00EF137
S1132210FF3ECBF800E080F3108802910192009316
S113222000F0C6F9B4420299019A009BADD065B1A1
S11322305AB1C72F0DD9B8F11F0F0CD8C8450CD30C
S1132240BAF1010F0BD91020A0E703209EE700206C
S1132250C3E705209AE70F2098E7182096E7184E61
S11322601848366886420CBF13200020EFF3058C13
S1132270154ED6F800B05CEA0B0C09D0EFF3058CD0
S113228036684CEA0606B6F1F03F01D213207DE72A
S113229000287FF47BAF0398149020461095119783
S11322A0CDF84880CDF84C90CDF854A007B0BDE8E7
S11322B0F04F00F077B800BF6407FE1F5C07FE1FF5
S11322C07007FE1F1408FE1F0000FE1F6C07FE1F90
S11322D02DE9F84F00F0FEF8144BDFF870B0DFF88A
S11322E070A0DFF87090DFF87080114F114E124D1E
S11322F0124C01221A6000F0E1FADFF860C01048C5
S11323001049114A0023CBF80030CAF80030C9F84C
S11323100030C8F80030CCF800303B6033602B60EC
S1132320236003600B601360BDE8F88F6C07FE1F29
S1132330C406FE1FC806FE1FBC06FE1FB406FE1F11
S1132340D006FE1FA806FE1FA406FE1FB006FE1F31
S1132350C006FE1FCC06FE1FAC06FE1FA006FE1F15
S113236010B50C4C236813F10F3F06D04FF0F03337
S1132370236000F0FBFBFFF7ABFF074A4FF0F0339D
S113238010682360FFF790FE00232360BDE810402F
S113239000F02CBC0000FE1FB806FE1F704700BFF3
S11323A0704700BF2DE9F84F0A9D0B9CDDF8309073
S11323B00D9E07468B46924628462246EF219846B4
S11323C000F064FD38460021B42200F05FFD04F102
S11323D0FF3E0E9B374AC7F828B0AE4420200321A5
S11323E0C7F8A0003963C7F844A0C7F84880FD6067
S11323F07C61C7F810E0C7F82C90C7F89890BB61CF
S1132400FB61FE63C7F89C60BF657A6538462A495C
S113241000F088FCEFF3108572B6284A284B116847
S11324203B60284BE1B9C7F88870C7F88C701F600F
S1132430254B0131186811600F9A0130012A186088
S11324401AD085F31088EFF3108272B61968013937
S1132450196082F3108800F0ABF80020BDE8F88F13
S11324601B68D3F88C00C3F88C70C0F88870C7F868
S11324708C00C7F88830DBE7EFF30583134A126852
S11324801343B3F1F03F10D3114B1C6884B1E36ADA
S1132490E66BE36385F31088384600F0A7F8002C58
S11324A0DBD0E6630020BDE8F88F00263446F1E770
S11324B02646EFE789280000492500006407FE1F2F
S11324C0445248545C07FE1F6C07FE1F0000FE1FA9
S11324D07407FE1FF8B5DFF868C0104BDFF864E03E
S11324E00F4E104F104800242146202580221D60E5
S11324F03460CCF80040CEF800403C6000F0C6FCEC
S11325000A4B0B4E1A680B4D0B480C49346042F0D1
S113251080722C6004600C601A60F8BD7807FE1F9E
S11325207C07FE1F5807FE1FD406FE1F6007FE1F10
S11325305C07FE1F6407FE1F6C07FE1F5407FE1F87
S11325407007FE1F7407FE1F164B70B51C68EFF36F
S1132550108272B6D4F8B03082F3108813B12046DA
S113256000219847636CA06C98470F4B1B680BB114
S113257020469847EFF3108072B60C4BD4F8B02085
S11325801D68012100260135E6641D602163A163F5
S113259080F310880AB1204690472046BDE8704079
S11325A000F0AAB87007FE1F5407FE1F6C07FE1F39
S11325B00A4B1B688BB90A4A0A4B12681B689A4279
S11325C00BD0094B4FF080525A60EFF3058323B9C7
S11325D0EFF3108362B683F3108870476C07FE1F15
S11325E07007FE1F7407FE1F00ED00E0436E2DE927
S11325F0F0410446002B43D04C3000F003FAEFF3D3
S1132600108172B6344BA26B186801381860CAB9CD
S1132610226B0ABB314D324A106881F310882A6854
S113262090420DD01B685BB92E4B4FF080525A601C
S1132630EFF3058323B9EFF3108362B683F31088B5
S1132640BDE8F081226B013A012AE3D9626B92B9A9
S1132650224DA2632263DEE7626B62B9E06A224D17
S1132660226355F820206AB1506A1C4D04625462FA
S113267060622262CFE70020032260632263C9E71D
S1132680C364BCE7194A45F820404FF001081568B7
S1132690174E246208FA00F72F4317603768646204
S11326A0B8420E4DB7D22A68306092B1D66BB042B0
S11326B0B1D2D26A964205D00E48066808FA02F2F0
S11326C0164306602C6081F310881B68002BABD086
S11326D0B6E72C609FE700BF6C07FE1F7407FE1F60
S11326E07007FE1F00ED00E0D406FE1F5807FE1F12
S11326F07807FE1F7C07FE1F5A4B2DE9F04704465E
S11327001D68EFF3108172B6A84261D0564BA26BDC
S11327101868012A00F1FF30186015D0534A81F37C
S11327201088126895420DD01B685BB9504B4FF06E
S113273080525A60EFF3058323B9EFF3108362B636
S113274083F31088BDE8F087206AE76A0026A04278
S1132750A6634DD0DFF824C1666A5CF82780466220
S1132760A045306269D0414A10688442D7D1414CB7
S11327704148266805685CF8266016603F4E0DB334
S11327801D6801351D6081F31088EFF3108172B666
S11327901F68056807F1FF3C6F42C3F800C02F4073
S11327A0B7FA87F7C7F11F07D4F800C056F82740D7
S11327B0E66B664506D8012606FA07F725EA0705FB
S11327C01460056081F310881B68002BAED0B9E754
S11327D0C36C013B033307D881F310884C3000F0FD
S11327E0D9F8EFF3108172B6254AE36913608DE7D7
S11327F0DFF89080DFF88090D8F80000DFF87CC024
S1132800D9F800A04CF82760BA40D2431040C8F869
S11328100000BAF1000F03D002EA0A02C9F800204E
S1132820B0B9144C114A20252560106081F310883A
S11328301B68002B3FF47AAF84E70F4E4CF8270057
S1132840306800288FD0BA4020EA020030608AE75E
S113285042421040B0FA80F0064AC0F11F001060F6
S113286081E700BF7007FE1F6C07FE1F7407FE1F81
S113287000ED00E07807FE1F7C07FE1FD406FE1F54
S11328800808FE1F5807FE1F08B5EFF3108172B643
S1132890026B042A05D0836E81F3108803B1984734
S11328A008BD054B1A6801321A6081F31088BDE82F
S11328B00840FFF79BBE00BF6C07FE1F2DE9F043E5
S11328C0DFF8BC80DFF8BCE0204BDFF8BCC0DFF8E9
S11328D0BC901F4E1F4D204C00273946802287B0E4
S11328E04046CEF800701F60C9F80070CCF8007044
S11328F000F0CCFA194ADFF898E0194B1948C2F8ED
S1132900008008F180014FF480621960CEF80080E5
S1132910376039462860226002E0286822683168FE
S113292000238DE8050002910391049305930E485A
S11329300E490F4A0F4BFFF735FD0028EDD10E4A23
S11329400E4B1060186007B0BDE8F0830408FE1F4A
S11329500C08FE1FD40CFE1FD008FE1FC808FE1F63
S11329601008FE1FD408FE1F1408FE1FA035000027
S1132970412A00004D495441CC08FE1FD80CFE1FCB
S11329808407FE1FDC0CFE1F0808FE1FE00CFE1F60
S11329908007FE1F10B4EFF3108172B603685A1E4D
S11329A0D41C01D8846924B181F310885DF8044BE8
S11329B07047114C202B114B24681B6894BF920064
S11329C07C2222449A4205D30D4CD31A246823F066
S11329D00303E218136853B15C69206158614461D0
S11329E00361826181F310885DF8044B70470061D4
S11329F040611060F5E700BF8007FE1F1008FE1F4E
S1132A00C808FE1F10B4EFF3108472B6826962B175
S1132A10036998420ED0416959610B611168814282
S1132A2004BF9A6113600023836184F310885DF806
S1132A30044B704713688342F5D100231360F2E717
S1132A402DE9F04F424B984283B002D003B0BDE869
S1132A50F08F0024DFF80881DFF808B1DFF8F8A070
S1132A60DFF804910194254601AFEFF3108072B6AC
S1132A7038490A68136800930BB100A9996115607D
S1132A80344A34491368D8F80020043393420B6065
S1132A9059D0CBF8005080F31088EFF3108E72B643
S1132AA0009EBEB938E0203A3260B7613661002238
S1132AB08EF310880AB120469047EFF3108272B665
S1132AC0B069B8421ED082F31088EFF3108E72B64C
S1132AD0009E0EB33269964212D07069506100AB09
S1132AE00261009293613268202ADCD870683060F9
S1132AF0B268F46810B1B7613661D9E7B061D7E75D
S1132B000095F0E7B56182F310883046FFF742FF85
S1132B10EFF3108272B6D6E7DBF8003013B18EF310
S1132B201088A2E7D9F8003001330322C9F8003035
S1132B300123CAF83020CAF838308EF310880648CA
S1132B40FFF7DAFD91E7054A13680B60A1E700BFC0
S1132B504D4954418007FE1F1408FE1FC808FE1F7C
S1132B601008FE1F0408FE1F6C07FE1F10B472B687
S1132B70154B16481C68164B164A0460186816490B
S1132B80116040F0010015491860154A0B68A2FB5A
S1132B9003135B09013BB3F1807F09D2114A124848
S1132BA05360F0240021072380F8234091601360D0
S1132BB00D4BF0220021DA7783F8222083F82310CA
S1132BC05DF8044B704700BF000000006807FE1F5B
S1132BD0001000E0B806FE1FEC24FE1F7C05FE1F5B
S1132BE01F85EB5110E000E000ED00E010B4114B44
S1132BF0114C12481249002222609A809A821A804B
S1132C001A829860D9609861D961EFF3088282F3DF
S1132C1009880C49B1F8200180B2012240F48050A7
S1132C20A1F820019A809A8262B6074B4FF0805235
S1132C305A60FEE7000D00406C07FE1FE810FE1FFF
S1132C40E824FE1F0060004000ED00E02F4B1A68EE
S1132C50002A58D0EFF3098CACF1200C8CF30988CE
S1132C600CF1200C2CE9F00F1EF0100F40F008803E
S1132C70ACF1400C8CF309880CF1400C2CED108A5B
S1132C807146C2F89010614621489160016811B103
S1132C9000249161046072B61E4A1168002928D08C
S1132CA0196062B61A681C49546895690560013454
S1132CB0002054608882D0688861106940F0030065
S1132CC0C861D2F8902096461B689B689C461EF00B
S1132CD0100F40F00280BCEC108ABCE8F00F8CF3BB
S1132CE0098801238B827047FEE762B630BFBFF3C9
S1132CF06F8F72B61168094619600029F5D0074A2A
S1132D001B215160CDE70248C5E700BF7007FE1FD5
S1132D100808FE1F7407FE1F000D004000ED00E0D0
S1132D2000F024B80269A2F1400222F007024FF039
S1132D300003136053609360D36013615361C368ED
S1132D4093614FF00003D361136253629362D362C1
S1132D5013634FF0FF33536391634FF08073D36376
S1132D6082606FF00203C0F8903070471D4B1E4A1A
S1132D7018681168013010B5186069B91B4C2068D7
S1132D801B4B1A68116891B11A4B01221A6000F0AA
S1132D906DF82368DBB910BD01391160134C91B98A
S1132DA0134B1A681168012020600029ECD11249E4
S1132DB0096804328A421A600DD00E4B1A6820B991
S1132DC0002AE4D110BD2068DAE7002ADFD1BDE88B
S1132DD0104000F015B80949064A096812681960DC
S1132DE0EDE700BFE00CFE1F0808FE1FDC0CFE1F11
S1132DF08007FE1F0408FE1F1008FE1FC808FE1FE0
S1132E00144B10B41B68EFF3108272B61249002001
S1132E10086063B1196B51B9186A104CD969216003
S1132E209842996103D0D96ADB6B994204D082F34A
S1132E3010885DF8044B7047094B0A4C43F8210095
S1132E402068094953F820300B6082F310885DF83C
S1132E50044B70477007FE1FDC0CFE1F0808FE1FA2
S1132E60D406FE1F7807FE1F7407FE1FEFF31082BF
S1132E7072B6044B19680131196082F31088024854
S1132E80FFF7B4BB6C07FE1F1408FE1F70B4840761
S1132E9046D0541E002A41D0CDB2034602E0621E41
S1132EA0E4B3144603F8015B9A07F8D1032C2ED936
S1132EB0CDB245EA05250F2C45EA054519D903F19C
S1132EC010022646103E0F2E42F8105C42F80C5CAD
S1132ED042F8085C42F8045C02F11002F2D8A4F152
S1132EE0100222F00F0204F00F041032032C1344DA
S1132EF00DD91E462246043A032A46F8045BFAD842
S1132F00221F22F003020432134404F003042CB100
S1132F10C9B21C4403F8011BA342FBD170BC704727
S1132F2014460346C2E700BF024B13B1024800F047
S1132F3005B8704700000000492F0000014600203A
S1132F400246034600F016B838B5084B084DED1A92
S1132F50AC1018BFED1805D0013C55F8043D984756
S1132F60002CF9D1BDE8384000F05CB83804FE1FED
S1132F703C04FE1F2DE9F047254C2568D5F848414F
S1132F800646884692469946CCB360681F2818DCEA
S1132F90431C7EB104EB80050121C5F888A0D4F858
S1132FA0887101FA00F21743022EC4F88871C5F83B
S1132FB008911ED00230636044F820800020BDE8F0
S1132FC0F087144B03B34FF4C870AFF3008004468A
S1132FD0D0B1D5F84831002780E88800C5F84841C9
S1132FE038460123C4F88871C4F88C71002EE1D0EE
S1132FF0D0E7D4F88C110A43C4F88C21DAE705F53C
S1133000A674C5F84841C0E74FF0FF30BDE8F0872B
S1133010B835000000000000F8B500BFF8BC08BCDB
S11330209E467047F8B500BFF8BC08BC9E46704782
S1133030D506000005070000D90700001D080000A0
S113304079080000AD0800001D0700008907000092
S1133050A9070000F9070000590800004107000013
S113306065070000C5060000CD090000C90800007E
S1133070F908000029090000450900005909000069
S11330807D0900006D09000000030303030303032B
S1133090030301020303030301000100F10B000019
S11330A0C50B0000690B0000790B0000890B0000C0
S11330B09D0B0000B10B00000100010001000200A3
S11330C00300FFFF000001000200FFFF01000100F8
S11330D0010000009D170000611800003119000074
S11330E0151A0000851600009D1600000118000046
S11330F0DD190000C1160000ED160000F9160000ED
S113310005170000111700001D1700002917000003
S1133110691600006D1600007116000035170000D6
S1133120411700004D1700005917000075160000E4
S113313001000100010002000800FFFF0204030473
S11331400404FFFF01000000000000000000000074
S11331507005FE1F8C310000683000000A0000007A
S113316002000301F520000080310000000000008F
S1133170426C696E6B792054687265616400FFFF6C
S11331806405FE1F5C310000683000000B00000085
S113319002000301C92000005031000000000000BB
S11331A000000000303000007E000000B03100005C
S11331B0008000000000000000800000010000000A
S11331C00080000002000000000000000300000076
S11331D00040000004000000004000000500000062
S11331E0004000000600000000000000070000008E
S11331F000800000080000000080000009000000BA
S1133200004000000A000000008000000E000000E2
S1133210008000000F00000000040106000100000F
S1133220000401060101000000040106020100007F
S1133230000401060301000000040104040100006D
S11332400004010405010000000C01040601000053
S11332500404000007010000000001000801000050
S11332600000010009010000000001000A01000043
S1133270004000000B010000000000000C010000F1
S1133280040400000D010000000000000E01000015
S1133290000000000F010000000000000002000018
S11332A00000000001020000000C01040202000002
S11332B000000000030200000000010C04020000F2
S11332C00000010C050200000000010C06020000D1
S11332D00000010C07020000000000000C020000C6
S11332E0000000000D0200000000010000030000C7
S11332F000040104010300000004010402030000AF
S113330000000000030300000004010404030000A3
S11333100004010405030000000C0104060300007E
S1133320040400000703000000000000080300007C
S11333300404000009030000000000000A03000068
S1133340000000000B030000000000000C0300005C
S1133350000401190D030000000401190E0300000C
S1133360000401190F0300000040000000040000E5
S1133370000001100104000000000110020400001C
S113338000040117030400000004011704040000F2
S1133390000C011705040000000C011706040000CE
S11333A000000113070400000000010C08040000E1
S11333B00000010C09040000000401040A040000D8
S11333C0000401040B040000000C01040C040000C0
S11333D0040400000D0400000000010C0E040000B1
S11333E00000010C0F040000000C01110005000096
S11333F0000C011101050000000C01110205000080
S1133400000C011103050000000C0111040500006B
S1133410000C011105050000000000000605000075
S11334200000000007050000000000000B0500007C
S1133430000000000C050000000000000D05000065
S1133440040400000006000004040000010600005B
S1133450040400000206000000000000030600004F
S11334600000000004060000000000000506000043
S113347000040119060600000004011907060000F3
S1133480000000000806000000000000090600001B
S1133490000000000A060000000000000B06000007
S11334A0000000000C060000000000000D060000F3
S11334B0000000000E060000000401190F060000C1
S11334C0000C011700070000000C011701070000A1
S11334D0000C011702070000000C0117030700008D
S11334E0000C011704070000000C01170507000079
S11334F00004010506070000000401050707000099
S11335000404000000080000040400000108000096
S11335100004011902080000000401190308000056
S11335200004011904080000000000000508000060
S11335300404000006080000000C01190009000042
S11335400004011901090000000401190509000023
S1133550000401190609000000040119070900000C
S1133560000401190809000000040119000A000000
S113357000040119010A000000040119080A0000EE
S113358000040119090A0000000401190A0A0000D4
S113359000000114000B000000000114010B0000E6
S11335A053797374656D2054696D65722054687223
S11335B065616400430000000800FE1F0000000075
S11335C0F0F0F0F00000000000000000F402FE1F24
S11335D05C03FE1FC403FE1F000000000000000087
S11335E000000000000000000000000000000000D7
S11335F0000000000000000000000000B4350000DE
S113360000000000000000000000000000000000B6
S113361000000000000000000000000000000000A6
S11336200000000000000000000000000000000096
S11336300000000000000000000000000000000086
S11336400000000000000000000000000000000076
S11336500000000000000000000000000000000066
S11336600000000000000000000000000000000056
S113367001000000000000000E33CDAB34126DE6F3
S1133680ECDE05000B00000000000000000000005C
S11336900000000000000000000000000000000026
S11336A00000000000000000000000000000000016
S11336B00000000000000000000000000000000006
S11336C000000000000000000000000000000000F6
S11339F0292F00002505000001050000000000003B
S9031F9548
