S00E0000424D455350492E7372656356
S1130000B024FE1FED440000FD3F0000E944000061
S1130010E9440000E9440000E94400000000000055
S1130020000000000000000000000000E94400009F
S1130030E944000000000000E9440000E944000035
S1130040E52900009D290000752A00002D2A0000E2
S1130050092A0000C1290000992A0000512A000041
S1130060000000000000000000000000000000008C
S1130070000000000000000000000000000000007C
S1130080000000000000000000000000000000006C
S1130090000000000000000000000000000000005C
S1130400FFFFFFFFFFFDFFFFFFFFFFFFFFFFFFFFFA
S1130410FFFFFFFFFFFFFFFFFFFFFFFFFFFFFFFFE8
S1130420FFFFFFFFFFFFFFFFFFFFFFFFFFFFFFFFD8
S1130430FFFFFFFFFFFFFFFFFFFFFFFFFFFFFFFFC8
S1130440FFFFFFFFFFFFFFFFFFFFFFFFFFFFFFFFB8
S1130450FFFFFFFFFFFFFFFFFFFFFFFFFFFFFFFFA8
S1130460FFFFFFFFFFFFFFFFFFFFFFFFFFFFFFFF98
S1130470FFFFFFFFFFFFFFFFFFFFFFFFFFFFFFFF88
S1130480FFFFFFFFFFFFFFFFFFFFFFFFFFFFFFFF78
S1130490FFFFFFFFFFFFFFFFFFFFFFFFFFFFFFFF68
S11304A0FFFFFFFFFFFFFFFFFFFFFFFFFFFFFFFF58
S11304B0FFFFFFFFFFFFFFFFFFFFFFFFFFFFFFFF48
S11304C0FFFFFFFFFFFFFFFFFFFFFFFFFFFFFFFF38
S11304D0FFFFFFFFFFFFFFFFFFFFFFFFFFFFFFFF28
S11304E0FFFFFFFFFFFFFFFFFFFFFFFFFFFFFFFF18
S11304F0FFFFFFFFFFFFFFFFFFFFFFFFFFFFFFFF08
S113050010B5054C237833B9044B13B10448AFF349
S113051000800123237010BD8800FE1F000000002E
S113052090620000084B10B51BB108480849AFF3AE
S113053000800848036803B910BD074B002BFBD0AB
S1130540BDE81040184700BF0000000090620000A2
S11305508C00FE1F6C00FE1F0000000000F01F0155
S113056001234009024A8B4042F82030704700BF03
S113057000E100E04309203300F01F00012202499A
S1130580824041F82320704700E100E020B319B312
S113059030B54368002283B005460C464A600A60C1
S11305A0E3B19A68AAB192699AB11868694690470A
S11305B080B9009B6360A868A0B183684BB19B6954
S11305C03BB100686946984720B9009B236003B09B
S11305D030BD012003B030BD012070474FF0FF3320
S11305E04B60E8E74FF0FF332360F3E70123022277
S11305F0027043708370C3700020704708B338B52D
S113060004460068104A0301D35C012B05D0002581
S1130610A56102F02FF9284638BD63682BB19A68AA
S11306206AB1186858B1D3699847A3682BB19A681E
S11306302AB1186818B1D36998472068E7E7012000
S113064038BD0120704700BFC803FE1F58B151B127
S113065070B40568124E2C01345D013C042C04D99D
S1130660052070BC70470120704705F1007505F541
S113067060556D01AC79E40608D562B143689A68A7
S11306805AB11868B0FA80F04009EAE71943CB0779
S1130690F3D50320E5E71046E3E70120E1E700BFD7
S11306A0C803FE1F2DE9F04113461446426805466F
S11306B00E46FFF7CBFF88B994B12B68174F03F1AF
S11306C0007101F5605149011B018A79FB5C12F04C
S11306D0100F14BF01220222012B04D0BDE8F081C7
S11306E02046BDE8F08168680028F7D0B4FBF2F436
S11306F0836800684FF6FF77BC4228BF3C465F68BA
S1130700022A4FF0010E3246A3B285F814E0BC462B
S11307100CBF10311131BDE8F0416047C803FE1F22
S11307200AB90320704700297CD12DE9F04F514BC1
S1130730514F5E6985B042F21078144601900D461F
S11307408B46C1464FF0FF0A002003A9B0470BEBCC
S11307504B03002840F0898037F81330039ADFF800
S113076018C104FB03F3B2FBF3FE0EF1FF31BEF13B
S1130770000F12D003FB0EF3520AFF2909FB02F209
S11307804FEA532309D8B2FBF3F2A2F51C53103BF2
S1130790434502DA98468A465D460BF1010BBBF1EC
S11307A00D0FD1D142F2107398455ED0019B03F135
S11307B0007303F560535B0105EB45059A780CEB78
S11307C0450C5FFA8AFA22F003029A7083F801A0BA
S11307D0DA799CF8021022F0400201F0010142EAA9
S11307E08112DA71DA799CF8031022F0100201F018
S11307F0010142EA0112DA71DA799CF8041022F05C
S1130800080201F0010142EAC102DA719CF80520F4
S11308101C7802F0030124F003020A431A7005B0A5
S1130820BDE8F08F00F1007000F560504001FF2337
S11308304370C37923F04003C371C37923F00803E1
S1130840C371037823F003030370837823F0030355
S113085043F002038370C37902290CBF43F01003F1
S113086023F01003C37100207047032005B0BDE8D6
S1130870F08F00BF885C0000405B0000F0B51346B9
S113088083B01546826804460E46FFF7DFFE10B9B2
S1130890E06810B1082003B0F0BD236831491A01A3
S11308A08F188A5C012AF6D1797801B97A7003F13C
S11308B0007303F560535A01A168937913F0100F84
S11308C014BF01230223002946D0012D44D9022B51
S11308D0A5EB03004FF6FF77B5FBF3F5236105F1B4
S11308E0FF330CBF0E320F328D68BB42304428BF39
S11308F03B46E0606D6808689BB23146A847002813
S1130900C9D1226802F1007202F560525201937853
S113091043F02003937024680CB3082C0CBF05200B
S11309200820FFF71BFE04F1007303F560535B011D
S113093000209A78D2B28DF807209A78D2B28DF836
S113094007209A78D2B28DF807209A7862F07F0255
S11309509A709DF807309EE7E6602561D7E701208D
S1130960DFE700BFC803FE1F002800F0C58070B594
S1130970046882B005460E46002C00F0A880082CBE
S113098000F09A800820FFF7F5FD002C00F0A2800B
S1130990082C00F094800820FFF7ECFD002C00F0F8
S11309A09C80082C00F08E800820FFF7E3FD002CCB
S11309B000F09680082C18BF082000F08680FFF70E
S11309C0D9FD04F1007303F560535B019A78D2B248
S11309D08DF806209A78D2B28DF806209A78D2B291
S11309E08DF806209A7802F07F029A709A7822F0A5
S11309F004029A709A7822F040029A702B689DF84B
S1130A00062003F1007303F560535B019A7802F04A
S1130A10DF029A702B6803F1007303F560535B01E6
S1130A209A7802F0EF029A70286800F1007303F5D7
S1130A3060535B01997811F0030105D0DB7913F061
S1130A40100F14BF022103213246FFF769FE2B6801
S1130A5003F1007303F560535B0106469A7842F094
S1130A6010029A702C68002C41D0082C3AD008202F
S1130A70FFF774FD002C3DD0082C18BF082034D09B
S1130A80FFF76CFD04F1007303F560535B0130461E
S1130A909A78D2B28DF807209A78D2B28DF80720CE
S1130AA09A78D2B28DF807209A7842F040029A7070
S1130AB09DF8073002B070BD0520FFF75BFD0620EE
S1130AC0FFF758FD0420FFF755FD072077E70120C5
S1130AD0FFF750FD0220FFF74DFD0020FFF74AFD10
S1130AE003206CE70420FFF739FD0720C8E7204600
S1130AF0FFF734FD0320C3E7012070472DE9F04FD1
S1130B0087B0A8B1A1B1064608680C4601F040FFC1
S1130B1048B92068194F0301FB5C73B108252846C6
S1130B2007B0BDE8F08F0546284607B0BDE8F08F52
S1130B300125284607B0BDE8F08F237A022B04D99B
S1130B400325284607B0BDE8F08FA37A012BF7D818
S1130B50637A022BF4D8D4F81C80B8F1000F07D0C4
S1130B6098F80030002B40F097836368002BE7D09F
S1130B7001F064FE054618B10A25D0E7C803FE1F3C
S1130B80E3682269B2607360002B49D0D3F808E0AF
S1130B90BEF1000FCCD0D3F800C0BCF1000FC7D019
S1130BA058680028C4D00368002BC1D0D9789A783B
S1130BB094F808904FF0020A65F387116AF38302F0
S1130BC065F3830165F34512D145D9709A7000F03D
S1130BD0AB82DA7865F30512DA70D4F800B0BBF1B1
S1130BE0000F02D0BBF1080FA2D18246BAE80F0071
S1130BF00DF10409A9E80F00C34BDAF80020C9F885
S1130C00002033F81B20DEF80030ADF80820002265
S1130C1060468DF80A2001A99847002883D12269EB
S1130C20002A4DD0D2F808C0BCF1000F80D0D2F811
S1130C300090B9F1000F3FF47BAF5268002A3FF4F3
S1130C4077AF1368002B3FF473AFD878997894F892
S1130C5008E04FF0020A00F03F0001F0F3016AF3EC
S1130C6083006FF34511D645D870997000F00E8358
S1130C70D9786FF30511D970D4F800B0BBF1000F27
S1130C8003D0BBF1080F7FF453AF9246BAE80F00CC
S1130C900DF1040EAEE80F009C4BDAF80020CEF8FC
S1130CA0002033F81B20DCF80030ADF808200022C7
S1130CB048468DF80A2001A9984700287FF433AFED
S1130CC00120D4F8009003F04DFB914AC9F11F09AB
S1130CD013684FF0010A0AFA09F123EA01031360C9
S1130CE0504603F01BFB236803F1007303F56053C4
S1130CF05B0100224FF0F209FF214FF4784C4FF0D2
S1130D00400E03201A709A701A7183F80690597075
S1130D109974DA711A725A729A72DA721A735A736D
S1130D201A73A3F814C05A8383F813E0187723685E
S1130D3003F1007303F560535B0106221A77D4F8BC
S1130D400090B9F1000F00F0F581B9F1080F40F0FF
S1130D50FC810520FFF70EFC0620FFF70BFC0420A6
S1130D60FFF708FC0720FFF705FC09F1007303F502
S1130D7060535B019A78D2B28DF803209A78D2B28C
S1130D808DF803209A78D2B28DF803209A7802F075
S1130D907F029A709A7822F004029A709A7822F06C
S1130DA040029A7023689DF8032003F1007303F551
S1130DB060535B019A7802F0EF029A70236803F1A2
S1130DC0007303F560535B019A7802F0DF029A70B6
S1130DD0236803F1007303F560535B019A8A22F0E0
S1130DE001029A82236803F1007303F560535B01E7
S1130DF09A8A42F002029A822369002B00F03B8215
S1130E00236803F1007303F560535B019A8A22F4AB
S1130E1070629A82236803F1007303F560535B01E7
S1130E209A8A6FEA02526FEA12529A82226802F197
S1130E30007202F560525201938A43F004039382D4
S1130E40938A5907FCD42369002B00F0BF812368DF
S1130E5003F1007303F560535B019A8A22F0F002F8
S1130E609A82B8F1000F00F0278198F80230002B25
S1130E7000F04F81236803F1007303F560535B01B5
S1130E80DA7962F07F02DA7198F80330002B00F00F
S1130E901D81236803F1007303F560535B01002196
S1130EA0DA7942F02002DA7119722368D4F81C80CE
S1130EB003F1007303F560535B015A7A22F00102D7
S1130EC05A72236803F1007303F560535B015A7B84
S1130ED002F07F025A73236803F1007303F5605331
S1130EE05B015A7B22F040025A73637A002B00F0B4
S1130EF0FA80236803F1007303F560535B011A78E9
S1130F0042F020021A7005E02C5B0000905B0000A8
S1130F1000700440637A012B236803F1007303F526
S1130F2060534FEA43131A780CBF42F0100222F0C8
S1130F3010021A70237A012B00F02881022B2368F7
S1130F4003F1007303F560534FEA43131A7822F058
S1130F5040021A709A790CBF22F0100242F010027B
S1130F609A71A37A012B236803F1007303F560538C
S1130F704FEA43131A780CBF42F0080222F0080229
S1130F801A70E37A002B00F0B980236803F1007330
S1130F9003F560535B015A7B42F002025A73B8F1C5
S1130FA0000F00F01E8198F8001029B1022903D027
S1130FB003290CBF0321002194E80500FFF7B0FBCF
S1130FC0032800F0168198F80130002B40F0ED80E2
S1130FD0236803F1007303F560535B019A789978F1
S1130FE002F0020221F003010A439A70226802F11E
S1130FF0007202F560525201938A9B07FCD4938AD3
S1131000C3F38003002BFAD1918A41F0010191824C
S1131010226802F1007202F5605252014FF0010E93
S1131020918A21F0080191822268A0696169326085
S11310304FEA021802F1007207EB080C02F5605245
S1131040F061B161F36033613375520107F808E070
S11310508CF80130CCF80460937843F0100393705B
S11310602468002C00F00281082C00F0FA8008208B
S1131070FFF774FA002C00F0FC80082C18BF08203D
S113108000F0F280FFF76AFA04F1007303F560538D
S11310905B019A78D2B28DF804209A78D2B28DF896
S11310A004209A78D2B28DF804209A7842F0400253
S11310B09A709DF8043032E5236803F1007303F558
S11310C060535B01DA7902F07F02DA71236803F17D
S11310D0007303F560535B010021DA7922F02002EA
S11310E0DA711972E1E6236803F1007303F56053C2
S11310F05B011A7822F020021A700BE7236803F1CF
S1131100007303F560535B015A7B22F002025A73A9
S113111045E7236803F1007303F560535B01DA7953
S113112002F07F02DA71AFE6CAB2012161F305125F
S1131130DA7052E55046FFF71DFA0220FFF71AFA5B
S11311400020FFF717FA03200DE60820FFF712FA34
S1131150B9F1000FF1D0B9F1080F3FF4FDAD08204B
S1131160FFF708FAB9F1000FEAD0B9F1080F3FF41C
S1131170F6AD0820FFF7FEF9B9F1000FE3D0B9F19D
S1131180080F18BF08207FF4EEADEBE5236803F1E8
S1131190007303F560535B011A7842F040021A7041
S11311A09A7942F010029A71DBE6236803F1007326
S11311B003F560535B019A78997802F0030242F0D8
S11311C0010221F003010A439A700FE7236803F137
S11311D0007303F560535B019A8A42F0F0029A822D
S11311E03FE6414694E80500FFF79AFA03287FF4A6
S11311F0EFAE236803F1007303F560535B019A7843
S1131200997802F0020221F003010A439A7073688C
S11312101BB19A681868D3699847B3681BB19A6878
S11312201868D3699847236803F1007303F5605382
S11312305B010120DA7902F07F02DA71256803F09C
S113124091F8184A01201368C5F11F0500FA05F149
S11312500B43136003F062F8206801F001FB0325DF
S11312605DE40420FFF77AF907200BE72046FFF737
S113127075F9032006E7236803F1007303F560534F
S11312805B019A8A42F470629A82C3E5C1B201207A
S113129060F30511D970EFE4023B012B3FF650AC2B
S11312A066E400BF00700440654B03EB0013F0B527
S11312B05C682268A76800F1007502F1007202F50B
S11312C0605305F560555B016D0183B0EE8A997931
S11312D011F0100FC6F3042E14BF01210221002FB8
S11312E064D0BEF1000F0FD1E26816781A79D209E2
S11312F0FCD0B2B2DA812369E2685B1A114423613B
S1131300E16023B103B0F0BD2369002BFAD1064696
S113131000287DD0082832D00820FFF71FF9AB78C9
S1131320DBB28DF80630AB78DBB28DF80630AB78E3
S1131330DBB28DF80630AB7843F00403AB709DF854
S11313400630002E79D0082E18BF08202CD0FFF7C5
S113135011F9AB78DBB28DF80730AB78DBB28DF8DE
S11313600730AB78DBB28DF80730AB7803F07F033E
S1131370AB709DF807200023E36003B0F0BD0620A6
S1131380FFF7ECF8AB78DBB28DF80630AB78DBB264
S11313908DF80630AB78DBB28DF80630AB7843F0CD
S11313A00403AB709DF806300520D0E726694EB3E0
S11313B0CEF11006002E25DDE368012902F5605206
S11313C00CBF93F800E0B3F800E052011379DB0995
S11313D0FCD05FFA8EF3D3812269E368521A0F447A
S11313E00B44BA4206F1FF362261E36004D91EB110
S11313F0226802F10072E0E7236803F1007303F549
S113140060535B011A7902F07F021A71236978E74D
S11314100220FFF7A3F8AB78DBB28DF80630AB7887
S1131420DBB28DF80630AB78DBB28DF80630AB78E2
S113143043F00403AB709DF80630012087E700BF3A
S1131440C803FE1F2E4B03EB00132DE9F04FD3F816
S113145004B0DBF80030DBF8042000F1007403F181
S1131460007303F5605304F560545B01640185B0B7
S1131470E58A9B7913F0100F064605F01F0514BF8B
S11314804FF001084FF0020812B19BF8143023BB4F
S11314904FF0000AD146802712E0238ADBF8182097
S11314A09BB2DBB252B1DBF81C10009602938DF8AC
S11314B0047003919047B8F1020F07D00AF1010AB2
S11314C055456846E9D105B0BDE8F08FCDF80890E0
S11314D0DBF8183068469847F0E7DBF8183000224C
S11314E08BF81420002BD3D0DBF81C1000900120C3
S11314F08DF804000292039168469847C8E700BF3C
S1131500C803FE1FF0B51C4E0501731987B00446CD
S11315105F6800282DD008280CBF06200820FFF79C
S113152029F804F1007303F560535B019A78D2B291
S11315308DF807209A78D2B28DF807209A78D2B223
S11315408DF807209A7822F004029A70BB699DF8FE
S113155007204BB1FA6905920021022202940491FA
S11315608DF80C2002A89847354400236B7007B00F
S1131570F0BD0220D3E700BFC803FE1F10B500F181
S1131580007303F560535B0116491C8A1A7901EB59
S1131590001122F0400249681A711A7922F00102FE
S11315A01A711A79920684B0E4B20CD520238DF80E
S11315B004308B692BB1CA69009003920294684687
S11315C0984704B010BD1A79D20607D51B7FDB07F4
S11315D054BF102308238DF80430EAE704238DF860
S11315E00430E6E7C803FE1F00F01F010123400991
S11315F0024A8B4042F82030704700BF00E100E00F
S11316004309203300F01F0001220249824041F8BF
S11316102320704700E100E001230321022201702E
S113162082704370C3700020704700BFA1B198B1AD
S11316302DE9F04F8DB00C460190086801F0A8F92F
S113164038B92668DFF8AC83370118F807302BB1B6
S113165008200DB0BDE8F08F012070474FEA8609DD
S1131660DFF894A309EB06030AEB83039B78002BB2
S1131670EED1304601F0E2F808B10A20E9E76369E7
S1131680002B44D09A680292002A00F041811A6823
S11316900392002A00F03C815B68002B00F0388143
S11316A0D3F800E0BEF1000F00F03281226804920A
S11316B012B1082A40F02C819EF802C09EF803B0B3
S11316C01D46022363F3830C0FCD0BF0330B6FF332
S11316D0451C6FF3051B8EF802C08EF803B00DF1A4
S11316E01C0EAEE80F002A68CEF800200499BD4A0B
S11316F0039832F81110029A002309931268ADF886
S113170020108DF8223007A990470028A1D1236921
S1131710002B00F015819A680392002A00F0F880EB
S11317201A680492002A00F0F3805B68002B00F032
S1131730EF801A680292002A00F0EA80226805927B
S113174012B1082A40F0E480029D95F803C095F890
S113175002B09E460CF03F0C022363F3830CBEE8F8
S11317600F006FF3051C0BF0F30B85F803C06FF348
S1131770451B0DF11C0C85F802B0ACE80F00DEF837
S11317800020CCF800200599974A049832F81110EB
S1131790039A002309930DF11C0B1268ADF8201075
S11317A08DF822305946904700287FF452AF01202B
S11317B002F0D8FD8D4901220B68C6F11F0002FA20
S11317C000F023EA00030B601046029202F0A6FD2B
S11317D02368029A03F1007303F560535B0100214F
S11317E0FF204FF0F20E19704FF4784C9970197174
S11317F083F806E058704FF0400E98740320D971B6
S1131800197259729972D972197359731973A3F8A9
S113181014C0598383F813E01877002E7AD0082E69
S113182000F083800820FFF7EBFE002E75D0082E11
S11318307ED00820FFF7E4FE002E71D0082E7AD067
S11318400820FFF7DDFE002E6DD0082E18BF0820FB
S113185074D0FFF7D5FE06F1007303F560535B0106
S1131860634A99785269C9B28DF81A109978C9B245
S11318708DF81A109978C9B28DF81A10997801F078
S11318807F019970997821F004019970997821F079
S1131890400199709DF81A10998A21F001019982EA
S11318A09979029321F001019971597A21F001018A
S11318B05972197861F07F011970587B4FF0000E4E
S11318C020F00100587359467046D4F80CB08DF8D6
S11318D01BE09047C8B9BBF1000F16D00A2E14D8EC
S11318E0DDF81CC0DFF814E1029B019D02463EF8BE
S11318F000100BFB01F1BCFBF1F10139FE2900F1F1
S1131900060020D90132042AF1D1304600F0A8FFA4
S113191001209EE61046FFF773FE0220FFF770FEDB
S11319200020FFF76DFE032093E70520FFF768FE14
S11319300620FFF765FE0420FFF762FE072088E714
S11319400DF11C0B33E7D2B28DF81B20C9B29DF800
S11319501B2059701978019521F0030102F003024C
S11319600A431A709A7822F003029A702279E17974
S1131970012A0CBF0422002209B942F01002617945
S113198001293DD039B9A07942F0800101280CBF6A
S113199042F0C0020A465A73227A1AB99A7942F07E
S11319A008029A7109EB0603019DE0699B000AEBAA
S11319B00302F6B2032108F80710A1692E70474408
S11319C04FF0010ED16061692469106185F802E06D
S11319D0A9606C600AF8036082F802E000207D6070
S11319E037E600BFC05B0000045C000000700440E8
S11319F0885C0000C803FE1FA400FE1FD45B000027
S1131A00A1790029C7D142F04002C4E788B1F0B5FA
S1131A1005780A2D83B002D9042003B0F0BDAE00CE
S1131A204A4F731907EB83039B7823B9072003B04C
S1131A30F0BD012070470446002D7BD0082D6ED0E8
S1131A400820FFF7DDFD002D77D0082D6AD008208F
S1131A50FFF7D6FD002D73D0082D66D00820FFF7C0
S1131A60CFFD002D6FD0082D18BF082060D0FFF7E0
S1131A70C7FD05F1007303F560535B01DFF8D8E09F
S1131A809A78D2B28DF807209A78D2B28DF80720CE
S1131A909A78D2B28DF807209A7802F07F029A7071
S1131AA09A7822F004029A7098784FEA051C2E4422
S1131AB00EEB0C0107EB8606002220F04000987024
S1131AC0B2700EF80C204A704A608A6001209DF8BA
S1131AD0073002F047FC1E4A01201368C5F11F01BC
S1131AE000FA01F10B43136002F018FC194B05EBEB
S1131AF0450003EBC000153002F0E6FBA3681BB100
S1131B009A681868D369984763681BB19A6818681B
S1131B10D3699847284600F0A3FE00207DE70520FE
S1131B20FFF76EFD0620FFF76BFD0420FFF768FD4D
S1131B3007209CE70120FFF763FD0220FFF760FD0B
S1131B400020FFF75DFD032091E700BFA400FE1F06
S1131B50007004406C01FE1FC803FE1F2DE9F04F06
S1131B600646B948347804EB840500EB850085B05B
S1131B7080789DF838A09DF83C7020B90725284648
S1131B8005B0BDE8F08F98464FEA440BAF4B009187
S1131B900BEB040003EBC0001530914602F084FB0C
S1131BA00099054620B10A25284605B0BDE8F08F06
S1131BB0002C00F02081082C00F00C810820FFF795
S1131BC01FFD0099002C00F01B81082C00F00781F8
S1131BD00820FFF715FD0099002C00F01681082C51
S1131BE000F002810820FFF70BFD0099002C00F0A3
S1131BF01181082C18BF082000F0FB800191FFF729
S1131C00FFFC04F1007C0CF5605C4FEA4C1C8F492E
S1131C109CF80220D2B28DF80D209CF80220D2B29A
S1131C208DF80D209CF80220D2B28DF80D209CF87E
S1131C30022002F07F028CF802209CF8022022F09D
S1131C4004028CF802209CF802200BEB0403DB0056
S1131C50C81822F040028CF8022000F10802009219
S1131C600A460199D150009A9DF80DE0C2F804800B
S1131C704FF0000E00F11003A2F802E017F0010289
S1131C8018BF01229A70714ADF700BEB040302EB58
S1131C90C30B002380F810A0C0F80490A0F808E05B
S1131CA08BF811309CF80D30019123F010038CF85F
S1131CB00D302046CDF800C000F000FF7368DDF859
S1131CC000C0019923B107F0FD02012A00F0A480AD
S1131CD0B36813B1BA1E012A55D9002C00F0EA806A
S1131CE0082C40F0B9800420CDF800C0FFF77CFC3C
S1131CF0DDF800C0CDF800C00720FFF775FCDDF863
S1131D0000C09CF80230DBB28DF80E309CF8023033
S1131D10DBB28DF80E309CF80230DBB28DF80E3059
S1131D209CF8023043F040038CF802309DF80E30EA
S1131D300520CDF800C0FFF757FCDDF800C09CF883
S1131D400230DBB28DF80F309CF80230DBB28DF834
S1131D500F309CF80230DBB28DF80F309CF8023063
S1131D6063F07F038CF802309DF80F309CF802304A
S1131D7043F030038CF802307368002B00F0C1800C
S1131D809CF80530FBE63278D3F808E0304918684F
S1131D90DEF804A0CDF800C053011FFA88F81944F6
S1131DA04A464346D0470146002840F0AF80022F00
S1131DB0DDF800C091D17368002B8ED09A68186842
S1131DC0576843460A46B847DDF800C0002884D067
S1131DD00546D4E605200091FFF712FC0099009116
S1131DE00620FFF70DFC009900910420FFF708FC82
S1131DF00099072002E701200091FFF701FC0099F8
S1131E0000910220FFF7FCFB009900910020FFF7EE
S1131E10F7FB00990320F1E696F800E0D3F808A058
S1131E200C4A1868DAF804A0CDF800C04FEA4E1343
S1131E301A441FFA88F3D047DDF800C000283FF4A5
S1131E4047AF05469BE600BFA400FE1F6C01FE1FC2
S1131E5005000740030007400820CDF800C0FFF745
S1131E60C3FBDDF800C064B3082C3FF443AF082083
S1131E70FFF7BAFBDDF800C09CF80230DBB28DF846
S1131E800E309CF80230DBB28DF80E309CF8023034
S1131E90DBB28DF80E309CF8023043F040038CF82E
S1131EA002309DF80E3054B3082C18BF08207FF47C
S1131EB040AF3DE72046CDF800C0FFF795FBDDF8C5
S1131EC000C0CDF800C00320FFF78EFBDDF800C092
S1131ED09CF80230DBB28DF80E309CF80230DBB295
S1131EE08DF80E309CF80230DBB28DF80E309CF881
S1131EF0023043F040038CF802309DF80E3001208C
S1131F0017E7B368002B7FF43BAF38E6054636E6A7
S1131F1008B1012B01D0012070473AB110B5047803
S1131F200A2C82B004D9042002B010BD18467047B0
S1131F301C4613460A460221019100940021FFF732
S1131F400DFEF1E708B1012B01D0012070473AB131
S1131F5010B504780A2C82B004D9042002B010BD54
S1131F60184670471C460094134601940022FFF75C
S1131F70F5FDF3E770B582B09DF8184008B1012C67
S1131F8002D0012002B070BD2BB105780A2D05D90D
S1131F90042002B070BD204602B070BD03258DE858
S1131FA03000FFF7DBFDEDE7C34B03EB00122DE937
S1131FB0F04F4700C14E55683B18DB00F218044649
S1131FC0A868F358D2F8049092F8108089B002F10E
S1131FD0100E002800F0CD80012900F02481022990
S1131FE002D009B0BDE8F08F6B685B681B68DB89C1
S1131FF09BB2002BF5D104F1007505F560556D0118
S1132000AB7803F0CF03AB70002C00F07381082C85
S113201000F046810820FFF7F3FA002C00F06D81F0
S1132020082C00F040810820FFF7EAFA002C00F0A9
S11320306781082C00F03A810820FFF7E1FA002CB0
S113204000F06181082C18BF082000F03281FFF7EE
S1132050D7FAAB789A4A0594DBB28DF81030AB7896
S1132060DBB28DF81030AB78DBB28DF81030AB7882
S113207003F07F03AB70AB7823F00403AB70A97853
S113208004EB840302EB830321F04002AA70196974
S1132090079101228DF81820DB689DF8102005A80F
S11320A09847002C00F06081082C00F02E81082055
S11320B0FFF7A6FA002C00F05A81082C00F02881C2
S11320C00820FFF79DFAAB78DBB28DF81130AB78BE
S11320D0DBB28DF81130AB78DBB28DF81130AB7810
S11320E023F04003AB709DF81130002C00F05481B4
S11320F0082C00F022810820FFF782FAAB78DBB2CB
S11321008DF81230AB78DBB28DF81230AB78DBB2DD
S11321108DF81230AB7803F07F03AB709DF812306A
S1132120002C00F04E81082C18BF082000F01A8102
S1132130FFF766FAAB78DBB28DF81330AB78DBB21D
S11321408DF81330AB78DBB28DF81330AB7823F015
S11321500403AB709DF81330AB783C4403F0CF0319
S113216006EBC4001530AB7002F0AEF809B0BDE860
S1132170F08F686800287FF42FAF04F100750129FF
S113218005F5605500F037814FEA451C50899CF8ED
S113219005C001305FFA8CFC1FFA80FB8EF804C086
S11321A0A2F80AB03A1906EBC202B2F808E0D06805
S11321B086450ED2927C002A00F03081B8F1010FDE
S11321C000F01E823B1906EBC3030EF1010EA3F8C7
S11321D008E03B1906EBC3035B7C2BB1B8F1010F9C
S11321E004BFD94409F801CC3B1906EBC303DB68EF
S11321F05B4500F04B8101297FF4F3AE3B1906EBFC
S1132200C303DA7C91077FF5ECAE6D016A7B52075C
S113221003D51B89012B7FF6E4AE3C4406EBC406D0
S113222001237374DDE6002C00F0CD80082C49D026
S113223004F1007505F560556D010820FFF7E0F91C
S1132240AB78DBB28DF80F30AB78DBB28DF80F30A2
S1132250AB78DBB28DF80F30AB7803F07F03AB7053
S11322609DF80F30002C00F0C480082C18BF082003
S11322703ED0FFF7B9F9AB78DBB28DF81430AB7808
S1132280DBB28DF81430AB78DBB28DF81430AB7858
S113229043F00403AB709DF8143009B0BDE8F08F2F
S11322A00520FFF7ADF90620FFF7AAF90420FFF790
S11322B0A7F90720CBE600BFC803FE1F6C01FE1F71
S11322C0A400FE1F6F4D0520FFF79AF9AB78DBB22F
S11322D08DF80F30AB78DBB28DF80F30AB78DBB212
S11322E08DF80F30AB7803F07F03AB709DF80F309F
S11322F00620BEE70120FFF783F90220FFF780F9EB
S11323000020FFF77DF90320A1E60420FFF778F908
S11323100720FFF775F9AB78DBB28DF81130AB7895
S1132320DBB28DF81130AB78DBB28DF81130AB78BD
S113233023F04003AB709DF811300520FFF760F9DE
S1132340AB78DBB28DF81230AB78DBB28DF812309B
S1132350AB78DBB28DF81230AB7803F07F03AB704F
S11323609DF812300620E3E62046FFF749F90320E2
S1132370FFF746F9AB78DBB28DF81130AB78DBB2FE
S11323808DF81130AB78DBB28DF81130AB7823F0D7
S11323904003AB709DF811300120FFF731F9AB78A1
S11323A0DBB28DF81230AB78DBB28DF81230AB783B
S11323B0DBB28DF81230AB7803F07F03AB709DF87D
S11323C012300220B4E6304D0846FFF719F9AB7815
S11323D0DBB28DF80F30AB78DBB28DF80F30AB7811
S11323E0DBB28DF80F30AB7803F07F03AB709DF850
S11323F00F3002203DE74FEA451B9BF805C05FFA0A
S11324008CFC8EF804C09BF80D0010F0040F0CD067
S11324101089083248B9B2F802B0C3E66A011379E8
S1132420DB09FCD0FF23D370CCE6002C00F0F18054
S1132430082C0CBF0520082001910093FFF7E0F859
S11324409BF80220009B0199D2B28DF80B209BF8D7
S11324500220D2B28DF80B209BF80220D2B28DF864
S11324600B209BF80220381902F07F0206EBC00E05
S11324708BF802209DF80B20BEF80AB09EF814C019
S113248090E600BF00010740000007404FEA4518EE
S1132490009198F8023003F0CF0388F80230002C42
S11324A000F0C980082C00F0B6800820FFF7A8F8D7
S11324B00099002C00F0C380082C00F0B0800820A4
S11324C0FFF79EF80099002C00F0BE80082C00F065
S11324D0AB800820FFF794F80099002C00F0B98035
S11324E0082C18BF082000F0A4800091FFF788F89A
S11324F098F802307D4A0099DBB28DF80C3098F8D8
S11325000230DBB28DF80C3098F80230DBB28DF873
S11325100C3098F8023003F07F0388F8023098F802
S1132520023023F0040388F8023004EB840398F8A3
S1132530020002EB830320F04002D3F80CC088F8B9
S113254002209DF80C20BCF1000F50D01B690793AA
S1132550012305948DF8183005A8E0470099002C54
S113256000F0A180082C76D104200091FFF748F8F0
S1132570009900910720FFF743F898F8023000997A
S1132580DBB28DF80D3098F80230DBB28DF80D30E7
S113259098F80230DBB28DF80D3098F8023023F051
S11325A0400388F802309DF80D3005200091FFF7B4
S11325B027F898F802300099DBB28DF80E3098F8BD
S11325C00230DBB28DF80E3098F80230DBB28DF8B1
S11325D00E3098F8023003F07F0388F802309DF83B
S11325E00E3098F8023003F0CF0388F8023038191F
S11325F006EBC0001530009101F066FE0099FAE583
S113260013F80EA06A011379DB09FCD082F803A049
S1132610D8E5012010E70520FEF7F2FF00990091AC
S11326200620FEF7EDFF009900910420FEF7E8FF75
S11326300099072059E70120FEF7E2FF0099009175
S11326400220FEF7DDFF009900910020FEF7D8FF7D
S11326500099032049E70820FEF7D2FF00993CB314
S1132660082C86D00820FEF7CBFF98F8023000999A
S1132670DBB28DF80D3098F80230DBB28DF80D30F6
S113268098F80230DBB28DF80D3098F8023023F060
S1132690400388F802309DF80D302CB3082C18BF85
S11326A0082083D181E720460091FEF7A9FF009915
S11326B000910320FEF7A4FF98F802300099DBB2E2
S11326C08DF80D3098F80230DBB28DF80D3098F8A3
S11326D00230DBB28DF80D3098F8023023F040035D
S11326E088F802309DF80D3001205FE7A400FE1F3A
S11326F01C4B10B500EB800203EB820384B0DA6854
S1132700044682B100F1007303F560535B0101904C
S11327101979890614D41979080715D505238DF874
S1132720083001A89047104B04EB440003EBC000B1
S1132730153001F0C9FD204600F092F804B010BD38
S113274006238DF80830ECE7597BC90603D503232B
S11327508DF80830E5E71B79DB0644BF07238DF8C5
S11327600830DEE7A400FE1F6C01FE1F430920337E
S113277000F01F0001220249824041F823207047E3
S113278000E100E0064A0301D35C012B05D0032BD2
S113279000D070470121FFF707BCFEF785BD00BFDD
S11327A0C803FE1F03010C4AD35C012B10B5044679
S11327B00ED0032B09D004F1007000F560504001E5
S11327C0037903F0C703037110BDFFF791FFF2E72C
S11327D0FEF7D4FEEFE700BFC803FE1F064A03015D
S11327E0D35C012B05D0032B00D070470221FFF7E7
S11327F0DBBBFEF787BE00BFC803FE1F02010E4904
S11328008A5C012A05D0032A00D070470021FFF713
S1132810CBBB10B50446FEF715FE04F1007303F5B7
S113282060535B011A7922F040021A711A7922F07E
S113283001021A7110BD00BFC803FE1F092808B5A4
S113284007D00730C0B201F043FD082806D00020AD
S113285008BD102001F03CFD0828F8D10A2008BD6D
S1132860092803D00730C0B201F046BD102001F0A2
S113287043BD00BF30B5044683B0002878D0082893
S11328806BD00820FFF772FF002C74D0082C67D09F
S11328900820FFF76BFF002C70D0082C63D00820B1
S11328A0FFF764FF002C6CD0082C18BF08205DD003
S11328B0FFF75CFF04F1007303F560535B0100252F
S11328C09A78D2B28DF807209A78D2B28DF8072080
S11328D09A78D2B28DF807209A7802F07F029A7023
S11328E09A7822F004029A709A7822F040029A7040
S11328F09DF807209A7802F0EF029A709A7802F015
S1132900DF029A7099789A7801F0020122F00302AA
S11329100A439A70DA7902F07F02DA71DA7922F0E6
S11329202002DA7101201D7201F01CFD164A0120FB
S11329301368C4F11F0100FA01F10B43136001F0A5
S1132940EDFC2046FFF78CFF104A2401131915559E
S11329505D705D609D6003B030BD0520FFF706FF2C
S11329600620FFF703FF0420FFF700FF07209FE77F
S11329700120FFF7FBFE0220FFF7F8FE0020FFF71F
S1132980F5FE032094E700BF00700440C803FE1F57
S113299009288CBF04200020704700BF00B5002028
S11329A083B0FFF7EFFE012001F022FC034BD3F8C4
S11329B004330193019B03B05DF804FB0060004005
S11329C000B5082083B0FFF7DDFE052001F010FC00
S11329D0034BD3F814330193019B03B05DF804FB5C
S11329E00060004000B5002083B0FFF707FF00201F
S11329F001F0FEFB034BD3F800330193019B03B0BA
S1132A005DF804FB0060004000B5082083B0FFF7C8
S1132A10F5FE042001F0ECFB034BD3F810330193D3
S1132A20019B03B05DF804FB0060004000B500208A
S1132A3083B0FFF7B7FE032001F0DAFB034BD3F8B2
S1132A400C330193019B03B05DF804FB006000406C
S1132A5000B5082083B0FFF7A5FE072001F0C8FBEE
S1132A60034BD3F81C330193019B03B05DF804FBC3
S1132A700060004000B5002083B0FFF7AFFE0220E5
S1132A8001F0B6FB034BD3F808330193019B03B069
S1132A905DF804FB0060004000B5082083B0FFF738
S1132AA09DFE062001F0A4FB034BD3F818330193D9
S1132AB0019B03B05DF804FB0060004010B50446C0
S1132AC068B108280AD1052001F092FB042001F026
S1132AD08FFB0720BDE8104001F08ABB10BD012028
S1132AE001F086FB204601F083FB0320BDE8104083
S1132AF001F07EBB0123022202704370C370837015
S1132B000020704740F60733984201D903207047EC
S1132B1071B1030AC0B200EB03139B0003F18043BD
S1132B2003F5812300201B68C3F340030B70704737
S1132B3001207047B0F5306F01D90320704749B1C7
S1132B40030A5B0103F1804303F1041300201B68B3
S1132B500B807047012070470AB903207047B0F515
S1132B60306FFAD8000A10B4400122EA0104044B81
S1132B700A4042EA0442C2505DF8044B0020704708
S1132B8008000440012901D90320704740F60733A7
S1132B909842F9D8030AC0B200EB03139B0003F177
S1132BA0804303F5812301291A680F480F4930B483
S1132BB00CBF42F0010222F0010240240025C5703E
S1132BC0C470D403186801EA020105D5084C20F446
S1132BD08030144018601C60034A19600020802370
S1132BE0D070D37030BC7047000D0440D5FC011F79
S1132BF0D5FC001F0AB903207047B0F5306FFAD82E
S1132C00000A400100F1804000F5802030B40568DE
S1132C10036802EA01042C43A4B261EA02021B0C19
S1132C2022401B041A43026030BC0020704700BFDE
S1132C30B0F5306F01D90320704751B1030A5B012D
S1132C4003F1804303F1041300201B681B0C0B8069
S1132C5070470120704700BF40F60733984201D9FE
S1132C6003207047B9B1030A5B0103F1804303F108
S1132C700413C0B210B401241A6804FA00F39BB21E
S1132C8003EA1242934213BF00200C700020087024
S1132C905DF8044B70470120704700BFB0F5306FFA
S1132CA001D903207047002AFBD0000A054B4001DC
S1132CB0034422EA0100114041EA00415960002026
S1132CC0704700BF0800044040F60733984201D91A
S1132CD0032070470129FBD810B400F47F44C0B22C
S1132CE00DD04FF4803303FA00F200230649E008C4
S1132CF00144134300204B605DF8044B704781404E
S1132D008BB20022F2E700BF08000440202801D95A
S1132D10032070470129FBD8064A137813BF1843D0
S1132D2003F0300323EA000000F0300010700020AC
S1132D30704700BF000D044090B3F8B5064601F09B
S1132D4041FB338853B30021164C08464FF0400E24
S1132D508027736803EBC10253F831509288E07006
S1132D60130AD2B202EB03139B0003F1804303F571
S1132D708123013184F803E015F4803F89B21A6895
S1132D8006D022F4803225F4803C1A60C3F800C0D7
S1132D901D60E070E77033888B42DAD80020F8BDFC
S1132DA001207047000D044010B540F607339842E7
S1132DB086B0044602D9032006B010BD012204AB3C
S1132DC002A8ADF8144004910191ADF808200393D2
S1132DD001F0F8FA0F4A230AE4B204EB031340208B
S1132DE00024D4709B00D07003F18043019903F553
S1132DF08123C8031A6805D522F4803221F4803077
S1132E001A601860034A196000208023D070D370C0
S1132E1006B010BD000D0440012901D903207047FC
S1132E2040F607339842F9D8030AC0B200EB031303
S1132E309B0003F1804303F5812330B41A68D1B1B8
S1132E4042F004020D480E4940240025C570C470A8
S1132E50D403186801EA020105D50A4C20F4803035
S1132E60144018601C60054A196000208023D0704B
S1132E70D37030BC704722F00402E3E7000D044035
S1132E80D5FC011FD5FC001F024B23F820100020A5
S1132E90704700BF10100440024A002342F820305B
S1132EA01846704710100440034A137863F07F03F8
S1132EB013700020704700BF00100440034A1378C9
S1132EC003F07F0313700020704700BF001004401C
S1132ED020B1034B1B68036000207047012070473A
S1132EE06C5C000058B1012807D1084B0020402138
S1132EF04122187119711A71704701207047034BF0
S1132F0040214122987099709A70704700100440D3
S1132F10E8B130B40F4A536823F4804353604568E2
S1132F205DB1836803EB85055C8813F8041B0A4ACA
S1132F3089000A44AB421480F6D1007828B1074ACC
S1132F40137863F07F031370002030BC70470120B6
S1132F50704700BF0070044010100440001004408B
S1132F60084B094A094810B40021094C1A604FF46F
S1132F7000425C60D86059619A601A615DF8044B44
S1132F80704700BF7000FE1F002D310100366E0136
S1132F9000127A0019491A4A0B8D03F0030332F820
S1132FA0132052B310B40C8D16480B8D14F0100F6F
S1132FB014BF0021032107EE902A50F821205DF868
S1132FC0044B07EE102AF8EE676AB8EE477AC3F3AB
S1132FD0052387EE267A07EE903AF8EE677AF7EE45
S1132FE0006A77EEA67AF6EE006A67EEA67A67EED6
S1132FF0277AFCEEE77AC0ED057A704700E00140DD
S1133000705C00007000FE1F0E4AB2F8FE339BB2E3
S113301043F4254343F00103A2F8FE3392F813343A
S1133020000100F0300003F0CF03034382F81334AF
S1133030B2F8FE3345F6FE210B4043F42543A2F8D3
S1133040FE33704700E001400E4AB2F8FE339BB2F3
S113305043F4254343F00103A2F8FE3392F881348C
S1133060400000F0020003F0FD03034382F88134C2
S1133070B2F8FE3345F6FE210B4043F42543A2F893
S1133080FE33704700E00140264AB2F8FE339BB29B
S113309043F4254343F00103A2F8FE3305280BD87B
S11330A0DFE800F02028300338181E4A92F8323046
S11330B023F0010382F832301A4AB2F8FE3323F4C3
S11330C0145323F001035B045B0C43F42543A2F87F
S11330D0FE337047134A92F82A3023F0010382F832
S11330E02A30E9E70F4A92F8363023F0010382F8D8
S11330F03630E1E70B4A92F8383023F0010382F8C6
S11331003830D9E7074A92F8903423F0010382F863
S11331109034D1E7034A92F8803423F0010382F813
S11331208034C9E700E00140264AB2F8FE339BB27E
S113313043F4254343F00103A2F8FE3305280BD8DA
S1133140DFE800F02028300338181E4A92F83230A5
S113315043F0010382F832301A4AB2F8FE3323F402
S1133160145323F001035B045B0C43F42543A2F8DE
S1133170FE337047134A92F82A3043F0010382F871
S11331802A30E9E70F4A92F8363043F0010382F817
S11331903630E1E70B4A92F8383043F0010382F805
S11331A03830D9E7074A92F8903443F0010382F8A3
S11331B09034D1E7034A92F8803443F0010382F853
S11331C08034C9E700E00140032810D0052808D066
S11331D008B100207047094B93F83C0000F001004F
S11331E07047064B93F83C00C0F340107047034B04
S11331F093F83C00C0F3C000704700BF00E00140FA
S1133200052834D8DFE800F00B131B232B03194BDC
S113321093F82A0000F0010080F001007047154B7C
S113322093F8360000F0010080F001007047114B64
S113323093F8380000F0010080F0010070470D4B56
S113324093F8900400F0010080F001007047094BEE
S113325093F8320000F0010080F001007047054B44
S113326093F8800400F0010080F001007047002012
S1133270704700BF00E00140024B1A6A93F8263001
S1133280704700BF00E001400E4AB2F8FE339BB223
S113329043F4254343F00103A2F8FE3392F81334B8
S11332A000F0010023F0400343EA801382F8133452
S11332B0B2F8FE3345F6FE210B4043F42543A2F851
S11332C0FE33704700E001400E4AB2F8FE339BB271
S11332D043F4254343F00103A2F8FE3392F8A230ED
S11332E001F00F0123F00F03194382F8A210B2F882
S11332F0FE3345F6FE210B4043F42543A2F8FE338A
S1133300704700BF00E0014005288CBF0020012069
S1133310704700BF06288CBF00200120704700BF03
S1133320024B93F8260000F00700704700E00140CC
S11333300E4AB2F8FE339BB243F4254343F0010333
S1133340A2F8FE3392F8263000F0070023F00703BA
S1133350184382F82600B2F8FE3345F6FE210B40EE
S113336043F42543A2F8FE33704700BF00E0014058
S1133370034B1B8D13F0100F0CBF0320002070476C
S113338000E001400F4A1049B2F8FE3311F8101062
S11333909BB243F4254343F00103A2F8FE33138D9B
S11333A001F0010123F0100343EA01131385B2F87D
S11333B0FE3345F6FE210B4043F42543A2F8FE33C9
S11333C0704700BF00E00140805C0000114AB2F881
S11333D0FE3330EE000A9BB243F42543FCEEC07A80
S11333E043F00103A2F8FE3317EE903A118D013B2E
S11333F021F47C5103F03F0341EA03231385B2F81F
S1133400FE3345F6FE210B4043F42543A2F8FE3378
S1133410704700BF00E001400E4A0F49B2F8FE3386
S113342031F810109BB243F4254343F00103A2F892
S1133430FE33138D01F0030123F003030B431385C3
S1133440B2F8FE3345F6FE210B4043F42543A2F8BF
S1133450FE33704700E00140785C0000F0B51E4A7E
S1133460B2F8FE339BB243F4254343F00103A2F8C0
S1133470FE33067885780479417990F801C090F894
S113348003E0877906F00706002305F0070566F3D5
S11334900E3304F0070065F3061301F0070160F32F
S11334A0124361F31E7366F30E3365F3061360F380
S11334B0124361F31E736CF30A236EF3020367F382
S11334C01A631362B2F8FE3345F6FE210B4043F44F
S11334D02543A2F8FE33F0BD00E001400E4B1A6A0A
S11334E0C2F3023202701A6AC2F3022242701A6AEA
S11334F0C2F3021282701A6A02F00702C2701A6AD8
S1133500C2F3024202711A6AC2F3027242711B6A66
S1133510C3F302638371704700E001404378022BD8
S113352016D8D0ED017AB3EE0E7AF4EEC77AF1EE46
S113353010FA0DDCB2EE047AF4EEC77AF1EE10FA6A
S113354006D40078032805D0B0FA80F0400970470B
S11335500020704701207047062828D8DFE800F0D3
S1133560090E13181D220400124B186AC0F30260DE
S11335707047104B186AC0F3023070470D4B186A3D
S1133580C0F3022070470B4B186AC0F30210704757
S1133590084B186A00F007007047064B186AC0F31E
S11335A002407047034B186AC0F302707047002052
S11335B0704700BF00E0014008B5FFF7CDFF054BA1
S11335C0054A93F8263003F0070352F8233023FA10
S11335D000F008BD00E001407000FE1F024B53F8EC
S11335E02000C840704700BF7000FE1F0F4BB3F8A7
S11335F0FE2392B242F4254242F00102A3F8FE23D4
S113360093F8402062F07F0283F8402093F8402032
S113361042F0010283F84020B3F8FE2345F6FE2170
S11336200A4042F42542A3F8FE23704700E001401B
S11336300F4BB3F8FE2392B242F4254242F001024A
S1133640A3F8FE2393F8402022F0010283F84020DF
S113365093F8402002F07F0283F84020B3F8FE2361
S113366045F6FE210A4042F42542A3F8FE237047A2
S113367000E00140024B93F84000C009704700BFCE
S113368000E00140024B93F8410000F00100704754
S113369000E00140114A92F8410010F0010001D10C
S11336A000207047B2F8FE339BB243F4254343F045
S11336B00103A2F8FE3392F8413023F0010382F8AB
S11336C04130B2F8FE3323F4145323F001035B04B6
S11336D05B0C43F42543A2F8FE33704700E001403D
S11336E00E4AB2F8FE339BB243F4254343F0010380
S11336F0A2F8FE3392F8303000F0010023F0010309
S1133700184382F83000B2F8FE3345F6FE210B4030
S113371043F42543A2F8FE33704700BF00E00140A4
S11337200C4AB2F8FE339BB243F4254343F0010341
S1133730A2F8FE3392F8523043F0010382F852307B
S1133740B2F8FE3345F6FE210B4043F42543A2F8BC
S1133750FE33704700E001400C4AB2F8FE339BB2DE
S113376043F4254343F00103A2F8FE3392F85230A8
S113377023F0010382F85230B2F8FE3345F6FE21FD
S11337800B4043F42543A2F8FE33704700E00140A8
S1133790164BB3F8FE2392B242F4254242F00102E2
S11337A0A3F8FE2393F83E2002F07F0283F83E2024
S11337B093F83E2001F0070122F0700242EA011260
S11337C083F83E2093F83E2000F0070022F0070221
S11337D0104383F83E00B3F8FE2345F6FE210A4069
S11337E042F42542A3F8FE23704700BF00E00140E5
S11337F00C4AB2F8FE339BB243F4254343F0010371
S1133800A2F8FE3392F83E3063F07F0382F83E3034
S1133810B2F8FE3345F6FE210B4043F42543A2F8EB
S1133820FE33704700E001400C4AB2F8FE339BB20D
S113383043F4254343F00103A2F8FE3392F83E30EB
S113384003F07F0382F83E30B2F8FE3345F6FE21E2
S11338500B4043F42543A2F8FE33704700E00140D7
S11338600C4AB2F8FE339BB243F4254343F0010300
S1133870A2F8FE3392F8533043F0010382F8533038
S1133880B2F8FE3345F6FE210B4043F42543A2F87B
S1133890FE33704700E001400C4AB2F8FE339BB29D
S11338A043F4254343F00103A2F8FE3392F8533066
S11338B023F0010382F85330B2F8FE3345F6FE21BB
S11338C00B4043F42543A2F8FE33704700E0014067
S11338D00E4AB2F8FE339BB243F4254343F001038E
S11338E0A2F8FE3392F8243000F0070023F07003AE
S11338F043EA001382F82430B2F8FE3345F6FE2181
S11339000B4043F42543A2F8FE33704700E0014026
S11339100B4B01380022B0F1807F19681A600CD279
S113392010B4084C5860F02084F8230007210120CB
S11339309A6019605DF8044B70471960104670472F
S113394010E000E000ED00E00C4B1A7902F00E02EA
S113395042F0F0021A711A7A00F0010022F0040217
S113396042EA80021A721A7A22F0080242EAC0007D
S113397018721A7942F0F1021A717047002000405F
S1133980094B1A7942F0F1021A711A7A00F0010017
S113399022F0100242EA00121A721A7902F00E02A0
S11339A042F0F0021A71704700200040054A92F874
S11339B01C3100F0070023F00703184382F81C01B0
S11339C0704700BF00C00140024B93F81C0100F097
S11339D00700704700C00140002070470020704776
S11339E000207047024B1B6803600020704700BF33
S11339F0E45C000038B50C460546FFF791FC2870DE
S1133A002046FFF76BFD002038BD00BF70B50024D1
S1133A100C600D460646FFF77DFC10B903242046D2
S1133A2070BD3046FFF7C8FD2860204670BD00BF5A
S1133A3010B5FFF727FE68B1FFF772FC0446FFF7E5
S1133A4097FC052C04D0032C04D140F2971010BD30
S1133A500328FAD0FFF71EFE002010BD08B5FFF7BB
S1133A603FFE002008BD00BF08B5FFF759FE002047
S1133A7008BD00BF08B5FFF76FFE002008BD00BFFA
S1133A8008B5FFF785FE002008BD00BF08B5FFF7A5
S1133A90AFFE002008BD00BF08B5FFF7C5FE00203B
S1133AA008BD00BF08B5FFF7DBFE002008BD00BF5E
S1133AB008B5FFF7F1FE002008BD00BF08B5FFF709
S1133AC007FF002008BD00BF00B583B04FF6FF73A9
S1133AD00193FFF745FA0420FFF726FB04E0019B5E
S1133AE03BB1019B013B01930420FFF789FB0028B4
S1133AF0F5D1019B23B94FF4CD7003B05DF804FBFD
S1133B0005210420FFF7B8FB0020FFF79DFA0020F1
S1133B1003B05DF804FB00BF10B50446FFF7F4FBE7
S1133B2008B9032010BD631E012B0FD9042C0DD03E
S1133B302CB1032C03D0052C01D0002010BD20464D
S1133B40FFF75EFB68B94FF4C87010BD2046FFF75D
S1133B5057FB40F29113002814BF18464FF4C87065
S1133B6010BD2046FFF730FB40F2931300280CBF32
S1133B7018464FF4C97010BD70B582B00E460546A4
S1133B80FFF7C2FB10B9032002B070BD052D284613
S1133B900FD0FFF735FB18B140F2911002B070BDA1
S1133BA06A1E012A4ED9042D25D0BDB1032D3AD069
S1133BB0EAE7FFF725FBC8B9B6B1FFF7B1FB052863
S1133BC0EAD03046FFF7AAFC0028DCD03078FFF7B3
S1133BD017FB00283BD14FF4CA70D5E7FFF7F4FA7E
S1133BE080B340F29310CFE70120CDE7FFF7D2F97D
S1133BF040F29110C8E72846FFF746FA4FF6FF73E4
S1133C00019304E0019B3BB1019B013B0193042020
S1133C10FFF7F6FA0028F5D0019B002B0CBF4FF4F8
S1133C20CD700020B0E72846FFF7CEFA04460028FE
S1133C30D7D1FFF7E9F92046FFF726FB28460921EB
S1133C40FFF742FB2846FFF71FFA00209CE72846AF
S1133C50FFF7BAFA04460028C3D13078FFF792FB85
S1133C607078FFF7D9FB96ED010AFFF7AFFBFFF77A
S1133C7091F92846FFF708FA204685E710B582B087
S1133C800446FFF741FB10B9032002B010BDFFF753
S1133C9047FB844216D0052810D0012C15D02046AD
S1133CA0FFF7AEFA40B1022C39D0042C1AD094B1EB
S1133CB0032C10D0052C0ED00020E6E7FFF758FBAC
S1133CC0A042EAD140F29110DFE7FFF7D3FC08B33A
S1133CD040F29510D9E72046FFF776FAF8B940F29A
S1133CE09310D2E72046FFF71FFA4FF6FF730193B4
S1133CF004E0019B3BB1019B013B01930420FFF7CE
S1133D007FFA0028F5D1019B002B0CBF4FF4CD7036
S1133D100020BAE72046FFF773FA0028CCD02046EB
S1133D20FFF702FAC8E700BF70B582B00C4605463B
S1133D30FFF7EAFA10B9032002B070BD002C4AD094
S1133D40A37962799A42F6D362789A42F3D32278BD
S1133D509A42F0D322799A42EDD30620FFF72CFC45
S1133D602846A179FFF73AFC334B984206463CD8E3
S1133D70324B984242D8FFF727FE0026FFF7D0FACD
S1133D80854204D04DB3032D27D0052D25D0684698
S1133D90FFF7A4FB9DF80620A3799A423BD2204664
S1133DA0FFF75CFB2846FFF7C3FA00F003F9244B46
S1133DB018600620FFF700FC1F4B984234D9214BB2
S1133DC0984234D9FFF700FE86422BD03046FFF7E5
S1133DD0EDFD0020B0E70120AEE72846FFF7F4F937
S1133DE00028D4D14FF4C970A6E70120FFF7ACFD39
S1133DF0144B9E4202D90120FFF7C2FD124B9E4292
S1133E0094BF01260226FFF7DFFDB042B6D230464A
S1133E10FFF7CCFDB2E72846FFF78AFA2046FFF702
S1133E201DFBC2E7002087E70020FFF78DFD00207F
S1133E30FFF7A6FDC6E700BF000E2707FFB3C404C3
S1133E406804FE1F00C2EB0BFF67890900B583B04D
S1133E5071B148B10146012000F0C8F8FFF7C6FB74
S1133E60002003B05DF804FB012003B05DF804FBFF
S1133E70FFF708FC20B14FF4CB7003B05DF804FBEE
S1133E800190FFF7D5FB0198EBE700BF08B90320C9
S1133E90704738B50D46044600F08CF807EE900ADA
S1133EA0F8EE676AF7EE007AC7EEA66A07EE905A54
S1133EB007EE104AF8EE677AB8EE477A66EEA77A0C
S1133EC0C7EE277AFCEEE77A17EE900AFFF720FD9B
S1133ED000280CBF1220002038BD00BF104991F803
S1133EE0043143F0010381F80431B1F80431DB07F4
S1133EF00CD54FF0FF3300E033B1B1F80421D20701
S1133F0003F1FF33F8D40BB914207047044A92F834
S1133F10003160F3000382F800310020704700BFD5
S1133F2000C0014070B5214D82B02B689847012034
S1133F30FFF7D4FF00216E680320B04701211C4A1B
S1133F40AC698DF80110032301928DF80030032031
S1133F50A047B0F5C97FFAD169460520B0470520CE
S1133F60A047B0F5C97FFAD1002201240223694693
S1133F708DF806208DF801308DF802308DF805306B
S1133F808DF80040EB688DF803408DF8044005205F
S1133F9098472B6D042098476B6A20469847AB6A74
S1133FA09847AB6C984702B070BD00BF885C0000B6
S1133FB00000A04100B583B002A9002341F8043DEC
S1133FC0034B06205B699847019803B05DF804FB36
S1133FD0885C0000044B002103F1300243F8041B09
S1133FE09342FBD1704700BF5C02FE1F024B43F8B3
S1133FF020100020704700BF5C02FE1F08B57A4BFA
S1134000B3F84031D90700F1C180774BB3F84031A0
S11340109A0700F1B080744BB3F840315B0700F1AC
S11340209F80714BB3F84031180700F18E806E4BBE
S1134030B3F84031D9067CD46B4BB3F84001C0F3DC
S11340408010002869D1684BB3F840311A0658D45F
S1134050654BB3F84031DB0547D4634BB3F84031CB
S1134060980536D4604BB3F84031590524D45E4BDF
S1134070B3F840311A0512D45B4BB3F84031DB047A
S113408000D408BD594BDB6A002B40F0AA80564A85
S1134090B2F8303143F48053A2F8303108BD534BA9
S11340A09B6A002B40F09A804F4AB2F8303143F4B7
S11340B00063A2F83031DFE74C4B5B6A002B40F021
S11340C08A80494AB2F8303143F48063A2F830312F
S11340D0CDE7464B1B6A002B7AD1434AB2F8303104
S11340E043F40073A2F83031BCE7404BDB69002B8A
S11340F06BD13D4AB2F8303143F48073A2F83031C9
S1134100ABE73A4B1B68002B5CD1374AB2F830312D
S113411043F08003A2F830319AE7344B5B68002BFC
S11341204ED1314AB2F8303143F04003A2F8303175
S113413089E72E4B9B69002B3FD12B4AB2F83031D3
S113414043F01003A2F8303176E7284B5B698BBB50
S1134150254AB2F8303143F00803A2F8303166E75B
S1134160224B1B691BBB204AB2F8303143F00403D5
S1134170A2F8303155E71D4B9B68ABB91A4AB2F827
S1134180303143F00203A2F8303144E7174BDB68C7
S11341903BB9154AB2F8303143F00103A2F830318B
S11341A033E703209847F4E702209847E6E7042022
S11341B09847D8E705209847CAE706209847BCE700
S11341C09847AEE7002098479FE70720984790E775
S11341D00820984781E70920984772E70A20984702
S11341E062E70B20984752E7006000405C02FE1F24
S11341F0002808DB800000F1804000F5C640036819
S113420023F48033036070472DE9F04F1D4B1E4F9C
S11342101E48DFF888A0DFF88880DFF888E01C4EAD
S11342201C4C1D49E0224FF4BA7C40F2751583F80A
S113423000234FF4BB7BC7F800C040F2771983F822
S113424001234FF4D27C056040F2A5174FF4D375D7
S113425083F8022340F2A710CAF800B083F80323BE
S1134260C8F8009083F80423CEF800C083F805232F
S1134270376083F80623256083F807230860BDE8C8
S1134280F08F00BF00E100E00063004004630040E1
S113429014630040186300401C630040086300403E
S11342A00C63004010630040012202E0C0E8432F89
S11342B043B1D0E84F3F13F0FF0FF7D0BFF32F8F78
S11342C0082070471846704700230370704700BFEA
S11342D0084B0121034402E0C3E8401F40B1D3E886
S11342E04F2F12F0FF0FF7D0BFF32F8F0820704726
S11342F0704700BF8C02FE1F014B00221A54704706
S11343008C02FE1F044B002103F1780203F8011F05
S11343109342FBD1704700BF8B02FE1F0E4B33F854
S1134320102092B22AB133F81020013A92B223F845
S1134330102033F810309BB263B9084A0849B2F828
S1134340FE3331F810109BB243F4254323EA0103F2
S1134350A2F8FE33704700BF0403FE1F00E00140D3
S1134360E85C0000104A32F810309BB2ABB910B4CC
S11343700E4C0F49B4F8FE3331F810109BB243F4DD
S113438025430B43A4F8FE3332F810305DF8044B98
S113439001339BB222F81030704732F810300133E9
S11343A09BB222F8103070470403FE1F00E0014066
S11343B0E85C0000024B00221A805A809A80704701
S11343C00403FE1FF8B50788AFB341681B4C0026F1
S11343D001EBC70E4FF0010C37468888002334F8F0
S11343E01320824216D00133032BF8D108317145D2
S11343F0F3D1F643F6B20120FFF7B4FF104A92F866
S1134400BB341F433E4082F8BB640120BDE8F84042
S1134410FFF784BF0A6802F0B852B2F1807F05D07A
S11344200CFA03F546EA0502D6B2DCE70CFA03F20D
S11344301743FFB2D7E7FF26DDE700BFF05C0000BB
S113444000E00140A0F101000028FBD1704700BF4B
S113445038B50D4601FB00F4FFF7ACFDB0F5004F95
S113446001D8012D19D00F4AB2FBF0F0844208D2D2
S11344704FF47A7202FB04F3B3FBF0F0800808D126
S113448038BD4FF47A72B4FBF0F002FB00F0800800
S1134490F6D0BDE83840FFF7D5BF2846BDE8384020
S11344A0FFF7D0BF00CA9A3B0C4A08B513688BB11A
S11344B0033020F003000A491844884202D81060EF
S11344C0184608BD00F0FCF90C2303604FF0FF33DD
S11344D0184608BD034B1360EAE700BF0C03FE1F38
S11344E0B014FE1FB004FE1F00BE704708B500F0F4
S11344F005F800F03FF9FEE7704700BF204AD2F804
S1134500883043F4700310B50020C2F88830FFF7F8
S1134510F3FFFFF75FFDFFF705FDFFF74BFF194BB7
S1134520194A1B681948002414809847184A194BE3
S11345309B1A05D01344214603F8011D9A42FBD16E
S11345401548164BC01A07D0154A184412F8011B17
S113455003F8011B8342F9D1FFF72CFD114B1860BE
S11345600120FFF7C9FFFFF7CDFEFFF74DFE0E4B0D
S11345700E481B6898470020BDE8104000F018B8AA
S113458000ED00E0185C00001003FE1F685D0000F1
S11345908800FE1FB004FE1F7000FE1F0000FE1FF7
S11345A0946200006804FE1F505C0000F85C000088
S11345B000F044B882B04FF0C84300210091009A43
S11345C01A7D61F300021A751A8DD0B1202161F3AE
S11345D00F221A851A8D4FF0C04142F080021A85CD
S11345E00A68009240F6FF721946019204E0019BAA
S11345F0013B0193019A12B18A6A5206F7D502B0BF
S113460070474FF0C04142F47F421A850A68009215
S11346101A8D60F3C7121A850A68009240F6FF717A
S11346201A46019105E0019B013B0193019B002B7C
S1134630E5D0936A5B06F6D402B07047F8B5494AF0
S113464013684FF0C84423F040031360237A6FF3D8
S113465004032372237DFF2243F0010323752261A7
S1134660237D662243F0010323752261237D992271
S113467043F0010323752261237D43F00103237575
S113468001212320FFF7E4FE9F232361364B226997
S11346901A7022695A702169227D997042F00102D0
S11346A022751A78EF2A04D000221A705A709A7070
S11346B0F8BD5A78402AF7D19A78172AF4D1052000
S11346C020612A4923690B70227D294B42F00102A3
S11346D035262275266122691A70227D42F0010274
S11346E02275228D042565F3030222852279502741
S11346F065F3030222712761227D42F001022275D3
S11347001A78012742F002021A7027610A7822619E
S11347101A782261227D3A4322752561227D3A432B
S11347202275228860F302022280206122690A70C5
S1134730227D3A432275266122691A70237D3B4308
S11347402375238843F040032380A369DB074FF0DC
S1134750C845FAD40120FFF72DFF2B7D6FF300032A
S11347602B75F8BD007004401403FE1F1803FE1FD0
S11347701C03FE1F08B500F03DF8002008BD00BF73
S11347802DE9F047B2F1000919DD0F4B0F4CD3F8B6
S113479008801F688A4601EB090600252570D8F8B1
S11347A0083038465146012298472378002BFCD024
S11347B00AF1010AB245F1D14846BDE8F0874FF04D
S11347C000094846BDE8F087185D0000A804FE1FF4
S11347D00379022B02D1024B01221A70704700BFE9
S11347E0A804FE1F0379012B04BF014A137070470C
S11347F0A804FE1F70B5264B93E80700ADF5816D44
S113480076238DF8073013689847224B1B680021E4
S113481098680222082300F0F9F81F4B9D681C6871
S113482059682A68204690471C4800F057F81C48ED
S113483000F054F81B4800F051F81B4800F0DEF873
S1134840012213460DF10701AE682046B047174810
S113485000F0D4F802A9164800F040F802A96E68E6
S1134860204608220123B047014648B1114800F010
S113487035F8114800F0C2F82B6920469847FEE746
S11348800E4800F0BBF802A9094800F027F8F3E746
S1134890185D00006000FE1F045D00006061000000
S11348A0686100006C6100007461000094610000A4
S11348B0A8610000C4610000D0610000E061000054
S11348C0014B1868704700BF6000FE1F0244034696
S11348D0934202D003F8011BFAE770470FB40A4B66
S11348E013B51C6824B1A36913B9204600F0C4FAB7
S11348F005AB2046A168049A019300F05DFC02B068
S1134900BDE8104004B070476000FE1F70B50E464D
S1134910054618B183690BB900F0AEFAAB69AC680F
S113492013B9284600F0A8FA314B9C4201D16C68B7
S113493008E0304B9C4201D1AC6803E02E4B9C4212
S113494008BFEC68A389190701D5236983B92846F0
S1134950214600F037F958B14FF0FF3070BD002BFD
S11349600EDB236816F8012C1A70236801332360C8
S1134970A36816F8012B013BA360002AEFD116E0CF
S1134980A269934209DB236816F8012C1A70236884
S113499019780A29EAD1284602E016F8011C2846AB
S11349A0224600F0BBF8421C50425041D3E7002B92
S11349B015DAA269934208DB23680A221A70236875
S11349C0197891420FD1284601E028460A2122464F
S11349D000F0A4F8431C5842584130B1BCE72368A6
S11349E00A221A702368013323600A2070BD00BFB5
S11349F0FC6100001C6200003C620000024B0146A6
S1134A001868FFF783BF00BF6000FE1F2DE9F04167
S1134A101D463D4B1E6804460F46904626B1B369B9
S1134A2013B9304600F028FA384B9C4201D174681F
S1134A3008E0374B9C4201D1B46803E0354B9C42FB
S1134A4008BFF468B8F1020F5AD8002D58DB30467D
S1134A50214600F0A7F900236360A361A3891B0624
S1134A6003D53046216900F0E5FAA389B8F1020FB5
S1134A7023F08303A38112D037BB002D08BF4FF46A
S1134A808065284600F0CEFA0746C8B94FF4806026
S1134A9000F0C8FA074688B94FF0FF3000E0002064
S1134AA0A38943F00203A3810023A36004F1470315
S1134AB02360236101236361BDE8F0814FF48065C5
S1134AC0A38943F08003A381B8F1010F01BFA38937
S1134AD043F00103A3816B4208BFA3610E4BB36291
S1134AE0A389276003F0080080B22761656148B19B
S1134AF013F0030F18BF0025A5600020BDE8F08166
S1134B004FF0FF30BDE8F0816000FE1FFC61000043
S1134B101C6200003C620000F94D000070B50D46B7
S1134B201446064618B183690BB900F0A5F9224B67
S1134B309C4201D1746808E0204B9C4201D1B468C6
S1134B4003E01F4B9C4208BFF468A369A360A389D8
S1134B501A0709D523693BB123682069181A6369C8
S1134B609842EDB20FDB08E03046214600F02AF807
S1134B700028F1D04FF0FF3070BD3046214600F0E0
S1134B8011F90028F6D1A368013BA36023685A1CDD
S1134B9022601D7063690130984204D0A389DB0749
S1134BA007D50A2D05D13046214600F0FBF8002830
S1134BB0E0D1284670BD00BFFC6100001C6200000B
S1134BC03C620000314B70B51D6806460C4625B1A9
S1134BD0AB6913B9284600F04FF92D4B9C4201D123
S1134BE06C6808E02B4B9C4201D1AC6803E02A4B73
S1134BF09C4208BFEC68A3899AB211071DD4D5065C
S1134C0002D40922326038E0500712D5616B41B1F9
S1134C1004F14403994202D0304600F00BFA002319
S1134C206363A38923F02403A381002363602369BE
S1134C302360A38943F00803A38123694BB9A389A3
S1134C4003F42073B3F5007F03D03046214600F00F
S1134C509BF9A38913F0010205D00022A2606269C6
S1134C605242A26103E0990758BF6269A2602269B7
S1134C704AB903F0800080B230B143F04003A3810D
S1134C804FF0FF3070BD002070BD00BF6000FE1FFC
S1134C90FC6100001C6200003C6200008A892DE96E
S1134CA0F041054610070C4657D44B68002B02DC34
S1134CB00B6C002B18DDE66AB6B102F480520023B7
S1134CC092B22F682B600AB1626D10E0216A284607
S1134CD00123B047411C024609D12B683BB11D2B6F
S1134CE001D0162B47D12F600020BDE8F081A389A5
S1134CF05B0705D56368D21A636B0BB1236CD21AB8
S1134D00E66A216A00232846B047461CA38905D1D8
S1134D102A681AB11D2A01D0162A19D1002262600C
S1134D20D9042269226004D5421C01D12B6803B93D
S1134D306065616B2F600029D6D004F14403994269
S1134D4002D0284600F076F900206063BDE8F081C7
S1134D5043F04003A381BDE8F0810F69002FC3D065
S1134D6093070E6808BF4B690F6018BF0023C7EB99
S1134D7006088B6012E0A38943F04003A3814FF03F
S1134D80FF30BDE8F0812846216AA66A3A464346C8
S1134D90B0470028EFDD0744C0EB0808B8F1000F66
S1134DA0F1DCA1E738B50B6905460C46DBB118B157
S1134DB083690BB900F060F80C4B9C4201D16C681C
S1134DC008E00B4B9C4201D1AC6803E0094B9C42C8
S1134DD008BFEC68B4F90C302BB128462146BDE875
S1134DE03840FFF75BBF002038BD00BFFC61000006
S1134DF01C6200003C620000014900F0A7B800BF3B
S1134E00A54D0000002310B5044603604360836091
S1134E1081814366C28103614361836119465C30C9
S1134E200822FFF753FD054B6362054BA362054B54
S1134E30E362054B2462236310BD00BF15570000D5
S1134E40375700006F5700009357000070B5682370
S1134E504D1E5D430E4605F1740100F02FF9044622
S1134E6040B1002180E842000C30A06005F16802E6
S1134E70FFF72CFD204670BD836910B5044633BB93
S1134E808364C3640365124B124A1B6882629842AE
S1134E9004BF0123836100F01FF86060204600F026
S1134EA01BF8A060204600F017F80421E0600022FF
S1134EB06068FFF7A7FFA06809210122FFF7A2FF9E
S1134EC0E06812210222FFF79DFF0123A36110BDB8
S1134ED0F8610000F94D0000F8B51B4B1E68B3697A
S1134EE0074613B93046FFF7C7FF4836B4687368FE
S1134EF0013B04D4B4F90C5075B16834F8E7336855
S1134F002BB938460421FFF7A1FF306008B1366899
S1134F10ECE70C233B60F8BD4FF6FF73E3810123FC
S1134F20A38165662560A560656025616561A561ED
S1134F3004F15C0029460822FFF7C8FC6563A563F9
S1134F40A564E5642046F8BDF86100002DE9F84346
S1134F508046894600F14804002694B1A568676834
S1134F60013F0CD4AB89012B07D9B5F90E300133BD
S1134F7003D040462946C84706436835F0E724680D
S1134F80EBE73046BDE8F883F0B58B899D0791B017
S1134F9006460C4626D4B1F90E10002909DAA38975
S1134FA013F0800F4FF0000514BF40274FF48067C3
S1134FB00DE001AA00F014FC0028F0DB029D05F4CA
S1134FC07045A5F500514D424D414FF48067304680
S1134FD0394600F073F860B9A3899A051DD443F0EB
S1134FE00203A38104F14703236023610123636166
S1134FF013E00B4BB362A389206043F08003A381C9
S1135000206167614DB13046B4F90E1000F0FAFB2F
S113501018B1A38943F00103A38111B0F0BD00BF0F
S1135020F94D0000024B0146186800F047B800BF74
S11350306000FE1F30B500293DD051F8042C0B1F31
S11350401D49002AB8BF9B180A680C4612B95A6059
S11350500B6030BD93420DD219685818904201BFBD
S11350605A5852181A6042685A60236030BD9942F7
S113507003D80A4651680029F9D1146815199D42CC
S11350800AD11B682344D0188842136013D10868DE
S1135090034413604B680DE002D90C23036030BD58
S11350A01C681819884204BF08684968596004BF1D
S11350B000191860536030BD2403FE1F70B5CC1C6A
S11350C024F0030408340C2C38BF0C24002C0646AE
S11350D003DA0C233360002070BD8C42F9D3204ADC
S11350E0136810461946A1B10A68121B0ED40B2A84
S11350F003D90A608B188C501FE08B420DBF5A688D
S11351004A685A60026018BF0B4616E00B464968AD
S1135110E9E7144D2B681BB9304600F0EBFA286020
S11351203046214600F0E6FA421C0346D1D0C51CA5
S113513025F0030585420AD11C6003F10B001A1DFA
S113514020F00700821A0AD05142995070BD3046AF
S1135150E91A00F0CFFA0130BBD02B46ECE770BD62
S11351602403FE1F2003FE1F9368013B002B10B590
S1135170936009DA9469A34202DBCBB20A2B03D110
S1135180BDE81040FFF7CABC1368581C10601970C2
S1135190C8B210BDF8B506460F461446D518AC4241
S11351A008D0304614F8011B3A46FFF7DDFF431CD4
S11351B0F5D100E00020F8BD2DE9F0439DB00D4687
S11351C090460393064618B183690BB9FFF754FE62
S11351D0754B9D4201D1756808E0744B9D4201D125
S11351E0B56803E0724B9D4208BFF568AB891C07A4
S11351F00AD52B6943B10023099320238DF8293064
S113520030238DF82A3041E030462946FFF7DAFC96
S11352100028F0D04FF0FF30C2E0039A111D12684D
S11352200391002ABBBF524243F002030792079244
S1135230B8BF0493013423782E2B7BD0DFF8808110
S113524021784046032200F0FFFA38B1049AC8EBF3
S113525000004023834013430493013421785548CC
S11352608DF82810062204F1010800F0EDFA002858
S113527000F08580504B002B78D1039B073323F03B
S1135280070308330393099B3B44099343461C4695
S113529013F8012B1AB9B4EB08090ED002E0252A41
S11352A0F5D1F8E73046294642464B46FFF772FFF0
S11352B0013070D0099B4B4409932378002B6AD0AA
S11352C000234FF0FF3204930793059206938DF861
S11352D053301A9304F101084446DFF8E89021782A
S11352E04846052200F0B0FA08F10108049B30B1E9
S11352F0C9EB00000122824013430493ECE7D80673
S113530044BF20228DF85320190744BF2B228DF867
S1135310532022782A2A80D0079923461C46013339
S11353202278303A092A03D80A2000FB0121F5E744
S1135330079180E763782A2B0AD1039B1A1D1B6807
S11353400392002BB8BF4FF0FF330234059375E787
S1135350611C00220C4601312378303B092B03D811
S11353600A2000FB0232F5E7059267E703AB0093DE
S1135370304604A92A46114BAFF3008007E003AB83
S11353800093304604A92A460C4B00F093F8421CC3
S113539007467FF478AFAB895B063FF53BAF0998CE
S11353A01DB0BDE8F08300BFFC6100001C6200007A
S11353B03C6200006662000000000000955100009D
S11353C0626200005C6200002DE9F84391461F46CA
S11353D08A680B69DDF820809342B8BF1346C9F888
S11353E0003091F8432006460C4612B10133C9F847
S11353F000302368990642BFD9F800300233C9F857
S11354000030256815F006051CD094F84330226856
S1135410003318BF012392061FD5E1185A1C30200F
S113542081F84300224494F8451082F84310023373
S113543013E03046394604F119020123C047013014
S113544007D00135E368D9F800209B1A9D42F0DBB0
S1135450DBE74FF0FF30BDE8F8833046394604F10E
S11354604302C0470130F4D02268D9F80050E36801
S113547002F00602042A08BF5D1B2269A3680CBF60
S113548025EAE57500259342C4BF9B1AED184FF039
S11354900009A9450ADA3046394604F11A02012303
S11354A0C0470130D5D009F10109F2E70020BDE879
S11354B0F883FFFF2DE9FF410C461746227E6E2A32
S11354C0984606460A9B01F1430100F0AF8012D8CA
S11354D0632A23D00AD8002A00F0BC80582A40F05E
S11354E0CB8084F84520DFF804E257E0642A1ED01C
S11354F0692A1CD0C0E0732A00F0B08009D86F2A52
S11355002ED0702A40F0B880226842F02002226037
S11355103FE0752A24D0782A3BD0ADE01A68111DEB
S11355201960136884F8423004F14205A8E0206849
S11355301A6810F0800F02D0101D186008E010F0F7
S1135540400F02F10400186002D0B2F9003000E00C
S11355501368002B3EDA2D225B4284F8432039E0A5
S113556020681A6810F0800F02D0101D186007E040
S113557010F0400F02F10400186001D0138800E01D
S11355801368227EDFF864E16F2A0CBF08220A2226
S11355901CE07822DFF858E184F845202268186876
S11355A012F0800F00F104051D6003D1550601D5EA
S11355B0038800E00368D00744BF42F02002226061
S11355C01BB9226822F0200222601022002084F8F5
S11355D0430002E0DFF814E10A226568A560002DAB
S11355E0A2BF206820F00400206003B965B10D4615
S11355F0B3FBF2F002FB10331EF8033005F8013D53
S113560003460028F4D100E00D46082A0BD1236894
S1135610DA0708D5236962689A42DEBF302305F8A9
S1135620013C05F1FF35491B21612EE025681A680C
S1135630606915F0800F03D0151D1D60136808E024
S113564015F0400F02F104051D60136801D01880A5
S113565000E01860002323610D4616E01A68111D4E
S11356601960156862682846002100F0EDF808B159
S1135670401B6060636804E004F1420584F8422042
S113568001232361002384F84330CDF800803046A1
S1135690214603AA3B46FFF797FE013002D14FF0A3
S11356A0FF301FE0304639462A462369C04701309F
S11356B0F5D023689B0705D4E068039B9842B8BFE4
S11356C018460FE00025E368039A9B1A9D42F3DA1B
S11356D03046394604F119020123C0470130DED0B7
S11356E00135F0E704B0BDE8F08100BF6D62000051
S11356F07E62000038B5064C002305460846236048
S1135700FEF7D2FE431C02D1236803B12B6038BDDF
S1135710AC04FE1F10B50C46B1F90E1000F0A4F84D
S11357200028ABBF636DA3891B1823F48053ACBF5F
S11357306365A38110BD2DE9F0411D468B89DB050E
S113574007460C46164605D5B1F90E100022022371
S113575000F068F8A389B4F90E1023F48053A381F0
S1135760384632462B46BDE8F04100F017B810B574
S11357700C46B1F90E1000F055F8431CA38915BF6F
S1135780606523F4805343F48053A38118BFA3813D
S113579010BDB1F90E1000F013B8FFFF38B5074C77
S11357A0054600202060084611461A46FEF7E8FF29
S11357B0431C02D1236803B12B6038BDAC04FE1F27
S11357C038B5064C002305460846236000F002F96C
S11357D0431C02D1236803B12B6038BDAC04FE1F07
S11357E038B5074C0023054608461146236000F0EF
S11357F036F9431C02D1236803B12B6038BD00BFC6
S1135800AC04FE1F38B5064C002305460846236049
S113581000F033F9431C02D1236803B12B6038BD77
S1135820AC04FE1F38B5074C05460020206008462E
S113583011461A4600F0BEF8431C02D1236803B196
S11358402B6038BDAC04FE1F10B5C9B202449042AF
S1135850034606D01C788C4200F10100F7D11846AB
S113586010BD002010BDFFFF38B5074C05460020D1
S11358702060084611461A4600F045F8431C02D140
S1135880236803B12B6038BDAC04FE1F0A4B10B56E
S11358900446186818B183690BB9FFF7EDFA132CA5
S11358A007D8064850F83430013302D000EBC40066
S11358B010BD002010BD00BF6000FE1F2803FE1FA6
S11358C0F8B50546FEF7FCFF0027064613242046DC
S11358D03946ABBE044634602846F8BD431C01D1AA
S11358E0FFF7EEBF704730B585B001AD019002916E
S11358F00392062420462946ABBE04462046FFF701
S1135900EDFF05B030BD70B50E461546FFF7BEFF7E
S1135910044630B9FEF7D4FF092303604FF0FF308B
S113592070BD31462A460068FFF7DDFF431C1FBFE8
S11359306368281A1B18636070BDF7B50C461646D9
S1135940FFF7A4FF054618B9FEF7BAFF092304E0E0
S1135950022E06D9FEF7B4FF162303604FF0FF3082
S113596026E0012E03D14368E41811D5F2E7022E94
S11359700ED102AF036847F8083D0C26304639467D
S1135980ABBE06463046FFF7A9FF431CE6D00444ED
S11359902B686F468DE818000A2630463946ABBEA0
S11359A006463046FFF79AFF0028D7DB6C60204696
S11359B003B0F0BDFFF7C1BF37B502AD022445F80F
S11359C0040D20462946ABBE04462046FFF786FF59
S11359D003B030BD38B50546FFF758FF044630B96B
S11359E0FEF76EFF092303604FF0FF3038BD013D21
S11359F0012D09D8084B9A681B699A4204D14FF0CB
S1135A00FF330360002038BD2068FFF7D5FF10B9CD
S1135A104FF0FF33236038BD2803FE1F70B50C46DA
S1135A20FFF734FF064630B9FEF74AFF0923036047
S1135A304FF0FF3070BD636843F4005363604FF46C
S1135A408063E3620C2528463146ABBE05462846F2
S1135A50FFF744FF431C1CBF2061002070BD38B514
S1135A603C2205460C4608460021FEF72FFF284637
S1135A702146BDE83840FFF7D1BF70B5FFF706FFF8
S1135A800925044618B9FEF71BFF05600FE02846F8
S1135A902146ABBE0446012C09D0FEF711FF0024B9
S1135AA00646132528462146ABBE054635602046EA
S1135AB070BDFFFF4275696C742077697468205269
S1135AC0656E657361732053796E657267792028FA
S1135AD0544D2920536F6674776172652050616359
S1135AE06B6167652076657273696F6E20312E3144
S1135AF02E302B6275696C642E6536303730383041
S1135B003864656432000000312E312E300000000C
S1135B1000000101F8B500BFF8BC08BC9E46704700
S1135B20F8B500BFF8BC08BC9E46704774017A0102
S1135B30800186018C01920198019E01A401AA01B1
S1135B40060000000100080001010000100000012F
S1135B5000001800000001012000000000004000C7
S1135B60000100016000000001028000000000014B
S1135B700001000100028001000001030002000096
S1135B800002000400010003000800000003FFFFFE
S1135B9075017B01810187018D01930199019F01A9
S1135BA0A501AB01FD0A0000A50600007D08000068
S1135BB0690900008D050000FD050000ED050000E9
S1135BC074017A01800186018C01920198019E0181
S1135BD0A401AA0104000101010010000101010156
S1135BE04000010101020001010101032D16000022
S1135BF0111F0000451F0000751F00000D1A000052
S1135C001916000075017B01810187018D01930143
S1135C1099019F01A501AB01392D0000A92D0000B8
S1135C20192E0000592C0000C92C00000D2D000075
S1135C30052B0000852B0000F52B0000312C000003
S1135C409D2C0000352B0000592B0000F52A000084
S1135C50112F0000E52E0000892E0000992E00006F
S1135C60A92E0000BD2E0000D12E0000010101016B
S1135C70010002000300FFFF000001000200FFFF1B
S1135C800100010001000000C93A0000793B000056
S1135C907D3C0000293D0000F53900000D3A00006C
S1135CA0193B00004D3E0000313A00005D3A00000F
S1135CB0693A0000753A0000813A00008D3A00000C
S1135CC0993A0000D9390000DD390000E1390000BB
S1135CD0A53A0000B13A0000BD3A00008D3E000034
S1135CE0E539000003010101010002000800FFFF83
S1135CF0020403040404FFFF01000000000000008C
S1135D00000000006C04FE1F445D0000EC5B00001A
S1135D1000000100000000008004FE1F245D00005C
S1135D20A45B0000000000008025000000000000CB
S1135D300000000000000000D1470000185D0000D2
S1135D40105D0000000000000000000100000000E1
S1135D50A08601000000000000000000E5470000EC
S1135D60045D0000000000007E000000705D000083
S1135D70008000000000000000800000010000001E
S1135D80008000000200000000000000030000008A
S1135D900040000004000000004000000500000076
S1135DA000400000060000000000000007000000A2
S1135DB000800000080000000080000009000000CE
S1135DC0004000000A000000008000000E000000F7
S1135DD0008000000F000000000401060001000024
S1135DE00004010601010000000401060201000094
S1135DF00004010603010000000401040401000082
S1135E000004010405010000000C01040601000067
S1135E100404000007010000000001000801000064
S1135E200000010009010000000001000A01000057
S1135E30004000000B010000000000000C01000005
S1135E40040400000D010000000000000E01000029
S1135E50000000000F01000000000000000200002C
S1135E600000000001020000000C01040202000016
S1135E7000000000030200000000010C0402000006
S1135E800000010C050200000000010C06020000E5
S1135E900000010C07020000000000000C020000DA
S1135EA0000000000D0200000000010000030000DB
S1135EB000040104010300000004010402030000C3
S1135EC000000000030300000004010404030000B8
S1135ED00004010405030000000C01040603000093
S1135EE00404000007030000000000000803000091
S1135EF00404000009030000000000000A0300007D
S1135F00000000000B030000000000000C03000070
S1135F10000401190D030000000401190E03000020
S1135F20000401190F0300000040000000040000F9
S1135F300000011001040000000001100204000030
S1135F400004011703040000000401170404000006
S1135F50000C011705040000000C011706040000E2
S1135F6000000113070400000000010C08040000F5
S1135F700000010C09040000000401040A040000EC
S1135F80000401040B040000000C01040C040000D4
S1135F90040400000D0400000000010C0E040000C5
S1135FA00000010C0F040000000C011100050000AA
S1135FB0000C011101050000000C01110205000094
S1135FC0000C011103050000000C01110405000080
S1135FD0000C01110505000000000000060500008A
S1135FE00000000007050000000000000B05000091
S1135FF0000000000C050000000000000D0500007A
S1136000040400000006000004040000010600006F
S11360100404000002060000000000000306000063
S11360200000000004060000000000000506000057
S11360300004011906060000000401190706000007
S1136040000000000806000000000000090600002F
