S00B00004144432E7372656351
S11300009836FE1F25460000AD4100002146000041
S113001021460000214600002146000000000000A7
S11300200000000000000000000000002146000065
S11300302146000000000000214600002146000087
S1130040E5150000B11500006D1600002D16000026
S1130050000000000000000000000000000000009C
S1130060000000000000000000000000000000008C
S1130070000000000000000000000000000000007C
S1130080000000000000000000000000000000006C
S1130400FFFFFFFFFFFDFFFFFFFFFFFFFFFFFFFFFA
S1130410FFFFFFFFFFFFFFFFFFFFFFFFFFFFFFFFE8
S1130420FFFFFFFFFFFFFFFFFFFFFFFFFFFFFFFFD8
S1130430FFFFFFFFFFFFFFFFFFFFFFFFFFFFFFFFC8
S1130440FFFFFFFFFFFFFFFFFFFFFFFFFFFFFFFFB8
S1130450FFFFFFFFFFFFFFFFFFFFFFFFFFFFFFFFA8
S1130460FFFFFFFFFFFFFFFFFFFFFFFFFFFFFFFF98
S1130470FFFFFFFFFFFFFFFFFFFFFFFFFFFFFFFF88
S1130480FFFFFFFFFFFFFFFFFFFFFFFFFFFFFFFF78
S1130490FFFFFFFFFFFFFFFFFFFFFFFFFFFFFFFF68
S11304A0FFFFFFFFFFFFFFFFFFFFFFFFFFFFFFFF58
S11304B0FFFFFFFFFFFFFFFFFFFFFFFFFFFFFFFF48
S11304C0FFFFFFFFFFFFFFFFFFFFFFFFFFFFFFFF38
S11304D0FFFFFFFFFFFFFFFFFFFFFFFFFFFFFFFF28
S11304E0FFFFFFFFFFFFFFFFFFFFFFFFFFFFFFFF18
S11304F0FFFFFFFFFFFFFFFFFFFFFFFFFFFFFFFF08
S113050010B5054C237833B9044B13B10448AFF349
S113051000800123237010BD000CFE1F00000000AA
S1130520A0B00000084B10B51BB108480849AFF350
S113053000800848036803B910BD074B002BFBD0AB
S1130540BDE81040184700BF00000000A0B0000044
S1130550040CFE1FF008FE1F0000000000F01F0145
S113056001234009024A8B4042F82030704700BF03
S113057000E100E04309203300F01F00012202499A
S1130580824041F82320704700E100E020B319B312
S113059030B54368002283B005460C464A600A60C1
S11305A0E3B19A68AAB192699AB11868694690470A
S11305B080B9009B6360A868A0B183684BB19B6954
S11305C03BB100686946984720B9009B236003B09B
S11305D030BD012003B030BD012070474FF0FF3320
S11305E04B60E8E74FF0FF332360F3E70123037028
S11305F043708370C3700020704700BF08B338B5E0
S113060004460068104A0301D35C012B05D0002581
S1130610A56100F053FF284638BD63682BB19A6882
S11306206AB1186858B1D3699847A3682BB19A681E
S11306302AB1186818B1D36998472068E7E7012000
S113064038BD0120704700BFB411FE1F58B151B12D
S113065070B40568124E2C01345D013C042C04D99D
S1130660052070BC70470120704705F1007505F541
S113067060556D01AC79E40608D562B143689A68A7
S11306805AB11868B0FA80F04009EAE71943CB0779
S1130690F3D50320E5E71046E3E70120E1E700BFD7
S11306A0B411FE1F2DE9F041134614464268054675
S11306B00E46FFF7CBFF88B994B12B68174F03F1AF
S11306C0007101F5605149011B018A79FB5C12F04C
S11306D0100F14BF01220222012B04D0BDE8F081C7
S11306E02046BDE8F08168680028F7D0B4FBF2F436
S11306F0836800684FF6FF77BC4228BF3C465F68BA
S1130700022A4FF0010E3246A3B285F814E0BC462B
S11307100CBF10311131BDE8F0416047B411FE1F28
S11307200AB90320704700297CD12DE9F04F514BC1
S1130730514F5E6985B042F21078144601900D461F
S11307408B46C1464FF0FF0A002003A9B0470BEBCC
S11307504B03002840F0898037F81330039ADFF800
S113076018C104FB03F3B2FBF3FE0EF1FF31BEF13B
S1130770000F12D003FB0EF3520AFF2909FB02F209
S11307804FEA532309D8B2FBF3F2A2F51C53103BF2
S1130790434502DA98468A465D460BF1010BBBF1EC
S11307A00D0FD1D142F2107398455ED0019B03F135
S11307B0007303F560535B0105EB45059A780CEB78
S11307C0450C5FFA8AFA22F003029A7083F801A0BA
S11307D0DA799CF8021022F0400201F0010142EAA9
S11307E08112DA71DA799CF8031022F0100201F018
S11307F0010142EA0112DA71DA799CF8041022F05C
S1130800080201F0010142EAC102DA719CF80520F4
S11308101C7802F0030124F003020A431A7005B0A5
S1130820BDE8F08F00F1007000F560504001FF2337
S11308304370C37923F04003C371C37923F00803E1
S1130840C371037823F003030370837823F0030355
S113085043F002038370C37902290CBF43F01003F1
S113086023F01003C37100207047032005B0BDE8D6
S1130870F08F00BF38A70000E4A50000F0B51346D0
S113088083B01546826804460E46FFF7DFFE10B9B2
S1130890E06810B1082003B0F0BD23682F491A01A5
S11308A08F188A5C012AF6D1797801B97A7003F13C
S11308B0007303F560535A01A168937913F0100F84
S11308C014BF01230223002945D0012D43D9022B53
S11308D0A5EB03004FF6FF77B5FBF3F5236105F1B4
S11308E0FF330CBF0E320F328D68BB42304428BF39
S11308F03B46E0606D6808689BB23146A847002813
S1130900C9D1226802F1007202F560525201937853
S113091043F0200393702468002C14BF04200120AA
S1130920FFF71CFE04F1007303F560535B01002024
S11309309A78D2B28DF807209A78D2B28DF807202F
S11309409A78D2B28DF807209A7862F07F029A7072
S11309509DF807309FE7E6602561D8E7B411FE1FD4
S1130960002800F0968070B5066882B004460D46F3
S1130970002E7ED00420FFF7FDFD0420FFF7FAFDD2
S11309800420FFF7F7FD0420FFF7F4FD06F10073E0
S113099003F560535B019A78D2B28DF806209A78F9
S11309A0D2B28DF806209A78D2B28DF806209A78C1
S11309B002F07F029A709A7822F004029A709A7870
S11309C022F040029A7023689DF8062003F1007318
S11309D003F560535B019A7802F0DF029A70236892
S11309E003F1007303F560535B019A7802F0EF02A0
S11309F09A70206800F1007303F560535B019978E5
S1130A0011F0030105D0DB7913F0100F14BF02219C
S1130A1003212A46FFF784FE236803F1007303F5DC
S1130A2060535B0105469A7842F010029A7024687C
S1130A3054B30420FFF792FD0420FFF78FFD04F167
S1130A40007303F560535B0128469A78D2B28DF89F
S1130A5007209A78D2B28DF807209A78D2B28DF80E
S1130A6007209A7842F040029A709DF8073002B04D
S1130A7070BD0120FFF77EFD0220FFF77BFD3046AD
S1130A80FFF778FD03207FE72046FFF767FD03208B
S1130A90D3E70120704700BF2DE9F04F87B0A8B11C
S1130AA0A1B1064608680C4600F07CFD48B92068F0
S1130AB0194F0301FB5C73B10825284607B0BDE854
S1130AC0F08F0546284607B0BDE8F08F012528467B
S1130AD007B0BDE8F08F237A022B04D903252846FA
S1130AE007B0BDE8F08FA37A012BF7D8637A022B05
S1130AF0F4D8D4F81C80B8F1000F07D098F800306F
S1130B00002B40F030836368002BE7D000F0BAFC80
S1130B10054618B10A25D0E7B411FE1FE36822691F
S1130B20B2607360002B44D0D3F808C0BCF1000F4E
S1130B30CCD0D3F80090B9F1000FC7D05A68002A7E
S1130B40C4D01368002BC1D0D878997894F808E001
S1130B504FF0020A65F387106AF3830165F383009B
S1130B6065F34511D645D870997000F07582D9782F
S1130B7065F30511D970D4F800A0BAF1000FA5D11E
S1130B809646BEE80F000DF1040BABE80F00DEF84B
S1130B900030CBF800304FF4BA72DCF800308DF836
S1130BA00AA04846ADF8082001A99847002888D132
S1130BB02269002A47D0D2F808E0BEF1000F85D0A0
S1130BC0D2F800C0BCF1000F80D05268002A3FF474
S1130BD07DAF1368002B3FF479AFD878997894F8F7
S1130BE008904FF0020A00F03F0001F0F3016AF3AD
S1130BF083006FF34511D145D870997000F0AD8230
S1130C00D9786FF30511D970D4F800A0BAF1000FA8
S1130C107FF45CAF9146B9E80F000DF1040BABE82B
S1130C200F00D9F80030CBF8003040F27512DEF82E
S1130C3000308DF80AA06046ADF8082001A9984755
S1130C4000287FF43EAF0120D4F8009003F026FC86
S1130C50B54AC9F11F0913684FF0010A0AFA09F1EC
S1130C6023EA01031360504603F0F4FB236803F105
S1130C70007303F560535B0106221A77D4F80090E1
S1130C80B9F1000F40F0BC815046FFF773FC02201D
S1130C90FFF770FC4846FFF76DFC0320FFF76AFC82
S1130CA009F1007303F560535B019A78D2B28DF8B1
S1130CB003209A78D2B28DF803209A78D2B28DF8B4
S1130CC003209A7802F07F029A709A7822F0040244
S1130CD09A709A7822F040029A7023689DF8032053
S1130CE003F1007303F560535B019A7802F0EF029D
S1130CF09A70236803F1007303F560535B019A78DB
S1130D0002F0DF029A70236803F1007303F5605365
S1130D105B019A8A22F001029A82236803F100732C
S1130D2003F560535B019A8A42F002029A822369B6
S1130D30002B00F00782236803F1007303F560536E
S1130D405B019A8A22F470629A82236803F1007329
S1130D5003F560535B019A8A6FEA02526FEA1252FA
S1130D609A82226802F1007202F560525201938A5B
S1130D7043F004039382938A5907FCD42369002B1C
S1130D8000F09581236803F1007303F560535B0160
S1130D909A8A22F0F0029A82B8F1000F00F01981C9
S1130DA098F80230002B00F04C81236803F10073A3
S1130DB003F560535B01DA7962F07F02DA7198F827
S1130DC00330002B00F00F81236803F1007303F557
S1130DD060535B010021DA7942F02002DA71197262
S1130DE02368D4F81C8003F1007303F560535B019E
S1130DF05A7A22F001025A72236803F1007303F550
S1130E0060535B015A7B02F07F025A73236803F13B
S1130E10007303F560535B015A7B22F040025A735E
S1130E20637A002B00F00281236803F1007303F559
S1130E3060535B011A7842F020021A70637A012B26
S1130E40236803F1007303F560534FEA43131A78E0
S1130E500CBF42F0100222F010021A70237A012B08
S1130E6000F00081022B236803F1007303F5605343
S1130E704FEA43131A7822F040021A709A790CBF91
S1130E8022F0100242F010029A71A37A012B236817
S1130E9003F1007303F560534FEA43131A780CBF50
S1130EA042F0080222F008021A70E37A002B00F0E4
S1130EB0B280236803F1007303F560535B015A7B2E
S1130EC042F002025A73B8F1000F00F0FB8098F868
S1130ED0001029B1022903D003290CBF03210021EA
S1130EE094E80500FFF71CFC032800F0F38098F851
S1130EF00130002B40F0C580236803F1007303F533
S1130F0060535B019A78997802F0020221F00301A0
S1130F100A439A70226802F1007202F5605252018B
S1130F20938A9B07FCD401E000700440938AC3F3C6
S1130F308003002BFAD1918A41F001019182226849
S1130F4002F1007202F5605252014FF0010E918AD3
S1130F5021F0080191822268A069616932604FEA38
S1130F60021802F1007207EB080C02F56052F061FE
S1130F70B161F36033613375520107F808E08CF80E
S1130F800130CCF80460937843F010039370246824
S1130F90002C00F087800420FFF7E0FA0420FFF71C
S1130FA0DDFA04F1007303F560535B019A78D2B261
S1130FB08DF804209A78D2B28DF804209A78D2B2AF
S1130FC08DF804209A7842F040029A709DF804301B
S1130FD073E5236803F1007303F560535B01DA7969
S1130FE002F07F02DA71236803F1007303F56053A2
S1130FF05B010021DA7922F02002DA711972EFE63E
S11310000420FFF7B7FA0420FFF7B4FA0420FFF72F
S1131010B1FA042042E6236803F1007303F5605338
S11310205B015A7B22F002025A734CE7236803F1F6
S1131030007303F560535B011A7822F020021A70E2
S1131040FCE6236803F1007303F560535B01DA796E
S113105002F07F02DA71B2E6C1B2012060F3051139
S1131060D97088E5236803F1007303F560535B01CD
S11310701A7842F040021A709A7942F010029A717A
S113108003E7236803F1007303F560535B019A7867
S1131090997802F0030242F0010221F003010A43AD
S11310A09A7037E72046FFF759FA032077E7236859
S11310B003F1007303F560535B019A8A42F0F00276
S11310C09A8269E6414694E80500FFF729FB032864
S11310D07FF412AF236803F1007303F560535B01DF
S11310E09A78997802F0020221F003010A439A7077
S11310F073681BB19A681868D3699847B3681BB1C1
S11311009A681868D3699847236803F1007303F554
S113111060535B010120DA7902F07F02DA712568FD
S113112003F0BCF9124A01201368C5F11F0500FA47
S113113005F10B43136003F08DF9206800F0B4F956
S11311400325BAE4236803F1007303F560535B01DC
S11311509A8A42F470629A82F7E5C1B2012060F380
S11311600511D97050E5023B012B3FF6B7ACCDE435
S113117000700440554B03EB0013F0B55C68226823
S1131180A76800F1007502F1007202F5605305F5DD
S113119060555B016D0183B0EE8A997911F0100FEF
S11311A0C6F3042E14BF01210221002F5BD0BEF12F
S11311B0000F0FD1E26816781A79D209FCD0B2B2C6
S11311C0DA812369E2685B1A11442361E16023B187
S11311D003B0F0BD2369002BFAD168BB0220FFF7EE
S11311E0BDF9AB78DBB28DF80630AB78DBB28DF8A5
S11311F00630AB78DBB28DF80630AB7843F00403ED
S1131200AB709DF806300120FFF7B4F9AB78DBB280
S11312108DF80730AB78DBB28DF80730AB78DBB2F2
S11312208DF80730AB7803F07F03AB709DF807208F
S11312300023E36003B0F0BD0420FFF78FF9AB781F
S1131240DBB28DF80630AB78DBB28DF80630AB78C4
S1131250DBB28DF80630AB7843F00403AB709DF835
S113126006300420D0E726694EB3CEF11006002ED6
S113127025DDE368012902F560520CBF93F800E014
S1131280B3F800E052011379DB09FCD05FFA8EF366
S1131290D3812269E368521A0F440B44BA4206F11F
S11312A0FF362261E36004D91EB1226802F10072A4
S11312B0E0E7236803F1007303F560535B011A79D7
S11312C002F07F021A71236981E700BFB411FE1F87
S11312D02E4B03EB00132DE9F04FD3F804B0DBF8E9
S11312E00030DBF8042000F1007403F1007303F50F
S11312F0605304F560545B01640185B0E58A9B7911
S113130013F0100F064605F01F0514BF4FF0010837
S11313104FF0020812B19BF8143023BB4FF0000ABF
S1131320D146802712E0238ADBF818209BB2DBB277
S113133052B1DBF81C10009602938DF804700391EF
S11313409047B8F1020F07D00AF1010A55456846E3
S1131350E9D105B0BDE8F08FCDF80890DBF818307E
S113136068469847F0E7DBF8183000228BF8142021
S1131370002BD3D0DBF81C10009001208DF8040062
S11313800292039168469847C8E700BFB411FE1F54
S1131390F0B51A4E0401002806EB040387B0054695
S11313A014BF042002205F68FFF7E4F805F100731E
S11313B003F560535B019A78D2B28DF807209A78CE
S11313C0D2B28DF807209A78D2B28DF807209A7895
S11313D022F004029A70BB699DF807204BB1FA69A8
S11313E0059200210222029504918DF80C2002A896
S11313F0984734440023637007B0F0BDB411FE1F56
S113140010B500F1007303F560535B0116491C8AA3
S11314101A7901EB001122F0400249681A711A7915
S113142022F001021A711A79920684B0E4B20CD542
S113143020238DF804308B692BB1CA690090039284
S113144002946846984704B010BD1A79D20607D5AD
S11314501B7FDB0754BF102308238DF80430EAE711
S113146004238DF80430E6E7B411FE1F430920334A
S113147000F01F0001220249824041F823207047F6
S113148000E100E0092808B507D00730C0B202F037
S1131490BBFF082806D0002008BD102002F0B4FFCE
S11314A00828F8D10A2008BD092803D00730C0B2A3
S11314B002F0BEBF102002F0BBBF00BF30B504462F
S11314C083B000285ED00420FFF7D0FF0420FFF78C
S11314D0CDFF0420FFF7CAFF0420FFF7C7FF04F184
S11314E0007303F560535B0100259A78D2B28DF83E
S11314F007209A78D2B28DF807209A78D2B28DF864
S113150007209A7802F07F029A709A7822F00402F7
S11315109A709A7822F040029A709DF807209A787F
S113152002F0EF029A709A7802F0DF029A709978CA
S11315309A7801F0020122F003020A439A70DA79E0
S113154002F07F02DA71DA7922F02002DA710120E6
S11315501D7202F0A3FF114A01201368C4F11F0198
S113156000FA01F10B43136002F074FF2046FFF709
S11315709BFF0B4A2401131915555D705D609D6036
S113158003B030BD0120FFF771FF0220FFF76EFFAB
S11315902046FFF76BFF03209FE700BF0070044065
S11315A0B411FE1F09288CBF04200020704700BF1F
S11315B000B50A4B1B78012B83B00AD0012002F03E
S11315C0EFFE074BD3F804330193019B03B05DF89E
S11315D004FB0020FFF7CEFDF0E700BFB411FE1FAF
S11315E00060004000B50E4B1B78012B83B00AD07D
S11315F0002002F0D5FE0B4BD3F800330193019B7E
S113160003B05DF804FB0020FFF762FE064B1A7975
S113161022F040021A711A7922F001021A71E7E7E6
S1131620B411FE1F006000400000074000B50C4BE1
S11316301B78012B83B00FD00A4A137903F0C70338
S11316401371032002F0ACFE074BD3F80C33019363
S1131650019B03B05DF804FB0020FFF7D1FEEBE72C
S1131660B411FE1F000007400060004000B50A4BA3
S11316701B78012B83B00AD0022002F091FE074BA5
S1131680D3F808330193019B03B05DF804FB0020F9
S1131690FFF77EFEF0E700BFB411FE1F00600040BC
S11316A0012907D029B9074A1378184300F03000FC
S11316B010707047034A137803F0300323EA0000E4
S11316C010707047000D0440012900F47F4208D0D7
S11316D04FF4803181400023D2080448194311504B
S11316E0704781408BB20021F6E700BF0800044038
S11316F0000A4001024B41EA0242C250704700BF57
S113170008000440000A400100F1804000F1041088
S11317100068000C704700BF034B000A03EB401342
S113172041EA02425A60704708000440030AC0B20A
S113173000EB03139B0003F1804303F58123186836
S1131740C0F34000704700BF000A400100F1804030
S113175000F10410006880B2704700BF000A400125
S113176000F1804000F58020006880B2704700BF1F
S1131770000A400100F1804000F5802003681B0C42
S11317801B04194301607047014B00221A80704703
S11317901C0CFE1F030AC0B200EB03139B0003F1F1
S11317A0804370B403F58123EFF3108472B6174AB3
S11317B0108880B218B9164D4026E870EE70108873
S11317C0013080B2108084F31088CC03186805D5EA
S11317D020F4803021F4803418601C601960EFF329
S11317E0108172B6138809489BB21BB10388013B70
S11317F09BB2038013889BB21BB9054A8020D37027
S1131800D07081F3108870BC704700BF1C0CFE1FA1
S1131810000D0440020AC3B203EB02139B0003F160
S1131820804303F581231B6829B1064943F004036F
S11318301940FFF7AFBF034923F004031940FFF732
S1131840A9BF00BFD5FC011F012343700370C370FF
S113185083700020704700BFA8B138B5054602F078
S11318604DFE2B88002463B16B6803EBC40253F86C
S113187034109088FFF78EFF01342B88A4B2A34262
S1131880F2D8002038BD0120704700BF10B540F6E3
S11318900733984286B0044602D9032006B010BD2F
S11318A0012204AB02A804910191ADF8082003932E
S11318B0ADF8144002F022FE20460199FFF76AFFBA
S11318C0002006B010BD00BF40F60733984202D98D
S11318D003231846704739B110B50C46FFF726FFAD
S11318E000232070184610BD0123F2E7B0F5306FD5
S11318F002D903231846704739B110B50C46FFF7D7
S113190023FF00232080184610BD0123F2E700BF07
S11319100AB903207047B0F5306F08B501D9032028
S113192008BD0B46114022EA0302FFF7E1FE002046
S113193008BD00BF012901D90320704740F60732D2
S1131940904208B501D9032008BDFFF7BDFE002071
S113195008BD00BF0AB903207047B0F5306FFAD84C
S113196070B514460E460546FFF7F8FE04EA060372
S1131970184383B266EA040128461940FFF7F8FECB
S1131980002070BD012901D90320704740F60732B9
S1131990904208B501D9032008BDFFF73BFF0020A2
S11319A008BD00BFB0F5306F02D903231846704755
S11319B039B110B50C46FFF7A5FE00232080184668
S11319C010BD0123F2E700BF38B540F60733984253
S11319D0044601D9032038BD0D4681B100F47F408F
S11319E0FFF790FEE4B2012202FA04F39BB218401E
S11319F083420BBF002000202A70287038BD0120CC
S1131A0038BD00BFB0F5306F01D903207047002AFC
S1131A10FBD008B50B46114022EA0302FFF77CFE17
S1131A20002008BD40F60733984201D903207047CF
S1131A300129FBD810B5C3B200F47F4408D00122B9
S1131A409A4092B200212046FFF766FE002010BDA6
S1131A50994089B20022F6E7202801D90320704773
S1131A60012908B501D9032008BDFFF719FE00209C
S1131A7008BD00BF38B1037A094A52F823208242D4
S1131A8003D0072070470120704703F5800303F556
S1131A90F0631B020020DA6A22F00102DA62704766
S1131AA0200CFE1F38B1037A094A52F823208242DF
S1131AB003D0072070470120704703F5800303F526
S1131AC0F0631B020020DA6A42F00102DA62704716
S1131AD0200CFE1F40B139B1037A094A52F8232081
S1131AE0824203D0072070470120704703F580032A
S1131AF003F5F0631B0200209B6C0B60704700BF72
S1131B00200CFE1F20B1034B1B68036000207047AC
S1131B1001207047D4A6000060B159B170B5264ABF
S1131B20037A52F82350854282B018BF072003D0AD
S1131B3002B070BD0120704703F5800303F5F06324
S1131B401B0200225B6E019201338B602B7A03F53A
S1131B50800303F5F0631B020C46DB6AC3F30263E4
S1131B60013BDBB2042B9CBF144A52F82360144B94
S1131B704FF003005B6901A988BF01269847019BC8
S1131B80B3FBF6F363602B7A03F5800303F5F0638C
S1131B901B021B6B03F0010323702B7A03F58003F4
S1131BA003F5F0631B02D86A10F0010015BF002092
S1131BB0012320732373BBE7200CFE1F88A60000BB
S1131BC038A7000038B1184B027A53F82230834208
S1131BD003D0072070470120704710B472B61A7AF8
S1131BE002F5800202F5F06212020020D16AD46A82
S1131BF024F00104D4621A7A02F5800202F5F0623C
S1131C00120201F0010190641B7A03F5800303F5CD
S1131C10F0631B02DA6A22F001020A43DA6262B656
S1131C205DF8044B704700BF200CFE1FFFFFFFFF51
S1131C302DE9F04383B002AC002544F8045D324D35
S1131C40884681466D69214603201F461646A847EB
S1131C50B8F1060F28D8DFE808F03C043E484C50A1
S1131C602B00019826A3D3E90023A9FB000103F06C
S1131C709FF902460B4600254FF0FF349D4208BFF2
S1131C8094424FF000011ED290084FEA930E40EAAE
S1131C908370754501F1010108BF84420246734611
S1131CA0C9B210D20529EFD1032003B0BDE8F083F7
S1131CB04FF47A72002102FB09F20B46019803F0FB
S1131CC077F90246002100203970326003B0BDE884
S1131CD0F0834A46F6E701980C4A0023A9FB000169
S1131CE003F066F902460B46C5E701984FF47A7291
S1131CF0F3E7019AA9FB0223BDE700214A46DCE78A
S1131D0000CA9A3B0000000038A7000040420F00C0
S1131D1058B130B51E4B047A53F82430834283B053
S1131D2018BF072003D003B030BD0120704709B9A4
S1131D300320F8E70846002511460DF1030301AA24
S1131D4001958DF80350FFF773FF02460028EAD18E
S1131D5004F5800303F5F0631B02D96ADC6A24F0FE
S1131D600104DC62DC6A9DF8035024F0E06405F0B1
S1131D70070544EA0564DC62019C013C5C669A64E4
S1131D80DC6A01F0010224F001010A43DA62CAE7C5
S1131D90200CFE1F19B972B1012A2BD070474B1CBD
S1131DA01BD000F5800000F5F06000027AB1012A32
S1131DB036D08165704700F5800000F5F0600002C0
S1131DC0036B23F4403343F4003303637047036B22
S1131DD023F44033036341657047BAB1012ADDD16E
S1131DE000F5800000F5F0600002036B43F04073DF
S1131DF00363704700F5800000F5F0600002036B98
S1131E0023F0407343F000730363704700F58000D0
S1131E1000F5F0600002036B43F440330363704742
S1131E20036B23F040730363C3E700BF012938B594
S1131E3014461D460CD01FD302291BD1134B9842C4
S1131E401CD0A0FB02010023104A03F0B1F807E004
S1131E50642813D0A0FB02010023642203F0A8F835
S1131E60002908BFB0F1FF3F08D000238B4208BF10
S1131E70844205D2032038BD904204D14FF0FF3094
S1131E802860002038BD0021EAE700BFA0860100D9
S1131E9020B3F0B5047A0D2C83B002D9012003B02D
S1131EA0F0BD04F5800404F5F064240216461F46D0
S1131EB0626E02AB05460846002143F8041D013258
S1131EC03146FFF7B3FF04460028E8D1287A019988
S1131ED03A46FFF75FFF204603B0F0BD012070478C
S1131EE040B138B52C4D037A55F82340844203D0D1
S1131EF0072038BD0120704703F5800303F5F06324
S1131F001B0226499A6B22F0C0029A63237A03F5D6
S1131F10800303F5F0631B02DA6A22F00102DA623D
S1131F20237AC95C4AB2032A29DD03F5800303F549
S1131F30F0631B02DA8E22F48072DA86237A03F5C8
S1131F40800303F5F0631B029A8E22F480729A8652
S1131F50207A4630C0B202F06BFA1148247A036842
S1131F6055F824100C4D0122A24023EA0203036019
S1131F7081B100200860486045F8240038BD52094A
S1131F80203201F01F01012306488B4040F8223023
S1131F90237ACAE7084638BD200CFE1FC4A60000F9
S1131FA0580CFE1F00E100E02DE9F04184B000234D
S1131FB08DF80730029319B110B14B7C0D2B03D966
S1131FC0012004B0BDE8F0814633DFB20446384650
S1131FD00D4602F019FA18B1082004B0BDE8F081EA
S1131FE06868297A02AA0DF10703FFF721FE064665
S1131FF0002840F0D0806B69002B00F09781B24933
S11320006A7C8A56032A00F38C81AA696260236081
S11320106E7C26722B78697CAC4A012B42F82140F5
S113202004D1AB490A68B34013430B60012002F0AA
S113203035FA072E00F2B480A64A936823F02003F1
S11320409360012002F006FA237A03F5800303F576
S1132050F0631B024FF0FF31DA6A22F00102DA6208
S1132060207A00F5800303F5F0631B0200224FF48D
S11320702547012607281F601A615A615A61DA61EF
S11320801A625A629A62DA621E635A639A63DA6364
S11320901A649A64D964196559659965596699668B
S11320A0C3F88820C3F88C1011D85A64D96619670C
S11320B0D9675967C3F880109967C3F88410C3F8C7
S11320C09010C3F89410C3F89810C3F8A0202B788C
S11320D00026022B039669D094F808809DF80730F7
S11320E0029908F5800404F5F064240203F0070261
S11320F0E36A23F4E023E362236B43F002032363E4
S1132100236B43F001032363236B23F00203236354
S1132110E36A23F0E06343EA026301390022E362E5
S11321206166A264EF6937B13B78002B40F0888088
S1132130BB78002B45D1A36B23F0C00343F04003CD
S1132140A3636B69002B00F0BA806B7C5E4A624E1D
S1132150D25C53B203F1C0075B099B0056F8270019
S113216003F1604302F01F0103F5614301228A4039
S113217020F4803146F82710C3F880211A60A87C27
S113218000283FF41EAFE36A002043F00103E3623A
S113219004B0BDE8F081384602F04AF9304610E751
S11321A04C4A936823F0400393604AE7E868297C2B
S11321B0029A03ABFFF73AFE00287FF402AF039EB6
S11321C08AE7A28EF978287801F0010322F0100240
S11321D042EA0312A286A38E01F0030123F0C00396
S11321E043EA8113A386A38E012843F00C03A3863C
S11321F000F08280A38E00287AD023F00C0343F0F1
S11322000803A386A38E23F0030343F00103A386EC
S1132210236C23F4402343F4802323644046314653
S11322200122FFF7B7FD236B002E73D123F0407317
S113223043F000732363A38E43F48073A3867AE789
S1132240E18E787895F800E000F0010321F01001A8
S113225041EA0311E186E38E00F0030023F0C0039A
S113226043EA8013E386E38EBEF1010F43F00C03CF
S1132270E38637D0E38EBEF1000F2FD023F00C039A
S113228043F00803E386E38E23F0030343F00103E2
S1132290E386236C23F4403343F4803323644046C1
S11322A03146FFF777FD236B6EBB23F4403343F4D1
S11322B000332363E38E43F48073E38638E72B789B
S11322C0012B7FF45CAF40E7C4A60000200CFE1F86
S11322D0580CFE1F007004400060004023F003030C
S11322E0E386E7E7E264E38E43F00303E386E1E792
S11322F023F00303A3869EE700232365A38E43F004
S11323000303A38697E7711C15D023F4403323639A
S11323106665CFE7721C12D023F040732363A66571
S113232089E7384602F084F80B204AE62A78012A25
S11323307FF46EAE63E643F440332363BAE743F0BD
S11323404073236377E700BF024B23F8201000207B
S1132350704700BF10100440024A002342F82030A6
S11323601846704710100440034A137863F07F0343
S113237013700020704700BF00100440034A137814
S113238003F07F0313700020704700BF0010044067
S113239020B1034B1B680360002070470120704785
S11323A0F4A6000058B1012807D1084B00204021B1
S11323B04122187119711A71704701207047034B3B
S11323C040214122987099709A707047001004401F
S11323D0E8B130B40F4A536823F48043536045682E
S11323E05DB1836803EB85055C8813F8041B0A4A16
S11323F089000A44AB421480F6D1007828B1074A18
S1132400137863F07F031370002030BC7047012001
S1132410704700BF007004401010044000100440D6
S11324200620704706207047B8B190F90620144B77
S113243053F82230996881B1596871B1D97811F093
S1132440C00F04D1DB899BB2B3F5806F05D8016856
S11324500C4B994203D00720704701207047C032CB
S1132460094B53F8221021F4803143F8221053F819
S1132470221041F0807143F822100020704700BF01
S11324800010FE1F004354440060004088B10A4B12
S113249002689A4201D00720704790F90630074934
S11324A0C033002051F8232022F0807241F8232009
S11324B070470120704700BF00435444006000404F
S11324C0002830D000292ED0184BDB8900229BB283
S11324D08A7190F90620180418D4154B53F8223049
S11324E0D87800F0C000802809D0DB8940289BB24E
S11324F08B8011D028B94FF480630B6070479B899F
S11325008B804FF480730B60002070475BB29A425B
S113251004BF01238B71E0E7DBB28B804FF480733F
S11325200B60002070470120704700BF005400403A
S11325300010FE1F20B1034B1B680360002070478E
S113254001207047F8A6000070B582B00191009296
S113255050B14BB1254A0168914208D0072002B01E
S113256070BDEC89A4B264B9012002B070BD90F9C9
S113257006201F4951F82250EC7804F0C004802C46
S1132580EFD0C0321B4E1C4D56F8224024F080740C
S113259046F822402A7822F010022A70019A12B3D7
S11325A090F90620019D51F822406560009C1CB101
S11325B051F82240009DA56051F82210CA7802F01B
S11325C0C002802A0DD002B9CB81FFF72DFF0A4A41
S11325D01378002843F0100314BF13200020137055
S11325E0BDE78B81F1E790F90620DFE7004354440F
S11325F00010FE1F00600040005400400346D0B1AC
S11326000E4A0168914201D00720704730B490F916
S113261006200B4C0B4DC032002154F8220020F050
S1132620807044F8220093F90620084645F82210E9
S1132630196030BC70470120704700BF0043544408
S1132640006000400010FE1F002843D0002941D044
S11326502DE9F8430B68002B39D09A7802F0C004B6
S1132660402C34D0DC78A509032D30D0C4F30115F7
S1132670032D2CD002F00C02042A28D004F00C0202
S1132680042A24D014F0C00F04D0DB899BB2B3F524
S1132690807F1CD83E4B02689A421DD08E883D4DE7
S11326A0002404F1C0025FFA84F855F82230394F4F
S11326B0C3F308039E4212D00134042CF1D1D7F89D
S11326C01033C3F3080383800B20BDE8F883012093
S11326D0BDE8F883012070470820BDE8F883DFF8DF
S11326E0C49057F8223099F80020C3F30803064633
S11326F00D4683802AB3284951F82430002BEBD1AE
S11327002B6800E01033DA7812F0C00F1CBF9A7BFC
S1132710DA739A7812F0C00FF4D1204F1C4A3B7838
S113272023F010033B70A8792B6841F8243086F815
S113273006803260F8B93B7843F010033B70BDE883
S1132740F8831C2001F060FE10B10A20BDE8F88374
S1132750134F1149FA69114B22F48002FA6108609F
S113276048608860C86059601A7B012002431A736C
S113277089F80000C0E73046FFF756FE3B7843F087
S1132780100300283B7014BF13200020BDE8F88319
S113279000435444006000400010FE1F00540040F9
S11327A000E001401010FE1F084B094A094810B40C
S11327B00021094C1A604FF400425C60D8605961F2
S11327C09A601A615DF8044B704700BFF408FE1F5D
S11327D0002D310100366E0100127A0019491A4A9F
S11327E00B8D03F0030332F8132052B310B40C8D95
S11327F016480B8D14F0100F14BF0021032107EEAF
S1132800902A50F821205DF8044B07EE102AF8EEC8
S1132810676AB8EE477AC3F3052387EE267A07EE94
S1132820903AF8EEE77AF7EE006A77EEA67AF6EEDB
S1132830006A67EEA67A67EE277AFCEEE77AC0EDC7
S1132840057A704700E0014020A70000F408FE1F4D
S11328500E4AB2F8FE339BB243F4254343F001031E
S1132860A2F8FE3392F81334000100F0300003F0B4
S1132870CF03034382F81334B2F8FE3345F6FE2146
S11328800B4043F42543A2F8FE33704700E00140B7
S11328900E4AB2F8FE339BB243F4254343F00103DE
S11328A0A2F8FE3392F88134400000F0020003F0F5
S11328B0FD03034382F88134B2F8FE3345F6FE216A
S11328C00B4043F42543A2F8FE33704700E0014077
S11328D0264AB2F8FE339BB243F4254343F0010386
S11328E0A2F8FE3305280BD8DFE800F020283003D7
S11328F038181E4A92F8323023F0010382F832303D
S11329001A4AB2F8FE3323F4145323F001035B0490
S11329105B0C43F42543A2F8FE337047134A92F844
S11329202A3023F0010382F82A30E9E70F4A92F8AB
S1132930363023F0010382F83630E1E70B4A92F88F
S1132940383023F0010382F83830D9E7074A92F887
S1132950903423F0010382F89034D1E7034A92F8CB
S1132960803423F0010382F88034C9E700E0014099
S1132970264AB2F8FE339BB243F4254343F00103E5
S1132980A2F8FE3305280BD8DFE800F02028300336
S113299038181E4A92F8323043F0010382F832307C
S11329A01A4AB2F8FE3323F4145323F001035B04F0
S11329B05B0C43F42543A2F8FE337047134A92F8A4
S11329C02A3043F0010382F82A30E9E70F4A92F8EB
S11329D0363043F0010382F83630E1E70B4A92F8CF
S11329E0383043F0010382F83830D9E7074A92F8C7
S11329F0903443F0010382F89034D1E7034A92F80B
S1132A00803443F0010382F88034C9E700E00140D8
S1132A10032810D0052808D008B100207047094BBE
S1132A2093F83C0000F001007047064B93F83C001B
S1132A30C0F340107047034B93F83C00C0F3C00050
S1132A40704700BF00E00140052834D8DFE800F0FB
S1132A500B131B232B03194B93F82A0000F00100DE
S1132A6080F001007047154B93F8360000F0010028
S1132A7080F001007047114B93F8380000F001001A
S1132A8080F0010070470D4B93F8900400F00100B2
S1132A9080F001007047094B93F8320000F0010008
S1132AA080F001007047054B93F8800400F00100AA
S1132AB080F0010070470020704700BF00E0014033
S1132AC0024B1A6A93F82630704700BF00E00140B9
S1132AD00E4AB2F8FE339BB243F4254343F001039C
S1132AE0A2F8FE3392F8133400F0010023F04003FF
S1132AF043EA801382F81334B2F8FE3345F6FE211C
S1132B000B4043F42543A2F8FE33704700E0014034
S1132B100E4AB2F8FE339BB243F4254343F001035B
S1132B20A2F8FE3392F8A23001F00F0123F00F0354
S1132B30194382F8A210B2F8FE3345F6FE210B4089
S1132B4043F42543A2F8FE33704700BF00E0014080
S1132B5005288CBF00200120704700BF06288CBFC9
S1132B6000200120704700BF024B93F8260000F0BC
S1132B700700704700E001400E4AB2F8FE339BB2F2
S1132B8043F4254343F00103A2F8FE3392F82630C0
S1132B9000F0070023F00703184382F82600B2F878
S1132BA0FE3345F6FE210B4043F42543A2F8FE33E1
S1132BB0704700BF00E00140034B1B8D13F0100F62
S1132BC00CBF03200020704700E001400F4A104969
S1132BD0B2F8FE3311F810109BB243F4254343F0CE
S1132BE00103A2F8FE33138D01F0010123F0100359
S1132BF043EA01131385B2F8FE3345F6FE210B4078
S1132C0043F42543A2F8FE33704700BF00E00140BF
S1132C1030A70000114AB2F8FE3330EE000A9BB22E
S1132C2043F42543FCEEC07A43F00103A2F8FE33DB
S1132C3017EE903A118D013B21F47C5103F03F03D0
S1132C4041EA03231385B2F8FE3345F6FE210B4017
S1132C5043F42543A2F8FE33704700BF00E001406F
S1132C600E4A0F49B2F8FE3331F810109BB243F408
S1132C70254343F00103A2F8FE33138D01F0030151
S1132C8023F003030B431385B2F8FE3345F6FE210C
S1132C900B4043F42543A2F8FE33704700E00140A3
S1132CA028A70000F0B5164AB2F8FE339BB243F4ED
S1132CB0254343F00103A2F8FE3390F800C090F8D6
S1132CC002E0077946794578C478817900236CF36A
S1132CD00E336EF3061367F3124366F31E7365F344
S1132CE00A2364F3020361F31A631362B2F8FE3336
S1132CF045F6FE210B4043F42543A2F8FE33F0BD14
S1132D0000E001400E4B1A6AC2F3023202701A6AE2
S1132D10C2F3022242701A6AC2F3021282701A6A61
S1132D2002F00702C2701A6AC2F3024202711A6AFE
S1132D30C2F3027242711B6AC3F302638371704768
S1132D4000E001404378022B16D8D0ED017AB3EEAF
S1132D500E7AF4EEC77AF1EE10FA0DDCB2EE047AD4
S1132D60F4EEC77AF1EE10FA06D40078032805D001
S1132D70B0FA80F040097047002070470120704786
S1132D80062828D8DFE800F0090E13181D220400D5
S1132D90124B186AC0F302607047104B186AC0F3F4
S1132DA0023070470D4B186AC0F3022070470B4B7A
S1132DB0186AC0F302107047084B186A00F0070045
S1132DC07047064B186AC0F302407047034B186AF9
S1132DD0C0F3027070470020704700BF00E001405C
S1132DE008B5FFF7CDFF054B054A93F8263003F0ED
S1132DF0070352F8233023FA00F008BD00E0014035
S1132E00F408FE1F024B53F82000C840704700BF6F
S1132E10F408FE1F0F4BB3F8FE2392B242F425428E
S1132E2042F00102A3F8FE2393F8402062F07F02EF
S1132E3083F8402093F8402042F0010283F84020B8
S1132E40B3F8FE2345F6FE210A4042F42542A3F8D6
S1132E50FE23704700E001400F4BB3F8FE2392B20B
S1132E6042F4254242F00102A3F8FE2393F84020E5
S1132E7022F0010283F8402093F8402002F07F0200
S1132E8083F84020B3F8FE2345F6FE210A4042F4BD
S1132E902542A3F8FE23704700E00140024B93F85B
S1132EA04000C009704700BF00E00140024B93F8A6
S1132EB0410000F00100704700E00140114A92F81F
S1132EC0410010F0010001D100207047B2F8FE3338
S1132ED09BB243F4254343F00103A2F8FE3392F876
S1132EE0413023F0010382F84130B2F8FE3323F479
S1132EF0145323F001035B045B0C43F42543A2F851
S1132F00FE33704700E001400E4AB2F8FE339BB234
S1132F1043F4254343F00103A2F8FE3392F8303022
S1132F2000F0010023F00103184382F83000B2F8E6
S1132F30FE3345F6FE210B4043F42543A2F8FE334D
S1132F40704700BF00E001400C4AB2F8FE339BB268
S1132F5043F4254343F00103A2F8FE3392F85230C0
S1132F6043F0010382F85230B2F8FE3345F6FE21F5
S1132F700B4043F42543A2F8FE33704700E00140C0
S1132F800C4AB2F8FE339BB243F4254343F00103E9
S1132F90A2F8FE3392F8523023F0010382F8523043
S1132FA0B2F8FE3345F6FE210B4043F42543A2F864
S1132FB0FE33704700E00140164BB3F8FE2392B293
S1132FC042F4254242F00102A3F8FE2393F83E2086
S1132FD002F07F0283F83E2093F83E2001F00701BF
S1132FE022F0700242EA011283F83E2093F83E2058
S1132FF000F0070022F00702104383F83E00B3F804
S1133000FE2345F6FE210A4042F42542A3F8FE239E
S1133010704700BF00E001400C4AB2F8FE339BB297
S113302043F4254343F00103A2F8FE3392F83E3003
S113303063F07F0382F83E30B2F8FE3345F6FE219A
S11330400B4043F42543A2F8FE33704700E00140EF
S11330500C4AB2F8FE339BB243F4254343F0010318
S1133060A2F8FE3392F83E3003F07F0382F83E303C
S1133070B2F8FE3345F6FE210B4043F42543A2F893
S1133080FE33704700E001400C4AB2F8FE339BB2B5
S113309043F4254343F00103A2F8FE3392F853307E
S11330A043F0010382F85330B2F8FE3345F6FE21B3
S11330B00B4043F42543A2F8FE33704700E001407F
S11330C00C4AB2F8FE339BB243F4254343F00103A8
S11330D0A2F8FE3392F8533023F0010382F8533000
S11330E0B2F8FE3345F6FE210B4043F42543A2F823
S11330F0FE33704700E001400E4AB2F8FE339BB243
S113310043F4254343F00103A2F8FE3392F824303C
S113311000F0070023F0700343EA001382F8243020
S1133120B2F8FE3345F6FE210B4043F42543A2F8E2
S1133130FE33704700E001400B4B01380022B0F130
S1133140807F19681A600CD210B4084C5860F020C3
S113315084F82300072101209A6019605DF8044B6C
S1133160704719601046704710E000E000ED00E081
S11331700C4B1A7902F00E0242F0F0021A711A7A1C
S113318000F0010022F0040242EA80021A721A7A64
S113319022F0080242EAC00018721A7942F0F102E1
S11331A01A71704700200040094B1A7942F0F1026D
S11331B01A711A7A00F0010022F0100242EA001299
S11331C01A721A7902F00E0242F0F0021A71704774
S11331D000200040054A92F81C3100F0070023F05B
S11331E00703184382F81C01704700BF00C0014068
S11331F0024B93F81C0100F00700704700C0014027
S1133200002070470020704700207047024B1B6865
S113321003600020704700BF94A7000038B50C4637
S11332200546FFF7A1FC28702046FFF76BFD002040
S113323038BD00BF70B500240C600D460646FFF78C
S11332408DFC10B90324204670BD3046FFF7C8FD3D
S11332502860204670BD00BF10B5FFF727FE68B197
S1133260FFF782FC0446FFF7A7FC052C04D0032CCF
S113327004D140F2971010BD0328FAD0FFF71EFEC8
S1133280002010BD08B5FFF73FFE002008BD00BFB9
S113329008B5FFF759FE002008BD00BF08B5FFF7C9
S11332A06FFE002008BD00BF08B5FFF785FE0020B3
S11332B008BD00BF08B5FFF7AFFE002008BD00BF82
S11332C008B5FFF7C5FE002008BD00BF08B5FFF72D
S11332D0DBFE002008BD00BF08B5FFF7F1FE0020AB
S11332E008BD00BF08B5FFF707FF002008BD00BFF9
S11332F000B583B04FF6FF730193FFF755FA04202E
S1133300FFF736FB04E0019B3BB1019B013B0193BA
S11333100420FFF799FB0028F5D1019B23B94FF452
S1133320CD7003B05DF804FB05210420FFF7C8FB52
S11333300020FFF7ADFA002003B05DF804FB00BFE6
S113334010B50446FFF704FC08B9032010BD631E42
S1133350012B0FD9042C0DD02CB1032C03D0052C38
S113336001D0002010BD2046FFF76EFB68B94FF472
S1133370C87010BD2046FFF767FB40F29113002888
S113338014BF18464FF4C87010BD2046FFF740FB29
S113339040F2931300280CBF18464FF4C97010BDB7
S11333A070B582B00E460546FFF7D2FB10B9032074
S11333B002B070BD052D28460FD0FFF745FB18B1AC
S11333C040F2911002B070BD6A1E012A4ED9042D3C
S11333D025D0BDB1032D3AD0EAE7FFF735FBC8B9D4
S11333E0B6B1FFF7C1FB0528EAD03046FFF7AAFCC7
S11333F00028DCD03078FFF727FB00283BD14FF4BE
S1133400CA70D5E7FFF704FB80B340F29310CFE70F
S11334100120CDE7FFF7E2F940F29110C8E7284612
S1133420FFF756FA4FF6FF73019304E0019B3BB19B
S1133430019B013B01930420FFF706FB0028F5D014
S1133440019B002B0CBF4FF4CD700020B0E7284641
S1133450FFF7DEFA04460028D7D1FFF7F9F9204632
S1133460FFF736FB28460921FFF752FB2846FFF7F2
S11334702FFA00209CE72846FFF7CAFA04460028E2
S1133480C3D13078FFF7A2FB7078FFF7E9FB96ED24
S1133490010AFFF7BFFBFFF7A1F92846FFF718FA67
S11334A0204685E710B582B00446FFF751FB10B9FA
S11334B0032002B010BDFFF757FB844216D0052845
S11334C010D0012C15D02046FFF7BEFA40B1022CD3
S11334D039D0042C1AD094B1032C10D0052C0ED062
S11334E00020E6E7FFF768FBA042EAD140F2911022
S11334F0DFE7FFF7D3FC08B340F29510D9E7204685
S1133500FFF786FAF8B940F29310D2E72046FFF7A6
S11335102FFA4FF6FF73019304E0019B3BB1019B2B
S1133520013B01930420FFF78FFA0028F5D1019B9A
S1133530002B0CBF4FF4CD700020BAE72046FFF7F4
S113354083FA0028CCD02046FFF712FAC8E700BF60
S113355070B50C460546FFF7FBFA08B9032070BDA9
S1133560002C3BD0A17963798B42F7D363788B42EB
S1133570F4D323788B42F1D323798B42EED32846BC
S1133580FFF740FC284B9842064631D80020FFF74D
S1133590EFFD0020FFF708FE244B9E4231D8FFF7D1
S11335A027FE0026FFF7E0FA854207D0C5B1032DB8
S11335B016D0052D14D02846FFF7DEFA2046FFF773
S11335C071FB00F0CFFD1A4B1860FFF711FE864225
S11335D024D03046FFF7FEFD002070BD012070BDF1
S11335E02846FFF715FA0028E5D14FF4C97070BDDD
S11335F00120FFF7BDFD0F4B9E4211D90120FFF7BB
S1133600D3FD0D4B9E4294BF01260226FFF7F0FD29
S11336108642C7D93046FFF7DDFDC3E7002070BD01
S11336200020FFF7C1FDECE7FF0D2707FFB3C4043B
S11336305412FE1FFFC1EB0BFF67890900B583B06D
S113364071B148B10146012000F0A8FDFFF7E2FB8B
S1133650002003B05DF804FB012003B05DF804FB17
S1133660FFF724FC20B14FF4CB7003B05DF804FBEA
S11336700190FFF7F1FB0198EBE700BF08B90320C5
S1133680704738B50D46044600F06CFD07EE900A0D
S1133690F8EE676AF7EE007AC7EEA66A07EE905A6C
S11336A007EE104AF8EE677AB8EE477A66EEA77A24
S11336B0C7EE277AFCEEE77A17EE900AFFF73CFD97
S11336C000280CBF1220002038BD00BF0B7C2BB19A
S11336D0012801D0072B03D90320704718467047EF
S11336E04A7C032AF8D910B412480A680488486846
S11336F0C4F34134012C02EA030200EA030005D0BA
S1133700934207D003205DF8044B7047934201D0E5
S11337108342F7D1074B1B881B0607D40028F2D03D
S11337200B89002B0CBF00200320ECE7002AE9D111
S1133730F4E700BF00C0054010B4174B174C0A7CD7
S113374000280CBF18462046D40722D5B0F86630AE
S113375043F48073A0F866300B7C9A0706D5B0F862
S1133760663043F40073A0F866300B7C5B0705D524
S1133770B0F8663043F48063A0F86630B0F8663081
S11337804A7C23F0FF031343A0F866305DF8044B32
S113379070471346E1E700BF00C0054000C2054082
S11337A010B40E4B0C680E4A002808BF1A4614F0D9
S11337B0405F03D14B6813F0405008D013881B06B8
S11337C008D492F87A30002B0CBF002003205DF857
S11337D0044B704703205DF8044B704700C005405C
S11337E000C2054010B50C4648BB012000F056FE4F
S11337F01F4A936823F480039360012000F02AFE9B
S113380023681C48DA0029D403465A8A22F48072B9
S11338105A825A8A42F480625A82438AE26816497A
S1133820C2F3007223F00103134343820B7863F065
S11338307F030B700B7843F010030B7010BD012055
S113384000F02CFE0A4A936823F48003936001205D
S113385000F000FE23680948DB00D5D5438A43F411
S113386080734382438A23F480634382D5E700BF95
S11338700070044000C0054000D0054000C205406F
S1133880074B084A00280CBF18461046438A43F4E5
S113389000734382438A23F400634382704700BF6A
S11338A000C0054000C20540074B084A00280CBF71
S11338B018461046438A23F400734382438A43F430
S11338C000634382704700BF00C0054000C205404A
S11338D0054B064A00280CBF18461046038843F4DB
S11338E080530380704700BF00C0054000C20540FC
S11338F0054B064A00280CBF18461046038843F0BF
S113390040030380704700BF00C0054000C205406B
S1133910054B064A00280CBF18461046038823F0BE
S113392040030380704700BF00C0054000C205404B
S113393038B5214A214B002818BF13460446B3F872
S11339408020D20731D41A88C2F34132012A16BF2B
S11339501A8A43F63F7242F47C5200251A820120EF
S11339601D8000F09BFDB4B1012C04D00120BDE802
S1133970384000F06FBD124A124B15709A6842F439
S113398080029A609A6842F400429A600120BDE87D
S1133990384000F05FBD0B4A936843F48033936072
S11339A00120BDE8384000F055BDB3F8802022F076
S11339B00102A3F88020C6E700C2054000C005400C
S11339C000D005400070044020B10A2251230A723D
S11339D04B81704708224B230A724B81704700BF0A
S11339E0012801D903207047D378022BFAD8938891
S11339F0C3F30E03002BF5D19379032B05D903F000
S1133A00FD01812901D0852BECD1D37913F0DF0F8F
S1133A10E8D1137A022B8CBF03200020704700BF2B
S1133A2010B50446012000F039FD2388354A002BE7
S1133A3048D1936823F480339360012000F00AFD99
S1133A402188314A314B002918BF134600221A80BD
S1133A505A82A278022A43D0012A48D01A8822F036
S1133A6080021A80227A012A31D03AB91A8842F4A3
S1133A7080721A801A8A22F47C521A82DA89E178D6
S1133A8022F0060201F0030142EA4102DA81DA89F6
S1133A90A188C2F30E02A1F50041B1FA81F14909EE
S1133AA042EAC132DA81E179DA89A1F1200122F016
S1133AB02002B1FA81F1490942EA4112DA81A2797C
S1133AC01A7310BD936823F400439360B5E722880A
S1133AD0A2B91A8A22F47C5242F410621A82CDE707
S1133AE01A8822F4C04242F400521A80B6E71A88B7
S1133AF022F4C04242F480421A80AFE7012ABDD1C9
S1133B00E7E700BF0070044000C2054000C0054064
S1133B10F8B518B90B682BBB0320F8BD0B68002B54
S1133B20FAD01F4D1F4A1342F6D12A88C2F34132FC
S1133B30012A1BD04B68002BEED11F4606460C46CB
S1133B40FFF72EFE88B92B7B5B0724D02368E2683D
S1133B503B4332EA0303DFD130462146BDE8F84057
S1133B60FFF7B4BD104D114ADDE7F8BD4F68002FD3
S1133B70D2D00E4A0B4C002818BF224613433B42B6
S1133B80CAD10B89012BD9D9032BD7D048F2010212
S1133B909342C1D1D2E7E368002BBDD1DCE700BF7B
S1133BA000C2054080FFE0CF00C0054080FFC0CFC9
S1133BB070B50B68144D154A0646002818BF154603
S1133BC0D8000C4611D44A68D1000ED49A0013D5FB
S1133BD03046FFF755FEE2686B8AC2F3407223F069
S1133BE0020343EA42036B8270BD30462146FFF76D
S1133BF0F9FD23689A00EBD463689B0003D5304633
S1133C00FFF752FEE7E770BD00C0054000C2054063
S1133C10F8B5364B364C0E46002818BF1C460746EE
S1133C20FFF776FF054608B12846F8BD3388A38020
S1133C30B388A382B3892381738803F03F03E380AD
S1133C40F38803F03F03E382F38903F03F036381C6
S1133C5038463146FFF7ACFF38463146FFF76CFD76
S1133C60338948F2010293421BD02249A4F88030E0
S1133C7007EB870311F82330012B07D02388C3F304
S1133C804133012B21D03846FFF722FE328948F216
S1133C9001039A42C8D148F20103A4F880302846AF
S1133CA0F8BD144B07EB870213F82230012BF2D036
S1133CB02388C3F34133012BE5D1238A43F03F0327
S1133CC023823846FFF724FEDDE733899342F4D09C
S1133CD03846FFF70DFE37B9238A23F03F0343F03C
S1133CE00A032382CFE7012FCDD1F5E700C20540B7
S1133CF000C005400000FE1F28B121B10388012B3C
S1133D0003D90320704701207047114A03EB830055
S1133D1002EB8002527A0AB9072070470D4A0E4816
S1133D2030B40C78002B0CBF1546054655F82450CA
S1133D3065B14978042909D9002B0CBF1346034601
S1133D40002053F82430197030BC70470320FBE77F
S1133D500000FE1FECA8000098A7000068B10388CB
S1133D60012B01D903207047164A03EB830102EBB0
S1133D708102517A19B90720704701207047127ADD
S1133D80022A0BD0104A1149002B0CBF13460B46D4
S1133D9000201A8842F400721A8070475BB90A4BFB
S1133DA01A8811040BD41A886FEA42426FEA52420D
S1133DB01A8000207047054B1A881204F3D5082096
S1133DC0704700BF0000FE1F00C0054000C2054050
S1133DD068B10388012B01D903207047114A03EB12
S1133DE0830102EB8102517A19B90720704701203F
S1133DF07047127A0C49022A0C4A09D0002B0CBFD6
S1133E0013460B4600201A8822F400721A80704769
S1133E10002B0CBF13460B4600201A88C2F30E0277
S1133E201A8070470000FE1F00C2054000C0054014
S1133E3068B10388012B01D9032070470B4A03EBB7
S1133E40830102EB8102527A1AB9072070470120DC
S1133E507047074A0749002B0CBF13460B461B88C3
S1133E6013F4004F0CBF0020082070470000FE1F11
S1133E7000C0054000C2054078B10388012B01D978
S1133E8003207047104830B403EB830400EB840034
S1133E90407A20B9072030BC70470120704762B1D6
S1133EA00A480B4C002B0CBF0546254655F82150FB
S1133EB00DB11D2903D90320EDE70220EBE72B8880
S1133EC013800020E7E700BF0000FE1FE4A7000006
S1133ED068A8000020B1034B1B68036000207047F2
S1133EE00120704760A9000040B339B32DE9F843BD
S1133EF00D888F780C460646394628462246FFF739
S1133F006FFDC8B9E36823B1A378012B13D0012D49
S1133F1016D9022F0AD02388204F03EB830207EB24
S1133F208202557A7DB10820BDE8F883228940F2E7
S1133F3001139A42EFD00320BDE8F88301207047B3
S1133F400B20BDE8F883002B0CBF6420652000F033
S1133F505BFA0828E7D02088FFF7EAFC2046FFF741
S1133F605FFD2088D4F80C9094F80880D4F810C031
S1133F7094F802E000EB80039B00F9180A46C1F8AC
S1133F800490308002F8088F01242846C1F810C03C
S1133F9007F803E05470BDE8F88300BF0000FE1F7B
S1133FA028B121B10288012A03D9032070470120D6
S1133FB0704770B50A4E02EB820406EB8404647AFF
S1133FC00CB9072070BD044610460D46FFF720FECD
S1133FD023882A6803EB830306EB8306F26070BD33
S1133FE00000FE1F28B121B10088012803D9032055
S1133FF0704701207047F8B500EB80031B4C9B0011
S1134000E218083255780DB90720F8BDE35C022B9D
S113401029D0174F174B5568002818BF1F46002298
S1134020012404FA02F32B4202F10102F9D002F155
S11340308042013A1F2457F822E0C1F800E001262B
S113404000E0144606FA04F32B4204F1FF32F8D0E0
S113405057F82430CEEB03035B1001334B60FFF7BA
S1134060B3FC0020F8BD0320F8BD00BF0000FE1F14
S1134070E4A7000068A8000070B138B50388012BDC
S113408001D9032038BD0F4D03EB830205EB8202F7
S1134090527A1AB9072038BD0120704704461846E1
S11340A0FFF746FC238803EB830205EB8205002B14
S11340B04FF000040CBF642065206C7200F0B8F966
S11340C0204638BD0000FE1F70B5234D82B02B681A
S11340D0984700216E680320B04701211F4AAC694C
S11340E08DF80110032301928DF800300320A047BE
S11340F0B0F5C97FFAD169460520B047184A92F84D
S1134100003143F0010382F800310520A047B0F5E7
S1134110C97FFAD100220124022369468DF80620C2
S11341208DF801308DF802308DF805308DF800409F
S1134130EB688DF803408DF80440052098472B6DFB
S1134140042098476B6A20469847AB6A9847AB6C43
S1134150984702B070BD00BF38A700000000A0411E
S113416000C0014000B583B002A9002341F8043D1A
S1134170034B06205B699847019803B05DF804FB84
S113418038A70000044B002103F1300243F8041B5C
S11341909342FBD1704700BF1410FE1F024B43F83B
S11341A020100020704700BF1410FE1F08B57A4B82
S11341B0B3F84031D90700F1C180774BB3F84031EF
S11341C09A0700F1B080744BB3F840315B0700F1FB
S11341D09F80714BB3F84031180700F18E806E4B0D
S11341E0B3F84031D9067CD46B4BB3F84001C0F32B
S11341F08010002869D1684BB3F840311A0658D4AE
S1134200654BB3F84031DB0547D4634BB3F8403119
S1134210980536D4604BB3F84031590524D45E4B2D
S1134220B3F840311A0512D45B4BB3F84031DB04C8
S113423000D408BD594BDB6A002B40F0AA80564AD3
S1134240B2F8303143F48053A2F8303108BD534BF7
S11342509B6A002B40F09A804F4AB2F8303143F405
S11342600063A2F83031DFE74C4B5B6A002B40F06F
S11342708A80494AB2F8303143F48063A2F830317D
S1134280CDE7464B1B6A002B7AD1434AB2F8303152
S113429043F40073A2F83031BCE7404BDB69002BD8
S11342A06BD13D4AB2F8303143F48073A2F8303117
S11342B0ABE73A4B1B68002B5CD1374AB2F830317C
S11342C043F08003A2F830319AE7344B5B68002B4B
S11342D04ED1314AB2F8303143F04003A2F83031C4
S11342E089E72E4B9B69002B3FD12B4AB2F8303122
S11342F043F01003A2F8303176E7284B5B698BBB9F
S1134300254AB2F8303143F00803A2F8303166E7A9
S1134310224B1B691BBB204AB2F8303143F0040323
S1134320A2F8303155E71D4B9B68ABB91A4AB2F875
S1134330303143F00203A2F8303144E7174BDB6815
S11343403BB9154AB2F8303143F00103A2F83031D9
S113435033E703209847F4E702209847E6E7042070
S11343609847D8E705209847CAE706209847BCE74E
S11343709847AEE7002098479FE70720984790E7C3
S11343800820984781E70920984772E70A20984750
S113439062E70B20984752E7006000401410FE1FAC
S11343A0002808DB800000F1804000F5C640036867
S11343B023F4803303607047F0B50E4BDFF844E01C
S11343C00D4E0E4C0E4930224FF4BA7C40F2751754
S11343D04FF4BB7583F8002340F27710CEF800C089
S11343E083F80123376083F80223256083F80323CD
S11343F00860F0BD00E100E0046300400863004091
S11344000C63004000630040084B0121034402E0B8
S1134410C3E8401F40B1D3E84F2F12F0FF0FF7D08D
S1134420BFF32F8F08207047704700BF4410FE1F52
S1134430014B00221A5470474410FE1F044B002104
S113444003F1780203F8011F9342FBD1704700BFC8
S11344504310FE1F0E4B33F8102092B22AB133F8EA
S11344601020013A92B223F8102033F810309BB296
S113447063B9084A0849B2F8FE3331F810109BB208
S113448043F4254323EA0103A2F8FE33704700BF37
S1134490BC10FE1F00E0014064A90000104A32F87D
S11344A010309BB2ABB910B40E4C0F49B4F8FE33C4
S11344B031F810109BB243F425430B43A4F8FE33A8
S11344C032F810305DF8044B01339BB222F81030FF
S11344D0704732F8103001339BB222F81030704725
S11344E0BC10FE1F00E0014064A90000024B002242
S11344F01A805A809A807047BC10FE1FF8B507884E
S1134500AFB341681B4C002601EBC70E4FF0010C02
S113451037468888002334F81320824216D00133AA
S1134520032BF8D108317145F3D1F643F6B20120DB
S1134530FFF7B4FF104A92F8BB341F433E4082F8A1
S1134540BB640120BDE8F840FFF784BF0A6802F0AD
S1134550B852B2F1807F05D00CFA03F546EA0502A1
S1134560D6B2DCE70CFA03F21743FFB2D7E7FF2613
S1134570DDE700BF6CA9000000E00140A0F10100EC
S11345800028FBD1704700BF38B50D4601FB00F48D
S1134590FFF7E8FDB0F5004F01D8012D19D00F4AFF
S11345A0B2FBF0F0844208D24FF47A7202FB04F3B7
S11345B0B3FBF0F0800808D138BD4FF47A72B4FB35
S11345C0F0F002FB00F08008F6D0BDE83840FFF7B9
S11345D0D5BF2846BDE83840FFF7D0BF00CA9A3B94
S11345E00C4A08B513688BB1033020F003000A4964
S11345F01844884202D81060184608BD00F0A6FF8F
S11346000C2303604FF0FF33184608BD034B1360BF
S1134610EAE700BFC410FE1F9826FE1F9816FE1F6F
S1134620FEE700BF08B500F005F800F03DF9FEE72D
S1134630704700BF204A08B5D2F8883043F47003AD
S1134640C2F888300020FFF7F3FFFFF79BFDFFF768
S11346503BFDFFF74BFFFDF797F8184B18481B6815
S11346609847184A184B9B1A05D01344002103F8A5
S1134670011D9A42FBD11548154BC01A07D0154AA3
S1134680184412F8011B03F8011B8342F9D1FFF708
S113469069FD114B18600120FFF7CAFFFFF7CEFE3A
S11346A0FFF78AFE0D4B0E481B6898470020BDE8B3
S11346B0084000F017B800BF00ED00E050A600006D
S11346C060AA0000000CFE1F9816FE1FF408FE1FCF
S11346D00000FE1FACB000005412FE1FD8A600005C
S11346E074A9000000F044B882B04FF0C843002120
S11346F00091009A1A7D61F300021A751A8DD0B1E7
S1134700202161F30F221A851A8D4FF0C04142F027
S113471080021A850A68009240F6FF7219460192D7
S113472004E0019B013B0193019A12B18A6A52068B
S1134730F7D502B070474FF0C04142F47F421A856A
S11347400A6800921A8D60F3C7121A850A680092EB
S113475040F6FF711A46019105E0019B013B01936C
S1134760019B002BE5D0936A5B06F6D402B0704738
S1134770F8B5494A13684FF0C84423F04003136066
S1134780237A6FF304032372237DFF2243F0010392
S113479023752261237D662243F001032375226180
S11347A0237D992243F0010323752261237D43F085
S11347B00103237501212320FFF7E6FE9F232361D4
S11347C0364B22691A7022695A702169227D9970C8
S11347D042F0010222751A78EF2A04D000221A70DE
S11347E05A709A70F8BD5A78402AF7D19A78172AE5
S11347F0F4D1052020612A4923690B70227D294BBD
S113480042F0010235262275266122691A70227D42
S113481042F001022275228D042565F303022285EC
S11348202279502765F3030222712761227D42F029
S1134830010222751A78012742F002021A702761D8
S11348400A7822611A782261227D3A432275256111
S1134850227D3A432275228860F30202228020617D
S113486022690A70227D3A432275266122691A70F0
S1134870237D3B432375238843F040032380A369AE
S1134880DB074FF0C845FAD40120FFF72DFF2B7D3D
S11348906FF300032B75F8BD00700440C810FE1FB1
S11348A0CC10FE1FD010FE1F08B500F035F8002014
S11348B008BD00BF2DE9F047B2F1000919DD0F4B27
S11348C00F4CD3F808801F688A4601EB09060025BF
S11348D02570D8F808303846514601229847237885
S11348E0002BFCD00AF1010AB245F1D14846BDE8DB
S11348F0F0874FF000094846BDE8F08708AA000099
S11349009016FE1F0379022B02D1024B01221A706A
S1134910704700BF9016FE1F2DE9F0412DED048B6A
S11349206F4BDFF808829A68596812681868DFEDDF
S11349306D9A9FED6D9A84B00024039490476B4B5D
S11349401B682146986802224FF4806300F0AAFE97
S1134950674B9D681C682A68596820469047D8F8B8
S11349600C70D8F800603B68D8F8041030469847BB
S1134970D8F808107B68304698475E4ABB691288AD
S1134980ADF8042001A930469847BB6830469847E3
S1134990594800F02FFE594800F02CFE584800F00A
S11349A029FE584800F076FE574800F073FE574839
S11349B000F070FE564800F06DFE564800F06AFEA6
S11349C07B6900210DF10602304698477B691C2162
S11349D002AA304698470DF10A021D217B69304630
S11349E09847BDF806304C4808EE903AF8EEE88A4D
S11349F0BDF80A3068EEA98A08EE103AC8EE898A32
S1134A0000F0F8FD454800F0F5FD454800F0F2FDE2
S1134A100A2000F003FEBDF80610424800F0EAFD4B
S1134A203E4800F0E7FDB8EEC88A3D4800F0E2FDDC
S1134A3018EE900A00F0E0F928EE298A024688EE82
S1134A40098A0B46384800F0D5FD344800F0D2FD01
S1134A50334800F0CFFD314800F0CCFD304800F081
S1134A60C9FD2E4800F0C6FD2D4800F0C3FD2B48BB
S1134A7000F0C0FD2A4800F0BDFD284800F0BAFD52
S1134A80274800F0B7FDBDF80A10264800F0B2FD33
S1134A90224800F0AFFD224800F0ACFD18EE100AE9
S1134AA000F0AAF902460B461F4800F0A3FDEB688C
S1134AB0204698472B6903A920469847039800F09D
S1134AC079F905A3D3E9002300F068FA0028F1D0AE
S1134AD0EB682046984773E70000000060E36641F6
S1134AE008AA00003333534000F07F457004FE1FD2
S1134AF094A9000058AE00005CAE000064AE000053
S1134B0068AE000070AE000088AE0000A4AE0000E5
S1134B10B8AE0000D4AE0000F0AE0000F8AE000065
S1134B2000AF000004AF00000CAF0000DCA90000DF
S1134B3081F0004102E000BF83F0004330B54FEA4A
S1134B4041044FEA430594EA050F08BF90EA020FB7
S1134B501FBF54EA000C55EA020C7FEA645C7FEA4A
S1134B60655C00F0E2804FEA5454D4EB5555B8BF6D
S1134B706D420CDD2C4480EA020281EA030382EADE
S1134B80000083EA010180EA020281EA0303362D70
S1134B9088BF30BD11F0004F4FEA01314FF4801C43
S1134BA04CEA113102D0404261EB410113F0004F55
S1134BB04FEA03334CEA133302D0524263EB43030C
S1134BC094EA050F00F0A780A4F10104D5F1200EAA
S1134BD00DDB02FA0EFC22FA05F2801841F1000105
S1134BE003FA0EF2801843FA05F359410EE0A5F1D9
S1134BF020050EF1200E012A03FA0EFC28BF4CF00A
S1134C00020C43FA05F3C01851EBE37101F00045BF
S1134C1007D54FF0000EDCF1000C7EEB00006EEBCC
S1134C200101B1F5801F1BD3B1F5001F0CD3490856
S1134C305FEA30004FEA3C0C04F101044FEA4452AD
S1134C4012F5800F80F09A80BCF1004F08BF5FEA34
S1134C50500C50F1000041EB045141EA050130BD14
S1134C605FEA4C0C404141EB010111F4801FA4F1B7
S1134C700104E9D191F0000F04BF01460020B1FA0C
S1134C8081F308BF2033A3F10B03B3F120020CDA44
S1134C900C3208DD02F1140CC2F10C0201FA0CF022
S1134CA021FA02F10CE002F11402D8BFC2F1200C87
S1134CB001FA02F120FA0CFCDCBF41EA0C0190403D
S1134CC0E41AA2BF01EB0451294330BD6FEA040486
S1134CD01F3C1CDA0C340EDC04F11404C4F1200271
S1134CE020FA04F001FA02F340EA030021FA04F383
S1134CF045EA030130BDC4F10C04C4F1200220FADA
S1134D0002F001FA04F340EA0300294630BD21FA17
S1134D1004F0294630BD94F0000F83F4801306BFDD
S1134D2081F480110134013D4EE77FEA645C18BFD1
S1134D307FEA655C29D094EA050F08BF90EA020F68
S1134D4005D054EA000C04BF1946104630BD91EA60
S1134D50030F1EBF0021002030BD5FEA545C05D163
S1134D604000494128BF41F0004130BD14F58004A2
S1134D703CBF01F5801130BD01F0004545F0FE4116
S1134D8041F470014FF0000030BD7FEA645C1ABF4B
S1134D90194610467FEA655C1CBF0B46024650EA82
S1134DA0013406BF52EA033591EA030F41F40021AE
S1134DB030BD00BF90F0000F04BF0021704730B534
S1134DC04FF4806404F132044FF000054FF0000109
S1134DD050E700BF90F0000F04BF0021704730B5CA
S1134DE04FF4806404F1320410F0004548BF40429F
S1134DF04FF000013EE700BF42004FEAE2014FEAF4
S1134E0031014FEA02701FBF12F07F4393F07F4FCE
S1134E1081F06051704792F0000F14BF93F07F4F00
S1134E20704730B54FF4607401F0004521F0004143
S1134E3020E700BF50EA010208BF704730B54FF0C9
S1134E4000050AE050EA010208BF704730B511F0CE
S1134E50004502D5404261EB41014FF4806404F106
S1134E6032045FEA915C3FF4DCAE4FF003025FEA88
S1134E70DC0C18BF03325FEADC0C18BF033202EB10
S1134E80DC02C2F1200300FA03FC20FA02F001FA6A
S1134E9003FE40EA0E0021FA02F11444C1E600BF09
S1134EA04FF0FF3C06E000BF4FF0010C02E000BFF2
S1134EB04FF0010C4DF804CD4FEA410C7FEA6C5CD5
S1134EC04FEA430C18BF7FEA6C5C1BD001B050EA78
S1134ED0410C0CBF52EA430C91EA030F02BF90EA63
S1134EE0020F0020704710F1000F91EA030F58BF22
S1134EF0994208BF90422CBFD8176FEAE37040F084
S1134F00010070474FEA410C7FEA6C5C02D150EA21
S1134F10013C07D14FEA430C7FEA6C5CD6D152EADC
S1134F20033CD3D05DF8040B704700BF84461046A1
S1134F3062468C461946634600E000BF01B5FFF7A0
S1134F40B7FF002848BF10F1000F01BD4DF808ED70
S1134F50FFF7F4FF0CBF012000205DF808FB00BF41
S1134F604DF808EDFFF7EAFF34BF012000205DF89B
S1134F7008FB00BF4DF808EDFFF7E0FF94BF0120E8
S1134F8000205DF808FB00BF4DF808EDFFF7CEFFE9
S1134F9094BF012000205DF808FB00BF4DF808ED28
S1134FA0FFF7C4FF34BF012000205DF808FB00BFF9
S1134FB053B94AB9002908BF00281CBF4FF0FF317C
S1134FC04FF0FF3000F03CB882B0EC462DE90050C1
S1134FD000F01EF8DDF804E002B00CBC704700BF1E
S1134FE02DE9F041069C154606460F46984600F00A
S1134FF029F805FB01F300FB0838A5FB0023B21ACE
S1135000434467EB0303C4E90023BDE8F08100BF18
S11350102DE9F041069C904606460F461D4600F0D9
S11350205FF900FB05F5A0FB082308FB0155B21A44
S11350302B4467EB0303C4E90023BDE8F08100BF00
S1135040704700BF00292DE9F043C0F2A680002676
S1135050002BC0F29C80884694469E461546044622
S11350600F46002B3DD18A4259D9B2FA82F33BB1A3
S1135070C3F120029F4020FA02F29D4017439C4056
S1135080290C220CB7FBF1FEA8B201FB1E7742EA01
S1135090074700FB0EF3BB420AD97F190EF1FF321A
S11350A080F00581BB4240F20281AEF1020E2F4432
S11350B0FF1AA4B2B7FBF1F301FB137744EA0747E5
S11350C000FB03F0B84208D97F1903F1FF3280F0E6
S11350D0F080B84240F2ED80023B43EA0E430022E6
S11350E003E08B420FD900221346341C18BF01245D
S11350F060424FF0000565EB4501584051400019EE
S11351006941BDE8F083B3FA83F2002A40F0868057
S11351108B4202D3844500F2DB800123E5E712B918
S11351200123B3FBF2F5B5FA85F000283BD1781BD7
S11351304FEA154E1FFA85FC0122B0FBFEF8210C44
S11351400EFB180741EA07470CFB08F3BB4207D9DB
S11351507F1908F1FF3102D2BB4200F2BD808846BC
S1135160FF1AA4B2B7FBFEF30EFB137744EA07471A
S11351700CFB03FCBC4507D97F1903F1FF3102D2B4
S1135180BC4500F2A7800B4643EA0843ADE7524210
S11351906FEA060663EB43035DE7404261EB4101BE
S11351A04FF0FF3654E7C0F1200224FA02F107FA67
S11351B000F385404FEA154ED7401943B7FBFEF282
S11351C00B0C0EFB12771FFA85FC43EA07430CFB1A
S11351D002F79F4204FA00F407D95B1902F1FF3089
S11351E074D29F4272D9023A2B44DF1B89B2B7FBB7
S11351F0FEF80EFB187341EA03430CFB08F79F42C9
S113520008D95B1908F1FF315CD29F425AD9A8F141
S113521002082B44D81B48EA02428EE7C2F120035D
S11352202CFA03F10EFA02FE20FA03F741EA0E0EFD
S113523008FA02F028FA03F14FEA1E453843B1FB9D
S1135240F5F8030C05FB18111FFA8EF743EA014128
S113525007FB08F38B420CFA02FC09D911EB0E018F
S113526008F1FF3930D28B422ED9A8F102087144DB
S1135270C91A80B2B1FBF5F305FB131140EA0141F1
S113528007FB03F78F4208D911EB0E0103F1FF303E
S113529016D28F4214D9023B714443EA0843C91B16
S11352A0A3FB0C89494509D305D000221DE7964686
S11352B0FEE6134611E794404445F6D2013BF4E779
S11352C00346EAE78846A5E7C846D1E702468CE7E5
S11352D013460AE7023B57E7A8F102082F443FE7C9
S11352E02DE9F041002B44D18A42154604464FD99A
S11352F0B2FA82F70E464FB1C7F12003B94020FA43
S113530003F602FA07F50E4300FA07F44FEA154EC6
S1135310230CB6FBFEF0AFB20EFB106143EA01436F
S113532007FB00F1994209D95B1900F1FF3280F0C3
S1135330EC80994240F2E98002382B445A1AA4B214
S1135340B2FBFEF30EFB132244EA024207FB03F70F
S1135350974208D9521903F1FF3180F0D88097425F
S113536040F2D580023B43EA004000263146BDE8C6
S1135370F0818B4247D8B3FA83F6002E48D18B4292
S113538002D3824200F2CD8001203146BDE8F08193
S113539012B90125B5FBF2F5B5FA85F8B8F1000F9D
S11353A077D14A1B4FEA154EAFB20126B2FBFEF08D
S11353B0230C0EFB102143EA014107FB00F38B424F
S11353C007D9491900F1FF3202D28B4200F2BA80A8
S11353D01046C91AA4B2B1FBFEF30EFB131144EA42
S11353E0014407FB03F7A74208D9641903F1FF320C
S11353F080F08F80A74240F28C80023B43EA004059
S11354003146BDE8F081002630463146BDE8F081E2
S1135410C6F1200422FA04F5B3402B4320FA04FC1D
S113542001FA06F721FA04F54FEA134E4CEA07078E
S1135430B5FBFEF8390C0EFB18551FFA83FC41EA44
S113544005450CFB08F1A94202FA06F204D9ED184D
S113545008F1FF3467D3A0466D1ABFB2B5FBFEF462
S11354600EFB145547EA05410CFB04FC8C4504D99A
S1135470C91804F1FF355CD32C4644EA0844CCEB4C
S11354800101A4FB0223994248D344D020460026BC
S11354906CE7C8F1200401FA08F305FA08F520FACC
S11354A004F7E1404FEA154E1F43B1FBFEF63A0CF8
S11354B00EFB16111FFA85FC42EA01430CFB06F2AF
S11354C09A4200FA08F407D95B1906F1FF3137D282
S11354D09A4235D9023E2B449B1ABFB2B3FBFEF06D
S11354E00EFB103347EA03430CFB00F1994207D942
S11354F05B1900F1FF3221D299421FD902382B44A3
S11355005A1A40EA0646674650E7104616E70B4625
S113551029E7134672E7B0409042B7D2601E0026D6
S113552024E7304622E7A94295D9A8F102081D4490
S113553092E78C45A0D9023C19449EE71046DFE768
S11355400E46C9E70238294443E700BF014B1868F7
S1135550704700BF7004FE1F70B4840746D0541E09
S1135560002A41D0CDB2034602E0621EE4B31446E1
S113557003F8015B9A07F8D1032C2ED9CDB245EA82
S113558005250F2C45EA054519D903F110022646D5
S1135590103E0F2E42F8105C42F80C5C42F8085C96
S11355A042F8045C02F11002F2D8A4F1100222F0D5
S11355B00F0204F00F041032032C13440DD91E46BD
S11355C02246043A032A46F8045BFAD8221F22F042
S11355D003020432134404F003042CB1C9B21C4482
S11355E003F8011BA342FBD170BC70471446034669
S11355F0C2E700BF0FB400B5074983B004AB086825
S113560053F8042B8168019300F0F6F803B05DF8B9
S113561004EB04B0704700BF7004FE1F034B1B680B
S113562001469A68184603F025BF00BF7004FE1FA8
S1135630F0B5054689B008460C4600F0AFF8AB6BF0
S1135640134F04940126441C04A9022203940590D8
S1135650AC680697079601910292ABB1A3899A04AC
S113566006D4626E43F4005322F40052A3816266AE
S11356702846214601AA02F0EDFD002814BF4FF090
S1135680FF300A2009B0F0BD284602F09DFCE5E792
S113569018AF0000024B01461868FFF7C9BF00BFEE
S11356A07004FE1F2DE9F0413A4C26680D4604466D
S11356B090461F4616B1B36B002B3CD0B8F1020FD5
S11356C02FD8002F2DDB2146304602F0E9FBA189BB
S11356D000236360A3610B0627D421F0830189B200
S11356E0B8F1020FA1812AD0002D36D0B8F1010FF4
S11356F011D089B201F00800274BF36380B2256012
S11357002561676178B111F0030F18BF0027A76006
S11357100020BDE8F08141F001017B42A181A36139
S1135720E7E74FF0FF30BDE8F0812169304602F031
S1135730B9FCA189D1E7304602F046FCBEE700205F
S113574004F1430341F0020100250122A181A56077
S1135750236023616261BDE8F081002F08BF4FF42C
S11357608067384602F0AAFF054628B1A18941F0B6
S1135770800189B2A181B9E74FF4806002F09EFFF5
S1135780054618B9A1894FF0FF30D9E74FF4806777
S1135790ECE700BF7004FE1FCD7E000020F0030183
S11357A010F00300C0F1000051F8043B00F1040CB8
S11357B04FEACC0C6FF000021CBF22FA0CF2134328
S11357C04FF0010C4CEA0C2C4CEA0C4CA3EB0C02F1
S11357D022EA030212EACC1204BF51F8043B04305B
S11357E0F4D0C2F1000102EA0102B2FA82F2C2F17B
S11357F01F0200EBD20070472DE9F04FBDB01C46EC
S113580089460492074602F0E5FE036811931846A0
S1135810FFF7C4FF089412901FB1BB6B002B00F07C
S1135820F380B9F80C2093B29E040AD4D9F864101A
S113583042F4005321F40051A9F80C30C9F8641063
S11358409BB21D0740F1AA80D9F81020002A00F06D
S1135850A58003F01A030A2B00F0AC809FED6E7B49
S113586000238DED0E7B0D932193209310931393BE
S113587005932CAB1F931C46B846049D2B78002B34
S113588000F0C680252B02D1C2E0252B03D015F8E9
S1135890013F002BF9D1049BEE1A7EB1209B219A83
S11358A00499216001333244072B666021922093CE
S11358B000F393800834059B334405932B78002B25
S11358C000F093800023691C4FF0FF3A6D788DF847
S11358D05F301A460693029356464B1CA5F12001ED
S11358E0582900F2CD83DFE811F05C02CB03CB032F
S11358F00203CB03CB03CB03CB03CB03CB030903BF
S1135900D202CB03F8015303CB03D602DD02DD023E
S1135910DD02DD02DD02DD02DD02DD02DD02CB039C
S1135920CB03CB03CB03CB03CB03CB03CB03CB0303
S1135930CB0371029302CB039302CB03CB03CB03C0
S1135940CB03CB02CB03CB036E03CB03CB03CB0341
S1135950CB03CB03B503CB03CB038B03CB03CB0329
S1135960CB03CB03CB03CB03CB03CB03CB03CB03C3
S1135970A003170393029302930230031703CB038C
S1135980CB033703CB034103FF01EC026302CB03D8
S11359901102CB039B00CB03CB03360238464946A6
S11359A001F078F9A0B9B9F80C3003F01A030A2B06
S11359B07FF454AFB9F90E30002BFFF64FAF3846E1
S11359C04946049A234601F029F93DB0BDE8F08F19
S11359D04FF0FF303DB0BDE8F08F404649461FAA66
S11359E004F028F840B92CAC65E7219B23B140466C
S11359F049461FAA04F01EF8B9F80C305A06E7D439
S1135A0005983DB0BDE8F08F384602F0DDFA08E7AE
S1135A10049D53E7AFF30080000000000000000085
S1135A200493029BB2469E0640F11E83089F0737EB
S1135A3027F0070303F10802D3E900670892012362
S1135A404FF0000C8DF85FC0CDF82CA0BAF1000F18
S1135A5003DB029A22F08002029256EA070240F027
S1135A601F83BAF1000F00F01C84012B00F0208387
S1135A70022B00F052842CA9F20842EA4772F8087B
S1135A8006F0070307461646303356EA070201F8C4
S1135A90013DF1D1029A0A91D00700F1F9842CABAF
S1135AA05B1A0793079A92455346B8BF134603936C
S1135AB000230C93BCF1000F02D0039B013303932A
S1135AC0029B13F00203099302D0039B0233039356
S1135AD0029B13F0840640F0E082069B039AC2EB1B
S1135AE0030ABAF1000F40F3D882BAF1100F2199DA
S1135AF0209AB34FC8BF4FF0100B07DC1EE0AAF189
S1135B00100ABAF1100F04F1080417DD0132103144
S1135B10072A2191209284E88008F0DD4046494616
S1135B201FAA03F087FF00287FF466AFAAF1100ACA
S1135B30BAF1100F2199209A2CACE7DC01320AEB60
S1135B40010B072ACDF884B0209284E8800400F386
S1135B504A849DF85FC00834BCF1000F0FD0209B2D
S1135B6001330BF1010B0DF15F010122072BCDF87D
S1135B7084B0209384E8060000F3B1830834099BC1
S1135B8073B1209B01330BF1020B18A90222072BDE
S1135B90CDF884B0209384E8060000F3AC83083485
S1135BA0802E00F0F0820B9B079AC2EB030ABAF135
S1135BB0000F32DDBAF1100F209A824F22DD102639
S1135BC05B4606E0AAF1100ABAF1100F04F10804CA
S1135BD017DD01321033072A219320922760666073
S1135BE0F0DD404649461FAA03F024FF00287FF455
S1135BF003AFAAF1100ABAF1100F219B209A2CAC22
S1135C00E7DC9B460132D344072ACDF884B02092C6
S1135C1084E8800400F357830834029BDB0500F119
S1135C205B82209B07990A9A226001338B44072BDD
S1135C30CDF884B06160209300F31D830834029B87
S1135C4059073AD5069B039A9D1A002D35DD102D70
S1135C50209B5B4F1EDD10265A4604E0103D102D9C
S1135C6004F1080415DD01331032072B219220932F
S1135C7027606660F2DD404649461FAA03F0DAFE5B
S1135C8000287FF4B9AE103D102D219A209B2CAC36
S1135C90E9DC93460133AB44072BCDF884B0209361
S1135CA02760656009DD404649461FAA03F0C2FE2D
S1135CB000287FF4A1AEDDF884B0059B039A069911
S1135CC08A42ACBF9B185B180593BBF1000F40F0F0
S1135CD0DE82002320932CACCFE5194602981D7870
S1135CE040F004000290F8E50493029B13F02003B3
S1135CF0B24600F07381089F073727F0070303F1CA
S1135D000802D3E900670892002399E6089A0493ED
S1135D1013680A934FF0000B8DF85FB0171D002B2A
S1135D2000F05E86002E0A98C0F21286594632466A
S1135D3002F05EFF002800F08F860A9BCDF82CB09D
S1135D40C31A0793089723EAE3730393CDF830B09B
S1135D509DF85FC0AEE604931B4B1093029B8DF835
S1135D605F209906B24640F15581089F073727F016
S1135D700703D3E9006703F108020892029BDB07DB
S1135D8040F1E48256EA070300F0E082029A8DF8BB
S1135D906150302342F002028DF8603002920223F7
S1135DA04EE61D781946002A7FF497AD202294E52B
S1135DB0029941F0200102911D7819468DE500BF3A
S1135DC070AF00001CAF000050AF00000493029BB2
S1135DD08DF85F2043F010030293029B9806B246AD
S1135DE040F1A280089F073727F00707D7E900236F
S1135DF007F10801089116461F46002A73F10003B3
S1135E00C0F21C849DF85FC0CDF82CA001231DE6D0
S1135E100493029B089F8DF85F201B07B246B3468C
S1135E2007F1070740F19B8427F0070393ED007BFC
S1135E308DED0E7B03F1080208929DED0E0B03F02D
S1135E403BFD012840F00884DDE90E010022002317
S1135E50FFF786F8002840F0EC859DF85FC0029EAD
S1135E60994A9A4B0321002026F08006472DD8BF7B
S1135E701A4603910B9002960A9207910C9019E628
S1135E80029941F0080102911D78194625E51D7813
S1135E9019462B2221E5029941F0800102911D78D7
S1135EA019461AE5A5F13000002113F8015B01EB56
S1135EB0810100EB4101A5F130000928F5D90691D3
S1135EC00CE5089904933023029A8DF860300B4650
S1135ED00433782542F0020208937D4B1093B246B6
S1135EE002920E688DF8615000270223A8E50299FA
S1135EF041F0010102911D781946EEE4089D2968DC
S1135F00069108460028294601F10401C0F2EE84F6
S1135F1008911D781946E0E40493029B8DF85F20F4
S1135F209806B2463FF55EAF029BD90600F19B820C
S1135F30029B5A0640F197820899B1F90060043136
S1135F40F71732463B46089157E7029941F0400162
S1135F5002911D781946C0E41D7802996C2D00F059
S1135F60BE8441F0100102911946B6E40493029BE9
S1135F708DF85F209A0640F1FD83089A059913680D
S1135F80CF170846043239460892C3E9000174E485
S1135F901D782A2D03F1010100F02A86A5F13000B5
S1135FA009280B464FF000063FF698AC13F8015B46
S1135FB006EB860600EB4606A5F130000928F5D964
S1135FC046EAE6768AE40493029B43F010030293C4
S1135FD0029B13F02003B2467FF48DAE029A12F0B6
S1135FE0100240F03882029B13F0400300F0338229
S1135FF0089913460A4604320E88089200271FE5C2
S11360000493344B1093029B8DF85F209906B2469B
S11360103FF5ABAE029BDA0640F1D183089A1346F2
S11360200433166808930027A8E6089904930A68BD
S11360308DF888200023012204319C4603920891A4
S11360408DF85F3022ABCDF82CC0CDF830C007926C
S11360500A9335E50493029B43F010030293029BD9
