S00D0000626C696E6B2E7372656307
S11300003025FE1FB11D0000111A0000AD1D0000B7
S1130010AD1D0000AD1D0000AD1D0000000000007E
S1130020000000000000000000000000AD1D000002
S1130030AD1D000000000000AD1D0000AD1D00005E
S113004000000000000000000000000000000000AC
S1130050000000000000000000000000000000009C
S1130060000000000000000000000000000000008C
S1130070000000000000000000000000000000007C
S1130400FFFFFFFFFFFDFFFFFFFFFFFFFFFFFFFFFA
S1130410FFFFFFFFFFFFFFFFFFFFFFFFFFFFFFFFE8
S1130420FFFFFFFFFFFFFFFFFFFFFFFFFFFFFFFFD8
S1130430FFFFFFFFFFFFFFFFFFFFFFFFFFFFFFFFC8
S1130440FFFFFFFFFFFFFFFFFFFFFFFFFFFFFFFFB8
S1130450FFFFFFFFFFFFFFFFFFFFFFFFFFFFFFFFA8
S1130460FFFFFFFFFFFFFFFFFFFFFFFFFFFFFFFF98
S1130470FFFFFFFFFFFFFFFFFFFFFFFFFFFFFFFF88
S1130480FFFFFFFFFFFFFFFFFFFFFFFFFFFFFFFF78
S1130490FFFFFFFFFFFFFFFFFFFFFFFFFFFFFFFF68
S11304A0FFFFFFFFFFFFFFFFFFFFFFFFFFFFFFFF58
S11304B0FFFFFFFFFFFFFFFFFFFFFFFFFFFFFFFF48
S11304C0FFFFFFFFFFFFFFFFFFFFFFFFFFFFFFFF38
S11304D0FFFFFFFFFFFFFFFFFFFFFFFFFFFFFFFF28
S11304E0FFFFFFFFFFFFFFFFFFFFFFFFFFFFFFFF18
S11304F0FFFFFFFFFFFFFFFFFFFFFFFFFFFFFFFF08
S113050010B5054C237833B9044B13B10448AFF349
S113051000800123237010BD5004FE1F0000000062
S1130520702B0000084B10B51BB108480849AFF305
S113053000800848036803B910BD074B002BFBD0AB
S1130540BDE81040184700BF00000000702B0000F9
S11305505404FE1F3404FE1F00000000012907D0CC
S113056029B9074A1378184300F030001070704717
S1130570034A137803F0300323EA00001070704735
S1130580000D0440012900F47F4208D04FF480316B
S113059081400023D2080448194311507047814018
S11305A08BB20021F6E700BF08000440000A4001B6
S11305B0024B41EA0242C250704700BF08000440A7
S11305C0000A400100F1804000F104100068000CB2
S11305D0704700BF034B000A03EB401341EA024299
S11305E05A60704708000440030AC0B200EB0313CA
S11305F09B0003F1804303F581231868C0F3400096
S1130600704700BF000A400100F1804000F104106F
S1130610006880B2704700BF000A400100F18040CA
S113062000F58020006880B2704700BF000A4001D6
S113063000F1804000F5802003681B0C1B04194363
S113064001607047014B00221A8070476C04FE1F42
S1130650030AC0B200EB03139B0003F1804370B4A0
S113066003F58123EFF3108472B6174A108880B221
S113067018B9164D4026E870EE701088013080B22B
S1130680108084F31088CC03186805D520F48030DA
S113069021F4803418601C601960EFF3108172B685
S11306A0138809489BB21BB10388013B9BB20380AA
S11306B013889BB21BB9054A8020D370D07081F394
S11306C0108870BC704700BF6C04FE1F000D04400E
S11306D0020AC3B203EB02139B0003F1804303F548
S11306E081231B6829B1064943F004031940FFF72D
S11306F0AFBF034923F004031940FFF7A9BF00BFAC
S1130700D5FC011F012343700370C3708370002064
S1130710704700BFA8B138B5054601F0D5FA2B885B
S1130720002463B16B6803EBC40253F8341090885F
S1130730FFF78EFF01342B88A4B2A342F2D8002025
S113074038BD0120704700BF10B540F6073398420A
S113075086B0044602D9032006B010BD012204ABC2
S113076002A804910191ADF808200393ADF8144058
S113077001F0AAFA20460199FFF76AFF002006B0AB
S113078010BD00BF40F60733984202D90323184630
S1130790704739B110B50C46FFF726FF00232070CF
S11307A0184610BD0123F2E7B0F5306F02D90323D8
S11307B01846704739B110B50C46FFF723FF0023E4
S11307C02080184610BD0123F2E700BF0AB90320B8
S11307D07047B0F5306F08B501D9032008BD0B464A
S11307E0114022EA0302FFF7E1FE002008BD00BF2A
S11307F0012901D90320704740F60732904208B519
S113080001D9032008BDFFF7BDFE002008BD00BFCD
S11308100AB903207047B0F5306FFAD870B51446A2
S11308200E460546FFF7F8FE04EA0603184383B2B2
S113083066EA040128461940FFF7F8FE002070BD5F
S1130840012901D90320704740F60732904208B5C8
S113085001D9032008BDFFF73BFF002008BD00BFFE
S1130860B0F5306F02D903231846704739B110B57B
S11308700C46FFF7A5FE00232080184610BD012377
S1130880F2E700BF38B540F607339842044601D971
S1130890032038BD0D4681B100F47F40FFF790FE80
S11308A0E4B2012202FA04F39BB2184083420BBF64
S11308B0002000202A70287038BD012038BD00BFF8
S11308C0B0F5306F01D903207047002AFBD008B57A
S11308D00B46114022EA0302FFF77CFE002008BD0C
S11308E040F60733984201D9032070470129FBD809
S11308F010B5C3B200F47F4408D001229A4092B2EA
S113090000212046FFF766FE002010BD994089B201
S11309100022F6E7202801D903207047012908B5F1
S113092001D9032008BDFFF719FE002008BD00BF50
S1130930024B23F820100020704700BF1010044021
S1130940024A002342F82030184670471010044031
S1130950034A137863F07F0313700020704700BFCD
S113096000100440034A137803F07F03137000203F
S1130970704700BF0010044020B1034B1B680360A4
S11309800020704701207047D026000058B101288C
S113099007D1084B002040214122187119711A71A6
S11309A0704701207047034B402141229870997091
S11309B09A70704700100440E8B130B40F4A53688D
S11309C023F48043536045685DB1836803EB850578
S11309D05C8813F8041B0A4A89000A44AB42148059
S11309E0F6D1007828B1074A137863F07F031370B7
S11309F0002030BC70470120704700BF00700440E5
S1130A001010044000100440084B094A094810B46F
S1130A100021094C1A604FF400425C60D8605961AF
S1130A209A601A615DF8044B704700BF3804FE1FDA
S1130A30002D310100366E0100127A0019491A4A5C
S1130A400B8D03F0030332F8132052B310B40C8D52
S1130A5016480B8D14F0100F14BF0021032107EE6C
S1130A60902A50F821205DF8044B07EE102AF8EE86
S1130A70676AB8EE477AC3F3052387EE267A07EE52
S1130A80903AF8EEE77AF7EE006A77EEA67AF6EE99
S1130A90006A67EEA67A67EE277AFCEEE77AC0ED85
S1130AA0057A704700E00140D42600003804FE1F98
S1130AB00E4AB2F8FE339BB243F4254343F00103DC
S1130AC0A2F8FE3392F81334000100F0300003F072
S1130AD0CF03034382F81334B2F8FE3345F6FE2104
S1130AE00B4043F42543A2F8FE33704700E0014075
S1130AF00E4AB2F8FE339BB243F4254343F001039C
S1130B00A2F8FE3392F88134400000F0020003F0B2
S1130B10FD03034382F88134B2F8FE3345F6FE2127
S1130B200B4043F42543A2F8FE33704700E0014034
S1130B30264AB2F8FE339BB243F4254343F0010343
S1130B40A2F8FE3305280BD8DFE800F02028300394
S1130B5038181E4A92F8323023F0010382F83230FA
S1130B601A4AB2F8FE3323F4145323F001035B044E
S1130B705B0C43F42543A2F8FE337047134A92F802
S1130B802A3023F0010382F82A30E9E70F4A92F869
S1130B90363023F0010382F83630E1E70B4A92F84D
S1130BA0383023F0010382F83830D9E7074A92F845
S1130BB0903423F0010382F89034D1E7034A92F889
S1130BC0803423F0010382F88034C9E700E0014057
S1130BD0264AB2F8FE339BB243F4254343F00103A3
S1130BE0A2F8FE3305280BD8DFE800F020283003F4
S1130BF038181E4A92F8323043F0010382F832303A
S1130C001A4AB2F8FE3323F4145323F001035B04AD
S1130C105B0C43F42543A2F8FE337047134A92F861
S1130C202A3043F0010382F82A30E9E70F4A92F8A8
S1130C30363043F0010382F83630E1E70B4A92F88C
S1130C40383043F0010382F83830D9E7074A92F884
S1130C50903443F0010382F89034D1E7034A92F8C8
S1130C60803443F0010382F88034C9E700E0014096
S1130C70032810D0052808D008B100207047094B7C
S1130C8093F83C0000F001007047064B93F83C00D9
S1130C90C0F340107047034B93F83C00C0F3C0000E
S1130CA0704700BF00E00140052834D8DFE800F0B9
S1130CB00B131B232B03194B93F82A0000F001009C
S1130CC080F001007047154B93F8360000F00100E6
S1130CD080F001007047114B93F8380000F00100D8
S1130CE080F0010070470D4B93F8900400F0010070
S1130CF080F001007047094B93F8320000F00100C6
S1130D0080F001007047054B93F8800400F0010067
S1130D1080F0010070470020704700BF00E00140F0
S1130D20024B1A6A93F82630704700BF00E0014076
S1130D300E4AB2F8FE339BB243F4254343F0010359
S1130D40A2F8FE3392F8133400F0010023F04003BC
S1130D5043EA801382F81334B2F8FE3345F6FE21D9
S1130D600B4043F42543A2F8FE33704700E00140F2
S1130D700E4AB2F8FE339BB243F4254343F0010319
S1130D80A2F8FE3392F8A23001F00F0123F00F0312
S1130D90194382F8A210B2F8FE3345F6FE210B4047
S1130DA043F42543A2F8FE33704700BF00E001403E
S1130DB005288CBF00200120704700BF06288CBF87
S1130DC000200120704700BF024B93F8260000F07A
S1130DD00700704700E001400E4AB2F8FE339BB2B0
S1130DE043F4254343F00103A2F8FE3392F826307E
S1130DF000F0070023F00703184382F82600B2F836
S1130E00FE3345F6FE210B4043F42543A2F8FE339E
S1130E10704700BF00E00140034B1B8D13F0100F1F
S1130E200CBF03200020704700E001400F4A104926
S1130E30B2F8FE3311F810109BB243F4254343F08B
S1130E400103A2F8FE33138D01F0010123F0100316
S1130E5043EA01131385B2F8FE3345F6FE210B4035
S1130E6043F42543A2F8FE33704700BF00E001407D
S1130E70E4260000114AB2F8FE3330EE000A9BB2B9
S1130E8043F42543FCEEC07A43F00103A2F8FE3399
S1130E9017EE903A118D013B21F47C5103F03F038E
S1130EA041EA03231385B2F8FE3345F6FE210B40D5
S1130EB043F42543A2F8FE33704700BF00E001402D
S1130EC00E4A0F49B2F8FE3331F810109BB243F4C6
S1130ED0254343F00103A2F8FE33138D01F003010F
S1130EE023F003030B431385B2F8FE3345F6FE21CA
S1130EF00B4043F42543A2F8FE33704700E0014061
S1130F00DC260000F0B5164AB2F8FE339BB243F477
S1130F10254343F00103A2F8FE3390F800C090F893
S1130F2002E0077946794578C478817900236CF327
S1130F300E336EF3061367F3124366F31E7365F301
S1130F400A2364F3020361F31A631362B2F8FE33F3
S1130F5045F6FE210B4043F42543A2F8FE33F0BDD1
S1130F6000E001400E4B1A6AC2F3023202701A6AA0
S1130F70C2F3022242701A6AC2F3021282701A6A1F
S1130F8002F00702C2701A6AC2F3024202711A6ABC
S1130F90C2F3027242711B6AC3F302638371704726
S1130FA000E001404378022B16D8D0ED017AB3EE6D
S1130FB00E7AF4EEC77AF1EE10FA0DDCB2EE047A92
S1130FC0F4EEC77AF1EE10FA06D40078032805D0BF
S1130FD0B0FA80F040097047002070470120704744
S1130FE0062828D8DFE800F0090E13181D22040093
S1130FF0124B186AC0F302607047104B186AC0F3B2
S1131000023070470D4B186AC0F3022070470B4B37
S1131010186AC0F302107047084B186A00F0070002
S11310207047064B186AC0F302407047034B186AB6
S1131030C0F3027070470020704700BF00E0014019
S113104008B5FFF7CDFF054B054A93F8263003F0AA
S1131050070352F8233023FA00F008BD00E00140F2
S11310603804FE1F024B53F82000C840704700BFED
S11310703804FE1F0F4BB3F8FE2392B242F425420C
S113108042F00102A3F8FE2393F8402062F07F02AD
S113109083F8402093F8402042F0010283F8402076
S11310A0B3F8FE2345F6FE210A4042F42542A3F894
S11310B0FE23704700E001400F4BB3F8FE2392B2C9
S11310C042F4254242F00102A3F8FE2393F84020A3
S11310D022F0010283F8402093F8402002F07F02BE
S11310E083F84020B3F8FE2345F6FE210A4042F47B
S11310F02542A3F8FE23704700E00140024B93F819
S11311004000C009704700BF00E00140024B93F863
S1131110410000F00100704700E00140114A92F8DC
S1131120410010F0010001D100207047B2F8FE33F5
S11311309BB243F4254343F00103A2F8FE3392F833
S1131140413023F0010382F84130B2F8FE3323F436
S1131150145323F001035B045B0C43F42543A2F80E
S1131160FE33704700E001400E4AB2F8FE339BB2F2
S113117043F4254343F00103A2F8FE3392F83030E0
S113118000F0010023F00103184382F83000B2F8A4
S1131190FE3345F6FE210B4043F42543A2F8FE330B
S11311A0704700BF00E001400C4AB2F8FE339BB226
S11311B043F4254343F00103A2F8FE3392F852307E
S11311C043F0010382F85230B2F8FE3345F6FE21B3
S11311D00B4043F42543A2F8FE33704700E001407E
S11311E00C4AB2F8FE339BB243F4254343F00103A7
S11311F0A2F8FE3392F8523023F0010382F8523001
S1131200B2F8FE3345F6FE210B4043F42543A2F821
S1131210FE33704700E00140164BB3F8FE2392B250
S113122042F4254242F00102A3F8FE2393F83E2043
S113123002F07F0283F83E2093F83E2001F007017C
S113124022F0700242EA011283F83E2093F83E2015
S113125000F0070022F00702104383F83E00B3F8C1
S1131260FE2345F6FE210A4042F42542A3F8FE235C
S1131270704700BF00E001400C4AB2F8FE339BB255
S113128043F4254343F00103A2F8FE3392F83E30C1
S113129063F07F0382F83E30B2F8FE3345F6FE2158
S11312A00B4043F42543A2F8FE33704700E00140AD
S11312B00C4AB2F8FE339BB243F4254343F00103D6
S11312C0A2F8FE3392F83E3003F07F0382F83E30FA
S11312D0B2F8FE3345F6FE210B4043F42543A2F851
S11312E0FE33704700E001400C4AB2F8FE339BB273
S11312F043F4254343F00103A2F8FE3392F853303C
S113130043F0010382F85330B2F8FE3345F6FE2170
S11313100B4043F42543A2F8FE33704700E001403C
S11313200C4AB2F8FE339BB243F4254343F0010365
S1131330A2F8FE3392F8533023F0010382F85330BD
S1131340B2F8FE3345F6FE210B4043F42543A2F8E0
S1131350FE33704700E001400E4AB2F8FE339BB200
S113136043F4254343F00103A2F8FE3392F82430FA
S113137000F0070023F0700343EA001382F82430DE
S1131380B2F8FE3345F6FE210B4043F42543A2F8A0
S1131390FE33704700E001400B4B01380022B0F1EE
S11313A0807F19681A600CD210B4084C5860F02081
S11313B084F82300072101209A6019605DF8044B2A
S11313C0704719601046704710E000E000ED00E03F
S11313D00C4B1A7902F00E0242F0F0021A711A7ADA
S11313E000F0010022F0040242EA80021A721A7A22
S11313F022F0080242EAC00018721A7942F0F1029F
S11314001A71704700200040094B1A7942F0F1022A
S11314101A711A7A00F0010022F0100242EA001256
S11314201A721A7902F00E0242F0F0021A71704731
S113143000200040054A92F81C3100F0070023F018
S11314400703184382F81C01704700BF00C0014025
S1131450024B93F81C0100F00700704700C00140E4
S1131460002070470020704700207047024B1B6823
S113147003600020704700BF4827000038B50C46C1
S11314800546FFF7A1FC28702046FFF76BFD0020FE
S113149038BD00BF70B500240C600D460646FFF74A
S11314A08DFC10B90324204670BD3046FFF7C8FDFB
S11314B02860204670BD00BF10B5FFF727FE68B155
S11314C0FFF782FC0446FFF7A7FC052C04D0032C8D
S11314D004D140F2971010BD0328FAD0FFF71EFE86
S11314E0002010BD08B5FFF73FFE002008BD00BF77
S11314F008B5FFF759FE002008BD00BF08B5FFF787
S11315006FFE002008BD00BF08B5FFF785FE002070
S113151008BD00BF08B5FFF7AFFE002008BD00BF3F
S113152008B5FFF7C5FE002008BD00BF08B5FFF7EA
S1131530DBFE002008BD00BF08B5FFF7F1FE002068
S113154008BD00BF08B5FFF707FF002008BD00BFB6
S113155000B583B04FF6FF730193FFF755FA0420EB
S1131560FFF736FB04E0019B3BB1019B013B019378
S11315700420FFF799FB0028F5D1019B23B94FF410
S1131580CD7003B05DF804FB05210420FFF7C8FB10
S11315900020FFF7ADFA002003B05DF804FB00BFA4
S11315A010B50446FFF704FC08B9032010BD631E00
S11315B0012B0FD9042C0DD02CB1032C03D0052CF6
S11315C001D0002010BD2046FFF76EFB68B94FF430
S11315D0C87010BD2046FFF767FB40F29113002846
S11315E014BF18464FF4C87010BD2046FFF740FBE7
S11315F040F2931300280CBF18464FF4C97010BD75
S113160070B582B00E460546FFF7D2FB10B9032031
S113161002B070BD052D28460FD0FFF745FB18B169
S113162040F2911002B070BD6A1E012A4ED9042DF9
S113163025D0BDB1032D3AD0EAE7FFF735FBC8B991
S1131640B6B1FFF7C1FB0528EAD03046FFF7AAFC84
S11316500028DCD03078FFF727FB00283BD14FF47B
S1131660CA70D5E7FFF704FB80B340F29310CFE7CD
S11316700120CDE7FFF7E2F940F29110C8E72846D0
S1131680FFF756FA4FF6FF73019304E0019B3BB159
S1131690019B013B01930420FFF706FB0028F5D0D2
S11316A0019B002B0CBF4FF4CD700020B0E72846FF
S11316B0FFF7DEFA04460028D7D1FFF7F9F92046F0
S11316C0FFF736FB28460921FFF752FB2846FFF7B0
S11316D02FFA00209CE72846FFF7CAFA04460028A0
S11316E0C3D13078FFF7A2FB7078FFF7E9FB96EDE2
S11316F0010AFFF7BFFBFFF7A1F92846FFF718FA25
S1131700204685E710B582B00446FFF751FB10B9B7
S1131710032002B010BDFFF757FB844216D0052802
S113172010D0012C15D02046FFF7BEFA40B1022C90
S113173039D0042C1AD094B1032C10D0052C0ED01F
S11317400020E6E7FFF768FBA042EAD140F29110DF
S1131750DFE7FFF7D3FC08B340F29510D9E7204642
S1131760FFF786FAF8B940F29310D2E72046FFF764
S11317702FFA4FF6FF73019304E0019B3BB1019BE9
S1131780013B01930420FFF78FFA0028F5D1019B58
S1131790002B0CBF4FF4CD700020BAE72046FFF7B2
S11317A083FA0028CCD02046FFF712FAC8E700BF1E
S11317B070B50C460546FFF7FBFA08B9032070BD67
S11317C0002C3BD0A17963798B42F7D363788B42A9
S11317D0F4D323788B42F1D323798B42EED328467A
S11317E0FFF740FC284B9842064631D80020FFF70B
S11317F0EFFD0020FFF708FE244B9E4231D8FFF78F
S113180027FE0026FFF7E0FA854207D0C5B1032D75
S113181016D0052D14D02846FFF7DEFA2046FFF730
S113182071FB00F0D1F81A4B1860FFF711FE8642E5
S113183024D03046FFF7FEFD002070BD012070BDAE
S11318402846FFF715FA0028E5D14FF4C97070BD9A
S11318500120FFF7BDFD0F4B9E4211D90120FFF778
S1131860D3FD0D4B9E4294BF01260226FFF7F0FDE7
S11318708642C7D93046FFF7DDFDC3E7002070BDBF
S11318800020FFF7C1FDECE7FF0D2707FFB3C404F9
S11318902C05FE1FFFC1EB0BFF67890900B583B060
S11318A071B148B10146012000F0AAF8FFF7E2FB4C
S11318B0002003B05DF804FB012003B05DF804FBD5
S11318C0FFF724FC20B14FF4CB7003B05DF804FBA8
S11318D00190FFF7F1FB0198EBE700BF08B9032083
S11318E0704738B50D46044600F06EF807EE900ACE
S11318F0F8EE676AF7EE007AC7EEA66A07EE905A2A
S113190007EE104AF8EE677AB8EE477A66EEA77AE1
S1131910C7EE277AFCEEE77A17EE900AFFF73CFD54
S113192000280CBF1220002038BD00BF70B5234D25
S113193082B02B68984700216E680320B0470121CC
S11319401F4AAC698DF80110032301928DF8003011
S11319500320A047B0F5C97FFAD169460520B047F6
S1131960184A92F8003143F0010382F8003105204F
S1131970A047B0F5C97FFAD10022012402236946A9
S11319808DF806208DF801308DF802308DF8053081
S11319908DF80040EB688DF803408DF80440052075
S11319A098472B6D042098476B6A20469847AB6A8A
S11319B09847AB6C984702B070BD00BFEC2600009E
S11319C00000A04100C0014000B583B002A900237B
S11319D041F8043D034B06205B699847019803B026
S11319E05DF804FBEC260000044B002103F13002F7
S11319F043F8041B9342FBD1704700BF7004FE1FE1
S1131A00024B43F820100020704700BF7004FE1FF3
S1131A1008B57A4BB3F84031D90700F1C180774B50
S1131A20B3F840319A0700F1B080744BB3F84031F9
S1131A305B0700F19F80714BB3F84031180700F148
S1131A408E806E4BB3F84031D9067CD46B4BB3F81F
S1131A504001C0F38010002869D1684BB3F84031CD
S1131A601A0658D4654BB3F84031DB0547D4634BB1
S1131A70B3F84031980536D4604BB3F8403159057A
S1131A8024D45E4BB3F840311A0512D45B4BB3F83F
S1131A904031DB0400D408BD594BDB6A002B40F015
S1131AA0AA80564AB2F8303143F48053A2F8303158
S1131AB008BD534B9B6A002B40F09A804F4AB2F802
S1131AC0303143F40063A2F83031DFE74C4B5B6AFA
S1131AD0002B40F08A80494AB2F8303143F48063E5
S1131AE0A2F83031CDE7464B1B6A002B7AD1434A2A
S1131AF0B2F8303143F40073A2F83031BCE7404B04
S1131B00DB69002B6BD13D4AB2F8303143F480736A
S1131B10A2F83031ABE73A4B1B68002B5CD1374A53
S1131B20B2F8303143F08003A2F830319AE7344BF5
S1131B305B68002B4ED1314AB2F8303143F0400398
S1131B40A2F8303189E72E4B9B69002B3FD12B4AF9
S1131B50B2F8303143F01003A2F8303176E7284B65
S1131B605B698BBB254AB2F8303143F00803A2F815
S1131B70303166E7224B1B691BBB204AB2F8303177
S1131B8043F00403A2F8303155E71D4B9B68ABB911
S1131B901A4AB2F8303143F00203A2F8303144E774
S1131BA0174BDB683BB9154AB2F8303143F00103F7
S1131BB0A2F8303133E703209847F4E7022098472E
S1131BC0E6E704209847D8E705209847CAE70620A7
S1131BD09847BCE79847AEE7002098479FE707205F
S1131BE0984790E70820984781E70920984772E7CB
S1131BF00A20984762E70B20984752E700600040AC
S1131C007004FE1F704700BF044B002103F17802EB
S1131C1003F8011F9342FBD1704700BF9F04FE1FCE
S1131C200E4B33F8102092B22AB133F81020013A47
S1131C3092B223F8102033F810309BB263B9084AEB
S1131C400849B2F8FE3331F810109BB243F425432F
S1131C5023EA0103A2F8FE33704700BF1805FE1FF4
S1131C6000E001404C270000104A32F810309BB2CB
S1131C70ABB910B40E4C0F49B4F8FE3331F8101060
S1131C809BB243F425430B43A4F8FE3332F81030DF
S1131C905DF8044B01339BB222F81030704732F8E0
S1131CA0103001339BB222F8103070471805FE1F24
S1131CB000E001404C270000024B00221A805A80A9
S1131CC09A8070471805FE1FF8B50788AFB34168BE
S1131CD01B4C002601EBC70E4FF0010C37468888D9
S1131CE0002334F81320824216D00133032BF8D199
S1131CF008317145F3D1F643F6B20120FFF7B4FF82
S1131D00104A92F8BB341F433E4082F8BB64012062
S1131D10BDE8F840FFF784BF0A6802F0B852B2F198
S1131D20807F05D00CFA03F546EA0502D6B2DCE75B
S1131D300CFA03F21743FFB2D7E7FF26DDE700BF33
S1131D405427000000E00140A0F101000028FBD16D
S1131D50704700BF38B50D4601FB00F4FFF734FEB1
S1131D60B0F5004F01D8012D19D00F4AB2FBF0F0A5
S1131D70844208D24FF47A7202FB04F3B3FBF0F00E
S1131D80800808D138BD4FF47A72B4FBF0F002FB3E
S1131D9000F08008F6D0BDE83840FFF7D5BF2846EC
S1131DA0BDE83840FFF7D0BF00CA9A3BFEE700BF4A
S1131DB008B500F005F800F03DF9FEE7704700BFF4
S1131DC0204A08B5D2F8883043F47003C2F888304A
S1131DD00020FFF7F3FFFFF707FEFFF7A7FDFFF76C
S1131DE06BFFFEF72FFC184B18481B689847184ADE
S1131DF0184B9B1A05D01344002103F8011D9A4285
S1131E00FBD11548154BC01A07D0154A184412F8CF
S1131E10011B03F8011B8342F9D1FFF7D5FD114BD8
S1131E2018600120FFF7CAFFFFF7EEFEFFF7EAFE96
S1131E300D4B0E481B6898470020BDE8084000F091
S1131E4017B800BF00ED00E07C26000070270000FA
S1131E505004FE1F3005FE1F3804FE1F0000FE1F45
S1131E60742B00002C05FE1FB42600005C27000024
S1131E7000F044B882B04FF0C84300210091009AAA
S1131E801A7D61F300021A751A8DD0B1202161F315
S1131E900F221A851A8D4FF0C04142F080021A8534
S1131EA00A68009240F6FF721946019204E0019B11
S1131EB0013B0193019A12B18A6A5206F7D502B026
S1131EC070474FF0C04142F47F421A850A6800927D
S1131ED01A8D60F3C7121A850A68009240F6FF71E2
S1131EE01A46019105E0019B013B0193019B002BE4
S1131EF0E5D0936A5B06F6D402B07047F8B5494A58
S1131F0013684FF0C84423F040031360237A6FF33F
S1131F1004032372237DFF2243F00103237522610E
S1131F20237D662243F0010323752261237D9922D8
S1131F3043F0010323752261237D43F001032375DC
S1131F4001212320FFF706FF9F232361364B2269DB
S1131F501A7022695A702169227D997042F0010237
S1131F6022751A78EF2A04D000221A705A709A70D7
S1131F70F8BD5A78402AF7D19A78172AF4D1052067
S1131F8020612A4923690B70227D294B42F001020A
S1131F9035262275266122691A70227D42F00102DB
S1131FA02275228D042565F30302228522795027A8
S1131FB065F3030222712761227D42F0010222753A
S1131FC01A78012742F002021A7027610A78226106
S1131FD01A782261227D3A4322752561227D3A4393
S1131FE02275228860F302022280206122690A702D
S1131FF0227D3A432275266122691A70237D3B4370
S11320002375238843F040032380A369DB074FF043
S1132010C845FAD40120FFF72DFF2B7D6FF3000391
S11320202B75F8BD007004402005FE1F2405FE1F1B
S11320302805FE1F08B500F003F8002008BD00BF06
S1132040134B70B55E6801252946F3694FF4C060EF
S113205098472946F36940F2016098472946F36995
S113206040F20260984785F00105002401342046BF
S113207000F062F904A3D3E9002300F023FA002856
S1132080F4D1E1E7AFF300800000000080842E412A
S11320906827000081F0004102E000BF83F00043A4
S11320A030B54FEA41044FEA430594EA050F08BFEF
S11320B090EA020F1FBF54EA000C55EA020C7FEAB3
S11320C0645C7FEA655C00F0E2804FEA5454D4EB30
S11320D05555B8BF6D420CDD2C4480EA020281EAFA
S11320E0030382EA000083EA010180EA020281EA32
S11320F00303362D88BF30BD11F0004F4FEA013184
S11321004FF4801C4CEA113102D0404261EB410192
S113211013F0004F4FEA03334CEA133302D0524218
S113212063EB430394EA050F00F0A780A4F10104D4
S1132130D5F1200E0DDB02FA0EFC22FA05F280180E
S113214041F1000103FA0EF2801843FA05F35941F4
S11321500EE0A5F120050EF1200E012A03FA0EFC73
S113216028BF4CF0020C43FA05F3C01851EBE3719D
S113217001F0004507D54FF0000EDCF1000C7EEBBA
S113218000006EEB0101B1F5801F1BD3B1F5001FF8
S11321900CD349085FEA30004FEA3C0C04F1010417
S11321A04FEA445212F5800F80F09A80BCF1004F40
S11321B008BF5FEA500C50F1000041EB045141EAC2
S11321C0050130BD5FEA4C0C404141EB010111F4C3
S11321D0801FA4F10104E9D191F0000F04BF01466E
S11321E00020B1FA81F308BF2033A3F10B03B3F14C
S11321F020020CDA0C3208DD02F1140CC2F10C02DC
S113220001FA0CF021FA02F10CE002F11402D8BF39
S1132210C2F1200C01FA02F120FA0CFCDCBF41EA05
S11322200C019040E41AA2BF01EB0451294330BDD4
S11322306FEA04041F3C1CDA0C340EDC04F11404B1
S1132240C4F1200220FA04F001FA02F340EA030088
S113225021FA04F345EA030130BDC4F10C04C4F1CE
S1132260200220FA02F001FA04F340EA03002946AE
S113227030BD21FA04F0294630BD94F0000F83F4F8
S1132280801306BF81F480110134013D4EE77FEADB
S1132290645C18BF7FEA655C29D094EA050F08BF27
S11322A090EA020F05D054EA000C04BF1946104608
S11322B030BD91EA030F1EBF0021002030BD5FEA4C
S11322C0545C05D14000494128BF41F0004130BD74
S11322D014F580043CBF01F5801130BD01F00045C8
S11322E045F0FE4141F470014FF0000030BD7FEA3B
S11322F0645C1ABF194610467FEA655C1CBF0B4636
S1132300024650EA013406BF52EA033591EA030F4C
S113231041F4002130BD00BF90F0000F04BF002144
S1132320704730B54FF4806404F132044FF0000577
S11323304FF0000150E700BF90F0000F04BF0021F0
S1132340704730B54FF4806404F1320410F0004556
S113235048BF40424FF000013EE700BF42004FEA51
S1132360E2014FEA31014FEA02701FBF12F07F43CE
S113237093F07F4F81F06051704792F0000F14BFCB
S113238093F07F4F704730B54FF4607401F000450F
S113239021F0004120E700BF50EA010208BF704766
S11323A030B54FF000050AE050EA010208BF70475B
S11323B030B511F0004502D5404261EB41014FF4C4
S11323C0806404F132045FEA915C3FF4DCAE4FF0C8
S11323D003025FEADC0C18BF03325FEADC0C18BFAF
S11323E0033202EBDC02C2F1200300FA03FC20FA00
S11323F002F001FA03FE40EA0E0021FA02F114444D
S1132400C1E600BF4FF0FF3C06E000BF4FF0010CF7
S113241002E000BF4FF0010C4DF804CD4FEA410C2F
S11324207FEA6C5C4FEA430C18BF7FEA6C5C1BD0FC
S113243001B050EA410C0CBF52EA430C91EA030F7D
S113244002BF90EA020F0020704710F1000F91EADA
S1132450030F58BF994208BF90422CBFD8176FEAA8
S1132460E37040F0010070474FEA410C7FEA6C5C76
S113247002D150EA013C07D14FEA430C7FEA6C5C7D
S1132480D6D152EA033CD3D05DF8040B704700BFA9
S11324908446104662468C461946634600E000BFF7
S11324A001B5FFF7B7FF002848BF10F1000F01BDC9
S11324B04DF808EDFFF7F4FF0CBF012000205DF894
S11324C008FB00BF4DF808EDFFF7EAFF34BF012019
S11324D000205DF808FB00BF4DF808EDFFF7E0FFB2
S11324E094BF012000205DF808FB00BF4DF808ED03
S11324F0FFF7CEFF94BF012000205DF808FB00BF6A
S11325004DF808EDFFF7C4FF34BF012000205DF84B
S113251008FB00BF024B13B1024800F005B8704736
S11325200000000035250000014600200246034655
S113253000F016B838B5084B084DED1AAC1018BFAA
S1132540ED1805D0013C55F8043D9847002CF9D10D
S1132550BDE8384000F08CB83004FE1F3404FE1F80
S11325602DE9F047254C2568D5F8484106468846AC
S113257092469946CCB360681F2818DC431C7EB190
S113258004EB80050121C5F888A0D4F8887101FA0C
S113259000F21743022EC4F88871C5F808911ED0C2
S11325A00230636044F820800020BDE8F087144BBB
S11325B003B34FF4C870AFF300800446D0B1D5F82C
S11325C04831002780E88800C5F84841384601238F
S11325D0C4F88871C4F88C71002EE1D0D0E7D4F827
S11325E08C110A43C4F88C21DAE705F5A674C5F802
S11325F04841C0E74FF0FF30BDE8F0876C2B000086
S1132600000000004275696C742077697468205278
S1132610656E657361732053796E657267792028DE
S1132620544D2920536F667477617265205061633D
S11326306B6167652076657273696F6E20312E3128
S11326402E302B6275696C642E30326333663862C7
S11326506134323234000000312E312E300000005B
S113266000000101F8B500BFF8BC08BC9E467047E5
S1132670F8B500BFF8BC08BC9E46704715070000BB
S1132680490700004108000085080000E108000037
S11326901509000085070000F1070000110800007B
S11326A061080000C1080000A9070000CD07000070
S11326B005070000B90900008D0900003109000078
S11326C04109000051090000650900007909000072
S11326D001010101010002000300FFFF00000100ED
S11326E00200FFFF0100010001000000511500007D
S11326F00116000005170000B11700007D1400004A
S113270095140000A11500009D180000B9140000E4
S1132710E5140000F1140000FD1400000915000088
S11327201515000021150000611400006514000057
S1132730691400002D15000039150000451500002E
S1132740DD1800006D140000010101010100020008
S11327500800FFFF020403040404FFFF010000005B
S11327600000000000000000000000007C260000C3
S11327707E000000782700000080000000000000B8
S11327800080000001000000008000000200000042
S113279000000000030000000040000004000000EE
S11327A0004000000500000000400000060000009A
S11327B00000000007000000008000000800000086
S11327C00080000009000000004000000A00000032
S11327D0008000000E000000008000000F000000D8
S11327E000040106000100000004010601010000CC
S11327F000040106020100000004010603010000B8
S113280000040104040100000004010405010000A7
S1132810000C01040601000004040000070100008C
S1132820000001000801000000000100090100008F
S1132830000001000A010000004000000B0100003C
S1132840000000000C010000040400000D01000061
S1132850000000000E010000000000000F01000055
S1132860000000000002000000000000010200005F
S1132870000C01040202000000000000030200003A
S11328800000010C040200000000010C050200001D
S11328900000010C060200000000010C0702000009
S11328A0000000000C020000000000000D02000007
S11328B00000010000030000000401040103000003
S11328C000040104020300000000000003030000F0
S11328D000040104040300000004010405030000D3
S11328E0000C0104060300000404000007030000B8
S11328F000000000080300000404000009030000B5
S1132900000000000A030000000000000B030000A8
S1132910000000000C030000000401190D03000076
S1132920000401190E030000000401190F03000044
S11329300040000000040000000001100104000039
S11329400000011002040000000401170304000049
S11329500004011704040000000C01170504000022
S1132960000C011706040000000001130704000016
S11329700000010C080400000000010C0904000020
S1132980000401040A040000000401040B04000014
S1132990000C01040C040000040400000D040000F9
S11329A00000010C0E0400000000010C0F040000E4
S11329B0000C011100050000000C011101050000CC
S11329C0000C011102050000000C011103050000B8
S11329D0000C011104050000000C011105050000A4
S11329E000000000060500000000000007050000CC
S11329F0000000000B050000000000000C050000B2
S1132A00000000000D0500000404000000060000A2
S1132A100404000001060000040400000206000093
S1132A20000000000306000000000000040600008F
S1132A30000000000506000000040119060600005D
S1132A400004011907060000000000000806000049
S1132A500000000009060000000000000A06000053
S1132A60000000000B060000000000000C0600003F
S1132A70000000000D060000000000000E0600002B
S1132A80000401190F060000000C011700070000E4
S1132A90000C011701070000000C011702070000D9
S1132AA0000C011703070000000C011704070000C5
S1132AB0000C0117050700000004010506070000CB
S1132AC000040105070700000404000000080000DA
S1132AD004040000010800000004011902080000B9
S1132AE0000401190308000000040119040800008F
S1132AF000000000050800000404000006080000AF
S1132B00000C01190009000000040119010900006A
S1132B100004011905090000000401190609000058
S1132B200004011907090000000401190809000044
S1132B3000040119000A000000040119010A000040
S1132B4000040119080A000000040119090A000020
S1132B50000401190A0A000000000114000B00001F
S1132B6000000114010B0000430000000000FE1FE0
S1072B70000000005D
S1132B7400000000EC02FE1F5403FE1FBC03FE1FF2
S1132B84000000000000000000000000000000003D
S1132B94000000000000000000000000000000002D
S1132BA400000000682B000000000000000000008A
S1132BB4000000000000000000000000000000000D
S1132BC400000000000000000000000000000000FD
S1132BD400000000000000000000000000000000ED
S1132BE400000000000000000000000000000000DD
S1132BF400000000000000000000000000000000CD
S1132C0400000000000000000000000000000000BC
S1132C1400000000000000000100000000000000AB
S1132C240E33CDAB34126DE6ECDE05000B00000070
S1132C34000000000000000000000000000000008C
S1132C44000000000000000000000000000000007C
S1132C54000000000000000000000000000000006C
S1132C64000000000000000000000000000000005C
S1132F9400000000000000001525000025050000C5
S10B2FA401050000000000001B
S9031DB12E
