S022000053375F534B5F67785F696E7075745F64656D6F5F315F305F30672E7372656395
S214000000F0E70420D9FD0000BDF80000D5FD000093
S214000010D5FD0000D5FD0000D5FD00000000000065
S214000020000000000000000000000000D5FD0000F9
S214000030D5FD000000000000891F02005D200200C0
S214000040CDC6000005C70000A5F70000D5FD0000DE
S214000050D5FD0000A9BD000069BD000035BE00004A
S214000060E9BD0000C9DD000011DE00005D9700005C
S214000070B9BE000095C000000000000000000000AF
S214000080000000000000000000000000000000006B
S214000090000000000000000000000000000000005B
S2140000A0000000000000000000000000000000004B
S2140000B0000000000000000000000000000000003B
S214000400FFFFFFFFFFF9FFFFFCFFFFFFFFFFFFFF00
S214000410FCFFFFFFFFFFFFFFFCFFFF00FFFFFF00EB
S214000420FCFFFFFFFFFFFFFFFCFF7F40FFFF7F405B
S214000430FCFF7F40FFFF7F40FFFFFFFFFFFFFFFF48
S214000440FFFFFFFFFFFFFFFFFFFFFFFFFFFFFFFFB7
S214000450FFFFFFFFFFFFFFFFFFFFFFFFFFFFFFFFA7
S214000460FFFFFFFFFFFFFFFFFFFFFFFFFFFFFFFF97
S214000470FFFFFFFFFFFFFFFFFFFFFFFFFFFFFFFF87
S214000480FFFFFFFFFFFFFFFFFFFFFFFFFFFFFFFF77
S214000490FFFFFFFFFFFFFFFFFFFFFFFFFFFFFFFF67
S2140004A0FFFFFFFFFFFFFFFFFFFFFFFFFFFFFFFF57
S2140004B0FFFFFFFFFFFFFFFFFFFFFFFFFFFFFFFF47
S2140004C0FFFFFFFFFFFFFFFFFFFFFFFFFFFFFFFF37
S2140004D0FFFFFFFFFFFFFFFFFFFFFFFFFFFFFFFF27
S2140004E0FFFFFFFFFFFFFFFFFFFFFFFFFFFFFFFF17
S2140004F0FFFFFFFFFFFFFFFFFFFFFFFFFFFFFFFF07
S21400050010B5054C237833B9044B13B10448AFF348
S21400051000800123237010BD8006FE1F000000002F
S214000520D8D00400084B10B51BB108480849AFF3F3
S21400053000800848036803B910BD074B002BFBD0AA
S214000540BDE81040184700BF00000000D8D00400E7
S2140005508406FE1F4C06FE1F0000000030B4039CFD
S214000560E50609D5D0F880502D0205D4092380F879
S214000570C63130BC18467047A5061BD424F030059B
S2140005800D3D022D07D8D0F8805015F4803F02D1DB
S214000590EDB2092DEAD9456AC5F87031029BC5F857
S2140005A068110020C5F86C21C5F87431C5F878418B
S2140005B030BC7047D0F88050AD02D7D5DEE700BF1C
S2140005C02DE9F04F446A056B91B00646D4F87801E1
S2140005D0DDF87CB0BDF868900F46D4F86C110A912F
S2140005E09A4600F0100308930A9BBDF96C10099117
S2140005F0B3F5006FD4F87031BDF9701007919046CE
S21400060007EB0A02A8BF2BF0080B9A42C4BFCAEB3E
S21400061003030D93D4F87431BDF97410D8BF0D9749
S21400062008EB09029A420B91C8BFC9EB0303BDF958
S21400063078100C91CCBF0E93CDF838801DB11BF40A
S214000640807300F0F680E37D0A930321304601F0C4
S2140006501FFB002130460A4607F048FA089B002B8D
S21400066000F08780D4F868310D930BF00F01304608
S21400067007F0B2FDD4F87411D4F86C21D4F87031B8
S2140006800091D4F87811019130460D9907F014FCCA
S2140006901BF0200F40F0B9804FF07F431BF0100F87
S2140006A0194600F0C0801BF0400F40F02C81A26875
S2140006B0134394F80E21C4F85811BDF82410C4F85A
S2140006C05C3142F00502102984F80E2140F20F81B9
S2140006D0079A102A4FEA075EBEFBF1FE4FEA6E034A
S2140006E040F30D814FEA0851B1FBF2F14A101BF4BA
S2140006F0007F1CBFC3EB0743CEF1000E1BF4806FD8
S2140007001CBFC2EB0842494208981BF0040F18BFF2
S214000710A3F500431BF0080F18BFA2F5004218B15E
S21400072003EB0A4302EB0942DDF82C800C9F049190
S21400073000208DE804400290039041463A46304639
S21400074007F0AEF9099900910799019142463B4698
S2140007503046214600F0AEFD1DB11BF4807000F05F
S214000760D78030460A9901F093FA002011B0BDE810
S214000770F08FD4F8783123F03003422B00F26481F6
S214000780DFE813F02C0146015001460146015A01EC
S2140007905001460146012C012C012C012C012C0194
S2140007A02C012C0162016201620162016201620198
S2140007B0620162016201620162016201620162011C
S2140007C0620162016201620162016201620162010C
S2140007D062016201620162016201620162016201FC
S2140007E062016201620162016201620162016201EC
S2140007F062016201620162016201620162016201DC
S214000800620162015001460146010BF08003002B95
S21400081015BF00234FF07F434FF07F4100211BF0B0
S214000820100F7FF440AF1BF0400F6CD163F07F4396
S2140008303FE7E27D2A7094F80E21AA7094F8D5203E
S2140008406A70D4F8FC20D4F800116A60D4F82C2121
S214000850EA60A96094F8E92085F82920D4F83811D0
S214000860D4F834216A61296194F8E82085F82820B4
S214000870D4F8EC10D4F8F020A961D4F8F410EA61AA
S214000880D4F8F8206A62296294F8EA2085F82A20CB
S21400089094F8EB2085F82B20D4F83C21EA62D4F8B3
S2140008A04011D4F824212963D4F858116A63D4F887
S2140008B05C21A963B4F8A810EA63B4F8AA20A5F8E6
S2140008C05410D4F8A010A5F85620D4F8A420E96453
S2140008D0D4F898102A65D4F89C206964D4F8B0102F
S2140008E0AA64D4F8B4200A93E9652A66ADE6079AA6
S2140008F0102A4FF000034FF4803E3FF7F3AE00227D
S2140009004FF48031F3E6A068E26801431343D0E673
S2140009102B78E375AB7884F80E316B7884F8D53095
S214000920291D0EC9C4F8FC10C4F80021C4F82C31E7
S21400093095F8293084F8E9302A696B69C4F83431AF
S214000940C4F8382195F8283084F8E83005F11C0101
S2140009500EC9AE69C4F8EC60C4F8F010C4F8F42010
S214000960C4F8F83095F82A3084F8EA3095F82B3039
S21400097084F8EB30EB6AC4F83C312B6BC4F840319A
S2140009802B6D07936B6C6F6BAE6BE96BB5F8548091
S214000990B5F856E0EA6CC4F89830AB6CC4F89C30F6
S2140009A0EB6DC4F8B0302D6E079BC4F82471C4F804
S2140009B05861C4F85C11A4F8A880A4F8AAE0C4F8AA
S2140009C0A020C4F8A430C4F8B45011B0BDE8F08F2D
S2140009D01F4BC4F82C31012384F8E930D4F86C316D
S2140009E0D4F8682103FB09A3D3180F930BF00F016B
S2140009F0304607F0F1FB0E9BD4F86C210093D4F838
S214000A00783101930F990D9B304607F055FA3FE673
S214000A10D4F86C31D4F8682103FB09A302EB430336
S214000A200F93E3E7D4F86C31D4F8682103FB09A3ED
S214000A3002EB83030F93D9E7D6F880309B02C7D426
S214000A40092086F8C60191E600230F93CEE700BF83
S214000A50100004002DE9F04385B091469846BDF994
S214000A603020BDF93430A9F11005A8F11006154460
S214000A701E44ADB2B6B205F10F0306F10F0424F022
S214000A800F040F4623F00F0329F00F0E28F00F0275
S214000A9002A9ADF80E40ADF80C30ADF808E0ADF8A0
S214000AA00A20044608F03AFB10B905B0BDE8F0830A
S214000AB02046394606F02EFA97F8D5108807ADB2CC
S214000AC0B6B27ED549EA050248EA0603C90702F02F
S214000AD00F0203F00F0300F11281002A40F0A280FB
S214000AE0002B71D0BDF90A20D4F8BC31D4F8B80177
S214000AF0C8EB0202013B120302F5803200F1080146
S214000B000425002BC4F8B81142600560C4F8BC3157
S214000B1040F36183013B002001F108020A2583426D
S214000B20C4F8B8210D604860C4F8BC3140F34A836D
S214000B30013B02F1080010254FF48031002BC4F869
S214000B40B80115605160C4F8BC3140F33283BDF97A
S214000B500A2036B2B21A013B120302F5803200F1C7
S214000B6008010525002BC4F8B81142600560C4F8DA
S214000B70BC3140F31583013B002001F108020B2530
S214000B808342C4F8B8210D604860C4F8BC3140F315
S214000B90FE82013BCB4902F108051120002BC4F868
S214000BA0B85182E80300C4F8BC3140F3A3800323A5
S214000BB000932046394602AA022302F02DFF05467E
S214000BC00AE0CB0700F19B800023009320463946BD
S214000BD002AA02F021FF05462046394602AA002353
S214000BE005F0B0FC2046394602AA002307F026FB93
S214000BF0D4F8BC31D4F8B8210021013B02F108003A
S214000C008B42C4F8B80182E82200C4F8BC3140F335
S214000C105481204602A9002206F088FC012005B077
S214000C20BDE8F083BDF90820D4F8B801002B40F0E9
S214000C304B81D4F8BC31C9EB0202013B120302F52A
S214000C40803200F108010426002BC4F8B811426077
S214000C500660C4F8BC3140F36D82013B01F1080226
S214000C600A264FF48030002BC4F8B8210E60486086
S214000C70C4F8BC3140F37082013B002102F1080049
S214000C8010268B42C4F8B80116605160C4F8BC3117
S214000C9040F35982BDF908202DB2AA1A013B12036F
S214000CA002F5803200F108010525002BC4F8B811C2
S214000CB042600560C4F8BC3140F36082013B814865
S214000CC001F108020B25002BC4F8B8210D6048601E
S214000CD0C4F8BC3140F34982013B002102F108050B
S214000CE011208B42C4F8B85182E80300C4F8BC3126
S214000CF03FF75DAFD4F8C0312046984757E7BDF9B7
S214000D000830D7F81011D4F8BC21D4F8B801C9EBD4
S214000D100303013A01FB03F301EB131300F1080E82
S214000D204FF0040C002AC4F8B8E14360C0F800C0D5
S214000D30C4F8BC2140F3A781013A0EF108030A204B
S214000D40002AC4F8B8318EE80300C4F8BC2140F38A
S214000D509181013A002103F1080E10208A42C4F85E
S214000D60B8E183E80300C4F8BC2140F3DA81BDF99A
S214000D700830D7F810112DB2EB1A013A01FB03F335
S214000D8001EB13130EF108000525002AC4F8B8017C
S214000D90CEF80430CEF80050C4F8BC2140F3B6813B
S214000DA0013A494200F108030B25002AC4F8B8317D
S214000DB041600560C4F8BC2140F39F81013A0021E0
S214000DC003F1080011258A42C4F8B8011D60596075
S214000DD0C4F8BC2140F38881BDF90A30D7F8101159
S214000DE0C8EB030801FB08F8531E062501EB181292
S214000DF0002B00F10801C4F8B81142600560C4F881
S214000E00BC3140F36881013B002001F108020C254B
S214000E108342C4F8B8210D604860C4F8BC3140F382
S214000E205181013BD7F8101102F108001225002B62
S214000E30C4F8B80151601560C4F8BC3140F337817E
S214000E40BDF90A2036B2B21A01FB02F2013B01EBF1
S214000E501212072500F10801002BC4F8B8114260F1
S214000E600560C4F8BC3140F31981013B002001F154
S214000E7008020D258342C4F8B8210D604860C4F806
S214000E80BC3140F3EE80D7F81011013B494202F125
S214000E9008051320002BC4F8B85182E80300C4F8F4
S214000EA0BC3140F3D9800F2300932046394602AA6E
S214000EB0042302F0B1FD05468EE6D4F8C031204684
S214000EC09847A6E60000FFFFD4F8BC31C9EB020243
S214000ED0013B120302F5803200F108014FF0040EC8
S214000EE0002BC4F8B8114260C0F800E0C4F8BC316A
S214000EF040F3D481013B01F108024FF00A0E4FF493
S214000F008030002BC4F8B821C1F800E04860C4F86F
S214000F10BC3140F3BA81013B002102F108004FF0DA
S214000F20100E8B42C4F8B801C2F800E05160C4F855
S214000F30BC3140F3A181BDF908202DB2AA1A013BAD
S214000F40120302F5803200F108010525002BC4F8D3
S214000F50B81142600560C4F8BC3140F38481013B9F
S214000F60D34801F108020B25002BC4F8B8210D6008
S214000F704860C4F8BC3140F36D81013B002102F1AA
S214000F80080011258B42C4F8B80115605160C4F8FA
S214000F90BC3140F35681BDF90A20C8EB0202013B82
S214000FA0120302F5803200F108010625002BC4F872
S214000FB0B81142600560C4F8BC3140F33981013B8A
S214000FC0002001F108020C258342C4F8B8210D6008
S214000FD04860C4F8BC3140F32281013B02F10800AE
S214000FE012254FF48031002BC4F8B801156051600B
S214000FF0C4F8BC3140F30A81BDF90A2036B2B21AF1
S214001000013B120302F5803200F108010725002B90
S214001010C4F8B81142600560C4F8BC3140F3ED80F6
S214001020013B002001F108020D258342C4F8B821D7
S2140010300D604860C4F8BC3140F3D680013B9C4943
S21400104002F108051320002BC4F8B85182E803000B
S214001050C4F8BC313FF727AFD4F8C03120469847D4
S21400106021E7D4F8C03120469847D4F8B821D4F800
S214001070BC3108E7D4F8C03120469847D4F8B831D8
S214001080D4F8BC2165E6D4F8C03120469847D4F899
S214001090B8E1D4F8BC21D7F810114DE6D4F8C03129
S2140010A020469847D4F8B811D4F8BC31DDE6D4F819
S2140010B0C03120469847D4F8B801D4F8BC31D7F8E8
S2140010C01011BDE6D4F8C03120469847D4F8B821B0
S2140010D0D4F8BC31A5E6D4F8C03120469847D4F8F9
S2140010E0B811D4F8BC318EE62046D4F8C031984703
S2140010F0D4F8B801D4F8BC216EE6D4F8C031204646
S2140011009847D4F8B831D4F8BC2157E62046D4F82E
S214001110C0319847D4F8B801D4F8BC21D7F81011DC
S2140011203EE6D4F8C03120469847D4F8B8E1D4F863
S214001130BC211CE6D4F8C03120469847D4F8B81134
S214001140D4F8BC3189E5D4F8C03120469847D4F8A5
S214001150B801D4F8BC319DE5D4F8C0312046984794
S214001160D4F8B821D4F8BC3186E5D4F8C03120468E
S2140011709847D4F8B821D4F8BC31ADE5D4F8C031DE
S21400118020469847D4F8B811D4F8BC3196E5D4F880
S214001190C03120469847D4F8B821D4F8BC31F8E4DA
S2140011A0D4F8C03120469847D4F8B811D4F8BC31EA
S2140011B0E1E4D4F8C03120469847D4F8B801D4F812
S2140011C0BC31C4E4D4F8C03120469847D4F8B821DE
S2140011D0D4F8BC31ACE4D4F8C03120469847D4F8F3
S2140011E0B811D4F8BC3195E4D4F8C03120469847FD
S2140011F0D4F8B821D4F8BC3120E7D4F8C031204662
S2140012009847D4F8B811D4F8BC3109E7D4F8C031FF
S21400121020469847D4F8B801D4F8BC31ECE6D4F8A8
S214001220C03120469847D4F8B821D4F8BC31D4E66B
S214001230D4F8C03120469847D4F8B811D4F8BC3159
S214001240BDE6D4F8C03120469847D4F8B801D4F8A3
S214001250BC31A0E6D4F8C03120469847D4F8B8216F
S214001260D4F8BC3189E6D4F8C03120469847D4F883
S214001270B811D4F8BC3172E6D4F8C031204698478D
S214001280D4F8B801D4F8BC3155E6D4F8C0312046BD
S2140012909847D4F8B821D4F8BC313CE6D4F8C0312D
S2140012A020469847D4F8B811D4F8BC3122E600BFDF
S2140012B00000FFFF30B4BDF90840BDF90C5034B152
S2140012C0002D04DD0294039530BCFFF7C3BB00205D
S2140012D030BC704770B582B0866ABDF918504BB105
S2140012E0002D07DD1C468DE8300013460A463146C1
S2140012F0FFF7B0FB002002B070BD00BFF0B583B0B2
S214001300C76AB0F86E60B0F87050BDF920E063B1FF
S214001310BEF1000F09DD1C460E4453191BB232B253
S2140013208DE810403946FFF795FB002003B0F0BD6E
S2140013302DE9F04F8146B0F86C008DB00FFA80F8BA
S214001340B8F1000F0C46BDF95870D9F82C1039DDED
S214001350B8F1100F1D4641D091F8D730012B35D08B
S214001360C8F34F03C3F57F40083B9BB2F83096B2F4
S21400137080B21F44A4B21D4406EB000E042225448E
S2140013803E4404440023ADB2A4B21FFA8EF7B6B2B0
S21400139000920292CDF8048048460393049308AA6C
S2140013A0ADF82450ADF82850ADF82040ADF82C40EC
S2140013B0ADF82270ADF82670ADF82A60ADF82E6054
S2140013C005F0A8F900200DB0BDE8F08FB1F9D830CF
S2140013D04345C5DD91F8D530DB07C1D480B2BFB236
S2140013E007EB400B96B20FFA8BFB331ABBF1000FDC
S2140013F09BB21FFA84FC19DDC0EB0C020FFA83FACD
S21400140012B28DE8000953464846CDF81CC0FFF7D7
S21400141021FBD9F82C10DDF81CC0E5B98DE80009D1
S214001420484622465346FFF715FBCBE7002DC9D0AA
S2140014301BB28DE8200148462246FFF70BFB3744D7
S214001440D9F82C10BBB28DE82001484622461BB2C4
S214001450FFF700FBB6E7224653468DE820014846D4
S214001460CDF81CC0FFF7F6FADDF81CC0D9F82C1032
S214001470CDF800800CEB0502534612B2CDF804B04E
S21400148048463744FFF7E6FABBB2D9F82C10DAE73D
S2140014902DE9F04182B00646BDF9205000958846F9
S2140014A01C461746FFF744FF304605F02DFC04F1B6
S2140014B0200080B2B16A78B120352DB2002D0BDD48
S2140014C000B2A8F11002A7F110038DE8210012B2B5
S2140014D01BB23046FFF7BEFA304605F01BFC002074
S2140014E002B0BDE8F08100BF2DE9F04383B0894625
S2140014F090460446C16AB0F86E20B0F87070BDF928
S21400150028601D46B3B1002E14DD4A4408EB0703DD
S21400151012B21BB28DE86000FFF79CFA204605F079
S214001520F3FBA16A4A468DE8600043462046FFF773
S21400153091FA02E0204605F0E7FB204605F0EAFBBC
S214001540002003B0BDE8F0832DE9F04F89B00446D3
S214001550BDF94C50BDF94860002D0F4690469A469E
S21400156040F34981C5F34F0293191FFA88F01FFA1A
S2140015708AF19BB200F10F0C01F10F0E12B2C01AE5
S2140015809C44C91A9E44B21A20F00F002CF00F0C8F
S21400159021F00F012EF00F0E082AADF81800ADF856
S2140015A01CC0ADF81A10ADF81EE04DDDB7F8DA3005
S2140015B019B2002950DDBDF81800B4F872E002B286
S2140015C0521A0FFA8EFC6245A4BFC01AADF8180076
S2140015D0BDF81A00B8BFADF818E0B4F874E002B26F
S2140015E0521A0FFA8EFC6245A8BFC01ABDF81C201E
S2140015F0A8BFADF81A00B4F87600B8BFADF81AE088
S21400160001FA82FC0FFA80FEF445D6BFD218ADF878
S2140016101C00ADF81C20B4F87800BDF81E200FFAA8
S21400162080FE894601FA82F17145CCBFADF81E00F6
S2140016309B1806A92046D8BFADF81E3007F06EFDF1
S21400164090B909B0BDE8F08F1EB2B7F8DA3019B21B
S21400165000294FF00005AEDC06A920464FF0000931
S21400166007F05CFD0028ECD0BDF81820BDF81A3055
S214001670C2EB0808C3EB0A0A2046394605F04AFCC6
S2140016800FFA88F80FFA8AFAD7F828B1002D00F07A
S214001690CE8005FB05F39E425ADD97F8D52012F062
S2140016A0010255D105F1100303EBD373591001362F
S2140016B00903012036B2434603920291049039464C
S2140016C020460196CDF800A00BF4007B00F0FCFB52
S2140016D04BF4004343F041030093394606AA022325
S2140016E0204602F099F9D4F8BC31D4F8B811013B81
S2140016F080462D0301F108021620002BC4F8B821FD
S21400170081E82100C4F8BC3140F3CC80013B0026C0
S21400171002F10801B342C4F8B81182E84001C4F8E7
S214001720BC3163DD00262046394606AA002304F0B5
S21400173009FF2046394606AA002306F07FFD20460C
S21400174006A9324605F0F2FE012009B0BDE8F08F8A
S21400175005EBD5756D10B6B2731900224FF001096E
S2140017601BB2019302920392204639464346CDF8B7
S21400177000A0CDF81090751B00F0A6FB2DB2504AC5
S2140017800292434602220195CDF80C90CDF81090B7
S214001790CDF800A02046394600F096FBD4F880200D
S2140017A00BF4206B52014BF0C50308D597F8D520F3
S2140017B012F0010F14BF4FF0807200221343009303
S2140017C0394606AA0423204602F026F9D4F8BC318E
S2140017D0D4F8B8210026013B02F10801B342C4F850
S2140017E0B81150601660C4F8BC319BDCD4F8C03128
S2140017F02046984797E792B29BB2B1B202F10F0E1D
S21400180003F10F008E44521A5B1A08442EF00F0E96
S21400181022F00F0220F00F0123F00F03ADF81CE0BA
S214001820ADF81820ADF81E10ADF81A30BEE601214E
S2140018302A4643460491CDF800A039460196029503
S2140018400395204600F040FBD4F880200BF400738C
S21400185043F44003510143F0410308D597F8D520DF
S21400186012F0010F14BF4FF0807200221343009352
S214001870394606AA0223204602F0CEF8D4F8BC3138
S214001880D4F8B8210021013B02F108058B42C4F8C8
S214001890B85150601160C4F8BC310CDD4E440F36B0
S2140018A0360940E7D4F8C03120469847D4F8B82126
S2140018B0D4F8BC312AE7D4F8C03120469847EDE783
S2140018C00080FFFF70B582B0866ABDF918400093AD
S2140018D00D46134631462A460194FFF735FE002092
S2140018E002B070BDF0B5B0F86E40B0F87050C66A81
S2140018F083B02144BDF92070009353191BB20AB27D
S21400190001973146FFF720FE002003B0F0BD00BF70
S2140019102DE9F047B0F96C8082B0B8F1000F0546AB
S214001920BDF9284029DD002C0F4616461FFA83F91C
S21400193027DD08EBD8734FEAD47A0AEB0402A9EB4A
S2140019406303A3EB62031BB2C16A0093CDF8048065
S2140019503A463346FFF7F8FD4FEA68020AEB0403FF
S21400196002EB63034B441BB2E96A0093CDF8048094
S2140019703A4633462846FFF7E7FD002002B0BDE8AA
S214001980F0874FEAD47AE7E72DE9F04383B00446C0
S214001990BDF92860B0F86C50002E88461746994668
S2140019A020DD2BB2002B0ADD06EB45052DB2C16A01
S2140019B0CDF80090019542463B46FFF7C5FD204610
S2140019C005F0A2F9A16ACDF8009042463B46019682
S2140019D02046FFF7B9FD204605F09CF9002003B02D
S2140019E0BDE8F083EBD12BB2002BE8DD103B03EB18
S2140019F0D37309EB630308351BB22DB2C16A4246A6
S214001A008DE828003B46FFF79FFDD8E72DE9F04715
S214001A10B0F86E60B0F8705082B088461746BDF9D0
S214001A202890C16ACDF804909A4608EB06027B1906
S214001A30044612B21BB2CDF800A0FFF785FD204683
S214001A4005F062F9A16ACDF800A042463B46CDF803
S214001A5004902046FFF778FD204605F05BF900204D
S214001A6002B0BDE8F08700BF2DE9F04106464FF40E
S214001A70BE7004F0F7FC0446002800F0C880FF2380
S214001A80002102228374C3740374437480F8D52043
S214001A9080F80E11D6F88000C4F828114FF07F4366
S214001AA0C4F84C31C4F85031C4F85431030148BF6F
S214001AB0594B66604FF0040158BF4FF480036FF037
S214001AC07F4284F8E910A260E260C4F820311A462A
S214001AD0736DC4F8C81043F401234FF0100E4FF492
S214001AE080374FF4B05543F4C0631343AA214FF434
S214001AF080324FF4002CA4F814E0C4F810714FF0B4
S214001B00100E0127C4F81C51402000254FF47038F1
S214001B10C4F82431C4F82CC1C4F83481C4F83C514C
S214001B20C4F84051C4F844516576E5752576C4F886
S214001B30CC50A4F8DA5084F80F51C4F8FC50C4F81E
S214001B401411C4F8C410C4F83021C4F81821C4F81D
S214001B50D0E0A4F8D800C4F8005104F11C00C4F882
S214001B600451C4F8085184F80D51C4F84851A775BB
S214001B7084F8D47084F8D67084F8D77084F80C7122
S214001B8001F040FF04F1340001F03CFF04F14C008A
S214001B9001F038FF04F1640001F034FF04F17C002A
S214001BA001F030FF04F1940001F02CFF04F1AC00CA
S214001BB001F028FF4FF0FF3303220C20FF2184F8AA
S214001BC0E800C4F8383184F8E03084F8E23084F86D
S214001BD0E33084F8E11084F8E47084F8DC5084F88C
S214001BE0DD5084F8DE5084F8DF5084F8E52084F871
S214001BF0E62084F8E7203046214605F0F3FFF36937
S214001C00236086F8C651F4612046BDE8F0810123C2
S214001C1086F8C631F8E700BF0800402038B5036AEA
S214001C208B422CD000F11C031A688A4207D0134658
S214001C30002AF9D1032380F8C631184638BD0A6851
S214001C401A60436A8B421FD0C36A8B4204BF036A82
S214001C50C362836A8B4204BF036A83620546D1F877
S214001C6008010C4620B107F0D3FD0023C4F8083164
S214001C70204604F0F9FB002085F8C60138BD07238E
S214001C8080F8C631184638BD036A4362DCE700BFF9
S214001C90436A93F80E21D97542F0010283F80E21AB
S214001CA0032909D8DFE801F00202180D93F8D520C1
S214001CB022F00C0283F8D520002380F8C63118469F
S214001CC0704793F8D52042F00C0283F8D520002305
S214001CD080F8C6311846704793F8D52022F00802DF
S214001CE042F0040283F8D520002380F8C631184657
S214001CF0704700BF70B4436A93F80E410546023140
S214001D00002644F0010422F07F4243F8212083F8A5
S214001D100E4185F8C661304670BC704730B4436AE1
S214001D209C7C93F80E2199748C4242F0010518BFF2
S214001D3042F0070283F80E5118BF83F80E219A7DF1
S214001D40D20744BF0906C3F84C11002380F8C631F9
S214001D5030BC1846704700BF436AB1B930B493F838
S214001D60D5204FF4FC454FF4803422F003021021B6
S214001D7083F8D520C3F82851C3F810419982002370
S214001D8080F8C63130BC1846704793F8D52000213D
S214001D9042F0020283F8D520C3F82811002380F809
S214001DA0C6311846704700BF10B40346446A002286
S214001DB084F8D71083F8C62110465DF8044B7047A8
S214001DC070B4456A95F80E316A68C5F8C41043F0D9
S214001DD0010385F80E310646D5F8C84092F9C501CC
S214001DE090FBF4F0002807DD0023013301FA04F22B
S214001DF0834241EA0201F8D10023C5F8141186F89F
S214001E00C631184670BC704710B40346446A0022B8
S214001E10C4F8C81083F8C62110465DF8044B704716
S214001E202DE9F041069F78B3079D446A3D431FD0D5
S214001E3001EB410504EBC505089E2A86AC4646F034
S214001E40010E6B86C5F81CE04CF8207F0023079A2D
S214001E50CCF80830CCF80420EB62627E01238B407D
S214001E6013436376002380F8C6311846BDE8F08138
S214001E70627E01238B4022EA03036376002380F808
S214001E80C6311846BDE8F0810220BDE8F08100BFEB
S214001E9030B4D0F84C31427C017C90F80E416FF0A3
S214001EA07F451B0A03FB015103FB025303F07F43EC
S214001EB001F07F4224F00201C0F85021C0F85431EE
S214001EC080F80E1130BC70472DE9F04F85B08C4677
S214001ED0109CBDF93CA0BDF9386091F8D51001946E
S214001EE0119C02941FFA8AF4C4EB030B9046341B31
S214001EF0CA07DDF848E01D4607461FFA8BFBA4B26A
S214001F0040F1D380BEF1000F40F05B810FFA8AF2F9
S214001F10D3174FF078404FF0FF31CDF80CC020F0CB
S214001F2071FADDF80CC0BCF914200902D31741EA97
S214001F301061000220F066FA864614FB04F01BFBD4
S214001F400B000028B8BFFF300012C31700FB01F2D9
S214001F500EFB03238946A0FB0E011944002871F1ED
S214001F600003DDF80CC0C0F2A78124B204FA8BFB94
S214001F700AEBDA7ADCF810410BEB6A0A5246D31702
S214001F80AAFB04ABDAF1000A04FB03BB6BEB4B0BBA
S214001F9002094FEA0B144FEA0A1042EA017244EAB9
S214001FA01A740B1110EB020A44EB030BBAF1000F84
S214001FB07BF10003C0F27B81704600284FEA1A22AC
S214001FC079F10003494642EA0B62C0F26781C5F127
S214001FD008054FEA10396D0049EA015909FB05F575
S214001FE0002DC0F2EC80C6F10806760009FB06F666
S214001FF0002EB8BF0F362D113611029B002B6AD06B
S214002000D7F8BC31D7F8B8110198013B5242121AE2
S21400201008F1040401F10800002BC7F8B8014A6073
S2140020200C60C7F8BC3140F33081013B6D4200F1D3
S214002030080108F10502002BC7F8B81180E8240053
S214002040C7F8BC3140F31881013B764201F1080223
S21400205008F11000002BC7F8B82181E84100C7F846
S214002060BC3140F30081013B4FEA4909C9F1000445
S21400207002F1080108F10B00002BC7F8B81182E83E
S2140020801100C7F8BC3140F3E580013B08F11102AE
S21400209001F10800002BC7F8B80181E81400C7F862
S2140020A0BC3166DD05B0BDE8F08F5BEA040367D19E
S2140020B0CAF108056D00964B93FBFAF909FB05F586
S2140020C0002DB8BF0F35029BCAEB4A522D11D20223
S2140020D02E46002B94D1D7F8BC310199D7F8B80119
S2140020E01144013B0C4608F1040200F10801002BE4
S2140020F0C7F8B81180E81400C7F8BC3140F3FB807D
S214002100013B01F1080208F10500002BC7F8B821D1
S21400211081E82100C7F8BC3140F3E480013B02F1BE
S214002120080108F11000002BC7F8B81182E841003A
S214002130C7F8BC3140F3CD80013B4FEA490401F1BA
S214002140080208F10B00002BC7F8B82181E811003F
S214002150C7F8BC3140F3B480013B08F1110102F12D
S2140021600800002BC7F8B80182E81200C7F8BC3197
S21400217098DCD7F8C031384605B0BDE8F04F1847B0
S21400218014FB04F01BFB0B00C5F1080524B2614BE1
S21400219093FBFAF96D0080FB09014FEAE90904FA9E
S2140021A08BFB0AEBDA7AC20A09FB05F50BEB6A0A27
S2140021B042EA4152002DA2EB0A32BFF614AF0F35A9
S2140021C011E7D0F880305B017FF5A0AE14FB04F079
S2140021D01BFB0B00C5F1080500284FF07843BCF93F
S2140021E0142093FBFAF34FEA45054FEA8313C6F132
S2140021F0080693FBF2F34FEA231909FB05F5B8BF6F
S214002200FF307600002D09FB06F64FEA2020B8BF07
S2140022100F3580FB0301002EB8BF0F36002871F182
S21400222000034FEA25154FEA26166DDB22B202FAA6
S2140022308BFBDCF810410AEBDA720BEB6202A2FBB6
S214002240042352424FEA101A90004AEA017A0246E4
S2140022505244D2E6D7F8C03138469847D7F8B81176
S214002260D7F8BC3111E7D7F8C03138469847D7F8C9
S214002270B821D7F8BC31F6E6D7F8C03138469847CB
S214002280D7F8B811D7F8BC31DEE6D7F8C0313846F3
S2140022909847D7F8B801D7F8BC31C6E640F6FF7ABB
S2140022A04FF0000B1EEB0A0049EB0B018FE61AF10C
S2140022B0FF0A4BF1000B7FE60F3041F1000154E6B8
S2140022C0D7F8C03138469847D7F8B821D7F8BC3188
S2140022D042E7D7F8C03138469847D7F8B811D7F84C
S2140022E0BC3129E7D7F8C03138469847D7F8B82127
S2140022F0D7F8BC3112E7D7F8C03138469847D7F838
S214002300B811D7F8BC31FBE60F3041F100018DE77C
S2140023100000F8FF0000C0FFF0B5074683B01420A9
S2140023200D46BE6904F09EF80446E0B1BB6E8560BB
S2140023300022DB07C26018D405EB85018900384609
S21400234004F0BCF86060014631B3BB6E0022D807CB
S214002350226105D4D7F88430DA060ED49B0711D450
S21400236000232360204603B0F0BD05EB8500800007
S21400237004F078F860600146E6E7304607F056FA63
S2140023802061EDE7A26802EB82023046920004214B
S21400239007F042FA2061E3E72046019104F064F872
S2140023A001990846DFE700BFF8B505460C46876981
S2140023B071B921E0616804F0A3F822691AB1D5F872
S2140023C084309B070ED4204604F04EF834469EB167
S2140023D0AB6E266813F0010F2846EBD0606804F059
S2140023E043F8EAE73846042107F01AFA204604F0D4
S2140023F03BF83446002EEBD1F8BD00BF836810B51D
S2140024000446186838B1426883680021C1602261BA
S214002410E361A06010BD2068216AFFF77DFF10B160
S214002420A3681860EFE72368152283F8C72110BD5C
S214002430436970B50546F3B101685A688E696AB19A
S21400244000241A6852F82420013422B130460421B0
S21400245007F0E6F96B695A68A242F2D8186804F0E9
S21400246003F8686904F000F8286B18B1BDE87040FE
S21400247003F0FABF70BD03C8FFF796FFF4E700BF8E
S2140024802DE9F043456985B00446002D00F09180A3
S214002490D0F81CC0BCF1000F36D1AB690268012B26
S2140024A0D2F8188039D9D0F808E0296903690EF106
S2140024B0040292E8440206EB8606B60090198F19CD
S2140024C0B9F1000F03D0C9F80070CEF80CC09842DE
S2140024D088BF4FF0803603D943F8046B9842FBD888
S2140024E0DEF80830102603EB83039B004046009678
S2140024F007F0A0F9AB692F61013BAB61204605B040
S214002500BDE8F043FFF77ABFAB69012B02D005B0F8
S214002510BDE8F0830268D2F81880E969012940F224
S214002520D780EE68A36870680139E961371D002816
S21400253000F0D680DA68002A7DD000211060D960CD
S214002540A2692369032A0FD8DFE802F0835D5002F0
S2140025501A6822F07F4242F000421A60226940F276
S214002560FF31143219612261A268E0699368296913
S214002570526800F1FF394FF0000C4FF0100E03EBDD
S21400258083039B00C4F81C90C4F818C04046CDF8DE
S21400259000E007F04FF97368002BAFD0EF60726869
S2140025A06B692A612046AB6105B0BDE8F043FFF7D2
S2140025B025BF0369564A1A6006698168334640F2A9
S2140025C0FF3243F8045FCB60B260C3698561013BAC
S2140025D006F10C02C3610261FFF710FF236893F94E
S2140025E0C731EBB9A3685B68736090E71A8842F05E
S2140025F0004242F4000240F2FF3003F110011A607C
S214002600D8602161B0E71A7842F0802242F40002D6
S21400261040F2FF3003F10C011A6098602161A3E7D5
S2140026202369A269A3F10C012161032A25D8DFE8FA
S21400263002F039412A162369354919602169D4F810
S21400264008E001F1080341F8040FCEF80C102361EE
S214002650A26140F2FF3243F8042B236184E753F86B
S2140026600C2C22F07F4242F0004243F80C2C2269E8
S21400267040F2FF31143259602261E3690022013BC7
S214002680E361A26143E733F80C2C194642F000429E
S21400269042F4000240F2FF3043F80C2C41F8040BE1
S2140026A02161EAE740F2FF31A3F1080243F80C1C6F
S2140026B02261E2E713F80C2C42F0802242F400027A
S2140026C040F2FF3143F80C2C43F8041C2361D4E796
S2140026D07FF414AF012B04BF152382F8C7310DE732
S2140026E0AA68039302EB820292004046042107F098
S2140026F093F8039B706000287FF41CAF22680121CA
S21400270082F8C711706800283FF41AAF12E700BFBE
S2140027103280808082690369032A0BD8DFE802F0E2
S2140027200F0219101A7842F0802242F4000243F891
S214002730082B0361C3690022013BC36182617047B5
S2140027401A6822F07F4242F0004243F8102B0361E1
S214002750F0E71A8842F0004242F4000243F80C2BDD
S2140027600361E7E701688A6E12F0200230B407D1F1
S21400277001F2771301F5D97103F8012F8B42FBD1D3
S214002780436942688260C2603BB11968D9600D68CF
S2140027905C6859691D61DC619961536892680361E0
S2140027A00023C2618361C36230BC70472DE9F047E5
S2140027B086690D464FF000092C6814F0803F13D050
S2140027C0B4F1803F3DD022043DD5E4B2322C73D024
S2140027D0304621466A6801F06DFD202C6FD0083522
S2140027E02C6814F0803FEBD15FFA84FA51463046ED
S2140027F06A6801F05FFDBAF1200FC4F30728C4F33E
S21400280007474FEA14644ED030464146AA6801F0A6
S21400281051FDB8F1200F42D030463946EA6801F043
S21400282049FD202F37D0304621462A6901F042FD67
S214002830202C2CD01435BFE7002C44DBE3B2FF2B52
S21400284018D00435B8E72302F6D5E7B2FF2F2ED00E
S214002850304639466A6801F02DFD202F51D0C4F36A
S214002860072421463046AA6801F024FD202C4CD0CF
S2140028700C35A1E7C4F30729B9F1020F02D0B9F16C
S214002880040F19D13046043501F01AFD94E730469E
S21400289001F016FDCEE7304601F012FDC3E73046E4
S2140028A001F00EFDB8E7304601F00AFDACE7C4F3D0
S2140028B00729B9F1020FE5D04846BDE8F087304653
S2140028C001F0FEFC8BE75FFA84F8414630466A6802
S2140028D001F0F0FCB8F1200FC4F30727C4F3074457
S2140028E017D030463946AA6801F0E4FC202F1AD0EB
S2140028F030462146EA6801F0DDFC202C1DD010355C
S2140029005AE7304601F0DCFCA9E7304601F0D8FC77
S214002910AEE7304601F0D4FC30463946AA6801F0EE
S214002920C9FC202FE4D1304601F0CAFC30462146CF
S214002930EA6801F0BFFC202CE1D1304601F0C0FC73
S214002940DDE700BF2DE9F04F836ED0F8B441D0F834
S214002950B871C5683F1B9B0683B082462A684FEA5B
S214002960E70758D4AE692B69002F4BD092F9C711F0
S214002970002947D1884602F18C01DFF8DCB10190CE
S214002980083402F5BC798A4624E00AEB800C4FF046
S214002990010209F80020CCF800109855EA6A03EB0B
S2140029A086000136013216F003064160EA6208D15D
S2140029B0EA692B69013A1433012A2B61EA6140F275
S2140029C0AC8008F10108474518D02A6892F9C7215B
S2140029D008349AB914E903001BF80020002ADCD05A
S2140029E019F90020002AD0D05AF820208A420AEB93
S2140029F0800CCCD108F101084745E6D1DDF804A0EB
S214002A00DAF8B441AE614023CAF8B841CAF8BC311E
S214002A1003B0BDE8F08FE96AAB693944E96292F920
S214002A20C721002AEFD1002B38D1BE0855D02B681D
S214002A3093F9C731002B4BD12034984607E0B045B8
S214002A4049D02B6893F9C7312034002B40D12B692D
S214002A5054F8202C1A7054F8182C5A7054F8102C6D
S214002A609A7054F8082CDA7054F81C2C5A6054F8F3
S214002A70142C9A6054F80C0C2969EA69D86054F84A
S214002A80040C1861531E1431012B08F1010829614A
S214002A90EB61D4D82846FFF7F3FCD0E72969002F6E
S214002AA0B1D004F1080202E00832002B3BD001EB63
S214002AB0830052F8086C52F8044CCE54013F03F1E0
S214002AC00103446003F003031446EDD1002B38D015
S214002AD0DAF8B44197E707F00307002FF8D02B6821
S214002AE093F9C731002BF3D104EBC707AB69083461
S214002AF005E02A6892F9C7210834002AE8D114E9CB
S214002B0003002A69D05402EB8302013303F0030367
S214002B10BC425160AB61ECD1DAE7AE612846FFF704
S214002B20AFFC2B694DE7EA692969AB61531E143186
S214002B30012B2961EB613FF678AF2846FFF7A0FC32
S214002B4073E7EB692969AF61013B1431012B2961F9
S214002B50EB61BDD81446F0E71432020038B50446DF
S214002B60FFF7F0FEE06882690369032A0FD8DFE802
S214002B7002F0332619021A6822F07F4242F0004221
S214002B801A60026940F2FF41143219610261C3699A
S214002B90013B0022012BC361826123D9002084F807
S214002BA0C60138BD1A8842F0004242F4000240F2E4
S214002BB0FF4503F110011A60DD600161E7E71A784E
S214002BC042F0802242F4000240F2FF4503F10C017D
S214002BD01A609D600161DAE740F2FF4243F8042B79
S214002BE00361D4E7FFF74CFC002084F8C60138BD2B
S214002BF038B50446FFF7A6FEE06882690369032A33
S214002C000FD8DFE802F0332619021A6822F07F4256
S214002C1042F000421A60026940F2FF211432196144
S214002C200261C369013B0022012BC361826123D983
S214002C30002084F8C60138BD1A8842F0004242F4EB
S214002C40000240F2FF2503F110011A60DD60016109
S214002C50E7E71A7842F0802242F4000240F2FF25AD
S214002C6003F10C011A609D600161DAE740F2FF2271
S214002C7043F8042B0361D4E7FFF702FC002084F836
S214002C80C60138BD2DE9F0410368C4689D6E9E6993
S214002C90876815F0010582B023D1BC42804612D069
S214002CA0236830461BB1E2680AB11B691360A3684B
S214002CB021696268009503EB83039B0006F0BAFD6A
S214002CC02468A742ECD1D8F81C00A3682169626882
S214002CD01B1A03EB8303002430469B00009406F087
S214002CE0A9FD02B0BDE8F08103689A6E2DE9F041B7
S214002CF09D69C4688668D3071BD4B44207460BD0C8
S214002D00A368626803EB83039B002846042106F051
S214002D1099FD2468A642F3D1F969A36862685B1A34
S214002D2003EB830328469B000421BDE8F04106F030
S214002D3089BDBDE8F08100BF03689A6E2DE9F041B9
S214002D409D69C4688668D30721D4B442074611D06B
S214002D502368284604211BB1E2680AB11B69136088
S214002D60A368226903EB83039B0006F06BFD2468CF
S214002D70A642EDD1F969A36822695B1A03EB8303C7
S214002D8028469B000421BDE8F04106F05BBDBDE887
S214002D90F08100BF2DE9F0410C4682B00546086878
S214002DA01646FFF7CFFDA169236903290FD8DFE890
S214002DB001F0423528021A6822F07F4242F00042B3
S214002DC01A60226940F2FF31143219612261E36908
S214002DD0EA6F013B0021E361A161002A56D06369D6
S214002DE0002B6AD06EBB0023E3612046FFF748FB4A
S214002DF06369A268E260002B3CD0186902B0BDE8A7
S214002E00F0811A8842F0004242F4000240F2FF309D
S214002E1003F110011A60D8602161D8E71A7842F0F1
S214002E20802242F4000240F2FF3003F10C011A60E7
S214002E3098602161CBE740F2FF3243F8042B236110
S214002E40C5E7206800F05AFAA268E56993686169E8
S214002E50526809695B1B03EB830300259B00009502
S214002E6006F0E8FC2046FFF77DFC0020606202B01A
S214002E70BDE8F081D5F8843013F0120F02D0106947
S214002E800028BBD1206902B0BDE8F081D4F80880E4
S214002E90D8F8001039B3A36A01333C2BA3629ED145
S214002EA001E0884639460F68002FFAD12068FFF700
S214002EB07BFAC8F80070A76291E7D5F884309A07C5
S214002EC020460BD4DB0604D5FFF736FF002E8AD04B
S214002ED0C8E7FFF709FF002E85D0C3E7FFF7D2FE4D
S214002EE0002E80D0BEE7A16279E700BFB1F934209A
S214002EF00B6B002A06DD03EB8202002043F8040B6E
S214002F009342FBD10023CB86704700BFF8B58B8E6B
S214002F10CD8E17461AB2013A2EB296420C46096B6F
S214002F2006DA013541F8267001EB8600E586F8BD25
S214002F3010339BB218B20122A386800003F096FAE3
S214002F40B4F93420206396420146EADA00EB8202A6
S214002F5000EB8603002043F8040B9342FBD1E0E726
S214002F602DE9F041D0F87C800F46002438600546F5
S214002F704C61B8F1000F67D0D8F800304B602020C5
S214002F8003F070FA0646786100285AD0D8F8080090
S214002F90800003F067FA3060002852D0D8F804307A
S214002FA0D5F88820D8F80810716002FB03F2B260EA
S214002FB07361002958D0234600E0306840F823406B
S214002FC001338B42F9D13468F46002EB820292003E
S214002FD0A869042106F020FC206033681B68002BDB
S214002FE02FD07168726978683361F161B261F860F8
S214002FF038B344688168F96100231022B8603C61E8
S214003000BB61BB62FB62BA86402003F02BFA3863D2
S214003010B8B17B69EBB11B681A68B7F93430002B7E
S21400302006DD00EB8303002140F8041B9842FBD129
S21400303000232846FB863946FFF768FF0120BDE8D7
S214003040F0810020BDE8F0811146FFF765F9786051
S214003050CDE7D5F8843013F0120F7B6802D01A69DA
S214003060002ADAD15A68D8E70446ADE770B50646B6
S2140030704FF4EA7003F0F6F9054600285DD0002408
S21400308002224FF40013866680F8C64180F8C741D6
S2140030908461C461C464046582644365FEF7E4FC2D
S2140030A0710628626862A862E8624DD52046CC2286
S2140030B00023C5F88820720785F8C6316B63AB63BA
S2140030C085F8C431EB632B646B64A5F86C30A5F807
S2140030D06E30A5F87030A5F87230A5F87430A5F8F3
S2140030E07630A5F878302B616B61EB60AB606B6077
S2140030F054BF052304230121EB6533072863696663
S2140031001DD400222A66EA6705F1880305F27711C6
S21400311005F5BA7443F8042FA3424FF0000001F8F7
S214003120012FF7D10A4BC5F88000196829600822DC
S21400313085F8C80185F8C5211D60284670BDEB6D71
S21400314023F00403EB65DCE7702003F08BF9AEE7B1
S2140031509C06FE1F70B5044601F07EF8A0610028AC
S21400316049D004F2771304F5D971002203F8012F31
S2140031708B42FBD1E56F7DB1D4F888102046FFF76F
S214003180CBF8D4F88810286006462046FFF7C4F827
S2140031902B6830601A681360D4F8881020460A46F8
S2140031A003F0E0FCD4F8881020610A46204603F0BD
S2140031B0D9FC2369606113B308B30025E360A360FC
S2140031C0606065634FF4007003F04CF94022194BC1
S2140031D0C4F8B401C4F8B80184F8C951C4F8BC21D5
S2140031E0C4F8C031A0690A2106F072FA58B9002066
S2140031F084F8C60170BD052084F8C60170BD0120A4
S21400320084F8C60170BDFF23A0692A460A2106F08D
S21400321033FA2A46A0690A2106F04AFAFF2808BFB0
S21400322001234FF0000008BF84F8C93184F8C601B6
S21400323070BD00BF4529000038B5836904464BB30E
S214003240C36F2BB119680B6800221A60FFF7ACF841
S2140032502169656900232361636111B1204603F08B
S214003260C1FC1DB12946204603F0BCFC0025D4F85D
S214003270B401E560A5606560656303F0F5F8C4F821
S214003280B451C4F8B851A06901F00CF884F8C6012E
S214003290A56138BD80F8C631184638BD38B5836993
S2140032A0044633B3FFF7C8FF0546134B1A68A2421D
S2140032B004D01346002AF9D1022038BD22681A60CD
S2140032C0E1690023236229B12046FEF7A7FCE169E5
S2140032D00029F9D1E06F08B103F0C6F8206B08B1F9
S2140032E003F0C2F800232046236303F0BDF8284607
S2140032F038BD1D46D9E700BF9C06FE1F8069704793
S21400330018B338B5436E8B4204460D4619D0082BC9
S2140033101DD008290BD003F003FD626A92F80E3127
S214003320002143F0010382F80E3184F8C611626A68
S214003330656692F80E3143F0010382F80E31082DCF
S21400334010D0002084F8C60138BD02207047426ABB
S214003350616692F80E3143F0010382F80E3103F0F5
S214003360D9FCECE7204603F0CFFCEAE70023A0F800
S2140033706C1080F8C6311846704700BF38B110B5DB
S214003380044600F0A7FF002084F8C60110BD022006
S214003390704700BF2DE9F04F83B09046DDF834E06B
S2140033A0DDF838900C9EDDF83CA01EF0010F0BBF38
S2140033B0D9F81021D9F810411446002205461EF00F
S2140033C0020F06FB06F00CBFA4464FF0000C03FBF2
S2140033D003000192CDF800C00F469B4602F0BEFFE8
S2140033E02401DDF800C094FBF0F0019ABAF1000F5A
S2140033F001D0CAF80000744200FB04F42411C7F19F
S214003400000E00FB0BF000115F4404FB0EFAD9F827
S21400341010316C6000FB07F700FB18A9464408FB58
S21400342004F804FB16764FEA29190EFB00880CEB0D
S214003430261609EB530302EB2812674241422C6220
S214003440AE61A86028612B60EA606F61E96103B035
S214003450BDE8F08F2DE9F84F0B9F0A9E0C9C17F0E5
S214003460010F9B4606FB06F3054618BF4FF0000803
S2140034700BFB0B3008BF4FF4803817F0020F924654
S2140034800F4614BF4FF000094FF4803902F066FF74
S2140034904FF4801393FBF0F004B12060744200FBFD
S2140034A004F4241100FB0BF0C7F1000E0011BB441E
S2140034B004FB0EF7564400FB1A7700FB0BFB0AFBD7
S2140034C004FA04FB16B63F110EFB00AA09EB2616FB
S2140034D007F5004708EB2A12614243426C602C62F3
S2140034E0AE61A86028612F60EA606961EB61BDE8A3
S2140034F0F88F00BF2DE9F047099C089D0A9F14F03D
S214003500010F14BF00264FF4803614F0020F14BFCC
S2140035104FF0000E4FF4803E002B5BDB002DC0F218
S2140035209D80AB4233DDAC18C3F1000C2D0495FB37
S214003530FCF808FB01F902FB08F508FB04F403EBB2
S214003540010A24114FEA291C52422D11C4EB0A34F9
S214003550CCEB0239A5EB013107B13B606B4DC8F1EE
S21400356000074FF4803C09F50042314404EB0E039B
S2140035700260C1608361C0F80480C0F808C0C0F86B
S21400358010C04761C561C0F82080BDE8F0874FEAEB
S214003590034CAC189CFBF5FC0B440CFB02F901FB3E
S2140035A00CF80CFB03F324034FEA29194FEA2818FA
S2140035B05242C9EB013904EB2314C8EB0231002F49
S2140035C000F096803D60DFF84481CCF100054FF4B2
S2140035D08037C8E7002D23DB5C42A54264DA5C181E
S2140035E04FEA0548240398FBF3F8154408FB01F955
S2140035F002FB08FC08FB05F564424FEA29194FEA6E
S2140036002C1CA4EB2514C9EB02390CEB013107B1D5
S2140036103B60C8F100074FF48035DFF8F0C0A2E742
S214003620AB4262DA5C184FEA0548240398FBF3F8CD
S214003630154408FB01F902FB08FC08FB05F564428B
S2140036404FEA29194FEA2C1CA4EB2514C9EB0239C2
S2140036500CEB0131002FDCD05B42D9E7C5F1000A44
S21400366053453FF760AF4FEA034C15449CFBFAFC0A
S2140036700B4401FB0CF80CFB02F949422D030CFB32
S21400368003F34FEA29194FEA2818C9EB0139C5EBAD
S2140036902314C8EB023197B3C7F800A0CCF100059D
S2140036A01A4F4FF480385EE74FEA034CAC189CFB89
S2140036B0F5FC0B440CFB02F901FB0CF80CFB03F3C6
S2140036C024034FEA29194FEA28185242C9EB013958
S2140036D004EB2314C8EB023157B13D60DFF82C80B1
S2140036E0CCF100054FF480373DE7C5F1000ABAE794
S2140036F0CCF100054FF48037DFF8108033E7CCF1CB
S2140037000005A7F580374FF480382CE70000FFFF50
S21400371070B4002B039E049C1EDB002E3DDBB342E0
S21400372010DD3604120396FBF3F303FB01F1C2EB44
S21400373021115B424FF4803604B1013180E84A0023
S21400374070BC70471B0493FBF6F606FB02F21211E0
S214003750254BC2EB0131EFE7002E0CDB5D42AE429B
S2140037602EDA360496FBF3F303FB01F10D11C5EBDD
S21400377002311D4EE0E75D183244B3422DB212B25C
S21400378028DD1B042D0393FBF6F606FB02F1C5EBC2
S214003790211176424FF48033CEE775421944324405
S2140037A0AB4209B212B2BCDC1B04090393FBF6F66B
S2140037B006FB02F2C1EB221176424FF48033BBE7E0
S2140037C01B0493FBF6F606FB02F21211C2EB013164
S2140037D0054BB1E7360496FBF3F303FB05F52D1115
S2140037E0C5EB0231004EA7E70000FFFF2DE9F047CA
S2140037F0099F089CD7F81061002B30DB002C5EDB9D
S214003800A3421BDC1B0493FBF4F302FB03F283FBD3
S214003810064512114FEA144E4EEA054EC2EB01322F
S214003820754206EBD674B7F91430110191FBF3F22A
S21400383002EB640380E82840BDE8F087250495FB8A
S214003840F3F383FB06894FEA184501FB03F31203E3
S21400385045EA0945C2EB23126D42B646E1E7002C65
S21400386013DB5D42AC4245DA240494FBF3F383FB9E
S214003870068901FB03F109114FEA1845C1EB023234
S21400388045EA0945C6F1000ECBE719442244A34297
S2140038900FFA81FC12B248DD1B0493FBF4F383FBA2
S2140038A006894FEA184E02FB03F24FEA0C314EEA45
S2140038B0094EC1EB2212CEF1000E3546B1E7654245
S2140038C019442244AB420FFA81FA0FFA82FC19DD42
S2140038D0240494FBF3F383FB06894FEA18450AFB9E
S2140038E003F34FEA0C3245EA0945C2EB23126D4258
S2140038F0B64696E71B0493FBF4F402FB04F284FB43
S214003900064586E71B0493FBF4F383FB06894FEA20
S214003910184E0CFB03F24EEA094E4FEA0A33C3EB8D
S2140039202212CEF1000E35467BE7240494FBF3F317
S21400393083FB06890CFB03FC4FEA2C1C4FEA184558
S214003940CCEB023245EA0945C6F1000E69E700BF36
S21400395030B4029D039C002D10DB05FB01F103FB38
S21400396012126D4212022D031B0304B1013202F53E
S214003970004280E82400836030BC704719442A4423
S21400398009B212B2E9E700BF2DE9F047089C099D8D
S214003990002C0746894690469A4620DB04FB04F036
S2140039A00AFB0A0002F0DAFC64424FF48016B6FB0B
S2140039B0F0F000FB04F4C9F10002241100FB0AF346
S2140039C004FB02F21B1103FB1822121105B101328F
S2140039D002F5004287E81400BB60BDE8F087994412
S2140039E0A0440FFA89F90FFA88F8D7E7836810B46D
S2140039F004685A4201FB0341016082605DF8044B93
S214003A00704700BF002303608382C38243608360E5
S214003A10C3600361704700BF2DE9F0430546487E4A
S214003A2085B0C6070C9C78D5D1F81CE01EF0010FB7
S214003A3000F0DB81052B03D9204605B0BDE8F083F6
S214003A40B1F932C0B2F90280B1F93060486AB2F911
S214003A5000900F6AC8EB0C0C00FB0CFCC9EB0600D0
S214003A6007FB00C000111EF0080F18BF013004F05D
S214003A7080761EF0100F18BFA0F58030002E00F0E4
S214003A80D881D5F8BC61D5F8B8E1013E4042800146
S214003A900EF1080C03F10408002EC5F8B8C1CEF8E4
S214003AA00400CEF80080C5F8BC6140F3C482013E35
S214003AB0BF010CF1080E03F10A00002EC5F8B8E1AC
S214003AC08CE88100C5F8BC6140F3CF82486A013EAD
S214003AD087010EF1080C03F11000002EC5F8B8C1DE
S214003AE08EE88100C5F8BC6140F3B582CE6901203E
S214003AF0770700FA03F003D54FF400779F4038436A
S214003B00760640F114825F084FF40036BE40344318
S214003B10044324F44004487E0133800773D5D1F86B
S214003B2034E01EF0010F00F06B81052B84D8B1F94C
S214003B304AC0B2F90280B1F94860C86BB2F9009089
S214003B408F6BC8EB0C0C00FB0CFCC9EB060007FBEC
S214003B5000C000111EF0080F18BF013004F0807678
S214003B601EF0100F18BFA0F58030002E00F0A081C8
S214003B70D5F8BC61D5F8B8E1013E404280010EF1AF
S214003B80080C03F10408002EC5F8B8C1CEF80400EE
S214003B90CEF80080C5F8BC6140F39382013EBF01B9
S214003BA00CF1080E03F10A00002EC5F8B8E18CE807
S214003BB08100C5F8BC6140F3BC82C86B013E87013A
S214003BC00EF1080C03F11000002EC5F8B8C18EE8FF
S214003BD08100C5F8BC6140F3A2824E6B01207707D6
S214003BE000FA03F003D54FF400779F40384376067B
S214003BF040F1A1815F084FF40036BE4034430443D1
S214003C0024F440040133887D870775D447077FF581
S214003C1013AF487E06077FF50FAF4E6EF00740F1F4
S214003C200281052B3FF608AFB2F902C0B1F97AE07F
S214003C30B2F90080B1F97800CA6E8F6ECCEB0E0E2A
S214003C4002FB0EFEC8EB000207FB02E2121116F0A2
S214003C50080F18BF013204F08070F60648BFA2F5C0
S214003C608032D5F8B8E1002840F0A881D5F8BC012C
S214003C70013852420EF1080603F1040C0028C5F87C
S214003C80B861CEF80420CEF800C0C5F8BC0140F3F9
S214003C90A482421E03F10A0E06F10800002AC5F8A7
S214003CA0B8017760C6F800E0C5F8BC2140F3C782CB
S214003CB0CF6E013A00F1080E03F11006002AC5F88F
S214003CC0B8E180E8C000C5F8BC2140F3AF82496E79
S214003CD00122480702FA03F203D54FF40070984019
S214003CE00243490604D559084FF400338B401A4363
S214003CF0144324F400049FE64E7E760786D5D1F85A
S214003D004CE01EF0010F00F08780052B3FF694AEC6
S214003D10B1F962C0B2F90280B1F96060486DB2F9DB
S214003D2000900F6DC8EB0C0C00FB0CFCC9EB0600FA
S214003D3007FB00C000111EF0080F18BF013004F08A
S214003D4080761EF0100F18BFA0F58030002E40F0D1
S214003D50F680D5F8BC61D5F8B8C1013E40420CF1FA
S214003D60080E03F10408002EC5F8B8E1CCF80400EC
S214003D70CCF80080C5F8BC6140F31F82701E03F1CA
S214003D800A0C0EF108060028C5F8B861CEF80470D3
S214003D90CEF800C0C5F8BC0140F30182D1F854E06B
S214003DA0013806F1080C03F110070028C5F8B8C161
S214003DB086E88040C5F8BC0140F3E781CE6C012060
S214003DC0770700FA03F003D54FF400779F40384397
S214003DD0760604D55F084FF40036BE4030430443F1
S214003DE024F400040133887D10E7042B3FF624AE4C
S214003DF0800724F4000403F102037FF504AF8EE687
S214003E00042B3FF619AE887D870724F4000403F1DF
S214003E1002037FF5FBAE6FE7042B3FF60DAE24F4EE
S214003E2000040233F2E6042B3FF606AE24F4000448
S214003E3002E6D5F8BC61D5F8B8C1013E40420CF1A7
S214003E40080E03F10408002EC5F8B8E1CCF804000B
S214003E50CCF80080C5F8BC6140F32381013E0EF12A
S214003E60080003F10A0C002EC5F8B801CEF804705D
S214003E70CEF800C0C5F8BC6140F30581D1F824E057
S214003E80013E00F1080C03F11007002EC5F8B8C17A
S214003E9080E88040C5F8BC613FF728AED5F8C06121
S214003EA00393284602920191B04701A90EC91DE668
S214003EB0D5F8BC61D5F8B8C1013E40420CF1080EF9
S214003EC003F10408002EC5F8B8E1CCF80400CCF8DD
S214003ED00080C5F8BC6140F31281013E0EF1080077
S214003EE003F10A0C002EC5F8B801CEF80470CEF81F
S214003EF000C0C5F8BC6140F3F480D1F83CE0013E58
S214003F0000F1080C03F11007002EC5F8B8C180E8D0
S214003F108040C5F8BC613FF760AED5F8C06103933A
S214003F20284602920191B04701A90EC955E60443FE
S214003F3024F40004EFE5044324F4000462E6D5F814
S214003F40BC61D5F8B8E1013E404280010EF1080C94
S214003F5003F10408002EC5F8B8C1CEF80400CEF868
S214003F600080C5F8BC6140F30081701EBF010CF1F3
S214003F70080E03F10A060028C5F8B8E18CE8C00070
S214003F80C5F8BC0140F3E3804E6D0138B7010EF171
S214003F90080C03F110060028C5F8B8C18EE8C0006A
S214003FA0C5F8BC013FF70AAFD5F8C06103932846B1
S214003FB002920191B04701A90EC9FFE6D5F8BC01EF
S214003FC05242013892010EF1080603F1040C002853
S214003FD0C5F8B861CEF80420CEF800C0C5F8BC011C
S214003FE040F31681421EBF0106F1080003F10A0ED7
S214003FF0002AC5F8B8017760C6F800E0C5F8BC210D
S21400400040F3F980CE6E013AB70100F1080E03F1D5
S2140040101006002AC5F8B8E180E8C000C5F8BC2143
S2140040203FF755AED5F8C021029328460191904738
S214004030029B01994BE6D5F8C0610393284602928D
S2140040400191B0470199D5F8B8C1D5F8BC610F6A9F
S214004050039B029A2BE5D5F8C0610393284602928B
S2140040600191B04701A90EC940E5D5F8C061039398
S214004070284602920191B04701A9D5F8B8E1D5F8D3
S214004080BC610EC922E5D5F8C061039328460292AA
S2140040900191B04701A9D5F8B801D5F8BC610EC9A1
S2140040A0ECE6D5F8C0610393284602920191B0472A
S2140040B00199D5F8B8E1D5F8BC610F6A039B029A5E
S2140040C0CCE6D5F8C0610393284602920191B0472A
S2140040D00199D5F8B8C1D5F8BC618F6B039B029ADD
S2140040E05CE5D5F8C0610393284602920191B0477B
S2140040F001A9D5F8B801D5F8BC610EC9FDE6D5F81A
S214004100C0610393284602920191B0470199D5F801
S214004110B8E1D5F8BC618F6B039B029ADDE6D5F853
S214004120C0610393284602920191B04701A90EC9C7
S21400413053E5D5F8C0610393284602920191B04733
S21400414001A9D5F8B8E1D5F8BC610EC935E5284611
S214004150D5F8C061039302920191B04701A9D5F842
S214004160B8E1D5F8BC010EC90EE7D5F8C0610393D7
S214004170284602920191B0470199D5F8B8C1D5F802
S214004180BC610F6D039B029AEFE6D5F8C0610393FE
S214004190284602920191B04701A90EC90EE6D5F84D
S2140041A0C0610393284602920191B04701A9D5F851
S2140041B0B861D5F8BC010EC9F0E5D5F8C061039327
S2140041C0284602920191B0470199D5F8B8E1D5F892
S2140041D0BC610F6D039B029AD0E52846D5F8C02136
S2140041E00293019190470199D5F8B861D5F8BC01C2
S2140041F08F6E029B4DE5D5F8C021029328460191AB
S2140042009047D5F8B801D5F8BC21029B0199F9E68C
S2140042102846D5F8C0210293019190470199D5F818
S214004220B861D5F8BC018F6E029BDBE6D5F8C021DD
S21400423002932846019190470199029B47E5D5F8DD
S214004240C0210293284601919047D5F8B801D5F8C9
S214004250BC21029B01992BE538B50446084605F0BB
S214004260EBF90546B8B101210A4605F021FA4201EC
S21400427044BF012384F8C8318303C4F880000CD5FA
S214004280284601213122E36D05F0F6F9284605F0AF
S214004290CBFAC4F88400284638BDA36E43F0010369
S2140042A0A366EDE708B505F0D9F9012814BF02208A
S2140042B0002008BD13460A46012105F0DDB900BFFF
S2140042C010B5044620460121002205F0F1F9C30787
S2140042D0F8D410BD38B5836E84690546D8070AD56C
S2140042E001212046002205F0E3F98107F8D138BD08
S2140042F0AB6E9A0707D520460121002205F0D8F9B3
S2140043000307F5D438BD20460421C82205F01CFA60
S214004310F1E700BF2DE9F041866E4C688769096BAE
S214004320F30705460CD5FAB914B924E0246804B39B
S21400433028466168FEF73AFA0328F7D1BDE8F0810F
S2140043400B68002BFAD090F9C92138462AB901210A
S2140043503222BDE8F04105F08FB90B46322201212A
S214004360BDE8F04105F088B90968BDE8F041FEF700
S2140043701DBABDE8F081BDE8F08100BF2DE9F04F21
S214004380A9B0BDF9C840BDF9CC500894A71AC3EB34
S214004390050A57EA0A040995BDF9D090359E00F043
S2140043A0EE8109F10F0B91F8D6804FEA6B040C945E
S2140043B0B8F1010FA4B2079400F0168216F4005468
S2140043C00A9440F0E0810A9C1294002FBDF81CB0BD
S2140043D040F3EE81089CCBEB02050F345C4425F0DD
S2140043E00F0524F00F04BAF1000FADF86050ADF8D9
S2140043F0644040F35882099C04F10F055D44CBEB02
S214004400030425F00F0524F00F04ADF86650ADF850
S21400441062400D4618A904460B93069204F07EFEF1
S214004420002800F0AC810B99BDF86230BDF8602022
S214004430CB1A9BB219461593069B9B1A1BB20AB25F
S214004440B9F12F0F0E920D9340F3B88106F00303D7
S214004450032B95F8D53003F0030300F0BD81032B42
S21400446000F026841CAB18461493B9F11F0F17AB47
S2140044700293CDF800A001960D990E9A3B4640F3A4
S214004480C681FEF7E7FF1C9B4FEA093203EB620387
S214004490B8F1010F10921C9300F0938206F001030E
S2140044A00B9306F002030F932046294602F032FDD6
S2140044B0D5F828311193BAF1000F40F36482FB0F50
S2140044C00693AB7D119AC74F02F4185213F0060FED
S2140044D047EA020715D00A9A0097B8F1020F14BFF0
S2140044E002230523002A18BF05232046294618AABA
S2140044F0FFF792FA10F4000F069B08BF002307464A
S214004500069395F8D430990730D595F80E21BDF866
S2140045103410A5F8901042F008022121BDF83800AA
S21400452085F80E211A07A5F89200E96740F1338254
S214004530209A2199D5F8D00052421201090192FB27
S214004540F0F291FBF0F1C5F88420C5F88010D5F89C
S214004550CC105B074FEA0132C5F8882006D5179BBA
S2140045601A0192FBF0F30B44C5F8CC3020462946DE
S21400457018AA069B01F0E6FF2046294618AA069BC5
S21400458003F05CFEB8F1020F00F0D8810B9B002B05
S21400459040F098810F9B002B40F00C8213939946B5
S2140045A016F4C05F15D0320505D51FAB93E807009B
S2140045B0369B83E80700F30406D522AB93E8070092
S2140045C0369B0C3383E8070018AB03CB379B186089
S2140045D05960069B002B40F09D81DDF818A00A9BD1
S2140045E09BB1129BB00503F5803B05D5389B0CCBE1
S2140045F053EA020140F05784720506D5389B986846
S214004600DB6853EA000240F0FA83D4F8B801D4F825
S214004610BC311C9A013B00F108010426002BC4F8AB
S214004620B81142600660C4F8BC3140F3C982013B51
S2140046301D9A01F108000A26002BC4F8B8014A604A
S2140046400E60C4F8BC3140F3B282013B1E9900F103
S21400465008021026002BC4F8B82141600660C4F892
S214004660BC3140F39B8202F10801013B1F98C4F85D
S214004670B811B9F1000F00F0D0800826002B50606A
S2140046801660C4F8BC3140F36783013B209A01F101
S21400469008000E26002BC4F8B8014A600E60C4F865
S2140046A0BC3140F3A383013B219A00F10801142694
S2140046B0002BC4F8B81142600660C4F8BC3140F361
S2140046C08C83013B229A01F108000526002BC4F8D2
S2140046D0B8014A600E60C4F8BC3140F37583013BF4
S2140046E0239A00F108010B26002BC4F8B81142608B
S2140046F00660C4F8BC3140F35E83249A013B01F1A6
S21400470008001126002BC4F8B8014A600E60C4F8F1
S214004710BC3140F32C82013B109E00F108021621AA
S214004720002BC4F8B82180E84200C4F8BC3140F33E
S2140047302782013B002102F108008B42C4F8B80131
S21400474082E88200C4F8BC3140F32382BDF81C2006
S2140047500C9B03FA82FB0BF10F0B069B4FEA2B1BFD
S21400476018A920465A46002B54D002F071FFB8F123
S214004770020F00F04A81012029B0BDE8F08F00202A
S21400478029B0BDE8F08F91F8D740042C00F03181B5
S214004790B1F9D84004EB690404EB840BCBF38F0526
S2140047A007952403002F1294BDF81CB03FF712AEF5
S2140047B0089D02F10F04CBEB05050FE6B8F1020FDA
S2140047C006F0030308BF4FF00108032B95F8D53019
S2140047D003F003037FF443AE032B00F0C9844FF0CD
S2140047E000083FE61380C00006F00304032C3FF4E5
S2140047F0E5AD0C9D05EB450BC5EBCB0BCBF30F14D2
S214004800079416F400540A943FF4DDADBBE7FEF7B8
S21400481071FE38E602F08AFEA9E70526002B5060F6
S2140048201660C4F8BC3140F3BD82013B209A01F10A
S21400483008000B26002BC4F8B8014A600E60C4F8C6
S214004840BC3140F3A482013B219A00F108011126F5
S214004850002BC4F8B81142600660C4F8BC3140F3BF
S2140048608D82013B229A01F108000826002BC4F82D
S214004870B8014A600E60C4F8BC3140F37682013B52
S214004880239A00F108010E26002BC4F8B8114260E6
S2140048900660C4F8BC3140F35682249A013B01F10D
S2140048A0080014262EE7099C03F10F055D44CBEBA8
S2140048B0040425F00F0524F00F04ADF86650ADF89B
S2140048C06240A6E50023139347F480674FF0000983
S2140048D0B00500F1A0811F9BBAF1000F03F500435D
S2140048E0C8BF01331F930F9B002B3FF459AEB9F19D
S2140048F0000F61D047F480674FF00109710500F1A1
S2140049006881229BBAF1000F03F50043D8BF01333C
S214004910229345E6BDF96220BDF9663014989B1ACD
S2140049204FEA231A5146FFF761F851461FA8FFF7D2
S2140049305DF8514622A8FFF759F850E609F1100233
S214004940521093B213930B9B002B00F07681069BBC
S214004950002B40F0DE810898BDF86030BDF862108C
S214004960C31A0998411A1BB209B24FEA420E03EB6A
S2140049700E0CBCF1000F18464FF0000840F3938170
S2140049804FF001096EE100F0E182002FD4BF002352
S2140049900123069395E52099219AD5F8D0000901C0
S2140049A0120191FBF0F192FBF0F2C5F88010C5F809
S2140049B08420CCE50B9B139347F400574FF0000977
S2140049C09CE716F001030B9306D1109A1F9BA2F5E5
S2140049D0803203EB62031F9316F002030F937FF4FB
S2140049E063AD109A229BA2F5803203EB62032293FA
S2140049F05AE5BDF91CB04FEA69040BEB8B0BCBF301
S214004A008F05240307951294DFE4BDF82080BDF8D7
S214004A102470BDF84C2008F10F0107F10F00114477
S214004A201044C2EB080321F00F0120F00F00BA1A61
S214004A3023F00F0322F00F02ADF86C10ADF86E00F5
S214004A401AA92046ADF86830ADF86A2004F066FB77
S214004A5000283FF490AEBDF86A20BDF86830BDF976
S214004A604C100191BA1A12B20027C3EB0803009249
S214004A701BB23A4620462946029703970497FDF74D
S214004A8023FA119BC64E03F4007E20463B46294679
S214004A901AAA4EEA060601F055FD3B462046294670
S214004AA01AAA03F0CBFBAB7D13F0060F40F0CD82C5
S214004AB0069B002B00F04E82BDF968302498BDF9A5
S214004AC06010BDF96A20BDF96250591A4042531B66
S214004AD00911CAEB23172490229B239DD4F8BC21EE
S214004AE0D4F8B8E15B4201FB153300FB1733013AFB
S214004AF003F101130EF108000621002AC4F8B801DC
S214004B008EE80A00C4F8BC2140F3D282531E6D42E0
S214004B1000F108010C22002BC4F8B81180E824002C
S214004B20C4F8BC3140F3BB82249A013B50421225A4
S214004B3001F10802002BC4F8B82148600D60C4F8E3
S214004B40BC3140F3C482013B002102F108008B42D5
S214004B50C4F8B80182E84200C4F8BC3140F3B2821F
S214004B6020461AA94FEA2B1202F0E0FC03E6D4F81E
S214004B70C03120469847D4F8B801D4F8BC31CAE50D
S214004B80D4F8C03120469847D4F8B821D4F8BC31C0
S214004B90CFE5D4F8C03120469847D7E5D4F8C031E1
S214004BA020469847D4F8B821D4F8BC315BE5D4F851
S214004BB0C03120469847D4F8B801D4F8BC3144E553
S214004BC0D4F8C03120469847D4F8B811D4F8BC3190
S214004BD02DE5389BBDF86010D8680B900898BDF896
S214004BE062209B68411A0998821A0B984FF0010EB2
S214004BF0404200905B4209B212B2CDF804E022A80F
S214004C00FEF7A6FE079B4FEA430B1FFA8BFB1FFA25
S214004C108BF30793C4E4389A389B52681B6800925B
S214004C20002201921FA80D990E9A4FEA4B0BFEF731
S214004C308FFE1FFA8BF3079355E6069B002B5FD17A
S214004C400E990F9B002B40F07E8147F400570D987D
S214004C504FEA420E03467344002B40F389810D9BB6
S214004C604FF000098E44BEF1000F14DD5200BDF96E
S214004C7064E0BDF960C052421044CCEB0E0E7045A5
S214004C8009DABDF96600BDF962E00A44CEEB000021
S214004C908242C0F2E3810B9B002B3FF424AEB9F1B5
S214004CA0000F3FF411AE47F400574FF001090FE62E
S214004CB01CAB1846149317AB03930D990E9ACDF8B8
S214004CC000A03B4601960295FEF764FBD5F810312E
S214004CD01C9903FB09F250110144B8F1010F4FEA89
S214004CE022121C9120D006F001010B9106F0020161
S214004CF00F915B08A3F5803313441093FFF7D4BBE2
S214004D00BDF86630BDF86210591A159BC91A09B26B
S214004D1097E70898BDF86030BDF86610C31A099882
S214004D20091A1BB209B220E616F001010B9102D156
S214004D301F9901441F9116F002010F91D9D12299B3
S214004D4008442290D5E7D4F8C03120469847D4F8D6
S214004D50B811D4F8BC31A0E5D4F8C0312046984745
S214004D60D4F8B811D4F8BC318FE4D4F8C03120465A
S214004D709847D4F8B801D4F8BC3180E5D4F8C031EF
S214004D8020469847D4F8B811D4F8BC3169E5D4F871
S214004D90C03120469847D4F8B801D4F8BC3152E563
S214004DA045084000D4F8C03120469847D4F8B811DA
S214004DB0D4F8BC3139E5D4F8C03120469847D4F849
S214004DC0B811D4F8BC3198E4D4F8C03120469847DE
S214004DD0D4F8B801D4F8BC3181E4D4F8C031204608
S214004DE09847D4F8B811D4F8BC316AE4D4F8C03186
S214004DF020469847D4F8B801D4F8BC3153E4BDF83F
S214004E00601000900898BDF86220411A0998821A2E
S214004E10119800F4805E00205B424EF0080E019070
S214004E2009B212B225A847EA0E07FEF7ADFD069BAB
S214004E30002B40F02F813304D4F8B82140F1A08035
S214004E40D4F8BC312599013B02F1080059440726E5
S214004E50002BC4F8B80151601660C4F8BC3140F3AA
S214004E605A81013B269A00F108010D26002BC4F852
S214004E70B81142600660C4F8BC3140F34381013B80
S214004E80279A01F108001326002BC4F8B8014A60DF
S214004E900E60C4F8BC313FF7BCABD4F8C031204636
S214004EA09847FFF7B2BB1199009201F4006E0020FC
S214004EB05B424EF0040E01900D990E9A25A847EA23
S214004EC00E07FEF761FD069B002B40F0DE807104A6
S214004ED000F18780D4F8B811D4F8BC312598013B8E
S214004EE0584401F10802C4F8B821002B48604FF07E
S214004EF006000860C4F8BC3140F31F81013B2699C8
S214004F0002F108004FF00C0E002BC4F8B8015160F7
S214004F10C2F800E0C4F8BC3140F30681013B00F162
S214004F200801279AC4F8B811002B4FF0120180E848
S214004F300600C4F8BC313FF75FABD4F8C03120465A
S214004F409847FFF759BB4FF0000880E6CDF818A049
S214004F50FFF7B7BABDF96810BDF96030BDF96A2031
S214004F60BDF962702498C91AD71B09113F11B3E521
S214004F700F9B4FF00009002B7FF41EADFFF710BB10
S214004F80D4F8BC312598013B02F10801C0EB0B00B8
S214004F900726002BC4F8B81150601660C4F8BC3160
S214004FA040F3DD80269A013B50420D2601F10802AF
S214004FB0002BC4F8B82148600E60C4F8BC3140F33A
S214004FC0C5802799013B494202F108001326002BB1
S214004FD0C4F8B80151601660C4F8BC313FF719AB8D
S214004FE05BE7D4F8B821D4F8BC312598013BC0EB78
S214004FF00B0002F10801C4F8B811002B50604FF006
S21400500006001060C4F8BC3173DD269A013B50429E
S2140050104FF00C0E01F10802002BC4F8B8214860CE
S214005020C1F800E0C4F8BC315ADD2799013B49427B
S21400503002F1080E1220002BC4F8B8E182E8030043
S214005040C4F8BC313FF7D8AA77E700962946204631
S2140050501AAA0323FEF7E0FC064629E50022BDF95E
S2140050604C00009101900292039204922046294639
S2140050700222FCF729FF119B03F4006343EA070CA6
S2140050804CF4801747F0840705E625A85146FEF73E
S214005090ADFC1CE725A85146FEF7A8FCCBE6D4F8E5
S2140050A0C03120469847D4F8B811D4F8BC313BE557
S2140050B02046D4F8C0319847239DD4F8B801D4F8D8
S2140050C0BC2123E5D4F8C0312046984748E5D4F8FB
S2140050D0C03120469847D4F8B821D4F8BC3132E520
S2140050E0D4F8C03120469847D4F8B821D4F8BC315B
S2140050F09BE7D4F8C03120469847D4F8B811D4F8C6
S214005100BC3182E7D4F8C03120469847D4F8B811AD
S214005110D4F8BC31B3E6D4F8C03120469847D4F86A
S214005120B801D4F8BC319CE6D4F8C0312046984784
S214005130D4F8B801D4F8BC31F0E6D4F8C031204633
S2140051409847D4F8B821D4F8BC31D7E6D4F8C031A3
S21400515020469847D4F8B821D4F8BC3131E7D4F8C3
S214005160C03120469847D4F8B811D4F8BC3119E7B6
S2140051701CAB1846149317AB03930D990E9ACDF8F3
S21400518000A03B4601960295FEF704F9D5F81031CB
S2140051901C9903FB09F201EB62111C9106F0010158
S2140051A00B9106F0020112110F914FF00008A0E5D6
S2140051B02DE9F0438BB097B2BDF9484010341FFA82
S2140051C083F96410A3B207F10F0609F10F05C3EBCC
S2140051D0070E1E441D44C3EB090225F00F05884642
S2140051E02EF00F0E22F00F0326F00F0608A9ADF8DA
S2140051F02650ADF820E0ADF82230ADF82460054624
S21400520003F08CFF10B90BB0BDE8F083D8F8286126
S214005210BDF82210BDF820300194C1EB090906F450
S214005220007600220FFA89F1FB1A46F480060091F8
S2140052301BB20292039204922846414646F041066B
S214005240FCF742FE022300962846414608AAFEF7CF
S214005250E3FB139B0F3407462409002B5FD0159BF6
S214005260BDF92260B3F90020B3F90230BDF92090F1
S2140052709E1B139BC9EB0209D9074FEA29194FEA6F
S21400528026167DD40223139A920749D5149AD5F888
S214005290B8C1D168D2F810E05069D5F8BC21C1F584
S2140052A080310EFB091900FB0690013A01300CF123
S2140052B008060721002AC5F8B861CCF80400CCF827
S2140052C00010C5F8BC2140F3C580013ACEF10000BD
S2140052D006F108014FF00D0E002AC5F8B8117060EF
S2140052E0C6F800E0C5F8BC2140F3A98014984069D0
S2140052F0013A404201F1080E1326002AC5F8B8E12B
S21400530048600E60C5F8BC2140F39280032B47F43A
S214005310805747F008070CBF0423022300E002234F
S214005320414608AA00972846FEF776FBD5F8BC311A
S214005330D5F8B8210021013B02F108068B42C5F8DA
S214005340B86150601160C5F8BC3114DD284641468E
S21400535008AA002301F0F6F82846414608AA0023CA
S21400536002F06CFF284608A9224602F0DFF801206A
S2140053700BB0BDE8F083D5F8C03128469847E5E77E
S214005380149BD5F8B8E1196858689A68D5F8BC3106
S214005390C1F5803100FB091102FB0612013B013208
S2140053A00EF1080C0621002BC5F8B8C18EE80600E1
S2140053B0C5F8BC3131DD013B40420CF108010C223E
S2140053C0002BC5F8B811CCF80400CCF80020C5F8BE
S2140053D0BC3119DD149A9268013B524201F1080E65
S2140053E01220002BC5F8B8E181E80500C5F8BC31ED
S2140053F005DD47F4006747F00407032343E7D5F8C5
S214005400C03128469847F4E7D5F8C0312846984773
S214005410D5F8B811D5F8BC31DCE7D5F8C031284648
S2140054209847149AD5F8B8C1D5F8BC315068C2E789
S214005430D5F8C021079328469047079B66E7D5F81E
S214005440C021079328469047D5F8B811D5F8BC2157
S214005450079B4BE7D5F8C021079328469047149B37
S214005460D5F8B861D3F810E0D5F8BC21079B2CE737
S2140054702DE9F04FABB0BDF9D080BDF9D470BDF9C1
S214005480D8400794C2EB0806FD1A56EA0504BDF993
S214005490DCB0CDF84480129703D100202BB0BDE8D5
S2140054A0F08F044605FB05F006FB06008A4691F8D9
S2140054B0D6100F9391461492089100F04FFF6D425C
S2140054C04FF0807393FBF0F202FB05F5079B1692F4
S2140054D002FB06F62A1236121146184601FB03F1A5
S2140054E0109202FB0BF30BFB06F2521449141392B4
S2140054F04A46551A00FB06F00C950F9DCDF85CB099
S21400550040142A185B140D922A1A0A9208EB03021A
S2140055100E92C3EB08020B92089D139A022D07EB1E
S214005520020CA7EB02028944099200F0B682389A70
S21400553002F0030EBEF1030F00F0C382089A012AA0
S21400554000F025820E9B0B990B98CDF854C04B4566
S214005550A8BF4B461A460C9B8B42A8BF0B469A42E6
S214005560A4BF23F00F039AB20E9BBCBF22F00F021B
S21400557092B24B45B8BF4B4619460C9BADF8682017
S2140055808342B8BF03460D9A09989942CCBF01F1F1
S2140055900F030F336245A8BF624611460A9A23F0EE
S2140055A00F0382429BB2A8BF0246ADF86C300D9B3B
S2140055B009989142B4BF21F00F0222F00F02634512
S2140055C0B8BF634619460A9B8342B8BF0346994252
S2140055D0CCBF01F10F030F3323F00F0392B29BB23F
S2140055E01AA92046ADF86A20ADF86E3003F096FD95
S2140055F000283FF452AFBDF86A30BDF86810139328
S214005600139A0F9BDDF854C01F96C1EB0800C2EB3F
S214005610030E00B2BB1A109A23920FFA8EF506FB01
S21400562000F00FFA83FE02FB1E0314981995401A29
S2140056301B1100B202FB05FE03F5004306FB10EE4D
S21400564021939AF8D53018904FEA2E1E0EF580302A
S21400565003F0030355421E90032B139A0D9B0E98DE
S2140056602095C6F10006C1EB0901A3EB02022296C3
S214005670C0EB0909CCEB030300F0C6811E460025EB
S214005680139324AB18460E9309B212B200964B46FB
S2140056900195FEF73DF80A9B099EBDF86A20BDF805
S2140056A0681001950C9D9A1AF31A0B9E0093691ABE
S2140056B027A812B2731B09B21090FEF729F8249A95
S2140056C0279B02F5004203F5004324922793089B8C
S2140056D0012B00F04F822046514601F01BFCDAF801
S2140056E028310D93089B022B389B00F0338203F081
S2140056F001059AF8D4309A0730D59AF80E21BDF8ED
S2140057006010AAF8901042F008022121BDF864004B
S214005710AAF892001E078AF80E21CAF87C1040F1FB
S21400572048821F9A2098DAF8D010524212010001DF
S21400573092FBF1F290FBF1F0CAF88420CAF88000E0
S214005740DAF8CC201003CAF88800580706D5169B4E
S2140057501B0193FBF1F11144CAF8CC100A9B099A7D
S2140057609B1A002B40F376810C9B0B9A9B1A002BFE
S214005770C0F27B81204651461AAA002300F0E2FEC2
S2140057801AAA00232046514602F058FD0F9B9F425E
S214005790A8BF0F9ABDF96A304FF00006B4BFFB1AD7
S2140057A0D31A07990D9A594502F4F0599AF816201B
S2140057B0B8BF594649F4400903EB211312F0060F0F
S2140057C049F00F09099340F00181002D00F00E8189
S2140057D04FEA6B030C930A97CDF82C804FF0010B21
S2140057E000231393002E40F06F81B046D4F8BC31EE
S2140057F0D4F8B821013B002102F108058B42C4F819
S214005800B851C2F804901160C4F8BC3140F350821D
S2140058109AF8D52002F00302032A00F06E811E9F3C
S214005820013B05F108020421002BC4F8B82185E8E5
S2140058308200C4F8BC3140F33282013B1F9902F16A
S21400584008000A25002BC4F8B80151601560C4F89A
S214005850BC3140F38782013B209A00F108011025F5
S214005860002BC4F8B81142600560C4F8BC3140F3A0
S2140058707082013B219A01F108000525002BC4F82F
S214005880B8014A600D60C4F8BC3140F35982013B50
S214005890229A00F108010B25002BC4F8B8114260CB
S2140058A00560C4F8BC3140F34282013B239A01F103
S2140058B008001125002BC4F8B8014A600D60C4F832
S2140058C0BC3140F32B82013B249A00F108010625E7
S2140058D0002BC4F8B81142600560C4F8BC3140F330
S2140058E01482013B259A01F108000C25002BC4F810
S2140058F0B8014A600D60C4F8BC3140F3FD81013B3D
S214005900269A00F108011225002BC4F8B81142604F
S2140059100560C4F8BC3140F3E681013B279A01F1EB
S21400592008000725002BC4F8B8014A600D60C4F8CB
S214005930BC3140F3CF81013B289A00F108010D25C8
S214005940002BC4F8B81142600560C4F8BC3140F3BF
S214005950B881013B01F10800299AC4F8B801002B70
S2140059604FF0130081E80500C4F8BC3140F3928183
S2140059701AA9099A2046002E69D001F069FE089BF4
S214005980022B00F04C8101202BB0BDE8F08F389A36
S214005990D2070AD40D9A0A440D920C9A121A0C9247
S2140059A00A9A0A44C0EB09090A92389A95073FF505
S2140059B0C9AD0E9A13990A440E920B9A0A440B929A
S2140059C0099AC3EB0C0CD31A0993BBE5CDF80090EB
S2140059D0204651461AAA0423FEF71EF810F4000FBC
S2140059E0814608BF0026002D7FF4F2AE389B13F0E8
S2140059F0020300F0ED80079B5B100C930F9B0A934D
S214005A00149B0B93AB46EBE61D46139324AB18464C
S214005A100E932B468DE8080409B24B4612B2FDF7EA
S214005A20E5FE0A9B099EBDF86A200C9DBDF868102D
S214005A30CDF804A09A1AF31A0B9E0093691A27A8A9
S214005A4009B212B2731B1090FDF7D0FE3FE601F0CC
S214005A506DFD94E7139A002A4B463FF788AE3FF455
S214005A6089AEB9F1000F7FF785AE204651461AAAD7
S214005A70012300F067FD1AAA01232046514602F0D2
S214005A80DDFB0F9B9F42B8BF0F9ABDF96E304FF0FB
S214005A900106B4BF9B1ADB1B83E6079B2F2B03DC98
S214005AA0389B43F001033893BBF12F0F03DC389B80
S214005AB043F002033893389B03F00303032B7FF471
S214005AC041AD002308933DE5BDF96E30BDF96A800F
S214005AD0C8EB03084FEA281841461EA8FDF786FFC4
S214005AE0414621A8FDF782FF0E984146FDF77EFF4E
S214005AF010984146FDF77AFF78E6089A022A3FF4A6
S214005B008EAE0D9A1E9F91050FD41F99209ABAF952
S214005B1014003F01090197FBF0F791FBF0F1120129
S214005B201E9792FBF0F01F9120900D9A52053FF5BC
S214005B3077AE21A807C8BAF914E00001090190FB66
S214005B40FEF091FBFEF11201219092FBFEF22291F3
S214005B50239265E613F0010503D10D9B43F4007311
S214005B600D93389B99073FF5C4AD0D9B43F48063B6
S214005B700D93BEE5389B13F0010507D1079B1E9ACF
S214005B801B03A3F5803302EB63031E93389B980731
S214005B9007D4219A4FEA0B33A3F5803302EB630355
S214005BA021932046514601F0B5F9DAF828310D93D5
S214005BB09FE51F98209ADAF8D0100001120190FB9A
S214005BC0F1F092FBF1F2CAF88000CAF88420B7E53B
S214005BD0079A5A451ADC4FEA6B020C920A97CDF8E0
S214005BE02C804FF0010B2AAA03EB430302EB83033E
S214005BF0303B93E80700399D1AAB85E8070003CBD6
