S0130000424D455F5350495F4E45572E73726563A9
S11300006031FE1FB94C0000C9470000B54C000028
S1130010B54C0000B54C0000B54C000000000000D9
S1130020000000000000000000000000B54C0000CB
S1130030B54C000000000000B54C0000B54C0000B9
S113004035290000ED280000C52900007D290000A5
S11300505929000011290000E9290000A129000004
S1130060000000000000000000000000000000008C
S1130070000000000000000000000000000000007C
S1130080000000000000000000000000000000006C
S1130090000000000000000000000000000000005C
S1130400FFFFFFFFFFFDFFFFFFFFFFFFFFFFFFFFFA
S1130410FFFFFFFFFFFFFFFFFFFFFFFFFFFFFFFFE8
S1130420FFFFFFFFFFFFFFFFFFFFFFFFFFFFFFFFD8
S1130430FFFFFFFFFFFFFFFFFFFFFFFFFFFFFFFFC8
S1130440FFFFFFFFFFFFFFFFFFFFFFFFFFFFFFFFB8
S1130450FFFFFFFFFFFFFFFFFFFFFFFFFFFFFFFFA8
S1130460FFFFFFFFFFFFFFFFFFFFFFFFFFFFFFFF98
S1130470FFFFFFFFFFFFFFFFFFFFFFFFFFFFFFFF88
S1130480FFFFFFFFFFFFFFFFFFFFFFFFFFFFFFFF78
S1130490FFFFFFFFFFFFFFFFFFFFFFFFFFFFFFFF68
S11304A0FFFFFFFFFFFFFFFFFFFFFFFFFFFFFFFF58
S11304B0FFFFFFFFFFFFFFFFFFFFFFFFFFFFFFFF48
S11304C0FFFFFFFFFFFFFFFFFFFFFFFFFFFFFFFF38
S11304D0FFFFFFFFFFFFFFFFFFFFFFFFFFFFFFFF28
S11304E0FFFFFFFFFFFFFFFFFFFFFFFFFFFFFFFF18
S11304F0FFFFFFFFFFFFFFFFFFFFFFFFFFFFFFFF08
S113050010B5054C237833B9044B13B10448AFF349
S113051000800123237010BDC408FE1F00000000EA
S113052088BE0000084B10B51BB108480849AFF35A
S113053000800848036803B910BD074B002BFBD0AB
S1130540BDE81040184700BF0000000088BE00004E
S1130550C808FE1FA808FE1F0000000000F01F01CD
S113056001234009024A8B4042F82030704700BF03
S113057000E100E04309203300F01F00012202499A
S1130580824041F82320704700E100E020B319B312
S113059030B54368002283B005460C464A600A60C1
S11305A0E3B19A68AAB192699AB11868694690470A
S11305B080B9009B6360A868A0B183684BB19B6954
S11305C03BB100686946984720B9009B236003B09B
S11305D030BD012003B030BD012070474FF0FF3320
S11305E04B60E8E74FF0FF332360F3E70123037028
S11305F043708370C3700020704700BF08B338B5E0
S113060004460068104A0301D35C012B05D0002581
S1130610A56102F0D7F8284638BD63682BB19A6803
S11306206AB1186858B1D3699847A3682BB19A681E
S11306302AB1186818B1D36998472068E7E7012000
S113064038BD0120704700BF780CFE1F58B151B16E
S113065070B40568124E2C01345D013C042C04D99D
S1130660052070BC70470120704705F1007505F541
S113067060556D01AC79E40608D562B143689A68A7
S11306805AB11868B0FA80F04009EAE71943CB0779
S1130690F3D50320E5E71046E3E70120E1E700BFD7
S11306A0780CFE1F2DE9F0411346144642680546B6
S11306B00E46FFF7CBFF88B994B12B68174F03F1AF
S11306C0007101F5605149011B018A79FB5C12F04C
S11306D0100F14BF01220222012B04D0BDE8F081C7
S11306E02046BDE8F08168680028F7D0B4FBF2F436
S11306F0836800684FF6FF77BC4228BF3C465F68BA
S1130700022A4FF0010E3246A3B285F814E0BC462B
S11307100CBF10311131BDE8F0416047780CFE1F69
S11307200AB90320704700297CD12DE9F04F514BC1
S1130730514F5E6985B042F21078144601900D461F
S11307408B46C1464FF0FF0A002003A9B0470BEBCC
S11307504B03002840F0898037F81330039ADFF800
S113076018C104FB03F3B2FBF3FE0EF1FF31BEF13B
S1130770000F12D003FB0EF3520AFF2909FB02F209
S11307804FEA532309D8B2FBF3F2A2F51C53103BF2
S1130790434502DA98468A465D460BF1010BBBF1EC
S11307A00D0FD1D142F2107398455ED0019B03F135
S11307B0007303F560535B0105EB45059A780CEB78
S11307C0450C5FFA8AFA22F003029A7083F801A0BA
S11307D0DA799CF8021022F0400201F0010142EAA9
S11307E08112DA71DA799CF8031022F0100201F018
S11307F0010142EA0112DA71DA799CF8041022F05C
S1130800080201F0010142EAC102DA719CF80520F4
S11308101C7802F0030124F003020A431A7005B0A5
S1130820BDE8F08F00F1007000F560504001FF2337
S11308304370C37923F04003C371C37923F00803E1
S1130840C371037823F003030370837823F0030355
S113085043F002038370C37902290CBF43F01003F1
S113086023F01003C37100207047032005B0BDE8D6
S1130870F08F00BF88B60000F0B40000F0B5134656
S113088083B01546826804460E46FFF7DFFE10B9B2
S1130890E06810B1082003B0F0BD236831491A01A3
S11308A08F188A5C012AF6D1797801B97A7003F13C
S11308B0007303F560535A01A168937913F0100F84
S11308C014BF01230223002946D0012D44D9022B51
S11308D0A5EB03004FF6FF77B5FBF3F5236105F1B4
S11308E0FF330CBF0E320F328D68BB42304428BF39
S11308F03B46E0606D6808689BB23146A847002813
S1130900C9D1226802F1007202F560525201937853
S113091043F02003937024680CB3082C0CBF05200B
S11309200820FFF71BFE04F1007303F560535B011D
S113093000209A78D2B28DF807209A78D2B28DF836
S113094007209A78D2B28DF807209A7862F07F0255
S11309509A709DF807309EE7E6602561D7E701208D
S1130960DFE700BF780CFE1F002800F0C58070B5DB
S1130970046882B005460E46002C00F0A880082CBE
S113098000F09A800820FFF7F5FD002C00F0A2800B
S1130990082C00F094800820FFF7ECFD002C00F0F8
S11309A09C80082C00F08E800820FFF7E3FD002CCB
S11309B000F09680082C18BF082000F08680FFF70E
S11309C0D9FD04F1007303F560535B019A78D2B248
S11309D08DF806209A78D2B28DF806209A78D2B291
S11309E08DF806209A7802F07F029A709A7822F0A5
S11309F004029A709A7822F040029A702B689DF84B
S1130A00062003F1007303F560535B019A7802F04A
S1130A10DF029A702B6803F1007303F560535B01E6
S1130A209A7802F0EF029A70286800F1007303F5D7
S1130A3060535B01997811F0030105D0DB7913F061
S1130A40100F14BF022103213246FFF769FE2B6801
S1130A5003F1007303F560535B0106469A7842F094
S1130A6010029A702C68002C41D0082C3AD008202F
S1130A70FFF774FD002C3DD0082C18BF082034D09B
S1130A80FFF76CFD04F1007303F560535B0130461E
S1130A909A78D2B28DF807209A78D2B28DF80720CE
S1130AA09A78D2B28DF807209A7842F040029A7070
S1130AB09DF8073002B070BD0520FFF75BFD0620EE
S1130AC0FFF758FD0420FFF755FD072077E70120C5
S1130AD0FFF750FD0220FFF74DFD0020FFF74AFD10
S1130AE003206CE70420FFF739FD0720C8E7204600
S1130AF0FFF734FD0320C3E7012070472DE9F04FD1
S1130B0087B0A8B1A1B1064608680C4601F0E8FE1A
S1130B1048B92068194F0301FB5C73B108252846C6
S1130B2007B0BDE8F08F0546284607B0BDE8F08F52
S1130B300125284607B0BDE8F08F237A022B04D99B
S1130B400325284607B0BDE8F08FA37A012BF7D818
S1130B50637A022BF4D8D4F81C80B8F1000F07D0C4
S1130B6098F80030002B40F074836368002BE7D0C2
S1130B7001F00CFE054618B10A25D0E7780CFE1FDB
S1130B80E3682269B2607360002B49D0D3F808E0AF
S1130B90BEF1000FCCD0D3F800C0BCF1000FC7D019
S1130BA058680028C4D00368002BC1D0D9789A783B
S1130BB094F808904FF0020A65F387116AF38302F0
S1130BC065F3830165F34512D145D9709A7000F03D
S1130BD08882DA7865F30512DA70D4F800B0BBF1D4
S1130BE0000F02D0BBF1080FA2D18246BAE80F0071
S1130BF00DF10409A9E80F00C54BDAF80020C9F883
S1130C00002033F81B20DEF80030ADF80820002265
S1130C1060468DF80A2001A99847002883D12269EB
S1130C20002A4DD0D2F808C0BCF1000F80D0D2F811
S1130C300090B9F1000F3FF47BAF5268002A3FF4F3
S1130C4077AF1368002B3FF473AFD878997894F892
S1130C5008E04FF0020A00F03F0001F0F3016AF3EC
S1130C6083006FF34511D645D870997000F0EB827C
S1130C70D9786FF30511D970D4F800B0BBF1000F27
S1130C8003D0BBF1080F7FF453AF9246BAE80F00CC
S1130C900DF1040EAEE80F009E4BDAF80020CEF8FA
S1130CA0002033F81B20DCF80030ADF808200022C7
S1130CB048468DF80A2001A9984700287FF433AFED
S1130CC00120D4F8009003F033FF934AC9F11F09BF
S1130CD013684FF0010A0AFA09F123EA01031360C9
S1130CE0504603F001FF236803F1007303F56053DA
S1130CF05B0106221A77D4F80090B9F1000F00F0D6
S1130D00F681B9F1080F40F0FD810520FFF732FCB0
S1130D100620FFF72FFC0420FFF72CFC0720FFF729
S1130D2029FC09F1007303F560535B019A78D2B290
S1130D308DF803209A78D2B28DF803209A78D2B233
S1130D408DF803209A7802F07F029A709A7822F044
S1130D5004029A709A7822F040029A7023689DF8EF
S1130D60032003F1007303F560535B019A7802F0EA
S1130D70EF029A70236803F1007303F560535B017B
S1130D809A7802F0DF029A70236803F1007303F586
S1130D9060535B019A8A22F001029A82236803F16C
S1130DA0007303F560535B019A8A42F002029A824F
S1130DB02369002B00F03C82236803F1007303F5E0
S1130DC060535B019A8A22F470629A82236803F169
S1130DD0007303F560535B019A8A6FEA02526FEA6B
S1130DE012529A82226802F1007202F56052520194
S1130DF0938A43F004039382938A5907FCD42369AA
S1130E00002B00F0C081236803F1007303F56053E5
S1130E105B019A8A22F0F0029A82B8F1000F00F086
S1130E20288198F80230002B00F05081236803F1E8
S1130E30007303F560535B01DA7962F07F02DA71C3
S1130E4098F80330002B00F01E81236803F100732F
S1130E5003F560535B010021DA7942F02002DA7174
S1130E6019722368D4F81C8003F1007303F56053EE
S1130E705B015A7A22F001025A72236803F100736B
S1130E8003F560535B015A7B02F07F025A732368B7
S1130E9003F1007303F560535B015A7B22F04002B7
S1130EA05A73637A002B00F0FB80236803F100730C
S1130EB003F560535B011A7842F020021A70637ADA
S1130EC0012B236803F1007303F560534FEA4313C6
S1130ED01A780CBF42F0100222F010021A70237A22
S1130EE0012B00F03081022B236803F1007303F51A
S1130EF060534FEA43131A7822F040021A709A7929
S1130F000CBF22F0100242F010029A7106E000BFFA
S1130F10DCB4000040B5000000700440A37A012B4B
S1130F20236803F1007303F560534FEA43131A78FF
S1130F300CBF42F0080222F008021A70E37A002B78
S1130F4000F0B980236803F1007303F560535B017B
S1130F505A7B42F002025A73B8F1000F00F01E816E
S1130F6098F8001029B1022903D003290CBF0321EA
S1130F70002194E80500FFF7D3FB032800F0168155
S1130F8098F80130002B40F0ED80236803F10073E2
S1130F9003F560535B019A78997802F0020221F01C
S1130FA003010A439A70226802F1007202F560524A
S1130FB05201938A9B07FCD4938AC3F38003002BCA
S1130FC0FAD1918A41F001019182226802F1007202
S1130FD002F5605252014FF0010E918A21F008018E
S1130FE091822268A069616932604FEA021802F1B5
S1130FF0007207EB080C02F56052F061B161F36016
S113100033613375520107F808E08CF80130CCF8ED
S11310100460937843F0100393702468002C00F06C
S11310200281082C00F0FA800820FFF797FA002CC0
S113103000F0FC80082C18BF082000F0F280FFF7B5
S11310408DFA04F1007303F560535B019A78D2B210
S11310508DF804209A78D2B28DF804209A78D2B20E
S11310608DF804209A7842F040029A709DF804307A
S113107055E5236803F1007303F560535B01DA79E6
S113108002F07F02DA71236803F1007303F5605301
S11310905B010021DA7922F02002DA711972E0E6AC
S11310A0236803F1007303F560535B011A7822F09F
S11310B020021A7003E7236803F1007303F56053F9
S11310C05B015A7B22F002025A7345E7236803F15D
S11310D0007303F560535B01DA7902F07F02DA7181
S11310E0AEE6CAB2012161F30512DA7075E5504625
S11310F0FFF740FA0220FFF73DFA0020FFF73AFA23
S113110003200CE60820FFF735FAB9F1000FF1D0FF
S1131110B9F1080F3FF4FCAD0820FFF72BFAB9F141
S1131120000FEAD0B9F1080F3FF4F5AD0820FFF73E
S113113021FAB9F1000FE3D0B9F1080F18BF082064
S11311407FF4EDADEAE5236803F1007303F5605322
S11311505B011A7842F040021A709A7942F0100248
S11311609A71DBE6236803F1007303F560535B01B6
S11311709A78997802F0030242F0010221F0030107
S11311800A439A700FE7236803F1007303F5605371
S11311905B019A8A42F0F0029A823EE6414694E864
S11311A00500FFF7BDFA03287FF4EFAE236803F1CF
S11311B0007303F560535B019A78997802F0020298
S11311C021F003010A439A7073681BB19A68186886
S11311D0D3699847B3681BB19A681868D36998476C
S11311E0236803F1007303F560535B010120DA798E
S11311F002F07F02DA71256803F09AFC174A012095
S11312001368C5F11F0500FA05F10B43136003F0E1
S11312106BFC206801F0CCFA032580E40420FFF77E
S11312209DF907200BE72046FFF798F9032006E70E
S1131230236803F1007303F560535B019A8A42F457
S113124070629A82C2E5C1B2012060F30511D970BF
S113125012E5023B012B3FF673AC89E400700440B5
S1131260654B03EB0013F0B55C682268A76800F1D6
S1131270007502F1007202F5605305F560555B01DB
S11312806D0183B0EE8A997911F0100FC6F3042E24
S113129014BF01210221002F64D0BEF1000F0FD131
S11312A0E26816781A79D209FCD0B2B2DA812369DD
S11312B0E2685B1A11442361E16023B103B0F0BD1D
S11312C02369002BFAD1064600287DD0082832D0A5
S11312D00820FFF743F9AB78DBB28DF80630AB7822
S11312E0DBB28DF80630AB78DBB28DF80630AB7824
S11312F043F00403AB709DF80630002E79D0082E1D
S113130018BF08202CD0FFF735F9AB78DBB28DF885
S11313100730AB78DBB28DF80730AB78DBB28DF8F1
S11313200730AB7803F07F03AB709DF807200023F0
S1131330E36003B0F0BD0620FFF710F9AB78DBB231
S11313408DF80630AB78DBB28DF80630AB78DBB2C3
S11313508DF80630AB7843F00403AB709DF806308B
S11313600520D0E726694EB3CEF11006002E25DD08
S1131370E368012902F560520CBF93F800E0B3F86A
S113138000E052011379DB09FCD05FFA8EF3D381BC
S11313902269E368521A0F440B44BA4206F1FF363D
S11313A02261E36004D91EB1226802F10072E0E711
S11313B0236803F1007303F560535B011A7902F0AB
S11313C07F021A71236978E70220FFF7C7F8AB7828
S11313D0DBB28DF80630AB78DBB28DF80630AB7833
S11313E0DBB28DF80630AB7843F00403AB709DF8A4
S11313F00630012087E700BF780CFE1F2E4B03EB5D
S113140000132DE9F04FD3F804B0DBF80030DBF81B
S1131410042000F1007403F1007303F5605304F534
S113142060545B01640185B0E58A9B7913F0100F69
S1131430064605F01F0514BF4FF001084FF00208DF
S113144012B19BF8143023BB4FF0000AD146802719
S113145012E0238ADBF818209BB2DBB252B1DBF82E
S11314601C10009602938DF8047003919047B8F114
S1131470020F07D00AF1010A55456846E9D105B0C3
S1131480BDE8F08FCDF80890DBF81830684698472F
S1131490F0E7DBF8183000228BF81420002BD3D0AF
S11314A0DBF81C10009001208DF8040002920391D7
S11314B068469847C8E700BF780CFE1FF0B51C4E7D
S11314C00501731987B004465F6800282DD00828E9
S11314D00CBF06200820FFF74DF804F1007303F554
S11314E060535B019A78D2B28DF807209A78D2B211
S11314F08DF807209A78D2B28DF807209A7822F0D6
S113150004029A70BB699DF807204BB1FA690592F1
S113151000210222029404918DF80C2002A898471D
S1131520354400236B7007B0F0BD0220D3E700BF41
S1131530780CFE1F10B500F1007303F560535B01D6
S113154016491C8A1A7901EB001122F040024968FD
S11315501A711A7922F001021A711A79920684B06A
S1131560E4B20CD520238DF804308B692BB1CA6901
S11315700090039202946846984704B010BD1A790B
S1131580D20607D51B7FDB0754BF102308238DF831
S11315900430EAE704238DF80430E6E7780CFE1FF4
S11315A000F01F0101234009024A8B4042F8203019
S11315B0704700BF00E100E04309203300F01F0042
S11315C001220249824041F82320704700E100E0F3
S11315D0012343700370C37083700020704700BF01
S11315E0A1B198B12DE9F04F8DB00C460190086877
S11315F001F076F938B92668DFF87083370118F8F6
S113160007302BB108200DB0BDE8F08F01207047E2
S11316104FEA8609DFF858A309EB06030AEB8303B4
S11316209B78002BEED1304601F0B0F808B10A20C7
S1131630E9E76369002B44D09A680292002A00F01B
S11316401D811A680392002A00F018815B68002B40
S113165000F01481D3F800E0BEF1000F00F00E8119
S11316602268049212B1082A40F008819EF802C050
S11316709EF803B01D46022363F3830C0FCD0BF0D9
S1131680330B6FF3451C6FF3051B8EF802C08EF805
S113169003B00DF11C0EAEE80F002A68CEF800204E
S11316A00499AE4A039832F81110029A0023099360
S11316B01268ADF820108DF8223007A99047002851
S11316C0A1D12369002B00F0F1809A680392002ACB
S11316D000F0D4801A680492002A00F0CF805B687E
S11316E0002B00F0CB801A680292002A00F0C6801A
S11316F02268059212B1082A40F0C080029D95F834
S113170003C095F802B09E460CF03F0C022363F32D
S1131710830CBEE80F006FF3051C0BF0F30B85F888
S113172003C06FF3451B0DF11C0C85F802B0ACE847
S11317300F00DEF80020CCF800200599884A0498B0
S113174032F81110039A002309930DF11C0B12684F
S1131750ADF820108DF822305946904700287FF4C8
S113176052AF012003F0E4F97E4901230A68C6F16F
S11317701F0003FA00F022EA00020A6018460293EE
S113178003F0B2F9029B002E7AD0082E00F0838079
S11317900820FFF711FF002E75D0082E7ED00820F8
S11317A0FFF70AFF002E71D0082E7AD00820FFF729
S11317B003FF002E6DD0082E18BF082074D0FFF749
S11317C0FBFE06F1007303F560535B01664A9978EA
S11317D05269C9B28DF81A109978C9B28DF81A10E5
S11317E09978C9B28DF81A10997801F07F0199702F
S11317F0997821F004019970997821F04001997049
S11318009DF81A10998A21F001019982997902931D
S113181021F001019971597A21F001015972197865
S113182061F07F011970587B4FF0000E20F0010029
S1131830587359467046D4F80CB08DF81BE09047A5
S1131840C8B9BBF1000F16D00A2E14D8DDF81CC09D
S1131850DFF820E1029B019D01463EF801200BFBCD
S113186002F2BCFBF2F2013AFE2A01F1060120D990
S113187001300428F1D1304600F09AFF0120C2E67D
S11318801846FFF799FE0220FFF796FE0020FFF7A7
S113189093FE032093E70520FFF78EFE0620FFF753
S11318A08BFE0420FFF788FE072088E70DF11C0B50
S11318B057E7C0B28DF81B00D1B29DF81B205970B8
S11318C01978019521F0030102F003020A431A700A
S11318D09A7822F003029A702279E179012A0CBFE6
S11318E00422002209B942F01002617901292ED0A4
S11318F039B9A07942F0800101280CBF42F0C0023E
S11319000A465A73227A1AB99A7942F008029A71ED
S113191009EB0603019DE0699B000AEB0302F6B2A2
S1131920032108F80710A1692E7047444FF0010EF7
S1131930D16061692469106185F802E0A9606C6076
S11319400AF8036082F802E000207D605BE6A1797A
S11319500029D6D142F04002D3E700BF70B50000A1
S1131960B4B500000070044088B60000780CFE1F77
S1131970E008FE1F84B5000088B1F0B504780A2C95
S113198083B002D9042003B0F0BDA500434E2B1947
S113199006EB83039B7823B9072003B0F0BD012035
S11319A07047002C63D0082C6CD00820FFF704FE8D
S11319B0002C5FD0082C68D00820FFF7FDFD002C18
S11319C05BD0082C64D00820FFF7F6FD002C57D01C
S11319D0082C18BF08205ED0FFF7EEFD04F1007359
S11319E003F560535B012E4F9A78D2B28DF807202D
S11319F09A78D2B28DF807209A78D2B28DF807205F
S1131A009A7802F07F029A709A7822F004029A700F
S1131A1098784FEA041E254407EB0E0206EB850175
S1131A2020F04000002598708D7007F80E500120BA
S1131A305570556095609DF8073003F079F8194AA0
S1131A4001201368C4F11F0100FA01F10B43136074
S1131A5003F04AF8144B04EB440003EBC0001530C8
S1131A6003F018F8204600F0A3FE28468BE7012077
S1131A70FFF7A2FD0220FFF79FFD0020FFF79CFD6A
S1131A800320A9E70520FFF797FD0620FFF794FD43
S1131A900420FFF791FD07209EE700BFE008FE1F2A
S1131AA0780CFE1F00700440A809FE1F2DE9F04FBA
S1131AB00646B948347804EB840500EB850085B00C
S1131AC080789DF838A09DF83C7020B907252846F9
S1131AD005B0BDE8F08F98464FEA440BAF4B009138
S1131AE00BEB040003EBC0001530914602F0C2FF7B
S1131AF00099054620B10A25284605B0BDE8F08FB7
S1131B00002C00F02081082C00F00C810820FFF745
S1131B1053FD0099002C00F01B81082C00F0078174
S1131B200820FFF749FD0099002C00F01681082CCD
S1131B3000F002810820FFF73FFD0099002C00F01F
S1131B401181082C18BF082000F0FB800191FFF7D9
S1131B5033FD04F1007C0CF5605C4FEA4C1C8F49AA
S1131B609CF80220D2B28DF80D209CF80220D2B24B
S1131B708DF80D209CF80220D2B28DF80D209CF82F
S1131B80022002F07F028CF802209CF8022022F04E
S1131B9004028CF802209CF802200BEB0403DB0007
S1131BA0C81822F040028CF8022000F108020092CA
S1131BB00A460199D150009A9DF80DE0C2F80480BC
S1131BC04FF0000E00F11003A2F802E017F001023A
S1131BD018BF01229A70714ADF700BEB040302EB09
S1131BE0C30B002380F810A0C0F80490A0F808E00C
S1131BF08BF811309CF80D30019123F010038CF810
S1131C000D302046CDF800C000F000FF7368DDF809
S1131C1000C0019923B107F0FD02012A00F0A4805D
S1131C20B36813B1BA1E012A55D9002C00F0EA801A
S1131C30082C40F0B9800420CDF800C0FFF7B0FCB8
S1131C40DDF800C0CDF800C00720FFF7A9FCDDF8DF
S1131C5000C09CF80230DBB28DF80E309CF80230E4
S1131C60DBB28DF80E309CF80230DBB28DF80E300A
S1131C709CF8023043F040038CF802309DF80E309B
S1131C800520CDF800C0FFF78BFCDDF800C09CF800
S1131C900230DBB28DF80F309CF80230DBB28DF8E5
S1131CA00F309CF80230DBB28DF80F309CF8023014
S1131CB063F07F038CF802309DF80F309CF80230FB
S1131CC043F030038CF802307368002B00F0C180BD
S1131CD09CF80530FBE63278D3F808E03049186800
S1131CE0DEF804A0CDF800C053011FFA88F81944A7
S1131CF04A464346D0470146002840F0AF80022FB1
S1131D00DDF800C091D17368002B8ED09A681868F2
S1131D10576843460A46B847DDF800C0002884D017
S1131D200546D4E605200091FFF746FC0099009192
S1131D300620FFF741FC009900910420FFF73CFCCA
S1131D400099072002E701200091FFF735FC009974
S1131D5000910220FFF730FC009900910020FFF76A
S1131D602BFC00990320F1E696F800E0D3F808A0D4
S1131D700C4A1868DAF804A0CDF800C04FEA4E13F4
S1131D801A441FFA88F3D047DDF800C000283FF456
S1131D9047AF05469BE600BFE008FE1FA809FE1FEB
S1131DA005000740030007400820CDF800C0FFF7F6
S1131DB0F7FBDDF800C064B3082C3FF443AF082000
S1131DC0FFF7EEFBDDF800C09CF80230DBB28DF8C3
S1131DD00E309CF80230DBB28DF80E309CF80230E5
S1131DE0DBB28DF80E309CF8023043F040038CF8DF
S1131DF002309DF80E3054B3082C18BF08207FF42D
S1131E0040AF3DE72046CDF800C0FFF7C9FBDDF841
S1131E1000C0CDF800C00320FFF7C2FBDDF800C00E
S1131E209CF80230DBB28DF80E309CF80230DBB245
S1131E308DF80E309CF80230DBB28DF80E309CF831
S1131E40023043F040038CF802309DF80E3001203C
S1131E5017E7B368002B7FF43BAF38E6054636E658
S1131E6008B1012B01D0012070473AB110B50478B4
S1131E700A2C82B004D9042002B010BD1846704761
S1131E801C4613460A460221019100940021FFF7E3
S1131E900DFEF1E708B1012B01D0012070473AB1E2
S1131EA010B504780A2C82B004D9042002B010BD05
S1131EB0184670471C460094134601940022FFF70D
S1131EC0F5FDF3E770B582B09DF8184008B1012C18
S1131ED002D0012002B070BD2BB105780A2D05D9BE
S1131EE0042002B070BD204602B070BD03258DE809
S1131EF03000FFF7DBFDEDE7C34B03EB00122DE9E8
S1131F00F04F4700C14E55683B18DB00F2180446F9
S1131F10A868F358D2F8049092F8108089B002F1BE
S1131F20100E002800F0CD80012900F02481022940
S1131F3002D009B0BDE8F08F6B685B681B68DB8971
S1131F409BB2002BF5D104F1007505F560556D01C8
S1131F50AB7803F0CF03AB70002C00F07381082C36
S1131F6000F046810820FFF727FB002C00F06D816C
S1131F70082C00F040810820FFF71EFB002C00F025
S1131F806781082C00F03A810820FFF715FB002C2C
S1131F9000F06181082C18BF082000F03281FFF79F
S1131FA00BFBAB789A4A0594DBB28DF81030AB7812
S1131FB0DBB28DF81030AB78DBB28DF81030AB7833
S1131FC003F07F03AB70AB7823F00403AB70A97804
S1131FD004EB840302EB830321F04002AA70196925
S1131FE0079101228DF81820DB689DF8102005A8C0
S1131FF09847002C00F06081082C00F02E81082006
S1132000FFF7DAFA002C00F05A81082C00F028813E
S11320100820FFF7D1FAAB78DBB28DF81130AB783A
S1132020DBB28DF81130AB78DBB28DF81130AB78C0
S113203023F04003AB709DF81130002C00F0548164
S1132040082C00F022810820FFF7B6FAAB78DBB247
S11320508DF81230AB78DBB28DF81230AB78DBB28E
S11320608DF81230AB7803F07F03AB709DF812301B
S1132070002C00F04E81082C18BF082000F01A81B3
S1132080FFF79AFAAB78DBB28DF81330AB78DBB29A
S11320908DF81330AB78DBB28DF81330AB7823F0C6
S11320A00403AB709DF81330AB783C4403F0CF03CA
S11320B006EBC4001530AB7002F0ECFC09B0BDE8CF
S11320C0F08F686800287FF42FAF04F100750129B0
S11320D005F5605500F037814FEA451C50899CF89E
S11320E005C001305FFA8CFC1FFA80FB8EF804C037
S11320F0A2F80AB03A1906EBC202B2F808E0D068B6
S113210086450ED2927C002A00F03081B8F1010F8E
S113211000F01E823B1906EBC3030EF1010EA3F877
S113212008E03B1906EBC3035B7C2BB1B8F1010F4C
S113213004BFD94409F801CC3B1906EBC303DB689F
S11321405B4500F04B8101297FF4F3AE3B1906EBAC
S1132150C303DA7C91077FF5ECAE6D016A7B52070D
S113216003D51B89012B7FF6E4AE3C4406EBC40681
S113217001237374DDE6002C00F0CD80082C49D0D7
S113218004F1007505F560556D010820FFF714FA98
S1132190AB78DBB28DF80F30AB78DBB28DF80F3053
S11321A0AB78DBB28DF80F30AB7803F07F03AB7004
S11321B09DF80F30002C00F0C480082C18BF0820B4
S11321C03ED0FFF7EDF9AB78DBB28DF81430AB7885
S11321D0DBB28DF81430AB78DBB28DF81430AB7809
S11321E043F00403AB709DF8143009B0BDE8F08FE0
S11321F00520FFF7E1F90620FFF7DEF90420FFF7D9
S1132200DBF90720CBE600BF780CFE1FA809FE1FF0
S1132210E008FE1F6F4D0520FFF7CEF9AB78DBB267
S11322208DF80F30AB78DBB28DF80F30AB78DBB2C2
S11322308DF80F30AB7803F07F03AB709DF80F304F
S11322400620BEE70120FFF7B7F90220FFF7B4F933
S11322500020FFF7B1F90320A1E60420FFF7ACF951
S11322600720FFF7A9F9AB78DBB28DF81130AB7812
S1132270DBB28DF81130AB78DBB28DF81130AB786E
S113228023F04003AB709DF811300520FFF794F95B
S1132290AB78DBB28DF81230AB78DBB28DF812304C
S11322A0AB78DBB28DF81230AB7803F07F03AB7000
S11322B09DF812300620E3E62046FFF77DF903205F
S11322C0FFF77AF9AB78DBB28DF81130AB78DBB27B
S11322D08DF81130AB78DBB28DF81130AB7823F088
S11322E04003AB709DF811300120FFF765F9AB781E
S11322F0DBB28DF81230AB78DBB28DF81230AB78EC
S1132300DBB28DF81230AB7803F07F03AB709DF82D
S113231012300220B4E6304D0846FFF74DF9AB7891
S1132320DBB28DF80F30AB78DBB28DF80F30AB78C1
S1132330DBB28DF80F30AB7803F07F03AB709DF800
S11323400F3002203DE74FEA451B9BF805C05FFABA
S11323508CFC8EF804C09BF80D0010F0040F0CD018
S11323601089083248B9B2F802B0C3E66A01137999
S1132370DB09FCD0FF23D370CCE6002C00F0F18005
S1132380082C0CBF0520082001910093FFF714F9D5
S11323909BF80220009B0199D2B28DF80B209BF888
S11323A00220D2B28DF80B209BF80220D2B28DF815
S11323B00B209BF80220381902F07F0206EBC00EB6
S11323C08BF802209DF80B20BEF80AB09EF814C0CA
S11323D090E600BF00010740000007404FEA45189F
S11323E0009198F8023003F0CF0388F80230002CF3
S11323F000F0C980082C00F0B6800820FFF7DCF854
S11324000099002C00F0C380082C00F0B080082054
S1132410FFF7D2F80099002C00F0BE80082C00F0E1
S1132420AB800820FFF7C8F80099002C00F0B980B1
S1132430082C18BF082000F0A4800091FFF7BCF816
S113244098F802307D4A0099DBB28DF80C3098F888
S11324500230DBB28DF80C3098F80230DBB28DF824
S11324600C3098F8023003F07F0388F8023098F8B3
S1132470023023F0040388F8023004EB840398F854
S1132480020002EB830320F04002D3F80CC088F86A
S113249002209DF80C20BCF1000F50D01B6907935B
S11324A0012305948DF8183005A8E0470099002C05
S11324B000F0A180082C76D104200091FFF77CF86D
S11324C0009900910720FFF777F898F802300099F7
S11324D0DBB28DF80D3098F80230DBB28DF80D3098
S11324E098F80230DBB28DF80D3098F8023023F002
S11324F0400388F802309DF80D3005200091FFF765
S11325005BF898F802300099DBB28DF80E3098F839
S11325100230DBB28DF80E3098F80230DBB28DF861
S11325200E3098F8023003F07F0388F802309DF8EB
S11325300E3098F8023003F0CF0388F802303819CF
S113254006EBC0001530009102F0A4FA0099FAE5F8
S113255013F80EA06A011379DB09FCD082F803A0FA
S1132560D8E5012010E70520FFF726F8009900912F
S11325700620FFF721F8009900910420FFF71CF8CA
S11325800099072059E70120FFF716F800990091F8
S11325900220FFF711F8009900910020FFF70CF8D2
S11325A00099032049E70820FFF706F800993CB397
S11325B0082C86D00820FEF7FFFF98F80230009917
S11325C0DBB28DF80D3098F80230DBB28DF80D30A7
S11325D098F80230DBB28DF80D3098F8023023F011
S11325E0400388F802309DF80D302CB3082C18BF36
S11325F0082083D181E720460091FEF7DDFF009992
S113260000910320FEF7D8FF98F802300099DBB25E
S11326108DF80D3098F80230DBB28DF80D3098F853
S11326200230DBB28DF80D3098F8023023F040030D
S113263088F802309DF80D3001205FE7E008FE1FA6
S11326401C4B10B500EB800203EB820384B0DA6804
S1132650044682B100F1007303F560535B010190FD
S11326601979890614D41979080715D505238DF825
S1132670083001A89047104B04EB440003EBC00062
S1132680153002F007FA204600F092F804B010BDAD
S113269006238DF80830ECE7597BC90603D50323DC
S11326A08DF80830E5E71B79DB0644BF07238DF876
S11326B00830DEE7E008FE1FA809FE1F43092033A7
S11326C000F01F0001220249824041F82320704794
S11326D000E100E0064A0301D35C012B05D0032B83
S11326E000D070470121FFF707BCFEF7B9BD00BF5A
S11326F0780CFE1F03010C4AD35C012B10B5044671
S11327000ED0032B09D004F1007000F56050400195
S1132710037903F0C703037110BDFFF791FFF2E7DC
S1132720FEF708FFEFE700BF780CFE1F064A03011F
S1132730D35C012B05D0032B00D070470221FFF797
S1132740DBBBFEF7BBBE00BF780CFE1F02010E49C7
S11327508A5C012A05D0032A00D070470021FFF7C4
S1132760CBBB10B50446FEF749FE04F1007303F534
S113277060535B011A7922F040021A711A7922F02F
S113278001021A7110BD00BF780CFE1F092808B59C
S113279007D00730C0B202F081F9082806D0002023
S11327A008BD102002F07AF90828F8D10A2008BDE3
S11327B0092803D00730C0B202F084B9102002F017
S11327C081B900BF30B5044683B0002878D008280A
S11327D06BD00820FFF772FF002C74D0082C67D050
S11327E00820FFF76BFF002C70D0082C63D0082062
S11327F0FFF764FF002C6CD0082C18BF08205DD0B4
S1132800FFF75CFF04F1007303F560535B010025DF
S11328109A78D2B28DF807209A78D2B28DF8072030
S11328209A78D2B28DF807209A7802F07F029A70D3
S11328309A7822F004029A709A7822F040029A70F0
S11328409DF807209A7802F0EF029A709A7802F0C5
S1132850DF029A7099789A7801F0020122F003025B
S11328600A439A70DA7902F07F02DA71DA7922F097
S11328702002DA7101201D7202F05AF9164A012071
S11328801368C4F11F0100FA01F10B43136002F055
S11328902BF92046FFF78CFF104A24011319155514
S11328A05D705D609D6003B030BD0520FFF706FFDD
S11328B00620FFF703FF0420FFF700FF07209FE730
S11328C00120FFF7FBFE0220FFF7F8FE0020FFF7D0
S11328D0F5FE032094E700BF00700440780CFE1F4F
S11328E009288CBF04200020704700BF00B50020D9
S11328F083B0FFF7EFFE012002F060F8034BD3F83A
S113290004330193019B03B05DF804FB00600040B5
S113291000B5082083B0FFF7DDFE052002F04EF875
S1132920034BD3F814330193019B03B05DF804FB0C
S11329300060004000B5002083B0FFF707FF0020CF
S113294002F03CF8034BD3F800330193019B03B02E
S11329505DF804FB0060004000B5082083B0FFF779
S1132960F5FE042002F02AF8034BD3F81033019348
S1132970019B03B05DF804FB0060004000B500203B
S113298083B0FFF7B7FE032002F018F8034BD3F827
S11329900C330193019B03B05DF804FB006000401D
S11329A000B5082083B0FFF7A5FE072002F006F863
S11329B0034BD3F81C330193019B03B05DF804FB74
S11329C00060004000B5002083B0FFF7AFFE022096
S11329D001F0F4FF034BD3F808330193019B03B0D8
S11329E05DF804FB0060004000B5082083B0FFF7E9
S11329F09DFE062001F0E2FF034BD3F81833019348
S1132A00019B03B05DF804FB0060004010B5044670
S1132A1068B108280AD1052001F0D0FF042001F094
S1132A20CDFF0720BDE8104001F0C8BF10BD012054
S1132A3001F0C4FF204601F0C1FF0320BDE81040AF
S1132A4001F0BCBF012907D029B9074A13781843FC
S1132A5000F0300010707047034A137803F030031D
S1132A6023EA000010707047000D0440012900F4AF
S1132A707F4208D04FF4803181400023D2080448BB
S1132A8019431150704781408BB20021F6E700BF13
S1132A9008000440000A4001024B41EA0242C250CD
S1132AA0704700BF08000440000A400100F1804064
S1132AB000F104100068000C704700BF034B000ACB
S1132AC003EB401341EA02425A6070470800044095
S1132AD0030AC0B200EB03139B0003F1804303F528
S1132AE081231868C0F34000704700BF000A40010A
S1132AF000F1804000F10410006880B2704700BF0C
S1132B00000A400100F1804000F58020006880B296
S1132B10704700BF000A400100F1804000F58020AA
S1132B2003681B0C1B04194301607047014B00220E
S1132B301A807047980AFE1F030AC0B200EB031301
S1132B409B0003F1804370B403F58123EFF31084F9
S1132B5072B6174A108880B218B9164D4026E8702C
S1132B60EE701088013080B2108084F31088CC039A
S1132B70186805D520F4803021F4803418601C6076
S1132B801960EFF3108172B6138809489BB21BB128
S1132B900388013B9BB2038013889BB21BB9054A8F
S1132BA08020D370D07081F3108870BC704700BF50
S1132BB0980AFE1F000D0440020AC3B203EB02137D
S1132BC09B0003F1804303F581231B6829B1064967
S1132BD043F004031940FFF7AFBF034923F0040394
S1132BE01940FFF7A9BF00BFD5FC011F01234370A3
S1132BF00370C37083700020704700BFA8B138B55C
S1132C00054601F0C5FF2B88002463B16B6803EB14
S1132C10C40253F834109088FFF78EFF01342B88D8
S1132C20A4B2A342F2D8002038BD0120704700BFEF
S1132C3010B540F60733984286B0044602D9032003
S1132C4006B010BD012204AB02A804910191ADF8B5
S1132C5008200393ADF8144001F09AFF204601992F
S1132C60FFF76AFF002006B010BD00BF40F607332F
S1132C70984202D903231846704739B110B50C465F
S1132C80FFF726FF00232070184610BD0123F2E74A
S1132C90B0F5306F02D903231846704739B110B527
S1132CA00C46FFF723FF00232080184610BD0123A4
S1132CB0F2E700BF0AB903207047B0F5306F08B5DA
S1132CC001D9032008BD0B46114022EA0302FFF795
S1132CD0E1FE002008BD00BF012901D9032070478F
S1132CE040F60732904208B501D9032008BDFFF72A
S1132CF0BDFE002008BD00BF0AB903207047B0F52F
S1132D00306FFAD870B514460E460546FFF7F8FE44
S1132D1004EA0603184383B266EA0401284619400C
S1132D20FFF7F8FE002070BD012901D90320704788
S1132D3040F60732904208B501D9032008BDFFF7D9
S1132D403BFF002008BD00BFB0F5306F02D903235C
S1132D501846704739B110B50C46FFF7A5FE00239D
S1132D602080184610BD0123F2E700BF38B540F6B5
S1132D7007339842044601D9032038BD0D4681B17A
S1132D8000F47F40FFF790FEE4B2012202FA04F35C
S1132D909BB2184083420BBF002000202A70287089
S1132DA038BD012038BD00BFB0F5306F01D9032014
S1132DB07047002AFBD008B50B46114022EA0302F3
S1132DC0FFF77CFE002008BD40F60733984201D986
S1132DD0032070470129FBD810B5C3B200F47F4427
S1132DE008D001229A4092B200212046FFF766FEE5
S1132DF0002010BD994089B20022F6E7202801D9AD
S1132E0003207047012908B501D9032008BDFFF745
S1132E1019FE002008BD00BF38B1037A094A52F8F0
S1132E202320824203D0072070470120704703F516
S1132E30800303F5F0631B020020DA6A22F001022A
S1132E40DA6270479C0AFE1F38B1037A094A52F8C5
S1132E502320824203D0072070470120704703F5E6
S1132E60800303F5F0631B020020DA6A42F00102DA
S1132E70DA6270479C0AFE1F40B139B1037A094AED
S1132E8052F82320824203D0072070470120704764
S1132E9003F5800303F5F0631B0200209B6C0B60B9
S1132EA0704700BF9C0AFE1F20B1034B1B680360E0
S1132EB000207047012070474CB6000060B159B142
S1132EC070B5264A037A52F82350854282B018BF5F
S1132ED0072003D002B070BD0120704703F58003C2
S1132EE003F5F0631B0200225B6E019201338B60D9
S1132EF02B7A03F5800303F5F0631B020C46DB6AAF
S1132F00C3F30263013BDBB2042B9CBF144A52F8A7
S1132F102360144B4FF003005B6901A988BF0126AD
S1132F209847019BB3FBF6F363602B7A03F58003A8
S1132F3003F5F0631B021B6B03F0010323702B7A70
S1132F4003F5800303F5F0631B02D86A10F0010057
S1132F5015BF0020012320732373BBE79C0AFE1FC7
S1132F6000B6000088B6000038B1184B027A53F856
S1132F702230834203D0072070470120704710B4E9
S1132F8072B61A7A02F5800202F5F062120200208B
S1132F90D16AD46A24F00104D4621A7A02F5800258
S1132FA002F5F062120201F0010190641B7A03F54C
S1132FB0800303F5F0631B02DA6A22F001020A437C
S1132FC0DA6262B65DF8044B704700BF9C0AFE1FCC
S1132FD02DE9F04383B002AC002544F8045D324D82
S1132FE0884681466D69214603201F461646A84738
S1132FF0B8F1060F28D8DFE808F03C043E484C50EE
S11330002B00019826A3D3E90023A9FB000103F0B8
S113301039F902460B4600254FF0FF349D4208BFA4
S113302094424FF000011ED290084FEA930E40EAFA
S11330308370754501F1010108BF8442024673465D
S1133040C9B210D20529EFD1032003B0BDE8F08343
S11330504FF47A72002102FB09F20B46019803F047
S113306011F90246002100203970326003B0BDE836
S1133070F0834A46F6E701980C4A0023A9FB0001B5
S113308003F000F902460B46C5E701984FF47A7243
S1133090F3E7019AA9FB0223BDE700214A46DCE7D6
S11330A000CA9A3B0000000088B6000040420F00AE
S11330B058B130B51E4B047A53F82430834283B0A0
S11330C018BF072003D003B030BD0120704709B9F1
S11330D00320F8E70846002511460DF1030301AA71
S11330E001958DF80350FFF773FF02460028EAD1DB
S11330F004F5800303F5F0631B02D96ADC6A24F04B
S11331000104DC62DC6A9DF8035024F0E06405F0FD
S1133110070544EA0564DC62019C013C5C669A6430
S1133120DC6A01F0010224F001010A43DA62CAE711
S11331309C0AFE1F19B972B1012A2BD070474B1C8F
S11331401BD000F5800000F5F06000027AB1012A7E
S113315036D08165704700F5800000F5F06000020C
S1133160036B23F4403343F4003303637047036B6E
S113317023F44033036341657047BAB1012ADDD1BA
S113318000F5800000F5F0600002036B43F040732B
S11331900363704700F5800000F5F0600002036BE4
S11331A023F0407343F000730363704700F580001D
S11331B000F5F0600002036B43F44033036370478F
S11331C0036B23F040730363C3E700BF012938B5E1
S11331D014461D460CD01FD302291BD1134B984211
S11331E01CD0A0FB02010023104A03F04BF807E0B7
S11331F0642813D0A0FB02010023642203F042F8E8
S1133200002908BFB0F1FF3F08D000238B4208BF5C
S1133210844205D2032038BD904204D14FF0FF30E0
S11332202860002038BD0021EAE700BFA086010025
S113323020B3F0B5047A0D2C83B002D9012003B079
S1133240F0BD04F5800404F5F064240216461F461C
S1133250626E02AB05460846002143F8041D0132A4
S11332603146FFF7B3FF04460028E8D1287A0199D4
S11332703A46FFF75FFF204603B0F0BD01207047D8
S113328040B138B52C4D037A55F82340844203D01D
S1133290072038BD0120704703F5800303F5F06370
S11332A01B0226499A6B22F0C0029A63237A03F523
S11332B0800303F5F0631B02DA6A22F00102DA628A
S11332C0237AC95C4AB2072A29DD03F5800303F592
S11332D0F0631B02DA8E22F48072DA86237A03F515
S11332E0800303F5F0631B029A8E22F480729A869F
S11332F0207A4630C0B201F0E5FB1148247A036815
S113330055F824100C4D0122A24023EA0203036065
S113331081B100200860486045F8240038BD520996
S1133320203201F01F01012306488B4040F822306F
S1133330237ACAE7084638BD9C0AFE1F3CB6000043
S1133340D40AFE1F00E100E02DE9F04184B000231F
S11333508DF80730029319B110B14B7C0D2B03D9B2
S1133360012004B0BDE8F0814633DFB2044638469C
S11333700D4601F093FB18B1082004B0BDE8F081BC
S11333806868297A02AA0DF10703FFF721FE0646B1
S1133390002840F0D0806B69002B00F09781B2497F
S11333A06A7C8A56072A00F38C81AA6962602360CA
S11333B06E7C26722B78697CAC4A012B42F8214042
S11333C004D1AB490A68B34013430B60012001F0F8
S11333D0AFFB072E00F2B480A64A936823F02003C3
S11333E09360012001F080FB237A03F5800303F549
S11333F0F0631B024FF0FF31DA6A22F00102DA6255
S1133400207A00F5800303F5F0631B0200224FF4D9
S11334102547012607281F601A615A615A61DA613B
S11334201A625A629A62DA621E635A639A63DA63B0
S11334301A649A64D96419655965996559669966D7
S1133440C3F88820C3F88C1011D85A64D966196758
S1133450D9675967C3F880109967C3F88410C3F813
S11334609010C3F89410C3F89810C3F8A0202B78D8
S11334700026022B039669D094F808809DF8073043
S1133480029908F5800404F5F064240203F00702AD
S1133490E36A23F4E023E362236B43F00203236330
S11334A0236B43F001032363236B23F002032363A1
S11334B0E36A23F0E06343EA026301390022E36232
S11334C06166A264EF6937B13B78002B40F08880D5
S11334D0BB78002B45D1A36B23F0C00343F040031A
S11334E0A3636B69002B00F0BA806B7C5E4A624E6A
S11334F0D25C53B203F1C0075B099B0056F8270066
S113350003F1604302F01F0103F5614301228A4085
S113351020F4803146F82710C3F880211A60A87C73
S113352000283FF41EAFE36A002043F00103E36286
S113353004B0BDE8F081384601F0C4FA304610E723
S11335404C4A936823F0400393604AE7E868297C77
S1133550029A03ABFFF73AFE00287FF402AF039E02
S11335608AE7A28EF978287801F0010322F010028C
S113357042EA0312A286A38E01F0030123F0C003E2
S113358043EA8113A386A38E012843F00C03A38688
S113359000F08280A38E00287AD023F00C0343F03D
S11335A00803A386A38E23F0030343F00103A38639
S11335B0236C23F4402343F48023236440463146A0
S11335C00122FFF7B7FD236B002E73D123F0407364
S11335D043F000732363A38E43F48073A3867AE7D6
S11335E0E18E787895F800E000F0010321F01001F5
S11335F041EA0311E186E38E00F0030023F0C003E7
S113360043EA8013E386E38EBEF1010F43F00C031B
S1133610E38637D0E38EBEF1000F2FD023F00C03E6
S113362043F00803E386E38E23F0030343F001032E
S1133630E386236C23F4403343F48033236440460D
S11336403146FFF777FD236B6EBB23F4403343F41D
S113365000332363E38E43F48073E38638E72B78E7
S1133660012B7FF45CAF40E73CB600009C0AFE1FD0
S1133670D40AFE1F007004400060004023F00303DE
S1133680E386E7E7E264E38E43F00303E386E1E7DE
S113369023F00303A3869EE700232365A38E43F050
S11336A00303A38697E7711C15D023F440332363E7
S11336B06665CFE7721C12D023F040732363A665BE
S11336C089E7384601F0FEF90B204AE62A78012AF8
S11336D07FF46EAE63E643F440332363BAE743F00A
S11336E04073236377E700BF024B23F820100020C8
S11336F0704700BF10100440024A002342F82030F3
S11337001846704710100440034A137863F07F038F
S113371013700020704700BF00100440034A137860
S113372003F07F0313700020704700BF00100440B3
S113373020B1034B1B6803600020704701207047D1
S11337406CB6000058B1012807D1084B0020402175
S11337504122187119711A71704701207047034B87
S113376040214122987099709A707047001004406B
S1133770E8B130B40F4A536823F48043536045687A
S11337805DB1836803EB85055C8813F8041B0A4A62
S113379089000A44AB421480F6D1007828B1074A64
S11337A0137863F07F031370002030BC704701204E
S11337B0704700BF00700440101004400010044023
S11337C0084B094A094810B40021094C1A604FF407
S11337D000425C60D86059619A601A615DF8044BDC
S11337E0704700BFAC08FE1F002D310100366E018A
S11337F000127A0019491A4A0B8D03F0030332F8B8
S1133800132052B310B40C8D16480B8D14F0100F06
S113381014BF0021032107EE902A50F821205DF8FF
S1133820044B07EE102AF8EE676AB8EE477AC3F342
S1133830052387EE267A07EE903AF8EEE77AF7EE5C
S1133840006A77EEA67AF6EE006A67EEA67A67EE6D
S1133850277AFCEEE77AC0ED057A704700E0014074
S113386070B60000AC08FE1F0E4AB2F8FE339BB2DD
S113387043F4254343F00103A2F8FE3392F81334D2
S1133880000100F0300003F0CF03034382F8133447
S1133890B2F8FE3345F6FE210B4043F42543A2F86B
S11338A0FE33704700E001400E4AB2F8FE339BB28B
S11338B043F4254343F00103A2F8FE3392F8813424
S11338C0400000F0020003F0FD03034382F881345A
S11338D0B2F8FE3345F6FE210B4043F42543A2F82B
S11338E0FE33704700E00140264AB2F8FE339BB233
S11338F043F4254343F00103A2F8FE3305280BD813
S1133900DFE800F02028300338181E4A92F83230DD
S113391023F0010382F832301A4AB2F8FE3323F45A
S1133920145323F001035B045B0C43F42543A2F816
S1133930FE337047134A92F82A3023F0010382F8C9
S11339402A30E9E70F4A92F8363023F0010382F86F
S11339503630E1E70B4A92F8383023F0010382F85D
S11339603830D9E7074A92F8903423F0010382F8FB
S11339709034D1E7034A92F8803423F0010382F8AB
S11339808034C9E700E00140264AB2F8FE339BB216
S113399043F4254343F00103A2F8FE3305280BD872
S11339A0DFE800F02028300338181E4A92F832303D
S11339B043F0010382F832301A4AB2F8FE3323F49A
S11339C0145323F001035B045B0C43F42543A2F876
S11339D0FE337047134A92F82A3043F0010382F809
S11339E02A30E9E70F4A92F8363043F0010382F8AF
S11339F03630E1E70B4A92F8383043F0010382F89D
S1133A003830D9E7074A92F8903443F0010382F83A
S1133A109034D1E7034A92F8803443F0010382F8EA
S1133A208034C9E700E00140032810D0052808D0FD
S1133A3008B100207047094B93F83C0000F00100E6
S1133A407047064B93F83C00C0F340107047034B9B
S1133A5093F83C00C0F3C000704700BF00E0014091
S1133A60052834D8DFE800F00B131B232B03194B74
S1133A7093F82A0000F0010080F001007047154B14
S1133A8093F8360000F0010080F001007047114BFC
S1133A9093F8380000F0010080F0010070470D4BEE
S1133AA093F8900400F0010080F001007047094B86
S1133AB093F8320000F0010080F001007047054BDC
S1133AC093F8800400F0010080F0010070470020AA
S1133AD0704700BF00E00140024B1A6A93F8263099
S1133AE0704700BF00E001400E4AB2F8FE339BB2BB
S1133AF043F4254343F00103A2F8FE3392F8133450
S1133B0000F0010023F0400343EA801382F81334E9
S1133B10B2F8FE3345F6FE210B4043F42543A2F8E8
S1133B20FE33704700E001400E4AB2F8FE339BB208
S1133B3043F4254343F00103A2F8FE3392F8A23084
S1133B4001F00F0123F00F03194382F8A210B2F819
S1133B50FE3345F6FE210B4043F42543A2F8FE3321
S1133B60704700BF00E0014005288CBF0020012001
S1133B70704700BF06288CBF00200120704700BF9B
S1133B80024B93F8260000F00700704700E0014064
S1133B900E4AB2F8FE339BB243F4254343F00103CB
S1133BA0A2F8FE3392F8263000F0070023F0070352
S1133BB0184382F82600B2F8FE3345F6FE210B4086
S1133BC043F42543A2F8FE33704700BF00E00140F0
S1133BD0034B1B8D13F0100F0CBF03200020704704
S1133BE000E001400F4A1049B2F8FE3311F81010FA
S1133BF09BB243F4254343F00103A2F8FE33138D33
S1133C0001F0010123F0100343EA01131385B2F814
S1133C10FE3345F6FE210B4043F42543A2F8FE3360
S1133C20704700BF00E0014080B60000114AB2F8BE
S1133C30FE3330EE000A9BB243F42543FCEEC07A17
S1133C4043F00103A2F8FE3317EE903A118D013BC5
S1133C5021F47C5103F03F0341EA03231385B2F8B6
S1133C60FE3345F6FE210B4043F42543A2F8FE3310
S1133C70704700BF00E001400E4A0F49B2F8FE331E
S1133C8031F810109BB243F4254343F00103A2F82A
S1133C90FE33138D01F0030123F003030B4313855B
S1133CA0B2F8FE3345F6FE210B4043F42543A2F857
S1133CB0FE33704700E0014078B60000F0B5164AC4
S1133CC0B2F8FE339BB243F4254343F00103A2F858
S1133CD0FE3390F800C090F802E007794679457801
S1133CE0C478817900236CF30E336EF3061367F303
S1133CF0124366F31E7365F30A2364F3020361F34C
S1133D001A631362B2F8FE3345F6FE210B4043F406
S1133D102543A2F8FE33F0BD00E001400E4B1A6AC1
S1133D20C2F3023202701A6AC2F3022242701A6AA1
S1133D30C2F3021282701A6A02F00702C2701A6A8F
S1133D40C2F3024202711A6AC2F3027242711B6A1E
S1133D50C3F302638371704700E001404378022B90
S1133D6016D8D0ED017AB3EE0E7AF4EEC77AF1EEFE
S1133D7010FA0DDCB2EE047AF4EEC77AF1EE10FA22
S1133D8006D40078032805D0B0FA80F040097047C3
S1133D900020704701207047062828D8DFE800F08B
S1133DA0090E13181D220400124B186AC0F3026096
S1133DB07047104B186AC0F3023070470D4B186AF5
S1133DC0C0F3022070470B4B186AC0F3021070470F
S1133DD0084B186A00F007007047064B186AC0F3D6
S1133DE002407047034B186AC0F30270704700200A
S1133DF0704700BF00E0014008B5FFF7CDFF054B59
S1133E00054A93F8263003F0070352F8233023FAC7
S1133E1000F008BD00E00140AC08FE1F024B53F85F
S1133E202000C840704700BFAC08FE1F0F4BB3F81A
S1133E30FE2392B242F4254242F00102A3F8FE238B
S1133E4093F8402062F07F0283F8402093F84020EA
S1133E5042F0010283F84020B3F8FE2345F6FE2128
S1133E600A4042F42542A3F8FE23704700E00140D3
S1133E700F4BB3F8FE2392B242F4254242F0010202
S1133E80A3F8FE2393F8402022F0010283F8402097
S1133E9093F8402002F07F0283F84020B3F8FE2319
S1133EA045F6FE210A4042F42542A3F8FE2370475A
S1133EB000E00140024B93F84000C009704700BF86
S1133EC000E00140024B93F8410000F0010070470C
S1133ED000E00140114A92F8410010F0010001D1C4
S1133EE000207047B2F8FE339BB243F4254343F0FD
S1133EF00103A2F8FE3392F8413023F0010382F863
S1133F004130B2F8FE3323F4145323F001035B046D
S1133F105B0C43F42543A2F8FE33704700E00140F4
S1133F200E4AB2F8FE339BB243F4254343F0010337
S1133F30A2F8FE3392F8303000F0010023F00103C0
S1133F40184382F83000B2F8FE3345F6FE210B40E8
S1133F5043F42543A2F8FE33704700BF00E001405C
S1133F600C4AB2F8FE339BB243F4254343F00103F9
S1133F70A2F8FE3392F8523043F0010382F8523033
S1133F80B2F8FE3345F6FE210B4043F42543A2F874
S1133F90FE33704700E001400C4AB2F8FE339BB296
S1133FA043F4254343F00103A2F8FE3392F8523060
S1133FB023F0010382F85230B2F8FE3345F6FE21B5
S1133FC00B4043F42543A2F8FE33704700E0014060
S1133FD0164BB3F8FE2392B242F4254242F001029A
S1133FE0A3F8FE2393F83E2002F07F0283F83E20DC
S1133FF093F83E2001F0070122F0700242EA011218
S113400083F83E2093F83E2000F0070022F00702D8
S1134010104383F83E00B3F8FE2345F6FE210A4020
S113402042F42542A3F8FE23704700BF00E001409C
S11340300C4AB2F8FE339BB243F4254343F0010328
S1134040A2F8FE3392F83E3063F07F0382F83E30EC
S1134050B2F8FE3345F6FE210B4043F42543A2F8A3
S1134060FE33704700E001400C4AB2F8FE339BB2C5
S113407043F4254343F00103A2F8FE3392F83E30A3
S113408003F07F0382F83E30B2F8FE3345F6FE219A
S11340900B4043F42543A2F8FE33704700E001408F
S11340A00C4AB2F8FE339BB243F4254343F00103B8
S11340B0A2F8FE3392F8533043F0010382F85330F0
S11340C0B2F8FE3345F6FE210B4043F42543A2F833
S11340D0FE33704700E001400C4AB2F8FE339BB255
S11340E043F4254343F00103A2F8FE3392F853301E
S11340F023F0010382F85330B2F8FE3345F6FE2173
S11341000B4043F42543A2F8FE33704700E001401E
S11341100E4AB2F8FE339BB243F4254343F0010345
S1134120A2F8FE3392F8243000F0070023F0700365
S113413043EA001382F82430B2F8FE3345F6FE2138
S11341400B4043F42543A2F8FE33704700E00140DE
S11341500B4B01380022B0F1807F19681A600CD231
S113416010B4084C5860F02084F823000721012083
S11341709A6019605DF8044B7047196010467047E7
S113418010E000E000ED00E00C4B1A7902F00E02A2
S113419042F0F0021A711A7A00F0010022F00402CF
S11341A042EA80021A721A7A22F0080242EAC00035
S11341B018721A7942F0F1021A7170470020004017
S11341C0094B1A7942F0F1021A711A7A00F00100CF
S11341D022F0100242EA00121A721A7902F00E0258
S11341E042F0F0021A71704700200040054A92F82C
S11341F01C3100F0070023F00703184382F81C0168
S1134200704700BF00C00140024B93F81C0100F04E
S11342100700704700C0014000207047002070472D
S113422000207047024B1B6803600020704700BFEA
S1134230E4B6000038B50C460546FFF7A1FC28702B
S11342402046FFF76BFD002038BD00BF70B5002489
S11342500C600D460646FFF78DFC10B9032420467A
S113426070BD3046FFF7C8FD2860204670BD00BF12
S113427010B5FFF727FE68B1FFF782FC0446FFF78D
S1134280A7FC052C04D0032C04D140F2971010BDD8
S11342900328FAD0FFF71EFE002010BD08B5FFF773
S11342A03FFE002008BD00BF08B5FFF759FE0020FF
S11342B008BD00BF08B5FFF76FFE002008BD00BFB2
S11342C008B5FFF785FE002008BD00BF08B5FFF75D
S11342D0AFFE002008BD00BF08B5FFF7C5FE0020F3
S11342E008BD00BF08B5FFF7DBFE002008BD00BF16
S11342F008B5FFF7F1FE002008BD00BF08B5FFF7C1
S113430007FF002008BD00BF00B583B04FF6FF7360
S11343100193FFF755FA0420FFF736FB04E0019BF5
S11343203BB1019B013B01930420FFF799FB00285B
S1134330F5D1019B23B94FF4CD7003B05DF804FBB4
S113434005210420FFF7C8FB0020FFF7ADFA002089
S113435003B05DF804FB00BF10B50446FFF704FC8E
S113436008B9032010BD631E012B0FD9042C0DD0F6
S11343702CB1032C03D0052C01D0002010BD204605
S1134380FFF76EFB68B94FF4C87010BD2046FFF705
S113439067FB40F29113002814BF18464FF4C8700D
S11343A010BD2046FFF740FB40F2931300280CBFDA
S11343B018464FF4C97010BD70B582B00E4605465C
S11343C0FFF7D2FB10B9032002B070BD052D2846BB
S11343D00FD0FFF745FB18B140F2911002B070BD49
S11343E06A1E012A4ED9042D25D0BDB1032D3AD021
S11343F0EAE7FFF735FBC8B9B6B1FFF7C1FB0528FB
S1134400EAD03046FFF7AAFC0028DCD03078FFF76A
S113441027FB00283BD14FF4CA70D5E7FFF704FB14
S113442080B340F29310CFE70120CDE7FFF7E2F924
S113443040F29110C8E72846FFF756FA4FF6FF738B
S1134440019304E0019B3BB1019B013B01930420D8
S1134450FFF706FB0028F5D0019B002B0CBF4FF49F
S1134460CD700020B0E72846FFF7DEFA04460028A6
S1134470D7D1FFF7F9F92046FFF736FB2846092183
S1134480FFF752FB2846FFF72FFA00209CE7284647
S1134490FFF7CAFA04460028C3D13078FFF7A2FB1D
S11344A07078FFF7E9FB96ED010AFFF7BFFBFFF712
S11344B0A1F92846FFF718FA204685E710B582B01F
S11344C00446FFF751FB10B9032002B010BDFFF7FB
S11344D057FB844216D0052810D0012C15D0204655
S11344E0FFF7BEFA40B1022C39D0042C1AD094B193
S11344F0032C10D0052C0ED00020E6E7FFF768FB54
S1134500A042EAD140F29110DFE7FFF7D3FC08B3F1
S113451040F29510D9E72046FFF786FAF8B940F241
S11345209310D2E72046FFF72FFA4FF6FF7301935B
S113453004E0019B3BB1019B013B01930420FFF785
S11345408FFA0028F5D1019B002B0CBF4FF4CD70DE
S11345500020BAE72046FFF783FA0028CCD0204693
S1134560FFF712FAC8E700BF70B50C460546FFF71F
S1134570FBFA08B9032070BD002C3BD0A179637904
S11345808B42F7D363788B42F4D323788B42F1D3F5
S113459023798B42EED32846FFF740FC284B984200
S11345A0064631D80020FFF7EFFD0020FFF708FE94
S11345B0244B9E4231D8FFF727FE0026FFF7E0FA8E
S11345C0854207D0C5B1032D16D0052D14D0284639
S11345D0FFF7DEFA2046FFF771FB00F0D1F81A4B23
S11345E01860FFF711FE864224D03046FFF7FEFD27
S11345F0002070BD012070BD2846FFF715FA002881
S1134600E5D14FF4C97070BD0120FFF7BDFD0F4B1C
S11346109E4211D90120FFF7D3FD0D4B9E4294BF5A
S113462001260226FFF7F0FD8642C7D93046FFF780
S1134630DDFDC3E7002070BD0020FFF7C1FDECE7FE
S1134640FF0D2707FFB3C404180DFE1FFFC1EB0BBA
S1134650FF67890900B583B071B148B101460120F3
S113466000F0AAF8FFF7E2FB002003B05DF804FBBA
S1134670012003B05DF804FBFFF724FC20B14FF4E4
S1134680CB7003B05DF804FB0190FFF7F1FB0198D8
S1134690EBE700BF08B90320704738B50D46044660
S11346A000F06EF807EE900AF8EE676AF7EE007A0B
S11346B0C7EEA66A07EE905A07EE104AF8EE677A3C
S11346C0B8EE477A66EEA77AC7EE277AFCEEE77A69
S11346D017EE900AFFF73CFD00280CBF12200020C3
S11346E038BD00BF70B5234D82B02B6898470021B8
S11346F06E680320B04701211F4AAC698DF8011090
S1134700032301928DF800300320A047B0F5C97F40
S1134710FAD169460520B047184A92F8003143F0AF
S1134720010382F800310520A047B0F5C97FFAD112
S113473000220124022369468DF806208DF80130F9
S11347408DF802308DF805308DF80040EB688DF857
S113475003408DF80440052098472B6D04209847AA
S11347606B6A20469847AB6A9847AB6C984702B08F
S113477070BD00BF88B600000000A04100C0014029
S113478000B583B002A9002341F8043D034B062081
S11347905B699847019803B05DF804FB88B6000094
S11347A0044B002103F1300243F8041B9342FBD174
S11347B0704700BFD80AFE1F024B43F820100020A8
S11347C0704700BFD80AFE1F08B57A4BB3F84031D2
S11347D0D90700F1C180774BB3F840319A0700F153
S11347E0B080744BB3F840315B0700F19F80714B8C
S11347F0B3F84031180700F18E806E4BB3F84031A6
S1134800D9067CD46B4BB3F84001C0F38010002868
S113481069D1684BB3F840311A0658D4654BB3F8E4
S11348204031DB0547D4634BB3F84031980536D4A7
S1134830604BB3F84031590524D45E4BB3F8403192
S11348401A0512D45B4BB3F84031DB0400D408BD25
S1134850594BDB6A002B40F0AA80564AB2F830313B
S113486043F48053A2F8303108BD534B9B6A002BAC
S113487040F09A804F4AB2F8303143F40063A2F812
S11348803031DFE74C4B5B6A002B40F08A80494AA9
S1134890B2F8303143F48063A2F83031CDE7464BAF
S11348A01B6A002B7AD1434AB2F8303143F40073C7
S11348B0A2F83031BCE7404BDB69002B6BD13D4A99
S11348C0B2F8303143F48073A2F83031ABE73A4B9D
S11348D01B68002B5CD1374AB2F8303143F08003B7
S11348E0A2F830319AE7344B5B68002B4ED1314A41
S11348F0B2F8303143F04003A2F8303189E72E4B4F
S11349009B69002B3FD12B4AB2F8303143F010039E
S1134910A2F8303176E7284B5B698BBB254AB2F8A5
S1134920303143F00803A2F8303166E7224B1B69AB
S11349301BBB204AB2F8303143F00403A2F83031F3
S113494055E71D4B9B68ABB91A4AB2F8303143F0B6
S11349500203A2F8303144E7174BDB683BB9154A30
S1134960B2F8303143F00103A2F8303133E70320C9
S11349709847F4E702209847E6E704209847D8E7E9
S113498005209847CAE706209847BCE79847AEE752
S1134990002098479FE70720984790E7082098470A
S11349A081E70920984772E70A20984762E70B20BD
S11349B0984752E700600040D80AFE1F002808DB31
S11349C0800000F1804000F5C640036823F4803382
S11349D0036070472DE9F04F1D4B1E4F1E48DFF852
S11349E088A0DFF88880DFF888E01C4E1C4C1D4945
S11349F0E0224FF4BA7C40F2751583F800234FF49B
S1134A00BB7BC7F800C040F2771983F801234FF449
S1134A10D27C056040F2A5174FF4D37583F80223C6
S1134A2040F2A710CAF800B083F80323C8F8009036
S1134A3083F80423CEF800C083F80523376083F895
S1134A400623256083F807230860BDE8F08F00BFC4
S1134A5000E100E000630040046300401463004090
S1134A60186300401C630040086300400C6300406E
S1134A7010630040012202E0C0E8432F43B1D0E8B4
S1134A804F3F13F0FF0FF7D0BFF32F8F082070476D
S1134A901846704700230370704700BF084B01217C
S1134AA0034402E0C3E8401F40B1D3E84F2F12F0A3
S1134AB0FF0FF7D0BFF32F8F08207047704700BF58
S1134AC0080BFE1F014B00221A547047080BFE1FEF
S1134AD0044B002103F1780203F8011F9342FBD138
S1134AE0704700BF070BFE1F0E4B33F8102092B225
S1134AF02AB133F81020013A92B223F8102033F887
S1134B0010309BB263B9084A0849B2F8FE3331F851
S1134B1010109BB243F4254323EA0103A2F8FE33A9
S1134B20704700BF800BFE1F00E00140E8B60000A4
S1134B30104A32F810309BB2ABB910B40E4C0F4986
S1134B40B4F8FE3331F810109BB243F425430B4301
S1134B50A4F8FE3332F810305DF8044B01339BB2F5
S1134B6022F81030704732F8103001339BB222F82B
S1134B7010307047800BFE1F00E00140E8B60000D3
S1134B80024B00221A805A809A807047800BFE1FC5
S1134B90F8B50788AFB341681B4C002601EBC70E7C
S1134BA04FF0010C37468888002334F813208242E2
S1134BB016D00133032BF8D108317145F3D1F643F4
S1134BC0F6B20120FFF7B4FF104A92F8BB341F433A
S1134BD03E4082F8BB640120BDE8F840FFF784BF83
S1134BE00A6802F0B852B2F1807F05D00CFA03F5DE
S1134BF046EA0502D6B2DCE70CFA03F21743FFB229
S1134C00D7E7FF26DDE700BFF0B6000000E0014073
S1134C10A0F101000028FBD1704700BF38B50D4654
S1134C2001FB00F4FFF7ACFDB0F5004F01D8012DF6
S1134C3019D00F4AB2FBF0F0844208D24FF47A72D2
S1134C4002FB04F3B3FBF0F0800808D138BD4FF445
S1134C507A72B4FBF0F002FB00F08008F6D0BDE8F5
S1134C603840FFF7D5BF2846BDE83840FFF7D0BF2E
S1134C7000CA9A3B0C4A08B513688BB1033020F084
S1134C8003000A491844884202D81060184608BD37
S1134C9001F0C6FD0C2303604FF0FF33184608BD36
S1134CA0034B1360EAE700BF880BFE1F6021FE1F61
S1134CB06011FE1FFEE700BF08B500F005F800F024
S1134CC03DF9FEE7704700BF204A08B5D2F88830A6
S1134CD043F47003C2F888300020FFF7F3FFFFF7B6
S1134CE05FFDFFF7FFFCFFF74BFFFDF71FFF184BBE
S1134CF018481B689847184A184B9B1A05D0134448
S1134D00002103F8011D9A42FBD11548154BC01A26
S1134D1007D0154A184412F8011B03F8011B8342FB
S1134D20F9D1FFF72DFD114B18600120FFF7CAFFE1
S1134D30FFF7CEFEFFF74EFE0D4B0E481B6898475B
S1134D400020BDE8084000F017B800BF00ED00E007
S1134D50C8B5000098B70000C408FE1F5C11FE1F10
S1134D60AC08FE1F0000FE1F94BE0000180DFE1FBD
S1134D7050B60000F8B6000000F044B882B04FF01E
S1134D80C84300210091009A1A7D61F300021A754C
S1134D901A8DD0B1202161F30F221A851A8D4FF09C
S1134DA0C04142F080021A850A68009240F6FF7200
S1134DB01946019204E0019B013B0193019A12B14F
S1134DC08A6A5206F7D502B070474FF0C04142F4E8
S1134DD07F421A850A6800921A8D60F3C7121A85F9
S1134DE00A68009240F6FF711A46019105E0019BA2
S1134DF0013B0193019B002BE5D0936A5B06F6D43B
S1134E0002B07047F8B5494A13684FF0C84423F01C
S1134E1040031360237A6FF304032372237DFF227C
S1134E2043F0010323752261237D662243F00103CD
S1134E3023752261237D992243F0010323752261A6
S1134E40237D43F00103237501212320FFF7E6FEB0
S1134E509F232361364B22691A7022695A70216993
S1134E60227D997042F0010222751A78EF2A04D04B
S1134E7000221A705A709A70F8BD5A78402AF7D1F5
S1134E809A78172AF4D1052020612A4923690B70E6
S1134E90227D294B42F001023526227526612269C2
S1134EA01A70227D42F001022275228D042565F3D9
S1134EB0030222852279502765F3030222712761B8
S1134EC0227D42F0010222751A78012742F0020283
S1134ED01A7027610A7822611A782261227D3A4386
S1134EE022752561227D3A432275228860F30202ED
S1134EF02280206122690A70227D3A43227526614C
S1134F0022691A70237D3B432375238843F04003B1
S1134F102380A369DB074FF0C845FAD40120FFF7CB
S1134F202DFF2B7D6FF300032B75F8BD007004403B
S1134F308C0BFE1F900BFE1F940BFE1F08B500F098
S1134F40C5FB002008BD00BF0020704770B50122DA
S1134F500D46D021064600F003FB044660B9224604
S1134F603046294600F016FB044600B970BD0548DA
S1134F7001F0F0FC204670BD034801F0EBFC204634
S1134F8070BD00BFB4BB00009CBB000030B585B051
S1134F900DF103010446FFF7D9FF30B99DF8033042
S1134FA0602B18BF4FF6FF7001D005B030BD104D17
S1134FB02A88ADF80420034601A92046022200F005
S1134FC0C3FA0028F1D1AA88ADF80820034602A943
S1134FD02046022200F0B8FA03460028E5D12A89C7
S1134FE0ADF80C20204603A9022200F0ADFADCE75C
S1134FF090BB00002DE9F04F01228FB00C468821B0
S1135000054600F0ADFA10B10FB0BDE8F08F0346CD
S113501007A92846192200F0B1FA0028F4D128463D
S1135020E121012200F09CFA03460028ECD1284635
S113503005A9072200F0A2FA0028E5D19DF8263040
S11350409DF8238001939DF822109DF82930029346
S11350509DF828309DF82190039341EA08219DF89A
S113506020509DF81DB09DF81FA09DF827E09DF8E5
S11350701C709DF81E60019BE18003999DF825C07A
S11350809DF8242045EA092547EA0B2746EA0A2623
S113509043EA0E2388469DF831E0A58002999DF8E5
S11350A030509DF82D90278042EA0C229DF82C70F8
S11350B09DF82FC066809DF82E609DF82BA09DF86A
S11350C02AB0228148EA0121638145EA0E259DF830
S11350D01830A18147EA092746EA0C269DF83410C6
S11350E0A5829DF833909DF832509DF817809DF865
S11350F019C09DF815E09DF81420217603F00F01E6
S11351001B094BEA0A2B278266829DF816709DF8CC
S11351101A60A4F80EB045EA092541EA081143EAE9
S11351200C1342EA0E22E582E1832384628327770B
S113513084F8226068E700BF2DE9F0410B4682B095
S11351401546FA2101221E885F889C88804600F05B
S113515007FA034610B102B0BDE8F081404601A948
S1135160032200F00BFA0028F5D19DF805209DF8E4
S113517004309DF80610120242EA03430B43C6EBC7
S1135180132202FB02F2121324B276003FB204FB94
S113519002F4C6EBD316A41307FB06F604EBE623CE
S11351A02B6002B0BDE8F08110B582B0144601AAAC
S11351B0FFF7C2FF70B9019B9FED077A03EB8303EE
S11351C080331B1207EE903AF8EEE77AC7EE877A3F
S11351D0C4ED007A02B010BD0000C8422DE9F04FC2
S11351E091B04D8ACC88039592468D8ACB8A0094DF
S11351F00FAA04950E894C89B1F80C90B1F80E8071
S1135200B1F810B005930546FFF796FF10B111B041
S1135210BDE8F08F2846F721012200F0A1F90346EA
S11352200028F4D128460EA9032200F0A7F98446E9
S11352300028ECD10F989DF838E0B0F5FA324FEA27
S1135240E07141F1FF33194610461346CDE90601DA
S113525003FB01F3A0FB000101EB4303CDE90801CB
S1135260099332B2DDE9086724B2E517314601FB40
S113527005F104FB0711A6FB0445DDE90667384682
S113528002FB00F0D31706FB03030698A2FB00679A
S11352903B440D441F46200A40EA05603B033203A9
S11352A01218009F9DF839404FEA252143EA16530E
S11352B04B410032A2FB070143F5004307FB0311F6
S11352C04E10CF1756EA07039DF83A2002D14FF645
S11352D0FF709CE74FEA0E4343EA0425079B0FFA4D
S11352E088F01543069AC11700FB03F302FB013350
S11352F0A0FB0201CDE90001019A1A4401920FFAC0
S11353008BF2D31719462D11019BC5F58015104654
S11353105C042A46EB17CDE90C2300220023CDE9D7
S11353200A23009B44EAD3340794DDE908230D9C47
S1135330E4070B94CDE90C01144604FB01F4DDE908
S11353400C010099CDF800C000FB0344089B4904FC
S1135350A3FB0023069123440FFA89F80B9C4FEA20
S1135360C801DDE9068944EA55040B94EC0718EBFF
S113537002080A9449EB0309DDE90A231CEB08043B
S113538041EB0905121B63EB0503901843EB030182
S11353908018594114461D4682018B0143EA9063EB
S11353A0801859418B00820043EA9073101943EB33
S11353B005018B00820043EA9073104600191946D8
S11353C032463B46694100F041FFBDF91440BDF946
S11353D010204F13460B46EAC14604FB07F3E517BA
S11353E006FB0533A4FB06451D4406FB05F507FB38
S11353F0045702FB01FEA6FB0445D31700FB03EE92
S11354003D44A2FB0023660E734446EAC5164FEAE8
S1135410D2488019BDF90C204FEA656748EA433841
S113542079414FEAE34918EB000849EB0109D31726
S11354304FEA18201D01140140EA096045EA12757B
S113544000194FEA2921694100F0C2FEDFED057A17
S1135450DDF800C007EE100AC7EE277A6046CAEDF1
S1135460007AD4E60000C8462DE9F04F83B0924696
S113547001AA91F818904C8B0D7FB1F81E800E8C08
S113548091F822708346FFF757FE10B103B0BDE8D0
S1135490F08F5846FD21012200F062F803460028EF
S11354A0F4D158466946022200F068F80028EDD18C
S11354B0019B9DF800E09DF80110A3F5963303FBD2
S11354C005F57AB203FB02F2ED1205F500459212DE
S11354D041EA0E2105FB02F24FEA085809B2921282
S11354E036B224B2C8EB813802F5001203FB1683EE
S11354F004FB02F202F5005203F580439213DB131E
S113550002FB03F3DA1302FB02F2D21109FB02F9E4
S1135510A3EB291323EAE373B3F1C85FA8BF4FF0E9
S1135520C8531B1307EE903AFAEECB7ACAED007A11
S1135530ACE700BF00207047024B9A6818681268F5
S11355405968104704B7000030B4044CA568AD682E
S11355500146AC46206830BC604700BF04B7000079
S113556030B4054CA568AD68014613462068AC46C6
S1135570012230BC604700BF04B70000044B10B4E4
S11355809C68186864680123A4465DF8044B60476E
S113559004B70000054B9A68186810B454680123D6
S11355A0A44608225DF8044B604700BF04B700001E
S11355B0024B9A68186812685968104710B70000BF
S11355C0F0B5124B83B004465B69002001A99847EB
S11355D008B103B0F0BD0E4B019D1F689E683846AC
S11355E0F36898470028F4D10A4BA3FB0535AD09AD
S11355F005FB04F402E0009B9C42EAD93369384677
S1135600694698470028F6D003B0F0BD88B600007C
S113561010B70000D34D621038B5084B084C9A6897
S113562018689368002525700122984720B92378CB
S1135630002BFCD0012038BD284638BD44B70000FB
S11356405411FE1F38B5084B084C9A681868536803
S1135650002525700122984720B92378002BFCD01F
S1135660012038BD284638BD44B70000500DFE1F48
S113567000207047094B9A6818681268596810B579
S11356809047044640B9064B1B68014602229868BD
S11356904FF4806301F066F9204610BD44B7000062
S11356A02804FE1F0379022B08D0802B02D0012B83
S11356B000D07047034B01221A707047024B01223D
S11356C01A707047500DFE1F5411FE1F30B591B073
S11356D0FFF7CEFF00B1FEE7FFF7CCFF00B1FEE716
S11356E0584801F0F1F8584801F0EEF8574801F035
S11356F0EBF8574801F0E8F8FFF75AFF18B155489E
S113570001F028F9FEE7544801F024F9534801F068
S1135710DBF8FFF70FFF18B14E4801F01BF9FEE765
S11357204D4801F017F94E4801F0CEF8FFF704FF99
S113573018B1484801F00EF9FEE7474801F00AF9AC
S1135740484801F0C1F87620FFF7FEFB18B1414844
S113575001F000F9FEE7404801F0FCF8424801F08E
S1135760B3F87620FFF712FC18B13A4801F0F2F8CA
S1135770FEE7394801F0EEF83C4801F0A5F8762040
S11357800DF10F01FFF7E2FB18B1324801F0E2F826
S1135790FEE79DF80F10364801F096F8354801F001
S11357A093F807A97620FFF725FC18B1294801F0E2
S11357B0D1F8FEE7284801F0CDF82F4801F0CAF8E7
S11357C02E4801F081F807A904AA7620FFF7ECFC23
S11357D007A905AA7620FFF701FD06AA07A97620E6
S11357E0FFF742FE049800F0BDF90022244B044662
S11357F00D4600F00BFA0022224B00F031FB002290
S1135800214B00F051F822462B46CDE900011F48F8
S113581001F05AF8059800F0A5F902460B461C4819
S113582001F052F8069800F09DF902460B4619481B
S113583001F04AF8184801F047F84FF4FA70FFF7FE
S1135840BFFEC0E7CCBB0000D4BB0000D8BB000047
S1135850E0BB0000F8BB000004BC00000CBC00006E
S113586020BC000030BC000048BC00005CBC000050
S113587068BC000074BC00009CBC0000A0BC00001C
S1135880000022400000144000004040A4BC00007E
S1135890C4BC0000E0BC0000FCBC000081F000417E
S11358A002E000BF83F0004330B54FEA41044FEA01
S11358B0430594EA050F08BF90EA020F1FBF54EA9C
S11358C0000C55EA020C7FEA645C7FEA655C00F038
S11358D0E2804FEA5454D4EB5555B8BF6D420CDD09
S11358E02C4480EA020281EA030382EA000083EA8C
S11358F0010180EA020281EA0303362D88BF30BD2C
S113590011F0004F4FEA01314FF4801C4CEA113181
S113591002D0404261EB410113F0004F4FEA0333E0
S11359204CEA133302D0524263EB430394EA050F6B
S113593000F0A780A4F10104D5F1200E0DDB02FADA
S11359400EFC22FA05F2801841F1000103FA0EF26E
S1135950801843FA05F359410EE0A5F120050EF134
S1135960200E012A03FA0EFC28BF4CF0020C43FA65
S113597005F3C01851EBE37101F0004507D54FF072
S1135980000EDCF1000C7EEB00006EEB0101B1F5C2
S1135990801F1BD3B1F5001F0CD349085FEA300008
S11359A04FEA3C0C04F101044FEA445212F5800F13
S11359B080F09A80BCF1004F08BF5FEA500C50F1B0
S11359C0000041EB045141EA050130BD5FEA4C0C93
S11359D0404141EB010111F4801FA4F10104E9D11C
S11359E091F0000F04BF01460020B1FA81F308BF13
S11359F02033A3F10B03B3F120020CDA0C3208DDDF
S1135A0002F1140CC2F10C0201FA0CF021FA02F1B9
S1135A100CE002F11402D8BFC2F1200C01FA02F129
S1135A2020FA0CFCDCBF41EA0C019040E41AA2BF4E
S1135A3001EB0451294330BD6FEA04041F3C1CDA16
S1135A400C340EDC04F11404C4F1200220FA04F036
S1135A5001FA02F340EA030021FA04F345EA0301E0
S1135A6030BDC4F10C04C4F1200220FA02F001FAA2
S1135A7004F340EA0300294630BD21FA04F0294624
S1135A8030BD94F0000F83F4801306BF81F48011BD
S1135A900134013D4EE77FEA645C18BF7FEA655C30
S1135AA029D094EA050F08BF90EA020F05D054EA02
S1135AB0000C04BF1946104630BD91EA030F1EBF07
S1135AC00021002030BD5FEA545C05D1400049410B
S1135AD028BF41F0004130BD14F580043CBF01F5FE
S1135AE0801130BD01F0004545F0FE4141F47001E4
S1135AF04FF0000030BD7FEA645C1ABF19461046BF
S1135B007FEA655C1CBF0B46024650EA013406BFBF
S1135B1052EA033591EA030F41F4002130BD00BF7E
S1135B2090F0000F04BF0021704730B54FF480643B
S1135B3004F132044FF000054FF0000150E700BFBC
S1135B4090F0000F04BF0021704730B54FF480641B
S1135B5004F1320410F0004548BF40424FF0000108
S1135B603EE700BF42004FEAE2014FEA31014FEA4B
S1135B7002701FBF12F07F4393F07F4F81F060519A
S1135B80704792F0000F14BF93F07F4F704730B509
S1135B904FF4607401F0004521F0004120E700BF9C
S1135BA050EA010208BF704730B54FF000050AE023
S1135BB050EA010208BF704730B511F0004502D524
S1135BC0404261EB41014FF4806404F132045FEA26
S1135BD0915C3FF4DCAE4FF003025FEADC0C18BFCB
S1135BE003325FEADC0C18BF033202EBDC02C2F1C1
S1135BF0200300FA03FC20FA02F001FA03FE40EA53
S1135C000E0021FA02F11444C1E600BF70B54FF052
S1135C10FF0C4CF4E06C1CEA11541DBF1CEA135534
S1135C2094EA0C0F95EA0C0F00F0DEF82C4481EA9C
S1135C30030621EA4C5123EA4C5350EA013518BFBC
S1135C4052EA033541F4801143F4801338D0A0FBA9
S1135C5002CE4FF00005E1FB02E506F00042E0FB56
S1135C6003E54FF00006E1FB03569CF0000F18BF5C
S1135C704EF0010EA4F1FF04B6F5007F64F5407404
S1135C8004D25FEA4E0E6D4146EB060642EAC62197
S1135C9041EA55514FEAC52040EA5E504FEACE2E04
S1135CA0B4F1FD0C88BFBCF5E06F1ED8BEF1004F07
S1135CB008BF5FEA500E50F1000041EB045170BD83
S1135CC006F0004646EA010140EA020081EA0301C7
S1135CD0B4EB5C04C2BFD4EB0C0541EA045170BDC3
S1135CE041F480114FF0000E013C00F3AB8014F13D
S1135CF0360FDEBF002001F0004170BDC4F1000486
S1135D00203C35DA0C341BDC04F11404C4F1200506
S1135D1000FA05F320FA04F001FA05F240EA020061
S1135D2001F0004221F0004110EBD37021FA04F697
S1135D3042EB06015EEA430E08BF20EAD37070BD51
S1135D40C4F10C04C4F1200500FA04F320FA05F0B0
S1135D5001FA04F240EA020001F0004110EBD370B2
S1135D6041F100015EEA430E08BF20EAD37070BD22
S1135D70C4F1200500FA05F24EEA020E20FA04F3FB
S1135D8001FA05F243EA020321FA04F001F00041AA
S1135D9021FA04F220EA020000EBD3705EEA430E1B
S1135DA008BF20EAD37070BD94F0000F0FD101F04A
S1135DB00046400041EB010111F4801F08BF013C83
S1135DC0F7D041EA060195F0000F18BF704703F0C1
S1135DD00046520043EB030313F4801F08BF013D48
S1135DE0F7D043EA0603704794EA0C0F0CEA135504
S1135DF018BF95EA0C0F0CD050EA410618BF52EABE
S1135E004306D1D181EA030101F000414FF00000C3
S1135E1070BD50EA410606BF1046194652EA4306D1
S1135E2019D094EA0C0F02D150EA013613D195EA45
S1135E300C0F05D152EA03361CBF104619460AD18D
S1135E4081EA030101F0004141F0FE4141F4700197
S1135E504FF0000070BD41F0FE4141F4780170BD87
S1135E6070B54FF0FF0C4CF4E06C1CEA11541DBFEC
S1135E701CEA135594EA0C0F95EA0C0F00F0A7F8EE
S1135E80A4EB050481EA030E52EA03354FEA01311B
S1135E9000F088804FEA03334FF0805545EA13132E
S1135EA043EA12634FEA022245EA111545EA1065F6
S1135EB04FEA00260EF000419D4208BF964244F18D
S1135EC0FD0404F5407402D25B084FEA3202B61AAC
S1135ED065EB03055B084FEA32024FF480104FF480
S1135EE0002CB6EB020E75EB030E22BFB61A7546F4
S1135EF040EA0C005B084FEA3202B6EB020E75EB87
S1135F00030E22BFB61A754640EA5C005B084FEAEE
S1135F103202B6EB020E75EB030E22BFB61A7546BB
S1135F2040EA9C005B084FEA3202B6EB020E75EBC6
S1135F30030E22BFB61A754640EADC0055EA060E87
S1135F4018D04FEA051545EA16754FEA06164FEACA
S1135F50C30343EA52734FEAC2025FEA1C1CC0D176
S1135F6011F4801F0BD141EA00014FF000004FF003
S1135F70004CB6E711F4801F04BF01430020B4F1C4
S1135F80FD0C88BFBCF5E06F3FF6AFAEB5EB030C7C
S1135F9004BFB6EB020C5FEA500C50F1000041EB79
S1135FA0045170BD0EF0004E4EEA113114EB5C0446
S1135FB0C2BFD4EB0C0541EA045170BD41F4801119
S1135FC04FF0000E013C90E645EA060E8DE60CEA21
S1135FD0135594EA0C0F08BF95EA0C0F3FF43BAF3E
S1135FE094EA0C0F0AD150EA01347FF434AF95EAF5
S1135FF00C0F7FF425AF104619462CE795EA0C0FD9
S113600006D152EA03353FF4FDAE1046194622E7A5
S113601050EA410618BF52EA43067FF4C5AE50EA7F
S113602041047FF40DAF52EA43057FF4EBAE12E76F
S113603080F0004002E000BF81F0004142001FBF39
S11360405FEA410392EA030F7FEA226C7FEA236C42
