S00F0000535049546573742E7372656389
S1130000B836FE1FE14B00009D460000DD4B0000AA
S1130010DD4B0000DD4B0000DD4B00000000000064
S1130020000000000000000000000000DD4B0000A4
S1130030DD4B000000000000DD4B0000DD4B000044
S1130040B92C00004D2C0000912D0000252D00003E
S1130050DD2C0000712C0000B52D0000492D00009E
S1130060012D0000952C0000D92D00006D2D0000FD
S1130070000000000000000000000000000000007C
S1130080000000000000000000000000000000006C
S1130090000000000000000000000000000000005C
S11300A0000000000000000000000000000000004C
S1130400FFFFFFFFFFFDFFFFFFFFFFFFFFFFFFFFFA
S1130410FFFFFFFFFFFFFFFFFFFFFFFFFFFFFFFFE8
S1130420FFFFFFFFFFFFFFFFFFFFFFFFFFFFFFFFD8
S1130430FFFFFFFFFFFFFFFFFFFFFFFFFFFFFFFFC8
S1130440FFFFFFFFFFFFFFFFFFFFFFFFFFFFFFFFB8
S1130450FFFFFFFFFFFFFFFFFFFFFFFFFFFFFFFFA8
S1130460FFFFFFFFFFFFFFFFFFFFFFFFFFFFFFFF98
S1130470FFFFFFFFFFFFFFFFFFFFFFFFFFFFFFFF88
S1130480FFFFFFFFFFFFFFFFFFFFFFFFFFFFFFFF78
S1130490FFFFFFFFFFFFFFFFFFFFFFFFFFFFFFFF68
S11304A0FFFFFFFFFFFFFFFFFFFFFFFFFFFFFFFF58
S11304B0FFFFFFFFFFFFFFFFFFFFFFFFFFFFFFFF48
S11304C0FFFFFFFFFFFFFFFFFFFFFFFFFFFFFFFF38
S11304D0FFFFFFFFFFFFFFFFFFFFFFFFFFFFFFFF28
S11304E0FFFFFFFFFFFFFFFFFFFFFFFFFFFFFFFF18
S11304F0FFFFFFFFFFFFFFFFFFFFFFFFFFFFFFFF08
S113050010B5054C237833B9044B13B10448AFF349
S113051000800123237010BD000CFE1F00000000AA
S113052028B30000084B10B51BB108480849AFF3C5
S113053000800848036803B910BD074B002BFBD0AB
S1130540BDE81040184700BF0000000028B30000B9
S1130550040CFE1FC808FE1F0000000000F01F016D
S113056001234009024A8B4042F82030704700BF03
S113057000E100E04309203300F01F00012202499A
S1130580824041F82320704700E100E020B319B312
S113059030B54368002283B005460C464A600A60C1
S11305A0E3B19A68AAB192699AB11868694690470A
S11305B080B9009B6360A868A0B183684BB19B6954
S11305C03BB100686946984720B9009B236003B09B
S11305D030BD012003B030BD012070474FF0FF3320
S11305E04B60E8E74FF0FF332360F3E70123037028
S11305F043708370C3700020704700BF08B338B5E0
S113060004460068104A0301D35C012B05D0002581
S1130610A56102F073FA284638BD63682BB19A6865
S11306206AB1186858B1D3699847A3682BB19A681E
S11306302AB1186818B1D36998472068E7E7012000
S113064038BD0120704700BFC811FE1F58B151B119
S113065070B40568124E2C01345D013C042C04D99D
S1130660052070BC70470120704705F1007505F541
S113067060556D01AC79E40608D562B143689A68A7
S11306805AB11868B0FA80F04009EAE71943CB0779
S1130690F3D50320E5E71046E3E70120E1E700BFD7
S11306A0C811FE1F2DE9F041134614464268054661
S11306B00E46FFF7CBFF88B994B12B68174F03F1AF
S11306C0007101F5605149011B018A79FB5C12F04C
S11306D0100F14BF01220222012B04D0BDE8F081C7
S11306E02046BDE8F08168680028F7D0B4FBF2F436
S11306F0836800684FF6FF77BC4228BF3C465F68BA
S1130700022A4FF0010E3246A3B285F814E0BC462B
S11307100CBF10311131BDE8F0416047C811FE1F14
S11307200AB90320704700297CD12DE9F04F514BC1
S1130730514F5E6985B042F21078144601900D461F
S11307408B46C1464FF0FF0A002003A9B0470BEBCC
S11307504B03002840F0898037F81330039ADFF800
S113076018C104FB03F3B2FBF3FE0EF1FF31BEF13B
S1130770000F12D003FB0EF3520AFF2909FB02F209
S11307804FEA532309D8B2FBF3F2A2F51C53103BF2
S1130790434502DA98468A465D460BF1010BBBF1EC
S11307A00D0FD1D142F2107398455ED0019B03F135
S11307B0007303F560535B0105EB45059A780CEB78
S11307C0450C5FFA8AFA22F003029A7083F801A0BA
S11307D0DA799CF8021022F0400201F0010142EAA9
S11307E08112DA71DA799CF8031022F0100201F018
S11307F0010142EA0112DA71DA799CF8041022F05C
S1130800080201F0010142EAC102DA719CF80520F4
S11308101C7802F0030124F003020A431A7005B0A5
S1130820BDE8F08F00F1007000F560504001FF2337
S11308304370C37923F04003C371C37923F00803E1
S1130840C371037823F003030370837823F0030355
S113085043F002038370C37902290CBF43F01003F1
S113086023F01003C37100207047032005B0BDE8D6
S1130870F08F00BFC0AB000050AA0000F0B51346D3
S113088083B01546826804460E46FFF7DFFE10B9B2
S1130890E06810B1082003B0F0BD236833491A01A1
S11308A08F188A5C012AF6D1797801B97A7003F13C
S11308B0007303F560535A01A168937913F0100F84
S11308C014BF01230223002949D0012D47D9022B4B
S11308D0A5EB03004FF6FF77B5FBF3F5236105F1B4
S11308E0FF330CBF0E320F328D68BB42304428BF39
S11308F03B46E0606D6808689BB23146A847002813
S1130900C9D1226802F1007202F560525201937853
S113091043F0200393702468042C25D0082C21D0A4
S1130920002C0CBF01200C20FFF718FE04F100730B
S113093003F560535B0100209A78D2B28DF807204A
S11309409A78D2B28DF807209A78D2B28DF807201F
S11309509A7862F07F029A709DF807309BE7E66010
S11309602561D4E70920DFE70520DDE7C811FE1F74
S113097068B370B50468042C82B005460E4600F0D6
S1130980B180082C25D0002C00F0B7800C20FFF794
S1130990F1FD042C00F0A980082C1DD0002C00F0DF
S11309A0AF800C20FFF7E6FD042C00F0A180082C9A
S11309B015D0002C00F0A7800C20FFF7DBFD042CE1
S11309C000F09980082C0DD00C2064B99EE0012021
S11309D070470920FFF7CEFD0A20FFF7CBFD082062
S11309E0FFF7C8FD0B20FFF7C5FD04F1007303F505
S11309F060535B019A78D2B28DF806209A78D2B20D
S1130A008DF806209A78D2B28DF806209A7802F0F2
S1130A107F029A709A7822F004029A709A7822F0EF
S1130A2040029A702B689DF8062003F1007303F5C9
S1130A3060535B019A7802F0DF029A702B6803F12D
S1130A40007303F560535B019A7802F0EF029A7029
S1130A50286800F1007303F560535B01997811F085
S1130A60030105D0DB7913F0100F14BF0221032119
S1130A703246FFF755FE2B6803F1007303F560530C
S1130A805B0106469A7842F010029A702C68042C96
S1130A9048D0082C41D0002C3AD00C20FFF75EFD42
S1130AA0042C42D0082C3BD00C20A4B3FFF756FDF5
S1130AB004F1007303F560535B0130469A78D2B2B7
S1130AC08DF807209A78D2B28DF807209A78D2B29E
S1130AD08DF807209A7842F040029A709DF807300A
S1130AE002B070BD0520FFF745FD0620FFF742FD6B
S1130AF00420FFF73FFD072075E70120FFF73AFDCB
S1130B000220FFF737FD0020FFF734FD03206AE7DA
S1130B102046FFF723FD0320C8E72046FFF71EFD0C
S1130B200B20C3E72046FFF719FD0720BEE700BFEF
S1130B302DE9F04F87B0A8B1A1B1064608680C466C
S1130B4002F07EF848B92068194F0301FB5C73B1C9
S1130B500825284607B0BDE8F08F0546284607B0AB
S1130B60BDE8F08F0125284607B0BDE8F08F237A51
S1130B70022B04D90325284607B0BDE8F08FA37AD9
S1130B80012BF7D8637A022BF4D8D4F81C80B8F17F
S1130B90000F07D098F80030002B40F0A283636860
S1130BA0002BE7D001F08EFF054618B10A25D0E7E7
S1130BB0C811FE1FE3682269B2607360002B4CD039
S1130BC0D3F808C0BCF1000FCCD0D3F80090B9F131
S1130BD0000FC7D05A68002AC4D01368002BC1D0B4
S1130BE0D878997894F808E04FF0020A65F38710F2
S1130BF06AF3830165F3830065F34511D645D87024
S1130C00997000F0BC82D97865F30511D970D4F8D5
S1130C1000B0BBF1040F05D0BBF1080F02D0BBF14B
S1130C20000F9FD19246BAE80F000DF1040EAEE812
S1130C300F00604BDAF80020CEF8002033F81B20B8
S1130C40DCF80030ADF80820002248468DF80A2070
S1130C5001A99847002880D12269002A51D0D2F8EE
S1130C6008C0BCF1000F3FF47DAFD2F80090B9F199
S1130C70000F3FF477AF5268002A3FF473AF136854
S1130C80002B3FF46FAFD878997894F808E04FF0D0
S1130C90020A00F03F0001F0F3016AF383006FF3EE
S1130CA04511D645D870997000F01583D9786FF343
S1130CB00511D970D4F800B0BBF1040F06D0BBF114
S1130CC0080F03D0BBF1000F7FF44CAF9246BAE893
S1130CD00F000DF1040EAEE80F00374BDAF80020D8
S1130CE0CEF8002033F81B20DCF80030ADF80820E3
S1130CF0002248468DF80A2001A9984700287FF46D
S1130D002CAF0120D4F8009003F0A6FE2B4AC9F1C1
S1130D101F0913684FF0010A0AFA09F123EA0103D3
S1130D201360504603F074FE236803F1007303F567
S1130D3060535B0106221A77D4F80090B9F1040FCE
S1130D4000F04382B9F1080F00F05582B9F1000FA9
S1130D5000F046820C20FFF70DFCB9F1040F00F0FF
S1130D603782B9F1080F00F04982B9F1000F00F0A1
S1130D703A820C20FFF7FEFBB9F1040F00F02B823E
S1130D80B9F1080F00F03D82B9F1000F00F02E8296
S1130D900C20FFF7EFFBB9F1040F00F01F82B9F14B
S1130DA0080F00F031820C20B9F1000F00F021820D
S1130DB006E000BF3CAA0000A0AA000000700440A6
S1130DC0FFF7D8FB09F1007303F560535B019A78D0
S1130DD0D2B28DF803209A78D2B28DF803209A7893
S1130DE0D2B28DF803209A7802F07F029A709A7832
S1130DF022F004029A709A7822F040029A702368D2
S1130E009DF8032003F1007303F560535B019A78A6
S1130E1002F0EF029A70236803F1007303F5605344
S1130E205B019A7802F0DF029A70236803F1007381
S1130E3003F560535B019A8A22F001029A822368C7
S1130E4003F1007303F560535B019A8A42F00202D6
S1130E509A822369002B00F02482236803F1007333
S1130E6003F560535B019A8A22F470629A822368C4
S1130E7003F1007303F560535B019A8A6FEA02522F
S1130E806FEA12529A82226802F1007202F56052ED
S1130E905201938A43F004039382938A5907FCD442
S1130EA02369002B00F0B281236803F1007303F57A
S1130EB060535B019A8A22F0F0029A82B8F1000F23
S1130EC000F0258198F80230002B00F04D81236852
S1130ED003F1007303F560535B01DA7962F07F027A
S1130EE0DA7198F80330002B00F01B81236803F1BA
S1130EF0007303F560535B010021DA7942F02002AC
S1130F00DA7119722368D4F81C8003F1007303F5B5
S1130F1060535B015A7A22F001025A72236803F18A
S1130F20007303F560535B015A7B02F07F025A732E
S1130F30236803F1007303F560535B015A7B22F0CD
S1130F4040025A73637A002B00F00381236803F193
S1130F50007303F560535B011A7842F020021A70A3
S1130F60637A012B236803F1007303F560534FEA9E
S1130F7043131A780CBF42F0100222F010021A70C8
S1130F80237A012B00F00181022B236803F1007303
S1130F9003F560534FEA43131A7822F040021A70A3
S1130FA09A790CBF22F0100242F010029A71A37ACF
S1130FB0012B236803F1007303F560534FEA4313D5
S1130FC01A780CBF42F0080222F008021A70E37A81
S1130FD0002B00F0B380236803F1007303F5605322
S1130FE05B015A7B42F002025A73B8F1000F00F021
S1130FF0188198F8001029B1022903D003290CBFE5
S11310000321002194E80500FFF78AFB032800F080
S1131010108198F80130002B40F0C680236803F15A
S1131020007303F560535B019A78997802F0020229
S113103021F003010A439A70226802F1007202F55A
S113104060525201938A9B07FCD4938AC3F38003B2
S1131050002BFAD1918A41F001019182226802F1B8
S1131060007202F5605252014FF0010E918A21F094
S1131070080191822268A069616932604FEA02180E
S113108002F1007207EB080C02F56052F061B161E5
S1131090F36033613375520107F808E08CF80130CE
S11310A0CCF80460937843F0100393702468042C04
S11310B000F00C81082C00F00481002C00F0FC806E
S11310C00C20FFF74BFA042C00F00381082C00F0ED
S11310D0FB800C20002C00F0F280FFF73FFA04F1B3
S11310E0007303F560535B019A78D2B28DF8042043
S11310F09A78D2B28DF804209A78D2B28DF804206E
S11311009A7842F040029A709DF8043021E52368F1
S113111003F1007303F560535B01DA7902F07F0297
S1131120DA71236803F1007303F560535B01002156
S1131130DA7922F02002DA711972E3E6236803F106
S1131140007303F560535B015A7B22F002025A7369
S11311504BE7236803F1007303F560535B011A78CE
S113116022F020021A70FBE6236803F1007303F5F2
S113117060535B01DA7902F07F02DA71B1E6C1B241
S1131180012060F30511D97041E5236803F1007370
S113119003F560535B011A7842F040021A709A79A1
S11311A042F010029A7102E7236803F1007303F519
S11311B060535B019A78997802F0030242F00102CD
S11311C021F003010A439A7036E70520FFF7D2F9AC
S11311D00620FFF7CFF90420FFF7CCF90720EFE54D
S11311E05046FFF7C7F90220FFF7C4F90020FFF7C4
S11311F0C1F90320E4E50920FFF7BCF90A20FFF751
S1131200B9F90820FFF7B6F90B20D9E5236803F1F3
S1131210007303F560535B019A8A42F0F0029A82EC
S11312204CE6414694E80500FFF77AFA03287FF478
S1131230F5AE236803F1007303F560535B019A78FC
S1131240997802F0020221F003010A439A7073684C
S11312501BB19A681868D3699847B3681BB19A6838
S11312601868D3699847236803F1007303F5605342
S11312705B010120DA7902F07F02DA71256803F05C
S1131280EBFB1A4A01201368C5F11F0500FA05F1AA
S11312900B43136003F0BCFB206801F025FC03251D
S11312A057E4236803F1007303F560535B019A8AE2
S11312B042F470629A82DAE52046FFF74FF9032080
S11312C00BE72046FFF74AF90B2006E72046FFF715
S11312D045F9072001E7C1B2012060F30511D97077
S11312E0E8E4023B012B3FF645AC5BE400700440AC
S11312F0734B03EB0013F0B55C682268A76800F138
S1131300007502F1007202F5605305F560555B014A
S11313106D0183B0EE8A997911F0100FC6F3042E93
S113132014BF01210221002F69D0BEF1000F0FD19B
S1131330E26816781A79D209FCD0B2B2DA8123694C
S1131340E2685B1A11442361E16023B103B0F0BD8C
S11313502369002BFAD10428064600F09980082856
S113136036D000287DD00C20FFF7F8F8AB78DBB23C
S11313708DF80630AB78DBB28DF80630AB78DBB293
S11313808DF80630AB7843F00403AB70042E9DF85F
S1131390063000F09280082E2FD00C20002E75D03D
S11313A0FFF7E8F8AB78DBB28DF80730AB78DBB247
S11313B08DF80730AB78DBB28DF80730AB7803F0EB
S11313C07F03AB709DF807200023E36003B0F0BDFA
S11313D00A20FFF7C3F8AB78DBB28DF80630AB78A0
S11313E0DBB28DF80630AB78DBB28DF80630AB7823
S11313F043F00403AB709DF806300920D0E726695A
S11314004EB3CEF11006002E25DDE368012902F566
S113141060520CBF93F800E0B3F800E05201137976
S1131420DB09FCD05FFA8EF3D3812269E368521A98
S11314300F440B44BA4206F1FF362261E36004D93B
S11314401EB1226802F10072E0E7236803F1007321
S113145003F560535B011A7902F07F021A71236964
S113146073E70220FFF77AF8AB78DBB28DF8063029
S1131470AB78DBB28DF80630AB78DBB28DF8063092
S1131480AB7843F00403AB709DF80630012087E786
S11314900620FFF763F8AB78DBB28DF80630AB7843
S11314A0DBB28DF80630AB78DBB28DF80630AB7862
S11314B043F00403AB709DF80630052070E700BFCD
S11314C0C811FE1F2E4B03EB00132DE9F04FD3F888
S11314D004B0DBF80030DBF8042000F1007403F101
S11314E0007303F5605304F560545B01640185B037
S11314F0E58A9B7913F0100F064605F01F0514BF0B
S11315004FF001084FF0020812B19BF8143023BBCE
S11315104FF0000AD146802712E0238ADBF8182016
S11315209BB2DBB252B1DBF81C10009602938DF82B
S1131530047003919047B8F1020F07D00AF1010A31
S113154055456846E9D105B0BDE8F08FCDF808905F
S1131550DBF8183068469847F0E7DBF818300022CB
S11315608BF81420002BD3D0DBF81C100090012042
S11315708DF804000292039168469847C8E700BFBB
S1131580C811FE1FF0B51E4E05017319042887B05B
S113159004465F682FD008282FD000280CBF0220F3
S11315A00C20FEF7E7FF04F1007303F560535B01C1
S11315B09A78D2B28DF807209A78D2B28DF80720A3
S11315C09A78D2B28DF807209A7822F004029A70A1
S11315D0BB699DF807204BB1FA69059200210222EC
S11315E0029404918DF80C2002A8984735440023F6
S11315F06B7007B0F0BD0620D3E70A20D1E700BF27
S1131600C811FE1F10B500F1007303F560535B01B0
S113161016491C8A1A7901EB001122F0400249682C
S11316201A711A7922F001021A711A79920684B099
S1131630E4B20CD520238DF804308B692BB1CA6930
S11316400090039202946846984704B010BD1A793A
S1131650D20607D51B7FDB0754BF102308238DF860
S11316600430EAE704238DF80430E6E7C811FE1FCE
S113167000F01F0101234009024A8B4042F8203048
S1131680704700BF00E100E04309203300F01F0071
S113169001220249824041F82320704700E100E022
S11316A0012343700370C37083700020704700BF30
S11316B0A1B198B12DE9F04F05468BB008680C46EE
S11316C001F0BEFA38B92668B54B4FEA061813F88C
S11316D008302BB108200BB0BDE8F08F0120704713
S11316E04FEA8609DFF8CCA209EB06030AEB830371
S11316F09B78002BEED1304601F0E4F908B10A20C2
S1131700E9E76369002B40D09A68009282B11A68B5
S113171001926AB15B685BB1D3F800E0BEF1000FDF
S113172006D022680292042A04D0082A02D00AB100
S11317300120D0E79EF802C09EF803B01F460223A2
S113174063F3830C0FCF0BF0330B6FF3451C6FF374
S1131750051B8EF802C08EF803B00DF1140EAEE82E
S11317600F003A68CEF8002002998E4A019832F8A8
S11317701110009A002307931268ADF818108DF821
S11317801A3005A990470028A5D12369002B00F041
S113179004819A680192002ACAD01A680292002A27
S11317A0C6D05B68002BC3D01A680092002ABFD051
S11317B022680392042A03D0082A01D0002AB7D150
S11317C0009F97F803C097F802B09E460CF03F0CB8
S11317D0022363F3830CBEE80F006FF3051C0BF0C8
S11317E0F30B87F803C06FF3451B0DF1140C87F856
S11317F002B0ACE80F00DEF80020CCF8002003991A
S1131800694A029832F81110019A002307930DF1E6
S1131810140B1268ADF818108DF81A305946904719
S113182000287FF458AF012003F016F95F49012323
S11318300A68C6F11F0003FA00F022EA00020A60F7
S11318401846009303F0E4F8042E00F09B80082E61
S113185000F08D80009B002E7ED00C20FFF714FF3B
S1131860042E00F09280082E00F08480002E76D0A2
S11318700C20FFF709FF042E00F08A80082E7CD08C
S1131880002E6FD00C20FFF7FFFE042E00F08380A3
S1131890082E75D00C20002E67D0FFF7F5FE06F158
S11318A0007303F560535B01414A99785269C9B2E8
S11318B08DF812109978C9B28DF812109978C9B2BE
S11318C08DF81210997801F07F019970997821F0C0
S11318D004019970997821F0400199709DF81210D3
S11318E0998A21F0010199829979009321F00101EB
S11318F09971597A21F001015972197861F07F01C7
S11319001970587B4FF0000E20F0010058735946AF
S11319107046D4F80CB08DF813E09047C0B9BBF111
S1131920000F15D00A2E13D8DDF814C0DFF888E0B4
S1131930009B01463EF801200BFB02F2BCFBF2F2D5
S1131940013AFE2A01F1060138D901300428F1D107
S1131950304601F0C9F8EBE61846FFF795FE022081
S1131960FFF792FE0020FFF78FFE032095E7092082
S1131970FFF78AFE0A20FFF787FE0820FFF784FEA0
S11319800B208AE70520FFF77FFE0620FFF77CFE89
S11319900420FFF779FE07207FE70DF1140B42E7DF
S11319A0C811FE1FD0AA000014AB00000070044050
S11319B0C0AB00001C0CFE1FE4AA0000C0B28DF8EE
S11319C01300D1B29DF813205970197802F0030264
S11319D021F003010A431A709A7822F003029A70E4
S11319E02279E179012A0CBF0422002209B942F0CC
S11319F01002617901292FD039B9A07942F0800110
S1131A0001280CBF42F0C0020A465A73227A1AB95E
S1131A109A7942F008029A7109EB060311489B0077
S1131A200AEB0302F6B2032100F8081000EB0807E2
S1131A30A169E0692E704FF0010ED16061692469DB
S1131A40106185F802E0A9606C600AF8036082F80E
S1131A5002E000207D603EE6A1790029D5D142F064
S1131A604002D2E7C811FE1F88B1F0B504780A2CF1
S1131A7083B002D9042003B0F0BDA5004C4E2B194D
S1131A8006EB83039B7823B9072003B0F0BD012044
S1131A907047042C6AD0082C7ED0002C71D00C2006
S1131AA0FFF7F2FD042C64D0082C78D0002C6BD006
S1131AB00C20FFF7E9FD042C5ED0082C72D0002C1A
S1131AC065D00C20FFF7E0FD042C58D0082C6CD016
S1131AD00C20002C5ED0FFF7D7FD04F1007303F552
S1131AE060535B01334F9A78D2B28DF807209A780D
S1131AF0D2B28DF807209A78D2B28DF807209A785E
S1131B0002F07F029A709A7822F004029A70987810
S1131B104FEA041E254407EB0E0206EB850120F074
S1131B204000002598708D7007F80E500120557004
S1131B30556095609DF8073002F08EFF1E4A012023
S1131B401368C4F11F0100FA01F10B43136002F0A2
S1131B505FFF1A4B04EB440003EBC000153002F0A6
S1131B602DFF204600F0C0FF284684E70520FFF73C
S1131B708BFD0620FFF788FD0420FFF785FD072075
S1131B80A9E70120FFF780FD0220FFF77DFD00207B
S1131B90FFF77AFD03209EE70920FFF775FD0A2071
S1131BA0FFF772FD0820FFF76FFD0B2093E700BFDE
S1131BB01C0CFE1FC811FE1F00700440E40CFE1F25
S1131BC02DE9F04F0646D048347804EB840500EB49
S1131BD0850085B080789DF838A09DF83C7020B9C8
S1131BE00725284605B0BDE8F08F98464FEA440B18
S1131BF0C64B00910BEB040003EBC000153091467B
S1131C0002F0CCFE0099054620B10A25284605B00D
S1131C10BDE8F08F042C00F01D81082C00F02B810E
S1131C20002C00F039810C20FFF72EFD042C0099C4
S1131C3000F01581082C00F02381002C00F0318184
S1131C400C20FFF721FD042C009900F00D81082CD5
S1131C5000F01B81002C00F029810C20FFF714FDFB
S1131C60042C009900F00581082C00F013810C204D
S1131C70002C00F020810191FFF706FD04F1007CA7
S1131C800CF5605C4FEA4C1CA0499CF80220D2B2CF
S1131C908DF80D209CF80220D2B28DF80D209CF80E
S1131CA00220D2B28DF80D209CF8022002F07F02AF
S1131CB08CF802209CF8022022F004028CF8022006
S1131CC09CF802200BEB0403DB00C81822F040024E
S1131CD08CF8022000F1080200920A460199D150C2
S1131CE0009A9DF80DE0C2F804804FF0000E00F158
S1131CF01003A2F802E017F0010218BF01229A7043
S1131D00824ADF700BEB040302EBC30B002380F861
S1131D1010A0C0F80490A0F808E08BF811309CF8EB
S1131D200D30019123F010038CF80D302046CDF8CE
S1131D3000C001F063F87368DDF800C001991BB1BD
S1131D4007F0FD02012A6ED0B3681BB1BA1E012A46
S1131D5040F23381042C00F00481082C00F0DA8076
S1131D60002C00F0AA800C20CDF800C0FFF780FC06
S1131D70042CDDF800C000F0FB80082C00F0D180BA
S1131D80002C00F0A1800C20FFF772FCDDF800C0ED
S1131D909CF80230DBB28DF80E309CF80230DBB2D6
S1131DA08DF80E309CF80230DBB28DF80E309CF8C2
S1131DB0023043F040038CF80230042C9DF80E30BE
S1131DC000F0F480082C00F0CA800C20002C00F0F5
S1131DD09980CDF800C0FFF74BFCDDF800C09CF8FB
S1131DE00230DBB28DF80F309CF80230DBB28DF894
S1131DF00F309CF80230DBB28DF80F309CF80230C3
S1131E0063F07F038CF802309DF80F309CF80230A9
S1131E1043F030038CF802307368002B00F0C88064
S1131E209CF80530DDE696F800E0D3F808A0384ABF
S1131E301868DAF804A0CDF800C04FEA4E131A442B
S1131E401FFA88F3D047DDF800C000283FF47CAFC8
S1131E500546C6E605200091FFF716FC009900919F
S1131E600620FFF711FC009900910420FFF70CFCF9
S1131E7000990720FFE609200091FFF705FC00996F
S1131E8000910A20FFF700FC009900910820FFF759
S1131E90FBFB00990B20EEE601200091FFF7F4FB19
S1131EA0009900910220FFF7EFFB009900910020B8
S1131EB0FFF7EAFB00990320DDE62046CDF800C0D9
S1131EC0FFF7D6FBDDF800C0CDF800C00320FFF714
S1131ED0CFFBDDF800C09CF80230DBB28DF80E3089
S1131EE09CF80230DBB28DF80E309CF80230DBB285
S1131EF08DF80E309CF8023043F040038CF8023029
S1131F009DF80E30012064E71C0CFE1FE40CFE1F3C
S1131F10030007402046CDF800C0FFF7A9FBDDF819
S1131F2000C0CDF800C00B20FFF7A2FBDDF800C015
S1131F309CF80230DBB28DF80E309CF80230DBB234
S1131F408DF80E309CF80230DBB28DF80E309CF820
S1131F50023043F040038CF802309DF80E30092023
S1131F6037E72046CDF800C0FFF782FBDDF800C05C
S1131F70CDF800C00720FFF77BFBDDF800C09CF81C
S1131F800230DBB28DF80E309CF80230DBB28DF8F3
S1131F900E309CF80230DBB28DF80E309CF8023023
S1131FA043F040038CF802309DF80E30052010E712
S1131FB0B368002B7FF434AF13E63278D3F808E02B
S1131FC013491868DEF804A0CDF800C053011FFAC5
S1131FD088F819444A464346D0470146A8B9022F17
S1131FE0DDF800C07FF4B6AE7368002B3FF4B2AEE8
S1131FF09A681868576843460A46B847DDF800C02F
S113200000283FF4A7AE0546EBE50546E9E500BF29
S11320100500074008B1012B01D0012070473AB1F7
S113202010B504780A2C82B004D9042002B010BD83
S1132030184670471C4613460A4602210191009433
S11320400021FFF7BDFDF1E708B1012B01D001200C
S113205070473AB110B504780A2C82B004D9042030
S113206002B010BD184670471C46009413460194F4
S11320700022FFF7A5FDF3E770B582B09DF8184084
S113208008B1012C02D0012002B070BD2BB105783B
S11320900A2D05D9042002B070BD204602B070BDDF
S11320A003258DE83000FFF78BFDEDE7AA4B03EB2A
S11320B000122DE9F04F4700A84E55683B18DB008D
S11320C0F2180446A868F358D2F8049092F81080E5
S11320D089B002F1100E002800F0E380012900F01D
S11320E04181022902D009B0BDE8F08F6B685B68BA
S11320F01B68DB899BB2002BF5D104F1007505F553
S113210060556D01042CAB7803F0CF03AB7000F085
S11321109981082C00F08B81002C00F065810C2043
S1132120FFF7B2FA042C00F09081082C00F08281B1
S1132130002C00F05C810C20FFF7A6FA042C00F0C0
S11321408781082C00F07981002C00F053810C2049
S1132150FFF79AFA042C00F07E81082C00F07081BD
S11321600C20002C00F04981FFF78EFAAB787C4AF2
S11321700594DBB28DF81030AB78DBB28DF81030FB
S1132180AB78DBB28DF81030AB7803F07F03AB7023
S1132190AB7823F00403AB70A97804EB840302EB5F
S11321A0830321F04002AA701969079101228DF876
S11321B01820DB689DF8102005A89847042C00F02F
S11321C07B81082C00F0A781002C00F046810C20B4
S11321D0FFF75AFA042C00F07281082C00F09E815B
S11321E0002C00F03D810C20FFF74EFAAB78DBB2F7
S11321F08DF81130AB78DBB28DF81130AB78DBB2EF
S11322008DF81130AB7823F04003AB70042C9DF8AB
S1132210113000F06981082C00F09581002C00F049
S113222034810C20FFF730FAAB78DBB28DF8123032
S1132230AB78DBB28DF81230AB78DBB28DF81230AC
S1132240AB7803F07F03AB70042C9DF8123000F0E0
S11322506081082C00F08C810C20002C00F02A8175
S1132260FFF712FAAB78DBB28DF81330AB78DBB240
S11322708DF81330AB78DBB28DF81330AB7823F0E4
S11322800403AB709DF81330AB783C4403F0CF03E8
S113229006EBC4001530AB7002F090FB09B0BDE84A
S11322A0F08F686800287FF419AF04F100750129E4
S11322B005F5605500F08E814FEA451C50899CF865
S11322C005C001305FFA8CFC1FFA80FB8EF804C055
S11322D0A2F80AB03A1906EBC202B2F808E0D068D4
S11322E086450ED2927C002A00F08781B8F1010F56
S11322F000F099823B1906EBC3030EF1010EA3F81B
S113230008E03B1906EBC3035B7C2BB1B8F1010F6A
S113231004BFD94409F801CC3B1906EBC303DB68BD
S11323205B4500F0A78101297FF4DDAE3B1906EB84
S1132330C303DA7C91077FF5D6AE6D016A7B520741
S113234003D51B89012B7FF6CEAE3C4406EBC406B5
S113235001237374C7E600BFC811FE1FE40CFE1FFF
S11323601C0CFE1F042C00F01D81082C00F00281BF
S1132370002C44D004F1007505F560556D010C2066
S1132380FFF782F9AB78DBB28DF80F30AB78DBB2B4
S11323908DF80F30AB78DBB28DF80F30AB7803F0EB
S11323A07F03AB70042C9DF80F3000F01181082CD2
S11323B000F0F6800C20002C37D0FFF759F9AB78E9
S11323C0DBB28DF81430AB78DBB28DF81430AB7817
S11323D0DBB28DF81430AB7843F00403AB709DF896
S11323E0143009B0BDE8F08F0120FFF74DF9022049
S11323F0FFF74AF90020FFF747F90320B4E69A4DA6
S11324000846FFF741F9AB78DBB28DF80F30AB78B3
S1132410DBB28DF80F30AB78DBB28DF80F30AB78D0
S113242003F07F03AB709DF80F300220C5E709204D
S1132430FFF72AF90A20FFF727F90820FFF724F904
S11324400B2091E60520FFF71FF90620FFF71CF982
S11324500420FFF719F9072086E62046FFF714F950
S11324600320FFF711F9AB78DBB28DF81130AB78AC
S1132470DBB28DF81130AB78DBB28DF81130AB786C
S113248023F04003AB709DF811300120FFF7FCF8F6
S1132490AB78DBB28DF81230AB78DBB28DF812304A
S11324A0AB78DBB28DF81230AB7803F07F03AB70FE
S11324B09DF812300220D3E62046FFF7E5F8072006
S11324C0FFF7E2F8AB78DBB28DF81130AB78DBB212
S11324D08DF81130AB78DBB28DF81130AB7823F086
S11324E04003AB709DF811300520FFF7CDF8AB78B1
S11324F0DBB28DF81230AB78DBB28DF81230AB78EA
S1132500DBB28DF81230AB7803F07F03AB709DF82B
S113251012300620A4E62046FFF7B6F80B20FFF79A
S1132520B3F8AB78DBB28DF81130AB78DBB28DF851
S11325301130AB78DBB28DF81130AB7823F0400367
S1132540AB709DF811300920FFF79EF8AB78DBB231
S11325508DF81230AB78DBB28DF81230AB78DBB289
S11325608DF81230AB7803F07F03AB709DF8123016
S11325700A2075E63D4D0920FFF786F8AB78DBB2FB
S11325808DF80F30AB78DBB28DF80F30AB78DBB25F
S11325908DF80F30AB7803F07F03AB709DF80F30EC
S11325A00A200AE7324D0520FFF76EF8AB78DBB25C
S11325B08DF80F30AB78DBB28DF80F30AB78DBB22F
S11325C08DF80F30AB7803F07F03AB709DF80F30BC
S11325D00620F2E64FEA451B9BF805C05FFA8CFC27
S11325E08EF804C09BF80D0010F0040F0CD0108975
S11325F0083248B9B2F802B06CE66A011379DB0913
S1132600FCD0FF23D37075E6042C00F01781082C4E
S113261000F01281002C0CBF01200C2001910093CA
S1132620FFF732F89BF80220009B0199D2B28DF893
S11326300B209BF80220D2B28DF80B209BF80220CD
S1132640D2B28DF80B209BF80220381902F07F02D9
S113265006EBC00E8BF802209DF80B20BEF80AB0E2
S11326609EF814C036E600BF000007400001074092
S1132670800007404FEA4518042C98F80230009176
S113268003F0CF0388F8023000F0DA80082C00F061
S1132690F780002C00F0E4800C20FEF7F5FF042CFA
S11326A0009900F0D180082C00F0EE80002C00F09E
S11326B0DB800C20FEF7E8FF042C009900F0C980B1
S11326C0082C00F0E680002C00F0D3800C20FEF7EC
S11326D0DBFF042C009900F0C180082C00F0DE80A0
S11326E00C20002C00F0CA800091FEF7CDFF98F872
S11326F00230A04A0099DBB28DF80C3098F8023011
S1132700DBB28DF80C3098F80230DBB28DF80C3067
S113271098F8023003F07F0388F8023098F802300A
S113272023F0040388F8023004EB840398F80200D1
S113273002EB830320F04002D3F80CC088F8022097
S11327409DF80C20BCF1000F64D01B690793012392
S113275005948DF8183005A8E047042C009900F082
S1132760E580082C00F0BF80002C00F099800C203C
S1132770FEF78AFF042C009900F0DD80082C00F09D
S1132780B780002C00F091800C20FEF77DFF98F8B4
S113279002300099DBB28DF80D3098F80230DBB2CC
S11327A08DF80D3098F80230DBB28DF80D3098F8C2
S11327B0023023F0400388F80230042C9DF80D30D9
S11327C000F0D580082C00F0AF800C20002C00F025
S11327D088800091FEF758FF98F802300099DBB228
S11327E08DF80E3098F80230DBB28DF80E3098F880
S11327F00230DBB28DF80E3098F8023003F07F031C
S113280088F802309DF80E3098F8023003F0CF03B8
S113281088F80230381906EBC0001530009102F038
S1132820CDF800997FE513F80EA06A011379DB094E
S1132830FCD082F803A05DE50920EFE60520EDE673
S11328400520FEF721FF009900910620FEF71CFFEA
S1132850009900910420FEF717FF0099072043E731
S11328600120FEF711FF009900910220FEF70CFFF2
S1132870009900910020FEF707FF0099032033E739
S11328800920FEF701FF009900910A20FEF7FCFEE3
S1132890009900910820FEF7F7FE00990B2023E72A
S11328A020460091FEF7F0FE009900910320FEF708
S11328B0EBFE98F802300099DBB28DF80D3098F8F1
S11328C00230DBB28DF80D3098F80230DBB28DF8AF
S11328D00D3098F8023023F0400388F802309DF858
S11328E00D30012075E720460091FEF7CDFE0099DA
S11328F000910B20FEF7C8FE98F802300099DBB275
S11329008DF80D3098F80230DBB28DF80D3098F860
S11329100230DBB28DF80D3098F8023023F040031A
S113292088F802309DF80D30092052E720460091C6
S1132930FEF7AAFE009900910720FEF7A5FE98F87D
S113294002300099DBB28DF80D3098F80230DBB21A
S11329508DF80D3098F80230DBB28DF80D3098F810
S1132960023023F0400388F802309DF80D30052032
S11329702FE700BF1C0CFE1F1C4B10B500EB8002A0
S113298003EB820384B0DA68044682B100F1007379
S113299003F560535B0101901979890614D4197900
S11329A0080715D505238DF8083001A89047104B6A
S11329B004EB440003EBC000153001F0FFFF204698
S11329C000F092F804B010BD06238DF80830ECE74F
S11329D0597BC90603D503238DF80830E5E71B7935
S11329E0DB0644BF07238DF80830DEE71C0CFE1F0E
S11329F0E40CFE1F4309203300F01F0001220249AA
S1132A00824041F82320704700E100E0064A0301B8
S1132A10D35C012B05D0032B00D070470121FFF7B5
S1132A2045BBFEF765BC00BFC811FE1F03010C4A7D
S1132A30D35C012B10B504460ED0032B09D004F14E
S1132A40007000F560504001037903F0C70303717F
S1132A5010BDFFF791FFF2E7FEF7D4FDEFE700BFEB
S1132A60C811FE1F064A0301D35C012B05D0032BBA
S1132A7000D070470221FFF719BBFEF783BD00BFEA
S1132A80C811FE1F02010E498A5C012A05D0032ADF
S1132A9000D070470021FFF709BB10B50446FEF7CC
S1132AA011FD04F1007303F560535B011A7922F000
S1132AB040021A711A7922F001021A7110BD00BF86
S1132AC0C811FE1F092808B507D00730C0B201F0AD
S1132AD079FF082806D0002008BD102001F072FFFD
S1132AE00828F8D10A2008BD092803D00730C0B24D
S1132AF001F07CBF102001F079BF00BF30B504287D
S1132B0083B0044600F08C8008287ED0002871D061
S1132B100C20FFF76FFF042C00F08580082C77D081
S1132B20002C6AD00C20FFF765FF042C7ED0082C03
S1132B3071D0002C64D00C20FFF75CFF042C78D0FB
S1132B40082C6BD00C20002C5DD0FFF753FF04F150
S1132B50007303F560535B0100259A78D2B28DF8B7
S1132B6007209A78D2B28DF807209A78D2B28DF8DD
S1132B7007209A7802F07F029A709A7822F0040271
S1132B809A709A7822F040029A709DF807209A78F9
S1132B9002F0EF029A709A7802F0DF029A70997844
S1132BA09A7801F0020122F003020A439A70DA795A
S1132BB002F07F02DA71DA7922F02002DA71012060
S1132BC01D7201F049FF1C4A01201368C4F11F0162
S1132BD000FA01F10B43136001F01AFF2046FFF7DE
S1132BE083FF164A2401131915555D705D609D60BD
S1132BF003B030BD0120FFF7FDFE0220FFF7FAFE0F
S1132C000020FFF7F7FE03209FE70920FFF7F2FEFD
S1132C100A20FFF7EFFE0820FFF7ECFE0B2094E7F5
S1132C200520FFF7E7FE0620FFF7E4FE0420FFF788
S1132C30E1FE072089E700BF00700440C811FE1FB1
S1132C4009288CBF04200020704700BF00B5002075
S1132C5083B0FFF7DBFE012001F01AFE034BD3F82B
S1132C6004330193019B03B05DF804FB0060004052
S1132C7000B5042083B0FFF7C9FE052001F008FE6B
S1132C80034BD3F814330193019B03B05DF804FBA9
S1132C900060004000B5082083B0FFF7B7FE0920AC
S1132CA001F0F6FD034BD3F824330193019B03B0E9
S1132CB05DF804FB0060004000B5002083B0FFF71E
S1132CC0E1FE002001F0E4FD034BD3F8003301934F
S1132CD0019B03B05DF804FB0060004000B50420D4
S1132CE083B0FFF7CFFE042001F0D2FD034BD3F8ED
S1132CF010330193019B03B05DF804FB00600040B6
S1132D0000B5082083B0FFF7BDFE082001F0C0FD28
S1132D10034BD3F820330193019B03B05DF804FB0C
S1132D200060004000B5002083B0FFF77FFE032061
S1132D3001F0AEFD034BD3F80C330193019B03B0B8
S1132D405DF804FB0060004000B5042083B0FFF789
S1132D506DFE072001F09CFD034BD3F81C33019357
S1132D60019B03B05DF804FB0060004000B508203F
S1132D7083B0FFF75BFE0B2001F08AFD034BD3F811
S1132D802C330193019B03B05DF804FB0060004009
S1132D9000B5002083B0FFF765FE022001F078FD46
S1132DA0034BD3F808330193019B03B05DF804FB94
S1132DB00060004000B5042083B0FFF753FE0620F6
S1132DC001F066FD034BD3F818330193019B03B064
S1132DD05DF804FB0060004000B5082083B0FFF7F5
S1132DE041FE0A2001F054FD034BD3F8283301932C
S1132DF0019B03B05DF804FB00600040042810B59B
S1132E00044619D008280CD000B110BD012001F0EF
S1132E103FFD204601F03CFD0320BDE8104001F0D9
S1132E2037BD092001F034FD204601F031FD0B20AF
S1132E30BDE8104001F02CBD052001F029FD20461D
S1132E4001F026FD0720BDE8104001F021BD00BFC0
S1132E50012907D029B9074A1378184300F0300034
S1132E6010707047034A137803F0300323EA00001C
S1132E7010707047000D0440012900F47F4208D00F
S1132E804FF4803181400023D20804481943115083
S1132E90704781408BB20021F6E700BF0800044070
S1132EA0000A4001024B41EA0242C250704700BF8F
S1132EB008000440000A400100F1804000F10410C1
S1132EC00068000C704700BF034B000A03EB40137B
S1132ED041EA02425A60704708000440030AC0B243
S1132EE000EB03139B0003F1804303F5812318686F
S1132EF0C0F34000704700BF000A400100F1804069
S1132F0000F10410006880B2704700BF000A40015D
S1132F1000F1804000F58020006880B2704700BF57
S1132F20000A400100F1804000F5802003681B0C7A
S1132F301B04194301607047014B00221A8070473B
S1132F40D40DFE1F030AC0B200EB03139B0003F170
S1132F50804370B403F58123EFF3108472B6174AEB
S1132F60108880B218B9164D4026E870EE701088AB
S1132F70013080B2108084F31088CC03186805D522
S1132F8020F4803021F4803418601C601960EFF361
S1132F90108172B6138809489BB21BB10388013BA8
S1132FA09BB2038013889BB21BB9054A8020D3705F
S1132FB0D07081F3108870BC704700BFD40DFE1F21
S1132FC0000D0440020AC3B203EB02139B0003F199
S1132FD0804303F581231B6829B1064943F00403A8
S1132FE01940FFF7AFBF034923F004031940FFF76B
S1132FF0A9BF00BFD5FC011F012343700370C37038
S113300083700020704700BFA8B138B5054601F0B1
S113301053FD2B88002463B16B6803EBC40253F89F
S113302034109088FFF78EFF01342B88A4B2A3429A
S1133030F2D8002038BD0120704700BF10B540F61B
S11330400733984286B0044602D9032006B010BD67
S1133050012204AB02A804910191ADF80820039366
S1133060ADF8144001F028FD20460199FFF76AFFEE
S1133070002006B010BD00BF40F60733984202D9C5
S113308003231846704739B110B50C46FFF726FFE5
S113309000232070184610BD0123F2E7B0F5306F0D
S11330A002D903231846704739B110B50C46FFF70F
S11330B023FF00232080184610BD0123F2E700BF40
S11330C00AB903207047B0F5306F08B501D9032061
S11330D008BD0B46114022EA0302FFF7E1FE00207F
S11330E008BD00BF012901D90320704740F607320B
S11330F0904208B501D9032008BDFFF7BDFE0020AA
S113310008BD00BF0AB903207047B0F5306FFAD884
S113311070B514460E460546FFF7F8FE04EA0603AA
S1133120184383B266EA040128461940FFF7F8FE03
S1133130002070BD012901D90320704740F60732F1
S1133140904208B501D9032008BDFFF73BFF0020DA
S113315008BD00BFB0F5306F02D90323184670478D
S113316039B110B50C46FFF7A5FE002320801846A0
S113317010BD0123F2E700BF38B540F6073398428B
S1133180044601D9032038BD0D4681B100F47F40C7
S1133190FFF790FEE4B2012202FA04F39BB2184056
S11331A083420BBF002000202A70287038BD012004
S11331B038BD00BFB0F5306F01D903207047002A35
S11331C0FBD008B50B46114022EA0302FFF77CFE50
S11331D0002008BD40F60733984201D90320704708
S11331E00129FBD810B5C3B200F47F4408D00122F2
S11331F09A4092B200212046FFF766FE002010BDDF
S1133200994089B20022F6E7202801D903207047AB
S1133210012908B501D9032008BDFFF719FE0020D4
S113322008BD00BF024B23F820100020704700BFE8
S113323010100440024A002342F820301846704718
S113324010100440034A137863F07F0313700020C6
S1133250704700BF00100440034A137803F07F0353
S113326013700020704700BF0010044020B1034BCE
S11332701B68036000207047012070477CAB00008E
S113328058B1012807D1084B002040214122187170
S113329019711A71704701207047034B4021412274
S11332A0987099709A70704700100440E8B130B477
S11332B00F4A536823F48043536045685DB18368C3
S11332C003EB85055C8813F8041B0A4A89000A4449
S11332D0AB421480F6D1007828B1074A137863F022
S11332E07F031370002030BC70470120704700BF7B
S11332F00070044010100440001004400620704781
S113330006207047B8B190F90620144B53F82230C8
S1133310996881B1596871B1D97811F0C00F04D19D
S1133320DB899BB2B3F5806F05D801680C4B9942D9
S113333003D00720704701207047C032094B53F86F
S1133340221021F4803143F8221053F8221041F066
S1133350807143F822100020704700BF0010FE1F48
S1133360004354440060004088B10A4B02689A420A
S113337001D00720704790F906300749C033002078
S113338051F8232022F0807241F823207047012055
S1133390704700BF0043544400600040002830D010
S11333A000292ED0184BDB8900229BB28A7190F938
S11333B00620180418D4154B53F82230D87800F09E
S11333C0C000802809D0DB8940289BB28B8011D0B3
S11333D028B94FF480630B6070479B898B804FF44E
S11333E080730B60002070475BB29A4204BF0123D4
S11333F08B71E0E7DBB28B804FF480730B600020AD
S113340070470120704700BF005400400010FE1FA9
S113341020B1034B1B6803600020704701207047F4
S113342080AB000070B582B00191009250B14BB1F5
S1133430254A0168914208D0072002B070BDEC898A
S1133440A4B264B9012002B070BD90F906201F49EE
S113345051F82250EC7804F0C004802CEFD0C03234
S11334601B4E1C4D56F8224024F0807446F822402E
S11334702A7822F010022A70019A12B390F90620D9
S1133480019D51F822406560009C1CB151F8224016
S1133490009DA56051F82210CA7802F0C002802A6B
S11334A00DD002B9CB81FFF72DFF0A4A137800280B
S11334B043F0100314BF132000201370BDE78B8169
S11334C0F1E790F90620DFE7004354440010FE1FA3
S11334D000600040005400400346D0B10E4A016829
S11334E0914201D00720704730B490F906200B4C6C
S11334F00B4DC032002154F8220020F0807044F8B3
S1133500220093F90620084645F82210196030BCC1
S113351070470120704700BF0043544400600040DE
S11335200010FE1F002843D0002941D02DE9F843A4
S11335300B68002B39D09A7802F0C004402C34D0A8
S1133540DC78A509032D30D0C4F30115032D2CD04C
S113355002F00C02042A28D004F00C02042A24D01D
S113356014F0C00F04D0DB899BB2B3F5807F1CD864
S1133570424B02689A421DD08E88414D002404F1CA
S1133580C0025FFA84F855F822303D4FC3F30803B4
S11335909E4212D001340C2CF1D1D7F83033C3F34E
S11335A0080383800B20BDE8F8830120BDE8F8837D
S11335B0012070470820BDE8F883DFF8D49057F85D
S11335C0223099F80020C3F3080305460E46838091
S11335D02AB32C4A52F82430002BEBD1336800E094
S11335E01033D97811F0C00F1CBF997BD973997827
S11335F011F0C00FF4D1244F20493B7823F010037D
S11336003B70B079336842F8243085F8068029602D
S113361038BB3B7843F010033B70BDE8F8831C20B3
S113362001F0D0F910B10A20BDE8F883174F154A0C
S1133630F969154B21F48001F961106050609060C4
S1133640D060106150619061D061106250629062EC
S1133650D0625A60197B01200143197389F8000074
S1133660B8E72846FFF74EFE3B7843F010030028E6
S11336703B7014BF13200020BDE8F883004354447A
S1133680006000400010FE1F0054004000E00140B4
S11336903010FE1F084B094A094810B40021094C98
S11336A01A604FF400425C60D86059619A601A61F4
S11336B05DF8044B704700BFCC08FE1F002D31019C
S11336C000366E0100127A0019491A4A0B8D03F074
S11336D0030332F8132052B310B40C8D16480B8D2B
S11336E014F0100F14BF0021032107EE902A50F8A4
S11336F021205DF8044B07EE102AF8EE676AB8EE55
S1133700477AC3F3052387EE267A07EE903AF8EE5C
S1133710E77AF7EE006A77EEA67AF6EE006A67EECD
S1133720A67A67EE277AFCEEE77AC0ED057A704751
S113373000E00140A8AB0000CC08FE1F0E4AB2F81E
S1133740FE339BB243F4254343F00103A2F8FE3356
S113375092F81334000100F0300003F0CF03034368
S113376082F81334B2F8FE3345F6FE210B4043F4DD
S11337702543A2F8FE33704700E001400E4AB2F838
S1133780FE339BB243F4254343F00103A2F8FE3316
S113379092F88134400000F0020003F0FD0303437B
S11337A082F88134B2F8FE3345F6FE210B4043F42F
S11337B02543A2F8FE33704700E00140264AB2F8E0
S11337C0FE339BB243F4254343F00103A2F8FE33D6
S11337D005280BD8DFE800F02028300338181E4AEB
S11337E092F8323023F0010382F832301A4AB2F8E8
S11337F0FE3323F4145323F001035B045B0C43F402
S11338002543A2F8FE337047134A92F82A3023F076
S1133810010382F82A30E9E70F4A92F8363023F0A0
S1133820010382F83630E1E70B4A92F8383023F08E
S1133830010382F83830D9E7074A92F8903423F02C
S1133840010382F89034D1E7034A92F8803423F0DC
S1133850010382F88034C9E700E00140264AB2F847
S1133860FE339BB243F4254343F00103A2F8FE3335
S113387005280BD8DFE800F02028300338181E4A4A
S113388092F8323043F0010382F832301A4AB2F827
S1133890FE3323F4145323F001035B045B0C43F461
S11338A02543A2F8FE337047134A92F82A3043F0B6
S11338B0010382F82A30E9E70F4A92F8363043F0E0
S11338C0010382F83630E1E70B4A92F8383043F0CE
S11338D0010382F83830D9E7074A92F8903443F06C
S11338E0010382F89034D1E7034A92F8803443F01C
S11338F0010382F88034C9E700E00140032810D0B6
S1133900052808D008B100207047094B93F83C0003
S113391000F001007047064B93F83C00C0F34010E0
S11339207047034B93F83C00C0F3C000704700BFDE
S113393000E00140052834D8DFE800F00B131B2316
S11339402B03194B93F82A0000F0010080F00100CA
S11339507047154B93F8360000F0010080F0010029
S11339607047114B93F8380000F0010080F001001B
S113397070470D4B93F8900400F0010080F00100B3
S11339807047094B93F8320000F0010080F0010009
S11339907047054B93F8800400F0010080F00100AB
S11339A070470020704700BF00E00140024B1A6AD4
S11339B093F82630704700BF00E001400E4AB2F889
S11339C0FE339BB243F4254343F00103A2F8FE33D4
S11339D092F8133400F0010023F0400343EA80130B
S11339E082F81334B2F8FE3345F6FE210B4043F45B
S11339F02543A2F8FE33704700E001400E4AB2F8B6
S1133A00FE339BB243F4254343F00103A2F8FE3393
S1133A1092F8A23001F00F0123F00F03194382F84A
S1133A20A210B2F8FE3345F6FE210B4043F42543C1
S1133A30A2F8FE33704700BF00E0014005288CBFA8
S1133A4000200120704700BF06288CBF0020012001
S1133A50704700BF024B93F8260000F00700704740
S1133A6000E001400E4AB2F8FE339BB243F4254312
S1133A7043F00103A2F8FE3392F8263000F0070069
S1133A8023F00703184382F82600B2F8FE3345F604
S1133A90FE210B4043F42543A2F8FE33704700BFD8
S1133AA000E00140034B1B8D13F0100F0CBF0320EB
S1133AB00020704700E001400F4A1049B2F8FE337D
S1133AC011F810109BB243F4254343F00103A2F80C
S1133AD0FE33138D01F0010123F0100343EA0113B7
S1133AE01385B2F8FE3345F6FE210B4043F425431B
S1133AF0A2F8FE33704700BF00E00140B8AB0000FD
S1133B00114AB2F8FE3330EE000A9BB243F4254367
S1133B10FCEEC07A43F00103A2F8FE3317EE903AAC
S1133B20118D013B21F47C5103F03F0341EA03234F
S1133B301385B2F8FE3345F6FE210B4043F42543CA
S1133B40A2F8FE33704700BF00E001400E4A0F495F
S1133B50B2F8FE3331F810109BB243F4254343F01E
S1133B600103A2F8FE33138D01F0030123F00303D4
S1133B700B431385B2F8FE3345F6FE210B4043F4A4
S1133B802543A2F8FE33704700E00140B0AB0000CB
S1133B90F0B5164AB2F8FE339BB243F4254343F022
S1133BA00103A2F8FE3390F800C090F802E0077910
S1133BB046794578C478817900236CF30E336EF32B
S1133BC0061367F3124366F31E7365F30A2364F363
S1133BD0020361F31A631362B2F8FE3345F6FE2161
S1133BE00B4043F42543A2F8FE33F0BD00E001404E
S1133BF00E4B1A6AC2F3023202701A6AC2F302222C
S1133C0042701A6AC2F3021282701A6A02F0070240
S1133C10C2701A6AC2F3024202711A6AC2F30272D1
S1133C2042711B6AC3F302638371704700E0014071
S1133C304378022B16D8D0ED017AB3EE0E7AF4EE67
S1133C40C77AF1EE10FA0DDCB2EE047AF4EEC77A1C
S1133C50F1EE10FA06D40078032805D0B0FA80F00B
S1133C60400970470020704701207047062828D873
S1133C70DFE800F0090E13181D220400124B186A25
S1133C80C0F302607047104B186AC0F302307047EB
S1133C900D4B186AC0F3022070470B4B186AC0F32F
S1133CA002107047084B186A00F007007047064B73
S1133CB0186AC0F302407047034B186AC0F30270DD
S1133CC070470020704700BF00E0014008B5FFF7CF
S1133CD0CDFF054B054A93F8263003F0070352F84D
S1133CE0233023FA00F008BD00E00140CC08FE1F99
S1133CF0024B53F82000C840704700BFCC08FE1F99
S1133D000F4BB3F8FE2392B242F4254242F0010273
S1133D10A3F8FE2393F8402062F07F0283F840204A
S1133D2093F8402042F0010283F84020B3F8FE23C8
S1133D3045F6FE210A4042F42542A3F8FE237047CB
S1133D4000E001400F4BB3F8FE2392B242F4254247
S1133D5042F00102A3F8FE2393F8402022F001026E
S1133D6083F8402093F8402002F07F0283F840203B
S1133D70B3F8FE2345F6FE210A4042F42542A3F897
S1133D80FE23704700E00140024B93F84000C00955
S1133D90704700BF00E00140024B93F8410000F07F
S1133DA00100704700E00140114A92F8410010F010
S1133DB0010001D100207047B2F8FE339BB243F4F6
S1133DC0254343F00103A2F8FE3392F8413023F077
S1133DD0010382F84130B2F8FE3323F4145323F084
S1133DE001035B045B0C43F42543A2F8FE337047E4
S1133DF000E001400E4AB2F8FE339BB243F425437F
S1133E0043F00103A2F8FE3392F8303000F00100D1
S1133E1023F00103184382F83000B2F8FE3345F66C
S1133E20FE210B4043F42543A2F8FE33704700BF44
S1133E3000E001400C4AB2F8FE339BB243F4254340
S1133E4043F00103A2F8FE3392F8523043F0010329
S1133E5082F85230B2F8FE3345F6FE210B4043F4AB
S1133E602543A2F8FE33704700E001400C4AB2F843
S1133E70FE339BB243F4254343F00103A2F8FE331F
S1133E8092F8523023F0010382F85230B2F8FE3334
S1133E9045F6FE210B4043F42543A2F8FE33704758
S1133EA000E00140164BB3F8FE2392B242F42542DF
S1133EB042F00102A3F8FE2393F83E2002F07F02B1
S1133EC083F83E2093F83E2001F0070122F07002AF
S1133ED042EA011283F83E2093F83E2000F00700E6
S1133EE022F00702104383F83E00B3F8FE2345F6A0
S1133EF0FE210A4042F42542A3F8FE23704700BF86
S1133F0000E001400C4AB2F8FE339BB243F425436F
S1133F1043F00103A2F8FE3392F83E3063F07F03CE
S1133F2082F83E30B2F8FE3345F6FE210B4043F4EE
S1133F302543A2F8FE33704700E001400C4AB2F872
S1133F40FE339BB243F4254343F00103A2F8FE334E
S1133F5092F83E3003F07F0382F83E30B2F8FE332D
S1133F6045F6FE210B4043F42543A2F8FE33704787
S1133F7000E001400C4AB2F8FE339BB243F42543FF
S1133F8043F00103A2F8FE3392F8533043F00103E7
S1133F9082F85330B2F8FE3345F6FE210B4043F469
S1133FA02543A2F8FE33704700E001400C4AB2F802
S1133FB0FE339BB243F4254343F00103A2F8FE33DE
S1133FC092F8533023F0010382F85330B2F8FE33F1
S1133FD045F6FE210B4043F42543A2F8FE33704717
S1133FE000E001400E4AB2F8FE339BB243F425438D
S1133FF043F00103A2F8FE3392F8243000F00700E6
S113400023F0700343EA001382F82430B2F8FE333D
S113401045F6FE210B4043F42543A2F8FE337047D6
S113402000E001400B4B01380022B0F1807F196899
S11340301A600CD210B4084C5860F02084F82300A5
S1134040072101209A6019605DF8044B70471960DC
S11340501046704710E000E000ED00E00C4B1A79C8
S113406002F00E0242F0F0021A711A7A00F0010016
S113407022F0040242EA80021A721A7A22F008023A
S113408042EAC00018721A7942F0F1021A717047BC
S113409000200040094B1A7942F0F1021A711A7A91
S11340A000F0010022F0100242EA00121A721A799A
S11340B002F00E0242F0F0021A7170470020004034
S11340C0054A92F81C3100F0070023F00703184357
S11340D082F81C01704700BF00C00140024B93F8F6
S11340E01C0100F00700704700C001400020704729
S11340F00020704700207047024B1B6803600020BB
S1134100704700BF1CAC000038B50C460546FFF7ED
S1134110A1FC28702046FFF76BFD002038BD00BFCE
S113412070B500240C600D460646FFF78DFC10B9EF
S11341300324204670BD3046FFF7C8FD28602046A2
S113414070BD00BF10B5FFF727FE68B1FFF782FC12
S11341500446FFF7A7FC052C04D0032C04D140F23D
S1134160971010BD0328FAD0FFF71EFE002010BDE3
S113417008B5FFF73FFE002008BD00BF08B5FFF7F4
S113418059FE002008BD00BF08B5FFF76FFE0020F0
S113419008BD00BF08B5FFF785FE002008BD00BFBD
S11341A008B5FFF7AFFE002008BD00BF08B5FFF754
S11341B0C5FE002008BD00BF08B5FFF7DBFE0020E8
S11341C008BD00BF08B5FFF7F1FE002008BD00BF21
S11341D008B5FFF707FF002008BD00BF00B583B096
S11341E04FF6FF730193FFF755FA0420FFF736FBF0
S11341F004E0019B3BB1019B013B01930420FFF7C9
S113420099FB0028F5D1019B23B94FF4CD7003B07D
S11342105DF804FB05210420FFF7C8FB0020FFF72D
S1134220ADFA002003B05DF804FB00BF10B50446EE
S1134230FFF704FC08B9032010BD631E012B0FD93E
S1134240042C0DD02CB1032C03D0052C01D000205C
S113425010BD2046FFF76EFB68B94FF4C87010BD5F
S11342602046FFF767FB40F29113002814BF18465D
S11342704FF4C87010BD2046FFF740FB40F2931383
S113428000280CBF18464FF4C97010BD70B582B039
S11342900E460546FFF7D2FB10B9032002B070BDED
S11342A0052D28460FD0FFF745FB18B140F29110B9
S11342B002B070BD6A1E012A4ED9042D25D0BDB1AD
S11342C0032D3AD0EAE7FFF735FBC8B9B6B1FFF7DB
S11342D0C1FB0528EAD03046FFF7AAFC0028DCD051
S11342E03078FFF727FB00283BD14FF4CA70D5E79D
S11342F0FFF704FB80B340F29310CFE70120CDE732
S1134300FFF7E2F940F29110C8E72846FFF756FAA2
S11343104FF6FF73019304E0019B3BB1019B013B0A
S113432001930420FFF706FB0028F5D0019B002B26
S11343300CBF4FF4CD700020B0E72846FFF7DEFA3B
S113434004460028D7D1FFF7F9F92046FFF736FBDA
S113435028460921FFF752FB2846FFF72FFA0020D1
S11343609CE72846FFF7CAFA04460028C3D13078F0
S1134370FFF7A2FB7078FFF7E9FB96ED010AFFF760
S1134380BFFBFFF7A1F92846FFF718FA204685E797
S113439010B582B00446FFF751FB10B9032002B0F8
S11343A010BDFFF757FB844216D0052810D0012C0E
S11343B015D02046FFF7BEFA40B1022C39D0042CA8
S11343C01AD094B1032C10D0052C0ED00020E6E7AF
S11343D0FFF768FBA042EAD140F29110DFE7FFF754
S11343E0D3FC08B340F29510D9E72046FFF786FACC
S11343F0F8B940F29310D2E72046FFF72FFA4FF6B0
S1134400FF73019304E0019B3BB1019B013B0193CA
S11344100420FFF78FFA0028F5D1019B002B0CBF75
S11344204FF4CD700020BAE72046FFF783FA002846
S1134430CCD02046FFF712FAC8E700BF70B50C468F
S11344400546FFF7FBFA08B9032070BD002C3BD0EA
S1134450A17963798B42F7D363788B42F4D32378C1
S11344608B42F1D323798B42EED32846FFF740FCED
S1134470284B9842064631D80020FFF7EFFD002074
S1134480FFF708FE244B9E4231D8FFF727FE002693
S1134490FFF7E0FA854207D0C5B1032D16D0052DEC
S11344A014D02846FFF7DEFA2046FFF771FB00F030
S11344B0D1F81A4B1860FFF711FE864224D030461B
S11344C0FFF7FEFD002070BD012070BD2846FFF7F8
S11344D015FA0028E5D14FF4C97070BD0120FFF72B
S11344E0BDFD0F4B9E4211D90120FFF7D3FD0D4BAB
S11344F09E4294BF01260226FFF7F0FD8642C7D9EB
S11345003046FFF7DDFDC3E7002070BD0020FFF754
S1134510C1FDECE7FF0D2707FFB3C4046812FE1FBB
S1134520FFC1EB0BFF67890900B583B071B148B1D6
S11345300146012000F0AAF8FFF7E2FB002003B0D7
S11345405DF804FB012003B05DF804FBFFF724FCD5
S113455020B14FF4CB7003B05DF804FB0190FFF77A
S1134560F1FB0198EBE700BF08B90320704738B5A9
S11345700D46044600F06EF807EE900AF8EE676AFE
S1134580F7EE007AC7EEA66A07EE905A07EE104AD5
S1134590F8EE677AB8EE477A66EEA77AC7EE277A1E
S11345A0FCEEE77A17EE900AFFF73CFD00280CBFFB
S11345B01220002038BD00BF70B5234D82B02B6897
S11345C0984700216E680320B04701211F4AAC6957
S11345D08DF80110032301928DF800300320A047C9
S11345E0B0F5C97FFAD169460520B047184A92F858
S11345F0003143F0010382F800310520A047B0F5F3
S1134600C97FFAD100220124022369468DF80620CD
S11346108DF801308DF802308DF805308DF80040AA
S1134620EB688DF803408DF80440052098472B6D06
S1134630042098476B6A20469847AB6A9847AB6C4E
S1134640984702B070BD00BFC0AB00000000A0419D
S113465000C0014000B583B002A9002341F8043D25
S1134660034B06205B699847019803B05DF804FB8F
S1134670C0AB0000044B002103F1300243F8041BDB
S11346809342FBD1704700BF3410FE1F024B43F826
S113469020100020704700BF3410FE1F08B57A4B6D
S11346A0B3F84031D90700F1C180774BB3F84031FA
S11346B09A0700F1B080744BB3F840315B0700F106
S11346C09F80714BB3F84031180700F18E806E4B18
S11346D0B3F84031D9067CD46B4BB3F84001C0F336
S11346E08010002869D1684BB3F840311A0658D4B9
S11346F0654BB3F84031DB0547D4634BB3F8403125
S1134700980536D4604BB3F84031590524D45E4B38
S1134710B3F840311A0512D45B4BB3F84031DB04D3
S113472000D408BD594BDB6A002B40F0AA80564ADE
S1134730B2F8303143F48053A2F8303108BD534B02
S11347409B6A002B40F09A804F4AB2F8303143F410
S11347500063A2F83031DFE74C4B5B6A002B40F07A
S11347608A80494AB2F8303143F48063A2F8303188
S1134770CDE7464B1B6A002B7AD1434AB2F830315D
S113478043F40073A2F83031BCE7404BDB69002BE3
S11347906BD13D4AB2F8303143F48073A2F8303122
S11347A0ABE73A4B1B68002B5CD1374AB2F8303187
S11347B043F08003A2F830319AE7344B5B68002B56
S11347C04ED1314AB2F8303143F04003A2F83031CF
S11347D089E72E4B9B69002B3FD12B4AB2F830312D
S11347E043F01003A2F8303176E7284B5B698BBBAA
S11347F0254AB2F8303143F00803A2F8303166E7B5
S1134800224B1B691BBB204AB2F8303143F004032E
S1134810A2F8303155E71D4B9B68ABB91A4AB2F880
S1134820303143F00203A2F8303144E7174BDB6820
S11348303BB9154AB2F8303143F00103A2F83031E4
S113484033E703209847F4E702209847E6E704207B
S11348509847D8E705209847CAE706209847BCE759
S11348609847AEE7002098479FE70720984790E7CE
S11348700820984781E70920984772E70A2098475B
S113488062E70B20984752E7006000403410FE1F97
S1134890002808DB800000F1804000F5C640036872
S11348A023F48033036070472F4BDFF8D8C02F48C0
S11348B02F492DE9F04FE02283F80023DFF8C8B038
S11348C083F80123DFF8C4A083F8022383F80323C9
S11348D083F8042383F8052383F8062383F8072346
S11348E0302283F80823DFF8A89083F80923DFF83F
S11348F0A48083F80A2383F80B234FF4BA7340F29D
S11349007512CBF80030DFF890E0CAF800204FF4BD
S1134910BB7B40F277134FF4C67A164F164E174DF1
S1134920174CC9F800B040F28D12C8F800304FF4AB
S1134930C77BCCF800A040F28F194FF4D27840F234
S1134940A5134FF4D37A40F2A71CCEF80020C7F881
S113495000B0C6F80090C5F800802360C0F800A03D
S1134960C1F800C0BDE8F08F00E100E0286300401A
S11349702C630040186300401C6300402063004027
S1134980246300401063004000630040046300405F
S1134990086300400C63004014630040012202E0FD
S11349A0C0E8432F43B1D0E84F3F13F0FF0FF7D0D7
S11349B0BFF32F8F082070471846704700230370F9
S11349C0704700BF084B0121034402E0C3E8401FC5
S11349D040B1D3E84F2F12F0FF0FF7D0BFF32F8F62
S11349E008207047704700BF6410FE1F014B00226F
S11349F01A5470476410FE1F044B002103F178021F
S1134A0003F8011F9342FBD1704700BF6310FE1FE0
S1134A100E4B33F8102092B22AB133F81020013A29
S1134A2092B223F8102033F810309BB263B9084ACD
S1134A300849B2F8FE3331F810109BB243F4254311
S1134A4023EA0103A2F8FE33704700BFDC10FE1F07
S1134A5000E0014020AC0000104A32F810309BB254
S1134A60ABB910B40E4C0F49B4F8FE3331F8101042
S1134A709BB243F425430B43A4F8FE3332F81030C1
S1134A805DF8044B01339BB222F81030704732F8C2
S1134A90103001339BB222F810307047DC10FE1F37
S1134AA000E0014020AC0000024B00221A805A8032
S1134AB09A807047DC10FE1FF8B50788AFB34168D1
S1134AC01B4C002601EBC70E4FF0010C37468888BB
S1134AD0002334F81320824216D00133032BF8D17B
S1134AE008317145F3D1F643F6B20120FFF7B4FF64
S1134AF0104A92F8BB341F433E4082F8BB64012045
S1134B00BDE8F840FFF784BF0A6802F0B852B2F17A
S1134B10807F05D00CFA03F546EA0502D6B2DCE73D
S1134B200CFA03F21743FFB2D7E7FF26DDE700BF15
S1134B3028AC000000E00140A0F101000028FBD1F6
S1134B40704700BF38B50D4601FB00F4FFF782FD46
S1134B50B0F5004F01D8012D19D00F4AB2FBF0F087
S1134B60844208D24FF47A7202FB04F3B3FBF0F0F0
S1134B70800808D138BD4FF47A72B4FBF0F002FB20
S1134B8000F08008F6D0BDE83840FFF7D5BF2846CE
S1134B90BDE83840FFF7D0BF00CA9A3B0C4A08B5BD
S1134BA013688BB1033020F003000A49184488428B
S1134BB002D81060184608BD00F0EAFC0C2303601C
S1134BC04FF0FF33184608BD034B1360EAE700BFFC
S1134BD0E410FE1FB826FE1FB816FE1FFEE700BF36
S1134BE008B500F005F800F03DF9FEE7704700BF96
S1134BF0204A08B5D2F8883043F47003C2F88830EC
S1134C000020FFF7F3FFFFF735FDFFF7D5FCFFF7B3
S1134C104BFFFEF791F9184B18481B689847184A40
S1134C20184B9B1A05D01344002103F8011D9A4226
S1134C30FBD11548154BC01A07D0154A184412F871
S1134C40011B03F8011B8342F9D1FFF703FD114B4C
S1134C5018600120FFF7CAFFFFF7CEFEFFF724FE1E
S1134C600D4B0E481B6898470020BDE8084000F033
S1134C7017B800BF00ED00E028AB0000E0AC000076
S1134C80000CFE1FB816FE1FCC08FE1F0000FE1FFE
S1134C9034B300006812FE1F60AB000030AC0000AB
S1134CA000F044B882B04FF0C84300210091009A4C
S1134CB01A7D61F300021A751A8DD0B1202161F3B7
S1134CC00F221A851A8D4FF0C04142F080021A85D6
S1134CD00A68009240F6FF721946019204E0019BB3
S1134CE0013B0193019A12B18A6A5206F7D502B0C8
S1134CF070474FF0C04142F47F421A850A6800921F
S1134D001A8D60F3C7121A850A68009240F6FF7183
S1134D101A46019105E0019B013B0193019B002B85
S1134D20E5D0936A5B06F6D402B07047F8B5494AF9
S1134D3013684FF0C84423F040031360237A6FF3E1
S1134D4004032372237DFF2243F0010323752261B0
S1134D50237D662243F0010323752261237D99227A
S1134D6043F0010323752261237D43F0010323757E
S1134D7001212320FFF7E6FE9F232361364B22699E
S1134D801A7022695A702169227D997042F00102D9
S1134D9022751A78EF2A04D000221A705A709A7079
S1134DA0F8BD5A78402AF7D19A78172AF4D1052009
S1134DB020612A4923690B70227D294B42F00102AC
S1134DC035262275266122691A70227D42F001027D
S1134DD02275228D042565F303022285227950274A
S1134DE065F3030222712761227D42F001022275DC
S1134DF01A78012742F002021A7027610A782261A8
S1134E001A782261227D3A4322752561227D3A4334
S1134E102275228860F302022280206122690A70CE
S1134E20227D3A432275266122691A70237D3B4311
S1134E302375238843F040032380A369DB074FF0E5
S1134E40C845FAD40120FFF72DFF2B7D6FF3000333
S1134E502B75F8BD00700440E810FE1FEC10FE1F17
S1134E60F010FE1F08B500F035F8002008BD00BFA3
S1134E702DE9F047B2F1000919DD0F4B0F4CD3F8BF
S1134E8008801F688A4601EB090600252570D8F8BA
S1134E90083038465146012298472378002BFCD02D
S1134EA00AF1010AB245F1D14846BDE8F0874FF056
S1134EB000094846BDE8F08770AC0000B016FE1F3C
S1134EC00379022B02D1024B01221A70704700BFF2
S1134ED0B016FE1F70B5364B93E80700ADF5816D33
S1134EE076238DF8073013689847324B1B680222EB
S1134EF0002198684FF4806300F0ECFB2E4800F02A
S1134F009BFB2E4800F098FB2D4800F095FB02A96E
S1134F102C4800F091FB2C4800F0D4FB2B4800F007
S1134F20D1FB2B4B9D681C682A6859682046904722
S1134F30D0B1284800F0C6FB012213460DF1070149
S1134F40AE682046B047244800F0BCFB02A96E6856
S1134F5020464FF480620123B047204800F0B2FBA2
S1134F602B6920469847FEE71D4800F0ABFB1D481F
S1134F7000F0A8FB012213460DF10701AE6820469C
S1134F80B047194800F09EFB02A9184800F054FBF2
S1134F9002A94FF4806201236E682046B04714488A
S1134FA000F090FB02A9114800F046FBD8E700BFCF
S1134FB070AC00004804FE1FD8B00000E0B0000050
S1134FC0E4B00000ECB00000F8B0000004B1000050
S1134FD050AC000010B1000020B1000030B100005E
S1134FE040B100004CB1000058B100006CB10000A9
S1134FF084B1000053B94AB9002908BF00281CBF76
S11350004FF0FF314FF0FF3000F03CB882B0EC4677
S11350102DE9005000F01EF8DDF804E002B00CBCED
S1135020704700BF2DE9F041069C154606460F4621
S1135030984600F029F805FB01F300FB0838A5FBAE
S11350400023B21A434467EB0303C4E90023BDE819
S1135050F08100BF2DE9F041069C904606460F46BC
S11350601D4600F05FF900FB05F5A0FB082308FBD3
S11350700155B21A2B4467EB0303C4E90023BDE8CE
S1135080F08100BF704700BF00292DE9F043C0F252
S1135090A6800026002BC0F29C80884694469E463B
S11350A0154604460F46002B3DD18A4259D9B2FA1F
S11350B082F33BB1C3F120029F4020FA02F29D40EB
S11350C017439C40290C220CB7FBF1FEA8B201FB4C
S11350D01E7742EA074700FB0EF3BB420AD97F1949
S11350E00EF1FF3280F00581BB4240F20281AEF145
S11350F0020E2F44FF1AA4B2B7FBF1F301FB13779E
S113510044EA074700FB03F0B84208D97F1903F1CA
S1135110FF3280F0F080B84240F2ED80023B43EA77
S11351200E43002203E08B420FD900221346341CA5
S113513018BF012460424FF0000565EB450158405B
S1135140514000196941BDE8F083B3FA83F2002AA3
S113515040F086808B4202D3844500F2DB80012339
S1135160E5E712B90123B3FBF2F5B5FA85F000289F
S11351703BD1781B4FEA154E1FFA85FC0122B0FB88
S1135180FEF8210C0EFB180741EA07470CFB08F355
S1135190BB4207D97F1908F1FF3102D2BB4200F2AA
S11351A0BD808846FF1AA4B2B7FBFEF30EFB13774B
S11351B044EA07470CFB03FCBC4507D97F1903F1FC
S11351C0FF3102D2BC4500F2A7800B4643EA0843F4
S11351D0ADE752426FEA060663EB43035DE74042E4
S11351E061EB41014FF0FF3654E7C0F1200224FA8D
S11351F002F107FA00F385404FEA154ED7401943F0
S1135200B7FBFEF20B0C0EFB12771FFA85FC43EA88
S113521007430CFB02F79F4204FA00F407D95B1919
S113522002F1FF3074D29F4272D9023A2B44DF1B41
S113523089B2B7FBFEF80EFB187341EA03430CFB7B
S113524008F79F4208D95B1908F1FF315CD29F42ED
S11352505AD9A8F102082B44D81B48EA02428EE727
S1135260C2F120032CFA03F10EFA02FE20FA03F72E
S113527041EA0E0E08FA02F028FA03F14FEA1E453D
S11352803843B1FBF5F8030C05FB18111FFA8EF730
S113529043EA014107FB08F38B420CFA02FC09D9EB
S11352A011EB0E0108F1FF3930D28B422ED9A8F14F
S11352B002087144C91A80B2B1FBF5F305FB13115E
S11352C040EA014107FB03F78F4208D911EB0E01B5
S11352D003F1FF3016D28F4214D9023B714443EAE2
S11352E00843C91BA3FB0C89494509D305D00022F7
S11352F01DE79646FEE6134611E794404445F6D270
S1135300013BF4E70346EAE78846A5E7C846D1E748
S113531002468CE713460AE7023B57E7A8F1020866
S11353202F443FE72DE9F041002B44D18A42154632
S113533004464FD9B2FA82F70E464FB1C7F12003A3
S1135340B94020FA03F602FA07F50E4300FA07F40F
S11353504FEA154E230CB6FBFEF0AFB20EFB106104
S113536043EA014307FB00F1994209D95B1900F1B3
S1135370FF3280F0EC80994240F2E98002382B44FD
S11353805A1AA4B2B2FBFEF30EFB132244EA024201
S113539007FB03F7974208D9521903F1FF3180F054
S11353A0D880974240F2D580023B43EA0040002671
S11353B03146BDE8F0818B4247D8B3FA83F6002E1C
S11353C048D18B4202D3824200F2CD800120314683
S11353D0BDE8F08112B90125B5FBF2F5B5FA85F8FF
S11353E0B8F1000F77D14A1B4FEA154EAFB2012630
S11353F0B2FBFEF0230C0EFB102143EA014107FB34
S113540000F38B4207D9491900F1FF3202D28B42D3
S113541000F2BA801046C91AA4B2B1FBFEF30EFB27
S1135420131144EA014407FB03F7A74208D964199E
S113543003F1FF3280F08F80A74240F28C80023B60
S113544043EA00403146BDE8F0810026304631464B
S1135450BDE8F081C6F1200422FA04F5B3402B43E1
S113546020FA04FC01FA06F721FA04F54FEA134E78
S11354704CEA0707B5FBFEF8390C0EFB18551FFA6A
S113548083FC41EA05450CFB08F1A94202FA06F245
S113549004D9ED1808F1FF3467D3A0466D1ABFB2E2
S11354A0B5FBFEF40EFB145547EA05410CFB04FC66
S11354B08C4504D9C91804F1FF355CD32C4644EA61
S11354C00844CCEB0101A4FB0223994248D344D005
S11354D0204600266CE7C8F1200401FA08F305FA17
S11354E008F520FA04F7E1404FEA154E1F43B1FBDB
S11354F0FEF63A0C0EFB16111FFA85FC42EA014334
S11355000CFB06F29A4200FA08F407D95B1906F17B
S1135510FF3137D29A4235D9023E2B449B1ABFB28F
S1135520B3FBFEF00EFB103347EA03430CFB00F120
S1135530994207D95B1900F1FF3221D299421FD950
S113554002382B445A1A40EA0646674650E710468A
S113555016E70B4629E7134672E7B0409042B7D2EC
S1135560601E002624E7304622E7A94295D9A8F117
S113557002081D4492E78C45A0D9023C19449EE7D9
S11355801046DFE70E46C9E70238294443E700BF67
S1135590014B1868704700BF4804FE1F70B48407AD
S11355A046D0541E002A41D0CDB2034602E0621E0A
S11355B0E4B3144603F8015B9A07F8D1032C2ED9FF
S11355C0CDB245EA05250F2C45EA054519D903F165
S11355D010022646103E0F2E42F8105C42F80C5C76
S11355E042F8085C42F8045C02F11002F2D8A4F11B
S11355F0100222F00F0204F00F041032032C1344A3
S11356000DD91E462246043A032A46F8045BFAD80A
S1135610221F22F003020432134404F003042CB1C9
S1135620C9B21C4403F8011BA342FBD170BC7047F0
S113563014460346C2E700BF0FB400B5074983B060
S113564004AB086853F8042B8168019300F0ECF86C
S113565003B05DF804EB04B0704700BF4804FE1FBC
S1135660F0B5054689B008460C4600F0AFF8AB6BC0
S1135670134F04940126441C04A9022203940590A8
S1135680AC680697079601910292ABB1A3899A047C
S113569006D4626E43F4005322F40052A38162667E
S11356A02846214601AA02F0EDFD002814BF4FF060
S11356B0FF300A2009B0F0BD284602F09DFCE5E762
S11356C0A0B10000024B01461868FFF7C9BF00BF34
S11356D04804FE1F2DE9F0413A4C26680D46044665
S11356E090461F4616B1B36B002B3CD0B8F1020FA5
S11356F02FD8002F2DDB2146304602F0E9FBA1898B
S113570000236360A3610B0627D421F0830189B2CF
S1135710B8F1020FA1812AD0002D36D0B8F1010FC3
S113572011D089B201F00800274BF36380B22560E1
S11357302561676178B111F0030F18BF0027A760D6
S11357400020BDE8F08141F001017B42A181A36109
S1135750E7E74FF0FF30BDE8F0812169304602F001
S1135760B9FCA189D1E7304602F046FCBEE700202F
S113577004F1430341F0020100250122A181A56047
S1135780236023616261BDE8F081002F08BF4FF4FC
S11357908067384602F0AAFF054628B1A18941F086
S11357A0800189B2A181B9E74FF4806002F09EFFC5
S11357B0054618B9A1894FF0FF30D9E74FF4806747
S11357C0ECE700BF4804FE1FFD7E000020F003014B
S11357D010F00300C0F1000051F8043B00F1040C88
S11357E04FEACC0C6FF000021CBF22FA0CF21343F8
S11357F04FF0010C4CEA0C2C4CEA0C4CA3EB0C02C1
S113580022EA030212EACC1204BF51F8043B04302A
S1135810F4D0C2F1000102EA0102B2FA82F2C2F14A
S11358201F0200EBD20070472DE9F04FBDB01C46BB
S113583089460492074602F0E5FE03681193184670
S1135840FFF7C4FF089412901FB1BB6B002B00F04C
S1135850F380B9F80C2093B29E040AD4D9F86410EA
S113586042F4005321F40051A9F80C30C9F8641033
S11358709BB21D0740F1AA80D9F81020002A00F03D
S1135880A58003F01A030A2B00F0AC809FED6E7B19
S113589000238DED0E7B0D9321932093109313938E
S11358A005932CAB1F931C46B846049D2B78002B04
S11358B000F0C680252B02D1C2E0252B03D015F8B9
S11358C0013F002BF9D1049BEE1A7EB1209B219A53
S11358D00499216001333244072B6660219220939E
S11358E000F393800834059B334405932B78002BF5
S11358F000F093800023691C4FF0FF3A6D788DF817
S11359005F301A460693029356464B1CA5F12001BC
S1135910582900F2CD83DFE811F05C02CB03CB03FE
S11359200203CB03CB03CB03CB03CB03CB0309038E
S1135930D202CB03F8015303CB03D602DD02DD020E
S1135940DD02DD02DD02DD02DD02DD02DD02CB036C
S1135950CB03CB03CB03CB03CB03CB03CB03CB03D3
S1135960CB0371029302CB039302CB03CB03CB0390
S1135970CB03CB02CB03CB036E03CB03CB03CB0311
S1135980CB03CB03B503CB03CB038B03CB03CB03F9
S1135990CB03CB03CB03CB03CB03CB03CB03CB0393
S11359A0A003170393029302930230031703CB035C
S11359B0CB033703CB034103FF01EC026302CB03A8
S11359C01102CB039B00CB03CB0336023846494676
S11359D001F078F9A0B9B9F80C3003F01A030A2BD6
S11359E07FF454AFB9F90E30002BFFF64FAF3846B1
S11359F04946049A234601F029F93DB0BDE8F08FE9
S1135A004FF0FF303DB0BDE8F08F404649461FAA35
S1135A1003F0FCFF40B92CAC65E7219B23B1404661
S1135A2049461FAA03F0F2FFB9F80C305A06E7D42E
S1135A3005983DB0BDE8F08F384602F0DDFA08E77E
S1135A40049D53E7AFF30080000000000000000055
S1135A500493029BB2469E0640F11E83089F0737BB
S1135A6027F0070303F10802D3E900670892012332
S1135A704FF0000C8DF85FC0CDF82CA0BAF1000FE8
S1135A8003DB029A22F08002029256EA070240F0F7
S1135A901F83BAF1000F00F01C84012B00F0208357
S1135AA0022B00F052842CA9F20842EA4772F8084B
S1135AB006F0070307461646303356EA070201F894
S1135AC0013DF1D1029A0A91D00700F1F9842CAB7F
S1135AD05B1A0793079A92455346B8BF134603933C
S1135AE000230C93BCF1000F02D0039B01330393FA
S1135AF0029B13F00203099302D0039B0233039326
S1135B00029B13F0840640F0E082069B039AC2EBEA
S1135B10030ABAF1000F40F3D882BAF1100F2199A9
S1135B20209AB34FC8BF4FF0100B07DC1EE0AAF158
S1135B30100ABAF1100F04F1080417DD0132103114
S1135B40072A2191209284E88008F0DD40464946E6
S1135B501FAA03F05BFF00287FF466AFAAF1100AC6
S1135B60BAF1100F2199209A2CACE7DC01320AEB30
S1135B70010B072ACDF884B0209284E8800400F356
S1135B804A849DF85FC00834BCF1000F0FD0209BFD
S1135B9001330BF1010B0DF15F010122072BCDF84D
S1135BA084B0209384E8060000F3B1830834099B91
S1135BB073B1209B01330BF1020B18A90222072BAE
S1135BC0CDF884B0209384E8060000F3AC83083455
S1135BD0802E00F0F0820B9B079AC2EB030ABAF105
S1135BE0000F32DDBAF1100F209A824F22DD102609
S1135BF05B4606E0AAF1100ABAF1100F04F108049A
S1135C0017DD01321033072A219320922760666042
S1135C10F0DD404649461FAA03F0F8FE00287FF451
S1135C2003AFAAF1100ABAF1100F219B209A2CACF1
S1135C30E7DC9B460132D344072ACDF884B0209296
S1135C4084E8800400F357830834029BDB0500F1E9
S1135C505B82209B07990A9A226001338B44072BAD
S1135C60CDF884B06160209300F31D830834029B57
S1135C7059073AD5069B039A9D1A002D35DD102D40
S1135C80209B5B4F1EDD10265A4604E0103D102D6C
S1135C9004F1080415DD01331032072B21922093FF
S1135CA027606660F2DD404649461FAA03F0AEFE57
S1135CB000287FF4B9AE103D102D219A209B2CAC06
S1135CC0E9DC93460133AB44072BCDF884B0209331
S1135CD02760656009DD404649461FAA03F096FE29
S1135CE000287FF4A1AEDDF884B0059B039A0699E1
S1135CF08A42ACBF9B185B180593BBF1000F40F0C0
S1135D00DE82002320932CACCFE5194602981D783F
S1135D1040F004000290F8E50493029B13F0200382
S1135D20B24600F07381089F073727F0070303F199
S1135D300802D3E900670892002399E6089A0493BD
S1135D4013680A934FF0000B8DF85FB0171D002BFA
S1135D5000F05E86002E0A98C0F21286594632463A
S1135D6002F05EFF002800F08F860A9BCDF82CB06D
S1135D70C31A0793089723EAE3730393CDF830B06B
S1135D809DF85FC0AEE604931B4B1093029B8DF805
S1135D905F209906B24640F15581089F073727F0E6
S1135DA00703D3E9006703F108020892029BDB07AB
S1135DB040F1E48256EA070300F0E082029A8DF88B
S1135DC06150302342F002028DF8603002920223C7
S1135DD04EE61D781946002A7FF497AD202294E5FB
S1135DE0029941F0200102911D7819468DE500BF0A
S1135DF0F8B10000A4B10000D8B100000493029BE4
S1135E008DF85F2043F010030293029B9806B2467C
S1135E1040F1A280089F073727F00707D7E900233E
S1135E2007F10801089116461F46002A73F1000382
S1135E30C0F21C849DF85FC0CDF82CA001231DE6A0
S1135E400493029B089F8DF85F201B07B246B3465C
S1135E5007F1070740F19B8427F0070393ED007BCC
S1135E608DED0E7B03F1080208929DED0E0B03F0FD
S1135E700FFD012840F00884DDE90E010022002313
S1135E8004F028FC002840F0EC859DF85FC0029ED9
S1135E90994A9A4B0321002026F08006472DD8BF4B
S1135EA01A4603910B9002960A9207910C9019E6F8
S1135EB0029941F0080102911D78194625E51D78E3
S1135EC019462B2221E5029941F0800102911D78A7
S1135ED019461AE5A5F13000002113F8015B01EB26
S1135EE0810100EB4101A5F130000928F5D90691A3
S1135EF00CE5089904933023029A8DF860300B4620
S1135F000433782542F0020208937D4B1093B24685
S1135F1002920E688DF8615000270223A8E50299C9
S1135F2041F0010102911D781946EEE4089D2968AB
S1135F30069108460028294601F10401C0F2EE84C6
S1135F4008911D781946E0E40493029B8DF85F20C4
S1135F509806B2463FF55EAF029BD90600F19B82DC
S1135F60029B5A0640F197820899B1F90060043106
S1135F70F71732463B46089157E7029941F0400132
S1135F8002911D781946C0E41D7802996C2D00F029
S1135F90BE8441F0100102911946B6E40493029BB9
S1135FA08DF85F209A0640F1FD83089A05991368DD
S1135FB0CF170846043239460892C3E9000174E455
S1135FC01D782A2D03F1010100F02A86A5F1300085
S1135FD009280B464FF000063FF698AC13F8015B16
S1135FE006EB860600EB4606A5F130000928F5D934
S1135FF046EAE6768AE40493029B43F01003029394
S1136000029B13F02003B2467FF48DAE029A12F085
S1136010100240F03882029B13F0400300F03382F8
S1136020089913460A4604320E88089200271FE591
S11360300493344B1093029B8DF85F209906B2466B
