S012000054657374696E675350492E7372656348
S1130000A824FE1F4D480000094300004948000091
S11300104948000049480000494800000000000029
S1130020000000000000000000000000494800003B
S11300304948000000000000494800004948000009
S1130040C52C0000592C00009D2D0000312D00000E
S1130050E92C00007D2C0000C12D0000552D00006E
S11300600D2D0000A12C0000E52D0000792D0000CD
S1130070000000000000000000000000000000007C
S1130080000000000000000000000000000000006C
S1130090000000000000000000000000000000005C
S11300A0000000000000000000000000000000004C
S1130400FFFFFFFFFFF9FFFFFFFFFFFFFFFFFFFFFE
S1130410FFFFFFFFFFFFFFFFFFFFFFFFFFFFFFFFE8
S1130420FFFFFFFFFFFFFFFFFFFFFFFFFFFFFFFFD8
S1130430FFFFFFFFFFFFFFFFFFFFFFFFFFFFFFFFC8
S1130440FFFFFFFFFFFFFFFFFFFFFFFFFFFFFFFFB8
S1130450FFFFFFFFFFFFFFFFFFFFFFFFFFFFFFFFA8
S1130460FFFFFFFFFFFFFFFFFFFFFFFFFFFFFFFF98
S1130470FFFFFFFFFFFFFFFFFFFFFFFFFFFFFFFF88
S1130480FFFFFFFFFFFFFFFFFFFFFFFFFFFFFFFF78
S1130490FFFFFFFFFFFFFFFFFFFFFFFFFFFFFFFF68
S11304A0FFFFFFFFFFFFFFFFFFFFFFFFFFFFFFFF58
S11304B0FFFFFFFFFFFFFFFFFFFFFFFFFFFFFFFF48
S11304C0FFFFFFFFFFFFFFFFFFFFFFFFFFFFFFFF38
S11304D0FFFFFFFFFFFFFFFFFFFFFFFFFFFFFFFF28
S11304E0FFFFFFFFFFFFFFFFFFFFFFFFFFFFFFFF18
S11304F0FFFFFFFFFFFFFFFFFFFFFFFFFFFFFFFF08
S113050010B5054C237833B9044B13B10448AFF349
S113051000800123237010BD8800FE1F000000002E
S113052060640000084B10B51BB108480849AFF3DC
S113053000800848036803B910BD074B002BFBD0AB
S1130540BDE81040184700BF0000000060640000D0
S11305508C00FE1F6C00FE1F0000000000F01F0155
S113056001234009024A8B4042F82030704700BF03
S113057000E100E04309203300F01F00012202499A
S1130580824041F82320704700E100E020B319B312
S113059030B54368002283B005460C464A600A60C1
S11305A0E3B19A68AAB192699AB11868694690470A
S11305B080B9009B6360A868A0B183684BB19B6954
S11305C03BB100686946984720B9009B236003B09B
S11305D030BD012003B030BD012070474FF0FF3320
S11305E04B60E8E74FF0FF332360F3E70123037028
S11305F043708370C3700020704700BF08B338B5E0
S113060004460068104A0301D35C012B05D0002581
S1130610A56102F07BFA284638BD63682BB19A685D
S11306206AB1186858B1D3699847A3682BB19A681E
S11306302AB1186818B1D36998472068E7E7012000
S113064038BD0120704700BFC803FE1F58B151B127
S113065070B40568124E2C01345D013C042C04D99D
S1130660052070BC70470120704705F1007505F541
S113067060556D01AC79E40608D562B143689A68A7
S11306805AB11868B0FA80F04009EAE71943CB0779
S1130690F3D50320E5E71046E3E70120E1E700BFD7
S11306A0C803FE1F2DE9F04113461446426805466F
S11306B00E46FFF7CBFF88B994B12B68174F03F1AF
S11306C0007101F5605149011B018A79FB5C12F04C
S11306D0100F14BF01220222012B04D0BDE8F081C7
S11306E02046BDE8F08168680028F7D0B4FBF2F436
S11306F0836800684FF6FF77BC4228BF3C465F68BA
S1130700022A4FF0010E3246A3B285F814E0BC462B
S11307100CBF10311131BDE8F0416047C803FE1F22
S11307200AB90320704700297CD12DE9F04F514BC1
S1130730514F5E6985B042F21078144601900D461F
S11307408B46C1464FF0FF0A002003A9B0470BEBCC
S11307504B03002840F0898037F81330039ADFF800
S113076018C104FB03F3B2FBF3FE0EF1FF31BEF13B
S1130770000F12D003FB0EF3520AFF2909FB02F209
S11307804FEA532309D8B2FBF3F2A2F51C53103BF2
S1130790434502DA98468A465D460BF1010BBBF1EC
S11307A00D0FD1D142F2107398455ED0019B03F135
S11307B0007303F560535B0105EB45059A780CEB78
S11307C0450C5FFA8AFA22F003029A7083F801A0BA
S11307D0DA799CF8021022F0400201F0010142EAA9
S11307E08112DA71DA799CF8031022F0100201F018
S11307F0010142EA0112DA71DA799CF8041022F05C
S1130800080201F0010142EAC102DA719CF80520F4
S11308101C7802F0030124F003020A431A7005B0A5
S1130820BDE8F08F00F1007000F560504001FF2337
S11308304370C37923F04003C371C37923F00803E1
S1130840C371037823F003030370837823F0030355
S113085043F002038370C37902290CBF43F01003F1
S113086023F01003C37100207047032005B0BDE8D6
S1130870F08F00BFAC5E0000645D0000F0B513466D
S113088083B01546826804460E46FFF7DFFE10B9B2
S1130890E06810B1082003B0F0BD236834491A01A0
S11308A08F188A5C012AF6D1797801B97A7003F13C
S11308B0007303F560535A01A168937913F0100F84
S11308C014BF0123022300294AD0012D48D9022B49
S11308D0A5EB03004FF6FF77B5FBF3F5236105F1B4
S11308E0FF330CBF0E320F328D68BB42304428BF39
S11308F03B46E0606D6808689BB23146A847002813
S1130900C9D1226802F1007202F560525201937853
S113091043F0200393702468082C26D0092C22D09D
S1130920002C0CBF01200C2040B2FFF717FE04F18D
S1130930007303F560535B0100209A78D2B28DF8FE
S113094007209A78D2B28DF807209A78D2B28DF81F
S113095007209A7862F07F029A709DF807309AE730
S1130960E6602561D3E72046DEE70520DCE700BF2B
S1130970C803FE1F68B370B50468082C82B005462E
S11309800E4600F0B180092C25D0002C00F0B78071
S11309900C20FFF7EFFD082C00F0A980092C1DD0D6
S11309A0002C00F0AF800C20FFF7E4FD082C00F0D1
S11309B0A180092C15D0002C00F0A7800C20FFF793
S11309C0D9FD082C00F09980092C0DD00C2064B9B5
S11309D09EE0012070472046FFF7CCFD0A20FFF778
S11309E0C9FD0820FFF7C6FD0B20FFF7C3FD04F186
S11309F0007303F560535B019A78D2B28DF8062038
S1130A009A78D2B28DF806209A78D2B28DF8062060
S1130A109A7802F07F029A709A7822F004029A700F
S1130A209A7822F040029A702B689DF8062003F110
S1130A30007303F560535B019A7802F0DF029A7049
S1130A402B6803F1007303F560535B019A7802F09D
S1130A50EF029A70286800F1007303F560535B019C
S1130A60997811F0030105D0DB7913F0100F14BF4E
S1130A70022103213246FFF753FE2B6803F1007372
S1130A8003F560535B0106469A7842F010029A70AF
S1130A902C68082C48D0092C41D0002C3AD00C20CA
S1130AA0FFF75CFD082C42D0092C3BD00C20A4B3EA
S1130AB0FFF754FD04F1007303F560535B01304606
S1130AC09A78D2B28DF807209A78D2B28DF807209E
S1130AD09A78D2B28DF807209A7842F040029A7040
S1130AE09DF8073002B070BD0520FFF743FD0620D6
S1130AF0FFF740FD0420FFF73DFD072075E70120C7
S1130B00FFF738FD0220FFF735FD0020FFF732FD27
S1130B1003206AE72046FFF721FD0320C8E70820E9
S1130B20FFF71CFD0B20C3E70420FFF717FD072088
S1130B30BEE700BF2DE9F04F87B0A8B1A1B10646CA
S1130B4008680C4602F082F848B92068194F03017E
S1130B50FB5C73B10825284607B0BDE8F08F054655
S1130B60284607B0BDE8F08F0125284607B0BDE848
S1130B70F08F237A022B04D90325284607B0BDE859
S1130B80F08FA37A012BF7D8637A022BF4D8D4F828
S1130B901C80B8F1000F07D098F80030002B40F00B
S1130BA09E836368002BE7D001F094FF054618B1DB
S1130BB00A25D0E7C803FE1FE3682269B2607360A8
S1130BC0002B4AD0D3F808C0BCF1000FCCD0D3F826
S1130BD00090B9F1000FC7D05A68002AC4D0136836
S1130BE0002BC1D0D878997894F808E04FF0020A25
S1130BF065F387106AF3830165F3830065F3451198
S1130C00D645D870997000F0B882D97865F305118B
S1130C10D970D4F800B0BBF1000F03D0ABF10803D6
S1130C20012BA1D89246BAE80F000DF1040EAEE8EC
S1130C300F005F4BDAF80020CEF8002033F81B20B9
S1130C40DCF80030ADF80820002248468DF80A2070
S1130C5001A99847002882D12269002A4FD0D2F8EE
S1130C6008C0BCF1000F3FF47FAFD2F80090B9F197
S1130C70000F3FF479AF5268002A3FF475AF136850
S1130C80002B3FF471AFD878997894F808E04FF0CE
S1130C90020A00F03F0001F0F3016AF383006FF3EE
S1130CA04511D645D870997000F01383D9786FF345
S1130CB00511D970D4F800B0BBF1000F04D0ABF12A
S1130CC00803012B3FF650AF9246BAE80F000DF12E
S1130CD0040EAEE80F00374BDAF80020CEF80020FF
S1130CE033F81B20DCF80030ADF808200022484619
S1130CF08DF80A2001A9984700287FF430AF01201D
S1130D00D4F8009003F0DEFC2B4AC9F11F091368E4
S1130D104FF0010A0AFA09F123EA0103136050466D
S1130D2003F0ACFC236803F1007303F560535B012B
S1130D3006221A77D4F80090B9F1080F00F0438224
S1130D40B9F1090F00F05582B9F1000F00F04682A5
S1130D500C20FFF70FFCB9F1080F00F03782B9F14E
S1130D60090F00F04982B9F1000F00F03A820C201B
S1130D70FFF700FCB9F1080F00F02B82B9F1090F5D
S1130D8000F03D82B9F1000F00F02E820C20FFF735
S1130D90F1FBB9F1080F00F01F82B9F1090F00F05F
S1130DA031820C20B9F1000F00F0218206E000BF6F
S1130DB0505D0000B45D000000700440FFF7DAFBF2
S1130DC009F1007303F560535B019A78D2B28DF890
S1130DD003209A78D2B28DF803209A78D2B28DF893
S1130DE003209A7802F07F029A709A7822F0040223
S1130DF09A709A7822F040029A7023689DF8032032
S1130E0003F1007303F560535B019A7802F0EF027B
S1130E109A70236803F1007303F560535B019A78B9
S1130E2002F0DF029A70236803F1007303F5605344
S1130E305B019A8A22F001029A82236803F100730B
S1130E4003F560535B019A8A42F002029A82236995
S1130E50002B00F02482236803F1007303F5605330
S1130E605B019A8A22F470629A82236803F1007308
S1130E7003F560535B019A8A6FEA02526FEA1252D9
S1130E809A82226802F1007202F560525201938A3A
S1130E9043F004039382938A5907FCD42369002BFB
S1130EA000F0B281236803F1007303F560535B0122
S1130EB09A8A22F0F0029A82B8F1000F00F025819C
S1130EC098F80230002B00F04D81236803F1007381
S1130ED003F560535B01DA7962F07F02DA7198F806
S1130EE00330002B00F01B81236803F1007303F52A
S1130EF060535B010021DA7942F02002DA71197241
S1130F002368D4F81C8003F1007303F560535B017C
S1130F105A7A22F001025A72236803F1007303F52E
S1130F2060535B015A7B02F07F025A73236803F11A
S1130F30007303F560535B015A7B22F040025A733D
S1130F40637A002B00F00381236803F1007303F537
S1130F5060535B011A7842F020021A70637A012B05
S1130F60236803F1007303F560534FEA43131A78BF
S1130F700CBF42F0100222F010021A70237A012BE7
S1130F8000F00181022B236803F1007303F5605321
S1130F904FEA43131A7822F040021A709A790CBF70
S1130FA022F0100242F010029A71A37A012B2368F6
S1130FB003F1007303F560534FEA43131A780CBF2F
S1130FC042F0080222F008021A70E37A002B00F0C3
S1130FD0B380236803F1007303F560535B015A7B0C
S1130FE042F002025A73B8F1000F00F0188198F829
S1130FF0001029B1022903D003290CBF03210021C9
S113100094E80500FFF78CFB032800F0108198F8A2
S11310100130002B40F0C680236803F1007303F510
S113102060535B019A78997802F0020221F003017F
S11310300A439A70226802F1007202F5605252016A
S1131040938A9B07FCD4938AC3F38003002BFAD1C1
S1131050918A41F001019182226802F1007202F545
S1131060605252014FF0010E918A21F008019182E1
S11310702268A069616932604FEA021802F10072C5
S113108007EB080C02F56052F061B161F360336163
S11310903375520107F808E08CF80130CCF804608D
S11310A0937843F0100393702468082C00F00C81AB
S11310B0092C00F00481002C00F0FC800C20FFF7C8
S11310C04DFA082C00F00381092C00F0FB800C2061
S11310D0002C00F0F280FFF741FA04F1007303F5ED
S11310E060535B019A78D2B28DF804209A78D2B218
S11310F08DF804209A78D2B28DF804209A7842F0C0
S113110040029A709DF8043025E5236803F10073CA
S113111003F560535B01DA7902F07F02DA71236828
S113112003F1007303F560535B010021DA7922F0C7
S11311302002DA711972E3E6236803F1007303F500
S113114060535B015A7B22F002025A734BE7236817
S113115003F1007303F560535B011A7822F0200257
S11311601A70FBE6236803F1007303F560535B0117
S1131170DA7902F07F02DA71B1E6C1B2012060F3DC
S11311800511D97045E5236803F1007303F5605335
S11311905B011A7842F040021A709A7942F0100208
S11311A09A7102E7236803F1007303F560535B014E
S11311B09A78997802F0030242F0010221F00301C7
S11311C00A439A7036E70520FFF7D4F90620FFF7A3
S11311D0D1F90420FFF7CEF90720EFE55046FFF7D9
S11311E0C9F90220FFF7C6F90020FFF7C3F903206D
S11311F0E4E54846FFF7BEF90A20FFF7BBF90820EB
S1131200FFF7B8F90B20D9E5236803F1007303F560
S113121060535B019A8A42F0F0029A824CE641469E
S113122094E80500FFF77CFA03287FF4F5AE236801
S113123003F1007303F560535B019A78997802F027
S1131240020221F003010A439A7073681BB19A6881
S11312501868D3699847B3681BB19A681868D3694A
S11312609847236803F1007303F560535B01012081
S1131270DA7902F07F02DA71256803F023FA1A4A58
S113128001201368C5F11F0500FA05F10B43136033
S113129003F0F4F9206801F02FFC03255BE42368D4
S11312A003F1007303F560535B019A8A42F47062A0
S11312B09A82DAE52046FFF751F903200BE708206C
S11312C0FFF74CF90B2006E70420FFF747F9072046
S11312D001E7C1B2012060F30511D970EAE4023BD1
S11312E0012B3FF649AC5FE400700440734B03EB01
S11312F00013F0B55C682268A76800F1007502F17C
S1131300007202F5605305F560555B016D0183B011
S1131310EE8A997911F0100FC6F3042E14BF01213F
S11313200221002F69D0BEF1000F0FD1E2681678B8
S11313301A79D209FCD0B2B2DA812369E2685B1A65
S113134011442361E16023B103B0F0BD2369002B94
S1131350FAD10828064600F09980092836D00028DA
S11313607DD00C20FFF7FAF8AB78DBB28DF80630AD
S1131370AB78DBB28DF80630AB78DBB28DF8063093
S1131380AB7843F00403AB70082E9DF8063000F0F0
S11313909280092E2FD00C20002E75D0FFF7EAF88A
S11313A0AB78DBB28DF80730AB78DBB28DF8073061
S11313B0AB78DBB28DF80730AB7803F07F03AB700A
S11313C09DF807200023E36003B0F0BD0A20FFF777
S11313D0C5F8AB78DBB28DF80630AB78DBB28DF8AC
S11313E00630AB78DBB28DF80630AB7843F00403FB
S11313F0AB709DF806300920D0E726694EB3CEF1D4
S11314001006002E25DDE368012902F560520CBFA9
S113141093F800E0B3F800E052011379DB09FCD043
S11314205FFA8EF3D3812269E368521A0F440B44A6
S1131430BA4206F1FF362261E36004D91EB1226884
S113144002F10072E0E7236803F1007303F56053CF
S11314505B011A7902F07F021A71236973E7022093
S1131460FFF77CF8AB78DBB28DF80630AB78DBB2F3
S11314708DF80630AB78DBB28DF80630AB7843F0EC
S11314800403AB709DF80630012087E70620FFF7C0
S113149065F8AB78DBB28DF80630AB78DBB28DF84B
S11314A00630AB78DBB28DF80630AB7843F004033A
S11314B0AB709DF80630052070E700BFC803FE1F1F
S11314C02E4B03EB00132DE9F04FD3F804B0DBF8F7
S11314D00030DBF8042000F1007403F1007303F51D
S11314E0605304F560545B01640185B0E58A9B791F
S11314F013F0100F064605F01F0514BF4FF0010846
S11315004FF0020812B19BF8143023BB4FF0000ACD
S1131510D146802712E0238ADBF818209BB2DBB285
S113152052B1DBF81C10009602938DF804700391FD
S11315309047B8F1020F07D00AF1010A55456846F1
S1131540E9D105B0BDE8F08FCDF80890DBF818308C
S113155068469847F0E7DBF8183000228BF814202F
S1131560002BD3D0DBF81C10009001208DF8040070
S11315700292039168469847C8E700BFC803FE1F5C
S1131580F0B51E4E05017319082887B004465F683C
S11315902FD009282FD000280CBF02200C20FEF7E2
S11315A0E9FF04F1007303F560535B019A78D2B24A
S11315B08DF807209A78D2B28DF807209A78D2B2A3
S11315C08DF807209A7822F004029A70BB699DF87E
S11315D007204BB1FA69059200210222029404917A
S11315E08DF80C2002A89847354400236B7007B08F
S11315F0F0BD0620D3E70A20D1E700BFC803FE1FD1
S113160010B500F1007303F560535B0116491C8AA1
S11316101A7901EB001122F0400249681A711A7913
S113162022F001021A711A79920684B0E4B20CD540
S113163020238DF804308B692BB1CA690090039282
S113164002946846984704B010BD1A79D20607D5AB
S11316501B7FDB0754BF102308238DF80430EAE70F
S113166004238DF80430E6E7C803FE1F00F01F01D1
S113167001234009024A8B4042F82030704700BFE2
S113168000E100E04309203300F01F000122024979
S1131690824041F82320704700E100E001234370B9
S11316A00370C37083700020704700BFA1B198B16C
S11316B02DE9F04F05468BB008680C4601F0C6FAD8
S11316C038B92668BA4B4FEA061813F808302BB11C
S11316D008200BB0BDE8F08F012070474FEA86095F
S11316E0DFF8E0A209EB06030AEB83039B78002BE7
S11316F0EED1304601F0EEF908B10A20E9E763695A
S1131700002B45D09A680092002A00F02A811A68BA
S11317100192002A00F025815B68002B00F02181F2
S1131720D3F800E0BEF1000F00F01B8122680292A2
S11317301AB1083A012A00F214819EF802C09EF8F8
S113174003B01F46022363F3830C0FCF0BF0330B5C
S11317506FF3451C6FF3051B8EF802C08EF803B0BF
S11317600DF1140EAEE80F003A68CEF8002002998D
S1131770904A019832F81110009A002307931268D6
S1131780ADF818108DF81A3005A990470028A0D19B
S11317902369002B00F008819A680192002A00F066
S11317A0E0801A680292002A00F0DB805B68002B5C
S11317B000F0D7801A680092002A00F0D2802268D4
S11317C003921AB1083A012A00F2CB80009F97F8DD
S11317D003C097F802B09E460CF03F0C022363F35B
S11317E0830CBEE80F006FF3051C0BF0F30B87F8B6
S11317F003C06FF3451B0DF1140C87F802B0ACE87D
S11318000F00DEF80020CCF8002003996A4A029801
S113181032F81110019A002307930DF1140B12688A
S1131820ADF818108DF81A305946904700287FF407
S113183050AF012002F046FF604901230A68C6F157
S11318401F0003FA00F022EA00020A60184600931F
S113185002F014FF082E00F09180092E00F083801E
S1131860009B002E00F095800C20FFF70BFF082E44
S113187000F08780092E79D0002E00F08D800C2096
S1131880FFF700FF082E7FD0092E72D0002E00F043
S113189086800C20FFF7F6FE082E78D0092E6BD038
S11318A00C20002E7ED0FFF7EDFE06F1007303F549
S11318B060535B01424A99785269C9B28DF812109B
S11318C09978C9B28DF812109978C9B28DF81210AE
S11318D0997801F07F019970997821F00401997049
S11318E0997821F0400199709DF81210998A21F09D
S11318F0010199829979009321F001019971597A32
S113190021F001015972197861F07F011970587B37
S11319104FF0000E20F00100587359467046D4F879
S11319200CB08DF813E09047C0B9BBF1000F15D08F
S11319300A2E13D8DDF814C0DFF88CE0009B0146B2
S11319403EF801200BFB02F2BCFBF2F2013AFE2A44
S113195001F106013AD901300428F1D1304601F0F1
S1131960CBF80120B5E63046FFF78CFE0A20FFF7DE
S113197089FE0820FFF786FE0B2094E70520FFF779
S113198081FE0620FFF77EFE0420FFF77BFE072082
S113199089E71846FFF776FE0220FFF773FE002062
S11319A0FFF770FE03207EE70DF1140B41E700BF43
S11319B0C803FE1FE45D0000285E000000700440C0
S11319C0AC5E0000A400FE1FF85D0000C0B28DF8FC
S11319D01300D1B29DF813205970197802F0030254
S11319E021F003010A431A709A7822F003029A70D4
S11319F02279E179012A0CBF0422002209B942F0BC
S1131A001002617901292FD039B9A07942F08001FF
S1131A1001280CBF42F0C0020A465A73227A1AB94E
S1131A209A7942F008029A7109EB060311489B0067
S1131A300AEB0302F6B2032100F8081000EB0807D2
S1131A40A169E0692E704FF0010ED16061692469CB
S1131A50106185F802E0A9606C600AF8036082F8FE
S1131A6002E000207D6034E6A1790029D5D142F05E
S1131A704002D2E7C803FE1F88B1F0B504780A2CEF
S1131A8083B002D9042003B0F0BDA5004C4E2B193D
S1131A9006EB83039B7823B9072003B0F0BD012034
S1131AA07047082C6AD0092C7ED0002C71D00C20F1
S1131AB0FFF7E8FD082C64D0092C78D0002C6BD0FB
S1131AC00C20FFF7DFFD082C5ED0092C72D0002C0F
S1131AD065D00C20FFF7D6FD082C58D0092C6CD00B
S1131AE00C20002C5ED0FFF7CDFD04F1007303F54C
S1131AF060535B01334F9A78D2B28DF807209A78FD
S1131B00D2B28DF807209A78D2B28DF807209A784D
S1131B1002F07F029A709A7822F004029A70987800
S1131B204FEA041E254407EB0E0206EB850120F064
S1131B304000002598708D7007F80E5001205570F4
S1131B40556095609DF8073002F0BCFD1E4A0120E7
S1131B501368C4F11F0100FA01F10B43136002F092
S1131B608DFD1A4B04EB440003EBC000153002F06A
S1131B705BFD204600F0C0FF284684E70520FFF700
S1131B8081FD0620FFF77EFD0420FFF77BFD072083
S1131B90A9E70120FFF776FD0220FFF773FD00207F
S1131BA0FFF770FD03209EE72046FFF76BFD0A2038
S1131BB0FFF768FD0820FFF765FD0B2093E700BFE2
S1131BC0A400FE1FC803FE1F007004406C01FE1F2A
S1131BD02DE9F04F0646D048347804EB840500EB39
S1131BE0850085B080789DF838A09DF83C7020B9B8
S1131BF00725284605B0BDE8F08F98464FEA440B08
S1131C00C64B00910BEB040003EBC000153091466A
S1131C1002F0FAFC0099054620B10A25284605B0D1
S1131C20BDE8F08F082C00F01D81092C00F02B81F9
S1131C30002C00F039810C20FFF724FD082C0099BA
S1131C4000F01581092C00F02381002C00F0318173
S1131C500C20FFF717FD082C009900F00D81092CCA
S1131C6000F01B81002C00F029810C20FFF70AFDF5
S1131C70082C009900F00581092C00F013810C2038
S1131C80002C00F020810191FFF7FCFC04F1007CA2
S1131C900CF5605C4FEA4C1CA0499CF80220D2B2BF
S1131CA08DF80D209CF80220D2B28DF80D209CF8FE
S1131CB00220D2B28DF80D209CF8022002F07F029F
S1131CC08CF802209CF8022022F004028CF80220F6
S1131CD09CF802200BEB0403DB00C81822F040023E
S1131CE08CF8022000F1080200920A460199D150B2
S1131CF0009A9DF80DE0C2F804804FF0000E00F148
S1131D001003A2F802E017F0010218BF01229A7032
S1131D10824ADF700BEB040302EBC30B002380F851
S1131D2010A0C0F80490A0F808E08BF811309CF8DB
S1131D300D30019123F010038CF80D302046CDF8BE
S1131D4000C001F061F87368DDF800C001991BB1AF
S1131D5007F0FD02012A6ED0B3681BB1BA1E012A36
S1131D6040F23381082C00F00481092C00F0DA8061
S1131D70002C00F0AA800C20CDF800C0FFF776FC00
S1131D80082CDDF800C000F0FB80092C00F0D180A5
S1131D90002C00F0A1800C20FFF768FCDDF800C0E7
S1131DA09CF80230DBB28DF80E309CF80230DBB2C6
S1131DB08DF80E309CF80230DBB28DF80E309CF8B2
S1131DC0023043F040038CF80230082C9DF80E30AA
S1131DD000F0F480092C00F0CA800C20002C00F0E4
S1131DE09980CDF800C0FFF741FCDDF800C09CF8F5
S1131DF00230DBB28DF80F309CF80230DBB28DF884
S1131E000F309CF80230DBB28DF80F309CF80230B2
S1131E1063F07F038CF802309DF80F309CF8023099
S1131E2043F030038CF802307368002B00F0C88054
S1131E309CF80530DDE696F800E0D3F808A0384AAF
S1131E401868DAF804A0CDF800C04FEA4E131A441B
S1131E501FFA88F3D047DDF800C000283FF47CAFB8
S1131E600546C6E605200091FFF70CFC0099009199
S1131E700620FFF707FC009900910420FFF702FCFD
S1131E8000990720FFE620460091FFF7FBFB00992D
S1131E9000910A20FFF7F6FB009900910820FFF754
S1131EA0F1FB00990B20EEE601200091FFF7EAFB1D
S1131EB0009900910220FFF7E5FB009900910020B2
S1131EC0FFF7E0FB00990320DDE62046CDF800C0D3
S1131ED0FFF7CCFBDDF800C0CDF800C00320FFF70E
S1131EE0C5FBDDF800C09CF80230DBB28DF80E3083
S1131EF09CF80230DBB28DF80E309CF80230DBB275
S1131F008DF80E309CF8023043F040038CF8023018
S1131F109DF80E30012064E7A400FE1F6C01FE1F33
S1131F20030007400820CDF800C0FFF79FFBDDF851
S1131F3000C0CDF800C00B20FFF798FBDDF800C00F
S1131F409CF80230DBB28DF80E309CF80230DBB224
S1131F508DF80E309CF80230DBB28DF80E309CF810
S1131F60023043F040038CF802309DF80E30092013
S1131F7037E70420CDF800C0FFF778FBDDF800C098
S1131F80CDF800C00720FFF771FBDDF800C09CF816
S1131F900230DBB28DF80E309CF80230DBB28DF8E3
S1131FA00E309CF80230DBB28DF80E309CF8023013
S1131FB043F040038CF802309DF80E30052010E702
S1131FC0B368002B7FF434AF13E63278D3F808E01B
S1131FD013491868DEF804A0CDF800C053011FFAB5
S1131FE088F819444A464346D0470146A8B9022F07
S1131FF0DDF800C07FF4B6AE7368002B3FF4B2AED8
S11320009A681868576843460A46B847DDF800C01E
S113201000283FF4A7AE0546EBE50546E9E500BF19
S11320200500074008B1012B01D0012070473AB1E7
S113203010B504780A2C82B004D9042002B010BD73
S1132040184670471C4613460A4602210191009423
S11320500021FFF7BDFDF1E708B1012B01D00120FC
S113206070473AB110B504780A2C82B004D9042020
S113207002B010BD184670471C46009413460194E4
S11320800022FFF7A5FDF3E770B582B09DF8184074
S113209008B1012C02D0012002B070BD2BB105782B
S11320A00A2D05D9042002B070BD204602B070BDCF
S11320B003258DE83000FFF78BFDEDE7AA4B03EB1A
S11320C000122DE9F04F4700A84E55683B18DB007D
S11320D0F2180446A868F358D2F8049092F81080D5
S11320E089B002F1100E002800F0E380012900F00D
S11320F04181022902D009B0BDE8F08F6B685B68AA
S11321001B68DB899BB2002BF5D104F1007505F542
S113211060556D01082CAB7803F0CF03AB7000F071
S11321209981092C00F08B81002C00F065810C2032
S1132130FFF7A8FA082C00F09081092C00F08281A6
S1132140002C00F05C810C20FFF79CFA082C00F0B6
S11321508781092C00F07981002C00F053810C2038
S1132160FFF790FA082C00F07E81092C00F07081B2
S11321700C20002C00F04981FFF784FAAB787C4AEC
S11321800594DBB28DF81030AB78DBB28DF81030EB
S1132190AB78DBB28DF81030AB7803F07F03AB7013
S11321A0AB7823F00403AB70A97804EB840302EB4F
S11321B0830321F04002AA701969079101228DF866
S11321C01820DB689DF8102005A89847082C00F01B
S11321D07B81092C00F0A781002C00F046810C20A3
S11321E0FFF750FA082C00F07281092C00F09E8150
S11321F0002C00F03D810C20FFF744FAAB78DBB2F1
S11322008DF81130AB78DBB28DF81130AB78DBB2DE
S11322108DF81130AB7823F04003AB70082C9DF897
S1132220113000F06981092C00F09581002C00F038
S113223034810C20FFF726FAAB78DBB28DF812302C
S1132240AB78DBB28DF81230AB78DBB28DF812309C
S1132250AB7803F07F03AB70082C9DF8123000F0CC
S11322606081092C00F08C810C20002C00F02A8164
S1132270FFF708FAAB78DBB28DF81330AB78DBB23A
S11322808DF81330AB78DBB28DF81330AB7823F0D4
S11322900403AB709DF81330AB783C4403F0CF03D8
S11322A006EBC4001530AB7002F0BEF909B0BDE80E
S11322B0F08F686800287FF419AF04F100750129D4
S11322C005F5605500F08E814FEA451C50899CF855
S11322D005C001305FFA8CFC1FFA80FB8EF804C045
S11322E0A2F80AB03A1906EBC202B2F808E0D068C4
S11322F086450ED2927C002A00F08781B8F1010F46
S113230000F099823B1906EBC3030EF1010EA3F80A
S113231008E03B1906EBC3035B7C2BB1B8F1010F5A
S113232004BFD94409F801CC3B1906EBC303DB68AD
S11323305B4500F0A78101297FF4DDAE3B1906EB74
S1132340C303DA7C91077FF5D6AE6D016A7B520731
S113235003D51B89012B7FF6CEAE3C4406EBC406A5
S113236001237374C7E600BFC803FE1F6C01FE1F80
S1132370A400FE1F082C00F01D81092C00F002812E
S1132380002C44D004F1007505F560556D010C2056
S1132390FFF778F9AB78DBB28DF80F30AB78DBB2AE
S11323A08DF80F30AB78DBB28DF80F30AB7803F0DB
S11323B07F03AB70082C9DF80F3000F01181092CBD
S11323C000F0F6800C20002C37D0FFF74FF9AB78E3
S11323D0DBB28DF81430AB78DBB28DF81430AB7807
S11323E0DBB28DF81430AB7843F00403AB709DF886
S11323F0143009B0BDE8F08F0120FFF743F9022043
S1132400FFF740F90020FFF73DF90320B4E69A4DA9
S11324100846FFF737F9AB78DBB28DF80F30AB78AD
S1132420DBB28DF80F30AB78DBB28DF80F30AB78C0
S113243003F07F03AB709DF80F300220C5E7204600
S1132440FFF720F90A20FFF71DF90820FFF71AF912
S11324500B2091E60520FFF715F90620FFF712F986
S11324600420FFF70FF9072086E62046FFF70AF954
S11324700320FFF707F9AB78DBB28DF81130AB78A6
S1132480DBB28DF81130AB78DBB28DF81130AB785C
S113249023F04003AB709DF811300120FFF7F2F8F0
S11324A0AB78DBB28DF81230AB78DBB28DF812303A
S11324B0AB78DBB28DF81230AB7803F07F03AB70EE
S11324C09DF812300220D3E60420FFF7DBF8072042
S11324D0FFF7D8F8AB78DBB28DF81130AB78DBB20C
S11324E08DF81130AB78DBB28DF81130AB7823F076
S11324F04003AB709DF811300520FFF7C3F8AB78AB
S1132500DBB28DF81230AB78DBB28DF81230AB78D9
S1132510DBB28DF81230AB7803F07F03AB709DF81B
S113252012300620A4E60820FFF7ACF80B20FFF7D2
S1132530A9F8AB78DBB28DF81130AB78DBB28DF84B
S11325401130AB78DBB28DF81130AB7823F0400357
S1132550AB709DF811300920FFF794F8AB78DBB22B
S11325608DF81230AB78DBB28DF81230AB78DBB279
S11325708DF81230AB7803F07F03AB709DF8123006
S11325800A2075E63D4D2046FFF77CF8AB78DBB2B8
S11325908DF80F30AB78DBB28DF80F30AB78DBB24F
S11325A08DF80F30AB7803F07F03AB709DF80F30DC
S11325B00A200AE7324D0520FFF764F8AB78DBB256
S11325C08DF80F30AB78DBB28DF80F30AB78DBB21F
S11325D08DF80F30AB7803F07F03AB709DF80F30AC
S11325E00620F2E64FEA451B9BF805C05FFA8CFC17
S11325F08EF804C09BF80D0010F0040F0CD0108965
S1132600083248B9B2F802B06CE66A011379DB0902
S1132610FCD0FF23D37075E6082C00F01781092C39
S113262000F01281002C0CBF01200C2040B201915B
S11326300093FFF727F89BF80220009B0199D2B280
S11326408DF80B209BF80220D2B28DF80B209BF85A
S11326500220D2B28DF80B209BF80220381902F028
S11326607F0206EBC00E8BF802209DF80B20BEF80B
S11326700AB09EF814C035E6000007402001074068
S1132680000107404FEA4518082C98F802300091E1
S113269003F0CF0388F8023000F0DA80092C00F050
S11326A0F780002C00F0E4800C20FEF7EBFF082CF0
S11326B0009900F0D180092C00F0EE80002C00F08D
S11326C0DB800C20FEF7DEFF082C009900F0C980A7
S11326D0092C00F0E680002C00F0D3800C20FEF7DB
S11326E0D1FF082C009900F0C180092C00F0DE8095
S11326F00C20002C00F0CA800091FEF7C3FF98F86C
S11327000230A04A0099DBB28DF80C3098F8023000
S1132710DBB28DF80C3098F80230DBB28DF80C3057
S113272098F8023003F07F0388F8023098F80230FA
S113273023F0040388F8023004EB840398F80200C1
S113274002EB830320F04002D3F80CC088F8022087
S11327509DF80C20BCF1000F64D01B690793012382
S113276005948DF8183005A8E047082C009900F06E
S1132770E580092C00F0BF80002C00F099800C202B
S1132780FEF780FF082C009900F0DD80092C00F092
S1132790B780002C00F091800C20FEF773FF98F8AE
S11327A002300099DBB28DF80D3098F80230DBB2BC
S11327B08DF80D3098F80230DBB28DF80D3098F8B2
S11327C0023023F0400388F80230082C9DF80D30C5
S11327D000F0D580092C00F0AF800C20002C00F014
S11327E088800091FEF74EFF98F802300099DBB222
S11327F08DF80E3098F80230DBB28DF80E3098F870
S11328000230DBB28DF80E3098F8023003F07F030B
S113281088F802309DF80E3098F8023003F0CF03A8
S113282088F80230381906EBC0001530009101F029
S1132830FBFE00997FE513F80EA06A011379DB090A
S1132840FCD082F803A05DE52046EFE60520EDE626
S11328500520FEF717FF009900910620FEF712FFEE
S1132860009900910420FEF70DFF0099072043E72B
S11328700120FEF707FF009900910220FEF702FFF6
S1132880009900910020FEF7FDFE0099032033E734
S11328902046FEF7F7FE009900910A20FEF7F2FEAB
S11328A0009900910820FEF7EDFE00990B2023E724
S11328B020460091FEF7E6FE009900910320FEF702
S11328C0E1FE98F802300099DBB28DF80D3098F8EB
S11328D00230DBB28DF80D3098F80230DBB28DF89F
S11328E00D3098F8023023F0400388F802309DF848
S11328F00D30012075E708200091FEF7C3FE009912
S113290000910B20FEF7BEFE98F802300099DBB26E
S11329108DF80D3098F80230DBB28DF80D3098F850
S11329200230DBB28DF80D3098F8023023F040030A
S113293088F802309DF80D30092052E704200091F8
S1132940FEF7A0FE009900910720FEF79BFE98F881
S113295002300099DBB28DF80D3098F80230DBB20A
S11329608DF80D3098F80230DBB28DF80D3098F800
S1132970023023F0400388F802309DF80D30052022
S11329802FE700BFA400FE1F1C4B10B500EB800214
S113299003EB820384B0DA68044682B100F1007369
S11329A003F560535B0101901979890614D41979F0
S11329B0080715D505238DF8083001A89047104B5A
S11329C004EB440003EBC000153001F02DFE20465B
S11329D000F092F804B010BD06238DF80830ECE73F
S11329E0597BC90603D503238DF80830E5E71B7925
S11329F0DB0644BF07238DF80830DEE7A400FE1F82
S1132A006C01FE1F4309203300F01F00012202491C
S1132A10824041F82320704700E100E0064A0301A8
S1132A20D35C012B05D0032B00D070470121FFF7A5
S1132A3045BBFEF75BBC00BFC803FE1F03010C4A85
S1132A40D35C012B10B504460ED0032B09D004F13E
S1132A50007000F560504001037903F0C70303716F
S1132A6010BDFFF791FFF2E7FEF7CAFDEFE700BFE5
S1132A70C803FE1F064A0301D35C012B05D0032BB8
S1132A8000D070470221FFF719BBFEF779BD00BFE4
S1132A90C803FE1F02010E498A5C012A05D0032ADD
S1132AA000D070470021FFF709BB10B50446FEF7BC
S1132AB007FD04F1007303F560535B011A7922F0FA
S1132AC040021A711A7922F001021A7110BD00BF76
S1132AD0C803FE1F092808B507D00730C0B201F0AB
S1132AE0A7FD082806D0002008BD102001F0A0FD95
S1132AF00828F8D10A2008BD092803D00730C0B23D
S1132B0001F0AABD102001F0A7BD00BF30B5082810
S1132B1083B0044600F08B8009287ED0002871D051
S1132B200C20FFF76FFF082C00F08480092C76D06E
S1132B30002C6AD00C20FFF765FF082C7DD0092CEF
S1132B4070D0002C64D00C20FFF75CFF082C77D0E9
S1132B50092C6AD00C20002C5DD0FFF753FF04F140
S1132B60007303F560535B0100259A78D2B28DF8A7
S1132B7007209A78D2B28DF807209A78D2B28DF8CD
S1132B8007209A7802F07F029A709A7822F0040261
S1132B909A709A7822F040029A709DF807209A78E9
S1132BA002F0EF029A709A7802F0DF029A70997834
S1132BB09A7801F0020122F003020A439A70DA794A
S1132BC002F07F02DA71DA7922F02002DA71012050
S1132BD01D7201F077FD1B4A01201368C4F11F0127
S1132BE000FA01F10B43136001F048FD2046FFF7A2
S1132BF083FF154A2401131915555D705D609D60AE
S1132C0003B030BD0120FFF7FDFE0220FFF7FAFEFE
S1132C100020FFF7F7FE03209FE7FFF7F3FE0A20EB
S1132C20FFF7F0FE0820FFF7EDFE0B2095E70520E7
S1132C30FFF7E8FE0620FFF7E5FE0420FFF7E2FEBB
S1132C4007208AE700700440C803FE1F09288CBFD0
S1132C5004200020704700BF00B5002083B0FFF7B8
S1132C60DDFE012001F04AFC034BD3F80433019349
S1132C70019B03B05DF804FB0060004000B5082030
S1132C8083B0FFF7CBFE052001F038FC034BD3F8EB
S1132C9014330193019B03B05DF804FB0060004012
S1132CA000B5092083B0FFF7B9FE092001F026FC26
S1132CB0034BD3F824330193019B03B05DF804FB69
S1132CC00060004000B5002083B0FFF7E3FE002061
S1132CD001F014FC034BD3F800330193019B03B0C0
S1132CE05DF804FB0060004000B5082083B0FFF7E6
S1132CF0D1FE042001F002FC034BD3F810330193FE
S1132D00019B03B05DF804FB0060004000B509209E
S1132D1083B0FFF7BFFE082001F0F0FB034BD3F8AC
S1132D2020330193019B03B05DF804FB0060004075
S1132D3000B5002083B0FFF781FE032001F0DEFB25
S1132D40034BD3F80C330193019B03B05DF804FBF0
S1132D500060004000B5082083B0FFF76FFE072035
S1132D6001F0CCFB034BD3F81C330193019B03B05C
S1132D705DF804FB0060004000B5092083B0FFF754
S1132D805DFE0B2001F0BAFB034BD3F82C33019307
S1132D90019B03B05DF804FB0060004000B5002017
S1132DA083B0FFF767FE022001F0A8FB034BD3F8C2
S1132DB008330193019B03B05DF804FB00600040FD
S1132DC000B5082083B0FFF755FE062001F096FBFE
S1132DD0034BD3F818330193019B03B05DF804FB54
S1132DE00060004000B5092083B0FFF743FE0A20CD
S1132DF001F084FB034BD3F828330193019B03B008
S1132E005DF804FB00600040082810B5044618D0A3
S1132E1009280CD000B110BD012001F06FFB204641
S1132E2001F06CFB0320BDE8104001F067BB01F02A
S1132E3065FB082001F062FB0B20BDE8104001F0A7
S1132E405DBB052001F05AFB042001F057FB07206D
S1132E50BDE8104001F052BB012907D029B9074A47
S1132E601378184300F0300010707047034A137849
S1132E7003F0300323EA000010707047000D044093
S1132E80012900F47F4208D04FF4803181400023AF
S1132E90D208044819431150704781408BB2002175
S1132EA0F6E700BF08000440000A4001024B41EA73
S1132EB00242C250704700BF08000440000A4001AB
S1132EC000F1804000F104100068000C704700BF5E
S1132ED0034B000A03EB401341EA02425A60704775
S1132EE008000440030AC0B200EB03139B0003F183
S1132EF0804303F581231868C0F34000704700BF86
S1132F00000A400100F1804000F10410006880B222
S1132F10704700BF000A400100F1804000F58020A6
S1132F20006880B2704700BF000A400100F1804091
S1132F3000F5802003681B0C1B04194301607047D3
S1132F40014B00221A8070475C02FE1F030AC0B2C4
S1132F5000EB03139B0003F1804370B403F581235A
S1132F60EFF3108472B6174A108880B218B9164D60
S1132F704026E870EE701088013080B2108084F32F
S1132F801088CC03186805D520F4803021F48034EF
S1132F9018601C601960EFF3108172B61388094839
S1132FA09BB21BB10388013B9BB2038013889BB285
S1132FB01BB9054A8020D370D07081F3108870BC8F
S1132FC0704700BF5C02FE1F000D0440020AC3B23A
S1132FD003EB02139B0003F1804303F581231B6879
S1132FE029B1064943F004031940FFF7AFBF034971
S1132FF023F004031940FFF7A9BF00BFD5FC011F4C
S1133000012343700370C37083700020704700BFB6
S1133010A8B138B5054601F085FB2B88002463B1BF
S11330206B6803EBC40253F834109088FFF78EFFEB
S113303001342B88A4B2A342F2D8002038BD012069
S1133040704700BF10B540F60733984286B0044677
S113305002D9032006B010BD012204AB02A80491DA
S11330600191ADF808200393ADF8144001F05AFB28
S113307020460199FFF76AFF002006B010BD00BF8B
S113308040F60733984202D903231846704739B1F2
S113309010B50C46FFF726FF00232070184610BD1C
S11330A00123F2E7B0F5306F02D9032318467047C5
S11330B039B110B50C46FFF723FF002320801846D2
S11330C010BD0123F2E700BF0AB903207047B0F531
S11330D0306F08B501D9032008BD0B46114022EA20
S11330E00302FFF7E1FE002008BD00BF012901D95A
S11330F00320704740F60732904208B501D90320F7
S113310008BDFFF7BDFE002008BD00BF0AB90320BB
S11331107047B0F5306FFAD870B514460E460546C0
S1133120FFF7F8FE04EA0603184383B266EA0401D3
S113313028461940FFF7F8FE002070BD012901D987
S11331400320704740F60732904208B501D90320A6
S113315008BDFFF73BFF002008BD00BFB0F5306F8E
S113316002D903231846704739B110B50C46FFF74E
S1133170A5FE00232080184610BD0123F2E700BFFE
S113318038B540F607339842044601D9032038BDC8
S11331900D4681B100F47F40FFF790FEE4B20122B6
S11331A002FA04F39BB2184083420BBF00200020B4
S11331B02A70287038BD012038BD00BFB0F5306FCB
S11331C001D903207047002AFBD008B50B461140F3
S11331D022EA0302FFF77CFE002008BD40F6073315
S11331E0984201D9032070470129FBD810B5C3B216
S11331F000F47F4408D001229A4092B20021204674
S1133200FFF766FE002010BD994089B20022F6E760
S1133210202801D903207047012908B501D90320CA
S113322008BDFFF719FE002008BD00BF024B23F8BC
S113323020100020704700BF10100440024A0023F1
S113324042F820301846704710100440034A13789F
S113325063F07F0313700020704700BF0010044028
S1133260034A137803F07F0313700020704700BFF4
S11332700010044020B1034B1B680360002070471A
S113328001207047905E000058B1012807D1084B17
S1133290002040214122187119711A7170470120D0
S11332A07047034B40214122987099709A7070477F
S11332B000100440E8B130B40F4A536823F480434B
S11332C0536045685DB1836803EB85055C8813F83A
S11332D0041B0A4A89000A44AB421480F6D10078E0
S11332E028B1074A137863F07F031370002030BCC1
S11332F070470120704700BF007004401010044064
S113330000100440084B094A094810B40021094C34
S11333101A604FF400425C60D86059619A601A6187
S11333205DF8044B704700BF7000FE1F0024F400DA
S113333000366E0100127A0019491A4A0B8D03F007
S1133340030332F8132052B310B40C8D16480B8DBE
S113335014F0100F14BF0021032107EE902A50F837
S113336021205DF8044B07EE102AF8EE676AB8EEE8
S1133370477AC3F3052387EE267A07EE903AF8EEF0
S1133380E77AF7EE006A77EEA67AF6EE006A67EE61
S1133390A67A67EE277AFCEEE77AC0ED057A7047E5
S11333A000E00140945E00007000FE1F0E4AB2F877
S11333B0FE339BB243F4254343F00103A2F8FE33EA
S11333C092F81334000100F0300003F0CF030343FC
S11333D082F81334B2F8FE3345F6FE210B4043F471
S11333E02543A2F8FE33704700E001400E4AB2F8CC
S11333F0FE339BB243F4254343F00103A2F8FE33AA
S113340092F88134400000F0020003F0FD0303430E
S113341082F88134B2F8FE3345F6FE210B4043F4C2
S11334202543A2F8FE33704700E00140264AB2F873
S1133430FE339BB243F4254343F00103A2F8FE3369
S113344005280BD8DFE800F02028300338181E4A7E
S113345092F8323023F0010382F832301A4AB2F87B
S1133460FE3323F4145323F001035B045B0C43F495
S11334702543A2F8FE337047134A92F82A3023F00A
S1133480010382F82A30E9E70F4A92F8363023F034
S1133490010382F83630E1E70B4A92F8383023F022
S11334A0010382F83830D9E7074A92F8903423F0C0
S11334B0010382F89034D1E7034A92F8803423F070
S11334C0010382F88034C9E700E00140264AB2F8DB
S11334D0FE339BB243F4254343F00103A2F8FE33C9
S11334E005280BD8DFE800F02028300338181E4ADE
S11334F092F8323043F0010382F832301A4AB2F8BB
S1133500FE3323F4145323F001035B045B0C43F4F4
S11335102543A2F8FE337047134A92F82A3043F049
S1133520010382F82A30E9E70F4A92F8363043F073
S1133530010382F83630E1E70B4A92F8383043F061
S1133540010382F83830D9E7074A92F8903443F0FF
S1133550010382F89034D1E7034A92F8803443F0AF
S1133560010382F88034C9E700E00140032810D049
S1133570052808D008B100207047094B93F83C0097
S113358000F001007047064B93F83C00C0F3401074
S11335907047034B93F83C00C0F3C000704700BF72
S11335A000E00140052834D8DFE800F00B131B23AA
S11335B02B03194B93F82A0000F0010080F001005E
S11335C07047154B93F8360000F0010080F00100BD
S11335D07047114B93F8380000F0010080F00100AF
S11335E070470D4B93F8900400F0010080F0010047
S11335F07047094B93F8320000F0010080F001009D
S11336007047054B93F8800400F0010080F001003E
S113361070470020704700BF00E00140024B1A6A67
S113362093F82630704700BF00E001400E4AB2F81C
S1133630FE339BB243F4254343F00103A2F8FE3367
S113364092F8133400F0010023F0400343EA80139E
S113365082F81334B2F8FE3345F6FE210B4043F4EE
S11336602543A2F8FE33704700E001400E4AB2F849
S1133670FE339BB243F4254343F00103A2F8FE3327
S113368092F8A23001F00F0123F00F03194382F8DE
S1133690A210B2F8FE3345F6FE210B4043F4254355
S11336A0A2F8FE33704700BF00E0014005288CBF3C
S11336B000200120704700BF06288CBF0020012095
S11336C0704700BF024B93F8260000F007007047D4
S11336D000E001400E4AB2F8FE339BB243F42543A6
S11336E043F00103A2F8FE3392F8263000F00700FD
S11336F023F00703184382F82600B2F8FE3345F698
S1133700FE210B4043F42543A2F8FE33704700BF6B
S113371000E00140034B1B8D13F0100F0CBF03207E
S11337200020704700E001400F4A1049B2F8FE3310
S113373011F810109BB243F4254343F00103A2F89F
S1133740FE33138D01F0010123F0100343EA01134A
S11337501385B2F8FE3345F6FE210B4043F42543AE
S1133760A2F8FE33704700BF00E00140A45E0000F1
S1133770114AB2F8FE3330EE000A9BB243F42543FB
S1133780FCEEC07A43F00103A2F8FE3317EE903A40
S1133790118D013B21F47C5103F03F0341EA0323E3
S11337A01385B2F8FE3345F6FE210B4043F425435E
S11337B0A2F8FE33704700BF00E001400E4A0F49F3
S11337C0B2F8FE3331F810109BB243F4254343F0B2
S11337D00103A2F8FE33138D01F0030123F0030368
S11337E00B431385B2F8FE3345F6FE210B4043F438
S11337F02543A2F8FE33704700E001409C5E0000C0
S1133800F0B5164AB2F8FE339BB243F4254343F0B5
S11338100103A2F8FE3390F800C090F802E00779A3
S113382046794578C478817900236CF30E336EF3BE
S1133830061367F3124366F31E7365F30A2364F3F6
S1133840020361F31A631362B2F8FE3345F6FE21F4
S11338500B4043F42543A2F8FE33F0BD00E00140E1
S11338600E4B1A6AC2F3023202701A6AC2F30222BF
S113387042701A6AC2F3021282701A6A02F00702D4
S1133880C2701A6AC2F3024202711A6AC2F3027265
S113389042711B6AC3F302638371704700E0014005
S11338A04378022B16D8D0ED017AB3EE0E7AF4EEFB
S11338B0C77AF1EE10FA0DDCB2EE047AF4EEC77AB0
S11338C0F1EE10FA06D40078032805D0B0FA80F09F
S11338D0400970470020704701207047062828D807
S11338E0DFE800F0090E13181D220400124B186AB9
S11338F0C0F302607047104B186AC0F3023070477F
S11339000D4B186AC0F3022070470B4B186AC0F3C2
S113391002107047084B186A00F007007047064B06
S1133920186AC0F302407047034B186AC0F3027070
S113393070470020704700BF00E0014008B5FFF762
S1133940CDFF054B054A93F8263003F0070352F8E0
S1133950233023FA00F008BD00E001407000FE1F90
S1133960024B53F82000C840704700BF7000FE1F90
S11339700F4BB3F8FE2392B242F4254242F0010207
S1133980A3F8FE2393F8402062F07F0283F84020DE
S113399093F8402042F0010283F84020B3F8FE235C
S11339A045F6FE210A4042F42542A3F8FE2370475F
S11339B000E001400F4BB3F8FE2392B242F42542DB
S11339C042F00102A3F8FE2393F8402022F0010202
S11339D083F8402093F8402002F07F0283F84020CF
S11339E0B3F8FE2345F6FE210A4042F42542A3F82B
S11339F0FE23704700E00140024B93F84000C009E9
S1133A00704700BF00E00140024B93F8410000F012
S1133A100100704700E00140114A92F8410010F0A3
S1133A20010001D100207047B2F8FE339BB243F489
S1133A30254343F00103A2F8FE3392F8413023F00A
S1133A40010382F84130B2F8FE3323F4145323F017
S1133A5001035B045B0C43F42543A2F8FE33704777
S1133A6000E001400E4AB2F8FE339BB243F4254312
S1133A7043F00103A2F8FE3392F8303000F0010065
S1133A8023F00103184382F83000B2F8FE3345F600
S1133A90FE210B4043F42543A2F8FE33704700BFD8
S1133AA000E001400C4AB2F8FE339BB243F42543D4
S1133AB043F00103A2F8FE3392F8523043F00103BD
S1133AC082F85230B2F8FE3345F6FE210B4043F43F
S1133AD02543A2F8FE33704700E001400C4AB2F8D7
S1133AE0FE339BB243F4254343F00103A2F8FE33B3
S1133AF092F8523023F0010382F85230B2F8FE33C8
S1133B0045F6FE210B4043F42543A2F8FE337047EB
S1133B1000E00140164BB3F8FE2392B242F4254272
S1133B2042F00102A3F8FE2393F83E2002F07F0244
S1133B3083F83E2093F83E2001F0070122F0700242
S1133B4042EA011283F83E2093F83E2000F0070079
S1133B5022F00702104383F83E00B3F8FE2345F633
S1133B60FE210A4042F42542A3F8FE23704700BF19
S1133B7000E001400C4AB2F8FE339BB243F4254303
S1133B8043F00103A2F8FE3392F83E3063F07F0362
S1133B9082F83E30B2F8FE3345F6FE210B4043F482
S1133BA02543A2F8FE33704700E001400C4AB2F806
S1133BB0FE339BB243F4254343F00103A2F8FE33E2
S1133BC092F83E3003F07F0382F83E30B2F8FE33C1
S1133BD045F6FE210B4043F42543A2F8FE3370471B
S1133BE000E001400C4AB2F8FE339BB243F4254393
S1133BF043F00103A2F8FE3392F8533043F001037B
S1133C0082F85330B2F8FE3345F6FE210B4043F4FC
S1133C102543A2F8FE33704700E001400C4AB2F895
S1133C20FE339BB243F4254343F00103A2F8FE3371
S1133C3092F8533023F0010382F85330B2F8FE3384
S1133C4045F6FE210B4043F42543A2F8FE337047AA
S1133C5000E001400E4AB2F8FE339BB243F4254320
S1133C6043F00103A2F8FE3392F8243000F0070079
S1133C7023F0700343EA001382F82430B2F8FE33D1
S1133C8045F6FE210B4043F42543A2F8FE3370476A
S1133C9000E001400B4B01380022B0F1807F19682D
S1133CA01A600CD210B4084C5860F02084F8230039
S1133CB0072101209A6019605DF8044B7047196070
S1133CC01046704710E000E000ED00E00C4B1A795C
S1133CD002F00E0242F0F0021A711A7A00F00100AA
S1133CE022F0040242EA80021A721A7A22F00802CE
S1133CF042EAC00018721A7942F0F1021A71704750
S1133D0000200040094B1A7942F0F1021A711A7A24
S1133D1000F0010022F0100242EA00121A721A792D
S1133D2002F00E0242F0F0021A71704700200040C7
S1133D30054A92F81C3100F0070023F007031843EA
S1133D4082F81C01704700BF00C00140024B93F889
S1133D501C0100F00700704700C0014000207047BC
S1133D600020704700207047024B1B68036000204E
S1133D70704700BF085F000038B50C460546FFF7E2
S1133D80A1FC28702046FFF76BFD002038BD00BF62
S1133D9070B500240C600D460646FFF78DFC10B983
S1133DA00324204670BD3046FFF7C8FD2860204636
S1133DB070BD00BF10B5FFF727FE68B1FFF782FCA6
S1133DC00446FFF7A7FC052C04D0032C04D140F2D1
S1133DD0971010BD0328FAD0FFF71EFE002010BD77
S1133DE008B5FFF73FFE002008BD00BF08B5FFF788
S1133DF059FE002008BD00BF08B5FFF76FFE002084
S1133E0008BD00BF08B5FFF785FE002008BD00BF50
S1133E1008B5FFF7AFFE002008BD00BF08B5FFF7E7
S1133E20C5FE002008BD00BF08B5FFF7DBFE00207B
S1133E3008BD00BF08B5FFF7F1FE002008BD00BFB4
S1133E4008B5FFF707FF002008BD00BF00B583B029
S1133E504FF6FF730193FFF755FA0420FFF736FB83
S1133E6004E0019B3BB1019B013B01930420FFF75C
S1133E7099FB0028F5D1019B23B94FF4CD7003B011
S1133E805DF804FB05210420FFF7C8FB0020FFF7C1
S1133E90ADFA002003B05DF804FB00BF10B5044682
S1133EA0FFF704FC08B9032010BD631E012B0FD9D2
S1133EB0042C0DD02CB1032C03D0052C01D00020F0
S1133EC010BD2046FFF76EFB68B94FF4C87010BDF3
S1133ED02046FFF767FB40F29113002814BF1846F1
S1133EE04FF4C87010BD2046FFF740FB40F2931317
S1133EF000280CBF18464FF4C97010BD70B582B0CD
S1133F000E460546FFF7D2FB10B9032002B070BD80
S1133F10052D28460FD0FFF745FB18B140F291104C
S1133F2002B070BD6A1E012A4ED9042D25D0BDB140
S1133F30032D3AD0EAE7FFF735FBC8B9B6B1FFF76E
S1133F40C1FB0528EAD03046FFF7AAFC0028DCD0E4
S1133F503078FFF727FB00283BD14FF4CA70D5E730
S1133F60FFF704FB80B340F29310CFE70120CDE7C5
S1133F70FFF7E2F940F29110C8E72846FFF756FA36
S1133F804FF6FF73019304E0019B3BB1019B013B9E
S1133F9001930420FFF706FB0028F5D0019B002BBA
S1133FA00CBF4FF4CD700020B0E72846FFF7DEFACF
S1133FB004460028D7D1FFF7F9F92046FFF736FB6E
S1133FC028460921FFF752FB2846FFF72FFA002065
S1133FD09CE72846FFF7CAFA04460028C3D1307884
S1133FE0FFF7A2FB7078FFF7E9FB96ED010AFFF7F4
S1133FF0BFFBFFF7A1F92846FFF718FA204685E72B
S113400010B582B00446FFF751FB10B9032002B08B
S113401010BDFFF757FB844216D0052810D0012CA1
S113402015D02046FFF7BEFA40B1022C39D0042C3B
S11340301AD094B1032C10D0052C0ED00020E6E742
S1134040FFF768FBA042EAD140F29110DFE7FFF7E7
S1134050D3FC08B340F29510D9E72046FFF786FA5F
S1134060F8B940F29310D2E72046FFF72FFA4FF643
S1134070FF73019304E0019B3BB1019B013B01935E
S11340800420FFF78FFA0028F5D1019B002B0CBF09
S11340904FF4CD700020BAE72046FFF783FA0028DA
S11340A0CCD02046FFF712FAC8E700BF70B50C4623
S11340B00546FFF7FBFA08B9032070BD002C3BD07E
S11340C0A17963798B42F7D363788B42F4D3237855
S11340D08B42F1D323798B42EED32846FFF740FC81
S11340E0284B9842064631D80020FFF7EFFD002008
S11340F0FFF708FE244B9E4231D8FFF727FE002627
S1134100FFF7E0FA854207D0C5B1032D16D0052D7F
S113411014D02846FFF7DEFA2046FFF771FB00F0C3
S1134120CFF81A4B1860FFF711FE864224D03046B0
S1134130FFF7FEFD002070BD012070BD2846FFF78B
S113414015FA0028E5D14FF4C97070BD0120FFF7BE
S1134150BDFD0F4B9E4211D90120FFF7D3FD0D4B3E
S11341609E4294BF01260226FFF7F0FD8642C7D97E
S11341703046FFF7DDFDC3E7002070BD0020FFF7E8
S1134180C1FDECE7FF0D2707FFB3C4046804FE1F5D
S1134190FFC1EB0BFF67890900B583B071B148B16A
S11341A00146012000F0A8F8FFF7E2FB002003B06D
S11341B05DF804FB012003B05DF804FBFFF724FC69
S11341C020B14FF4CB7003B05DF804FB0190FFF70E
S11341D0F1FB0198EBE700BF08B90320704738B53D
S11341E00D46044600F06CF807EE900AF8EE676A94
S11341F0F7EE007AC7EEA66A07EE905A07EE104A69
S1134200F8EE677AB8EE477A66EEA77AC7EE277AB1
S1134210FCEEE77A17EE900AFFF73CFD00280CBF8E
S11342201220002038BD00BF70B5224D82B02B682B
S1134230984700216E680320B04701211E4AAC69EB
S11342408DF80110032301928DF800300320A0475C
S1134250B0F5C97FFAD169460520B047174A92F8EC
S1134260003143F0010382F800310520A047B0F586
S1134270C97FFAD1032369468DF806308DF80030E2
S11342808DF801308DF802308DF803308DF805304B
S11342908DF804300520EB6898472B6D042098476F
S11342A06B6A01209847AB6A9847AB6C984702B099
S11342B070BD00BFAC5E00000000A04100C0014022
S11342C000B583B002A9002341F8043D034B062046
S11342D05B699847019803B05DF804FBAC5E00008D
S11342E0044B002103F1300243F8041B9342FBD139
S11342F0704700BF6002FE1F024B43F820100020ED
S1134300704700BF6002FE1F08B57A4BB3F8403116
S1134310D90700F1C180774BB3F840319A0700F117
S1134320B080744BB3F840315B0700F19F80714B50
S1134330B3F84031180700F18E806E4BB3F840316A
S1134340D9067CD46B4BB3F84001C0F3801000282D
S113435069D1684BB3F840311A0658D4654BB3F8A9
S11343604031DB0547D4634BB3F84031980536D46C
S1134370604BB3F84031590524D45E4BB3F8403157
S11343801A0512D45B4BB3F84031DB0400D408BDEA
S1134390594BDB6A002B40F0AA80564AB2F8303100
S11343A043F48053A2F8303108BD534B9B6A002B71
S11343B040F09A804F4AB2F8303143F40063A2F8D7
S11343C03031DFE74C4B5B6A002B40F08A80494A6E
S11343D0B2F8303143F48063A2F83031CDE7464B74
S11343E01B6A002B7AD1434AB2F8303143F400738C
S11343F0A2F83031BCE7404BDB69002B6BD13D4A5E
S1134400B2F8303143F48073A2F83031ABE73A4B61
S11344101B68002B5CD1374AB2F8303143F080037B
S1134420A2F830319AE7344B5B68002B4ED1314A05
S1134430B2F8303143F04003A2F8303189E72E4B13
S11344409B69002B3FD12B4AB2F8303143F0100363
S1134450A2F8303176E7284B5B698BBB254AB2F86A
S1134460303143F00803A2F8303166E7224B1B6970
S11344701BBB204AB2F8303143F00403A2F83031B8
S113448055E71D4B9B68ABB91A4AB2F8303143F07B
S11344900203A2F8303144E7174BDB683BB9154AF5
S11344A0B2F8303143F00103A2F8303133E703208E
S11344B09847F4E702209847E6E704209847D8E7AE
S11344C005209847CAE706209847BCE79847AEE717
S11344D0002098479FE70720984790E708209847CF
S11344E081E70920984772E70A20984762E70B2082
S11344F0984752E7006000406002FE1F002808DB76
S1134500800000F1804000F5C640036823F4803346
S1134510036070472F4BDFF8D8C02F482F492DE98F
S1134520F04FE02283F80023DFF8C8B083F80123BA
S1134530DFF8C4A083F8022383F8032383F8042359
S113454083F8052383F8062383F80723302283F8AE
S11345500823DFF8A89083F80923DFF8A48083F800
S11345600A2383F80B234FF4BA7340F27512CBF885
S11345700030DFF890E0CAF800204FF4BB7B40F233
S113458077134FF4D27A164F164E174D174CC9F8BD
S113459000B040F2A512C8F800304FF4D37BCCF839
S11345A000A040F2A7194FF4D57840F2AB134FF4B2
S11345B0D67A40F2AD1CCEF80020C7F800B0C6F899
S11345C00090C5F800802360C0F800A0C1F800C0C6
S11345D0BDE8F08F00E100E0286300402C63004058
S11345E0186300401C6300402063004024630040C3
S11345F0106300400063004004630040086300400F
S11346000C63004014630040012202E0C0E8432F21
S113461043B1D0E84F3F13F0FF0FF7D0BFF32F8F14
S1134620082070471846704700230370704700BF86
S1134630084B0121034402E0C3E8401F40B1D3E822
S11346404F2F12F0FF0FF7D0BFF32F8F08207047C2
S1134650704700BF9002FE1F014B00221A5470479E
S11346609002FE1F044B002103F1780203F8011F9E
S11346709342FBD1704700BF8F02FE1F0E4B33F8ED
S1134680102092B22AB133F81020013A92B223F8E2
S1134690102033F810309BB263B9084A0849B2F8C5
S11346A0FE3331F810109BB243F4254323EA01038F
S11346B0A2F8FE33704700BF0803FE1F00E001406C
S11346C00C5F0000104A32F810309BB2ABB910B442
S11346D00E4C0F49B4F8FE3331F810109BB243F47A
S11346E025430B43A4F8FE3332F810305DF8044B35
S11346F001339BB222F81030704732F81030013386
S11347009BB222F8103070470803FE1F00E00140FE
S11347100C5F0000024B00221A805A809A80704776
S11347200803FE1FF8B50788AFB341681B4C002689
S113473001EBC70E4FF0010C37468888002334F88C
S11347401320824216D00133032BF8D1083171456E
S1134750F3D1F643F6B20120FFF7B4FF104A92F802
S1134760BB341F433E4082F8BB640120BDE8F840DF
S1134770FFF784BF0A6802F0B852B2F1807F05D017
S11347800CFA03F546EA0502D6B2DCE70CFA03F2AA
S11347901743FFB2D7E7FF26DDE700BF145F000031
S11347A000E00140A0F101000028FBD1704700BFE8
S11347B038B50D4601FB00F4FFF782FDB0F5004F5C
S11347C001D8012D19D00F4AB2FBF0F0844208D26F
S11347D04FF47A7202FB04F3B3FBF0F0800808D1C3
S11347E038BD4FF47A72B4FBF0F002FB00F080089D
S11347F0F6D0BDE83840FFF7D5BF2846BDE83840BD
S1134800FFF7D0BF00CA9A3B0C4A08B513688BB1B6
S1134810033020F003000A491844884202D810608B
S1134820184608BD00F0D8F90C2303604FF0FF339D
S1134830184608BD034B1360EAE700BF1003FE1FD0
S1134840A814FE1FA804FE1FFEE700BF08B500F071
S113485005F800F03DF9FEE7704700BF204A08B5AF
S1134860D2F8883043F47003C2F888300020FFF790
S1134870F3FFFFF735FDFFF7D7FCFFF74BFFFEF71C
S11348805FFB184B18481B689847184A184B9B1A2B
S113489005D01344002103F8011D9A42FBD11548A9
S11348A0154BC01A07D0154A184412F8011B03F817
S11348B0011B8342F9D1FFF703FD114B186001205E
S11348C0FFF7CAFFFFF7CEFEFFF724FE0D4B0E489D
S11348D01B6898470020BDE8084000F017B800BFE7
S11348E000ED00E03C5E00008C5F00008800FE1FCD
S11348F0A404FE1F7000FE1F0000FE1F646400007D
S11349006804FE1F745E00001C5F000000F044B8E1
S113491082B04FF0C84300210091009A1A7D61F3E0
S113492000021A751A8DD0B1202161F30F221A8565
S11349301A8D4FF0C04142F080021A850A68009235
S113494040F6FF721946019204E0019B013B01937A
S1134950019A12B18A6A5206F7D502B070474FF035
S1134960C04142F47F421A850A6800921A8D60F3AE
S1134970C7121A850A68009240F6FF711A4601911F
S113498005E0019B013B0193019B002BE5D0936A59
S11349905B06F6D402B07047F8B5494A13684FF085
S11349A0C84423F040031360237A6FF30403237293
S11349B0237DFF2243F0010323752261237D6622B8
S11349C043F0010323752261237D992243F00103FF
S11349D023752261237D43F00103237501212320E4
S11349E0FFF7E6FE9F232361364B22691A70226982
S11349F05A702169227D997042F0010222751A7859
S1134A00EF2A04D000221A705A709A70F8BD5A78AE
S1134A10402AF7D19A78172AF4D1052020612A492F
S1134A2023690B70227D294B42F001023526227541
S1134A30266122691A70227D42F001022275228DBC
S1134A40042565F3030222852279502765F30302C6
S1134A5022712761227D42F0010222751A78012712
S1134A6042F002021A7027610A7822611A782261E0
S1134A70227D3A4322752561227D3A43227522889C
S1134A8060F302022280206122690A70227D3A4387
S1134A902275266122691A70237D3B43237523887E
S1134AA043F040032380A369DB074FF0C845FAD4E1
S1134AB00120FFF72DFF2B7D6FF300032B75F8BD4D
S1134AC0007004401403FE1F1803FE1F1C03FE1F86
S1134AD008B500F03DF8002008BD00BF2DE9F047FF
S1134AE0B2F1000919DD0F4B0F4CD3F808801F6891
S1134AF08A4601EB090600252570D8F808303846A7
S1134B005146012298472378002BFCD00AF1010A70
S1134B10B245F1D14846BDE8F0874FF00009484658
S1134B20BDE8F0873C5F00001D03FE1F0379022BE4
S1134B3002D1024B01221A70704700BF1D03FE1FF1
S1134B400379012B04BF014A137070471E03FE1F33
S1134B5070B5194B93E8070082B0002301930093CA
S1134B6013689847154B9D681C6859682A68204645
S1134B709047134800F03EF8124800F03BF8124802
S1134B8000F038F8114800F0C5F869466E68204610
S1134B9008220123B04730B101460D4800F02AF83D
S1134BA00C4800F0B7F8642000F06CFF2B69204635
S1134BB0984702B070BD00BF3C5F0000285F000052
S1134BC0846300008C63000090630000986300001D
S1134BD0A8630000B4630000014B1868704700BF6D
S1134BE06000FE1F02440346934202D003F8011BF7
S1134BF0FAE770470FB40A4B13B51C6824B1A369D4
S1134C0013B9204600F03CFA05AB2046A168049A8B
S1134C10019300F0CDFB02B0BDE8104004B0704732
S1134C206000FE1F70B50E46054618B183690BB9C6
S1134C3000F026FAAB69AC6813B9284600F020FAF4
S1134C40314B9C4201D16C6808E0304B9C4201D14D
S1134C50AC6803E02E4B9C4208BFEC68A38919079B
S1134C6001D5236983B92846214600F0AFF858B12D
S1134C704FF0FF3070BD002B0EDB236816F8012CBB
S1134C801A70236801332360A36816F8012B013BD3
S1134C90A360002AEFD116E0A269934209DB2368DE
S1134CA016F8012C1A70236819780A29EAD12846C3
S1134CB002E016F8011C2846224600F033F8421C94
S1134CC050425041D3E7002B15DAA269934208DB26
S1134CD023680A221A702368197891420FD1284652
S1134CE001E028460A21224600F01CF8431C5842E1
S1134CF0584130B1BCE723680A221A702368013393
S1134D0023600A2070BD00BFCC630000EC63000088
S1134D100C640000024B01461868FFF783BF00BF14
S1134D206000FE1F70B50D461446064618B183692F
S1134D300BB900F0A5F9224B9C4201D1746808E03C
S1134D40204B9C4201D1B46803E01F4B9C4208BF36
S1134D50F468A369A360A3891A0709D523693BB141
S1134D6023682069181A63699842EDB20FDB08E0E2
S1134D703046214600F02AF80028F1D04FF0FF30E9
S1134D8070BD3046214600F011F90028F6D1A36821
S1134D90013BA36023685A1C22601D7063690130C3
S1134DA0984204D0A389DB0707D50A2D05D13046E4
S1134DB0214600F0FBF80028E0D1284670BD00BF72
S1134DC0CC630000EC6300000C640000314B70B550
S1134DD01D6806460C4625B1AB6913B9284600F098
S1134DE04FF92D4B9C4201D16C6808E02B4B9C423F
S1134DF001D1AC6803E02A4B9C4208BFEC68A3894C
S1134E009AB211071DD4D50602D40922326038E0C3
S1134E10500712D5616B41B104F14403994202D0A9
S1134E20304600F003FA00236363A38923F02403CC
S1134E30A3810023636023692360A38943F00803EB
S1134E40A38123694BB9A38903F42073B3F5007FCD
S1134E5003D03046214600F09BF9A38913F00102E8
S1134E6005D00022A26062695242A26103E0990760
S1134E7058BF6269A26022694AB903F0800080B217
S1134E8030B143F04003A3814FF0FF3070BD0020E8
S1134E9070BD00BF6000FE1FCC630000EC63000027
S1134EA00C6400008A892DE9F041054610070C4680
S1134EB057D44B68002B02DC0B6C002B18DDE66A20
S1134EC0B6B102F48052002392B22F682B600AB16B
S1134ED0626D10E0216A28460123B047411C024656
S1134EE009D12B683BB11D2B01D0162B47D12F6064
S1134EF00020BDE8F081A3895B0705D56368D21A59
S1134F00636B0BB1236CD21AE66A216A002328462C
S1134F10B047461CA38905D12A681AB11D2A01D0BD
S1134F20162A19D100226260D9042269226004D5AC
S1134F30421C01D12B6803B96065616B2F600029A5
S1134F40D6D004F14403994202D0284600F06EF909
S1134F5000206063BDE8F08143F04003A381BDE815
S1134F60F0810F69002FC3D093070E6808BF4B6907
S1134F700F6018BF0023C7EB06088B6012E0A389FB
S1134F8043F04003A3814FF0FF30BDE8F081284691
S1134F90216AA66A3A464346B0470028EFDD074433
S1134FA0C0EB0808B8F1000FF1DCA1E738B50B69D4
S1134FB005460C46DBB118B183690BB900F060F803
S1134FC00C4B9C4201D16C6808E00B4B9C4201D114
S1134FD0AC6803E0094B9C4208BFEC68B4F90C30A0
S1134FE02BB128462146BDE83840FFF75BBF0020BF
S1134FF038BD00BFCC630000EC6300000C6400000B
S1135000014900F0A7B800BFAD4F0000002310B560
S1135010044603604360836081814366C281036107
S11350204361836119465C300822FFF7DBFD054BC1
S11350306362054BA362054BE362054B2462236361
S113504010BD00BF0D5900002F5900006759000022
S11350508B59000070B568234D1E5D430E4605F163
S1135060740100F027F9044640B1002180E84200B1
S11350700C30A06005F16802FFF7B4FD204670BD56
S1135080836910B5044633BB8364C3640365124B60
S1135090124A1B688262984204BF0123836100F0B4
S11350A01FF86060204600F01BF8A060204600F066
S11350B017F80421E06000226068FFF7A7FFA068EA
S11350C009210122FFF7A2FFE06812210222FFF763
S11350D09DFF0123A36110BDC863000001500000BF
S11350E0F8B51B4B1E68B369074613B93046FFF782
S11350F0C7FF4836B4687368013B04D4B4F90C5054
S113510075B16834F8E733682BB938460421FFF7E2
S1135110A1FF306008B13668ECE70C233B60F8BDB2
S11351204FF6FF73E3810123A38165662560A560C3
S1135130656025616561A56104F15C00294608226A
S1135140FFF750FD6563A563A564E5642046F8BDDB
S1135150C86300002DE9F8438046894600F14804FD
S1135160002694B1A5686768013F0CD4AB89012B74
S113517007D9B5F90E30013303D040462946C84754
S113518006436835F0E72468EBE73046BDE8F8836A
S1135190F0B58B899D0791B006460C4626D4B1F92B
S11351A00E10002909DAA38913F0800F4FF00005CF
S11351B014BF40274FF480670DE001AA00F00CFCF7
S11351C00028F0DB029D05F47045A5F500514D4221
S11351D04D414FF480673046394600F06BF860B9B2
S11351E0A3899A051DD443F00203A38104F1470364
S11351F0236023610123636113E00B4BB362A38932
S1135200206043F08003A381206167614DB1304683
S1135210B4F90E1000F0F2FB18B1A38943F00103B6
S1135220A38111B0F0BD00BF0150000030B50029CA
S11352303DD051F8042C0B1F1D49002AB8BF9B1800
S11352400A680C4612B95A600B6030BD93420DD205
S113525019685818904201BF5A5852181A60426887
S11352605A60236030BD994203D80A465168002928
S1135270F9D1146815199D420AD11B682344D0182A
S11352808842136013D10868034413604B680DE02F
S113529002D90C23036030BD1C681819884204BF6E
S11352A008684968596004BF00191860536030BD2C
S11352B02403FE1F70B5CC1C24F0030408340C2C0A
S11352C038BF0C24002C064603DA0C23336000207C
S11352D070BD8C42F9D3204A136810461946A1B117
S11352E00A68121B0ED40B2A03D90A608B188C503F
S11352F01FE08B420DBF5A684A685A60026018BFAB
S11353000B4616E00B464968E9E7144D2B681BB9B8
S1135310304600F0EBFA28603046214600F0E6FA09
S1135320421C0346D1D0C51C25F0030585420AD191
S11353301C6003F10B001A1D20F00700821A0AD02A
S11353405142995070BD3046E91A00F0CFFA01304D
S1135350BBD02B46ECE770BD2403FE1F2003FE1FC9
S11353609368013B002B10B5936009DA9469A3425A
S113537002DBCBB20A2B03D1BDE81040FFF7D2BC4D
S11353801368581C10601970C8B210BDF8B50646F1
S11353900F461446D518AC4208D0304614F8011B09
S11353A03A46FFF7DDFF431CF5D100E00020F8BDCD
S11353B02DE9F0439DB00D4690460393064618B17F
S11353C083690BB9FFF75CFE754B9D4201D175688B
S11353D008E0744B9D4201D1B56803E0724B9D42D5
S11353E008BFF568AB891C070AD52B6943B10023B4
S11353F0099320238DF8293030238DF82A3041E099
S113540030462946FFF7E2FC0028F0D04FF0FF3089
S1135410C2E0039A111D12680391002ABBBF5242D5
S113542043F0020307920792B8BF04930134237830
S11354302E2B7BD0DFF8808121784046032200F0B8
S1135440FFFA38B1049AC8EB0000402383401343A9
S113545004930134217855488DF82810062204F16C
S1135460010800F0EDFA002800F08580504B002B75
S113547078D1039B073323F0070308330393099B75
S11354803B44099343461C4613F8012B1AB9B4EB69
S113549008090ED002E0252AF5D1F8E7304629465E
S11354A042464B46FFF772FF013070D0099B4B44D4
S11354B009932378002B6AD000234FF0FF32049322
S11354C00793059206938DF853301A9304F101085B
S11354D04446DFF8E89021784846052200F0B0FA07
S11354E008F10108049B30B1C9EB0000012282409D
S11354F013430493ECE7D80644BF20228DF85320CD
S1135500190744BF2B228DF8532022782A2A80D0F1
S1135510079923461C4601332278303A092A03D8D6
S11355200A2000FB0121F5E7079180E763782A2B25
S11355300AD1039B1A1D1B680392002BB8BF4FF0BE
S1135540FF330234059375E7611C00220C460131D8
S11355502378303B092B03D80A2000FB0232F5E7FD
S1135560059267E703AB0093304604A92A46114B22
S1135570AFF3008007E003AB0093304604A92A464A
S11355800C4B00F093F8421C07467FF478AFAB89CC
S11355905B063FF53BAF09981DB0BDE8F08300BF43
S11355A0CC630000EC6300000C640000366400006F
S11355B0000000008D530000326400002C640000E1
S11355C02DE9F84391461F468A680B69DDF820806F
S11355D09342B8BF1346C9F8003091F843200646F9
S11355E00C4612B10133C9F800302368990642BF52
S11355F0D9F800300233C9F80030256815F00605E3
S11356001CD094F843302268003318BF012392065B
S11356101FD5E1185A1C302081F84300224494F825
S1135620451082F84310023313E03046394604F142
S113563019020123C047013007D00135E368D9F8C6
S113564000209B1A9D42F0DBDBE74FF0FF30BDE802
S1135650F8833046394604F14302C0470130F4D0A0
S11356602268D9F80050E36802F00602042A08BF51
S11356705D1B2269A3680CBF25EAE57500259342EA
S1135680C4BF9B1AED184FF00009A9450ADA304649
S1135690394604F11A020123C0470130D5D009F17B
S11356A00109F2E70020BDE8F883FFFF2DE9FF417F
S11356B00C461746227E6E2A984606460A9B01F13E
S11356C0430100F0AF8012D8632A23D00AD8002AFD
S11356D000F0BC80582A40F0CB8084F84520DFF8E5
S11356E004E257E0642A1ED0692A1CD0C0E0732A61
S11356F000F0B08009D86F2A2ED0702A40F0B8800C
S1135700226842F0200222603FE0752A24D0782AE1
S11357103BD0ADE01A68111D1960136884F842305B
S113572004F14205A8E020681A6810F0800F02D046
S1135730101D186008E010F0400F02F1040018601A
S113574002D0B2F9003000E01368002B3EDA2D22BB
S11357505B4284F8432039E020681A6810F0800F17
S113576002D0101D186007E010F0400F02F1040091
S1135770186001D0138800E01368227EDFF864E12A
S11357806F2A0CBF08220A221CE07822DFF858E1B5
S113579084F845202268186812F0800F00F104058F
S11357A01D6003D1550601D5038800E00368D007C6
S11357B044BF42F0200222601BB9226822F020027A
S11357C022601022002084F8430002E0DFF814E194
S11357D00A226568A560002DA2BF206820F004009D
S11357E0206003B965B10D46B3FBF2F002FB103340
S11357F01EF8033005F8013D03460028F4D100E00B
S11358000D46082A0BD12368DA0708D52369626894
S11358109A42DEBF302305F8013C05F1FF35491BF0
S113582021612EE025681A68606915F0800F03D0A5
S1135830151D1D60136808E015F0400F02F1040502
S11358401D60136801D0188000E0186000232361F4
S11358500D4616E01A68111D19601568626828461D
S1135860002100F0EDF808B1401B6060636804E0BB
S113587004F1420584F8422001232361002384F8C3
S11358804330CDF800803046214603AA3B46FFF75B
S113589097FE013002D14FF0FF301FE03046394609
S11358A02A462369C0470130F5D023689B0705D4F5
S11358B0E068039B9842B8BF18460FE00025E368F0
S11358C0039A9B1A9D42F3DA3046394604F11902D1
S11358D00123C0470130DED00135F0E704B0BDE854
S11358E0F08100BF3D6400004E64000038B5064CF2
S11358F00023054608462360FEF786FF431C02D1B9
S1135900236803B12B6038BDA004FE1F10B50C46FC
S1135910B1F90E1000F0A4F80028ABBF636DA389A1
S11359201B1823F48053ACBF6365A38110BD2DE91C
S1135930F0411D468B89DB0507460C46164605D506
S1135940B1F90E100022022300F068F8A389B4F91B
S11359500E1023F48053A381384632462B46BDE80B
S1135960F04100F017B810B50C46B1F90E1000F074
S113597055F8431CA38915BF606523F4805343F491
S11359808053A38118BFA38110BDB1F90E1000F09C
S113599013B8FFFF38B5074C0546002020600846C1
S11359A011461A46FFF79AF8431C02D1236803B143
S11359B02B6038BDA004FE1F38B5064C00230546F5
S11359C00846236000F010F9431C02D1236803B198
S11359D02B6038BDA004FE1F38B5074C00230546D4
S11359E008461146236000F044F9431C02D12368A1
S11359F003B12B6038BD00BFA004FE1F38B5064CB0
S1135A00002305460846236000F04AF9431C02D1EE
S1135A10236803B12B6038BDA004FE1F38B5074CC2
S1135A20054600202060084611461A4600F0CCF8CE
S1135A30431C02D1236803B12B6038BDA004FE1FB0
S1135A4010B5C9B202449042034606D01C788C4279
S1135A5000F10100F7D1184610BD002010BDFFFF72
S1135A6038B5074C054600202060084611461A4602
S1135A7000F053F8431C02D1236803B12B6038BDF6
S1135A80A004FE1F38B5044600F001F9642305465E
S1135A905C4300F0FCF8401BA042FAD3002038BD60
S1135AA00A4B10B50446186818B183690BB9FFF79F
S1135AB0E7FA132C07D8064850F83430013302D0E3
S1135AC000EBC40010BD002010BD00BF6000FE1F2D
S1135AD02803FE1FF8B50546FFF77EF800270646A3
S1135AE0132420463946ABBE044634602846F8BD2C
S1135AF0431C01D1FFF7EEBF704730B585B001AD4F
S1135B00019002910392062420462946ABBE044626
S1135B102046FFF7EDFF05B030BD70B50E461546C3
S1135B20FFF7BEFF044630B9FFF756F809230360B8
S1135B304FF0FF3070BD31462A460068FFF7DDFFA5
S1135B40431C1FBF6368281A1B18636070BDF7B538
S1135B500C461646FFF7A4FF054618B9FFF73CF8B4
S1135B60092304E0022E06D9FFF736F81623036052
S1135B704FF0FF3026E0012E03D14368E41811D51D
S1135B80F2E7022E0ED102AF036847F8083D0C2657
S1135B9030463946ABBE06463046FFF7A9FF431CE4
S1135BA0E6D004442B686F468DE818000A26304678
S1135BB03946ABBE06463046FFF79AFF0028D7DBCE
S1135BC06C60204603B0F0BDFFF7C1BF37B502AD2E
S1135BD0022445F8040D20462946ABBE044620465F
S1135BE0FFF786FF03B030BD38B50546FFF758FF11
S1135BF0044630B9FEF7F0FF092303604FF0FF308D
S1135C0038BD013D012D09D8084B9A681B699A4299
S1135C1004D14FF0FF330360002038BD2068FFF744
S1135C20D5FF10B94FF0FF33236038BD2803FE1FA2
S1135C3070B50C46FFF734FF064630B9FEF7CCFFCB
S1135C40092303604FF0FF3070BD636843F40053D1
S1135C5063604FF48063E3620C2528463146ABBE93
S1135C6005462846FFF744FF431C1CBF2061002063
S1135C7070BD38B53C2205460C4608460021FEF7A7
S1135C80B1FF28462146BDE83840FFF7D1BF30B503
S1135C900025102420462946ABBE0446204630BDCC
S1135CA070B5FFF7FDFE0925044618B9FEF794FF09
S1135CB005600FE028462146ABBE0446012C09D0FE
S1135CC0FEF78AFF00240646132528462146ABBE6C
S1135CD005463560204670BD4275696C742077694D
S1135CE074682052656E657361732053796E6572B2
S1135CF067792028544D2920536F66747761726543
S1135D00205061636B6167652076657273696F6E9D
S1135D1020312E312E302B6275696C642E30326343
S1135D20336638626134323234000000312E312E51
S1135D303000000000000101F8B500BFF8BC08BC49
S1135D409E467047F8B500BFF8BC08BC9E46704735
S1135D5074017A01800186018C01920198019E01EF
S1135D60A401AA01060000000100080001010000CE
S1135D7010000001000018000000010120000000D4
S1135D8000004000000100016000000001028000EA
S1135D900000000100010001000280010000010375
S1135DA000020000000200040001000300080000DB
S1135DB00003FFFF75017B01810187018D019301C0
S1135DC099019F01A501AB01350B0000A506000058
S1135DD07D080000750900008D050000FD05000028
S1135DE0ED05000074017A01800186018C019201A5
S1135DF098019E01A401AA01040001010100100000
S1135E00010101014000010101020001010101033E
S1135E10AD16000025200000592000008920000054
S1135E20791A00009D16000075017B01810187012C
S1135E308D01930199019F01A501AB01113000006F
S1135E40453000003D31000081310000DD310000AB
S1135E501132000081300000ED3000000D310000EF
S1135E605D310000BD310000A5300000C9300000E4
S1135E7001300000B5320000893200002D320000EC
S1135E803D3200004D3200006132000075320000E6
S1135E9001010101010002000300FFFF00000100F5
S1135EA00200FFFF01000100010000004D3E000060
S1135EB0FD3E000001400000AD400000793D0000BF
S1135EC0913D00009D3E000099410000B53D000059
S1135ED0E13D0000ED3D0000F93D0000053E0000FD
S1135EE0113E00001D3E00005D3D0000613D0000CC
S1135EF0653D0000293E0000353E0000413E0000A3
S1135F00D9410000693D00000101010101000200C6
S1135F100800FFFF020403040404FFFF0100000063
S1135F2000000000000000006C04FE1F685F000019
S1135F30105E000000000100000000008004FE1F4D
S1135F40485F0000C85D00000000000080250000DC
S1135F500000000000000000000000002D4B0000C5
S1135F603C5F0000345F00000800000000000001F6
S1135F7000000000A08601000000000000000000F6
S1135F80414B0000285F0000000000007E0000007C
S1135F90945F00000080000000000000008000000A
S1135FA0010000000080000002000000000000006A
S1135FB00300000000400000040000000040000056
S1135FC00500000000400000060000000000000082
S1135FD007000000008000000800000000800000AE
S1135FE009000000004000000A00000000800000DA
S1135FF00E000000008000000F00000000040106F5
S11360000001000000040106010100000004010673
S11360100201000000040106030100000004010461
S1136020040100000004010405010000000C010447
S11360300601000000000104070100000000010047
