S011000053696D706C655350492E73726563BD
S1130000882AFE1F49470000594200004547000066
S11300104547000045470000454700000000000038
S11300200000000000000000000000004547000040
S11300304547000000000000454700004547000018
S11300405D1C00001D1C0000011D0000B51C00000B
S1130050ED28000031290000454700009D290000DB
S1130060000000000000000000000000000000008C
S1130070000000000000000000000000000000007C
S1130080000000000000000000000000000000006C
S1130090000000000000000000000000000000005C
S1130400FFFFFFFFFFFDFFFFFFFFFFFFFFFFFFFFFA
S1130410FFFFFFFFFFFFFFFFFFFFFFFFFFFFFFFFE8
S1130420FFFFFFFFFFFFFFFFFFFFFFFFFFFFFFFFD8
S1130430FFFFFFFFFFFFFFFFFFFFFFFFFFFFFFFFC8
S1130440FFFFFFFFFFFFFFFFFFFFFFFFFFFFFFFFB8
S1130450FFFFFFFFFFFFFFFFFFFFFFFFFFFFFFFFA8
S1130460FFFFFFFFFFFFFFFFFFFFFFFFFFFFFFFF98
S1130470FFFFFFFFFFFFFFFFFFFFFFFFFFFFFFFF88
S1130480FFFFFFFFFFFFFFFFFFFFFFFFFFFFFFFF78
S1130490FFFFFFFFFFFFFFFFFFFFFFFFFFFFFFFF68
S11304A0FFFFFFFFFFFFFFFFFFFFFFFFFFFFFFFF58
S11304B0FFFFFFFFFFFFFFFFFFFFFFFFFFFFFFFF48
S11304C0FFFFFFFFFFFFFFFFFFFFFFFFFFFFFFFF38
S11304D0FFFFFFFFFFFFFFFFFFFFFFFFFFFFFFFF28
S11304E0FFFFFFFFFFFFFFFFFFFFFFFFFFFFFFFF18
S11304F0FFFFFFFFFFFFFFFFFFFFFFFFFFFFFFFF08
S113050010B5054C237833B9044B13B10448AFF349
S113051000800123237010BD0004FE1F00000000B2
S113052044650000084B10B51BB108480849AFF3F7
S113053000800848036803B910BD074B002BFBD0AB
S1130540BDE81040184700BF0000000044650000EB
S11305500404FE1F9000FE1F0000000000F01F01B5
S113056001234009024A8B4042F82030704700BF03
S113057000E100E04309203300F01F00012202499A
S1130580824041F82320704700E100E020B319B312
S113059030B54368002283B005460C464A600A60C1
S11305A0E3B19A68AAB192699AB11868694690470A
S11305B080B9009B6360A868A0B183684BB19B6954
S11305C03BB100686946984720B9009B236003B09B
S11305D030BD012003B030BD012070474FF0FF3320
S11305E04B60E8E74FF0FF332360F3E70123022277
S11305F0027043708370C3700020704708B338B52D
S113060004460068104A0301D35C012B05D0002581
S1130610A56101F089FA284638BD63682BB19A6850
S11306206AB1186858B1D3699847A3682BB19A681E
S11306302AB1186818B1D36998472068E7E7012000
S113064038BD0120704700BF9009FE1F58B151B159
S113065070B40568124E2C01345D013C042C04D99D
S1130660052070BC70470120704705F1007505F541
S113067060556D01AC79E40608D562B143689A68A7
S11306805AB11868B0FA80F04009EAE71943CB0779
S1130690F3D50320E5E71046E3E70120E1E700BFD7
S11306A09009FE1F2DE9F0411346144642680546A1
S11306B00E46FFF7CBFF88B994B12B68174F03F1AF
S11306C0007101F5605149011B018A79FB5C12F04C
S11306D0100F14BF01220222012B04D0BDE8F081C7
S11306E02046BDE8F08168680028F7D0B4FBF2F436
S11306F0836800684FF6FF77BC4228BF3C465F68BA
S1130700022A4FF0010E3246A3B285F814E0BC462B
S11307100CBF10311131BDE8F04160479009FE1F54
S11307200AB90320704700297CD12DE9F04F514BC1
S1130730514F5E6985B042F21078144601900D461F
S11307408B46C1464FF0FF0A002003A9B0470BEBCC
S11307504B03002840F0898037F81330039ADFF800
S113076018C104FB03F3B2FBF3FE0EF1FF31BEF13B
S1130770000F12D003FB0EF3520AFF2909FB02F209
S11307804FEA532309D8B2FBF3F2A2F51C53103BF2
S1130790434502DA98468A465D460BF1010BBBF1EC
S11307A00D0FD1D142F2107398455ED0019B03F135
S11307B0007303F560535B0105EB45059A780CEB78
S11307C0450C5FFA8AFA22F003029A7083F801A0BA
S11307D0DA799CF8021022F0400201F0010142EAA9
S11307E08112DA71DA799CF8031022F0100201F018
S11307F0010142EA0112DA71DA799CF8041022F05C
S1130800080201F0010142EAC102DA719CF80520F4
S11308101C7802F0030124F003020A431A7005B0A5
S1130820BDE8F08F00F1007000F560504001FF2337
S11308304370C37923F04003C371C37923F00803E1
S1130840C371037823F003030370837823F0030355
S113085043F002038370C37902290CBF43F01003F1
S113086023F01003C37100207047032005B0BDE8D6
S1130870F08F00BFB05E0000885D0000F0B5134645
S113088083B01546826804460E46FFF7DFFE10B9B2
S1130890E06810B1082003B0F0BD23682F491A01A5
S11308A08F188A5C012AF6D1797801B97A7003F13C
S11308B0007303F560535A01A168937913F0100F84
S11308C014BF01230223002945D0012D43D9022B53
S11308D0A5EB03004FF6FF77B5FBF3F5236105F1B4
S11308E0FF330CBF0E320F328D68BB42304428BF39
S11308F03B46E0606D6808689BB23146A847002813
S1130900C9D1226802F1007202F560525201937853
S113091043F0200393702468002C14BF08200120A6
S1130920FFF71CFE04F1007303F560535B01002024
S11309309A78D2B28DF807209A78D2B28DF807202F
S11309409A78D2B28DF807209A7862F07F029A7072
S11309509DF807309FE7E6602561D8E79009FE1F00
S1130960002800F0968070B5066882B004460D46F3
S1130970002E7ED00820FFF7FDFD0820FFF7FAFDCA
S11309800820FFF7F7FD0820FFF7F4FD06F10073D8
S113099003F560535B019A78D2B28DF806209A78F9
S11309A0D2B28DF806209A78D2B28DF806209A78C1
S11309B002F07F029A709A7822F004029A709A7870
S11309C022F040029A7023689DF8062003F1007318
S11309D003F560535B019A7802F0DF029A70236892
S11309E003F1007303F560535B019A7802F0EF02A0
S11309F09A70206800F1007303F560535B019978E5
S1130A0011F0030105D0DB7913F0100F14BF02219C
S1130A1003212A46FFF784FE236803F1007303F5DC
S1130A2060535B0105469A7842F010029A7024687C
S1130A3054B30820FFF792FD0820FFF78FFD04F15F
S1130A40007303F560535B0128469A78D2B28DF89F
S1130A5007209A78D2B28DF807209A78D2B28DF80E
S1130A6007209A7842F040029A709DF8073002B04D
S1130A7070BD0120FFF77EFD0220FFF77BFD3046AD
S1130A80FFF778FD03207FE72046FFF767FD03208B
S1130A90D3E70120704700BF2DE9F04F87B0A8B11C
S1130AA0A1B1064608680C4601F0B2F848B92068BE
S1130AB0194F0301FB5C73B10825284607B0BDE854
S1130AC0F08F0546284607B0BDE8F08F012528467B
S1130AD007B0BDE8F08F237A022B04D903252846FA
S1130AE007B0BDE8F08FA37A012BF7D8637A022B05
S1130AF0F4D8D4F81C80B8F1000F07D098F800306F
S1130B00002B40F054836368002BE7D000F0F0FF23
S1130B10054618B10A25D0E79009FE1FE36822694B
S1130B20B2607360002B44D0D3F808C0BCF1000F4E
S1130B30CCD0D3F80090B9F1000FC7D05A68002A7E
S1130B40C4D01368002BC1D0D878997894F808E001
S1130B504FF0020A65F387106AF3830165F383009B
S1130B6065F34511D645D870997000F09982D9780B
S1130B7065F30511D970D4F800A0BAF1000FA5D11E
S1130B809646BEE80F000DF1040BABE80F00DEF84B
S1130B900030CBF800304FF4BA72DCF800308DF836
S1130BA00AA04846ADF8082001A99847002888D132
S1130BB02269002A47D0D2F808E0BEF1000F85D0A0
S1130BC0D2F800C0BCF1000F80D05268002A3FF474
S1130BD07DAF1368002B3FF479AFD878997894F8F7
S1130BE008904FF0020A00F03F0001F0F3016AF3AD
S1130BF083006FF34511D145D870997000F0D1820C
S1130C00D9786FF30511D970D4F800A0BAF1000FA8
S1130C107FF45CAF9146B9E80F000DF1040BABE82B
S1130C200F00D9F80030CBF8003040F27512DEF82E
S1130C3000308DF80AA06046ADF8082001A9984755
S1130C4000287FF43EAF0120D4F8009003F0B8FCF4
S1130C50C74AC9F11F0913684FF0010B0BFA09F1D8
S1130C6023EA01031360584603F086FC236803F16A
S1130C70007303F560535B010022FF214FF0F20C77
S1130C804FF4784E40204FF0030A1A709A701A718C
S1130C9083F806C059709974DA711A725A729A728A
S1130CA0DA721A735A731A73A3F814E05A83D87455
S1130CB083F81CA0236803F1007303F560535B0100
S1130CC006221A77D4F80090B9F1000F40F0BC81E5
S1130CD05846FFF74FFC0220FFF74CFC4846FFF74D
S1130CE049FC5046FFF746FC09F1007303F56053D5
S1130CF05B019A78D2B28DF803209A78D2B28DF83B
S1130D0003209A78D2B28DF803209A7802F07F02F9
S1130D109A709A7822F004029A709A7822F040022B
S1130D209A7023689DF8032003F1007303F5605360
S1130D305B019A7802F0EF029A70236803F1007362
S1130D4003F560535B019A7802F0DF029A7023681E
S1130D5003F1007303F560535B019A8A22F00102E8
S1130D609A82236803F1007303F560535B019A8A46
S1130D7042F002029A822369002B00F00782236862
S1130D8003F1007303F560535B019A8A22F47062E5
S1130D909A82236803F1007303F560535B019A8A16
S1130DA06FEA02526FEA12529A82226802F10072CA
S1130DB002F560525201938A43F004039382938AAA
S1130DC05907FCD42369002B00F09581236803F1B3
S1130DD0007303F560535B019A8A22F0F0029A8251
S1130DE0B8F1000F00F0198198F80230002B00F0E0
S1130DF04C81236803F1007303F560535B01DA79D6
S1130E0062F07F02DA7198F80330002B00F00F8152
S1130E10236803F1007303F560535B010021DA7961
S1130E2042F02002DA7119722368D4F81C8003F1AD
S1130E30007303F560535B015A7A22F001025A727F
S1130E40236803F1007303F560535B015A7B02F0DE
S1130E507F025A73236803F1007303F560535B0147
S1130E605A7B22F040025A73637A002B00F002810D
S1130E70236803F1007303F560535B011A7842F0B1
S1130E8020021A70637A012B236803F1007303F5BF
S1130E9060534FEA43131A780CBF42F0100222F059
S1130EA010021A70237A012B00F00081022B2368B0
S1130EB003F1007303F560534FEA43131A7822F0E9
S1130EC040021A709A790CBF22F0100242F010020C
S1130ED09A71A37A012B236803F1007303F560531D
S1130EE04FEA43131A780CBF42F0080222F00802BA
S1130EF01A70E37A002B00F0B280236803F10073C8
S1130F0003F560535B015A7B42F002025A73B8F155
S1130F10000F00F0FB8098F8001029B1022903D0DB
S1130F2003290CBF0321002194E80500FFF7F8FB17
S1130F30032800F0F38098F80130002B40F0C580BE
S1130F40236803F1007303F560535B019A78997881
S1130F5002F0020221F003010A439A70226802F1AE
S1130F60007202F560525201938A9B07FCD401E09F
S1130F7000700440938AC3F38003002BFAD1918A52
S1130F8041F001019182226802F1007202F560527F
S1130F9052014FF0010E918A21F0080191822268DA
S1130FA0A069616932604FEA021802F1007207EB2E
S1130FB0080C02F56052F061B161F360336133757E
S1130FC0520107F808E08CF80130CCF804609378FB
S1130FD043F0100393702468002C00F087800820ED
S1130FE0FFF7BCFA0820FFF7B9FA04F1007303F520
S1130FF060535B019A78D2B28DF804209A78D2B209
S11310008DF804209A78D2B28DF804209A7842F0B0
S113101040029A709DF804304FE5236803F1007391
S113102003F560535B01DA7902F07F02DA71236819
S113103003F1007303F560535B010021DA7922F0B8
S11310402002DA711972EFE60820FFF793FA0820FC
S1131050FFF790FA0820FFF78DFA082042E623688C
S113106003F1007303F560535B015A7B22F0020223
S11310705A734CE7236803F1007303F560535B0173
S11310801A7822F020021A70FCE6236803F1007338
S113109003F560535B01DA7902F07F02DA71B2E69C
S11310A0C1B2012060F30511D97064E5236803F12E
S11310B0007303F560535B011A7842F040021A7022
S11310C09A7942F010029A7103E7236803F10073DE
S11310D003F560535B019A78997802F0030242F0B9
S11310E0010221F003010A439A7037E72046FFF713
S11310F035FA032077E7236803F1007303F560539F
S11311005B019A8A42F0F0029A8269E6414694E8C9
S11311100500FFF705FB03287FF412AF236803F1F2
S1131120007303F560535B019A78997802F0020228
S113113021F003010A439A7073681BB19A68186816
S1131140D3699847B3681BB19A681868D3699847FC
S1131150236803F1007303F560535B010120DA791E
S113116002F07F02DA71256803F02AFA124A01209C
S11311701368C5F11F0500FA05F10B43136003F072
S1131180FBF9206800F0C6FC032596E4236803F10C
S1131190007303F560535B019A8A42F470629A8289
S11311A0F7E5C1B2012060F30511D9702CE5023BCB
S11311B0012B3FF693ACA9E400700440554B03EBBC
S11311C00013F0B55C682268A76800F1007502F1AD
S11311D0007202F5605305F560555B016D0183B043
S11311E0EE8A997911F0100FC6F3042E14BF012171
S11311F00221002F5BD0BEF1000F0FD1E2681678F8
S11312001A79D209FCD0B2B2DA812369E2685B1A96
S113121011442361E16023B103B0F0BD2369002BC5
S1131220FAD168BB0220FFF799F9AB78DBB28DF8ED
S11312300630AB78DBB28DF80630AB78DBB28DF8D4
S11312400630AB7843F00403AB709DF80630012000
S1131250FFF790F9AB78DBB28DF80730AB78DBB2EF
S11312608DF80730AB78DBB28DF80730AB7803F03C
S11312707F03AB709DF807200023E36003B0F0BD4B
S11312800820FFF76BF9AB78DBB28DF80630AB784A
S1131290DBB28DF80630AB78DBB28DF80630AB7874
S11312A043F00403AB709DF806300820D0E72669AC
S11312B04EB3CEF11006002E25DDE368012902F5B8
S11312C060520CBF93F800E0B3F800E052011379C8
S11312D0DB09FCD05FFA8EF3D3812269E368521AEA
S11312E00F440B44BA4206F1FF362261E36004D98D
S11312F01EB1226802F10072E0E7236803F1007373
S113130003F560535B011A7902F07F021A712369B5
S113131081E700BF9009FE1F2E4B03EB00132DE95C
S1131320F04FD3F804B0DBF80030DBF8042000F110
S1131330007403F1007303F5605304F560545B011A
S1131340640185B0E58A9B7913F0100F064605F019
S11313501F0514BF4FF001084FF0020812B19BF8AB
S1131360143023BB4FF0000AD146802712E0238AB1
S1131370DBF818209BB2DBB252B1DBF81C100096EC
S113138002938DF8047003919047B8F1020F07D0CF
S11313900AF1010A55456846E9D105B0BDE8F08F68
S11313A0CDF80890DBF8183068469847F0E7DBF88A
S11313B0183000228BF81420002BD3D0DBF81C103B
S11313C0009001208DF8040002920391684698472A
S11313D0C8E700BF9009FE1FF0B51A4E04010028AB
S11313E006EB040387B0054614BF082002205F689B
S11313F0FFF7C0F805F1007303F560535B019A78B9
S1131400D2B28DF807209A78D2B28DF807209A7854
S1131410D2B28DF807209A7822F004029A70BB6940
S11314209DF807204BB1FA6905920021022202952A
S113143004918DF80C2002A898473444002363706B
S113144007B0F0BD9009FE1F10B500F1007303F55D
S113145060535B0116491C8A1A7901EB001122F0D2
S1131460400249681A711A7922F001021A711A7934
S1131470920684B0E4B20CD520238DF804308B6935
S11314802BB1CA690090039202946846984704B04D
S113149010BD1A79D20607D51B7FDB0754BF102372
S11314A008238DF80430EAE704238DF80430E6E7D6
S11314B09009FE1F00F01F0101234009024A8B40DE
S11314C042F82030704700BF00E100E043092033B8
S11314D000F01F0001220249824041F82320704796
S11314E000E100E0BF4B03EB00122DE9F04F470091
S11314F0BD4E55683B18DB00F2180446A868F35843
S1131500D2F8049092F8108089B002F1100E0028ED
S113151000F0A280012900F0F980022902D009B06C
S1131520BDE8F08F6B685B681B68DB899BB2002B9E
S1131530F5D104F1007505F560556D01AB7803F044
S1131540CF03AB70002C00F040810820FFF7BEFFF2
S11315500820FFF7BBFF0820FFF7B8FF0820FFF7BC
S1131560B5FFAB78A14A0594DBB28DF81030AB78A7
S1131570DBB28DF81030AB78DBB28DF81030AB787D
S113158003F07F03AB70AB7823F00403AB7004EB80
S11315908403A97802EB83034FF0010821F0400291
S11315A01969AA700791DB688DF8188005A89DF861
S11315B010209847002C00F0D9800820FFF786FF00
S11315C00820FFF783FFAB78DBB28DF81130AB78DE
S11315D0DBB28DF81130AB78DBB28DF81130AB781B
S11315E023F04003AB7008209DF81130FFF76EFF25
S11315F0AB78DBB28DF81230AB78DBB28DF81230F9
S1131600AB78DBB28DF81230AB7803F07F03AB70AC
S11316109DF812300820FFF759FFAB78DBB28DF844
S11316201330AB78DBB28DF81330AB78DBB28DF8C6
S11316301330AB7823F00403AB709DF81330AB7810
S11316403C4403F0CF0306EBC4001530AB7002F04A
S113165069FF09B0BDE8F08F686800287FF45AAFCD
S113166004F10075012905F5605500F0DF804FEAAB
S1131670451C50899CF805C001305FFA8CFC1FFAA8
S113168080FB8EF804C0A2F80AB03A1906EBC20235
S1131690B2F808E0D06886450ED2927C002A00F0A9
S11316A0D880B8F1010F00F0A1813B1906EBC30308
S11316B00EF1010EA3F808E03B1906EBC3035B7CB3
S11316C02BB1B8F1010F04BFD94409F801CC3B197F
S11316D006EBC303DB685B4500F0EB8001297FF474
S11316E01EAF3B1906EBC303DA7C91077FF517AFF6
S11316F06D016A7B520703D51B89012B7FF60FAF5F
S11317003C4406EBC4060123737408E7002C71D132
S1131710374C0846FFF7DAFEA378DBB28DF80F30BA
S1131720A378DBB28DF80F30A378DBB28DF80F30DD
S1131730A37803F07F03A3709DF80F300220FFF716
S1131740B9FEA378DBB28DF81430A378DBB28DF840
S11317501430A378DBB28DF81430A37843F004037B
S1131760A3709DF8143009B0BDE8F08F2046FFF750
S1131770ADFE0320FFF7AAFEAB78DBB28DF8113083
S1131780AB78DBB28DF81130AB78DBB28DF8113069
S1131790AB7823F040034046AB709DF81130FFF75F
S11317A095FEAB78DBB28DF81230AB78DBB28DF8F6
S11317B01230AB78DBB28DF81230AB7803F07F03D4
S11317C0AB709DF81230022025E701200091FFF74D
S11317D07DFE00990846FFF779FE2046FFF776FE66
S11317E00320BCE69009FE1FE404FE1F1C04FE1F38
S11317F00000074004F1007404F5605464010820FB
S1131800FFF764FEA378DBB28DF80F30A378DBB268
S11318108DF80F30A378DBB28DF80F30A37803F086
S11318207F03A37008209DF80F3088E74FEA451B1B
S11318309BF805C05FFA8CFC8EF804C09BF80D0081
S113184010F0040F0CD01089083248B9B2F802B075
S11318501BE76A011379DB09FCD0FF23D37024E76B
S1131860002C14BF0820012001910093FFF72EFEE5
S11318709BF80220009B0199D2B28DF80B209BF8B3
S11318800220D2B28DF80B209BF80220D2B28DF840
S11318900B209BF80220381902F07F0206EBC00EE1
S11318A08BF802209DF80B20BEF80AB09EF814C0F5
S11318B0EBE64FEA4518009198F8023003F0CF03A5
S11318C088F80230002C00F09A800820FFF7FEFD13
S11318D00820FFF7FBFD0820FFF7F8FD009908201A
S11318E00091FFF7F3FD98F802305B4A0099DBB2F0
S11318F08DF80C3098F80230DBB28DF80C3098F883
S11319000230DBB28DF80C3098F8023003F07F031C
S113191088F8023098F8023023F0040388F8023083
S113192004EB840398F8020002EB830320F04002E6
S1131930D3F80CC088F802209DF80C20BCF1000FED
S11319404BD01B6907934FF0010905948DF818904B
S113195005A8E0470099002C5DD00820FFF7B6FDEC
S11319600820FFF7B3FD98F802300099DBB28DF838
S11319700D3098F80230DBB28DF80D3098F8023053
S1131980DBB28DF80D3098F8023023F0400388F86C
S113199002309DF80D3008200091FFF797FD98F86C
S11319A002300099DBB28DF80E3098F80230DBB2C9
S11319B08DF80E3098F80230DBB28DF80E3098F8BE
S11319C0023003F07F0388F802309DF80E3098F857
S11319D0023003F0CF0388F80230381906EBC00058
S11319E01530009102F09EFD009977E613F80EA0E1
S11319F06A011379DB09FCD082F803A055E60120C3
S1131A00FFF764FD0220FFF761FD2046FFF75EFD4E
S1131A100320009964E720460091FFF757FD032057
S1131A20FFF754FD98F802300099DBB28DF80D30C1
S1131A3098F80230DBB28DF80D3098F80230DBB242
S1131A408DF80D3098F8023023F0400388F8023006
S1131A5048469DF80D309FE71C04FE1F1C4B10B533
S1131A6000EB800203EB820384B0DA68044682B19F
S1131A7000F1007303F560535B0101901979890645
S1131A8014D41979080715D505238DF8083001A851
S1131A909047104B04EB440003EBC000153002F0F8
S1131AA041FD204600F036F804B010BD06238DF841
S1131AB00830ECE7597BC90603D503238DF80830B9
S1131AC0E5E71B79DB0644BF07238DF80830DEE722
S1131AD01C04FE1FE404FE1F4309203300F01F0012
S1131AE001220249824041F82320704700E100E0CE
S1131AF0092808B507D00730C0B202F017FD08283E
S1131B0006D0002008BD102002F010FD0828F8D1EE
S1131B100A2008BD092803D00730C0B202F01ABD5C
S1131B20102002F017BD00BF30B5044683B0002872
S1131B305ED00820FFF7D0FF0820FFF7CDFF082074
S1131B40FFF7CAFF0820FFF7C7FF04F1007303F58E
S1131B5060535B0100259A78D2B28DF807209A78F9
S1131B60D2B28DF807209A78D2B28DF807209A78ED
S1131B7002F07F029A709A7822F004029A709A789E
S1131B8022F040029A709DF807209A7802F0EF0242
S1131B909A709A7802F0DF029A7099789A7801F034
S1131BA0020122F003020A439A70DA7902F07F02FA
S1131BB0DA71DA7922F02002DA7101201D7202F062
S1131BC0FFFC114A01201368C4F11F0100FA01F15E
S1131BD00B43136002F0D0FC2046FFF79BFF0B4A37
S1131BE02401131915555D705D609D6003B030BD0F
S1131BF00120FFF771FF0220FFF76EFF2046FFF779
S1131C006BFF03209FE700BF007004409009FE1F94
S1131C1009288CBF04200020704700BF00B50D4B7D
S1131C201B78012B83B011D0032B0AD0012002F0C2
S1131C300DFC094BD3F804330193019B03B05DF809
S1131C4004FB00200121FFF74DFCEFE70020FFF724
S1131C50B5FAEBE79009FE1F0060004000B5124B97
S1131C601B78012B83B011D0032B0AD0002002F083
S1131C70EDFB0E4BD3F800330193019B03B05DF8E9
S1131C8004FB00200146FFF72DFCEFE70020FFF7DF
S1131C9043FB074B1A7922F040021A711A7922F099
S1131CA001021A71E2E700BF9009FE1F00600040C4
S1131CB00000074000B50F4B1B78012B83B015D0F3
S1131CC0032B0FD00C4A137903F0C70313710320BD
S1131CD002F0BCFB094BD3F80C330193019B03B016
S1131CE05DF804FB0020FFF7B9FEEBE70020FFF7E7
S1131CF0ABFBE7E79009FE1F0000074000600040CF
S1131D0000B50D4B1B78012B83B011D0032B0AD0E7
S1131D10022002F09BFB094BD3F808330193019B8B
S1131D2003B05DF804FB00200221FFF7DBFBEFE7C3
S1131D300020FFF751FBEBE79009FE1F0060004015
S1131D4000F01F0101234009024A8B4042F8203071
S1131D50704700BF00E100E04309203300F01F009A
S1131D6001220249824041F82320704700E100E04B
S1131D7020B1034B1B6803600020704701207047AB
S1131D80FC5D00002DE9F04F0C688BB080B1022C93
S1131D9003D904200BB0BDE8F08FA6007C4F3319A3
S1131DA007EB83039B783BB107200BB0BDE8F08FB2
S1131DB001200BB0BDE8F08F5FFA84F909F1050842
S1131DC05FFA88F801904046009102F0AFFB864626
S1131DD008B10A20DEE7009A5369002B35D003933B
S1131DE05B681968029191F802A091F803C09B46C0
S1131DF0022161F3830ABBE80F006EF3871C6EF3C4
S1131E00830C022565F3051C80F803C06EF3451AA4
S1131E100DF1140C80F802A0ACE80F00DBF80030E0
S1131E20CCF80030009B0399CDF81CE01A6859489F
S1131E308B6830F812201B6808688DF81AE0ADF83A
S1131E40182005A998470028A4D1009BD3F810A016
S1131E50BAF1000F37D0DAF804301A68029292F817
S1131E6003C092F802B09E460CF03F0C022363F3C9
S1131E70830CBEE80F00022565F3051C0BF0F30B81
S1131E8080F803C06FF3451B0DF1140C80F802B009
S1131E90ACE80F00DEF80020CCF80020009A3E48A1
S1131EA0126800230793DAF8081030F812208DF82E
S1131EB01A30DAF800000B68ADF8182005A9984725
S1131EC000287FF467AFB9F1000F00F08081B9F109
S1131ED0010F0AD1484602F073FB304A136823F419
S1131EE080231360484602F047FB002C14BF0820EF
S1131EF00520FFF731FF002C14BF0820042004F54F
S1131F00800AFFF729FF0AF5E46A002C4FEA0A2A3F
S1131F1014BF08200720FFF71FFF0023AAF8103082
S1131F208AF80B309AF80B3043F020038AF80B3010
S1131F309AF80B3023F003038AF80B30BAF8103008
S1131F4023F00C03AAF810309AF8083023F00703A2
S1131F508AF80830009B187920BB0AA9104B009A14
S1131F605B6941F8140DD2F80CB09847059BB3FB9C
S1131F70FBF2012A07D94FEA4B0293FBF2F2511EFE
S1131F80FF2940F23E81404602F0E4FA012001E7D5
S1131F901406FE1FF45D0000F85D000000700440AC
S1131FA0B05E00009AF8003023F008038AF800308D
S1131FB0009B5B79012BBAF810300CBF43F001038E
S1131FC023F00103AAF81030009B9B79012BBAF887
S1131FD010300CBF43F0020323F00203AAF81030C0
S1131FE0009BDB79002B40F0EB809AF8003043F043
S1131FF004038AF80030009B1B7A012BBAF81030D6
S11320000CBF43F4805323F48053AAF81030009B90
S11320101B6A002B00F0B1801A78012A9AF800207C
S11320200CBF42F0010222F001028AF800205A7823
S1132030012A9AF800200CBF42F0020222F00202A8
S11320408AF800201A79012A9AF801200CBF42F07C
S1132050010222F001028AF801205A79012A9AF831
S113206001200CBF42F0020222F002028AF8012091
S11320709A78012A9AF801200CBF42F0040222F057
S113208004028AF80120DA78012A9AF801200CBFA8
S113209042F0080222F008028AF801209A79012A03
S11320A09AF802200CBF42F0010222F001028AF8E1
S11320B00220DA79012A9AF802200CBF42F00202C7
S11320C022F002028AF802201A7A012A9AF80220DF
S11320D00CBF42F0100222F010028AF802205A7A51
S11320E0002A40F087809AF8022042F020028AF801
S11320F002209A7A012A9AF80F200CBF42F00102BA
S113210022F001028AF80F20DA7A002A6BD19AF8B9
S11321100F2042F002028AF80F20BAF81020197B2F
S113212022F0700201F0070142EA0112AAF810201D
S11321305A7B012ABAF810200CBF42F0800222F028
S11321408002AAF81020BAF8102022F4706242F437
S11321504072AAF81020DA7B012A77D05A7C012A2F
S11321606AD0DA7C012A08D1BAF81020997C42F4AA
S11321700053AAF810308AF80E103A4A019D0098CC
S11321803319C4EBC4049B0002EB8404009A8669EF
S1132190C06985F8009007EB030E51691269CEF807
S11321A010004FF0010C85F802C0A9606A6007F8BE
S11321B00390CEF80C608EF802C00020A561E9E51A
S11321C09AF8003023F004038AF8003013E7012062
S11321D002F0F6F9244A136823F400231360012063
S11321E002F0CAF981E69AF80F2022F002028AF876
S11321F00F2092E79AF8022022F020028AF80220A7
S113220077E75000B3FBF0F39B4503D2FF2A3FF777
S1132210BAAE1146C9B28AF80A10002B3FF4B3AE25
S1132220009B1B79002B7FF4BDAE9AF8003043F07D
S113223008038AF80030BBE6BAF81020197C42F48F
S11322408042AAF810208AF80D108AE7BAF8102004
S1132250997B6FEA42426FEA5242AAF810208AF848
S11322600C107BE7D405FE1F0070044030B500F568
S1132270800404F5E464240285B0E378054633B1B0
S1132280E378062223F00103E3708DF80820217817
S1132290144B01F07F0105EB8502217003EB8202F0
S11322A02378D26823F0400323701AB104A840F8BD
S11322B00C5D90472378002D03F00F0314BF082012
S11322C007202370FFF748FD074BC5EBC50003EB60
S11322D08000163002F026F9681DC0B202F03AF907
S11322E005B030BD1406FE1FD405FE1F70B1F8B54D
S11322F00578022D01D90420F8BDAE002D4F7319C5
S113230007EB83039B781BB90720F8BD01207047B6
S113231005F5800303F5E4631B0204461A7802F012
S11323209F021A706DB3012D3ED1284602F048F980
S1132330214A136843F480232846136002F01CF9F1
S11323400820FFF709FD0820FFF706FD55B3082014
S11323502E44FFF701FD07EB8606A3680022B27046
S11323601BB19A681868D369984763681BB19A6867
S11323701868D3699847681DC0B202F0EBF80020D2
S1132380F8BD012002F01CF90B4A136843F4002342
S11323901360012002F0F0F80520FFF7DDFC0420B3
S11323A0FFF7DAFC0720D3E7002DF5D00820FFF76C
S11323B0D3FCC8E71406FE1F007004402DE9F04F5B
S11323C006468D48347804EB840500EB850085B01F
S11323D080789DF838809DF83C7020B90725284600
S11323E005B0BDE8F08F4FEAC40ADFF818B2C4EBB9
S11323F00A000BEB8000944616308DE802109946D3
S113240002F080F89DE80210054620B10A2528460E
S113241005B0BDE8F08F002C00F093800820FFF792
S11324209BFC0820FFF798FC9DE8021008208DE82B
S11324300210FFF791FCC4EB0A0292000BEB0203BB
S113244000994BF80210DDF804C083F810800022D4
S113245003F11000C3F804C0C3F80C905A811A8128
S1132460C4EB0A0A17F0010318BF01230BEB8A0B14
S11324708370B8F1010F4FF00003C7708BF811306F
S113248000F09780B8F1020F0CBF0F22032204F56D
S1132490800808F5E4684FEA082898F8033098079C
S11324A0FBD4B8F8103023F4706343EA0223A8F88D
S11324B0103098F800301B0705D4B8F8103043F0FA
S11324C00103A8F8103098F8033013F00D0F18BF6B
S11324D0A02206D088F8032098F8033013F00D0FDB
S11324E0F8D173681BB107F0FD02012A4BD0B36821
S11324F013B1BA1E012A5ED998F80F3023F00403F1
S113250088F80F304CBB052001F0A0FF042001F037
S11325109DFF072001F09AFF384BD3F80C33039347
S11325200520039BFFF70CFC0420FFF709FC0720A0
S1132530FFF706FC98F8003043F0F00388F8003009
S11325404DE705208DE80210FFF706FC0420FFF795
S113255003FC07209DE8021069E7082001F076FFDC
S1132560082001F073FF082001F070FF234BD3F81B
S11325700C3303930820039BFFF7E2FB0820FFF7CB
S1132580DFFB0820D4E796F800E0D3F808A01C4A43
S11325901868DAF804A0CDF800C04FEA0E231A44F4
S11325A01FFA89F3D047DDF800C000289FD0054604
S11325B015E704226BE73278D3F808E0104918686D
S11325C0DEF804A013021FFA89F9194462464B4647
S11325D0D047014670B9022F8ED17368002B8BD07F
S11325E09A68186856684B460A46B047002883D054
S11325F00546F4E60546F2E61406FE1F00600040B8
S113260004200740D405FE1F48B141B13AB110B5CA
S11326100478022C82B004D9042002B010BD012039
S11326207047446824B1042B05D0062002B010BDC5
S11326308468002CF7D11C4613460A4602210191F6
S113264000940021FFF7BAFEE7E700BF48B141B1AB
S11326503AB110B50478022C82B004D9042002B037
S113266010BD01207047446824B1042B05D0062016
S113267002B010BD8468002CF7D11C461346012219
S1132680019200940022FFF799FEE8E730B583B089
S11326909DF8184040B139B132B12BB10578022D03
S11326A005D9042003B030BD012003B030BD456816
S11326B025B1042C05D0062003B030BD8568002D5B
S11326C0F7D103258DE83000FFF778FEEDE700BF72
S11326D02DE9F04FC600321A804DDFF80CE292006B
S11326E0AB180446986955F802B08268B3F80AC07A
S11326F0D3F804A0B3F8088093F810905EF824E0AF
S113270003F1080785B01033002A4BD0012941D0CA
S1132710331B05EB8303DA68944502D005B0BDE8AA
S1132720F08FDB7C012BF9D104F5800707F5E46712
S11327303F026B4A3B7803F07F033B70397804EB2C
S1132740840321F04001397002EB8303FA78D968DD
S113275002F07F02FA70A1B11B69039301238DF883
S11327600830019401A888473B7803F00F033B70BD
S1132770002C40F096800420FFF7EEFA0520FFF7C6
S1132780EBFA341B05EB8400163001F0CBFE05B0E8
S1132790BDE8F08F331B05EB8303DB7C023B012B8D
S11327A0B6D8C1E74268002AB0D17A6890451BD2F6
S11327B09B78002B7AD004F5800303F5E463B9F128
S11327C0010F4FEA032300F08480B9F1020F0CBF1C
S11327D03BF818205BF828205A60331B05EB830371
S11327E008F10108A3F80880331B05EB83035B7C25
S11327F053B1B9F1010F62D0B9F1020F63D00CF1FA
S11328008043013B4AF823E0331B05EB8303DB6879
S1132810634583D104F5800707F5E4673F02FB783D
S11328209A070CD52F4A13684BB1114601E00B6887
S11328302BB11368013B1360FB789B07F7D43B78FB
S1132840274A03F07F033B70397804EB840321F0BB
S11328504001397002EB8303FA78D96802F07F02F1
S1132860FA70B9B11B690393012301A88DF80830EC
S1132870019488473B78002C03F00F0314BF082011
S113288004203B70FFF768FA002C14BF08200520D1
S1132890FFF762FA301B05EB8000163001F042FEB0
S11328A03CE70820FFF758FA082068E704F580039E
S11328B003F5E4631B024FF0FF325A608DE7E244F4
S11328C00AF801ECA0E70CF10043013B2AF813E0FD
S11328D09AE71BF808205A607FE700BFD405FE1F63
S11328E01406FE1F0000FE1F0C06FE1F00B50C4A56
S11328F00C4853890C4940680860013383B0538104
S113290001210020FFF7E4FE042001F09FFD074BA6
S1132910D3F804330193019B03B05DF804FB00BFBB
S1132920D405FE1F002007400C06FE1F0060004077
S113293010B5164B164A596811601B78154C1807C8
S113294082B019D42389BBB900200146FFF7C0FE29
S1132950E37C104A990705D50C4B1B781B0711D54E
S113296001236374052001F071FD0B4BD3F8003390
S11329700193019B02B010BD044A137823F0200395
S11329801370E1E71389012BEAD8EBE70020074035
S11329900C06FE1FD405FE1F0060004000B5002099
S11329A083B0FFF763FC072001F050FD034BD3F81D
S11329B008330193019B03B05DF804FB0060004001
S11329C00123022202704370C37083700020704799
S11329D040F60733984201D90320704771B1030AC6
S11329E0C0B200EB03139B0003F1804303F5812382
S11329F000201B68C3F340030B707047012070472D
S1132A00B0F5306F01D90320704749B1030A5B0167
S1132A1003F1804303F1041300201B680B8070470B
S1132A20012070470AB903207047B0F5306FFAD817
S1132A30000A10B4400122EA0104044B0A4042EAAD
S1132A400442C2505DF8044B002070470800044063
S1132A50012901D90320704740F607339842F9D879
S1132A60030AC0B200EB03139B0003F1804303F598
S1132A70812301291A680F480F4930B40CBF42F072
S1132A80010222F0010240240025C570C470D40361
S1132A90186801EA020105D5084C20F4803014407E
S1132AA018601C60034A196000208023D070D37022
S1132AB030BC7047000D0440D5FC011FD5FC001F3D
S1132AC00AB903207047B0F5306FFAD8000A400104
S1132AD000F1804000F5802030B40568036802EA04
S1132AE001042C43A4B261EA02021B0C22401B0421
S1132AF01A43026030BC0020704700BFB0F5306F4D
S1132B0001D90320704751B1030A5B0103F18043EB
S1132B1003F1041300201B681B0C0B807047012079
S1132B20704700BF40F60733984201D9032070472D
S1132B30B9B1030A5B0103F1804303F10413C0B28A
S1132B4010B401241A6804FA00F39BB203EA124297
S1132B50934213BF00200C70002008705DF8044BF2
S1132B6070470120704700BFB0F5306F01D90320D2
S1132B707047002AFBD0000A054B4001034422EAB7
S1132B800100114041EA004159600020704700BF34
S1132B900800044040F60733984201D903207047E7
S1132BA00129FBD810B400F47F44C0B20DD04FF417
S1132BB0803303FA00F200230649E008014413437A
S1132BC000204B605DF8044B704781408BB20022BB
S1132BD0F2E700BF08000440202801D90320704711
S1132BE00129FBD8064A137813BF184303F03003B6
S1132BF023EA000000F0300010700020704700BF8E
S1132C00000D044090B3F8B5064601F009FD338881
S1132C1053B30021164C08464FF0400E80277368CA
S1132C2003EBC10253F831509288E070130AD2B218
S1132C3002EB03139B0003F1804303F5812301316D
S1132C4084F803E015F4803F89B21A6806D022F4B0
S1132C50803225F4803C1A60C3F800C01D60E07027
S1132C60E77033888B42DAD80020F8BD0120704722
S1132C70000D044010B540F60733984286B0044670
S1132C8002D9032006B010BD012204AB02A8ADF89E
S1132C90144004910191ADF80820039301F0C0FCA5
S1132CA00F4A230AE4B204EB031340200024D47037
S1132CB09B00D07003F18043019903F58123C8037D
S1132CC01A6805D522F4803221F480301A60186025
S1132CD0034A196000208023D070D37006B010BD61
S1132CE0000D0440012901D90320704740F6073341
S1132CF09842F9D8030AC0B200EB03139B0003F116
S1132D00804303F5812330B41A68D1B142F0040240
S1132D100D480E4940240025C570C470D4031868BA
S1132D2001EA020105D50A4C20F4803014401860F1
S1132D301C60054A196000208023D070D37030BC19
S1132D40704722F00402E3E7000D0440D5FC011FA4
S1132D50D5FC001F024B23F820100020704700BF51
S1132D6010100440024A002342F8203018467047ED
S1132D7010100440034A137863F07F03137000209B
S1132D80704700BF00100440034A137803F07F0328
S1132D9013700020704700BF0010044020B1034BA3
S1132DA01B68036000207047012070476C5E0000C0
S1132DB058B1012807D1084B002040214122187145
S1132DC019711A71704701207047034B4021412249
S1132DD0987099709A70704700100440E8B130B44C
S1132DE00F4A536823F48043536045685DB1836898
S1132DF003EB85055C8813F8041B0A4A89000A441E
S1132E00AB421480F6D1007828B1074A137863F0F6
S1132E107F031370002030BC70470120704700BF4F
S1132E200070044010100440001004400620704755
S1132E3006207047B8B190F90620144B53F822309D
S1132E40996881B1596871B1D97811F0C00F04D172
S1132E50DB899BB2B3F5806F05D801680C4B9942AE
S1132E6003D00720704701207047C032094B53F844
S1132E70221021F4803143F8221053F8221041F03B
S1132E80807143F822100020704700BF0008FE1F25
S1132E90004354440060004088B10A4B02689A42DF
S1132EA001D00720704790F906300749C03300204D
S1132EB051F8232022F0807241F82320704701202A
S1132EC0704700BF0043544400600040002830D0E5
S1132ED000292ED0184BDB8900229BB28A7190F90D
S1132EE00620180418D4154B53F82230D87800F073
S1132EF0C000802809D0DB8940289BB28B8011D088
S1132F0028B94FF480630B6070479B898B804FF422
S1132F1080730B60002070475BB29A4204BF0123A8
S1132F208B71E0E7DBB28B804FF480730B60002081
S1132F3070470120704700BF005400400008FE1F86
S1132F4020B1034B1B6803600020704701207047C9
S1132F50705E000070B582B00191009250B14BB127
S1132F60254A0168914208D0072002B070BDEC895F
S1132F70A4B264B9012002B070BD90F906201F49C3
S1132F8051F82250EC7804F0C004802CEFD0C03209
S1132F901B4E1C4D56F8224024F0807446F8224003
S1132FA02A7822F010022A70019A12B390F90620AE
S1132FB0019D51F822406560009C1CB151F82240EB
S1132FC0009DA56051F82210CA7802F0C002802A40
S1132FD00DD002B9CB81FFF72DFF0A4A13780028E0
S1132FE043F0100314BF132000201370BDE78B813E
S1132FF0F1E790F90620DFE7004354440008FE1F80
S113300000600040005400400346D0B10E4A0168FD
S1133010914201D00720704730B490F906200B4C40
S11330200B4DC032002154F8220020F0807044F887
S1133030220093F90620084645F82210196030BC96
S113304070470120704700BF0043544400600040B3
S11330500008FE1F002843D0002941D02DE9F84381
S11330600B68002B39D09A7802F0C004402C34D07D
S1133070DC78A509032D30D0C4F30115032D2CD021
S113308002F00C02042A28D004F00C02042A24D0F2
S113309014F0C00F04D0DB899BB2B3F5807F1CD839
S11330A0404B02689A421DD08E883F4D002404F1A3
S11330B0C0025FFA84F855F822303B4FC3F308038B
S11330C09E4212D00134082CF1D1D7F82033C3F337
S11330D0080383800B20BDE8F8830120BDE8F88352
S11330E0012070470820BDE8F883DFF8CC9057F83A
S11330F0223099F80020C3F3080305460E46838066
S11331002AB32A4A52F82430002BEBD1336800E06A
S11331101033D97811F0C00F1CBF997BD9739978FB
S113312011F0C00FF4D1224F1E493B7823F0100355
S11331303B70B079336842F8243085F80680296002
S113314018BB3B7843F010033B70BDE8F8831C20A8
S113315001F0ECF910B10A20BDE8F883154F134AC9
S1133160F969134B21F48001F9611060506090609B
S1133170D060106150619061D0615A60197B012068
S11331800143197389F80000BCE72846FFF752FE93
S11331903B7843F0100300283B7014BF1320002039
S11331A0BDE8F88300435444006000400008FE1F5B
S11331B00054004000E001402008FE1F084B094A6B
S11331C0094810B40021094C1A604FF400425C60B5
S11331D0D86059619A601A615DF8044B704700BF6A
S11331E09400FE1F002D310100366E0100127A009A
S11331F019491A4A0B8D03F0030332F8132052B312
S113320010B40C8D16480B8D14F0100F14BF002150
S1133210032107EE902A50F821205DF8044B07EEB5
S1133220102AF8EE676AB8EE477AC3F3052387EEEF
S1133230267A07EE903AF8EE677AF7EE006A77EEB0
S1133240A67AF6EE006A67EEA67A67EE277AFCEEB7
S1133250E77AC0ED057A704700E00140985E00000F
S11332609400FE1F0E4AB2F8FE339BB243F425438A
S113327043F00103A2F8FE3392F81334000100F086
S1133280300003F0CF03034382F81334B2F8FE3363
S113329045F6FE210B4043F42543A2F8FE33704764
S11332A000E001400E4AB2F8FE339BB243F42543DA
S11332B043F00103A2F8FE3392F88134400000F099
S11332C0020003F0FD03034382F88134B2F8FE33B5
S11332D045F6FE210B4043F42543A2F8FE33704724
S11332E000E00140264AB2F8FE339BB243F4254382
S11332F043F00103A2F8FE3305280BD8DFE800F001
S11333002028300338181E4A92F8323023F0010383
S113331082F832301A4AB2F8FE3323F4145323F0FD
S113332001035B045B0C43F42543A2F8FE337047AE
S1133330134A92F82A3023F0010382F82A30E9E78D
S11333400F4A92F8363023F0010382F83630E1E771
S11333500B4A92F8383023F0010382F83830D9E769
S1133360074A92F8903423F0010382F89034D1E7AD
S1133370034A92F8803423F0010382F88034C9E7C9
S113338000E00140264AB2F8FE339BB243F42543E1
S113339043F00103A2F8FE3305280BD8DFE800F060
S11333A02028300338181E4A92F8323043F00103C3
S11333B082F832301A4AB2F8FE3323F4145323F05D
S11333C001035B045B0C43F42543A2F8FE3370470E
S11333D0134A92F82A3043F0010382F82A30E9E7CD
S11333E00F4A92F8363043F0010382F83630E1E7B1
S11333F00B4A92F8383043F0010382F83830D9E7A9
S1133400074A92F8903443F0010382F89034D1E7EC
S1133410034A92F8803443F0010382F88034C9E708
S113342000E00140032810D0052808D008B100208E
S11334307047094B93F83C0000F001007047064BBD
S113344093F83C00C0F340107047034B93F83C00E2
S1133450C0F3C000704700BF00E00140052834D825
S1133460DFE800F00B131B232B03194B93F82A00FE
S113347000F0010080F001007047154B93F836000E
S113348000F0010080F001007047114B93F8380000
S113349000F0010080F0010070470D4B93F8900498
S11334A000F0010080F001007047094B93F83200EE
S11334B000F0010080F001007047054B93F8800490
S11334C000F0010080F0010070470020704700BF49
S11334D000E00140024B1A6A93F82630704700BF9F
S11334E000E001400E4AB2F8FE339BB243F4254398
S11334F043F00103A2F8FE3392F8133400F0010004
S113350023F0400343EA801382F81334B2F8FE3305
S113351045F6FE210B4043F42543A2F8FE337047E1
S113352000E001400E4AB2F8FE339BB243F4254357
S113353043F00103A2F8FE3392F8A23001F00F0128
S113354023F00F03194382F8A210B2F8FE3345F6B4
S1133550FE210B4043F42543A2F8FE33704700BF1D
S113356000E0014005288CBF00200120704700BF07
S113357006288CBF00200120704700BF024B93F83F
S1133580260000F00700704700E001400E4AB2F840
S1133590FE339BB243F4254343F00103A2F8FE3308
S11335A092F8263000F0070023F00703184382F84E
S11335B02600B2F8FE3345F6FE210B4043F42543C2
S11335C0A2F8FE33704700BF00E00140034B1B8D9F
S11335D013F0100F0CBF03200020704700E00140DF
S11335E00F4A1049B2F8FE3311F810109BB243F49D
S11335F0254343F00103A2F8FE33138D01F00101CA
S113360023F0100343EA01131385B2F8FE3345F6A1
S1133610FE210B4043F42543A2F8FE33704700BF5C
S113362000E00140A85E0000114AB2F8FE3330EE1B
S1133630000A9BB243F42543FCEEC07A43F0010335
S1133640A2F8FE3317EE903A118D013B21F47C5120
S113365003F03F0341EA03231385B2F8FE3345F632
S1133660FE210B4043F42543A2F8FE33704700BF0C
S113367000E001400E4A0F49B2F8FE3331F8101051
S11336809BB243F4254343F00103A2F8FE33138DA8
S113369001F0030123F003030B431385B2F8FE3357
S11336A045F6FE210B4043F42543A2F8FE33704750
S11336B000E00140A05E0000F0B51E4AB2F8FE33FF
S11336C09BB243F4254343F00103A2F8FE3306788A
S11336D085780479417990F801C090F803E08779FE
S11336E006F00706002305F0070566F30E3304F021
S11336F0070065F3061301F0070160F3124361F359
S11337001E7366F30E3365F3061360F3124361F31D
S11337101E736CF30A236EF3020367F31A631362D6
S1133720B2F8FE3345F6FE210B4043F42543A2F8DC
S1133730FE33F0BD00E001400E4B1A6AC2F30232C0
S113374002701A6AC2F3022242701A6AC2F30212A7
S113375082701A6A02F00702C2701A6AC2F3024245
S113376002711A6AC2F3027242711B6AC3F30263E2
S11337708371704700E001404378022B16D8D0EDE6
S1133780017AB3EE0E7AF4EEC77AF1EE10FA0DDC9C
S1133790B2EE047AF4EEC77AF1EE10FA06D40078A9
S11337A0032805D0B0FA80F0400970470020704724
S11337B001207047062828D8DFE800F0090E131806
S11337C01D220400124B186AC0F302607047104BAC
S11337D0186AC0F3023070470D4B186AC0F3022018
S11337E070470B4B186AC0F302107047084B186AF5
S11337F000F007007047064B186AC0F30240704798
S1133800034B186AC0F3027070470020704700BF72
S113381000E0014008B5FFF7CDFF054B054A93F8DA
S1133820263003F0070352F8233023FA00F008BDD2
S113383000E001409400FE1F024B53F82000C840F2
S1133840704700BF9400FE1F0F4BB3F8FE2392B2E3
S113385042F4254242F00102A3F8FE2393F84020EB
S113386062F07F0283F8402093F8402042F0010286
S113387083F84020B3F8FE2345F6FE210A4042F4C3
S11338802542A3F8FE23704700E001400F4BB3F834
S1133890FE2392B242F4254242F00102A3F8FE2331
S11338A093F8402022F0010283F8402093F840204E
S11338B002F07F0283F84020B3F8FE2345F6FE2190
S11338C00A4042F42542A3F8FE23704700E0014079
S11338D0024B93F84000C009704700BF00E001406C
S11338E0024B93F8410000F00100704700E00140F2
S11338F0114A92F8410010F0010001D100207047F4
S1133900B2F8FE339BB243F4254343F00103A2F81B
S1133910FE3392F8413023F0010382F84130B2F8CB
S1133920FE3323F4145323F001035B045B0C43F4D0
S11339302543A2F8FE33704700E001400E4AB2F876
S1133940FE339BB243F4254343F00103A2F8FE3354
S113395092F8303000F0010023F00103184382F89C
S11339603000B2F8FE3345F6FE210B4043F4254304
S1133970A2F8FE33704700BF00E001400C4AB2F8E1
S1133980FE339BB243F4254343F00103A2F8FE3314
S113399092F8523043F0010382F85230B2F8FE3309
S11339A045F6FE210B4043F42543A2F8FE3370474D
S11339B000E001400C4AB2F8FE339BB243F42543C5
S11339C043F00103A2F8FE3392F8523023F00103CE
S11339D082F85230B2F8FE3345F6FE210B4043F430
S11339E02543A2F8FE33704700E00140164BB3F8BC
S11339F0FE2392B242F4254242F00102A3F8FE23D0
S1133A0093F83E2002F07F0283F83E2093F83E2094
S1133A1001F0070122F0700242EA011283F83E200D
S1133A2093F83E2000F0070022F00702104383F8C9
S1133A303E00B3F8FE2345F6FE210A4042F4254237
S1133A40A3F8FE23704700BF00E001400C4AB2F81F
S1133A50FE339BB243F4254343F00103A2F8FE3343
S1133A6092F83E3063F07F0382F83E30B2F8FE33C2
S1133A7045F6FE210B4043F42543A2F8FE3370477C
S1133A8000E001400C4AB2F8FE339BB243F42543F4
S1133A9043F00103A2F8FE3392F83E3003F07F03B3
S1133AA082F83E30B2F8FE3345F6FE210B4043F473
S1133AB02543A2F8FE33704700E001400C4AB2F8F7
S1133AC0FE339BB243F4254343F00103A2F8FE33D3
S1133AD092F8533043F0010382F85330B2F8FE33C6
S1133AE045F6FE210B4043F42543A2F8FE3370470C
S1133AF000E001400C4AB2F8FE339BB243F4254384
S1133B0043F00103A2F8FE3392F8533023F001038B
S1133B1082F85330B2F8FE3345F6FE210B4043F4ED
S1133B202543A2F8FE33704700E001400E4AB2F884
S1133B30FE339BB243F4254343F00103A2F8FE3362
S1133B4092F8243000F0070023F0700343EA0013D6
S1133B5082F82430B2F8FE3345F6FE210B4043F4DC
S1133B602543A2F8FE33704700E001400B4B0138B7
S1133B700022B0F1807F19681A600CD210B4084C8E
S1133B805860F02084F82300072101209A6019600E
S1133B905DF8044B704719601046704710E000E070
S1133BA000ED00E00C4B1A7902F00E0242F0F00234
S1133BB01A711A7A00F0010022F0040242EA80022B
S1133BC01A721A7A22F0080242EAC00018721A79AC
S1133BD042F0F1021A71704700200040094B1A7933
S1133BE042F0F1021A711A7A00F0010022F0100278
S1133BF042EA00121A721A7902F00E0242F0F0023E
S1133C001A71704700200040054A92F81C3100F0F8
S1133C10070023F00703184382F81C01704700BF14
S1133C2000C00140024B93F81C0100F007007047EC
S1133C3000C00140002070470020704700207047FA
S1133C40024B1B6803600020704700BF0C5F00003C
S1133C5038B50C460546FFF791FC28702046FFF75F
S1133C606BFD002038BD00BF70B500240C600D460C
S1133C700646FFF77DFC10B90324204670BD30468C
S1133C80FFF7C8FD2860204670BD00BF10B5FFF7E0
S1133C9027FE68B1FFF772FC0446FFF797FC052C7A
S1133CA004D0032C04D140F2971010BD0328FAD09D
S1133CB0FFF71EFE002010BD08B5FFF73FFE0020F1
S1133CC008BD00BF08B5FFF759FE002008BD00BFBE
S1133CD008B5FFF76FFE002008BD00BF08B5FFF769
S1133CE085FE002008BD00BF08B5FFF7AFFE002029
S1133CF008BD00BF08B5FFF7C5FE002008BD00BF22
S1133D0008B5FFF7DBFE002008BD00BF08B5FFF7CC
S1133D10F1FE002008BD00BF08B5FFF707FF002033
S1133D2008BD00BF00B583B04FF6FF730193FFF7E2
S1133D3045FA0420FFF726FB04E0019B3BB1019BFD
S1133D40013B01930420FFF789FB0028F5D1019B77
S1133D5023B94FF4CD7003B05DF804FB05210420B2
S1133D60FFF7B8FB0020FFF79DFA002003B05DF8D1
S1133D7004FB00BF10B50446FFF7F4FB08B90320A9
S1133D8010BD631E012B0FD9042C0DD02CB1032CB4
S1133D9003D0052C01D0002010BD2046FFF75EFBA8
S1133DA068B94FF4C87010BD2046FFF757FB40F2C6
S1133DB09113002814BF18464FF4C87010BD204654
S1133DC0FFF730FB40F2931300280CBF18464FF462
S1133DD0C97010BD70B582B00E460546FFF7C2FB30
S1133DE010B9032002B070BD052D28460FD0FFF78F
S1133DF035FB18B140F2911002B070BD6A1E012A61
S1133E004ED9042D25D0BDB1032D3AD0EAE7FFF7F2
S1133E1025FBC8B9B6B1FFF7B1FB0528EAD0304697
S1133E20FFF7AAFC0028DCD03078FFF717FB002846
S1133E303BD14FF4CA70D5E7FFF7F4FA80B340F2F0
S1133E409310CFE70120CDE7FFF7D2F940F29110AC
S1133E50C8E72846FFF746FA4FF6FF73019304E0DC
S1133E60019B3BB1019B013B01930420FFF7F6FA50
S1133E700028F5D0019B002B0CBF4FF4CD7000201F
S1133E80B0E72846FFF7CEFA04460028D7D1FFF75B
S1133E90E9F92046FFF726FB28460921FFF742FBF4
S1133EA02846FFF71FFA00209CE72846FFF7BAFAD6
S1133EB004460028C3D13078FFF792FB7078FFF7EF
S1133EC0D9FB96ED010AFFF7AFFBFFF791F92846FE
S1133ED0FFF708FA204685E710B582B00446FFF7DD
S1133EE041FB10B9032002B010BDFFF747FB844229
S1133EF016D0052810D0012C15D02046FFF7AEFAB5
S1133F0040B1022C39D0042C1AD094B1032C10D017
S1133F10052C0ED00020E6E7FFF758FBA042EAD1BB
S1133F2040F29110DFE7FFF7D3FC08B340F295109D
S1133F30D9E72046FFF776FAF8B940F29310D2E7B2
S1133F402046FFF71FFA4FF6FF73019304E0019B2D
S1133F503BB1019B013B01930420FFF77FFA00284A
S1133F60F5D1019B002B0CBF4FF4CD700020BAE7B4
S1133F702046FFF773FA0028CCD02046FFF702FA58
S1133F80C8E700BF70B582B00C460546FFF7EAFAF1
S1133F9010B9032002B070BD002C4AD0A379627915
S1133FA09A42F6D362789A42F3D322789A42F0D3B3
S1133FB022799A42EDD30620FFF72CFC2846A179FA
S1133FC0FFF73AFC334B984206463CD8324B9842B2
S1133FD042D8FFF727FE0026FFF7D0FA854204D027
S1133FE04DB3032D27D0052D25D06846FFF7A4FB3C
S1133FF09DF80620A3799A423BD22046FFF75CFB4A
S11340002846FFF7C3FA00F003F9244B1860062092
S1134010FFF700FC1F4B984234D9214B984234D906
S1134020FFF700FE86422BD03046FFF7EDFD00205F
S1134030B0E70120AEE72846FFF7F4F90028D4D111
S11340404FF4C970A6E70120FFF7ACFD144B9E4264
S113405002D90120FFF7C2FD124B9E4294BF0126F4
S11340600226FFF7DFFDB042B6D23046FFF7CCFDA3
S1134070B2E72846FFF78AFA2046FFF71DFBC2E79E
S1134080002087E70020FFF78DFD0020FFF7A6FD45
S1134090C6E700BF000E2707FFB3C404300AFE1FA3
S11340A000C2EB0BFF67890900B583B071B148B159
S11340B00146012000F0C8F8FFF7C6FB002003B05A
S11340C05DF804FB012003B05DF804FBFFF708FC76
S11340D020B14FF4CB7003B05DF804FB0190FFF7FF
S11340E0D5FB0198EBE700BF08B90320704738B54A
S11340F00D46044600F08CF807EE900AF8EE676A65
S1134100F7EE007AC7EEA66A07EE905A07EE104A59
S1134110F8EE677AB8EE477A66EEA77AC7EE277AA2
S1134120FCEEE77A17EE900AFFF720FD00280CBF9B
S11341301220002038BD00BF104991F8043143F02B
S1134140010381F80431B1F80431DB070CD54FF0D9
S1134150FF3300E033B1B1F80421D20703F1FF3398
S1134160F8D40BB914207047044A92F8003160F374
S1134170000382F800310020704700BF00C00140F6
S113418070B5214D82B02B6898470120FFF7D4FF0A
S113419000216E680320B04701211C4AAC698DF8E8
S11341A00110032301928DF800300320A047B0F5DD
S11341B0C97FFAD169460520B0470520A047B0F56C
S11341C0C97FFAD100220124022369468DF8062012
S11341D08DF801308DF802308DF805308DF80040EF
S11341E0EB688DF803408DF80440052098472B6D4B
S11341F0042098476B6A20469847AB6A9847AB6C93
S1134200984702B070BD00BFB05E00000000A0413E
S113421000B583B002A9002341F8043D034B0620F6
S11342205B699847019803B05DF804FBB05E000039
S1134230044B002103F1300243F8041B9342FBD1E9
S1134240704700BF2408FE1F024B43F820100020D3
S1134250704700BF2408FE1F08B57A4BB3F84031FD
S1134260D90700F1C180774BB3F840319A0700F1C8
S1134270B080744BB3F840315B0700F19F80714B01
S1134280B3F84031180700F18E806E4BB3F840311B
S1134290D9067CD46B4BB3F84001C0F380100028DE
S11342A069D1684BB3F840311A0658D4654BB3F85A
S11342B04031DB0547D4634BB3F84031980536D41D
S11342C0604BB3F84031590524D45E4BB3F8403108
S11342D01A0512D45B4BB3F84031DB0400D408BD9B
S11342E0594BDB6A002B40F0AA80564AB2F83031B1
S11342F043F48053A2F8303108BD534B9B6A002B22
S113430040F09A804F4AB2F8303143F40063A2F887
S11343103031DFE74C4B5B6A002B40F08A80494A1E
S1134320B2F8303143F48063A2F83031CDE7464B24
S11343301B6A002B7AD1434AB2F8303143F400733C
S1134340A2F83031BCE7404BDB69002B6BD13D4A0E
S1134350B2F8303143F48073A2F83031ABE73A4B12
S11343601B68002B5CD1374AB2F8303143F080032C
S1134370A2F830319AE7344B5B68002B4ED1314AB6
S1134380B2F8303143F04003A2F8303189E72E4BC4
S11343909B69002B3FD12B4AB2F8303143F0100314
S11343A0A2F8303176E7284B5B698BBB254AB2F81B
S11343B0303143F00803A2F8303166E7224B1B6921
S11343C01BBB204AB2F8303143F00403A2F8303169
S11343D055E71D4B9B68ABB91A4AB2F8303143F02C
S11343E00203A2F8303144E7174BDB683BB9154AA6
S11343F0B2F8303143F00103A2F8303133E703203F
S11344009847F4E702209847E6E704209847D8E75E
S113441005209847CAE706209847BCE79847AEE7C7
S1134420002098479FE70720984790E7082098477F
S113443081E70920984772E70A20984762E70B2032
S1134440984752E7006000402408FE1F002808DB5C
S1134450800000F1804000F5C640036823F48033F7
S1134460036070472DE9F04F1D4B1E4F1E48DFF8C7
S113447088A0DFF88880DFF888E01C4E1C4C1D49BA
S1134480E0224FF4BA7C40F2751583F800234FF410
S1134490BB7BC7F800C040F2771983F801234FF4BF
S11344A0DE7C056040F2BD174FF4DF7583F802230C
S11344B040F2BF10CAF800B083F80323C8F8009094
S11344C083F80423CEF800C083F80523376083F80B
S11344D00623256083F807230860BDE8F08F00BF3A
S11344E000E100E000630040046300401463004006
S11344F0186300401C630040086300400C630040E4
S113450010630040012202E0C0E8432F43B1D0E829
S11345104F3F13F0FF0FF7D0BFF32F8F08207047E2
S11345201846704700230370704700BF084B0121F1
S1134530034402E0C3E8401F40B1D3E84F2F12F018
S1134540FF0FF7D0BFF32F8F08207047704700BFCD
S11345505408FE1F014B00221A5470475408FE1FD2
S1134560044B002103F1780203F8011F9342FBD1AD
S1134570704700BF5308FE1F0E4B33F8102092B251
S11345802AB133F81020013A92B223F8102033F8FC
S113459010309BB263B9084A0849B2F8FE3331F8C7
S11345A010109BB243F4254323EA0103A2F8FE331F
S11345B0704700BFCC08FE1F00E00140105F000000
S11345C0104A32F810309BB2ABB910B40E4C0F49FC
S11345D0B4F8FE3331F810109BB243F425430B4377
S11345E0A4F8FE3332F810305DF8044B01339BB26B
S11345F022F81030704732F8103001339BB222F8A1
S113460010307047CC08FE1F00E00140105F00002E
S1134610024B00221A805A809A807047CC08FE1FF1
S1134620F8B50788AFB341681B4C002601EBC70EF1
S11346304FF0010C37468888002334F81320824257
S113464016D00133032BF8D108317145F3D1F64369
S1134650F6B20120FFF7B4FF104A92F8BB341F43AF
S11346603E4082F8BB640120BDE8F840FFF784BFF8
S11346700A6802F0B852B2F1807F05D00CFA03F553
S113468046EA0502D6B2DCE70CFA03F21743FFB29E
S1134690D7E7FF26DDE700BF185F000000E0014018
S11346A0A0F101000028FBD1704700BF38B50D46CA
S11346B001FB00F4FFF7ACFDB0F5004F01D8012D6C
S11346C019D00F4AB2FBF0F0844208D24FF47A7248
S11346D002FB04F3B3FBF0F0800808D138BD4FF4BB
S11346E07A72B4FBF0F002FB00F08008F6D0BDE86B
S11346F03840FFF7D5BF2846BDE83840FFF7D0BFA4
S113470000CA9A3B0C4A08B513688BB1033020F0F9
S113471003000A491844884202D81060184608BDAC
S113472000F026FA0C2303604FF0FF33184608BD4F
S1134730034B1360EAE700BFD408FE1F881AFE1F6C
S1134740880AFE1F00BE704708B500F005F800F0A7
S11347503FF9FEE7704700BF204AD2F8883043F49F
S1134760700310B50020C2F88830FFF7F3FFFFF79D
S11347705FFDFFF705FDFFF74BFF194B194A1B6857
S11347801948002414809847184A194B9B1A05D0DD
S11347901344214603F8011D9A42FBD11548164BD8
S11347A0C01A07D0154A184412F8011B03F8011B5C
S11347B08342F9D1FFF72CFD114B18600120FFF75C
S11347C0C9FFFFF7CDFEFFF74DFE0E4B0E481B68E9
S11347D098470020BDE8104000F018B800ED00E054
S11347E0185E0000D808FE1FE45F00000004FE1FEE
S11347F0880AFE1F9400FE1F0000FE1F486500008B
S1134800300AFE1F505E0000205F000000F044B834
S113481082B04FF0C84300210091009A1A7D61F3E1
S113482000021A751A8DD0B1202161F30F221A8566
S11348301A8D4FF0C04142F080021A850A68009236
S113484040F6FF721946019204E0019B013B01937B
S1134850019A12B18A6A5206F7D502B070474FF036
S1134860C04142F47F421A850A6800921A8D60F3AF
S1134870C7121A850A68009240F6FF711A46019120
S113488005E0019B013B0193019B002BE5D0936A5A
S11348905B06F6D402B07047F8B5494A13684FF086
S11348A0C84423F040031360237A6FF30403237294
S11348B0237DFF2243F0010323752261237D6622B9
S11348C043F0010323752261237D992243F0010300
S11348D023752261237D43F00103237501212320E5
S11348E0FFF7E4FE9F232361364B22691A70226985
S11348F05A702169227D997042F0010222751A785A
S1134900EF2A04D000221A705A709A70F8BD5A78AF
S1134910402AF7D19A78172AF4D1052020612A4930
S113492023690B70227D294B42F001023526227542
S1134930266122691A70227D42F001022275228DBD
S1134940042565F3030222852279502765F30302C7
S113495022712761227D42F0010222751A78012713
S113496042F002021A7027610A7822611A782261E1
S1134970227D3A4322752561227D3A43227522889D
S113498060F302022280206122690A70227D3A4388
S11349902275266122691A70237D3B43237523887F
S11349A043F040032380A369DB074FF0C845FAD4E2
S11349B00120FFF72DFF2B7D6FF300032B75F8BD4E
S11349C000700440DC08FE1FE008FE1FE408FE1F20
S11349D008B500F039F8002008BD00BF38B5084B11
S11349E0084C9A6818689368002525700122984736
S11349F020B92378002BFCD0012038BD284638BDCF
S1134A00685F0000810AFE1F38B5084B084C9A689D
S1134A1018685368002525700122984720B9237827
S1134A20002BFCD0012038BD284638BD685F00004B
S1134A30800AFE1F0379022B02D1024B01221A7055
S1134A40704700BF810AFE1FF0B5374A374B92E822
S1134A50030085B002AC84E8030093E807007723E1
S1134A608DF8073013689847314B1B6802220021E8
S1134A709868082300F022F92E4800F087F82E48A1
S1134A8000F084F82D4800F081F821462C4800F00D
S1134A907DF82C4800F00AF92B4800F007F92B4B5D
S1134AA09E681D683268596828469047D0B12848E6
S1134AB000F0FCF8012213460DF10701B7682846FF
S1134AC0B847244800F0F2F82146284674680822C2
S1134AD00123A047204800F0E9F8336928469847A5
S1134AE005B0F0BD1D4800F0E1F81D4800F0DEF807
S1134AF0012213460DF10701B7682846B847194843
S1134B0000F0D4F82146184800F040F82146082265
S1134B10012377682846B847144800F0C7F82146AF
S1134B20114800F033F8D8E7DC630000685F000048
S1134B308400FE1FE8630000F0630000F4630000DB
S1134B40FC6300000864000014640000545F00006B
S1134B5020640000306400004064000050640000E1
S1134B605C640000686400007C64000094640000DD
S1134B70014B1868704700BF8400FE1F02440346BF
S1134B80934202D003F8011BFAE770470FB40A4BB3
S1134B9013B51C6824B1A36913B9204600F0C4FA04
S1134BA005AB2046A168049A019300F05DFC02B0B5
S1134BB0BDE8104004B070478400FE1F70B50E4677
S1134BC0054618B183690BB900F0AEFAAB69AC685D
S1134BD013B9284600F0A8FA314B9C4201D16C6805
S1134BE008E0304B9C4201D1AC6803E02E4B9C4260
S1134BF008BFEC68A389190701D5236983B928463E
S1134C00214600F037F958B14FF0FF3070BD002B4A
S1134C100EDB236816F8012C1A7023680133236015
S1134C20A36816F8012B013BA360002AEFD116E01C
S1134C30A269934209DB236816F8012C1A702368D1
S1134C4019780A29EAD1284602E016F8011C2846F8
S1134C50224600F0BBF8421C50425041D3E7002BDF
S1134C6015DAA269934208DB23680A221A702368C2
S1134C70197891420FD1284601E028460A2122469C
S1134C8000F0A4F8431C5842584130B1BCE72368F3
S1134C900A221A702368013323600A2070BD00BF02
S1134CA0B0640000D0640000F0640000024B0146D0
S1134CB01868FFF783BF00BF8400FE1F2DE9F04191
S1134CC01D463D4B1E6804460F46904626B1B36907
S1134CD013B9304600F028FA384B9C4201D174686D
S1134CE008E0374B9C4201D1B46803E0354B9C4249
S1134CF008BFF468B8F1020F5AD8002D58DB3046CB
S1134D00214600F0A7F900236360A361A3891B0671
S1134D1003D53046216900F0E5FAA389B8F1020F02
S1134D2023F08303A38112D037BB002D08BF4FF4B7
S1134D308065284600F0CEFA0746C8B94FF4806073
S1134D4000F0C8FA074688B94FF0FF3000E00020B1
S1134D50A38943F00203A3810023A36004F1470362
S1134D602360236101236361BDE8F0814FF4806512
S1134D70A38943F08003A381B8F1010F01BFA38984
S1134D8043F00103A3816B4208BFA3610E4BB362DE
S1134D90A389276003F0080080B22761656148B1E8
S1134DA013F0030F18BF0025A5600020BDE8F081B3
S1134DB04FF0FF30BDE8F0818400FE1FB0640000B6
S1134DC0D0640000F0640000A950000070B50D46E6
S1134DD01446064618B183690BB900F0A5F9224BB5
S1134DE09C4201D1746808E0204B9C4201D1B46814
S1134DF003E01F4B9C4208BFF468A369A360A38926
S1134E001A0709D523693BB123682069181A636915
S1134E109842EDB20FDB08E03046214600F02AF854
S1134E200028F1D04FF0FF3070BD3046214600F02D
S1134E3011F90028F6D1A368013BA36023685A1C2A
S1134E4022601D7063690130984204D0A389DB0796
S1134E5007D50A2D05D13046214600F0FBF800287D
S1134E60E0D1284670BD00BFB0640000D0640000EB
S1134E70F0640000314B70B51D6806460C4625B140
S1134E80AB6913B9284600F04FF92D4B9C4201D170
S1134E906C6808E02B4B9C4201D1AC6803E02A4BC0
S1134EA09C4208BFEC68A3899AB211071DD4D506A9
S1134EB002D40922326038E0500712D5616B41B147
S1134EC004F14403994202D0304600F00BFA002367
S1134ED06363A38923F02403A3810023636023690C
S1134EE02360A38943F00803A38123694BB9A389F1
S1134EF003F42073B3F5007F03D03046214600F05D
S1134F009BF9A38913F0010205D00022A260626913
S1134F105242A26103E0990758BF6269A260226904
S1134F204AB903F0800080B230B143F04003A3815A
S1134F304FF0FF3070BD002070BD00BF8400FE1F25
S1134F40B0640000D0640000F06400008A892DE998
S1134F50F041054610070C4657D44B68002B02DC81
S1134F600B6C002B18DDE66AB6B102F48052002304
S1134F7092B22F682B600AB1626D10E0216A284654
S1134F800123B047411C024609D12B683BB11D2BBC
S1134F9001D0162B47D12F600020BDE8F081A389F2
S1134FA05B0705D56368D21A636B0BB1236CD21A05
S1134FB0E66A216A00232846B047461CA38905D126
S1134FC02A681AB11D2A01D0162A19D1002262605A
S1134FD0D9042269226004D5421C01D12B6803B98B
S1134FE06065616B2F600029D6D004F144039942B7
S1134FF002D0284600F076F900206063BDE8F08115
S113500043F04003A381BDE8F0810F69002FC3D0B2
S113501093070E6808BF4B690F6018BF0023C7EBE6
S113502006088B6012E0A38943F04003A3814FF08C
S1135030FF30BDE8F0812846216AA66A3A46434615
S1135040B0470028EFDD0744C0EB0808B8F1000FB3
S1135050F1DCA1E738B50B6905460C46DBB118B1A4
S113506083690BB900F060F80C4B9C4201D16C6869
S113507008E00B4B9C4201D1AC6803E0094B9C4215
S113508008BFEC68B4F90C302BB128462146BDE8C2
S11350903840FFF75BBF002038BD00BFB06400009C
S11350A0D0640000F0640000014900F0A7B800BF1C
S11350B055500000002310B504460360436083602C
S11350C081814366C28103614361836119465C3017
S11350D00822FFF753FD054B6362054BA362054BA2
S11350E0E362054B2462236310BD00BFC559000071
S11350F0E75900001F5A0000435A000070B56823A6
S11351004D1E5D430E4605F1740100F02FF904466F
S113511040B1002180E842000C30A06005F1680233
S1135120FFF72CFD204670BD836910B5044633BBE0
S11351308364C3640365124B124A1B6882629842FB
S113514004BF0123836100F01FF86060204600F073
S11351501BF8A060204600F017F80421E06000224C
S11351606068FFF7A7FFA06809210122FFF7A2FFEB
S1135170E06812210222FFF79DFF0123A36110BD05
S1135180AC640000A9500000F8B51B4B1E68B3695D
S1135190074613B93046FFF7C7FF4836B46873684B
S11351A0013B04D4B4F90C5075B16834F8E73368A2
S11351B02BB938460421FFF7A1FF306008B13668E7
S11351C0ECE70C233B60F8BD4FF6FF73E38101234A
S11351D0A38165662560A560656025616561A5613B
S11351E004F15C0029460822FFF7C8FC6563A56347
S11351F0A564E5642046F8BDAC6400002DE9F843DD
S11352008046894600F14804002694B1A568676881
S1135210013F0CD4AB89012B07D9B5F90E3001330A
S113522003D040462946C84706436835F0E724685A
S1135230EBE73046BDE8F883F0B58B899D0791B064
S113524006460C4626D4B1F90E10002909DAA389C2
S113525013F0800F4FF0000514BF40274FF4806710
S11352600DE001AA00F014FC0028F0DB029D05F417
S11352707045A5F500514D424D414FF480673046CD
S1135280394600F073F860B9A3899A051DD443F038
S11352900203A38104F147032360236101236361B3
S11352A013E00B4BB362A389206043F08003A38116
S11352B0206167614DB13046B4F90E1000F0FAFB7D
S11352C018B1A38943F00103A38111B0F0BD00BF5D
S11352D0A9500000024B0146186800F047B800BF0F
S11352E08400FE1F30B500293DD051F8042C0B1F5B
S11352F01D49002AB8BF9B180A680C4612B95A60A7
S11353000B6030BD93420DD219685818904201BF0A
S11353105A5852181A6042685A60236030BD994244
S113532003D80A4651680029F9D1146815199D4219
S11353300AD11B682344D0188842136013D108682B
S1135340034413604B680DE002D90C23036030BDA5
S11353501C681819884204BF08684968596004BF6A
S113536000191860536030BDEC08FE1F70B5CC1CEA
S113537024F0030408340C2C38BF0C24002C0646FB
S113538003DA0C233360002070BD8C42F9D3204A29
S1135390136810461946A1B10A68121B0ED40B2AD1
S11353A003D90A608B188C501FE08B420DBF5A68DA
S11353B04A685A60026018BF0B4616E00B464968FB
S11353C0E9E7144D2B681BB9304600F0EBFA28606E
S11353D03046214600F0E6FA421C0346D1D0C51CF3
S11353E025F0030585420AD11C6003F10B001A1D48
S11353F020F00700821A0AD05142995070BD3046FD
S1135400E91A00F0CFFA0130BBD02B46ECE770BDAF
S1135410EC08FE1FE808FE1F9368013B002B10B543
S1135420936009DA9469A34202DBCBB20A2B03D15D
S1135430BDE81040FFF7CABC1368581C106019700F
S1135440C8B210BDF8B506460F461446D518AC428E
S113545008D0304614F8011B3A46FFF7DDFF431C21
S1135460F5D100E00020F8BD2DE9F0439DB00D46D4
S113547090460393064618B183690BB9FFF754FEAF
S1135480754B9D4201D1756808E0744B9D4201D172
S1135490B56803E0724B9D4208BFF568AB891C07F1
S11354A00AD52B6943B10023099320238DF82930B1
S11354B030238DF82A3041E030462946FFF7DAFCE4
S11354C00028F0D04FF0FF30C2E0039A111D12689B
S11354D00391002ABBBF524243F002030792079292
S11354E0B8BF0493013423782E2B7BD0DFF880815E
S11354F021784046032200F0FFFA38B1049AC8EB41
S11355000000402383401343049301342178554819
S11355108DF82810062204F1010800F0EDFA0028A5
S113552000F08580504B002B78D1039B073323F088
S1135530070308330393099B3B44099343461C46E2
S113554013F8012B1AB9B4EB08090ED002E0252A8E
S1135550F5D1F8E73046294642464B46FFF772FF3D
S1135560013070D0099B4B4409932378002B6AD0F7
S113557000234FF0FF3204930793059206938DF8AE
S113558053301A9304F101084446DFF8E890217877
S11355904846052200F0B0FA08F10108049B30B136
S11355A0C9EB00000122824013430493ECE7D806C0
S11355B044BF20228DF85320190744BF2B228DF8B5
S11355C0532022782A2A80D0079923461C46013387
S11355D02278303A092A03D80A2000FB0121F5E792
S11355E0079180E763782A2B0AD1039B1A1D1B6855
S11355F00392002BB8BF4FF0FF330234059375E7D5
S1135600611C00220C4601312378303B092B03D85E
S11356100A2000FB0232F5E7059267E703AB00932B
S1135620304604A92A46114BAFF3008007E003ABD0
S11356300093304604A92A460C4B00F093F8421C10
S113564007467FF478AFAB895B063FF53BAF09981B
S11356501DB0BDE8F08300BFB0640000D06400005A
S1135660F06400001A6500000000000045540000CA
S113567016650000106500002DE9F84391461F46A9
S11356808A680B69DDF820809342B8BF1346C9F8D5
S1135690003091F8432006460C4612B10133C9F894
S11356A000302368990642BFD9F800300233C9F8A4
S11356B00030256815F006051CD094F843302268A4
S11356C0003318BF012392061FD5E1185A1C30205D
S11356D081F84300224494F8451082F843100233C1
S11356E013E03046394604F119020123C047013062
S11356F007D00135E368D9F800209B1A9D42F0DBFE
S1135700DBE74FF0FF30BDE8F8833046394604F15B
S11357104302C0470130F4D02268D9F80050E3684E
S113572002F00602042A08BF5D1B2269A3680CBFAD
S113573025EAE57500259342C4BF9B1AED184FF086
S11357400009A9450ADA3046394604F11A02012350
S1135750C0470130D5D009F10109F2E70020BDE8C6
S1135760F883FFFF2DE9FF410C461746227E6E2A7F
S1135770984606460A9B01F1430100F0AF8012D817
S1135780632A23D00AD8002A00F0BC80582A40F0AB
S1135790CB8084F84520DFF804E257E0642A1ED069
S11357A0692A1CD0C0E0732A00F0B08009D86F2A9F
S11357B02ED0702A40F0B880226842F02002226085
S11357C03FE0752A24D0782A3BD0ADE01A68111D39
S11357D01960136884F8423004F14205A8E0206897
S11357E01A6810F0800F02D0101D186008E010F045
S11357F0400F02F10400186002D0B2F9003000E05A
S11358001368002B3EDA2D225B4284F8432039E0F2
S113581020681A6810F0800F02D0101D186007E08D
S113582010F0400F02F10400186001D0138800E06A
S11358301368227EDFF864E16F2A0CBF08220A2273
S11358401CE07822DFF858E184F8452022681868C3
S113585012F0800F00F104051D6003D1550601D537
S1135860038800E00368D00744BF42F020022260AE
S11358701BB9226822F0200222601022002084F842
S1135880430002E0DFF814E10A226568A560002DF8
S1135890A2BF206820F00400206003B965B10D4662
S11358A0B3FBF2F002FB10331EF8033005F8013DA0
S11358B003460028F4D100E00D46082A0BD12368E2
S11358C0DA0708D5236962689A42DEBF302305F8F7
S11358D0013C05F1FF35491B21612EE025681A685A
S11358E0606915F0800F03D0151D1D60136808E072
S11358F015F0400F02F104051D60136801D01880F3
S113590000E01860002323610D4616E01A68111D9B
S11359101960156862682846002100F0EDF808B1A6
S1135920401B6060636804E004F1420584F842208F
S113593001232361002384F84330CDF800803046EE
S1135940214603AA3B46FFF797FE013002D14FF0F0
S1135950FF301FE0304639462A462369C0470130EC
S1135960F5D023689B0705D4E068039B9842B8BF31
S113597018460FE00025E368039A9B1A9D42F3DA68
S11359803046394604F119020123C0470130DED004
S11359900135F0E704B0BDE8F08100BF21650000E7
S11359A03265000038B5064C0023054608462360DE
S11359B0FEF7A8FE431C02D1236803B12B6038BD57
S11359C0840AFE1F10B50C46B1F90E1000F0A4F8BD
S11359D00028ABBF636DA3891B1823F48053ACBFAD
S11359E06365A38110BD2DE9F0411D468B89DB055C
S11359F007460C46164605D5B1F90E1000220223BF
S1135A0000F068F8A389B4F90E1023F48053A3813D
S1135A10384632462B46BDE8F04100F017B810B5C1
S1135A200C46B1F90E1000F055F8431CA38915BFBC
S1135A30606523F4805343F48053A38118BFA3818A
S1135A4010BDB1F90E1000F013B8FFFF38B5074CC4
S1135A50054600202060084611461A46FEF7BEFFA0
S1135A60431C02D1236803B12B6038BD840AFE1F96
S1135A7038B5064C002305460846236000F0D8F8E4
S1135A80431C02D1236803B12B6038BD840AFE1F76
S1135A9038B5074C0023054608461146236000F03C
S1135AA00CF9431C02D1236803B12B6038BD00BF3D
S1135AB0840AFE1F38B5064C0023054608462360B9
S1135AC000F009F9431C02D1236803B12B6038BDEF
S1135AD0840AFE1F38B5074C05460020206008469E
S1135AE011461A4600F094F8431C02D1236803B10E
S1135AF02B6038BD840AFE1F10B5C9B2024490421F
S1135B00034606D01C788C4200F10100F7D11846F8
S1135B1010BD002010BDFFFF38B5074C054600201E
S1135B202060084611461A46FEF76EFF431C02D158
S1135B30236803B12B6038BD840AFE1F0A4B10B5DD
S1135B400446186818B183690BB9FFF7EDFA132CF2
S1135B5007D8064850F83430013302D000EBC400B3
S1135B6010BD002010BD00BF8400FE1FF008FE1F02
S1135B70F8B50546FEF7FCFF002706461324204629
S1135B803946ABBE044634602846F8BD431C01D1F7
S1135B90FFF7EEBF7047F7B50C461646FFF7CEFF8A
S1135BA0054618B9FEF7E4FF092304E0022E06D9DE
S1135BB0FEF7DEFF162303604FF0FF3026E0012ED0
S1135BC003D14368E41811D5F2E7022E0ED102AFD7
S1135BD0036847F8083D0C2630463946ABBE0646F6
S1135BE03046FFF7D3FF431CE6D004442B686F46CE
S1135BF08DE818000A2630463946ABBE06463046C4
S1135C00FFF7C4FF0028D7DB6C60204603B0F0BD6B
S1135C10FFF7C1BF37B502AD022445F8040D204695
S1135C202946ABBE04462046FFF7B0FF03B030BDA3
S1135C3038B50546FFF782FF044630B9FEF798FFF2
S1135C40092303604FF0FF3038BD013D012D09D811
S1135C50084B9A681B699A4204D14FF0FF330360E2
S1135C60002038BD2068FFF7D5FF10B94FF0FF338F
S1135C70236038BDF008FE1F70B50C46FFF75EFFC9
S1135C80064630B9FEF774FF092303604FF0FF3076
S1135C9070BD636843F4005363604FF48063E36250
S1135CA00C2528463146ABBE05462846FFF76EFF55
S1135CB0431C1CBF2061002070BD38B53C22054642
S1135CC00C4608460021FEF759FF28462146BDE848
S1135CD03840FFF7D1BF70B5FFF730FF0925044600
S1135CE018B9FEF745FF05600FE028462146ABBE14
S1135CF00446012C09D0FEF73BFF00240646132579
S1135D0028462146ABBE05463560204670BDFFFFE0
S1135D104275696C7420776974682052656E657386
S1135D2061732053796E657267792028544D292058
S1135D30536F667477617265205061636B61676548
S1135D402076657273696F6E20312E312E302B628E
S1135D5075696C642E653630373038303864656464
S1135D6032000000312E312E30000000000001010D
S1135D70F8B500BFF8BC08BC9E467047F8B500BF34
S1135D80F8BC08BC9E4670470600000001000800ED
S1135D9001010000100000010000180000000101D2
S1135DA0200000000000400000010001600000002D
S1135DB001028000000000010001000100028001D6
S1135DC000000103000200000002000400010003BF
S1135DD0000800000003FFFF990A0000A506000068
S1135DE07D080000610900008D050000FD0500002C
S1135DF0ED050000BC01C101BD01C20103010201A6
S1135E00851D0000092600004D2600008D26000097
S1135E10ED220000711D0000052C0000752C00000F
S1135E20E52C0000252B0000952B0000D92B000049
S1135E30D1290000512A0000C12A0000FD2A0000D7
S1135E40692B0000012A0000252A0000C129000056
S1135E50DD2D0000B12D0000552D0000652D000042
S1135E60752D0000892D00009D2D00000101010108
S1135E700201010155300000552F0000352E0000AD
S1135E80992E00002D2E0000312E0000CD2E000092
S1135E9009300000412F0000010002000300FFFF51
S1135EA0000001000200FFFF0100010001000000EA
S1135EB0253D0000D53D0000D93E0000853F00008F
S1135EC0513C0000693C0000753D0000A940000001
S1135ED08D3C0000B93C0000C53C0000D13C0000F2
S1135EE0DD3C0000E93C0000F53C0000353C0000CE
S1135EF0393C00003D3C0000013D00000D3D000028
S1135F00193D0000E9400000413C0000030101018B
S1135F10010002000800FFFF020403040404FFFF61
S1135F200100000000000000000000000400FE1F4B
S1135F307401000000000000B45F000000000000D5
S1135F40000000000000000000010000000000004C
S1135F50000000003C0AFE1FC05F0000005E00005D
S1135F600000010000000000580AFE1F885F0000C6
S1135F70D85D00001400FE1F750100000000000041
S1135F80A85F000000000000000000008025000061
S1135F9000000000B45F0000A85F0000354A000064
S1135FA0685F0000605F0000340AFE1F745F000039
S1135FB0745E0000500AFE1F2C5F0000745E000037
S1135FC000000000000000010000000020A1070004
S1135FD0000000000000000000000000545F00000A
S1135FE0405F00007E000000EC5F000000800000C5
S1135FF0000000000080000001000000008000009C
S11360000200000000000000030000000040000047
S113601004000000004000000500000000400000F3
S113602006000000000000000700000000800000DF
S1136030080000000080000009000000004000008B
S11360400A000000008000000E0000000080000034
