S023000053375F534B5F67785F70726F6D70745F74696D65725F315F315F302E737265630C
S21400000038740320F1A400009D9E000001A50000A6
S21400001001A5000001A5000001A5000000000000E9
S21400002000000000000000000000000001A5000025
S21400003001A500000000000081E0010051E1010080
S214000040252D0000F12C00008D2D0000592D0000FC
S214000050FD6A0000456B0000000000000000000084
S214000060000000000000000000000000000000008B
S214000070000000000000000000000000000000007B
S214000080000000000000000000000000000000006B
S214000090000000000000000000000000000000005B
S214000400FFFFFFFFFFFDFFFFFFFFFFFFFFFFFFFFF9
S214000410FFFFFFFFFFFFFFFFFFFFFFFFFFFFFFFFE7
S214000420FFFFFFFFFFFFFFFFFFFFFFFFFFFFFFFFD7
S214000430FFFFFFFFFFFFFFFFFFFFFFFFFFFFFFFFC7
S214000440FFFFFFFFFFFFFFFFFFFFFFFFFFFFFFFFB7
S214000450FFFFFFFFFFFFFFFFFFFFFFFFFFFFFFFFA7
S214000460FFFFFFFFFFFFFFFFFFFFFFFFFFFFFFFF97
S214000470FFFFFFFFFFFFFFFFFFFFFFFFFFFFFFFF87
S214000480FFFFFFFFFFFFFFFFFFFFFFFFFFFFFFFF77
S214000490FFFFFFFFFFFFFFFFFFFFFFFFFFFFFFFF67
S2140004A0FFFFFFFFFFFFFFFFFFFFFFFFFFFFFFFF57
S2140004B0FFFFFFFFFFFFFFFFFFFFFFFFFFFFFFFF47
S2140004C0FFFFFFFFFFFFFFFFFFFFFFFFFFFFFFFF37
S2140004D0FFFFFFFFFFFFFFFFFFFFFFFFFFFFFFFF27
S2140004E0FFFFFFFFFFFFFFFFFFFFFFFFFFFFFFFF17
S2140004F0FFFFFFFFFFFFFFFFFFFFFFFFFFFFFFFF07
S21400050010B5054C237833B9044B13B10448AFF348
S21400051000800123237010BD0008FE1F00000000AD
S21400052004CD0400084B10B51BB108480849AFF3CA
S21400053000800848036803B910BD074B002BFBD0AA
S214000540BDE81040184700BF0000000004CD0400BE
S2140005500408FE1FF405FE1F0000000090B595B0CD
S21400056002AF786039607B689B693B623B6A5B8A56
S2140005709BB2013B9BB299B23B6A9B8A9BB2013B02
S2140005809BB29BB207F114020CB21BB2009310464A
S2140005900021002223460BF01BFB3A6807F10C03F0
S2140005A01068516803C33B6A1B8A1BB20E2B09D125
S2140005B0BB8923F001039BB2BB813B8A43F0010356
S2140005C09BB23B827B68B3F834237B68B3F8363340
S2140005D007F10C0112B21BB2084611461A460BF080
S2140005E027FB07F10C0107F1140207F10C0308467C
S2140005F011461A460BF0F8FA3B8A1AB2BB891BB2B0
S214000600D31A0133FB637B8A1AB2FB891BB2D31A57
S2140006100133FB61FB6B002B40F3B380FB69002BBF
S21400062040F3AF80584B1B687B64584B1B683B6499
S2140006303B6A1B8A1BB20E2B48D1FB6BDA0F1344A6
S2140006405B10FB637B68B3F830331BB2DA0F1344DE
S2140006505B109BB21BB2BB63FB891BB2BA6B02FB7F
S21400066003F39B003A6C13443B64BB891BB2DA0F5E
S21400067013445B109BB21BB29B003A6C13443B6462
S2140006803B6A5B8A1BB2DA0F13445B109BB21BB249
S2140006907B637B68B3F836331AB2FB891BB213440C
S2140006A07A6B02FB03F39B007A6C13447B647B68D3
S2140006B0B3F834331AB2BB891BB21344DA0F1344AF
S2140006C05B109B007A6C13447B6430E07B68B3F865
S2140006D030331BB2BB63FB891BB2BA6B02FB03F35E
S2140006E09B003A6C13443B64BB891BB29B003A6C7C
S2140006F013443B643B6A5B8A1BB27B637B68B3F83C
S21400070036331AB2FB891BB213447A6B02FB03F32F
S2140007109B007A6C13447B647B68B3F834331AB25C
S214000720BB891BB213449B007A6C13447B64002382
S214000730BB6222E07B6C3B633B6CFB6200237B620C
S2140007400AE0FB6A1A1DFA623A6B111D39631268D9
S2140007501A607B6A01337B627A6AFB6B9A42F0DB33
S214000760BB6B9B003A6C13443B647B6B9B007A6CC0
S21400077013447B64BB6A0133BB62BA6AFB699A4264
S214000780D8DB4C37BD4690BD1C08FE1F2008FE1F58
S21400079090B597B002AFF860B9607A60FB689B6965
S2140007A07B637B6B5B8A9BB2013B9BB299B27B6B94
S2140007B09B8A9BB2013B9BB29BB207F11C020CB218
S2140007C01BB2009310460021002223460BF000FACD
S2140007D0BA6807F114031068516803C3BB8A23F094
S2140007E001039BB2BB82FB8A23F001039BB2FB8210
S2140007F03B8B43F001039BB23B837B8B43F00103AF
S2140008009BB27B83FB68B3F83423FB68B3F83633BC
S21400081007F1140112B21BB2084611461A460BF035
S21400082007FA07F1140107F11C0207F11403084642
S21400083011461A460BF0D8F93B8B1AB2BB8A1BB28C
S214000840D31A01333B637B8B1AB2FB8A1BB2D31AD3
S2140008500133FB623B6B002B40F39B80FB6A002B53
S21400086040F39780FB681B69FB644B4B1B68BB64BB
S2140008707B6B9B8A1BB2BB62FB68B3F830331BB240
S2140008807B627B68B3F5877F14D17B6B5B8A1BB278
S2140008905A1EBB8A1BB2D31ABA6A02FB03F35B006A
S2140008A0BA6C1344BB64FB8A1BB25B00BA6C13447D
S2140008B0BB6417E0BB8A1BB2BA6A02FB03F35B0099
S2140008C0BA6C1344BB64BB6A03F10043013B5B0094
S2140008D0BA6C1344BB64FB8A1BB25B005B42BA6C07
S2140008E01344BB64FB68B3F836331AB2FB8A1BB2F8
S2140008F013447A6A02FB03F35B00FA6C1344FB644E
S214000900FB68B3F834331AB2BB8A1BB213445B00DD
S214000910FA6C1344FB640023FB6336E0FB6C7B64D9
S214000920BB6C3B640023BB6318E07B6C9A1C7A6448
S2140009301A883B6C1A807B68B3F5877F06D1BB6A42
S2140009405B005B423A6C13443B6404E0BB6A5B00AA
S2140009503A6C13443B64BB6B0133BB63BA6B3B6BB3
S2140009609A42E2DB7B68B3F5877F03D1BB6C023328
S214000970BB6402E0BB6C023BBB647B6A5B00FA6C48
S2140009801344FB64FB6B0133FB63FA6BFB6A9A420E
S214000990C4DB5437BD4690BD2008FE1F90B597B007
S2140009A002AFF860B9607A60FB689B697B637B6B1B
S2140009B05B8A9BB2013B9BB299B27B6B9B8A9BB2D4
S2140009C0013B9BB29BB207F11C020CB21BB2009318
S2140009D010460021002223460BF0FAF8BA6807F109
S2140009E014031068516803C3BB8A23F001039BB24B
S2140009F0BB82FB8A23F001039BB2FB823B8B43F056
S214000A0001039BB23B837B8B43F001039BB27B834A
S214000A10FB68B3F83423FB68B3F8363307F11401E8
S214000A2012B21BB2084611461A460BF001F907F13E
S214000A30140107F11C0207F11403084611461A4672
S214000A400BF0D2F83B8B1AB2BB8A1BB2D31A013317
S214000A503B637B8B1AB2FB8A1BB2D31A0133FB6251
S214000A603B6B002B40F39B80FB6A002B40F3978088
S214000A70FB681B69FB644B4B1B68BB647B6B9B8AE8
S214000A801BB2BB62FB68B3F830331BB27B627B6879
S214000A90B3F5877F14D17B6B5B8A1BB25A1EBB8A69
S214000AA01BB2D31ABA6A02FB03F39B00BA6C134458
S214000AB0BB64FB8A1BB29B00BA6C1344BB6417E092
S214000AC0BB8A1BB2BA6A02FB03F39B00BA6C1344E0
S214000AD0BB64BB6A03F18043013B9B00BA6C1344C2
S214000AE0BB64FB8A1BB29B005B42BA6C1344BB64BC
S214000AF0FB68B3F836331AB2FB8A1BB213447A6A21
S214000B0002FB03F39B00FA6C1344FB64FB68B3F828
S214000B1034331AB2BB8A1BB213449B00FA6C1344DC
S214000B20FB640023FB6336E0FB6C7B64BB6C3B64BE
S214000B300023BB6318E07B6C1A1D7A641A683B6C52
S214000B401A607B68B3F5877F06D1BB6A9B005B4261
S214000B503A6C13443B6404E0BB6A9B003A6C134453
S214000B603B64BB6B0133BB63BA6B3B6B9A42E2DB05
S214000B707B68B3F5877F03D1BB6C0433BB6402E0AC
S214000B80BB6C043BBB647B6A9B00FA6C1344FB643F
S214000B90FB6B0133FB63FA6BFB6A9A42C4DB543788
S214000BA0BD4690BD2008FE1F90B58BB002AF7860A2
S214000BB039607B689B69FB617B68B3F830339BB216
S214000BC0013B9BB299B27B68B3F832339BB2013BD0
S214000BD09BB29BB207F110020CB21BB200931046F8
S214000BE000210022234611F055FBFB699B6B18463B
S214000BF000F008FCB861BB69002B29D07B6803F1C4
S214000C001C0207F1100107F10803084611461A46B0
S214000C1011F04AFB0346002B1AD0FB699B6B184663
S214000C203049314A00F05AFAFB691B8A1BB20E2B78
S214000C3007D107F1080378681946BA69FFF7A8FDD7
S214000C4006E007F1080378681946BA69FFF7A6FEBA
S214000C507B689B699B6B1846224900F055FA7B68B7
S214000C609B699B6B18461F491F4A00F037FA7B6842
S214000C701A691C4B1B689A4203D11B4B1A687B6887
S214000C801A617B6803F11C0207F1100107F10803E3
S214000C90084611461A4611F007FB0346002B1DD0E6
S214000CA0BB69002B06D107F1080378681946FFF7E1
S214000CB055FC13E0FB691B8A1BB20E2B07D107F10C
S214000CC0080378681946BA69FFF762FD06E007F17F
S214000CD0080378681946BA69FFF760FE2437BD46F0
S214000CE090BD00BF1C08FE1F2008FE1F80B584B004
S214000CF000AF786039607B68002B01D10123CBE020
S214000D003B68002B01D10123C6E03B681B68002B23
S214000D1001D10123C0E03B685B68002B01D10123B1
S214000D20BAE03B68DB68002B01D10123B4E03B68E6
S214000D309B8C002B0CBF01230023DAB23B689B8CF4
S214000D405A2B0CBF01230023DBB21343DBB21A4637
S214000D503B689B8CB42B0CBF01230023DBB21343F0
S214000D603A68928CB2F5877F0CBF01220022D2B27D
S214000D701343002B01D101238EE03B689A683B6841
S214000D80DB689A4201D1032386E03B681B69002B8F
S214000D9007D03B689A683B681B699A4201D10323D7
S214000DA07AE03B689B68002B05D13B689B8C002B48
S214000DB001D0032370E07B6893F83E30002B01D00F
S214000DC0082369E07B6893F83E30012B0BD034484B
S214000DD03449012234231BF0C7FDF860FB68002B62
S214000DE001D0642358E02E484FF496711BF02AFE7B
S214000DF0F860FB68002B04D029481BF00DFE642326
S214000E004AE07B6820331846274900221C231BF043
S214000E1075FEF860FB68002B04D021481BF0FCFD33
S214000E20642339E03B681A687B685A603B685A69F5
S214000E307B689A613B685A687B689A603B689A68E8
S214000E407B68DA603B68DA687B681A613B681B6916
S214000E50002B04D03B681A697B685A6103E03B6844
S214000E60DA687B685A613B68DA697B681A643B68B3
S214000E701A6A7B685A647B68002283F83C203B68C9
S214000E809A8C7B68A3F84820084A7B6813607B68C6
S214000E90012283F83E20002318461037BD4680BD49
S214000EA02808FE1F28EF010038EF01002408FE1F67
S214000EB080B584B000AF78607B68002B01D1012339
S214000EC039E07B6893F83E30002B01D1072332E0EF
S214000ED01B484FF496711BF0B5FDF860FB68002BBD
S214000EE001D0642327E07B6893F83E30022B0FD1B5
S214000EF0786800F0C3F903467B817B89002B07D016
S214000F000F481BF0CBFD7B89002B01D07B8912E0BC
S214000F107B68002283F83E207B68203318461BF04F
S214000F2041FE07481BF0BAFD05481BF075FD054B52
S214000F3000221A60002318461037BD4680BD00BF49
S214000F402808FE1F2408FE1F80B483B000AF786018
S214000F507B6801221A707B6801225A707B68012226
S214000F609A707B680122DA70002318460C37BD465B
S214000F705DF8047B704700BF80B588B000AF78602E
S214000F80364B1B68FB61FB69002B01D1102360E028
S214000F90FB695B685B681B7B042B1DD801A252F8BB
S214000FA023F000BFC90F0000C10F0000B90F0000FA
S214000FB0D90F0000D10F00007B680E221A821AE0BB
S214000FC07B6814221A8216E07B6816221A8212E0C8
S214000FD07B680F221A820EE000233B7301237B738B
S214000FE003233B611D4B1B689B6907F10C021046EF
S214000FF0984710232DE07B6800229A63174B1B68E6
S2140010007A681A607868F96900F086F903467B8387
S2140010107B8B002B0DD000233B7301237B737B8BD4
S2140010203B61FB699B6907F10C0210469847102349
S2140010300FE0FB69022283F83E200023FB6108488C
S2140010401BF02CFD78617B69002B01D0102300E09B
S214001050002318462037BD4680BD00BF2408FE1F6B
S2140010602808FE1F80B584B000AF786039607B68C2
S214001070002B01D101232AE07B6893F83E30022B37
S21400108001D01A2323E014484FF496711BF0DAFCC3
S214001090F860FB68002B01D0642318E07B68DB68EF
S2140010A0002B05D13B689B6E7A6852691A6104E092
S2140010B03B689B6E7A68D2681A6107481BF0EEFCA4
S2140010C0F860FB68002B01D0642300E0002318467C
S2140010D01037BD4680BD00BF2808FE1F80B487B00D
S2140010E000AFF860B9607A60FB687B617B691A695B
S2140010F0BB681A607B695A697B681A601C37BD46F4
S2140011005DF8047B704700BF80B584B000AF7860A0
S21400111039607B68FB60FB681B69BB60FB689B688B
S214001120FA6852691A60FB685A69FB681A61FB68BC
S214001130BA685A613B68BA681A6002E001201CF07F
S214001140B9FCFB685B689B681B69FA6852681168A3
S214001150FA68926808461146002298470346002B14
S214001160ECD1FB68012283F83C20FB68203318464C
S2140011704FF0FF311BF02CFD1037BD4680BD00BF81
S21400118080B5A6B000AF786039603B685B685A6887
S21400119007F10C031146802218461DF04BFA364B19
S2140011A0C7F880303B68C7F884303B685B689B684C
S2140011B01B683A685268116807F10C020846114627
S2140011C098470346A7F89630B7F89630002B1ED0FF
S2140011D03B689B69002B13D0B7F89630002B0FD0D6
S2140011E0012387F88C30012387F88D30B7F89630C6
S2140011F0C7F890303B689B6907F18C021046984709
S214001200B7F89630002B02D0B7F896302FE03B6840
S2140012105B689B689B683A685268126810469847F5
S2140012200346A7F89630B7F89630002B1ED03B68DA
S2140012309B69002B13D0B7F89630002B0FD00123F4
S21400124087F88C30012387F88D30B7F89630C7F8CA
S21400125090303B689B6907F18C0210469847B7F8B8
S2140012609630002B02D0B7F8963000E000231846E0
S2140012709837BD4680BD00BF2514000080B584B0F9
S21400128000AF78600023FB607B685B689B68DB6868
S2140012907A68526812681046984703467B817B89B5
S2140012A040F2EE3293420CD101201CF003FCFB68A6
S2140012B00133FB60FB6841F28832934205D9142360
S2140012C025E000BF0023FB6000E0DDE77B685B688D
S2140012D09B685B687A6852681268104698470346AF
S2140012E07B817B8940F2EE3293420CD101201CF0C8
S2140012F0E1FBFB680133FB60FB6841F288329342F6
S21400130004D9142303E000BF002300E0DEE71846FC
S2140013101037BD4680BD00BF80B584B000AF786092
S214001320396078680AF030F87868396800F014F8A0
S21400133078683968FFF724FF0346FB81FB89002B9A
S21400134001D0FB8903E03A687B689A63002318465D
S2140013501037BD4680BD00BF80B487B000AF786050
S21400136039607B681B8A1BB2142B06D0162B04D060
S2140013700E2B05D102237B6105E001237B6102E091
S21400138001237B6100BF3B681B693B610023FB6058
S21400139008E03B6900221A603B6904333B61FB6846
S2140013A00133FB607B685B8A1BB27A68928A12B252
S2140013B002FB03F27B6992FBF3F2FB689A42E8DCDD
S2140013C03B685B693B610023BB6008E03B69002229
S2140013D01A603B6904333B61BB680133BB607B68C2
S2140013E05B8A1BB27A68928A12B202FB03F27B69AE
S2140013F092FBF3F2BB689A42E8DC1C37BD465DF808
S214001400047B704780B485B000AF78607B68FB6073
S214001410FB68B3F8483018461437BD465DF8047BC1
S214001420704700BF80B586B000AF78607B685B68A9
S2140014307B617B681B78032B11D17B6993F83C306A
S214001440002B09D07B692033184601211BF042FB94
S2140014507B69002283F83C2002237B7305E07B68CF
S2140014601B78012B01D103237B737B699B69002BBF
S21400147009D001233B7300233B617B699B6907F11D
S2140014800C02104698471837BD4680BD80B483B01E
S21400149000AF0346FB71084997F907305B09FA79F4
S2140014A002F01F02012000FA02F241F823200C3756
S2140014B0BD465DF8047B704700E100E080B483B071
S2140014C000AF0346FB71094997F907305B09FA79C3
S2140014D002F01F02012000FA02F2203341F8232016
S2140014E00C37BD465DF8047B704700BF00E100E0A6
S2140014F080B483B000AF7860044A7B6832F813305B
S21400150018460C37BD465DF8047B70470000FE1F8A
S21400151080B483B000AF7860044A7B6832F813303A
S21400152018460C37BD465DF8047B70471400FE1F56
S21400153080B483B000AF78600B46FB707B68092BE5
S21400154000F2C28001A252F823F000BF7515000019
S21400155097150000B9150000DB150000FD1500000A
S2140015601F160000411600006316000085160000D6
S214001570A7160000FB78012B01D10123A6E0FB781B
S214001580022B01D10223A1E0FB78002B01D100231E
S2140015909CE003239AE0FB78012B01D1062395E01B
S2140015A0FB78022B01D1062390E0FB78002B01D1BB
S2140015B006238BE0062389E0FB78012B01D1062366
S2140015C084E0FB78022B01D106237FE0FB78002B1A
S2140015D001D106237AE0062378E0FB78012B01D1BF
S2140015E0062373E0FB78022B01D106236EE0FB781E
S2140015F0002B01D1062369E0062367E0FB78012B68
S21400160001D1062362E0FB78022B01D106235DE0C0
S214001610FB78002B01D1062358E0062356E0FB7822
S214001620012B01D1062351E0FB78022B01D10623C2
S2140016304CE0FB78002B01D1062347E0062345E06B
S214001640FB78012B01D1062340E0FB78022B01D169
S21400165006233BE0FB78002B01D1062336E0062369
S21400166034E0FB78012B01D106232FE0FB78022B18
S21400167001D106232AE0FB78002B01D1062325E0C2
S214001680062323E0FB78012B01D106231EE0FB781E
S214001690022B01D1062319E0FB78002B01D106238B
S2140016A014E0062312E0FB78012B01D106230DE09F
S2140016B0FB78022B01D1062308E0FB78002B01D132
S2140016C0062303E0062301E000BF06235BB21846AC
S2140016D00C37BD465DF8047B704700BF80B584B00C
S2140016E000AF78600B46FB701346BB70BB78002BD0
S2140016F004D0A64BFB600123FB7203E0A44BFB6007
S2140017000023FB72FB78032B00F23C8101A252F807
S21400171023F000BFFF1800008F1800001B18000001
S2140017202517000078680121FFF702FF03461A46D6
S214001730FB681046984778680221FFF7F9FE0346D3
S2140017401A46FB681046984778680021FFF7F0FEB7
S21400175003461A46FB681046984778680421FFF748
S214001760E7FE03461A46FB68104698477B6803F177
S214001770007303F560535B019B78DBB2BB727B683A
S21400178003F1007303F560535B019B78DBB2BB7219
S2140017907B6803F1007303F560535B019B78DBB253
S2140017A0BB727B6803F1007303F560535B01FA7A42
S2140017B002F00102D2B2D0019A7802F07F021146FE
S2140017C002460A439A707B6803F1007303F5605380
S2140017D05B01FA7A02F00102D2B202F00102900036
S2140017E09A7822F00402114602460A439A707B68F1
S2140017F003F1007303F560535B01FA7A02F001020D
S214001800D2B202F0010290019A7822F0400211460C
S21400181002460A439A70BB7AB5E078680221FFF761
S21400182087FE03461A46FB68104698477B6803F116
S214001830007303F560535B019B78DBB2BB727B6879
S21400184003F1007303F560535B019B78DBB2BB7258
S2140018507B6803F1007303F560535B019B78DBB292
S214001860BB727B6803F1007303F560535B01FA7A81
S21400187002F00102D2B202F0010290009A7822F041
S2140018800402114602460A439A70BB7A7BE07868E7
S2140018900121FFF74DFE03461A46FB68104698479F
S2140018A07B6803F1007303F560535B019B78DBB242
S2140018B0BB727B6803F1007303F560535B019B7892
S2140018C0DBB2BB727B6803F1007303F560535B0108
S2140018D09B78DBB2BB727B6803F1007303F5605341
S2140018E05B01FA7A02F00102D2B2D0019A7802F0D5
S2140018F07F02114602460A439A70BB7A43E0786834
S2140019000021FFF715FE03461A46FB681046984767
S21400191078680421FFF70CFE03461A46FB6810465B
S21400192098477B6803F1007303F560535B019B786F
S214001930DBB2BB727B6803F1007303F560535B0197
S2140019409B78DBB2BB727B6803F1007303F56053D0
S2140019505B019B78DBB2BB727B6803F1007303F517
S21400196060535B01FA7A02F00102D2B202F0010281
S21400197090019A7822F04002114602460A439A7075
S214001980BB7A00E000BF1037BD4680BD8D14000056
S214001990BD14000080B483B000AF78607B6803F1AC
S2140019A0007303F560535B011A467B6803F100730E
S2140019B003F560535B019B78DBB243F03003DBB288
S2140019C093700C37BD465DF8047B704780B483B0D7
S2140019D000AF78607B6803F1007303F560535B012A
S2140019E01A467B6803F1007303F560535B019B782E
S2140019F0DBB223F03003DBB293700C37BD465DF8E4
S214001A00047B704780B483B000AF78607B6803F1D6
S214001A10007303F560535B019A8A22F001029A82F2
S214001A200C37BD465DF8047B704700BF80B483B0BA
S214001A3000AF78600B46FB7000BF7B6803F1007355
S214001A4003F560535B011B79DBB2DB09DBB2002BCD
S214001A50F3D07B6803F1007303F560535B011A460D
S214001A60FB78D3700C37BD465DF8047B704700BF2B
S214001A7080B483B000AF78607B6803F1007303F531
S214001A8060535B015B79DBB218460C37BD465DF8E8
S214001A90047B704780B582B000AF7860012008F004
S214001AA029FC0949084B1A687B68C3F11F031846CE
S214001AB001238340DB4313400B60012008F0DAFB70
S214001AC00837BD4680BD00BF0070044080B582B0B8
S214001AD000AF7860012008F00DFC0849074B1B6832
S214001AE07A68C2F11F0210460122824013430B603F
S214001AF0012008F0BFFB0837BD4680BD00700440DB
S214001B0080B483B000AF78607B6803F1007303F5A0
S214001B1060535B019A7822F003029A700C37BD4638
S214001B205DF8047B704700BF80B483B000AF786078
S214001B300B46FB701346BB707B6803F1007303F51E
S214001B4060535B011A46FB7853707B6803F10073A1
S214001B5003F560535B01BA7802F00302D2B202F0DA
S214001B6003001A7822F00302114602460A431A704E
S214001B700C37BD465DF8047B704700BF80B483B069
S214001B8000AF78607B6803F1007303F560535B0178
S214001B901B79DBB25B0903F00103DBB218460C3796
S214001BA0BD465DF8047B704780B483B000AF7860B4
S214001BB07B6803F1007303F560535B011B79DBB2AE
S214001BC01B0903F00103DBB218460C37BD465DF86F
S214001BD0047B704780B483B000AF78607B6803F105
S214001BE0007303F560535B011B79DBB2DB0803F07F
S214001BF00103DBB218460C37BD465DF8047B704720
S214001C0080B483B000AF78600B46FB70FB78002B87
S214001C100AD07B6803F1007303F560535B019A7981
S214001C2042F008029A7109E07B6803F1007303F53D
S214001C3060535B019A7922F008029A710C37BD4610
S214001C405DF8047B704700BF80B483B000AF786057
S214001C507B6803F1007303F560535B019A7922F009
S214001C6001029A717B6803F1007303F560535B0110
S214001C705A7A22F001025A727B6803F1007303F568
S214001C8060535B011A7862F07F021A707B6803F17A
S214001C90007303F560535B015A7B22F001025A730E
S214001CA00C37BD465DF8047B704700BF80B483B038
S214001CB000AF78600B46FB707B6803F1007303F59A
S214001CC060535B011A46FB7853730C37BD465DF8CC
S214001CD0047B704780B483B000AF78607B6803F104
S214001CE0007303F560535B015A7B22F010025A73AF
S214001CF00C37BD465DF8047B704700BF80B483B0E8
S214001D0000AF78607B6803F1007303F560535B01F6
S214001D105B7BDBB21B0903F00103DBB218460C3712
S214001D20BD465DF8047B704780B483B000AF786032
S214001D307B6803F1007303F560535B015B7BDBB2EA
S214001D409B0803F00103DBB283F00103DBB2184605
S214001D500C37BD465DF8047B704700BF80B483B087
S214001D6000AF78607B6803F1007303F560535B0196
S214001D70033318460C37BD465DF8047B704700BF3A
S214001D8080B483B000AF78607B6803F1007303F51E
S214001D9060535B01053318460C37BD465DF8047B7F
S214001DA0704700BF80B584B000AF7860396000230C
S214001DB0BB810023BB603B68002B01D10123E5E01B
S214001DC07B68002B01D10123E0E03B681B681846C6
S214001DD000F006FF0346BB81BB89002B01D0BB8900
S214001DE0D4E03B681B68BB606A4ABB681B011344AF
S214001DF01B78002B01D00823C8E06749BA68134651
S214001E009B0013449B000B449B78002B01D00823B7
S214001E10BCE0B86800F0AEFE0346BB81BB89002B71
S214001E2001D00A23B2E0386800F092FD0346BB8179
S214001E30BB89002B01D0BB89A8E0B868FFF72AFE53
S214001E40B86803210022FFF749FCB868FFF7DAFDFF
S214001E50B868FFF7F9FE3B68DB68B86819460322E6
S214001E6000F00AFD0346002B04D0B86800F0A2FE7E
S214001E7001238BE0B868FFF743FE0023FB733B6843
S214001E801B79012B03D1FB7B43F00403FB733B68F8
S214001E90DB79002B03D1FB7B43F01003FB733B681D
S214001EA05B79012B08D13B689B79002B14D1FB7B17
S214001EB043F04003FB730FE03B685B79002B0BD1CC
S214001EC0FB7B63F07F03FB733B689B79012B03D19D
S214001ED0FB7B43F04003FB73FB7BB8681946FFF7B8
S214001EE0E5FE3B681B7A002B03D1B8680121FFF79B
S214001EF087FE284ABB681B01134403221A70264932
S214001F00BA6813469B0013449B000B4401229A7048
S214001F103B6899692048BA6813469B0013449B00A7
S214001F200344083359603B68D9691B48BA681346AE
S214001F309B0013449B00034410331960BB68D8B25F
S214001F401549BA6813469B0013449B000B4402468F
S214001F501A70BB68DAB27B681A700F49BA68134603
S214001F609B0013449B000B449A787B689A703B68EE
S214001F705A697B689A603B681A697B685A60054AAA
S214001F80BB681B0113447A685A60BB891846103731
S214001F90BD4680BDDC1603205C08FE1F80B588B0F9
S214001FA002AFF860B9607A60FB70FB68002B01D165
S214001FB001231CE0FB78012B01D0012317E07B688E
S214001FC0002B01D1012312E0FB681B780A2B01D9F4
S214001FD004230CE0FB78009302230193F8680021A9
S214001FE0BA687B6800F066F80346FB82FB8A1846F0
S214001FF01837BD4680BD00BF80B588B002AFF86018
S214002000B9607A60FB70FB68002B01D101231CE0ED
S214002010FB78012B01D0012317E07B68002B01D150
S214002020012312E0FB681B780A2B01D904230CE07D
S214002030FB78009301230193F868B96800227B6857
S21400204000F038F80346FB82FB8A18461837BD4670
S21400205080BD00BF80B588B002AFF860B9607A6016
S2140020603B60FB68002B01D101231EE097F820306F
S214002070012B01D0012318E03B68002B01D101237E
S21400208013E0FB681B780A2B01D904230DE097F8B0
S2140020902030009303230193F868B9687A683B6898
S2140020A000F008F80346FB82FB8A18461837BD4640
S2140020B080BD00BF90B589B000AFF860B9607A60A7
S2140020C03B60FB681B787B777A7F914913469B00C1
S2140020D013449B000B449B7883F00103DBB2002B78
S2140020E001D0072310E17A7F13465B001344DB0020
S2140020F01033884A13440533184608F047F8034659
S214002100002B01D00A23FFE07B7F18460321002224
S214002110FFF7E4FA7A7F7F4913465B001344DB003F
S2140021200B4408333A685A607A7F7A4913465B0054
S2140021301344DB000B44083300221A807A7F75496B
S21400214013465B001344DB000B44083300225A801E
S2140021507A7F704913465B001344DB000B44103350
S21400216097F830201A707A7F6A4913465B0013444A
S214002170DB000B44BA681A607A7F664913465B0038
S2140021801344DB000B447A685A607A7F6149134631
S2140021905B001344DB000B44103397F83420DA70EE
S2140021A00023FB8397F8343003F00103002B0AD09A
S2140021B07A7F584913465B001344DB000B44103308
S2140021C001229A7009E07A7F524913465B00134455
S2140021D0DB000B44103300229A707A7F4D49134679
S2140021E05B001344DB000B44103300225A707B7FE5
S2140021F01846FFF76FFD7B7F184600F0E1FDFB6891
S2140022005B68002B21D097F83430012B03D097F869
S2140022103430032B19D1FB681B781846FFF79EFD58
S214002220B861FB685B689B685C68FB685B681A68FB
S2140022303B689BB21046B968BA69A0470346FB8361
S214002240FB8B002B01D0FB8B5EE0FB689B68002BB2
S2140022503DD097F83430022B03D097F83430032B58
S21400226035D1FB681B781846FFF78AFD7861FB6856
S2140022709B689B685C68FB689B681A683B689BB2B7
S214002280104679697A68A0470346FB83FB8B002BD0
S21400229001D0FB8B38E097F83430022B17D1FB685F
S2140022A05B68002B13D0FB685B689B685C68FB6808
S2140022B05B681A683B689BB2104600210022A04764
S2140022C00346FB83FB8B002B01D0FB8B1CE07B7F44
S2140022D0184600210122FFF701FA7B7F18460121EC
S2140022E00122FFF7FBF97B7F1846FFF753FBFB68DD
S2140022F05B68002B03D1FB689B68002B03D07B7FB9
S2140023001846FFF7B5FBFB8B18462437BD4690BD35
S2140023105C08FE1F2409FE1F80B584B000AF7860FD
S2140023207B68002B01D1012354E07B681B780A2BC5
S21400233001D904234EE07B681B78FB73FA7B2749A0
S21400234013469B0013449B000B449B7883F00103C9
S214002350DBB2002B01D007233CE0FB7B18460321B1
S2140023600022FFF7BBF9FA7B1C4913469B00134477
S2140023709B000B4400229A70FB7B194A1B011344F6
S21400238000221A70FB7B164A1B01134400225A7067
S214002390FB7B134A1B01134400225A60FB7B104A46
S2140023A01B011344083300221A60FB7B1846FFF714
S2140023B08DFBFA7B13465B001344DB001033094A9F
S2140023C013440533184607F013FFFB7B184600F04E
S2140023D0F1FB002318461037BD4680BD5C08FE1F83
S2140023E0DC1603202409FE1F80B483B000AF78609B
S2140023F07B6801225A707B6801221A707B68012272
S214002400DA707B6801229A70002318460C37BD46A6
S2140024105DF8047B704700BF80B58CB000AF786075
S2140024200B46FB70B5497A6813465B001344DB0025
S2140024300B441B68FB62B1497A6813465B00134481
S214002440DB000B445B68BB62AC497A6813465B00F2
S2140024501344DB000B4410331B7887F82730A84A58
S2140024607B681B0113445B683B623B6A9B68002BDE
S21400247040F04A813B6A5B68002B40F04581FB7860
S214002480012B25D17868FFF7F3FA034618469B49D7
S2140024907A6813465B001344DB000B441033024695
S2140024A01A717868FFF740FC0346002B0AD193495F
S2140024B07A6813465B001344DB000B4408331B8822
S2140024C0002B29D0786801210022FFF707F923E0C6
S2140024D07868FFF7CDFA0346184688497A681346A7
S2140024E05B001344DB000B44103302461A71834929
S2140024F07A6813465B001344DB000B4408335B88A2
S214002500013398B27D497A6813465B001344DB00BA
S2140025100B44083302465A8078497A6813465B00B3
S2140025201344DB000B4408331B88FB8373497A682B
S21400253013465B001344DB000B4408335B88BB8305
S2140025406E497A6813465B001344DB000B44103375
S2140025501B79BB61F98B69487A6813465B001344A4
S214002560DB00034408335B68994230D263497A68DB
S21400257013465B001344DB000B4410339B78002BA0
S2140025800CD097F82730012B0CD1FB8BFA6A13443A
S2140025901B7878681946FFF749FA03E07868FF2148
S2140025A0FFF744FA55497A6813465B001344DB008C
S2140025B00B4408331B88013398B250497A68134697
S2140025C05B001344DB000B44083302461A804B4979
S2140025D07A6813465B001344DB000B4410335B78C9
S2140025E0002B0AD097F82730012B06D1BB8B013B76
S2140025F0BA6A1344BA69D2B21A70B98B3F487A687D
S21400260013465B001344DB00034408335B689942BF
S21400261046D17868FFF7DAF9786803210022FFF7D9
S2140026205DF838497A6813469B0013449B000B44B8
S21400263008335B68002B27D07B68FB6001233B7464
S21400264030497A6813469B0013449B000B441033B2
S2140026501B687B612B497A6813469B0013449B00DA
S2140026600B4408335B6807F10C02104698477868FD
S21400267000210022FFF732F8786801210022FFF7D8
S2140026802DF87868FFF7A2F97A6813465B001344C2
S214002690DB001033194A13440533184607F0A8FD2B
S2140026A0FB78012B28D115497A6813465B00134442
S2140026B0DB000B441033DB7803F00203002B1BD047
S2140026C07868FFF731FB0346002B0AD10B497A687E
S2140026D013465B001344DB000B4408331B88012BB6
S2140026E00AD906497A6813465B001344DB000B449C
S2140026F0103301225A7060E05FE000BF2409FE1F1D
S214002700DC1603205C08FE1FFB78012B09D17868D5
S21400271001210022FEF7E2FF786802210122FEF77F
S214002720DDFFFB78022B48D13B6A5B685B681B6861
S214002730DB899BB2002B40D17868FFF747F97868B1
S21400274003210022FEF7CAFF7B68FB6001233B746F
S2140027501B497A6813469B0013449B000B441033B6
S2140027601B687B6116497A6813469B0013449B00DE
S2140027700B4408335B6807F10C02104698477868EC
S21400278000210022FEF7AAFF786801210022FEF74A
S214002790A5FF786802210022FEF7A0FF7868FFF701
S2140027A015F97A6813465B001344DB001033054ABC
S2140027B013440533184607F01BFD3037BD4680BD71
S2140027C05C08FE1F2409FE1F80B586B000AF786047
S2140027D027497A6813469B0013449B000B44083332
S2140027E05B68002B31D07B68FB607868FFF7C6F922
S2140027F00346002B02D006233B7419E07868FFF7E7
S214002800E9F90346002B02D005233B7410E07868F4
S214002810FFF774FA0346002B02D003233B7407E04D
S2140028207868FFF7C1F90346002B01D007233B74F5
S2140028300F497A6813469B0013449B000B440833E9
S2140028405B6807F10C02104698477A6813465B00EF
S2140028501344DB001033074A13440533184607F0C9
S214002860C7FC786800F0A6F91837BD4680BD00BFE3
S2140028705C08FE1F2409FE1F80B58CB000AFF86010
S214002880B9601346FB710023FB62FF237B620023C3
S2140028903B620023FB762C4B5B6907F11402002099
S2140028A01146984703467B857B8D002B01D001237C
S2140028B045E0BB68002B01D1012340E0FB79032BE8
S2140028C001D001233BE0FB680A2B01D9012336E047
S2140028D01E4BFB6101237B850023FB622BE079699D
S2140028E0FA6A13465B0013445B001A46FB691344FE
S2140028F01B881A46BB6803FB02F3B1FBF3F33B628B
S2140029003B6A002B14D03B6AFF2B11D83B6A013B75
S2140029107B62FB6ADBB2FB767B6ADAB2FB7EDBB2FB
S214002920F86811461A46FFF7FFF800237B8505E096
S214002930FB6A0133FB62FB6A032BD0D97B8D1846FA
S2140029403037BD4680BD00BF44F0010060EF010097
S214002950B0B590B000AF78600023FB877B685B69FA
S214002960002B73D07B685B699B68002B01D1012329
S214002970DFE07B685B691B68002B01D10123D8E090
S2140029807B685B695B68002B01D10123D1E07B6823
S2140029905B695B681B68002B01D10123C9E07B687B
S2140029A01B6818460021FEF7C3FD034687F83D3036
S2140029B097F93D30062B01D10123BAE07B685B69AD
S2140029C05B681B68BB63BA6BD3786FF38713D370EF
S2140029D0BA6B9378022161F383039370BA6BD37852
S2140029E06FF38303D370BA6B93786FF345139370CA
S2140029F0BA6BD3786FF30513D3707B685B695B683B
S214002A0007F11C041D460FCD0FC42B6823607B689E
S214002A101B681846FEF76CFD03463B84002387F8C8
S214002A20223000237B627B685B699B681B687A6840
S214002A305269116807F11C0208461146984703467A
S214002A40FB87FB8F002B01D0FB8F72E07B681B6936
S214002A50002B6DD07B681B699B68002B01D101237E
S214002A6067E07B681B691B68002B01D1012360E0CF
S214002A707B681B695B68002B01D1012359E07B68EA
S214002A801B695B681B68002B01D1012351E07B6842
S214002A901B6818460121FEF74BFD034687F83730C2
S214002AA097F93730062B01D1012342E07B681B697A
S214002AB05B681B683B633A6BD3786FF38713D370FE
S214002AC03A6B93786FF3830393703A6BD378022153
S214002AD061F38303D3703A6B93786FF34513937067
S214002AE03A6BD3786FF30513D3707B681B695B680A
S214002AF007F108041D460FCD0FC42B6823607B68C2
S214002B001B681846FEF704FD0346BB810023BB7313
S214002B1000233B617B681B699B681B687A681269A7
S214002B20116807F108020846114698470346FB87D6
S214002B30FB8F18464037BD46B0BD00BF80B483B09B
S214002B4000AF78607B6803F1007303F560535B01A8
S214002B501A467B6803F1007303F560535B011B792B
S214002B60DBB223F03803DBB213710C37BD465DF8D9
S214002B70047B704780B582B000AF78607B68092B15
S214002B8007D1102007F040FB0346082B0DD10A237F
S214002B900CE07B68DBB20733DBB2184607F034FB89
S214002BA00346082B01D10A2300E000231846083705
S214002BB0BD4680BD80B582B000AF78607B68092BCB
S214002BC003D1102007F032FB06E07B68DBB2073348
S214002BD0DBB2184607F02AFB0837BD4680BD00BFAB
S214002BE080B483B000AF78607B68092B01D90423DA
S214002BF000E0002318460C37BD465DF8047B70479E
S214002C0080B582B000AF78600A4A7B681B01134427
S214002C101B78012B0AD0074A7B681B0113441B78DC
S214002C20032B03D178680121FFF7F6FB0837BD4672
S214002C3080BD00BFDC16032080B582B000AF786090
S214002C400D4A7B681B0113441B78012B11D00A4ADE
S214002C507B681B0113441B78042B0AD0064A7B684A
S214002C601B0113441B78032B03D178680221FFF75E
S214002C70D3FB0837BD4680BDDC16032080B582B086
S214002C8000AF78600A4A7B681B0113441B78012B4F
S214002C900AD0074A7B681B0113441B78032B03D119
S214002CA078680021FFF7B8FB0837BD4680BD00BF37
S214002CB0DC16032080B582B000AF78600B4A7B68D4
S214002CC01B0113441B78012B09D0084A7B681B01A3
S214002CD013441B78032B02D17868FFF775FD7868DC
S214002CE0FFF72CFF0837BD4680BD00BFDC1603206B
S214002CF080B582B000AF01201AF08AF80020FFF7F6
S214002D007FFF012007F0E8F9054BD3F804337B601A
S214002D107B6801201AF07AF80837BD4680BD00BFF0
S214002D200060004080B582B000AF01201AF070F855
S214002D300020FFF7A3FF002007F0CEF9054BD3F8DD
S214002D4000337B607B6801201AF060F80837BD46C8
S214002D5080BD00BF0060004080B582B000AF01209B
S214002D601AF056F80020FFF7A5FF032007F0B4F985
S214002D70054BD3F80C337B607B6801201AF046F8CD
S214002D800837BD4680BD00BF0060004080B582B0F9
S214002D9000AF01201AF03CF80020FFF74DFF02209C
S214002DA007F09AF9054BD3F808337B607B6801205F
S214002DB01AF02CF80837BD4680BD00BF0060004002
S214002DC080B582B000AF78607B68092B20D801A25E
S214002DD052F823F0FD2D0000112E0000112E0000E9
S214002DE0112E0000112E0000112E0000112E0000E2
S214002DF0112E0000112E0000112E0000012007F0F9
S214002E006BF9002007F068F9032007F065F900E089
S214002E1000BF0837BD4680BD80B483B000AF786081
S214002E200B467B807B881B0A9BB2DBB25A017B6811
S214002E30134418460C37BD465DF8047B704700BF48
S214002E4080B483B000AF78600B467B807B881B0A1B
S214002E509BB2DBB21A017B88DBB213449A007B6814
S214002E60134418460C37BD465DF8047B704700BF18
S214002E7080B485B000AF03460A46FB711346BB71AB
S214002E80BB79012B10D1134B1B78FB73FB79DB430B
S214002E90DAB2FB7B1340FB73FB7B03F03003FB7360
S214002EA00C4AFB7B137010E0BB79002B0DD1094B4D
S214002EB01B78FB73FA7BFB791343FB73FB7B03F0F6
S214002EC03003FB73034AFB7B13701437BD465DF873
S214002ED0047B7047000D044080B584B000AF034605
S214002EE00A46FB8013467B710023FB810023BB81CF
S214002EF0FB8823F0FF037B817B79012B05D1FB88C0
S214002F00012202FA03F3FB8104E0FB88012202FAA5
S214002F1003F3BB817989FA89BB89084611461A46AC
S214002F2000F004F81037BD4680BD00BF80B584B001
S214002F3000AF0346FB800B46BB8013467B80FB88B6
S214002F4006481946FFF768FFF8607B881A04BB88B6
S214002F501A43FB681A601037BD4680BD080004405F
S214002F6080B586B000AF0346FB80FB880A4819464A
S214002F70FFF752FF78617B691B683B613B691B0C5E
S214002F803B613B699BB23B613B69FB81FB89184611
S214002F901837BD4680BD00BF0400044080B584B02D
S214002FA000AF0346FB800B46BB8013467B80FB8846
S214002FB008481946FFF730FFF860FB680433FB60EB
S214002FC07B881A04BB881A43FB681A601037BD4614
S214002FD080BD00BF0800044080B584B000AF034643
S214002FE0FB80FB88184600F0EFF8F860FB6803F0FB
S214002FF00203002B01D0012300E0002318461037FF
S214003000BD4680BD80B586B000AF0346FB80FB881A
S21400301008481946FFF700FF78617B691B683B612B
S2140030203B699BB23B613B69FB81FB8918461837BD
S214003030BD4680BD0400044080B584B000AF0346A2
S214003040FB80FB8808481946FFF7E6FEF860FB6839
S2140030501B68BB60BB689BB2BB60BB689BB2184674
S2140030601037BD4680BD00BF0000044080B584B068
S21400307000AF03460A46FB8013467B71FB88184662
S21400308000F0A2F8F8607B79002B04D1FB6823F0EF
S2140030900403FB6003E0FB6843F00403FB60FA688C
S2140030A0054B1340FB60FB881846F96800F0A0F853
S2140030B01037BD4680BD00BFD5FC011F80B584B06B
S2140030C000AF03460A46FB801346BB80FB880B48CE
S2140030D01946FFF7A1FEF860FB681B68BB60BB687B
S2140030E01B0C1B04BB60BB88BA681343BB60FB6841
S2140030F0BA681A601037BD4680BD00BF00000440A5
S21400310080B400AF034B00221A80BD465DF8047BF6
S214003110704700BF140AFE1F80B485B000AFEFF3FF
S2140031201083BB60BB68FB6072B60E4B1B889BB2FD
S214003130002B05D10C4B0022DA700B4B4022DA70C4
S214003140084B1B889BB201339AB2064B1A80FB6869
S2140031507B607B6883F310881437BD465DF8047B7C
S214003160704700BF140AFE1F000D044080B485B0EF
S21400317000AFEFF31083BB60BB68FB6072B6104B0A
S2140031801B889BB2002B06D00D4B1B889BB2013BC5
S2140031909AB20B4B1A800A4B1B889BB2002B05D1A8
S2140031A0084B0022DA70074B8022DA70FB687B60DF
S2140031B07B6883F310881437BD465DF8047B704740
S2140031C0140AFE1F000D044080B584B000AF03460D
S2140031D0FB80FB8805481946FFF732FEF860FB685F
S2140031E01B6818461037BD4680BD00BF0008044067
S2140031F080B586B000AF03463960FB80FB88134875
S2140032001946FFF71DFE7861FFF786FF7B691B688E
S2140032103B613B6803F48033002B0FD03B69FB60B7
S214003220FB6823F48033FB607B69FA681A603B68AE
S21400323023F48033FB607B69FA681A607B693A681E
S2140032401A60FFF793FF1837BD4680BD000804409C
S21400325080B584B000AF78607B68002B01D1012375
S21400326020E0786807F092F87B68BB600023FB815B
S21400327012E0BB685A68FB89DB0013449988BB6878
S2140032805A68FB89DB0013441B6808461946FFF79B
S214003290AFFFFB890133FB81BB681B88FA899A4222
S2140032A0E7D3002318461037BD4680BD80B586B0EC
S2140032B000AF03463960FB80FB8840F60732934236
S2140032C001D9032313E0FB88BB813B68BB60012365
S2140032D03B8207F108037B6107F11003184607F0ED
S2140032E055F8FB8818463968FFF782FF0023184612
S2140032F01837BD4680BD00BF80B582B000AF03461C
S2140033003960FB80FB8840F60732934201D90323DD
S2140033100DE03B68002B01D1012308E0FB8818462E
S214003320FFF75AFE03461A463B681A7000231846F3
S2140033300837BD4680BD00BF80B582B000AF0346EB
S2140033403960FB80FB88B3F5306F01D903230DE0AD
S2140033503B68002B01D1012308E0FB881846FFF7E5
S21400336051FE03461A463B681A8000231846083763
S214003370BD4680BD80B584B000AF0346FB800B46DB
S214003380BB8013467B807B88002B01D1032319E08A
S214003390FB88B3F5306F01D9032313E0BA887B8826
S2140033A01340FB81BB88DB439AB27B8813409BB2F9
S2140033B0BB81F988FA89BB89084611461A46FFF789
S2140033C0B5FD002318461037BD4680BD80B582B0D7
S2140033D000AF03460A46FB8013467B717B79012BC0
S2140033E001D903230DE0FB8840F60732934201D94A
S2140033F0032306E0FA887B7910461946FFF76CFD32
S214003400002318460837BD4680BD00BF80B584B08F
S21400341000AF0346FB800B46BB8013467B807B8851
S214003420002B01D1032329E0FB88B3F5306F01D9C7
S214003430032323E0FB881846FFF7FEFD0346FB81C7
S214003440BA887B881340BB81BB88DB439AB27B88F3
S21400345013409BB27B81FB893B813A89BB8913432E
S2140034603B817B89DB439AB23B8913403B81FA88D8
S2140034703B8910461946FFF721FE002318461037F1
S214003480BD4680BD80B582B000AF03460A46FB80CD
S21400349013467B717B79002B04D07B79012B01D0FE
S2140034A003230DE0FB8840F60732934201D903233D
S2140034B006E0FA887B7910461946FFF7D7FD002309
S2140034C018460837BD4680BD80B582B000AF0346BB
S2140034D03960FB80FB88B3F5306F01D903230DE01C
S2140034E03B68002B01D1012308E0FB881846FFF754
S2140034F037FD03461A463B681A80002318460837ED
S214003500BD4680BD80B584B000AF03463960FB8001
S214003510FB8840F60732934201D9032327E03B6835
S214003520002B01D1012322E0FB88FB81FB8923F0DD
S214003530FF03FB81FB89BB81BB891846FFF710FDA3
S21400354003467B81FB88DBB2012202FA03F33B8150
S2140035507A893B8913409BB23A899A4203D13B68E9
S21400356001221A7002E03B6800221A7000231846F7
S2140035701037BD4680BD00BF80B584B000AF03469F
S214003580FB800B46BB8013467B80FB88B3F5306F11
S21400359001D9032318E07B88002B01D1032313E015
S2140035A0BA887B881340FB81BB88DB439AB27B8852
S2140035B013409BB2BB81F988FA89BB89084611463D
S2140035C01A46FFF7EBFC002318461037BD4680BDB1
S2140035D080B584B000AF03460A46FB8013467B7175
S2140035E0FB8840F60732934201D903232CE07B790F
S2140035F0012B04D07B79002B01D0032324E0FB8829
S2140036007B817B8923F0FF037B817B893B810023C1
S214003610FB810023BB817B79012B06D1FB88DBB2C3
S214003620012202FA03F3FB8105E0FB88DBB20122EC
S21400363002FA03F3BB813989FA89BB890846114629
S2140036401A46FFF7ABFC002318461037BD4680BD70
S21400365080B483B000AF78607B6801225A707B68C4
S21400366001221A707B680122DA707B6801229A7048
S214003670002318460C37BD465DF8047B704700BF34
S21400368080B582B000AF03460A46FB711346BB7195
S214003690FB79202B01D903230BE0BB79012B01D941
S2140036A0032306E0FA79BB7910461946FFF7E0FBDC
S2140036B0002318460837BD4680BD00BF80B483B0DF
S2140036C000AF0346FB71084997F907305B09FA79A2
S2140036D002F01F02012000FA02F241F823200C3704
S2140036E0BD465DF8047B704700E100E080B483B01F
S2140036F000AF0346FB71094997F907305B09FA7971
S21400370002F01F02012000FA02F2203341F82320C3
S2140037100C37BD465DF8047B704700BF00E100E053
S21400372080B500AF012006F0E5FD054A044B5B6856
S21400373023F010035360012006F09CFD80BD00BFFF
S2140037400070044080B500AF012006F0D3FD054AA6
S214003750044B5B6843F010035360012006F08AFDBB
S21400376080BD00BF0070044080B400AF054B03F579
S21400377080531A6842F480321A60BD465DF8047BB6
S214003780704700BF00000E4080B400AF054B03F545
S21400379080531A6822F480321A60BD465DF8047BB6
S2140037A0704700BF00000E4080B485B000AFF860E0
S2140037B0B9607A60FB68002B05D10949BB687A6856
S2140037C041F8232006E00649BB6803F500737A68D3
S2140037D041F823201437BD465DF8047B704700BFD0
S2140037E000000E4080B485B000AFF860B9607A6023
S2140037F0FB68002B07D10A49BB6803F580737A681B
S21400380041F8232006E00649BB6803F540737A6852
S21400381041F823201437BD465DF8047B704700BF8F
S21400382000000E4080B400AF084B03F580531A68C2
S21400383042F480721A60054B03F580531A6842F012
S21400384001021A60BD465DF8047B704700000E401A
S21400385080B400AF054B03F580531A6822F00102CE
S2140038601A60BD465DF8047B704700BF00000E403E
S21400387080B400AF084B03F580531B681B0A03F0A7
S2140038800103DBB2002B14BF01230023DBB2184672
S214003890BD465DF8047B704700000E4080B400AF64
S2140038A0084B03F5805318331B6803F00103DBB2A3
S2140038B0002B14BF01230023DBB21846BD465DF87B
S2140038C0047B704700000E4080B400AF054B03F544
S2140038D09F5304331A886FF308221A80BD465DF89A
S2140038E0047B704700000E4080B400AF054B03F524
S2140038F09F5304331A8842F480721A80BD465DF8DE
S214003900047B704700000E4080B400AF114B03F5F7
S2140039109F5304331A886FF386121A800D4B03F5F3
S2140039209F5304331A886FF345121A80094B03F528
S2140039309F5304331A886FF304121A80054B03F55D
S2140039409F5304331A886FF3C3021A80BD465DF88E
S214003950047B704700000E4080B400AF114B03F5A7
S2140039609F5304331A8842F040021A800D4B03F529
S2140039709F5304331A8842F020021A80094B03F53D
S2140039809F5304331A8842F010021A80054B03F541
S2140039909F5304331A8842F008021A80BD465DF829
S2140039A0047B704700000E4080B400AF054B03F563
S2140039B09F5304331A886FF30C321A80BD465DF8A5
S2140039C0047B704700000E4080B400AF054B03F543
S2140039D09F5304331A8842F480521A80BD465DF81D
S2140039E0047B704700000E4080B400AF054B03F523
S2140039F09E5304331A6842F080521A60BD465DF842
S214003A00047B704700000E4080B400AF054B03F502
S214003A109E5304331A6822F080521A60BD465DF841
S214003A20047B704700000E4080B400AF054B03F5E2
S214003A309E5304331A6842F080721A60BD465DF8E1
S214003A40047B704700000E4080B400AF054B03F5C2
S214003A509E5304331A6822F080721A60BD465DF8E1
S214003A60047B704700000E4080B483B000AF03466E
S214003A70FB710A49FB7903F00303DAB201F59E53A2
S214003A80043302F003021203196821F440510A437A
S214003A901A600C37BD465DF8047B704700000E4088
S214003AA080B400AF054B03F59E5304331A6822F426
S214003AB040721A60BD465DF8047B704700000E40F9
S214003AC080B400AF064B03F59E5304331A6822F405
S214003AD0407242F400721A60BD465DF8047B70477F
S214003AE000000E4080B483B000AF0346FB80084A57
S214003AF0FB88C3F3090399B202F59E5308331A886C
S214003B0061F309021A800C37BD465DF8047B7047E6
S214003B1000000E4080B483B000AF0346FB800B4924
S214003B20FB88C3F309039AB201F59E530C33C2F324
S214003B30090211041A6822F07F7222F440320A4306
S214003B401A600C37BD465DF8047B704700000E40D7
S214003B5080B483B000AF0346FB800B49FB88C3F3F9
S214003B6009039AB201F59E530C33C2F309011A6891
S214003B7022F47F7222F003020A431A600C37BD4615
S214003B805DF8047B704700BF00000E4080B483B031
S214003B9000AF0346FB80094BFA88D2B203F59E536A
S214003BA01033D2B21204196821F47F010A431A6056
S214003BB00C37BD465DF8047B704700BF00000E4022
S214003BC080B483B000AF0346FB80094BFA88D2B2BC
S214003BD003F59E531033D2B21202196821F47F41C6
S214003BE00A431A600C37BD465DF8047B704700BF79
S214003BF000000E4080B483B000AF0346FB80084B45
S214003C00FA88D2B203F59E531033D2B2196821F067
S214003C10FF010A431A600C37BD465DF8047B704707
S214003C2000000E4080B483B000AF0346FB710A4923
S214003C30FB7903F00303DAB201F59E53143302F066
S214003C4003021205196821F440110A431A600C3762
S214003C50BD465DF8047B704700000E4080B483B01C
S214003C6000AF0346FB710A49FB7903F00303DAB29F
S214003C7001F59E53143302F003021204196821F46E
S214003C8040310A431A600C37BD465DF8047B704726
S214003C9000000E4080B483B000AF0346FB710A49B3
S214003CA0FB7903F00303DAB201F59E53143302F0F6
S214003CB003021203196821F440510A431A600C37B4
S214003CC0BD465DF8047B704700000E4080B483B0AC
S214003CD000AF0346FB710A49FB7903F00303DAB22F
S214003CE001F59E53143302F003021202196821F400
S214003CF040710A431A600C37BD465DF8047B704776
S214003D0000000E4080B483B000AF0346FB710A4942
S214003D10FB7903F00303DAB201F59E53143302F085
S214003D2003021201196821F030010A431A600C37A9
S214003D30BD465DF8047B704700000E4080B483B03B
S214003D4000AF0346FB710A49FB7903F00303DAB2BE
S214003D5001F59E53143302F00302196821F00301A3
S214003D600A431A600C37BD465DF8047B704700BFF7
S214003D7000000E4080B400AF054B03F59E5213784A
S214003D8043F001031370BD465DF8047B704700BF27
S214003D9000000E4080B400AF084B03F59E531B682E
S214003DA003F00103DBB2002B14BF01230023DBB2B8
S214003DB01846BD465DF8047B704700BF00000E4005
S214003DC080B483B000AF78600B4B7A6892B2C2F3CF
S214003DD00A0292B203F5A0530433C2F30A011A682A
S214003DE022F4FF6222F007020A431A600C37BD462F
S214003DF05DF8047B704700BF00000E4080B483B0BF
S214003E0000AF0346FB800B49FB88C3F30A039AB254
S214003E1001F5A0531833C2F30A0211041A6822F0FF
S214003E20FF6222F4E0220A431A600C37BD465DF8B2
S214003E30047B704700000E4080B483B000AF03469A
S214003E40FB800B49FB88C3F30A039AB201F5A05323
S214003E501833C2F30A011A6822F4FF6222F007023E
S214003E600A431A600C37BD465DF8047B704700BFF6
S214003E7000000E4080B483B000AF0346FB800B4AC0
S214003E80FB88C3F30A039BB202F5A152C3F30A03ED
S214003E901904136823F0FF6323F4E0230B43136035
S214003EA00C37BD465DF8047B704700BF00000E402F
S214003EB080B483B000AF0346FB800A4AFB88C3F396
S214003EC00A039BB202F5A152C3F30A01136823F456
S214003ED0FF6323F007030B4313600C37BD465DF802
S214003EE0047B704700000E4080B483B000AF0346EA
S214003EF0FB800B49FB88C3F30A039AB201F5A05373
S214003F000833C2F30A0211041A6822F0FF6222F490
S214003F10E0220A431A600C37BD465DF8047B704702
S214003F2000000E4080B483B000AF0346FB800B4910
S214003F30FB88C3F30A039AB201F5A0530833C2F311
S214003F400A011A6822F4FF6222F007020A431A6086
S214003F500C37BD465DF8047B704700BF00000E407E
S214003F6080B483B000AF0346FB800B49FB88C3F3E5
S214003F700A039AB201F5A0531033C2F30A021104E1
S214003F801A6822F0FF6222F4E0220A431A600C3715
S214003F90BD465DF8047B704700000E4080B483B0D9
S214003FA000AF0346FB800B49FB88C3F30A039AB2B3
S214003FB001F5A0531033C2F30A011A6822F4FF6217
S214003FC022F007020A431A600C37BD465DF8047BF0
S214003FD0704700BF00000E4080B400AF054B03F5ED
S214003FE0A0530C331A786FF304121A70BD465DF8AE
S214003FF0047B704700000E4080B400AF054B03F50D
S214004000A0530C331A7842F010021A70BD465DF8C1
S214004010047B704700000E4080B483B000AF0346B8
S214004020FB71084AFB7903F00703D9B202F5A053E7
S2140040300C331A7861F302021A700C37BD465DF82D
S214004040047B704700000E4080B483B000AF034688
S214004050FB71084AFB7903F00703D9B202F5A053B7
S21400406014331A7861F302021A700C37BD465DF8F5
S214004070047B704700000E4080B400AF054B03F58C
S214004080A0531C331A886FF304121A80BD465DF8DD
S214004090047B704700000E4080B400AF054B03F56C
S2140040A0A0531C331A8842F010021A80BD465DF8F1
S2140040B0047B704700000E4080B483B000AF034618
S2140040C0FB71084AFB7903F00703D9B202F5A05347
S2140040D01C331A8861F302021A800C37BD465DF85D
S2140040E0047B704700000E4080B483B000AF0346E8
S2140040F0FB71084AFB7903F00703D9B202F5A15316
S21400410004331A8861F302021A800C37BD465DF844
S214004110047B704700000E4080B400AF054B03F5EB
S214004120A15308331A786FF300021A70BD465DF883
S214004130047B704700000E4080B400AF054B03F5CB
S214004140A15308331A7842F001021A70BD465DF892
S214004150047B704700000E4080B483B000AF034677
S214004160FB800B49FB88C3F30A039AB201F5805320
S2140041700433C2F30A011A6822F4FF6222F007022F
S2140041800A431A600C37BD465DF8047B704700BFD3
S21400419000000E4080B483B000AF0346FB800B499E
S2140041A0FB88C3F30A039AB201F580530433C2F3C3
S2140041B00A0211041A6822F0FF6222F4E0220A437F
S2140041C01A600C37BD465DF8047B704700000E4051
S2140041D080B483B000AF0346FB800A4BFA88D2B2A5
S2140041E002F00F02D2B203F58053083302F00F023A
S2140041F0196821F00F010A431A600C37BD465DF8B6
S214004200047B704700000E4080B483B000AF0346C6
S214004210FB800B4BFA88D2B202F00F02D2B203F543
S2140042208053083302F00F021204196821F470213B
S2140042300A431A600C37BD465DF8047B704700BF22
S21400424000000E4080B483B000AF0346FB800B49ED
S214004250FB88C3F30A039AB201F580531033C2F306
S2140042600A0211041A6822F0FF6222F4E0220A43CE
S2140042701A600C37BD465DF8047B704700000E40A0
S21400428080B483B000AF0346FB800B49FB88C3F3C2
S2140042900A039AB201F580531033C2F30A011A6872
S2140042A022F4FF6222F007020A431A600C37BD466A
S2140042B05DF8047B704700BF00000E4080B483B0FA
S2140042C000AF0346FB800B49FB88C3F30A039AB290
S2140042D001F580530C33C2F30A0211041A6822F067
S2140042E0FF6222F4E0220A431A600C37BD465DF8EE
S2140042F0047B704700000E4080B483B000AF0346D6
S214004300FB800B49FB88C3F30A039AB201F580537E
S2140043100C33C2F30A011A6822F4FF6222F0070285
S2140043200A431A600C37BD465DF8047B704700BF31
S21400433000000E4080B483B000AF7860134B3A792B
S21400434003F580531433D2B2196821F0FF010A43F3
S2140043501A600E4B7A7903F580531433D2B21202E8
S214004360196821F47F410A431A60084BBA7903F5AD
S21400437080531433D2B21204196821F47F010A4321
S2140043801A600C37BD465DF8047B704700000E408F
S21400439080B483B000AF78603960074A7B681B0240
S2140043A0134403F5885308333A685A600C37BD4601
S2140043B05DF8047B704700BF00000E4080B483B0F9
S2140043C000AF7860396009493B689AB27B681B0287
S2140043D00B4403F5885310331204196889B20A4354
S2140043E01A600C37BD465DF8047B704700000E402F
S2140043F080B483B000AF786039600D493B689BB2EB
S214004400C3F309039AB27B681B020B4403F5885377
S2140044101033C2F309011A6822F47F7222F00302F5
S2140044200A431A600C37BD465DF8047B704700BF30
S21400443000000E4080B483B000AF786039600C494D
S2140044403B6823F07F43C3F309027B681B020B44DF
S21400445003F58853103322F07F42596801F07F41FC
S2140044600A435A600C37BD465DF8047B704700BFB0
S21400447000000E4080B483B000AF786039600D490C
S2140044803B689BB2C3F30A039AB27B681B020B44D9
S21400449003F588531833C2F30A0211041A6822F08F
S2140044A0FF6222F4E0220A431A600C37BD465DF82C
S2140044B0047B704700000E4080B483B000AF786085
S2140044C039600A4A3B6899B27B681B02134403F5BD
S2140044D08853183389B21A68120C12040A431A60F9
S2140044E00C37BD465DF8047B704700BF00000E40E9
S2140044F080B483B000AF78600B46FB700B49FB7846
S21400450003F00703DAB27B681B020B4403F58853FB
S214004510183302F007021207596821F0E0410A43F7
S2140045205A600C37BD465DF8047B704700000E40AD
S21400453080B483B000AF7860064A7B6811331B02F4
S2140045401A44137943F0010313710C37BD465DF826
S214004550047B704700000E4080B483B000AF7860E4
S214004560064A7B6811331B021A4413796FF3000363
S21400457013710C37BD465DF8047B704700000E4093
S21400458080B483B000AF78603960184A79787B6869
S2140045901B02134403F58A530833CAB21202596841
S2140045A021F47F410A435A60104A39787B681B021F
S2140045B0134403F58A530833CAB21204596821F427
S2140045C07F010A435A60094AB9787B681B02134484
S2140045D003F58A530833CAB2596821F0FF010A432B
S2140045E05A600C37BD465DF8047B704700000E40ED
S2140045F080B483B000AF78600B4B7A6892B2C2F397
S2140046000A0292B203F592531033C2F30A011A68F3
S21400461022F4FF6222F007020A431A600C37BD46F6
S2140046205DF8047B704700BF00000E4080B483B086
S21400463000AF78600A4A7B681B02134403F58A536E
S21400464010335B6803F00103DBB2002B14BF0123B9
S2140046500023DBB218460C37BD465DF8047B704776
S21400466000000E4080B483B000AF786039600A4A1C
S2140046703B68DBB203F00303D9B27B681B0213442A
S21400468003F58952138861F3010313800C37BD4686
S2140046905DF8047B704700BF00000E4080B483B016
S2140046A000AF7860074A7B681B02134403F5895203
S2140046B0138843F4805313800C37BD465DF8047BA3
S2140046C0704700BF00000E4080B483B000AF786033
S2140046D039600D493B689BB2C3F30A039BB27A6804
S2140046E012020A4402F58952C3F30A0319045368F6
S2140046F023F0FF6323F4E0230B4353600C37BD46DF
S2140047005DF8047B704700BF00000E4080B483B0A5
S21400471000AF786039600C493B689BB2C3F30A036C
S2140047209BB27A6812020A4402F58952C3F30A0160
S214004730536823F4FF6323F007030B4353600C37DF
S214004740BD465DF8047B704700000E4080B483B021
S21400475000AF786039600D493B689BB2C3F30A032B
S2140047609AB27B681B020B4403F589530833C2F3E5
S2140047700A0211041A6822F0FF6222F4E0220A43B9
S2140047801A600C37BD465DF8047B704700000E408B
S21400479080B483B000AF786039600D493B689BB247
S2140047A0C3F30A039AB27B681B020B4403F58953D2
S2140047B00833C2F30A011A6822F4FF6222F00702E5
S2140047C00A431A600C37BD465DF8047B704700BF8D
S2140047D000000E4080B483B000AF786039600D49A9
S2140047E03B689BB2C3F30A039AB27B681B020B4476
S2140047F003F589530833C2F30A0211045A6822F0FB
S214004800FF6222F4E0220A435A600C37BD465DF888
S214004810047B704700000E4080B483B000AF786021
S21400482039600D493B689BB2C3F30A039AB27B68B2
S2140048301B020B4403F589530833C2F30A015A6876
S21400484022F4FF6222F007020A435A600C37BD4684
S2140048505DF8047B704700BF00000E4080B483B054
S21400486000AF786039600D493B689BB2C3F30A031A
S2140048709AB27B681B020B4403F589531033C2F3CC
S2140048800A0211041A6822F0FF6222F4E0220A43A8
S2140048901A600C37BD465DF8047B704700000E407A
S2140048A080B483B000AF786039600D493B689BB236
S2140048B0C3F30A039AB27B681B020B4403F58953C1
S2140048C01033C2F30A011A6822F4FF6222F00702CC
S2140048D00A431A600C37BD465DF8047B704700BF7C
S2140048E000000E4080B483B000AF786039600D4998
S2140048F03B689BB2C3F308039AB27B681B020B4467
S21400490003F589531033C2F3080211045A6822F0E3
S214004910FF7222F480320A435A600C37BD465DF8B7
S214004920047B704700000E4080B483B000AF786010
S21400493039600A4A3B68D9B27B681B02134403F508
S21400494089531033CAB2596821F0FF010A435A60EE
S2140049500C37BD465DF8047B704700BF00000E4074
S21400496080B483B000AF786039600A4A3B68D9B239
S2140049707B681B02134403F589531833CAB212042A
S214004980196821F47F010A431A600C37BD465DF8AA
S214004990047B704700000E4080B483B000AF7860A0
S2140049A00B4A7B681B02134403F58A5310331B68BB
S2140049B01B0C03F00103DBB2002B14BF0123002302
S2140049C0DBB218460C37BD465DF8047B704700BF67
S2140049D000000E4080B483B000AF7860074A7B6862
S2140049E01B02134403F58A5310331A6822F48032EC
S2140049F01A600C37BD465DF8047B704700000E4019
S214004A0080B483B000AF7860074A7B681B0213440B
S214004A1003F58A5310331A6842F480321A600C3752
S214004A20BD465DF8047B704700000E4080B483B03E
S214004A3000AF7860064A7B6811331B021A4413786D
S214004A4043F0010313700C37BD465DF8047B7047D6
S214004A5000000E4080B483B000AF7860094A7B68DF
S214004A6011331B0213441B6803F00103DBB2002B57
S214004A7014BF01230023DBB218460C37BD465DF891
S214004A80047B704700000E4080B483B000AF03463E
S214004A90FB710A49FB7903F03F03DAB201F5A25332
S214004AA0103302F03F02196821F03F010A431A60F2
S214004AB00C37BD465DF8047B704700BF00000E4013
S214004AC080B400AF054B03F5A25310331A6842F0CA
S214004AD040021A60BD465DF8047B704700000E4039
S214004AE080B400AF054B03F5A25310331A6842F4A6
S214004AF080721A60BD465DF8047B704700000E4069
S214004B0080B400AF054B03F5A25310331A6822F4A5
S214004B1080721A60BD465DF8047B704700000E4048
S214004B2080B400AF054B03F5A25310331A6822F485
S214004B3080521A60BD465DF8047B704700000E4048
S214004B4080B400AF054B03F5A25310331A6842F445
S214004B5080521A60BD465DF8047B704700000E4028
S214004B6080B400AF054B03F5A252137843F001035F
S214004B701370BD465DF8047B704700BF00000E4012
S214004B8080B400AF054B03F5A25213786FF3000311
S214004B901370BD465DF8047B704700BF00000E40F2
S214004BA080B400AF054B03F5A252137843F002031E
S214004BB01370BD465DF8047B704700BF00000E40D2
S214004BC080B400AF054B03F5A25213786FF3410390
S214004BD01370BD465DF8047B704700BF00000E40B2
S214004BE080B400AF054B03F5A252137843F00403DC
S214004BF01370BD465DF8047B704700BF00000E4092
S214004C0080B400AF054B03F5A25213786FF382030E
S214004C101370BD465DF8047B704700BF00000E4071
S214004C2080B400AF054B03F5A25304331A7842F064
S214004C3001021A70BD465DF8047B704700000E4006
S214004C4080B400AF054B03F5A25304331A7842F044
S214004C5002021A70BD465DF8047B704700000E40E5
S214004C6080B400AF054B03F5A25304331A7842F024
S214004C7004021A70BD465DF8047B704700000E40C3
S214004C8080B400AF054B03F5A25304331A786FF3D4
S214004C9000021A70BD465DF8047B704700000E40A7
S214004CA080B400AF054B03F5A25304331A786FF3B4
S214004CB041021A70BD465DF8047B704700000E4046
S214004CC080B400AF054B03F5A25304331A786FF394
S214004CD082021A70BD465DF8047B704700000E40E5
S214004CE080B400AF054B03F5A25308331A7842F0A0
S214004CF001021A70BD465DF8047B704700000E4046
S214004D0080B400AF054B03F5A25308331A7842F07F
S214004D1002021A70BD465DF8047B704700000E4024
S214004D2080B400AF054B03F59852137843F00103A7
S214004D301370BD465DF8047B704700BF00000E4050
S214004D4080B400AF054B03F59A52137843F0010385
S214004D501370BD465DF8047B704700BF00000E4030
S214004D6080B400AF054B03F59C52137843F0010363
S214004D701370BD465DF8047B704700BF00000E4010
S214004D8080B400AF054B03F5985304331A7842F00D
S214004D9001021A70BD465DF8047B704700000E40A5
S214004DA080B400AF054B03F59A5304331A7842F0EB
S214004DB001021A70BD465DF8047B704700000E4085
S214004DC080B400AF054B03F59C5304331A7842F0C9
S214004DD001021A70BD465DF8047B704700000E4065
S214004DE080B400AF054B03F5985304331A786FF37D
S214004DF000021A70BD465DF8047B704700000E4046
S214004E0080B400AF054B03F59A5304331A786FF35A
S214004E1000021A70BD465DF8047B704700000E4025
S214004E2080B400AF054B03F59C5304331A786FF338
S214004E3000021A70BD465DF8047B704700000E4005
S214004E4080B483B000AF03463960FB710C49FA7931
S214004E503B689BB2C3F30A039BB202F2C242C3F39F
S214004E600A03180451F8223023F0FF6323F4E023EA
S214004E70034341F822300C37BD465DF8047B70478B
S214004E8000000E4080B483B000AF03463960FB716B
S214004E900C49FA793B689BB2C3F30A039BB202F251
S214004EA0C242C3F30A0051F8223023F4FF6323F012
S214004EB00703034341F822300C37BD465DF8047BF8
S214004EC0704700BF00000E4080B483B000AF0346BA
S214004ED03960FB710C49FA793B689BB2C3F30A034D
S214004EE09BB202F2D242C3F30A03180451F82230EE
S214004EF023F0FF6323F4E023034341F822300C370A
S214004F00BD465DF8047B704700000E4080B483B059
S214004F1000AF03463960FB710C49FA793B689BB2D7
S214004F20C3F30A039BB202F2D242C3F30A0051F85B
S214004F30223023F4FF6323F00703034341F82230B3
S214004F400C37BD465DF8047B704700BF00000E407E
S214004F5080B483B000AF03463960FB710C49FA7920
S214004F603B689BB2C3F30A039BB202F2E242C3F36E
S214004F700A03180451F8223023F0FF6323F4E023D9
S214004F80034341F822300C37BD465DF8047B70477A
S214004F9000000E4080B483B000AF03463960FB715A
S214004FA00C49FA793B689BB2C3F30A039BB202F240
S214004FB0E242C3F30A0051F8223023F4FF6323F0E1
S214004FC00703034341F822300C37BD465DF8047BE7
S214004FD0704700BF00000E4080B483B000AF0346A9
S214004FE03960FB710C49FA793B689BB2C3F309033D
S214004FF09BB202F2CA42C3F30903180551F82230E5
S21400500023F07F5323F44013034341F822300C3738
S214005010BD465DF8047B704700000E4080B483B048
S21400502000AF03463960FB710C49FA793B689BB2C6
S214005030C3F309039BB202F2CA42C3F30903980200
S21400504051F8223023F47F2323F44063034341F8CE
S21400505022300C37BD465DF8047B704700000E40DA
S21400506080B483B000AF03463960FB710C49FA790F
S2140050703B689BB2C3F309039BB202F2CA42C3F376
S214005080090051F8223023F47F7323F0030303430F
S21400509041F822300C37BD465DF8047B704700BFF0
S2140050A000000E4080B483B000AF03463960FB7149
S2140050B00C49FA793B689BB2C3F309039BB202F230
S2140050C0DA42C3F30903180551F8223023F07F5360
S2140050D023F44013034341F822300C37BD465DF8F5
S2140050E0047B704700000E4080B483B000AF0346D8
S2140050F03960FB710C49FA793B689BB2C3F309032C
S2140051009BB202F2DA42C3F30903980251F8223046
S21400511023F47F2323F44063034341F822300C3703
S214005120BD465DF8047B704700000E4080B483B037
S21400513000AF03463960FB710C49FA793B689BB2B5
S214005140C3F309039BB202F2DA42C3F3090051F833
S214005150223023F47F7323F00303034341F8223005
S2140051600C37BD465DF8047B704700BF00000E405C
S21400517080B483B000AF03463960FB710C49FA79FE
S2140051803B689BB2C3F309039BB202F2EA42C3F345
S2140051900903180551F8223023F07F5323F44013F7
S2140051A0034341F822300C37BD465DF8047B704758
S2140051B000000E4080B483B000AF03463960FB7138
S2140051C00C49FA793B689BB2C3F309039BB202F21F
S2140051D0EA42C3F30903980251F8223023F47F23EE
S2140051E023F44063034341F822300C37BD465DF894
S2140051F0047B704700000E4080B483B000AF0346C7
S2140052003960FB710C49FA793B689BB2C3F309031A
S2140052109BB202F2EA42C3F3090051F8223023F4AB
S2140052207F7323F00303034341F822300C37BD4657
S2140052305DF8047B704700BF00000E4080B584B068
S21400524000AF7860396000237B817B68002B01D13A
S214005250012395E0386800F065FD03467B817B8975
S214005260002B01D07B898BE03E2004F0CDFF034667
S214005270082B01D10A2383E07B6800221A70FEF710
S2140052804FFAFEF771FA386800F094FD386800F0BF
S214005290BFFD386800F0D6FE3B689B8D9AB23A4B4D
S2140052A01A803B68DB8E9AB2374B5A803B685A8D21
S2140052B0354B9A803B689A8E334BDA800023FB602E
S2140052C019E0FA6813469B0013449B003A68D1180D
S2140052D0FA6813465B0013449B0058333A6813443D
S2140052E01A1DFB68DBB2084611461A4601F04EF856
S2140052F0FB680133FB60FB68012BE2D9386801F0DC
S21400530023F93B6848337868194601F0B3F93B68DF
S21400531050337868194601F0DFF93B685B6D002B67
S21400532002D0386801F00AFA7B6801221A703B68DE
S2140053305A6F7B685A603B689A6F7B689A60124A1D
S2140053407B68D3603B68DA8E3B689B8E13449BB2C7
S21400535001339BB21846FFF74BF9FFF701FCFFF746
S2140053601FFCFFF73DFCFFF75BFCFFF769FCFFF750
S21400537077FC0420FEF7A2F90520FEF79FF97B894B
S21400538018461037BD4680BD180AFE1F80B584B08B
S21400539000AF78600023FB817B68002B01D10123DE
S2140053A02DE07B681B78002B01D1072327E0FEF752
S2140053B075FA034683F00103DBB2002B02D140F2FC
S2140053C0EE331CE00420FEF791F90520FEF78EF977
S2140053D0FFF7D6FBFFF7F4FBFFF712FCFFF750FCD6
S2140053E0FFF75EFCFFF76CFCFEF7CEF9FEF7AAF9B6
S2140053F07B6800221A703E2004F018FFFB891846CE
S2140054001037BD4680BD00BF80B584B000AF786061
S2140054100023FB817B68002B01D101230BE07B6816
S2140054201B78012B01D0052305E0FEF7FBF97B680E
S21400543002221A70FB8918461037BD4680BD00BF91
S21400544080B584B000AF78600023FB817B68002BBA
S21400545001D1012339E07B681B78022B01D005239C
S21400546033E00020FFF7F6FA034683F00103DBB2D1
S214005470002B02D140F2EE3327E00120FFF7EAFAD4
S214005480034683F00103DBB2002B02D140F2EE3379
S2140054901BE0FEF77FFC034683F00103DBB2002B24
S2140054A002D140F2EE3310E0FEF7E2F9034683F055
S2140054B00103DBB2002B02D140F2EE3305E0FEF72B
S2140054C0C7F97B6801221A70FB8918461037BD465B
S2140054D080BD00BF80B584B000AFF860B9601346E9
S2140054E0FB71FB68002B01D1012339E0BB68002B60
S2140054F001D1012334E0FB681B78022B01D0052381
S2140055002EE0FB79002B04D0FB79012B01D003237E
S21400551026E0FB791846FFF79DFA034683F0010361
S214005520DBB2002B02D140F2EE3319E0FEF7A0F911
S214005530034683F00103DBB2002B02D140F2EE33C8
S2140055400EE0B968BB6803F11402FB790846114601
S2140055501A4600F01BFFFB791846FFF767FA002390
S21400556018461037BD4680BD80B582B000AF786063
S21400557039607B68002B01D101232EE03B68002BAD
S21400558001D1012329E07B681B78022B01D005237B
S21400559023E0FEF7FFFB034683F00103DBB2002B9C
S2140055A002D140F2EE3318E0FEF762F9034683F0CC
S2140055B00103DBB2002B02D140F2EE330DE03B6874
S2140055C07868194601F056F83B680833786819463B
S2140055D001F082F8FEF7CEFB002318460837BD46DA
S2140055E080BD00BF80B588B000AFF860B9601346D4
S2140055F0FB71FB68002B01D101235AE0BB68002B2E
S21400560001D1012355E0BB689B88FF2B02D940F2ED
S214005610EF334EE0BB68DB88B3F5807F02D940F2FB
S214005620EF3346E0FB79012B02D940F2EF3340E03E
S214005630BB681B68BB61FB791846FFF7ADF90346EC
S214005640002B02D00123FB7701E00023FB77BB6829
S2140056509B887B611AE0FB7F002B0AD1F979BB6936
S2140056601A1DBA611B68084679691A46FEF7BAF829
S21400567009E0F979BB691A1DBA611B6808467969A1
S2140056801A46FEF791F87B6901337B61BB68DB88BD
S2140056901A467B699A42DED8FB7F002B04D1FB7941
S2140056A01846FFF7ADF903E0FB791846FFF792F9C5
S2140056B0002318462037BD4680BD00BF80B584B0A5
S2140056C000AF786039607B68002B01D101232FE0A2
S2140056D03B68002B01D101232AE07B681A783B68DF
S2140056E01A700023FB601FE0F868FFF7B3F9034663
S2140056F0002B05D03A68FB68134402225A7010E06B
S214005700F868FEF793FF0346002B05D03A68FB685F
S214005710134401225A7004E03A68FB6813440022DE
S2140057205A70FB680133FB60FB68012BDCD9002351
S21400573018461037BD4680BD80B483B000AF786091
S2140057407B6801221A707B6801225A707B680122EE
S2140057509A707B680122DA70002318460C37BD4623
S2140057605DF8047B704700BF80B483B000AF7860FC
S2140057707B681B8D172B0AD97B681B8DB3F5806F52
S21400578005D800BF7B685B8E132B0ED902E040F273
S214005790E933A2E07B685B8EB3F5806F05D800BF67
S2140057A07B685B8D0F2B0ED902E040F2E93394E064
S2140057B07B685B8DB3F57E7F05D800BF7B689B8ECC
S2140057C00F2B0ED902E040F2E93386E07B689B8E11
S2140057D0B3F57F7F05D800BF7B689B8D042B0FD960
S2140057E002E040F2E93378E07B689B8D40F2ED32D0
S2140057F0934205D800BF7B68DB8E012B10D902E0F0
S21400580040F2E93369E07B68DB8E40F2EE32934289
S21400581006D800BF7B68DB8DB3F5806F06D302E049
S21400582040F2E93359E040F2E93356E07B681B8FDB
S214005830B3F5806F02D340F2E9334EE07B689B8D70
S214005840042B01D8032348E07B68DB8E012B01D8AC
S214005850032342E07B681B8D1A467B689B8D1946A6
S2140058607B685B8D0B4403339A4202DA40F2E933DD
S21400587033E07B685B8E1A467B68DB8E19467B6856
S2140058809B8E0B4402339A4202DA40F2E93324E05C
S2140058907B6893F83030002B06D07B6893F8303066
S2140058A0012B01D0032318E07B6893F83A30002BD5
S2140058B006D07B6893F83A30012B01D003230CE026
S2140058C07B6893F83F30002B06D07B6893F83F3018
S2140058D0012B01D0032300E0002318460C37BD46F9
S2140058E05DF8047B704700BF90B585B000AF786068
S2140058F00023FB6002E17968FA6813469B001344B4
S2140059009B000B441B68002B00F0F5807968FA6852
S21400591013469B0013449B000B441B6803F03F0395
S214005920002B02D040F2EB33EDE07968FA681346BC
S2140059309B0013449B000B4408331C687968FA6884
S21400594013469B0013449B000B4408331B791846F0
S21400595001F04CF8034603FB04F3DB0803F03F03B7
S214005960002B02D040F2EB33CDE07968FA6813469C
S2140059709B0013449B000B4408331B79072B02D96A
S21400598040F2ED33BFE07968FA6813469B00134493
S2140059909B000B44DB887B817968FA6813469B0082
S2140059A013449B000B4408339B79002B0CD079687A
S2140059B0FA6813469B0013449B000B4410331B8865
S2140059C07A8912FB03F37B817B89B3F57F7F02D94B
S2140059D040F2EA3397E07968FA6813469B0013446E
S2140059E09B000B449B8803F001039BB2002B02D064
S2140059F040F2EA3387E07968FA6813469B0013445E
S214005A009B000B4408331C687968FA6813469B00B1
S214005A1013449B000B4408331B79184600F0E6FF3E
S214005A20034603FB04F3B3F1022F02D340F2EA333A
S214005A3069E07968FA6813465B0013449B000B44E0
S214005A4058339B881BB2002B11DB7B685B8D184696
S214005A507968FA6813465B0013449B000B4458337E
S214005A609B881BB2984215DA40F2EA334BE07B681B
S214005A705B8D18467968FA6813465B0013449B00F2
S214005A800B4458339B881BB25B42984202DA40F2C2
S214005A90EA3338E07968FA6813465B0013449B00E3
S214005AA00B445833DB881BB2002B11DB7B689B8EC4
S214005AB018467968FA6813465B0013449B000B444B
S214005AC05833DB881BB2984215DA40F2EA331AE004
S214005AD07B689B8E18467968FA6813465B00134409
S214005AE09B000B445833DB881BB25B42984202DAB9
S214005AF040F2EA3307E0FB680133FB60FB68012BEA
S214005B007FF6F9AE002318461437BD4690BD00BF99
S214005B1080B489B000AF78607B685B6D002B00F0C6
S214005B20BE807B685B6D93F88430002B39D00023F1
S214005B30FB830023BB6131E07B685A6DBB69503341
S214005B405B001344DB88B3F5806F02D34FF47B739E
S214005B50A6E07B685A6DBB6950335B001344DB8854
S214005B60FA8B9A4202D94FF47B7399E07B685A6DA0
S214005B70BB6950335B001344DB88FB837B685A6D3C
S214005B80BB6940335B001344DB88B3F5006F02D378
S214005B904FF47B7384E0BB690133BB61BB690F2B99
S214005BA0CADD7B685B6D93F84230002B39D000234A
S214005BB0FB8200233B6131E07B685A6D3B693033E2
S214005BC05B0013449B88B3F5806F02D34FF47B735E
S214005BD066E07B685A6D3B6930335B0013449B88F4
S214005BE0FA8A9A4202D94FF47B7359E07B685A6D61
S214005BF03B6930335B0013449B88FB827B685A6D9D
S214005C003B6920335B0013449B88B3F5006F02D3D7
S214005C104FF47B7344E03B6901333B613B690F2BD8
