S0120000554152545F496E7075742E7372656367
S1130000782DFE1F512D00005D2900004D2D0000AC
S11300104D2D00004D2D00004D2D0000000000006E
S11300200000000000000000000000004D2D000052
S11300304D2D000000000000CD3A0000A13B00005F
S1130040A91400006914000049150000FD14000003
S1130050000000000000000000000000000000009C
S1130060000000000000000000000000000000008C
S1130070000000000000000000000000000000007C
S1130080000000000000000000000000000000006C
S1130400FFFFFFFFFFF9FFFFFCFFFFFFFFFFFFFF01
S1130410FCFFFFFFFFFFFFFFFCFFFF00FFFFFF00EC
S1130420FCFFFFFFFFFFFFFFFCFF7F40FFFF7F405C
S1130430FCFF7F40FFFF7F40FFFFFFFFFFFFFFFF49
S1130440FFFFFFFFFFFFFFFFFFFFFFFFFFFFFFFFB8
S1130450FFFFFFFFFFFFFFFFFFFFFFFFFFFFFFFFA8
S1130460FFFFFFFFFFFFFFFFFFFFFFFFFFFFFFFF98
S1130470FFFFFFFFFFFFFFFFFFFFFFFFFFFFFFFF88
S1130480FFFFFFFFFFFFFFFFFFFFFFFFFFFFFFFF78
S1130490FFFFFFFFFFFFFFFFFFFFFFFFFFFFFFFF68
S11304A0FFFFFFFFFFFFFFFFFFFFFFFFFFFFFFFF58
S11304B0FFFFFFFFFFFFFFFFFFFFFFFFFFFFFFFF48
S11304C0FFFFFFFFFFFFFFFFFFFFFFFFFFFFFFFF38
S11304D0FFFFFFFFFFFFFFFFFFFFFFFFFFFFFFFF28
S11304E0FFFFFFFFFFFFFFFFFFFFFFFFFFFFFFFF18
S11304F0FFFFFFFFFFFFFFFFFFFFFFFFFFFFFFFF08
S113050010B5054C237833B9044B13B10448AFF349
S113051000800123237010BDA808FE1F0000000006
S113052028910000084B10B51BB108480849AFF3E7
S113053000800848036803B910BD074B002BFBD0AB
S1130540BDE81040184700BF0000000028910000DB
S1130550AC08FE1F8C08FE1F0000000000F01F0105
S113056001234009024A8B4042F82030704700BF03
S113057000E100E04309203300F01F00012202499A
S1130580824041F82320704700E100E030B5436821
S1130590002283B005460C464A600A609BB19A6803
S11305A0186893696946984758B9A868009B6360BE
S11305B078B1836800689B696946984708B9009BCD
S11305C0236003B030BDA8684FF0FF334B600028B0
S11305D0EFD14FF0FF33236003B030BD0346012257
S11305E000201A709A705870D870704738B5044655
S11305F000680C4A0301D35C012B05D0002565611A
S113060000F0B0FE284638BD63681BB19A681868CC
S1130610D3699847A3681BB19A681868D369984747
S11306202068EBE7AC09FE1FAAB170B40468164B4E
S11306300E4604F1007101F56051490124018D79E0
S11306401B5D15F0100F14BF01240224012B04D0EC
S1130650002070BC70470020704740680028F7D025
S1130660B2FBF4F24FF6FF73934228BF134682683D
S11306700068022C546808BF10313246A44618BFE3
S113068011319BB270BC6047AC09FE1F00297CD1BC
S11306902DE9F04F504B514F5E6985B042F210780E
S11306A0154601900C468B46C1464FF0FF0A0020C8
S11306B003A9B0470BEB4B03002840F0898037F8BF
S11306C01330039ADFF814C105FB03F3B2FBF3FE06
S11306D00EF1FF31BEF1000F12D003FB0EF3520AEC
S11306E0FF2909FB02F24FEA532309D8B2FBF3F2C4
S11306F0A2F51C53103B434502DA98468A465C46F1
S11307000BF1010BBBF10D0FD1D142F210739845DF
S11307105ED0019B03F1007303F560535B0104EBAE
S113072044049A780CEB440C5FFA8AFA22F0030230
S11307309A7083F801A0DA799CF8021022F0400242
S113074001F0010142EA8112DA71DA799CF80310AE
S113075022F0100201F0010142EA0112DA71DA79A1
S11307609CF8041022F0080201F0010142EAC102DF
S1130770DA719CF805201C7802F0030124F00302CE
S11307800A431A7005B0BDE8F08F00F1007000F55F
S113079060504001FF234370C37923F04003C371C9
S11307A0C37923F00803C371037823F003030370B0
S11307B0837823F0030343F002038370C37902298F
S11307C00CBF43F0100323F01003C37100207047E3
S11307D0032005B0BDE8F08F888A000098890000E6
S11307E02DE9F04304684C4E230183B016F80390BE
S11307F0B9F1010F03D0002003B0BDE8F083002C51
S113080004F1007404F560544FEA4414054614BF1F
S11308100420012017468846FFF7ACFEA378DBB21C
S11308208DF80630A378DBB28DF80630A378DBB2FE
S11308308DF80630A37803F07F03A3702B689DF82E
S1130840062003F1007303F560535B019A7802F00C
S1130850DF029A702B6806EB031672780AB986F8E1
S1130860019003F1007303F560535B01A868DA8A11
S11308709A7912F0100F14BF01210221002847D0E9
S1130880012F45D97A1A02294244EA6029610CBF32
S113089003F10E0203F10F02B7FBF1F14FF6FF7300
S11308A04F1EBB42816800684C6828BF3B464146E6
S11308B09BB2A04700289FD12B6803F1007303F576
S11308C060535B019A7842F020029A702C68002CE5
S11308D014BF04200120FFF741FE04F1007303F567
S11308E060535B0100209A78D2B28DF807209A7881
S11308F0D2B28DF807209A78D2B28DF807209A7870
S113090062F07F029A709DF8073003B0BDE8F0836F
S1130910C5F80C802F61D5E7AC09FE1F70B50668D9
S113092082B004460D46002E7ED00420FFF722FE3E
S11309300420FFF71FFE0420FFF71CFE0420FFF72E
S113094019FE06F1007000F5605040018378DBB2B7
S11309508DF806308378DBB28DF806308378DBB20D
S11309608DF80630837803F07F038370837823F057
S113097004038370837823F04003837023689DF815
S1130980062003F1007303F560535B019A7802F0CB
S1130990DF029A70236803F1007303F560535B016F
S11309A09A7802F0EF029A70206800F1007303F560
S11309B060535B01997811F0030105D0DB7913F0E2
S11309C0100F14BF022103212A46FFF75FFE23689C
S11309D003F1007303F560535B0105469A7842F016
S11309E010029A70246854B30420FFF7B7FD042062
S11309F0FFF7B4FD04F1007000F560504001837806
S1130A00DBB28DF807308378DBB28DF8073083785A
S1130A10DBB28DF80730837843F0400383709DF890
S1130A200730284602B070BD0120FFF7A3FD022065
S1130A30FFF7A0FD3046FFF79DFD03207FE720462A
S1130A40FFF78CFD0320D3E72DE9F043064687B07A
S1130A500868D1F81C800C4600F0F8FC054620B16B
S1130A600A25284607B0BDE8F083D4F80CC02369F2
S1130A70B360C6F804C0BCF1000F00F07982DCF862
S1130A800470207A3B68D9789A784FF0020E65F3A7
S1130A9087116EF3830265F3830165F34512704594
S1130AA0D9709A7000F02082DA7865F30512DA7052
S1130AB00FCF0DF1040EAEE80F003B68CEF8003006
S1130AC02168C54ADCF8083032F811201B68DCF8CC
S1130AD00000ADF8082000228DF80A2001A99847EB
S1130AE0002840F0F481D4F810C0BCF1000F33D0DA
S1130AF0DCF80470207A3B68D9789A784FF0020EBB
S1130B0001F03F0102F0F3026EF383016FF345122B
S1130B107045D9709A7000F01A82DA786FF3051272
S1130B20DA700FCF0DF1040EAEE80F003B68CEF87B
S1130B3000302168A94ADCF8083032F811201B681B
S1130B40DCF80000ADF8082000228DF80A2001A985
S1130B509847002840F0BB810120276802F076F80E
S1130B609F4AC7F11F0713684FF0010909FA07F1FB
S1130B7023EA01031360484602F044F82768002F73
S1130B8000F0A7810420FFF7F5FC0420FFF7F2FC36
S1130B900420FFF7EFFC0420FFF7ECFC07F10073DF
S1130BA003F560535B019A78D2B28DF803209A78EA
S1130BB0D2B28DF803209A78D2B28DF803209A78B5
S1130BC002F07F029A709A7822F004029A709A785E
S1130BD022F040029A7023689DF8032003F1007309
S1130BE003F560535B019A7802F0EF029A70236870
S1130BF003F1007303F560535B019A7802F0DF029E
S1130C009A70236803F1007303F560535B019A8AB9
S1130C1022F001029A82236803F1007303F5605302
S1130C205B019A8A42F002029A82E368002B00F088
S1130C301182236803F1007303F560535B019A8A00
S1130C4022F470629A82236803F1007303F56053FF
S1130C505B019A8A6FEA02526FEA12529A82226800
S1130C6002F1007202F560525201938A43F00403C8
S1130C709382938A5907FCD42369002B00F09F8147
S1130C80236803F1007303F560535B019A8A22F031
S1130C90F0029A82B8F1000F00F02C8198F802302B
S1130CA0002B00F05A81236803F1007303F56053AD
S1130CB05B01DA7962F07F02DA7198F80330002B75
S1130CC000F02281236803F1007303F560535B0194
S1130CD00021DA7942F02002DA7119722368E76997
S1130CE003F1007303F560535B015A7A22F00102A9
S1130CF05A72236803F1007303F560535B015A7B56
S1130D0002F07F025A73236803F1007303F5605302
S1130D105B015A7B22F040025A73637A002B00F085
S1130D200081236803F1007303F560535B011A78B3
S1130D3042F020021A70637A012B236803F10073D6
S1130D4003F560534FEA43131A780CBF42F01002C4
S1130D5022F010021A70237A012B00F00B81022B6F
S1130D60236803F1007303F560534FEA43131A78C1
S1130D7022F040021A709A790CBF22F0100242F05D
S1130D8010029A71A37A012B236803F1007303F50F
S1130D9060534FEA43131A780CBF42F0080222F062
S1130DA008021A70E37A002B00F0C680236803F16E
S1130DB0007303F560535B015A7B42F002025A73DD
S1130DC0002F00F00781397861B102290AD0032984
S1130DD00CBF0321002105E084890000E88900009C
S1130DE00070044094E80500FFF750FC032800F06D
S1130DF0F9807B78002B40F0CC80236803F10073EA
S1130E0003F560535B019A78987802F0020120F0B0
S1130E1003020A439A70226802F1007202F56052DA
S1130E205201938A9B07FCD4938AC3F38003002B5B
S1130E30FAD1918A8E4F41F001019182226802F128
S1130E40007202F5605252014FF0010E918A21F0B6
S1130E50080191822268A069616932604FEA021830
S1130E6002F1007207EB080C02F56052B061716187
S1130E70F3603361520107F808E08CF80130CCF8D4
S1130E800460937843F0100393702468002C00F0FE
S1130E9091800420FFF762FB0420FFF75FFB04F15D
S1130EA0007303F560535B019A78D2B28DF8042085
S1130EB09A78D2B28DF804209A78D2B28DF80420B0
S1130EC09A7842F040029A709DF80430C9E50546CC
S1130ED0C7E54846FFF74EFB0220FFF74BFB3846B9
S1130EE0FFF748FB032057E6CAB2012161F305125C
S1130EF0DA70DDE5236803F1007303F560535B01E9
S1130F00DA7902F07F02DA71236803F1007303F5E2
S1130F1060535B010021DA7922F02002DA71197240
S1130F20DCE6236803F1007303F560535B011A7870
S1130F3022F020021A70FEE6236803F1007303F521
S1130F4060535B015A7B22F002025A7338E7CAB23B
S1130F50012161F30512DA70E3E5236803F10073FC
S1130F6003F560535B01DA7902F07F02DA71A4E6DB
S1130F709C46BAE5236803F1007303F560535B01F3
S1130F801A7842F040021A709A7942F010029A716B
S1130F90F8E6236803F1007303F560535B019A7864
S1130FA0987802F0030242F0010120F003020A43A0
S1130FB09A7030E72046FFF7D1FA03206DE72368E3
S1130FC003F1007303F560535B019A8A42F0F00267
S1130FD09A825FE6394694E80500FFF757FB032839
S1130FE07FF40BAF236803F1007303F560535B01D7
S1130FF09A78997802F0020221F003010A439A7068
S113100073681BB19A681868D3699847B3681BB1B1
S11310109A681868D3699847236803F1007303F545
S113102060535B010120DA7902F07F02DA712568EE
S113103001F00CFE0F4A01201368C5F11F0500FAE8
S113104005F10B43136001F0DDFD206800F008FAA0
S1131050032506E5236803F1007303F560535B0180
S11310609A8A22F4706242F400629A82EBE500BF2D
S1131070AC09FE1F00700440554B03EB0013F0B5A0
S11310805C682268A76800F1007502F1007202F53D
S1131090605305F560555B016D0183B0EE8A997963
S11310A011F0100FC6F3042E14BF01210221002FEA
S11310B05BD0BEF1000F0FD1E26816781A79D2091D
S11310C0FCD0B2B2DA812369E2685B1A114423616D
S11310D0E16023B103B0F0BD2369002BFAD168BBF2
S11310E00220FFF73BFAAB78DBB28DF80630AB7821
S11310F0DBB28DF80630AB78DBB28DF80630AB7816
S113110043F00403AB709DF806300120FFF732FA78
S1131110AB78DBB28DF80730AB78DBB28DF80730F3
S1131120AB78DBB28DF80730AB7803F07F03AB709C
S11311309DF807200023E36003B0F0BD0420FFF70F
S11311400DFAAB78DBB28DF80630AB78DBB28DF8F4
S11311500630AB78DBB28DF80630AB7843F004038D
S1131160AB709DF806300420D0E726694EB3CEF16B
S11311701006002E25DDE368012902F560520CBF3C
S113118093F800E0B3F800E052011379DB09FCD0D6
S11311905FFA8EF3D3812269E368521A0F440B4439
S11311A0BA4206F1FF362261E36004D91EB1226817
S11311B002F10072E0E7236803F1007303F5605362
S11311C05B011A7902F07F021A71236981E700BF7B
S11311D0AC09FE1F254B03EB00132DE9F04F5D68AE
S11311E095E8480000F1007403F1007303F56053BF
S11311F004F560545B01640185B0B4F816A09B79D2
S113120013F0100F83460AF01F0A14BF01270227A8
S113121076B16B694BB1AA69039200210122009057
S113122002918DF804206846984705B0BDE8F08F18
S1131230B1464FF0800800E00136B2456846F4D06C
S1131240238A69699BB2DBB20029F5D0AA69CDF87B
S113125000B002938DF8048003928847022FEBD1EB
S1131260CDF808906B6968469847E5E7AC09FE1F1E
S1131270F0B51A4E0401002806EB040387B00546B6
S113128014BF042002205F68FFF774F905F10073AE
S113129003F560535B019A78D2B28DF807209A78EF
S11312A0D2B28DF807209A78D2B28DF807209A78B6
S11312B022F004029A707B699DF807204BB1BA6949
S11312C0059200210222029504918DF80C2002A8B7
S11312D0984734440023637007B0F0BDAC09FE1F87
S11312E010B500F1007303F560535B0116491C8AC5
S11312F01A7901EB001122F0400249681A711A7937
S113130022F001021A711A79920684B0E4B20CD563
S113131020238DF804304B692BB18A690090039225
S113132002946846984704B010BD1A79D20607D5CE
S11313301B7FDB0754BF102308238DF80430EAE732
S113134004238DF80430E6E7AC09FE1F430920337B
S113135000F01F0001220249824041F82320704717
S113136000E100E030B5044683B000285FD00420DB
S1131370FFF7ECFF0420FFF7E9FF0420FFF7E6FF87
S11313800420FFF7E3FF04F1007303F560535B01EE
S113139000259A78D2B28DF807209A78D2B28DF8C7
S11313A007209A78D2B28DF807209A7802F07F024B
S11313B09A709A7822F004029A709A7822F0400285
S11313C09A709DF807209A7802F0EF029A709A7842
S11313D002F0DF029A7099789A7801F0020122F003
S11313E003020A439A70DA7902F07F02DA71DA7939
S11313F022F02002DA7101201D7201F027FC114A4B
S113140001201368C4F11F0100FA01F10B431360BA
S113141001F0F8FBE01DC0B201F0E2FB0A4A24012E
S1131420131915555D705D609D6003B030BD0120DA
S1131430FFF78CFF0220FFF789FF2046FFF786FFA6
S113144003209EE700700440AC09FE1F073008B576
S1131450C0B201F0B1FB08280CBF0A20002008BD6F
S11314600730C0B201F0BCBB00B5012083B001F06D
S1131470A3FE0B4B1B78012B0DD0012001F068FB60
S1131480084BD3F8043301930120019B01F092FE31
S113149003B05DF804FB0020FFF7EEFDEDE700BFAD
S11314A0AC09FE1F0060004000B5012083B001F0CC
S11314B083FE0F4B1B78012B0DD0002001F048FB5D
S11314C00C4BD3F8003301930120019B01F072FE11
S11314D003B05DF804FB0020FFF77CFE064B1A798D
S11314E022F040021A711A7922F001021A71E4E71B
S11314F0AC09FE1F006000400000074000B5012059
S113150083B001F059FE0D4B1B78012B12D00C4A0D
S1131510137903F0C7031371032001F019FB094B7E
S1131520D3F80C3301930120019B01F043FE03B077
S11315305DF804FB0020FFF7D3FEE8E7AC09FE1FCB
S1131540000007400060004000B5012083B001F0B6
S113155033FE0B4B1B78012B0DD0022001F0F8FA5F
S1131560084BD3F8083301930120019B01F022FEBC
S113157003B05DF804FB0020FFF77AFEEDE700BF3F
S1131580AC09FE1F00600040012907D029B9074AB1
S11315901378184300F0300010707047034A137832
S11315A003F0300323EA000010707047000D04407C
S11315B0000A4001024B41EA0242C250704700BF98
S11315C008000440000A400100F1804000F10410CA
S11315D00068000C704700BF034B000A03EB401384
S11315E041EA02425A60704708000440030AC0B24C
S11315F000EB03139B0003F1804303F58123186878
S1131600C0F34000704700BF000A400100F1804071
S113161000F10410006880B2704700BF000A400166
S113162000F1804000F58020006880B2704700BF60
S1131630000A400100F1804000F5802003681B0C83
S11316401B04194301607047030AC0B200EB031383
S11316509B000E4A03F1804310B4402003F581231C
S11316600024D470D070C8031A6805D522F48032DF
S113167021F480301A601860044A19600021802324
S1131680D170D3705DF8044B704700BF000D044067
S1131690020AC3B203EB02139B0003F1804303F578
S11316A0812301291B6804490CBF43F0010323F083
S11316B001031940FFF7C8BFD5FC011F020AC3B2DA
S11316C003EB02139B0003F1804303F581231B68A2
S11316D029B1064943F004031940FFF7B5BF034994
S11316E023F004031940FFF7AFBF00BFD5FC011F6F
S11316F00346012200201A709A705870D8707047FF
S113170098B138B5038873B1054600246B6803EBC0
S1131710C40253F834109088FFF796FF01342B88E5
S1131720A4B2A342F2D8002038BD0120704700BF04
S113173008B540F60733984201D9032008BDFFF7E6
S113174083FF002008BD00BF40F60733984202D94A
S113175003231846704739B110B50C46FFF746FF0E
S113176000232070184610BD0123F2E7B0F5306F56
S113177002D903231846704739B110B50C46FFF758
S113178043FF00232080184610BD0123F2E700BF69
S11317900AB903207047B0F5306F08B501D90320AA
S11317A008BD0B46114022EA0302FFF701FF0020A7
S11317B008BD00BF012901D90320704740F6073254
S11317C0904208B501D9032008BDFFF761FF00204E
S11317D008BD00BF0AB903207047B0F5306FFAD8CE
S11317E070B514460E460546FFF718FF04EA0603D3
S11317F0184383B266EA040128461940FFF718FF2C
S1131800002070BD012901D90320704740F607323A
S1131810904208B501D9032008BDFFF74FFF00200F
S113182008BD00BFB0F5306F02D9032318467047D6
S113183039B110B50C46FFF7C5FE002320801846C9
S113184010BD0123F2E700BF38B540F607339842D4
S1131850044601D9032038BD0D4681B100F47F4010
S1131860FFF7B0FEE4B2012202FA04F39BB218407F
S113187083420BBF002000202A70287038BD01204D
S113188038BD00BFB0F5306F01D903207047002A7E
S1131890FBD008B50B46114022EA0302FFF79CFE79
S11318A0002008BD40F60733984201D90320704751
S11318B00129FBD810B5C3B200F47F4408D001223B
S11318C09A4092B200212046FFF786FE002010BD08
S11318D0994089B20022F6E7202801D903207047F5
S11318E0012908B501D9032008BDFFF74DFE0020EA
S11318F008BD00BF024B23F820100020704700BF32
S113190010100440024A002342F820301846704761
S113191010100440034A137863F07F03137000200F
S1131920704700BF00100440034A137803F07F039C
S113193013700020704700BF0010044020B1034B17
S11319401B68036000207047012070476C8A000008
S113195058B1012807D1084B0020402141221871B9
S113196019711A71704701207047034B40214122BD
S1131970987099709A70704700100440E8B130B4C0
S11319800F4A536823F48043536045685DB183680C
S113199003EB85055C8813F8041B0A4A89000A4492
S11319A0AB421480F6D1007828B1074A137863F06B
S11319B07F031370002030BC70470120704700BFC4
S11319C0007004401010044000100440084B094A01
S11319D0094810B40021094C1A604FF400425C60BD
S11319E0D86059619A601A615DF8044B704700BF72
S11319F09008FE1F0024F40000366E0100127A00E5
S1131A0019491A4A0B8D03F0030332F8132052B319
S1131A1010B40C8D16480B8D14F0100F14BF002158
S1131A20032107EE902A50F821205DF8044B07EEBD
S1131A30102AF8EE676AB8EE477AC3F3052387EEF7
S1131A40267A07EE903AF8EEE77AF7EE006A77EE38
S1131A50A67AF6EE006A67EEA67A67EE277AFCEEBF
S1131A60E77AC0ED057A704700E00140708A000013
S1131A709008FE1F0E4AB2F8FE339BB243F425438E
S1131A8043F00103A2F8FE3392F81334000100F08E
S1131A90300003F0CF03034382F81334B2F8FE336B
S1131AA045F6FE210B4043F42543A2F8FE3370476C
S1131AB000E001400E4AB2F8FE339BB243F42543E2
S1131AC043F00103A2F8FE3392F88134400000F0A1
S1131AD0020003F0FD03034382F88134B2F8FE33BD
S1131AE045F6FE210B4043F42543A2F8FE3370472C
S1131AF000E00140264AB2F8FE339BB243F425438A
S1131B0043F00103A2F8FE3305280BD8DFE800F008
S1131B102028300338181E4A92F8323023F001038B
S1131B2082F832301A4AB2F8FE3323F4145323F005
S1131B3001035B045B0C43F42543A2F8FE337047B6
S1131B40134A92F82A3023F0010382F82A30E9E795
S1131B500F4A92F8363023F0010382F83630E1E779
S1131B600B4A92F8383023F0010382F83830D9E771
S1131B70074A92F8903423F0010382F89034D1E7B5
S1131B80034A92F8803423F0010382F88034C9E7D1
S1131B9000E00140264AB2F8FE339BB243F42543E9
S1131BA043F00103A2F8FE3305280BD8DFE800F068
S1131BB02028300338181E4A92F8323043F00103CB
S1131BC082F832301A4AB2F8FE3323F4145323F065
S1131BD001035B045B0C43F42543A2F8FE33704716
S1131BE0134A92F82A3043F0010382F82A30E9E7D5
S1131BF00F4A92F8363043F0010382F83630E1E7B9
S1131C000B4A92F8383043F0010382F83830D9E7B0
S1131C10074A92F8903443F0010382F89034D1E7F4
S1131C20034A92F8803443F0010382F88034C9E710
S1131C3000E00140032810D0052808D008B1002096
S1131C407047094B93F83C0000F001007047064BC5
S1131C5093F83C00C0F340107047034B93F83C00EA
S1131C60C0F3C000704700BF00E00140052834D82D
S1131C70DFE800F00B131B232B03194B93F82A0006
S1131C8000F0010080F001007047154B93F8360016
S1131C9000F0010080F001007047114B93F8380008
S1131CA000F0010080F0010070470D4B93F89004A0
S1131CB000F0010080F001007047094B93F83200F6
S1131CC000F0010080F001007047054B93F8800498
S1131CD000F0010080F0010070470020704700BF51
S1131CE000E00140024B1A6A93F82630704700BFA7
S1131CF000E001400E4AB2F8FE339BB243F42543A0
S1131D0043F00103A2F8FE3392F8133400F001000B
S1131D1023F0400343EA801382F81334B2F8FE330D
S1131D2045F6FE210B4043F42543A2F8FE337047E9
S1131D3000E001400E4AB2F8FE339BB243F425435F
S1131D4043F00103A2F8FE3392F8A23001F00F0130
S1131D5023F00F03194382F8A210B2F8FE3345F6BC
S1131D60FE210B4043F42543A2F8FE33704700BF25
S1131D7000E0014005288CBF00200120704700BF0F
S1131D8006288CBF00200120704700BF024B93F847
S1131D90260000F00700704700E001400E4AB2F848
S1131DA0FE339BB243F4254343F00103A2F8FE3310
S1131DB092F8263000F0070023F00703184382F856
S1131DC02600B2F8FE3345F6FE210B4043F42543CA
S1131DD0A2F8FE33704700BF00E00140034B1B8DA7
S1131DE013F0100F0CBF03200020704700E00140E7
S1131DF00F4A1049B2F8FE3311F810109BB243F4A5
S1131E00254343F00103A2F8FE33138D01F00101D1
S1131E1023F0100343EA01131385B2F8FE3345F6A9
S1131E20FE210B4043F42543A2F8FE33704700BF64
S1131E3000E00140808A0000114AB2F8FE3330EE1F
S1131E40000A9BB243F42543FCEEC07A43F001033D
S1131E50A2F8FE3317EE903A118D013B21F47C5128
S1131E6003F03F0341EA03231385B2F8FE3345F63A
S1131E70FE210B4043F42543A2F8FE33704700BF14
S1131E8000E001400E4A0F49B2F8FE3331F8101059
S1131E909BB243F4254343F00103A2F8FE33138DB0
S1131EA001F0030123F003030B431385B2F8FE335F
S1131EB045F6FE210B4043F42543A2F8FE33704758
S1131EC000E00140788A0000F0B5164AB2F8FE330B
S1131ED09BB243F4254343F00103A2F8FE3390F888
S1131EE000C090F801E08778C67805794479817953
S1131EF000236CF30E336EF30A2367F3061366F3C1
S1131F00020365F3124364F31E7361F31A631362ED
S1131F10B2F8FE3345F6FE210B4043F42543A2F804
S1131F20FE33F0BD00E001400E4B1A6AC2F30232E8
S1131F3002701A6AC2F3022242701A6AC2F30212CF
S1131F4082701A6A02F00702C2701A6AC2F302426D
S1131F5002711A6AC2F3027242711B6AC3F302630A
S1131F608371704700E00140062828D8DFE800F0BC
S1131F70090E13181D220400124B186AC0F30260E4
S1131F807047104B186AC0F3023070470D4B186A43
S1131F90C0F3022070470B4B186AC0F3021070475D
S1131FA0084B186A00F007007047064B186AC0F324
S1131FB002407047034B186AC0F302707047002058
S1131FC0704700BF00E0014008B5FFF7CDFF054BA7
S1131FD0054A93F8263003F0070352F8233023FA16
S1131FE000F008BD00E001409008FE1F024B53F8CA
S1131FF02000C840704700BF9008FE1F0F4BB3F885
S1132000FE2392B242F4254242F00102A3F8FE23D9
S113201093F8402062F07F0283F8402093F8402038
S113202042F0010283F84020B3F8FE2345F6FE2176
S11320300A4042F42542A3F8FE23704700E0014021
S11320400F4BB3F8FE2392B242F4254242F0010250
S1132050A3F8FE2393F8402022F0010283F84020E5
S113206093F8402002F07F0283F84020B3F8FE2367
S113207045F6FE210A4042F42542A3F8FE237047A8
S113208000E00140024B93F84000C009704700BFD4
S113209000E00140024B93F8410000F0010070475A
S11320A000E00140114A92F8410010F0010001D112
S11320B000207047B2F8FE339BB243F4254343F04B
S11320C00103A2F8FE3392F8413023F0010382F8B1
S11320D04130B2F8FE3323F4145323F001035B04BC
S11320E05B0C43F42543A2F8FE33704700E0014043
S11320F00E4AB2F8FE339BB243F4254343F0010386
S1132100A2F8FE3392F8303000F0010023F001030E
S1132110184382F83000B2F8FE3345F6FE210B4036
S113212043F42543A2F8FE33704700BF00E00140AA
S11321300C4AB2F8FE339BB243F4254343F0010347
S1132140A2F8FE3392F8523043F0010382F8523081
S1132150B2F8FE3345F6FE210B4043F42543A2F8C2
S1132160FE33704700E001400C4AB2F8FE339BB2E4
S113217043F4254343F00103A2F8FE3392F85230AE
S113218023F0010382F85230B2F8FE3345F6FE2103
S11321900B4043F42543A2F8FE33704700E00140AE
S11321A0164BB3F8FE2392B242F4254242F00102E8
S11321B0A3F8FE2393F83E2002F07F0283F83E202A
S11321C093F83E2001F0070122F0700242EA011266
S11321D083F83E2093F83E2000F0070022F0070227
S11321E0104383F83E00B3F8FE2345F6FE210A406F
S11321F042F42542A3F8FE23704700BF00E00140EB
S11322000C4AB2F8FE339BB243F4254343F0010376
S1132210A2F8FE3392F83E3063F07F0382F83E303A
S1132220B2F8FE3345F6FE210B4043F42543A2F8F1
S1132230FE33704700E001400C4AB2F8FE339BB213
S113224043F4254343F00103A2F8FE3392F83E30F1
S113225003F07F0382F83E30B2F8FE3345F6FE21E8
S11322600B4043F42543A2F8FE33704700E00140DD
S11322700C4AB2F8FE339BB243F4254343F0010306
S1132280A2F8FE3392F8533043F0010382F853303E
S1132290B2F8FE3345F6FE210B4043F42543A2F881
S11322A0FE33704700E001400C4AB2F8FE339BB2A3
S11322B043F4254343F00103A2F8FE3392F853306C
S11322C023F0010382F85330B2F8FE3345F6FE21C1
S11322D00B4043F42543A2F8FE33704700E001406D
S11322E00E4AB2F8FE339BB243F4254343F0010394
S11322F0A2F8FE3392F8243000F0070023F07003B4
S113230043EA001382F82430B2F8FE3345F6FE2186
S11323100B4043F42543A2F8FE33704700E001402C
S11323200E4B19681A68920715D501380022B0F1CE
S1132330807F1A6002D319601046704710B4084CAD
S11323405860F02084F82300072101209A60196066
S11323505DF8044B70470120704700BF10E000E0B7
S113236000ED00E00C4B1A7902F00E0242F0F0028C
S11323701A711A7A00F0010022F0040242EA800283
S11323801A721A7A22F0080242EAC00018721A7904
S113239042F0F1021A71704700200040094B1A798B
S11323A042F0F1021A711A7A00F0010022F01002D0
S11323B042EA00121A721A7902F00E0242F0F00296
S11323C01A71704700200040054A92F81C3100F051
S11323D0070023F00703184382F81C01704700BF6D
S11323E000C00140024B93F81C0100F00700704745
S11323F000C0014000207047002070470020704753
S1132400024B1B6803600020704700BFE48A000091
S113241038B50C460546FFF7B9FC28702046FFF78F
S113242083FD002038BD00BF70B500240C600D464C
S11324300646FFF7A5FC10B90324204670BD3046BC
S1132440FFF7C2FD2860204670BD00BF10B5FFF73E
S113245021FE68B1FFF79AFC0446FFF7BFFC052C88
S113246004D0032C04D140F2971010BD0328FAD0F5
S1132470FFF718FE002010BD08B5FFF739FE002055
S113248008BD00BF08B5FFF753FE002008BD00BF1C
S113249008B5FFF769FE002008BD00BF08B5FFF7C7
S11324A07FFE002008BD00BF08B5FFF7A9FE00208D
S11324B008BD00BF08B5FFF7BFFE002008BD00BF80
S11324C008B5FFF7D5FE002008BD00BF08B5FFF72B
S11324D0EBFE002008BD00BF08B5FFF701FF002098
S11324E008BD00BF08B500F017FA07EE900AB8EE71
S11324F0677AF7EE007A87EE877ADFED097ADFED07
S1132500096A67EE277AC6EEA77AFCEEE77A17EE39
S1132510900AFFF705FF00280CBF1220002008BD19
S11325200024744900401C4600B583B04FF6FF7385
S11325300193FFF74BFA0420FFF72CFB04E0019B07
S11325403BB1019B013B01930420FFF78FFB002863
S1132550F5D1019B23B94FF4CD7003B05DF804FBB2
S113256005210420FFF7BEFB0020FFF7A3FA00209B
S1132570FFF780FA0020FFF7BDFB03200921FFF7D6
S1132580D9FB002003B05DF804FB00BF10B504467E
S1132590FFF7F0FB08B9032010BD631E012B0FD910
S11325A0042C0DD02CB1032C03D0052C01D0002019
S11325B010BD2046FFF75AFB68B94FF4C87010BD30
S11325C02046FFF753FB40F29113002814BF18462E
S11325D04FF4C87010BD2046FFF72CFB40F2931354
S11325E000280CBF18464FF4C97010BD70B582B0F6
S11325F00E460546FFF7BEFB10B9032002B070BDBE
S1132600052D284616D0FFF731FB18B140F2911082
S113261002B070BD6B1E012B4AD9042D30D00DB110
S1132620032DEBD12846FFF705FB002840D040F2EC
S11326309310E3E7FFF71AFBE8B93078FFF716FBCE
S113264010B94FF4CA70D9E72846FFF7F3FA0446E5
S11326500028ECD13078FFF7CBFB7078FFF712FC41
S113266096ED010AFFF7E8FBFFF7CAF92846FFF7E2
S113267041FA2046C2E7FFF7C3F940F29110BDE7E3
S11326802846FFF737FA4FF6FF73019304E0019BE6
S11326903BB1019B013B01930420FFF7E7FA0028BB
S11326A0F5D0019B002B0CBF4FF4CD700020A5E7A3
S11326B02846FFF71FFA0020A0E700BF10B582B03C
S11326C00446FFF757FB10B9032002B010BDFFF713
S11326D05DFB844216D0052810D0012C15D020466D
S11326E0FFF7C4FA40B1022C39D0042C1AD094B1AB
S11326F0032C10D0052C0ED00020E6E7FFF76EFB6C
S1132700A042EAD140F29110DFE7FFF7BBFC08B327
S113271040F29510D9E72046FFF78CFAF8B940F259
S11327209310D2E72046FFF735FA4FF6FF73019373
S113273004E0019B3BB1019B013B01930420FFF7A3
S113274095FA0028F5D1019B002B0CBF4FF4CD70F6
S11327500020BAE72046FFF789FA0028CCD02046AB
S1132760FFF718FAC8E700BF00B583B039B9FFF71F
S113277091FC70B14FF4CB7003B05DF804FB0146DB
S1132780012000F0E3F8FFF739FC002003B05DF806
S113279004FB0190FFF754FC019803B05DF804FBBF
S11327A070B50D460446FFF7E5FA08B9032070BD7D
S11327B02046A979FFF71AFC2A4B9842064634D8DA
S11327C00020FFF7CFFD0020FFF7E8FD264B9E42D7
S11327D034D8FFF707FE0026FFF7D8FA844207D063
S11327E0DCB1032C19D0052C17D02046FFF7D6FAFC
S11327F000F092F81D4B1E49186042F21070FFF76A
S113280071FE2846FFF760FBFFF7ECFD864222D0FD
S11328103046FFF7D9FD002070BD2046FFF70AFAC5
S11328200028E2D14FF4C97070BD0120FFF79AFD72
S1132830104B9E4211D90120FFF7B0FD0E4B9E4272
S113284094BF01260226FFF7CDFDB042C4D2304624
S1132850FFF7BAFDC0E7002070BD0020FFF79EFD22
S1132860ECE700BFFF0D2707FFB3C4044C0AFE1FAB
S113287040420F00FFC1EB0BFF67890970B5234D80
S113288082B02B68984700216E680320B04701216D
S11328901F4AAC698DF80110032301928DF80030B2
S11328A00320A047B0F5C97FFAD169460520B04797
S11328B0184A92F8003143F0010382F800310520F0
S11328C0A047B0F5C97FFAD100220124022369464A
S11328D08DF806208DF801308DF802308DF8053022
S11328E08DF80040EB688DF803408DF80440052016
S11328F098472B6D042098476B6A20469847AB6A2B
S11329009847AB6C984702B070BD00BF888A00003E
S11329100000A04100C0014000B5054B83B05B69D5
S113292001A906209847019803B05DF804FB00BF95
S1132930888A0000044B002103F1300243F8041B91
S11329409342FBD1704700BFC408FE1F024B43F8FB
S113295020100020704700BFC408FE1F08B57A4B42
S1132960B3F84031D90700F1C180774BB3F8403157
S11329709A0700F1B080744BB3F840315B0700F163
S11329809F80714BB3F84031180700F18E806E4B75
S1132990B3F84031D9067CD46B4BB3F84001C0F393
S11329A08010002869D1684BB3F840311A0658D416
S11329B0654BB3F84031DB0547D4634BB3F8403182
S11329C0980536D4604BB3F84031590524D45E4B96
S11329D0B3F840311A0512D45B4BB3F84031DB0431
S11329E000D408BD594BDB6A002B40F0AA80564A3C
S11329F0B2F8303143F48053A2F8303108BD534B60
S1132A009B6A002B40F09A804F4AB2F8303143F46D
S1132A100063A2F83031DFE74C4B5B6A002B40F0D7
S1132A208A80494AB2F8303143F48063A2F83031E5
S1132A30CDE7464B1B6A002B7AD1434AB2F83031BA
S1132A4043F40073A2F83031BCE7404BDB69002B40
S1132A506BD13D4AB2F8303143F48073A2F830317F
S1132A60ABE73A4B1B68002B5CD1374AB2F83031E4
S1132A7043F08003A2F830319AE7344B5B68002BB3
S1132A804ED1314AB2F8303143F04003A2F830312C
S1132A9089E72E4B9B69002B3FD12B4AB2F830318A
S1132AA043F01003A2F8303176E7284B5B698BBB07
S1132AB0254AB2F8303143F00803A2F8303166E712
S1132AC0224B1B691BBB204AB2F8303143F004038C
S1132AD0A2F8303155E71D4B9B68ABB91A4AB2F8DE
S1132AE0303143F00203A2F8303144E7174BDB687E
S1132AF03BB9154AB2F8303143F00103A2F8303142
S1132B0033E703209847F4E702209847E6E70420D8
S1132B109847D8E705209847CAE706209847BCE7B6
S1132B209847AEE7002098479FE70720984790E72B
S1132B300820984781E70920984772E70A209847B8
S1132B4062E70B20984752E700600040C408FE1F6C
S1132B50002808DB800000F1804000F5C6400368CF
S1132B6023F4803303607047F0B50E4BDFF844E084
S1132B700D4E0E4C0E4960224FF4BA7C40F275178C
S1132B804FF4BB7583F8002340F27710CEF800C0F1
S1132B9083F80123376083F80223256083F8032335
S1132BA00860F0BD00E100E00463004008630040F9
S1132BB00C63004000630040084B0121034402E021
S1132BC0C3E8401F40B1D3E84F2F12F0FF0FF7D0F6
S1132BD0BFF32F8F08207047704700BFF408FE1F13
S1132BE0014B00221A547047F408FE1F044B0021C5
S1132BF003F1760203F8011F9342FBD1704700BF33
S1132C00F308FE1F0E4B33F8102092B22AB133F8AA
S1132C101020013A92B223F8102033F810309BB2FE
S1132C2063B9084A0849B2F8FE3331F810109BB270
S1132C3043F4254323EA0103A2F8FE33704700BF9F
S1132C406C09FE1F00E00140E88A0000104A32F8D7
S1132C5010309BB2ABB910B40E4C0F49B4F8FE332C
S1132C6031F810109BB243F425430B43A4F8FE3310
S1132C7032F810305DF8044B01339BB222F8103067
S1132C80704732F8103001339BB222F8103070478D
S1132C906C09FE1F00E00140E88A0000024B00229C
S1132CA01A805A809A8070476C09FE1FF8B507880D
S1132CB0AFB341681B4C002601EBC70E4FF0010C6B
S1132CC037468888002334F81320824216D0013313
S1132CD0032BF8D108317145F3D1F643F6B2012044
S1132CE0FFF7B4FF104A92F8BB341F433E4082F80A
S1132CF0BB640120BDE8F840FFF784BF0A6802F016
S1132D00B852B2F1807F05D00CFA03F546EA050209
S1132D10D6B2DCE70CFA03F21743FFB2D7E7FF267B
S1132D20DDE700BFF08A000000E00140034638B14F
S1132D30054A92E80300002283E803001046704726
S1132D4001221046704700BF048B0000FEE700BF5D
S1132D5008B500F005F800F08FF8FEE7704700BFF3
S1132D60204A08B5D2F8883043F47003C2F888309A
S1132D700020FFF7F3FFFFF7DDFDFFF77FFDFFF70F
S1132D808DFF1948FFF792FF184B17481B689847A7
S1132D90174A184BD21A05D01A44002103F8011B14
S1132DA09342FBD1144A1548801A07D0144B184497
S1132DB013F8011B02F8011B8342F9D1FFF7ACFDA4
S1132DC0104B18600120FFF7C9FFFFF70FFFFFF753
S1132DD0CBFE0D4B0D481B6898470020BDE808400A
S1132DE000F016B800ED00E0608B0000188A0000C7
S1132DF07419FE1FA808FE1F0000FE1F9008FE1F86
S1132E00349100004C0AFE1F508A0000F88A00002A
S1132E10704700BF00F096B800B589B00A4B009324
S1132E204FF480610123B42201910293039304932C
S1132E30059306920549064A0648002300F0EAF87D
S1132E4009B05DF804FB00BF782DFE1F3C8B000029
S1132E50152E0000500AFE1F704700BFFFF7FCBF8D
S1132E60704700BF10B50446FFF7D6FFFFF7F6FF23
S1132E702046FFF7F5FF10BD08B572B600F07CF9E7
S1132E80002008BD0FB430B5ADF20C4D0DF58363D1
S1132E904FF4806153F8042B019302A801F006F863
S1132EA00A4B0B4C9A6805461868936800222270F6
S1132EB002A94FF4806298472378002BFCD028465F
S1132EC00DF20C4DBDE8304004B070474C8B00004F
S1132ED02813FE1F0379022B20D0802B1DD1154B04
S1132EE0154A1968806810B45054196851560A2953
S1132EF018D0196851560D2914D01A680D49013299
S1132F001A601B68B3F5806F04DB0C4A01200023B0
S1132F1010700B605DF8044B70477047084B01223A
S1132F201A707047186805490024145401220A7065
S1132F30E3E700BF2413FE1F200FFE1F2013FE1F14
S1132F402813FE1F2DE9F04782B06846FFF7EEFE16
S1132F50254BDFF8BCA0D3F80880D3F8009059685B
S1132F60D8F800200023CAF80030484690471F488C
S1132F70FFF788FF1E48FFF785FF1E48FFF782FF13
S1132F801D48FFF77FFFBDF8003063B31B4A1C4F99
S1132F905668012585F00105002453B1019AF369AF
S1132FA032F8140029469847BDF800300134A34292
S1132FB0F4D81448FFF766FF002139700A46D8F8A0
S1132FC00430484698473B78002BFCD000230E4938
S1132FD00E48CAF80030FFF755FF322000F0F4F92C
S1132FE0BDF80030D6E7FEE74C8B0000588F000098
S1132FF0608F0000648F00006C8F0000588B00000D
S11330002013FE1F7C8F0000200FFE1F888F0000FE
S11330102413FE1F2DE9F04F87B0044610AD149819
S1133020039095E8A003DDF854A016980CB1B428D9
S113303003D00E2007B0BDE8F08FEFF3108072B616
S1133040DFF830B1DBF800600136CBF8006080F3C4
S11330501088434E4348366804960668049828B39B
S1133060B44223D0781E284405934FF0000E8C46BA
S11330700346F168A9423ED83069A8423BD90120F1
S113308000258B420EF1010E05D331698B4238BF06
S1133090012038BF00250499D6F888608E4503D0F6
S11330A0B44201D00128E4D1059B6146EFF31080BE
S11330B072B6DBF800E00EF1FF3ECBF800E080F3DF
S11330C0108802910192009300F0B2F9B44202997F
S11330D0019A009BADD065B15AB1C72F0DD9B8F193
S11330E01F0F0CD8C8450CD3BAF1010F0BD910200F
S11330F0A0E703209EE70020C3E705209AE70F20FE
S113310098E7182096E7184E1848366886420CBF90
S113311013200020EFF3058C154ED6F800B05CEABE
S11331200B0C09D0EFF3058C36684CEA0606B6F1B1
S1133130F03F01D213207DE700287FF47BAF039892
S11331401490204610951197CDF84880CDF84C90F6
S1133150CDF854A007B0BDE8F04F00F02FB800BF81
S1133160BC13FE1FB413FE1FC813FE1F6C14FE1FF6
S11331700000FE1FC413FE1F10B50C4C236813F18E
S11331800F3F06D04FF0F033236000F02FFC00F027
S113319077FD074A4FF0F03310682360FFF762FEB3
S11331A000232360BDE8104000F060BC0000FE1F57
S11331B05419FE1F704700BF704700BF2DE9F84F38
S11331C00A9D0B9CDDF830900D9E07468B46924677
S11331D028462246EF21984600F0E0FD38460021BB
S11331E0B42200F0DBFD04F1FF3E0E9B374AC7F822
S11331F028B0AE4420200321C7F8A0003963C7F8E3
S113320044A0C7F84880FD607C61C7F810E0C7F8A7
S11332102C90C7F89890BB61FB61FE63C7F89C6073
S1133220BF657A6538462A4900F0BCFCEFF3108587
S113323072B6284A284B11683B60284BE1B9C7F89D
S11332408870C7F88C701F60254B013118681160B5
S11332500F9A0130012A18601AD085F31088EFF311
S1133260108272B619680139196082F3108800F06F
S1133270DFF80020BDE8F88F1B68D3F88C00C3F892
S11332808C70C0F88870C7F88C00C7F88830DBE70A
S1133290EFF30583134A12681343B3F1F03F10D3DD
S11332A0114B1C6884B1E36AE66BE36385F3108811
S11332B0384600F0DBF8002CDBD0E6630020BDE8E4
S11332C0F88F00263446F1E72646EFE70937000079
S11332D061330000BC13FE1F44524854B413FE1F54
S11332E0C413FE1F0000FE1FCC13FE1FF8B5DFF849
S11332F068C0104BDFF864E00F4E104F10480024F4
S11333002146202580221D603460CCF80040CEF890
S113331000403C6000F042FD0A4B0B4E1A680B4D16
S11333200B480C49346042F080722C6004600C60DD
S11333301A60F8BDD013FE1FD413FE1FB013FE1F76
S11333402C13FE1FB813FE1FB413FE1FBC13FE1F65
S1133350C413FE1FAC13FE1FC813FE1FCC13FE1FA5
S1133360164B70B51C68EFF3108272B6D4F8B03007
S113337082F3108813B1204600219847636CA06C37
S113338098470F4B1B680BB120469847EFF310800A
S113339072B60C4BD4F8B0201D680121002601350B
S11333A0E6641D602163A16380F310880AB120469E
S11333B090472046BDE8704000F0DEB8C813FE1FF9
S11333C0AC13FE1FC413FE1F38B5EFF3108172B6A1
S11333D0134B1C682CB1EFF30582124B1B6813438B
S11333E003D081F31088132038BD0F4A9442F8D0DB
S11333F010B981F3108838BD0C4AC4F884301568BC
S1133400E06401350420012315602063A36381F384
S11334101088204600F0B0F8D4F8840038BD00BF0E
S1133420C813FE1F0000FE1F6C14FE1FC413FE1FF2
S11334300A4B1B688BB90A4A0A4B12681B689A42EA
S11334400BD0094B4FF080525A60EFF3058323B938
S1133450EFF3108362B683F310887047C413FE1F22
S1133460C813FE1FCC13FE1F00ED00E0436E2DE9D0
S1133470F0410446002B43D04C3000F003FAEFF344
S1133480108172B6344BA26B186801381860CAB93F
S1133490226B0ABB314D324A106881F310882A68C6
S11334A090420DD01B685BB92E4B4FF080525A608E
S11334B0EFF3058323B9EFF3108362B683F3108827
S11334C0BDE8F081226B013A012AE3D9626B92B91B
S11334D0224DA2632263DEE7626B62B9E06A224D89
S11334E0226355F820206AB1506A1C4D046254626C
S11334F060622262CFE70020032260632263C9E78F
S1133500C364BCE7194A45F820404FF00108156828
S1133510174E246208FA00F72F4317603768646275
S1133520B8420E4DB7D22A68306092B1D66BB04221
S1133530B1D2D26A964205D00E48066808FA02F261
S1133540164306602C6081F310881B68002BABD0F7
S1133550B6E72C609FE700BFC413FE1FCC13FE1F09
S1133560C813FE1F00ED00E02C13FE1FB013FE1F56
S1133570D013FE1FD413FE1F5A4B2DE9F047044607
S11335801D68EFF3108172B6A84261D0564BA26B4E
S11335901868012A00F1FF30186015D0534A81F3EE
S11335A01088126895420DD01B685BB9504B4FF0E0
S11335B080525A60EFF3058323B9EFF3108362B6A8
S11335C083F31088BDE8F087206AE76A0026A042EA
S11335D0A6634DD0DFF824C1666A5CF82780466292
S11335E0A045306269D0414A10688442D7D1414C29
S11335F04148266805685CF8266016603F4E0DB3A6
S11336001D6801351D6081F31088EFF3108172B6D7
S11336101F68056807F1FF3C6F42C3F800C02F40E4
S1133620B7FA87F7C7F11F07D4F800C056F8274048
S1133630E66B664506D8012606FA07F725EA07056C
S11336401460056081F310881B68002BAED0B9E7C5
S1133650C36C013B033307D881F310884C3000F06E
S1133660D9F8EFF3108172B6254AE36913608DE748
S1133670DFF89080DFF88090D8F80000DFF87CC095
S1133680D9F800A04CF82760BA40D2431040C8F8DB
S11336900000BAF1000F03D002EA0A02C9F80020C0
S11336A0B0B9144C114A20252560106081F31088AC
S11336B01B68002B3FF47AAF84E70F4E4CF82700C9
S11336C0306800288FD0BA4020EA020030608AE7D0
S11336D042421040B0FA80F0064AC0F11F00106068
S11336E081E700BFC813FE1FC413FE1FCC13FE1FC7
S11336F000ED00E0D013FE1FD413FE1F2C13FE1F99
S11337006014FE1FB013FE1F08B5EFF3108172B6EC
S1133710026B042A05D0836E81F3108803B19847A5
S113372008BD054B1A6801321A6081F31088BDE8A0
S11337300840FFF79BBE00BFC413FE1F2DE9F043F2
S1133740DFF8BC80DFF8BCE0204BDFF8BCC0DFF85A
S1133750BC901F4E1F4D204C00273946802287B055
S11337604046CEF800701F60C9F80070CCF80070B5
S113377000F014FB194ADFF898E0194B1948C2F815
S1133780008008F180014FF480621960CEF8008057
S1133790376039462860226002E028682268316870
S11337A000238DE8050002910391049305930E48CC
S11337B00E490F4A0F4BFFF701FD0028EDD10E4AC9
S11337C00E4B1060186007B0BDE8F0835C14FE1F58
S11337D06414FE1F2C19FE1F2815FE1F2015FE1F42
S11337E06814FE1F2C15FE1F6C14FE1F8C8F000026
S11337F0C13800004D4954412415FE1F3019FE1FE5
S1133800DC13FE1F3419FE1F6014FE1F3819FE1F3F
S1133810D813FE1F10B4EFF3108172B603685A1E5A
S1133820D41C01D8846924B181F310885DF8044B59
S11338307047114C202B114B24681B6894BF9200D5
S11338407C2222449A4205D30D4CD31A246823F0D7
S11338500303E218136853B15C6920615861446141
S11338600361826181F310885DF8044B7047006145
S113387040611060F5E700BFD813FE1F6814FE1FF7
S11338802015FE1F10B4EFF3108472B6826962B182
S1133890036998420ED0416959610B6111688142F4
S11338A004BF9A6113600023836184F310885DF878
S11338B0044B704713688342F5D100231360F2E789
S11338C02DE9F04F424B984283B002D003B0BDE8DB
S11338D0F08F0024DFF80881DFF808B1DFF8F8A0E2
S11338E0DFF804910194254601AFEFF3108072B61E
S11338F038490A68136800930BB100A999611560EF
S1133900344A34491368D8F80020043393420B60D6
S113391059D0CBF8005080F31088EFF3108E72B6B4
S1133920009EBEB938E0203A3260B76136610022A9
S11339308EF310880AB120469047EFF3108272B6D6
S1133940B069B8421ED082F31088EFF3108E72B6BD
S1133950009E0EB33269964212D07069506100AB7A
S11339600261009293613268202ADCD8706830606A
S1133970B268F46810B1B7613661D9E7B061D7E7CE
S11339800095F0E7B56182F310883046FFF742FFF7
S1133990EFF3108272B6D6E7DBF8003013B18EF382
S11339A01088A2E7D9F8003001330322C9F80030A7
S11339B00123CAF83020CAF838308EF3108806483C
S11339C0FFF7DAFD91E7054A13680B60A1E700BF32
S11339D04D495441D813FE1F6C14FE1F2015FE1FC1
S11339E06814FE1F5C14FE1FC413FE1F10B472B6CD
S11339F0154B16481C68164B164A0460186816497D
S1133A00116040F0010015491860154A0B68A2FBCB
S1133A1003135B09013BB3F1807F09D2114A1248B9
S1133A205360F0240021072380F823409160136041
S1133A300D4BF0220021DA7783F8222083F823103B
S1133A405DF8044B704700BF00000000C013FE1F68
S1133A50001000E05419FE1F7C31FE1F4C0AFE1FAB
S1133A601F85EB5110E000E000ED00E010B4114BB5
S1133A70114C12481249002222609A809A821A80BC
S1133A801A829860D9609861D961EFF3088282F351
S1133A9009880C49B1F8200180B2012240F4805019
S1133AA0A1F820019A809A8262B6074B4FF08052A7
S1133AB05A60FEE7000D0040C413FE1F781DFE1F70
S1133AC07831FE1F0060004000ED00E02F4B1A68C3
S1133AD0002A58D0EFF3098CACF1200C8CF3098840
S1133AE00CF1200C2CE9F00F1EF0100F40F00880B0
S1133AF0ACF1400C8CF309880CF1400C2CED108ACD
S1133B007146C2F89010614621489160016811B174
S1133B1000249161046072B61E4A1168002928D0FD
S1133B20196062B61A681C495468956905600134C5
S1133B30002054608882D0688861106940F00300D6
S1133B40C861D2F8902096461B689B689C461EF07C
S1133B50100F40F00280BCEC108ABCE8F00F8CF32C
S1133B60098801238B827047FEE762B630BFBFF33A
S1133B706F8F72B61168094619600029F5D0074A9B
S1133B801B215160CDE70248C5E700BFC813FE1FE3
S1133B906014FE1FCC13FE1F000D004000ED00E07A
S1133BA000F024B80269A2F1400222F007024FF0AB
S1133BB00003136053609360D36013615361C3685F
S1133BC093614FF00003D361136253629362D36233
S1133BD013634FF0FF33536391634FF08073D363E8
S1133BE082606FF00203C0F8903070471D4B1E4A8C
S1133BF018681168013010B5186069B91B4C206849
S1133C001B4B1A68116891B11A4B01221A6000F01B
S1133C10B5F82368DBB910BD01391160134C91B9B3
S1133C20134B1A681168012020600029ECD1124955
S1133C30096804328A421A600DD00E4B1A6820B902
S1133C40002AE4D110BD2068DAE7002ADFD1BDE8FC
S1133C50104000F05DB80949064A09681268196005
S1133C60EDE700BF3819FE1F6014FE1F3419FE1F54
S1133C70D813FE1F5C14FE1F6814FE1F2015FE1FC0
S1133C802DE9F84FFFF732FB144BDFF870B0DFF883
S1133C9070A0DFF87090DFF87080114F114E124D54
S1133CA0124C01221A60FFF749FDDFF860C010488A
S1133CB01049114A0023CBF80030CAF80030C9F883
S1133CC00030C8F80030CCF800303B6033602B6023
S1133CD0236003600B601360BDE8F88FC413FE1FFC
S1133CE06019FE1F6419FE1F5819FE1F5019FE1F8C
S1133CF06C19FE1F4419FE1F4019FE1F4C19FE1FAC
S1133D005C19FE1F6819FE1F4819FE1F3C19FE1F8F
S1133D10144B10B41B68EFF3108272B612490020E2
S1133D20086063B1196B51B9186A104CD9692160E4
S1133D309842996103D0D96ADB6B994204D082F32B
S1133D4010885DF8044B7047094B0A4C43F8210076
S1133D502068094953F820300B6082F310885DF81D
S1133D60044B7047C813FE1F3419FE1F6014FE1F56
S1133D702C13FE1FD013FE1FCC13FE1FEFF3108273
S1133D8072B6044B19680131196082F31088024835
S1133D90FFF76CBBC413FE1F6C14FE1F70B48407C2
S1133DA046D0541E002A41D0CDB2034602E0621E22
S1133DB0E4B3144603F8015B9A07F8D1032C2ED917
S1133DC0CDB245EA05250F2C45EA054519D903F17D
S1133DD010022646103E0F2E42F8105C42F80C5C8E
S1133DE042F8085C42F8045C02F11002F2D8A4F133
S1133DF0100222F00F0204F00F041032032C1344BB
S1133E000DD91E462246043A032A46F8045BFAD822
S1133E10221F22F003020432134404F003042CB1E1
S1133E20C9B21C4403F8011BA342FBD170BC704708
S1133E3014460346C2E700BF70B5002A9AB005468F
S1133E402FDB14461A464FF4027300910491ADF827
S1133E500C3011D0013C4FF6FF7669461E9B02944C
S1133E600594ADF80E6000F057F8421C16DB009B79
S1133E7000221A701AB070BD1E9B02944FF6FF7692
S1133E8069460594ADF80E6000F046F8431C01DB6A
S1133E901AB070BD8B232B601AB070BD8B232B60BE
S1133EA0E5E78B2303604FF0FF30F1E730B583B0D3
S1133EB0054C009324680D46134601462A462046C5
S1133EC0FFF7BAFF03B030BD3004FE1F024B13B13D
S1133ED0024800F005B8704700000000ED3E000005
S1133EE0014600200246034601F07CBA38B5084B6F
S1133EF0084DED1AAC1018BFED1805D0013C55F86B
S1133F00043D9847002CF9D1BDE8384004F034BD95
S1133F108808FE1F8C08FE1F2DE9F04FBFB08946AC
S1133F2006920A93049002F099FA036813931846D0
S1133F3003F048F9B9F80C3014901A0604D5D9F8EE
S1133F401030002B01F0A1809FED997B8DED107B4B
S1133F5000232EAF0F932393229312931593079369
S1133F6021973C464E46069D2B78002B00F0A980F5
S1133F70252B02D1A5E0252B03D015F8013F002BFA
S1133F80F9D1069BEB1A73B1229A23990698206003
S1133F9001321944072A63602391229272DC0834A7
S1133FA0079A1A4407922B78002B00F0CB87002342
S1133FB0691C6D788DF867301A46089303934FF0A7
S1133FC0FF3A4B1CA5F12001582900F2E483DFE8F5
S1133FD011F07702E203E2037B03E203E203E2036C
S1133FE0E203E203E203F7021402E203FB01180214
S1133FF0E2038203C102C102C102C102C102C102C1
S1134000C102C102C102E203E203E203E203E203EA
S1134010E203E203E203E203E203D0029103E203D8
S11340209103E203E203E203E2037403E203E20323
S11340300C03E203E203E203E203E2032A03E203E2
S1134040E2034403E203E203E203E203E203E203E2
S1134050E203E203E203E2035F0333029103910309
S1134060910305033302E203E203ED02E203850256
S11340700202CB037E02E2039902E2037A00E20326
S1134080E203510204980393314621AA03F0C8F8CD
S113409050B93C46039B83E70498314621AA03F0B8
S11340A0BFF8002800F08C81B146B9F80C3013F049
S11340B0400F079B18BF4FF0FF3318463FB0BDE8D1
S11340C0F08F069D6FE70693039B980640F1B48238
S11340D00A9B03F1070929F0070303F10802D3E956
S11340E000890A9201234FF0000C8DF867C0CDF8C7
S11340F034A0BAF1000F03DB039A22F0800203928A
S113410058EA090240F05783BAF1000F00F05C84CA
S1134110012B00F05A83022B00F09A8439464FEAAF
S1134120D80242EA49724FEAD90008F007038146EF
S11341309046303358EA090201F8013DEFD1039A61
S11341400C91D20700F16E857B1A0993099A924566
S11341505346B8BF1346059300230E93BCF1000FDA
S113416002D0059B01330593039B13F002030B93C9
S113417002D0059B02330593039B13F0840940F09E
S11341801783089B059AC2EB0308B8F1000F40F3AC
S11341900F83B8F1100F2399229ADFF81CA030DDA9
S11341A053464FF0100BC246A8461D460DE000BF13
S11341B00000000000000000B88F0000AAF1100AFF
S11341C0BAF1100F04F1080417DD01321031072A87
S11341D02391229284E82008F0DD0498314621AA34
S11341E003F01EF800287FF45FAFAAF1100ABAF1B9
S11341F0100F2399229A3C46E7DC2B464546D046CD
S11342009A46013208EB010B072ACDF88CB02292B2
S1134210C4F800A0C4F8048000F37E849DF867C04D
S11342200834BCF1000F0FD0229B01330BF1010BBA
S11342300DF167010122072BCDF88CB0229384E89D
S1134240060000F3EA8308340B9B73B1229B01330D
S11342500BF1020B1AA90222072BCDF88CB0229382
S113426084E8060000F3CD830834B9F1800F00F030
S113427015830D9B099AC2EB030ABAF1000F3CDDCA
S1134280BAF1100F229ADFF864942BDD49465B469D
S1134290A9464FF01008DDF810B00D4606E0AAF16B
S11342A0100ABAF1100F04F1080417DD01321033BB
S11342B0072A2393229284E82001F0DD58463146F0
S11342C021AA02F0ADFF00287FF4EEAEAAF1100A95
S11342D0BAF1100F239B229A3C46E7DC9B462B46FF
S11342E04D4699460132D344072ACDF88CB0229228
S11342F084E8000600F379830834039BD90500F1B0
S11343007082229B09990C9A226001338B44072BFB
S1134310CDF88CB06160229300F34A830834039B88
S11343205A0741D5089B059A9D1A002D3CDD102D96
S1134330229BDFF8BCA323DD4FF010085A46DDF8BA
S1134340109004E0103D102D04F1080417DD013332
S11343501032072B23922293C4F800A0C4F80480DF
S1134360F0DD4846314621AA02F05AFF00287FF4C6
S11343709BAE103D102D239A229B3C46E7DC9346CE
S11343800133AB44072BCDF88CB02293C4F800A0C2
S1134390656009DD0498314621AA02F041FF002836
S11343A07FF482AEDDF88CB0079B059A08998A42A7
S11343B0ACBF9B185B180793BBF1000F7FF46CAE86
S11343C0002322933C46CEE5194603981D7840F01D
S11343D004000390F5E50693039B13F0200300F01B
S11343E00E810A9B03F1070929F0070303F1080270
S11343F0D3E900890A92002375E61D7819462B2219
S1134400DFE51D782A2D03F1010100F0B887A5F13D
S1134410300009280B464FF0000A3FF6D3AD13F8DD
S1134420015B0AEB8A0A00EB4A0AA5F1300009286D
S1134430F5D94AEAEA7AC5E50693039B8DF8672025
S11344409B0640F1A1800A9B03F1070929F00709A3
S1134450D9E9002309F108010A9190469946002AF6
S113446073F10003C0F20E849DF867C0CDF834A048
S113447001233EE606939B4B1293039B8DF8672022
S11344809B0640F1F3800A9B03F1070929F0070317
S1134490D3E9008903F108020A92039BD90740F18A
S11344A0F58058EA090300F0F180039A8DF8695009
S11344B0302342F002028DF868300392022312E6A0
S11344C01D781946002A7FF47CAD202279E50399F2
S11344D041F0200103911D78194672E50693039B70
S11344E08DF867209A0640F1B08407990A9A4FEA3A
S11344F0E179136808468846043249460A92C3E9BA
S1134500000130E50A9A069313680C934FF0000BF0
S11345108DF867B002F10409002B00F04686BAF169
S1134520000F0C98C0F2F6855946524602F02CFA58
S1134530002800F077860C9BCDF834B0C31A099399
S1134540CDF8289023EAE3730593CDF838B09DF8AD
S113455067C003E6A5F13000002113F8015B01EB0D
S1134560810100EB4101A5F130000928F5D908913A
S113457028E50693039B8DF8672043F0100303930B
S1134580039B9B063FF55FAF039BD80600F16B834B
S1134590039B590640F167830A99B1F900800431FD
S11345A04FEAE87942464B460A9158E71D78039949
S11345B06C2D00F0D38441F010010391194600E5FD
S11345C00A9D2968089108460028294601F104013A
S11345D0C0F2CB840A911D781946F2E4039941F0A4
S11345E0400103911D781946EBE40693039B43F0C5
S11345F010030393039B13F020037FF4F2AE039A9A
S113460012F0100240F01C83039B13F0400300F0EF
S113461017830A9913460A460432B1F800800A92B5
S11346204FF000095FE50693039B43F010030393E7
S1134630039B98063FF54CAD039BD90600F1098313
S1134640039B5A0640F105830A9AB2F800800432AB
S11346504FF0000901230A9245E50693224B129379
S1134660039B8DF867209B063FF50DAF039BD8068F
S113467040F1DC830A9A13461B689846039B043274
S1134680D9070A924FF000093FF50BAF02232AE540
S11346900A9906930A688DF89020002301220431B8
S11346A09C4605920A918DF8673024ABCDF834C04E
S11346B0CDF838C009920C9356E5039941F00801EE
S11346C003911D7819467CE4039941F0010103919B
S11346D01D78194675E4039941F0800103911D7812
S11346E019466EE4EC8F0000D88F0000A88F0000FC
S11346F0B88F00000693039B8DF8672013F0080F12
S11347000A9BD34603F1070900F0868329F00703C7
S113471093ED007B8DED107B03F108020A929DED71
S1134720100B02F00FFD012840F05A83DDE910015F
S11347300022002303F0D0FD002840F06B859DF893
S113474067C0039BBD4ADFF800E323F080030393B3
S1134750134603210020472DD8BF734605910D90C1
S11347600C9309910E90F9E40A9803990693302268
S113477003688DF868200246782541F0020104326E
S11347809846AF4B129303910A924FF000098DF8AB
S113479069500223A7E406938DF86720002D00F0EA
S11347A0D183002301229C4605928DF890507AE72C
S11347B0DDF88CB035E5012B7FF4ADACB9F1000F19
S11347C008BFB8F10A0F80F00D820DF1F80B08F163
S11347D030080BF8418DCBEB07030993CDF830B0CB
S11347E0B4E4652D40F3A080DDE91001002200232C
S11347F003F068FD002800F04481229B914A226066
S113480001330BF1010B0122072BCDF88CB022935D
S1134810626000F33F8308341B9B0F9A934203DBCF
S1134820039BDA077FF57BAD229B1499139A2260D0
S113483001338B44072BCDF88CB06160229300F3D5
S11348409B8308340F9B5D1E002D7FF768AD102DF0
S1134850229BDFF8F89140F3B9814FF010085A46D3
S1134860DDF810A004E00834103D102D40F3AD81B4
S113487001331032072B23922293C4F80090C4F81A
S11348800480F0DD5046314621AA02F0C9FC00281C
S11348907FF40AAC239A229B3C46E5E7089B059AE1
S11348A0C2EB030ABAF1000F7FF7E3ACBAF1100FC1
S11348B0229ADFF898912BDD49465B46A9464FF0D2
S11348C01008DDF810B00D4606E0AAF1100ABAF19E
S11348D0100F04F1080417DD01321033072A239363
S11348E0229284E82001F0DD5846314621AA02F0E4
S11348F097FC00287FF4D8ABAAF1100ABAF1100F84
S1134900239B229A3C46E7DC9B462B464D46994620
S11349100132D344072ACDF88CB0229284E80006F1
S113492000F351820834A4E40F9B229D012B40F331
S11349301F820C9B236001350BF101030122072D1B
S113494023932295626000F32582083414996160F0
S1134950013503EB010B072D139BCDF88CB0229589
S1134960236000F3238208340023DDE910010022D0
S113497003F0A8FC0F9B002840F0DD800C9A013B5B
S1134980013501329B44072D2295CDF88CB022606D
S1134990636000F30D810834159A62600135934415
S11349A01DAB072DCDF88CB0229523607FF7B6ACF4
S11349B00498314621AA02F033FC00287FF474AB3A
S11349C0DDF88CB03C46AAE4002B32D1039BD80717
S11349D02FD50DF1F80B30230BF8413DCBEB07033A
S11349E00993CDF830B0FFF7B1BB0498314621AA42
S11349F002F016FC00287FF457ABDDF88CB03C467F
S1134A007BE40498314621AA02F00AFC00287FF4D2
S1134A104BABDDF88CB03C4627E40498314621AA20
S1134A2002F0FEFB00287FF43FABDDF88CB03C467F
S1134A300AE4CDF824A00C97FFF788BBCC8F0000C4
S1134A40EC8F000008900000C88F0000A88F0000C1
S1134A501298BB464FEA181308F00F0143EA097392
S1134A604FEA191298469146435C0BF8013D58EA07
S1134A700903EFD15B46CDF830B0FB1A0993FFF779
S1134A8065BB1B9D002D40F311820F9A0E998A423B
S1134A901346A8BF0B461D460C99002D01EB020AD4
S1134AA00BDD229B21600133AB44072BCDF88CB086
S1134AB06560229300F3558308340E9B002DA8BF34
S1134AC05B1B002B1D4640F3F580102D229BDFF865
S1134AD0089640F3D2815A464FF01008DDF810B022
S1134AE004E00834103D102D40F3C6810133103228
S1134AF0072B23922293C4F80090C4F80480F0DDBD
S1134B005846314621AA02F08BFB00287FF4CCAA38
S1134B10239A229B3C46E5E70498314621AA02F0F9
S1134B207FFB00287FF4C0AA9DF867C0DDF88CB035
S1134B303C46FFF776BB03F1FF38B8F1000F7FF76F
S1134B402BAFB8F1100FDFF8909525DD5B464FF0E1
S1134B50100ADDF810B006E0A8F11008B8F1100F43
S1134B6004F1080417DD01351033072D2393229532
S1134B7084E80006F0DD5846314621AA02F050FBD5
S1134B8000287FF491AAA8F11008B8F1100F239B14
S1134B90229D3C46E7DC9B460135C344072DCDF8F6
S1134BA08CB02295C4F80090C4F804807FF7F3AE6B
S1134BB00498314621AA02F033FB00287FF474AA3A
S1134BC0DDF88CB0229D3C46E6E693460133AB44C7
S1134BD0072BCDF88CB02293C4F8009065607FF762
S1134BE09DABE5E6BB46CDF814C0404649460A22D3
S1134BF0002303F0C1FB3032404649460BF8012D37
S1134C0000230A2203F0B8FB8046894658EA0903C8
S1134C10EBD15B46FB1ADDF814C0CDF830B0099334
S1134C20FFF794BA302B0C9B3FF427AF013B1A4695
S1134C300C93BA1A3023099201F8013CFFF786BAA3
S1134C400A990A6804310A9190464FF00009FFF767
S1134C504ABA0A990A68043101230A9190464FF02E
S1134C600009FFF740BA0A9A136898464FEAE379B5
S1134C701346043342460A93002A4B4673F1000359
S1134C80BFF6F2AB4FF02D0CD8F1000869EB4909DF
S1134C908DF867C0CDF834A00123FFF72ABA049831
S1134CA0314621AA02F0BCFA00287FF4FDA9DDF800
S1134CB08CB03C460C9A0E991B9B0A4490460F9A62
S1134CC0934246DB039AD00743D40F9AC8EB0A05F4
S1134CD0D31A9D42A8BF1D46002D0CDD229AC4F8AC
S1134CE000800132AB44072ACDF88CB06560229273
S1134CF000F36F820834002DACBF5D1B1D46002DF0
S1134D007FF70DAB102D229BDFF8CC937FF75EAFBE
S1134D104FF010085A46DDF810A004E00834103DA6
S1134D20102D7FF752AF01331032072B23922293B9
S1134D30C4F80090C4F80480F0DD5046314621AA3E
S1134D4002F06EFA00287FF4AFA9239A229B3C4616
S1134D50E5E7229A14981399216001328344072AC3
S1134D60CDF88CB06060229200F307820834ACE77F
S1134D70039BD9073FF5DDAD0C9B236001350BF197
S1134D80010B0123072DCDF88CB0229563607FF7CA
S1134D9002AE0DE70498314621AA02F041FA002838
S1134DA07FF482A9239B229D3C46CFE5049831469B
S1134DB021AA02F035FA00287FF476A9DDF88CB038
S1134DC0229D3C46D0E50498314621AA02F028FAF7
S1134DD000287FF469A9DDF88CB03C46FFF749BA96
S1134DE09DED100B02F0AEF9002840F0D18086460C
S1134DF0B64AB74B0D9003989DF867C0CDF838E0DC
S1134E00032120F08000472DD8BF1A460591039056
S1134E100C920991FFF7A2B929F0070999ED007BDB
S1134E2009F108038DED107B0A9378E4039B0A9A39
S1134E3013F0400F13463FF41FAC0433B2F8008064
S1134E400A934FF00009FFF728BB039BDB060BD442
S1134E50039B5D0608D50A9A136804320A92BDF8CA
S1134E601C201A80FFF77FB80A9A136804320A924A
S1134E70079A1A60FFF777B893460133AB44072BC0
S1134E80CDF88CB02293C4F8009065603FF707AF6B
S1134E9008340FE70498314621AA02F0C1F900282A
S1134EA07FF402A9DDF88CB03C46B5E4229B894A24
S1134EB0226001330BF1010B0122072BCDF88CB0DA
S1134EC02293626000F3F18008342DB90F9B1BB963
S1134ED0039BDB077FF523AA229B1498139A226075
S1134EE001330BEB0001072B23916060229300F345
S1134EF0EF8104F108026D42002D40F3FA80102D79
S1134F00DFF8D49140F346811024DDF8108004E0EA
S1134F100832103D102D40F33D8101331031072B31
S1134F2023912293C2F800905460F1DD404631464B
S1134F3021AA02F075F900287FF4B6A82399229BD0
S1134F403A46E6E7239BB146002B3FF4AEA804980B
S1134F50314621AA02F064F9FFF7A7B841F0200115
S1134F6003915D78591CFFF72CB808980A914042C8
S1134F7008901946FFF729BA0498314621AA02F08D
S1134F804FF900287FF490A8DDF88CB03C4659E432
S1134F9025F02003BAF1FF3F059300F09380472BDF
S1134FA005D1BAF1000F14BFD3464FF0010B119B8A
S1134FB0039A002B42F480720B92C0F2A4819DEDFF
S1134FC0107B8DED167B4FF0000A662D00F0AC804F
S1134FD0462D00F0A980059B0498452B0CBF0BF1CE
S1134FE00109D9461CAA1FAB8DE80C009DED160BD8
S1134FF002214A461BAB00F0DFFA672D0C9002D069
S1135000472D40F09F80039BDB0740F192810C9B6E
S113501003EB0908DDE916010022002303F052F92D
S1135020002840F0FD801F9B984506D930215A1C6A
S11350301F9219701F9B9845F9D80C9A9B1A0F93CD
S1135040059B472B1B9B00F0DE80652D40F3F88009
S1135050662D0E9300F060810F9B0E9A934200F32D
S11350604481039BD90700F1668122EAE273099225
S1135070BAF1000F40F0BC8005930B9B0393CDF86D
S113508034A09DF867C0FFF769B80498402101F087
S1135090E9F9C9F80000C9F81000002800F0978168
S11350A04023C9F81430FEF74FBF0498314621AAB3
S11350B002F0B6F800287EF4F7AF1B9DDDF88CB043
S11350C03C4602E74FF0060B71E700BFD48F0000A7
S11350D0D08F000008900000A88F0000049831468B
S11350E021AA02F09DF800287EF4DEAF2399229BCA
S11350F03A460F9C5460013301EB040B072B0C99C7
S1135100CDF88CB0229311603FF752AC02F1080441
S1135110FFF705B9CDF834B002F054F8CDF8289073
S113512009900346FFF70EBA1CAA1FAB8DE80C00CA
S113513004989DED160B03215A461BAB00F03CFA74
S1135140D9460C900C9B03EB0908059B462B7FF476
S113515061AF0C9B1B78302B00F003811B9B9844A0
S113516058E70498314621AA02F05AF800287EF440
S11351709BAFDDF88CB03C469FE40498314621AAED
S113518002F04EF800287EF48FAF1B9BDDF88CB044
S11351903C469AE501332944072B23912293C2F814
S11351A0009055609ADC0832A3E75346062B28BFCB
S11351B00623099323EAE373DDF830C00593874B94
S11351C0CDF82890CDF834C0CDF838C00C93FEF754
S11351D0C5BF0498314621AA02F022F800287EF4C3
S11351E063AF1B9B0F9ADDF88CB0D31A3C4682E563
S11351F005930B9B03934FF02D0C00238DF867C090
S11352000D93FEF7AEBFDA1C19DB9B4517DB0E933B
S1135210672521E74FF02D0C8DF867C0FFF791BA91
S113522043460AE72AEAEA730D90CDF828900E90D7
S11352309DF867C00593CDF824A0FEF78FBF023D0B
S1135240013B002B1B93BABF5B422D222B22092B5F
S11352508DF874508DF875207BDD0DF1830E70464A
S11352605F4A82FB0321DA17C2EBA10202EB82013F
S1135270A3EB410303F13001092A134600F8011D91
S1135280EEDC02463033D9B202F8011D964540F2F5
S11352909B800DF17602034601E013F8011B02F82E
S11352A0011B7345F9D121AB1B1A0DF1760213448E
S11352B01DAA9B1A0F9A1593012A1344099374DDAE
S11352C0099B0022013309930E9223EAE373CFE68C
S11352D00498314621AA01F0A3FF00287EF4E4AE2D
S11352E01B9D2399229B3A4605E60E9B002BD8BFB3
S11352F0C3F102080F9BC8BF4FF001084344099350
S113530023EAE373B4E6DDE9100101F100431690EA
S113531017934FF02D0A58E6002B3DDDBBF1000F2B
S11353200FD1039BDB070CD40E9A099222EAE27395
S11353309EE61F9B81E60E9B0133099323EAE373E8
S113534096E60E9B0BF101084344099323EAE373A9
S11353508EE6303330228DF877308DF876201EAB10
S1135360A6E7DDE916010022002302F0ABFF0028C6
S11353707FF4F4AEC9F101031B9398444AE60A9DF5
S1135380D5F800A028460430BAF1000F5D780A90E1
S1135390BEF617AEFEF713BEBBF1000F0ED1039B92
S11353A0D8070BD40123099362E6039B13F001038E
S11353B086D10E93099B23EAE37359E60BF10203AA
S11353C0099323EAE37353E60DF1760370E7049A35
S11353D00C2313604FF0FF30FEF770BE0090000006
S11353E0676666662DE9F047254C2568D5F848417F
S11353F00646884692469946CCB360681F2818DC56
S1135400431C7EB104EB80050121C5F888A0D4F8C3
S1135410887101FA00F21743022EC4F88871C5F8A6
S113542008911ED00230636044F820800020BDE85B
S1135430F087144B03B34FF4C870AFF300800446F5
S1135440D0B1D5F84831002780E88800C5F8484134
S113545038460123C4F88871C4F88C71002EE1D059
S1135460D0E7D4F88C110A43C4F88C21DAE705F5A7
S1135470A674C5F84841C0E74FF0FF30BDE8F08797
S1135480A48F00000000000002690B69934200F33E
S11354908F802DE9F04F03F1FF3801F1140700F17B
S11354A0140B57F828205BF828304FEA880483B09F
S11354B00132B3FBF2F90BEB0403009407EB040A8B
S11354C00193B9F1000F3BD000263246BC46DE46BC
S11354D034465CF8046BDEF80050B3B2360C03FBC0
S11354E0094406FB09F606EB1446A3B2D31AB4B278
S11354F013FA85F3C4EB154404EB23449BB243EA4B
S11355000443E2454FEA24424EF8043B4FEA164472
S1135510DFD2009B5BF8033093B9019C231F9B45AA
S11355200CD254F8043C4BB9A4F1080302E01A6805
S1135530043B1AB99B4508F1FF38F8D3C0F8108032
S1135540044601F013FD00282EDB09F101095D4634
S1135550002357F8041B28688AB29A1A090C12FA15
S113556080F2C1EB104303EB224391B241EA0341C1
S1135570BA4545F8041B4FEA2343EAD25BF82820D6
S11355800BEB880382B91A1F93450BD253F8042CF2
S113559042B9083B02E01A68043B1AB99B4508F17A
S11355A0FF38F8D3C4F81080484603B0BDE8F08F44
S11355B000207047FFFFFFFF2DE9F04F99B004462C
S11355C00391016C229D049392468DED000B41B131
S11355D0426C4A60012393408B6001F0E3FA00239C
S11355E02364DDE90023002B994636DB00232B607E
S11355F0A54B1A4609EA0303934217D0DDE9006775
S1135600002200233046394602F05CFE8046002822
S11356102BD0049A01231360239B002B00F0CC8031
S11356209A481860013819B0BDE8F08F049A42F224
S11356300F731360009B002B00F0A7809448239BFA
S1135640002BF0D0C378002B00F0B88000F10803E1
S1135650239A136019B0BDE8F08F019A012322F058
S113566000492B60CDF80490C2E7204647EC106B4C
S113567017A916AA01F008FD5FEA1955834640F000
S11356808D80DDF85880179D6FF4826345449D42F8
S1135690C0F29E827F4A521B09FA02F9009A05F26F
S11356A0124322FA03F049EA000002F02DFB012321
S11356B0013DA1F1F8710F930022774B02F0E6F956
S11356C06BA3D3E9002302F095FB6BA3D3E900237A
S11356D002F0DEF9064628460F4602F025FB68A3D1
S11356E0D3E9002302F086FB02460B4630463946D6
S11356F002F0CEF906460F4602F016FE3946059032
S113570000223046002302F0E7FD002840F0AB8180
S1135710059B162B00F2A481059A604B03EBC20390
S1135720D3E90001DDE9002302F0F4FD002800F0D4
S11357305582059B013B059300230D93C5EB08059A
S11357406B1E069300F1A68100230793059B002B93
S1135750C0F29781069A0C931146194400230691CE
S11357600A93039B092B2BD8052B40F37386043B28
S113577003930027039B023B032B00F25186DFE8CF
S113578013F0D103C403B6026606414B444AC9F37D
S11357901300002814BF1846104650E7C7F313033C
S11357A043F07F51CDF83C803046A5F2FF3541F4FB
S11357B04011DDF858807FE73A4834E7C31C47E7D7
S11357C00021616420468A46039101F0C5F94FF037
S11357D0FF3308930E930123099020640B93179BC6
S11357E0002BC0F2D380059A0E2A00F3CF802B4BF6
S11357F0BAF1000F03EBC203D3E90089C0F2958329
S1135800DDE9006742464B463046394602F01CFC4F
S113581002F08AFD824602F087FA42464B4602F0C5
S1135820E9FA0B4602463946304602F02FF9099D43
S11358300AF130032B70089B012B06460F4605F135
S1135840010563D00022184B02F0D4FA0022002391
S113585006460F4602F036FD002840F08480CDF85D
S113586000B00394DDF824B0089C2AE0AFF3008074
S113587061436F63A787D23FB3C8608B288AC63F52
S1135880FB799F501344D33F0000F07F0990000040
S1135890189000000EFCFFFF0000F83F2890000065
S11358A00C900000089000000000244002F0A2FACE
S11358B00022002306460F4602F004FD002840F0B3
S11358C0E48342464B463046394602F0BDFB02F0C3
S11358D02BFD824602F028FA42464B4602F08AFA31
S11358E002460B463046394602F0D0F80AF1300E33
S11358F005F801EBCBEB050E744506460F464FF059
S11359000002B74BD2D1DDF800B0039C32463B46CF
S11359103046394602F0BCF806460F464046494632
S113592032463B4602F0D8FC48B940464946324626
S11359303B4602F0C7FCB0B11AF0010F13D015F8C2
S1135940018C09996B1E04E08B4200F0488413F823
S1135950018DB8F1390F03F101051A46F4D008F1AD
S11359600103DBB213702046594601F01BF90022F3
S1135970059B2A70049A01331360239B002B00F0CB
S11359804B8309981D6019B0BDE8F08F0B9A002A6B
S113599000F08580039A012A40F30A83089B5F1E66
S11359A00A9BBB42C0F2A683DF1B089B002BC0F2FC
S11359B0A484079D089B079A1A440792069A2046D6
S11359C01A440121069201F087F9064665B1069949
S11359D000290B4608DDA942079AA8BF2B46D21A14
S11359E0ED1ACB1A079206930A9B002B1ADD0B9B28
S11359F0002B00F07883002F10DD31463A46204614
S1135A0001F00EFA06465A463146204601F06EF978
S1135A1059468046204601F0C5F8C3460A9BDA1B66
S1135A2040F0A5822046012101F056F90C9B002B81
S1135A30804638DD01461A46204601F0F1F9039B01
S1135A40012B804640F399824FF00009D8F81030BA
S1135A5008EB8303186901F0F1F8C0F120002CE091
S1135A6001230D936AE6059802F05EF932463B463F
S1135A7002F028FC00287FF44BAE059B013B059304
S1135A8046E6079A059BD21A5B420A9300230792C3
S1135A900C9366E65B4207930023069356E60A9F3F
S1135AA0079D0B9E92E7039B012B40F3B8824FF0B6
S1135AB000090C9B002BC9D10120069B184410F04F
S1135AC01F0000F08380C0F12003042B40F3B9844D
S1135AD0C0F11C00079B03440793069B0344054441
S1135AE00693079B002B05DD59461A46204601F014
S1135AF0E7F98346069B002B05DD41461A462046FE
S1135B0001F0DEF980460D9B002B40F06A82089B71
S1135B10002B40F397820B9B002B71D1DDF824906E
S1135B20089F4D4602E001F047F883464146584637
S1135B30FFF7AAFC00F1300C05F801CBC9EB050313
S1135B40BB42204659464FF00A024FF00003EADBFD
S1135B50099B089A012AACBF9B1801331D464FF0DC
S1135B60000A594601222046CDF800C001F0A8F9E8
S1135B704146834601F0FAF90028DDF800C040F3FD
S1135B80EF8215F8012C09996B1E04E08B4200F09A
S1135B90758213F8012D392A03F10105F6D001327B
S1135BA01A704146204600F0FDFF002E3FF4DBAEA4
S1135BB0BAF1000F05D0B24503D05146204600F09B
S1135BC0F1FF3146204600F0EDFFCCE61C2081E7D2
S1135BD0044B009A5B1B02FA03F066E50D90ADE5F9
S1135BE000002440EEFBFFFF3146002320460A223A
S1135BF000F0E2FF0E9B002B064640F30B84089353
S1135C00002D05DD31462A46204601F059F90646A5
S1135C10B9F1000F40F0ED82B146089B099A013BAF
S1135C20D3180893009B03F001030A9317464146D7
S1135C305846FFF729FC31460546584601F096F9C7
S1135C404A4682464146204601F0B4F9C2680346FA
S1135C5005F1300C002A40F0BA8119465846CDF8B7
S1135C601CC0069301F082F9069B00901946204659
S1135C7000F098FF009ADDF81CC02AB9039B1BB9F9
S1135C800A9B002B00F0AA83BAF1000FC0F24A82EB
S1135C9005D1039B1BB90A9B002B00F04382002A09
S1135CA000F3BB82089B87F800C007F1010A9F42FA
S1135CB0554600F0BE8259460A220023204600F0D1
S1135CC07BFF4E458346314620464FF00A024FF093
S1135CD0000300F0768100F06FFF494606460A2271
S1135CE02046002300F068FF574681469FE70123C2
S1135CF00B93BAF1000F40F30C8256465546CDF88B
S1135D0038A0CDF820A00021172E61640AD9012201
S1135D1004235B0003F114008642114602F10102E0
S1135D20F7D26164204600F017FF0E2D099020641D
S1135D303FF655AD002F3FF452AD9DED007B059924
S1135D4000298DED107B40F32382B74B01F00F0245
S1135D500D1103EBC203E906D3E9006740F1D281D8
S1135D60B24B51EC170BD3E9082302F06DF9CDE9DE
S1135D70000105F00F054FF003088DB1DFF8AC9278
S1135D8030463946EA0705D5D9E9002302F032F84E
S1135D9008F101086D1009F10809F3D106460F4610
S1135DA0DDE9000132463B4602F04EF9CDE900013F
S1135DB00D9B43B1DDE9000100229D4B02F08CFAFA
S1135DC0002840F0AE82404601F0AEFFDDE900233A
S1135DD002F010F8974B002201F05AFE089B064689
S1135DE0A1F15077002B00F06281059BDDF8209033
S1135DF014930B9B002B00F023828B4B8E4903EBF7
S1135E00C90353E90223002002F01EF932463B463F
S1135E1001F03CFEDDE90067CDE912013946304668
S1135E2002F082FA054601F07FFF303502460B4648
S1135E303046394601F02AFE5FFA85F8099DDDE90E
S1135E40122385F8008006460F46013502F044FA15
S1135E50002840F0A78232463B460020744901F0F6
S1135E6015FE02460B46DDE9120102F053FA002842
S1135E7040F0AD82B9F1010F40F38481099BCDF864
S1135E8000B0CDF854A09944A046DDE912AB0DE072
S1135E900020674901F0FAFD52465B4602F01CFA05
S1135EA0002840F08F824D4500F0678150465946E6
S1135EB00022624B01F09EFF0022604B82468B461B
S1135EC03046394601F096FF0F46064602F02CFA9A
S1135ED0044601F029FF02460B463046394601F0DC
S1135EE0D5FD3034E4B252465B4605F8014B064614
S1135EF00F4602F0F1F932463B460028C8D0149B05
S1135F00DDF800B0059344462DE500230B93059B73
S1135F1053440E930133002B089340F30181089DF1
S1135F202E46F0E600230B93E3E6089B002B3FF795
S1135F3067AC40F0D48040460022414B494601F012
S1135F4059FFDDE9002302F0DBF9DDF82080464645
S1135F50002800F08B806FEA0A03099D05934146EF
S1135F60204600F01FFE002E7FF42BAEFBE45946C2
S1135F70204600F055FF834654E5009B002B7FF438
S1135F8063AD019BC3F31303002B7FF490AD019B1E
S1135F9023F000473F0D3F05002F00F01C82079BB4
S1135FA001330793069B013306934FF0010980E503
S1135FB00F9A002A00F0A78103F233430A9F079D3A
S1135FC0F9E400F0F9FD5746064681462FE60146FE
S1135FD02046CDF800C000F0E5FD0122DDF800C048
S1135FE052E65846414600F0C1FF0028BFF68FAD87
S1135FF0059F5946002320460A22013F059700F0D9
S1136000DBFD0B9B8346002B7FF4EEAD0E9B002B38
S113601040F3F581089381E50998FFF704BB009BE1
S1136020002B7FF444ADACE7289000000091000001
S11360300000F03F00001C400000E03F000024404E
S113604000001440039B022B7FF765AD089B002BD7
S113605081D141460522204600F0AEFD80464146EE
