S0120000546872656164554152542E737265637E
S11300002831FE1F21370000C93200001D370000CF
S11300101D3700001D3700001D37000000000000E0
S11300200000000000000000000000001D37000078
S11300301D37000000000000E9520000B953000021
S11300409D1900005D1900003D1A0000F11900001F
S1130050000000000000000000000000000000009C
S1130060000000000000000000000000000000008C
S1130070000000000000000000000000000000007C
S1130080000000000000000000000000000000006C
S1130400FFFFFFFFFFFDFFFFFFFFFFFFFFFFFFFFFA
S1130410FFFFFFFFFFFFFFFFFFFFFFFFFFFFFFFFE8
S1130420FFFFFFFFFFFFFFFFFFFFFFFFFFFFFFFFD8
S1130430FFFFFFFFFFFFFFFFFFFFFFFFFFFFFFFFC8
S1130440FFFFFFFFFFFFFFFFFFFFFFFFFFFFFFFFB8
S1130450FFFFFFFFFFFFFFFFFFFFFFFFFFFFFFFFA8
S1130460FFFFFFFFFFFFFFFFFFFFFFFFFFFFFFFF98
S1130470FFFFFFFFFFFFFFFFFFFFFFFFFFFFFFFF88
S1130480FFFFFFFFFFFFFFFFFFFFFFFFFFFFFFFF78
S1130490FFFFFFFFFFFFFFFFFFFFFFFFFFFFFFFF68
S11304A0FFFFFFFFFFFFFFFFFFFFFFFFFFFFFFFF58
S11304B0FFFFFFFFFFFFFFFFFFFFFFFFFFFFFFFF48
S11304C0FFFFFFFFFFFFFFFFFFFFFFFFFFFFFFFF38
S11304D0FFFFFFFFFFFFFFFFFFFFFFFFFFFFFFFF28
S11304E0FFFFFFFFFFFFFFFFFFFFFFFFFFFFFFFF18
S11304F0FFFFFFFFFFFFFFFFFFFFFFFFFFFFFFFF08
S113050010B5054C237833B9044B13B10448AFF349
S113051000800123237010BD0008FE1F00000000AE
S113052028610000084B10B51BB108480849AFF317
S113053000800848036803B910BD074B002BFBD0AB
S1130540BDE81040184700BF00000000286100000B
S11305500408FE1F5C04FE1F00000000024B1B6821
S113056003600020704700BFD45A0000F0B50E6845
S1130570746823680460013B022B8BB050D9054694
S113058029490022342304F1280003F011FB342309
S11305902649002204F15C0003F00AFB22492422CC
S11305A004F1900003F06AFA2049242204F1B40013
S11305B003F064FA3C2238238DE80C001B49012225
S11305C004F5887304F1D80003F0A8FB3368DFF85E
S11305D060C0D3F804E0DEF80000DEF80410DEF8B2
S11305E00820DEF80C3002AF0FC7DEF81000DEF88A
S11305F01410DEF81820DEF81C300FC73368089595
S11306009B68CDF81CC002A91B6804F10800984738
S113061020B9326801239268626023600BB0F0BD98
S113062008200BB0F0BD00BFBC5A0000C85A00003F
S113063035060000017970B5C46801F0020303F0C7
S1130640FF0225684BB90B0605F1B4060DD43046FC
S11306500022BDE8704003F095BA05F190063046DB
S11306600022BDE8704003F08DBA044604F108018D
S113067005F1D80003F0DAFB217930460022BDE809
S1130680704003F07FBA00BF38B50468636804F1B2
S113069008005B699847054604F1280003F0E0FA76
S11306A004F15C0003F0DCFA04F1900003F032FA88
S11306B004F1B40003F02EFA00232846236038BD69
S11306C0006808B50368012B01D0082008BD19B1E2
S11306D0012909D0002008BD2830114603F0D6FABC
S11306E00028F7D0142008BD5C30114603F0CEFA80
S11306F00028F7D1EEE700BF00680368012B01D0A2
S11307000820704710B50C4619B1012906D0002005
S113071010BD283003F0E6FA204610BD5C3003F02B
S1130720E1FA002010BD00BF2DE9F0430468206801
S113073085B018B9082005B0BDE8F08304F1280895
S11307400D46404619461F46164603F09FFA18B157
S1130750142005B0BDE8F083A146032349F8903B7B
S11307600221009003AB0122484603F0E9F96368D3
S1130770294632469B6804F108009847054620B193
S1130780404603F0AFFA2846D5E70097484603AB46
S11307900221012203F0D4F9054608B16425EFE7EC
S11307A0404603F09FFA012328462360C3E700BFB5
S11307B0F0B51F4683B01B68002401940D4604461F
S11307C01646C3B1D834204601A9002203F00EFB1B
S11307D028B10A280CBF0020642003B0F0BD3A6899
S11307E0019BB21AAB543A68013A3A60002AEAD142
S11307F0002003B0F0BD1A46B430802103F0C2F9E2
S11308000028E6D13B68002BDCD1F1E72DE9F04765
S1130810066884B03068039218B9082004B0BDE8B3
S1130820F08706F15C098846484619461F46154676
S113083003F02CFA18B1142004B0BDE8F0870223A9
S11308403360304603AB41462A46FFF7B1FF044606
S113085020BB039C002C45D106F1B40AFD210122E2
S113086002AB5046002C32D0009703F069F90028FF
S113087033D1029B13F0400F14BFCB24002413F098
S1130880200F18BF0C2413F0080F18BFC8245807F2
S113089009D513F0100F14BFC924CA24484603F025
S11308A021FA2046BAE7D90608D4002CF6D1DA0793
S11308B048BF03941B0603D4039CCFE7C924EDE788
S11308C0304641462A4603ABFFF772FFF4E7484639
S11308D003F008FA98B16420A0E7484603F002FA4E
S11308E014209BE77368291B22465B68414406F188
S11308F00800984704460028D0D1039CACE70123A4
S1130900204633608AE700BF00F01F01012340093D
S1130910024A8B4042F82030704700BF00E100E0FB
S11309204309203300F01F0001220249824041F8AC
S11309302320704700E100E020B319B330B54368C9
S1130940002283B005460C464A600A60E3B19A6807
S1130950AAB192699AB118686946904780B9009B18
S11309606360A868A0B183684BB19B693BB1006820
S11309706946984720B9009B236003B030BD01202D
S113098003B030BD012070474FF0FF334B60E8E700
S11309904FF0FF332360F3E7012303704370837048
S11309A0C3700020704700BF08B338B50446006820
S11309B0104A0301D35C012B05D00025A56100F08A
S11309C053FF284638BD63682BB19A686AB118682A
S11309D058B1D3699847A3682BB19A682AB11868AB
S11309E018B1D36998472068E7E7012038BD012092
S11309F0704700BF1C0EFE1F58B151B170B405689A
S1130A00124E2C01345D013C042C04D9052070BC29
S1130A1070470120704705F1007505F560556D01BB
S1130A20AC79E40608D562B143689A685AB118688B
S1130A30B0FA80F04009EAE71943CB07F3D5032065
S1130A40E5E71046E3E70120E1E700BF1C0EFE1FC7
S1130A502DE9F04113461446426805460E46FFF759
S1130A60CBFF88B994B12B68174F03F1007101F5DE
S1130A70605149011B018A79FB5C12F0100F14BF0D
S1130A8001220222012B04D0BDE8F0812046BDE8FA
S1130A90F08168680028F7D0B4FBF2F4836800683A
S1130AA04FF6FF77BC4228BF3C465F68022A4FF0EE
S1130AB0010E3246A3B285F814E0BC460CBF1031D7
S1130AC01131BDE8F04160471C0EFE1F0AB9032036
S1130AD0704700297CD12DE9F04F514B514F5E698D
S1130AE085B042F21078144601900D468B46C146FB
S1130AF04FF0FF0A002003A9B0470BEB4B0300287B
S1130B0040F0898037F81330039ADFF818C104FBEA
S1130B1003F3B2FBF3FE0EF1FF31BEF1000F12D06E
S1130B2003FB0EF3520AFF2909FB02F24FEA532397
S1130B3009D8B2FBF3F2A2F51C53103B434502DA89
S1130B4098468A465D460BF1010BBBF10D0FD1D1DE
S1130B5042F2107398455ED0019B03F1007303F5D4
S1130B6060535B0105EB45059A780CEB450C5FFA85
S1130B708AFA22F003029A7083F801A0DA799CF8C9
S1130B80021022F0400201F0010142EA8112DA71FE
S1130B90DA799CF8031022F0100201F0010142EA14
S1130BA00112DA71DA799CF8041022F0080201F0DB
S1130BB0010142EAC102DA719CF805201C7802F0B6
S1130BC0030124F003020A431A7005B0BDE8F08F54
S1130BD000F1007000F560504001FF234370C379B9
S1130BE023F04003C371C37923F00803C37103786E
S1130BF023F003030370837823F0030343F0020319
S1130C008370C37902290CBF43F0100323F010034F
S1130C10C37100207047032005B0BDE8F08F00BF0A
S1130C20DC5B0000D85A0000F0B5134683B01546CB
S1130C30826804460E46FFF7DFFE10B9E06810B183
S1130C40082003B0F0BD23682F491A018F188A5C6D
S1130C50012AF6D1797801B97A7003F1007303F5AA
S1130C6060535A01A168937913F0100F14BF012344
S1130C700223002945D0012D43D9022BA5EB030003
S1130C804FF6FF77B5FBF3F5236105F1FF330CBF96
S1130C900E320F328D68BB42304428BF3B46E060C1
S1130CA06D6808689BB23146A8470028C9D12268FC
S1130CB002F1007202F560525201937843F020036E
S1130CC093702468002C14BF04200120FFF71CFE3D
S1130CD004F1007303F560535B0100209A78D2B2EB
S1130CE08DF807209A78D2B28DF807209A78D2B27C
S1130CF08DF807209A7862F07F029A709DF8073089
S1130D009FE7E6602561D8E71C0EFE1F002800F06F
S1130D10968070B5066882B004460D46002E7ED0DB
S1130D200420FFF7FDFD0420FFF7FAFD0420FFF780
S1130D30F7FD0420FFF7F4FD06F1007303F560539B
S1130D405B019A78D2B28DF806209A78D2B28DF8E7
S1130D5006209A78D2B28DF806209A7802F07F02A3
S1130D609A709A7822F004029A709A7822F04002DB
S1130D709A7023689DF8062003F1007303F560530D
S1130D805B019A7802F0DF029A70236803F1007322
S1130D9003F560535B019A7802F0EF029A702068C1
S1130DA000F1007303F560535B01997811F00301BE
S1130DB005D0DB7913F0100F14BF022103212A465A
S1130DC0FFF784FE236803F1007303F560535B01AE
S1130DD005469A7842F010029A70246854B30420AD
S1130DE0FFF792FD0420FFF78FFD04F1007303F574
S1130DF060535B0128469A78D2B28DF807209A781E
S1130E00D2B28DF807209A78D2B28DF807209A785A
S1130E1042F040029A709DF8073002B070BD012084
S1130E20FFF77EFD0220FFF77BFD3046FFF778FDDC
S1130E3003207FE72046FFF767FD0320D3E7012067
S1130E40704700BF2DE9F04F87B0A8B1A1B10646A5
S1130E5008680C4600F07CFD48B92068194F03016E
S1130E60FB5C73B10825284607B0BDE8F08F054642
S1130E70284607B0BDE8F08F0125284607B0BDE835
S1130E80F08F237A022B04D90325284607B0BDE846
S1130E90F08FA37A012BF7D8637A022BF4D8D4F815
S1130EA01C80B8F1000F07D098F80030002B40F0F8
S1130EB030836368002BE7D000F0BAFC054618B114
S1130EC00A25D0E71C0EFE1FE3682269B260736036
S1130ED0002B44D0D3F808C0BCF1000FCCD0D3F819
S1130EE00090B9F1000FC7D05A68002AC4D0136823
S1130EF0002BC1D0D878997894F808E04FF0020A12
S1130F0065F387106AF3830165F3830065F3451184
S1130F10D645D870997000F07582D97865F30511BB
S1130F20D970D4F800A0BAF1000FA5D19646BEE856
S1130F300F000DF1040BABE80F00DEF80030CBF826
S1130F4000304FF4BA72DCF800308DF80AA048463D
S1130F50ADF8082001A99847002888D12269002A01
S1130F6047D0D2F808E0BEF1000F85D0D2F800C017
S1130F70BCF1000F80D05268002A3FF47DAF1368A3
S1130F80002B3FF479AFD878997894F808904FF013
S1130F90020A00F03F0001F0F3016AF383006FF3EB
S1130FA04511D145D870997000F0AD82D9786FF3AE
S1130FB00511D970D4F800A0BAF1000F7FF45CAF2A
S1130FC09146B9E80F000DF1040BABE80F00D9F816
S1130FD00030CBF8003040F27512DEF800308DF8A6
S1130FE00AA06046ADF8082001A9984700287FF4BC
S1130FF03EAF0120D4F8009002F0DEFAB54AC9F100
S11310001F0913684FF0010A0AFA09F123EA0103E0
S11310101360504602F0ACFA236803F1007303F541
S113102060535B0106221A77D4F80090B9F1000FDF
S113103040F0BC815046FFF773FC0220FFF770FCC0
S11310404846FFF76DFC0320FFF76AFC09F10073C3
S113105003F560535B019A78D2B28DF803209A7835
S1131060D2B28DF803209A78D2B28DF803209A7800
S113107002F07F029A709A7822F004029A709A78A9
S113108022F040029A7023689DF8032003F1007354
S113109003F560535B019A7802F0EF029A702368BB
S11310A003F1007303F560535B019A7802F0DF02E9
S11310B09A70236803F1007303F560535B019A8A05
S11310C022F001029A82236803F1007303F560534E
S11310D05B019A8A42F002029A822369002B00F093
S11310E00782236803F1007303F560535B019A8A56
S11310F022F470629A82236803F1007303F560534B
S11311005B019A8A6FEA02526FEA12529A8222684B
S113111002F1007202F560525201938A43F0040313
S11311209382938A5907FCD42369002B00F095819C
S1131130236803F1007303F560535B019A8A22F07C
S1131140F0029A82B8F1000F00F0198198F8023089
S1131150002B00F04C81236803F1007303F5605306
S11311605B01DA7962F07F02DA7198F80330002BC0
S113117000F00F81236803F1007303F560535B01F2
S11311800021DA7942F02002DA7119722368D4F866
S11311901C8003F1007303F560535B015A7A22F05B
S11311A001025A72236803F1007303F560535B0173
S11311B05A7B02F07F025A73236803F1007303F52C
S11311C060535B015A7B22F040025A73637A002B0E
S11311D000F00281236803F1007303F560535B019F
S11311E01A7842F020021A70637A012B236803F103
S11311F0007303F560534FEA43131A780CBF42F0AF
S1131200100222F010021A70237A012B00F00081E0
S1131210022B236803F1007303F560534FEA431371
S11312201A7822F040021A709A790CBF22F0100248
S113123042F010029A71A37A012B236803F1007320
S113124003F560534FEA43131A780CBF42F00802C7
S113125022F008021A70E37A002B00F0B2802368AF
S113126003F1007303F560535B015A7B42F0020201
S11312705A73B8F1000F00F0FB8098F8001029B100
S1131280022903D003290CBF0321002194E805009F
S1131290FFF71CFC032800F0F38098F80130002BC2
S11312A040F0C580236803F1007303F560535B01CC
S11312B09A78997802F0020221F003010A439A70A5
S11312C0226802F1007202F560525201938A9B0770
S11312D0FCD401E000700440938AC3F38003002B24
S11312E0FAD1918A41F001019182226802F10072DF
S11312F002F5605252014FF0010E918A21F008016B
S113130091822268A069616932604FEA021802F191
S1131310007207EB080C02F56052F061B161F360F2
S113132033613375520107F808E08CF80130CCF8CA
S11313300460937843F0100393702468002C00F049
S113134087800420FFF7E0FA0420FFF7DDFA04F1B8
S1131350007303F560535B019A78D2B28DF80420D0
S11313609A78D2B28DF804209A78D2B28DF80420FB
S11313709A7842F040029A709DF8043073E523682D
S113138003F1007303F560535B01DA7902F07F0225
S1131390DA71236803F1007303F560535B010021E4
S11313A0DA7922F02002DA711972EFE60420FFF7ED
S11313B0B7FA0420FFF7B4FA0420FFF7B1FA0420C7
S11313C042E6236803F1007303F560535B015A7B23
S11313D022F002025A734CE7236803F1007303F509
S11313E060535B011A7822F020021A70FCE623682D
S11313F003F1007303F560535B01DA7902F07F02B5
S1131400DA71B2E6C1B2012060F30511D97088E542
S1131410236803F1007303F560535B011A7842F00B
S113142040021A709A7942F010029A7103E7236815
S113143003F1007303F560535B019A78997802F025
S1131440030242F0010221F003010A439A7037E7D4
S11314502046FFF759FA032077E7236803F1007366
S113146003F560535B019A8A42F0F0029A8269E6BE
S1131470414694E80500FFF729FB03287FF412AFE7
S1131480236803F1007303F560535B019A7899783C
S113149002F0020221F003010A439A7073681BB13F
S11314A09A681868D3699847B3681BB19A68186832
S11314B0D3699847236803F1007303F560535B0114
S11314C00120DA7902F07F02DA71256802F074F8FB
S11314D0124A01201368C5F11F0500FA05F10B43F8
S11314E0136002F045F8206800F0B4F90325BAE46B
S11314F0236803F1007303F560535B019A8A42F495
S113150070629A82F7E5C1B2012060F30511D970C7
S113151050E5023B012B3FF6B7ACCDE4007004402C
S1131520554B03EB0013F0B55C682268A76800F123
S1131530007502F1007202F5605305F560555B0118
S11315406D0183B0EE8A997911F0100FC6F3042E61
S113155014BF01210221002F5BD0BEF1000F0FD177
S1131560E26816781A79D209FCD0B2B2DA8123691A
S1131570E2685B1A11442361E16023B103B0F0BD5A
S11315802369002BFAD168BB0220FFF7BDF9AB78C1
S1131590DBB28DF80630AB78DBB28DF80630AB7871
S11315A0DBB28DF80630AB7843F00403AB709DF8E2
S11315B006300120FFF7B4F9AB78DBB28DF80730C1
S11315C0AB78DBB28DF80730AB78DBB28DF807303F
S11315D0AB7803F07F03AB709DF807200023E36032
S11315E003B0F0BD0420FFF78FF9AB78DBB28DF8C0
S11315F00630AB78DBB28DF80630AB78DBB28DF811
S11316000630AB7843F00403AB709DF80630042039
S1131610D0E726694EB3CEF11006002E25DDE3682F
S1131620012902F560520CBF93F800E0B3F800E022
S113163052011379DB09FCD05FFA8EF3D38122695E
S1131640E368521A0F440B44BA4206F1FF36226192
S1131650E36004D91EB1226802F10072E0E7236856
S113166003F1007303F560535B011A7902F07F0202
S11316701A71236981E700BF1C0EFE1F2E4B03EB7A
S113168000132DE9F04FD3F804B0DBF80030DBF899
S1131690042000F1007403F1007303F5605304F5B2
S11316A060545B01640185B0E58A9B7913F0100FE7
S11316B0064605F01F0514BF4FF001084FF002085D
S11316C012B19BF8143023BB4FF0000AD146802797
S11316D012E0238ADBF818209BB2DBB252B1DBF8AC
S11316E01C10009602938DF8047003919047B8F192
S11316F0020F07D00AF1010A55456846E9D105B041
S1131700BDE8F08FCDF80890DBF8183068469847AC
S1131710F0E7DBF8183000228BF81420002BD3D02C
S1131720DBF81C10009001208DF804000292039154
S113173068469847C8E700BF1C0EFE1FF0B51A4E56
S11317400401002806EB040387B0054614BF0420F7
S113175002205F68FFF7E4F805F1007303F56053B6
S11317605B019A78D2B28DF807209A78D2B28DF8BC
S113177007209A78D2B28DF807209A7822F00402D2
S11317809A70BB699DF807204BB1FA690592002154
S11317900222029504918DF80C2002A89847344443
S11317A00023637007B0F0BD1C0EFE1F10B500F1DE
S11317B0007303F560535B0116491C8A1A7901EB27
S11317C0001122F0400249681A711A7922F00102CC
S11317D01A711A79920684B0E4B20CD520238DF8DC
S11317E004308B692BB1CA69009003920294684655
S11317F0984704B010BD1A79D20607D51B7FDB07C2
S113180054BF102308238DF80430EAE704238DF82D
S11318100430E6E71C0EFE1F4309203300F01F00CE
S113182001220249824041F82320704700E100E090
S1131830092808B507D00730C0B201F073FE0828A4
S113184006D0002008BD102001F06CFE0828F8D155
S11318500A2008BD092803D00730C0B201F076BEC3
S1131860102001F073BE00BF30B5044683B00028D9
S11318705ED00420FFF7D0FF0420FFF7CDFF042043
S1131880FFF7CAFF0420FFF7C7FF04F1007303F555
S113189060535B0100259A78D2B28DF807209A78BC
S11318A0D2B28DF807209A78D2B28DF807209A78B0
S11318B002F07F029A709A7822F004029A709A7861
S11318C022F040029A709DF807209A7802F0EF0205
S11318D09A709A7802F0DF029A7099789A7801F0F7
S11318E0020122F003020A439A70DA7902F07F02BD
S11318F0DA71DA7922F02002DA7101201D7201F026
S11319005BFE114A01201368C4F11F0100FA01F1C2
S11319100B43136001F02CFE2046FFF79BFF0B4A9C
S11319202401131915555D705D609D6003B030BDD1
S11319300120FFF771FF0220FFF76EFF2046FFF73B
S11319406BFF03209FE700BF007004401C0EFE1FC6
S113195009288CBF04200020704700BF00B5012077
S113196083B002F06BFD0B4B1B78012B0DD00120D3
S113197001F0A4FD084BD3F8043301930120019B2B
S113198002F05AFD03B05DF804FB0020FFF7C8FD28
S1131990EDE700BF1C0EFE1F0060004000B50120F3
S11319A083B002F04BFD0F4B1B78012B0DD00020B0
S11319B001F084FD0C4BD3F8003301930120019B0B
S11319C002F03AFD03B05DF804FB0020FFF756FE79
S11319D0064B1A7922F040021A711A7922F0010298
S11319E01A71E4E71C0EFE1F00600040000007406F
S11319F000B5012083B002F021FD0D4B1B78012BB3
S1131A0012D00C4A137903F0C7031371032001F0B9
S1131A1055FD094BD3F80C3301930120019B02F0CF
S1131A200BFD03B05DF804FB0020FFF7BFFEE8E701
S1131A301C0EFE1F000007400060004000B501209E
S1131A4083B002F0FBFC0B4B1B78012B0DD0022062
S1131A5001F034FD084BD3F8083301930120019BB6
S1131A6002F0EAFC03B05DF804FB0020FFF766FE19
S1131A70EDE700BF1C0EFE1F00600040012907D0E7
S1131A8029B9074A1378184300F0300010707047E2
S1131A90034A137803F0300323EA00001070704700
S1131AA0000D0440012900F47F4208D04FF4803136
S1131AB081400023D20804481943115070478140E3
S1131AC08BB20021F6E700BF08000440000A400181
S1131AD0024B41EA0242C250704700BF0800044072
S1131AE0000A400100F1804000F104100068000C7D
S1131AF0704700BF034B000A03EB401341EA024264
S1131B005A60704708000440030AC0B200EB031394
S1131B109B0003F1804303F581231868C0F3400060
S1131B20704700BF000A400100F1804000F104103A
S1131B30006880B2704700BF000A400100F1804095
S1131B4000F58020006880B2704700BF000A4001A1
S1131B5000F1804000F5802003681B0C1B0419432E
S1131B6001607047014B00221A8070471C08FE1F59
S1131B70030AC0B200EB03139B0003F1804370B46B
S1131B8003F58123EFF3108472B6174A108880B2EC
S1131B9018B9164D4026E870EE701088013080B2F6
S1131BA0108084F31088CC03186805D520F48030A5
S1131BB021F4803418601C601960EFF3108172B650
S1131BC0138809489BB21BB10388013B9BB2038075
S1131BD013889BB21BB9054A8020D370D07081F35F
S1131BE0108870BC704700BF1C08FE1F000D044025
S1131BF0020AC3B203EB02139B0003F1804303F513
S1131C0081231B6829B1064943F004031940FFF7F7
S1131C10AFBF034923F004031940FFF7A9BF00BF76
S1131C20D5FC011F012343700370C370837000202F
S1131C30704700BFA8B138B5054601F0EDFC2B880C
S1131C40002463B16B6803EBC40253F8341090882A
S1131C50FFF78EFF01342B88A4B2A342F2D80020F0
S1131C6038BD0120704700BF10B540F607339842D5
S1131C7086B0044602D9032006B010BD012204AB8D
S1131C8002A804910191ADF808200393ADF8144023
S1131C9001F0C2FC20460199FFF76AFF002006B05C
S1131CA010BD00BF40F60733984202D903231846FB
S1131CB0704739B110B50C46FFF726FF002320709A
S1131CC0184610BD0123F2E7B0F5306F02D90323A3
S1131CD01846704739B110B50C46FFF723FF0023AF
S1131CE02080184610BD0123F2E700BF0AB9032083
S1131CF07047B0F5306F08B501D9032008BD0B4615
S1131D00114022EA0302FFF7E1FE002008BD00BFF4
S1131D10012901D90320704740F60732904208B5E3
S1131D2001D9032008BDFFF7BDFE002008BD00BF98
S1131D300AB903207047B0F5306FFAD870B514466D
S1131D400E460546FFF7F8FE04EA0603184383B27D
S1131D5066EA040128461940FFF7F8FE002070BD2A
S1131D60012901D90320704740F60732904208B593
S1131D7001D9032008BDFFF73BFF002008BD00BFC9
S1131D80B0F5306F02D903231846704739B110B546
S1131D900C46FFF7A5FE00232080184610BD012342
S1131DA0F2E700BF38B540F607339842044601D93C
S1131DB0032038BD0D4681B100F47F40FFF790FE4B
S1131DC0E4B2012202FA04F39BB2184083420BBF2F
S1131DD0002000202A70287038BD012038BD00BFC3
S1131DE0B0F5306F01D903207047002AFBD008B545
S1131DF00B46114022EA0302FFF77CFE002008BDD7
S1131E0040F60733984201D9032070470129FBD8D3
S1131E1010B5C3B200F47F4408D001229A4092B2B4
S1131E2000212046FFF766FE002010BD994089B2CC
S1131E300022F6E7202801D903207047012908B5BC
S1131E4001D9032008BDFFF719FE002008BD00BF1B
S1131E50024B23F820100020704700BF10100440EC
S1131E60024A002342F820301846704710100440FC
S1131E70034A137863F07F0313700020704700BF98
S1131E8000100440034A137803F07F03137000200A
S1131E90704700BF0010044020B1034B1B6803606F
S1131EA00020704701207047985B000058B101285A
S1131EB007D1084B002040214122187119711A7171
S1131EC0704701207047034B40214122987099705C
S1131ED09A70704700100440E8B130B40F4A536858
S1131EE023F48043536045685DB1836803EB850543
S1131EF05C8813F8041B0A4A89000A44AB42148024
S1131F00F6D1007828B1074A137863F07F03137081
S1131F10002030BC70470120704700BF00700440AF
S1131F20101004400010044006207047062070473B
S1131F30B8B190F90620144B53F82230996881B156
S1131F40596871B1D97811F0C00F04D1DB899BB203
S1131F50B3F5806F05D801680C4B994203D0072074
S1131F60704701207047C032094B53F8221021F406
S1131F70803143F8221053F8221041F0807143F865
S1131F8022100020704700BF000CFE1F0043544481
S1131F900060004088B10A4B02689A4201D00720D1
S1131FA0704790F906300749C033002051F82320C8
S1131FB022F0807241F8232070470120704700BF4F
S1131FC00043544400600040002830D000292ED043
S1131FD0184BDB8900229BB28A7190F90620180401
S1131FE018D4154B53F82230D87800F0C00080285C
S1131FF009D0DB8940289BB28B8011D028B94FF4DB
S113200080630B6070479B898B804FF480730B60F7
S1132010002070475BB29A4204BF01238B71E0E752
S1132020DBB28B804FF480730B600020704701207B
S1132030704700BF00540040000CFE1F20B1034B4A
S11320401B68036000207047012070479C5B000000
S113205070B582B00191009250B14BB1254A01682C
S1132060914208D0072002B070BDEC89A4B264B9D3
S1132070012002B070BD90F906201F4951F822508A
S1132080EC7804F0C004802CEFD0C0321B4E1C4D01
S113209056F8224024F0807446F822402A7822F030
S11320A010022A70019A12B390F90620019D51F88A
S11320B022406560009C1CB151F82240009DA5603F
S11320C051F82210CA7802F0C002802A0DD002B959
S11320D0CB81FFF72DFF0A4A1378002843F0100341
S11320E014BF132000201370BDE78B81F1E790F932
S11320F00620DFE700435444000CFE1F006000404C
S1132100005400400346D0B10E4A0168914201D008
S11321100720704730B490F906200B4C0B4DC032A9
S1132120002154F8220020F0807044F8220093F932
S11321300620084645F82210196030BC704701207B
S1132140704700BF0043544400600040000CFE1F71
S1132150002843D0002941D02DE9F8430B68002B17
S113216039D09A7802F0C004402C34D0DC78A50928
S1132170032D30D0C4F30115032D2CD002F00C0232
S1132180042A28D004F00C02042A24D014F0C00F2E
S113219004D0DB899BB2B3F5807F1CD83E4B026828
S11321A09A421DD08E883D4D002404F1C0025FFA8E
S11321B084F855F82230394FC3F308039E4212D0F5
S11321C00134042CF1D1D7F81033C3F3080383800E
S11321D00B20BDE8F8830120BDE8F8830120704797
S11321E00820BDE8F883DFF8C49057F8223099F846
S11321F00020C3F3080306460D4683802AB328490A
S113220051F82430002BEBD12B6800E01033DA783E
S113221012F0C00F1CBF9A7BDA739A7812F0C00FC9
S1132220F4D1204F1C4A3B7823F010033B70A8796B
S11322302B6841F8243086F806803260F8B93B7880
S113224043F010033B70BDE8F8831C2001F06AF9E9
S113225010B10A20BDE8F883134F1149FA69114BF4
S113226022F48002FA61086048608860C86059609E
S11322701A7B012002431A7389F80000C0E7304634
S1132280FFF756FE3B7843F0100300283B7014BF61
S113229013200020BDE8F88300435444006000404C
S11322A0000CFE1F0054004000E00140100CFE1F13
S11322B0084B094A094810B40021094C1A604FF42C
S11322C000425C60D86059619A601A615DF8044B01
S11322D0704700BF6004FE1F002D310100366E01FF
S11322E000127A0019491A4A0B8D03F0030332F8DD
S11322F0132052B310B40C8D16480B8D14F0100F2C
S113230014BF0021032107EE902A50F821205DF824
S1132310044B07EE102AF8EE676AB8EE477AC3F367
S1132320052387EE267A07EE903AF8EEE77AF7EE81
S1132330006A77EEA67AF6EE006A67EEA67A67EE92
S1132340277AFCEEE77AC0ED057A704700E0014099
S1132350C45B00006004FE1F0E4AB2F8FE339BB259
S113236043F4254343F00103A2F8FE3392F81334F7
S1132370000100F0300003F0CF03034382F813346C
S1132380B2F8FE3345F6FE210B4043F42543A2F890
S1132390FE33704700E001400E4AB2F8FE339BB2B0
S11323A043F4254343F00103A2F8FE3392F8813449
S11323B0400000F0020003F0FD03034382F881347F
S11323C0B2F8FE3345F6FE210B4043F42543A2F850
S11323D0FE33704700E00140264AB2F8FE339BB258
S11323E043F4254343F00103A2F8FE3305280BD838
S11323F0DFE800F02028300338181E4A92F8323003
S113240023F0010382F832301A4AB2F8FE3323F47F
S1132410145323F001035B045B0C43F42543A2F83B
S1132420FE337047134A92F82A3023F0010382F8EE
S11324302A30E9E70F4A92F8363023F0010382F894
S11324403630E1E70B4A92F8383023F0010382F882
S11324503830D9E7074A92F8903423F0010382F820
S11324609034D1E7034A92F8803423F0010382F8D0
S11324708034C9E700E00140264AB2F8FE339BB23B
S113248043F4254343F00103A2F8FE3305280BD897
S1132490DFE800F02028300338181E4A92F8323062
S11324A043F0010382F832301A4AB2F8FE3323F4BF
S11324B0145323F001035B045B0C43F42543A2F89B
S11324C0FE337047134A92F82A3043F0010382F82E
S11324D02A30E9E70F4A92F8363043F0010382F8D4
S11324E03630E1E70B4A92F8383043F0010382F8C2
S11324F03830D9E7074A92F8903443F0010382F860
S11325009034D1E7034A92F8803443F0010382F80F
S11325108034C9E700E00140032810D0052808D022
S113252008B100207047094B93F83C0000F001000B
S11325307047064B93F83C00C0F340107047034BC0
S113254093F83C00C0F3C000704700BF00E00140B6
S1132550052834D8DFE800F00B131B232B03194B99
S113256093F82A0000F0010080F001007047154B39
S113257093F8360000F0010080F001007047114B21
S113258093F8380000F0010080F0010070470D4B13
S113259093F8900400F0010080F001007047094BAB
S11325A093F8320000F0010080F001007047054B01
S11325B093F8800400F0010080F0010070470020CF
S11325C0704700BF00E00140024B1A6A93F82630BE
S11325D0704700BF00E001400E4AB2F8FE339BB2E0
S11325E043F4254343F00103A2F8FE3392F8133475
S11325F000F0010023F0400343EA801382F813340F
S1132600B2F8FE3345F6FE210B4043F42543A2F80D
S1132610FE33704700E001400E4AB2F8FE339BB22D
S113262043F4254343F00103A2F8FE3392F8A230A9
S113263001F00F0123F00F03194382F8A210B2F83E
S1132640FE3345F6FE210B4043F42543A2F8FE3346
S1132650704700BF00E0014005288CBF0020012026
S1132660704700BF06288CBF00200120704700BFC0
S1132670024B93F8260000F00700704700E0014089
S11326800E4AB2F8FE339BB243F4254343F00103F0
S1132690A2F8FE3392F8263000F0070023F0070377
S11326A0184382F82600B2F8FE3345F6FE210B40AB
S11326B043F42543A2F8FE33704700BF00E0014015
S11326C0034B1B8D13F0100F0CBF03200020704729
S11326D000E001400F4A1049B2F8FE3311F810101F
S11326E09BB243F4254343F00103A2F8FE33138D58
S11326F001F0010123F0100343EA01131385B2F83A
S1132700FE3345F6FE210B4043F42543A2F8FE3385
S1132710704700BF00E00140D45B0000114AB2F8EA
S1132720FE3330EE000A9BB243F42543FCEEC07A3C
S113273043F00103A2F8FE3317EE903A118D013BEA
S113274021F47C5103F03F0341EA03231385B2F8DB
S1132750FE3345F6FE210B4043F42543A2F8FE3335
S1132760704700BF00E001400E4A0F49B2F8FE3343
S113277031F810109BB243F4254343F00103A2F84F
S1132780FE33138D01F0030123F003030B43138580
S1132790B2F8FE3345F6FE210B4043F42543A2F87C
S11327A0FE33704700E00140CC5B0000F0B5164AF0
S11327B0B2F8FE339BB243F4254343F00103A2F87D
S11327C0FE3390F800C090F802E007794679457826
S11327D0C478817900236CF30E336EF3061367F328
S11327E0124366F31E7365F30A2364F3020361F371
S11327F01A631362B2F8FE3345F6FE210B4043F42C
S11328002543A2F8FE33F0BD00E001400E4B1A6AE6
S1132810C2F3023202701A6AC2F3022242701A6AC6
S1132820C2F3021282701A6A02F00702C2701A6AB4
S1132830C2F3024202711A6AC2F3027242711B6A43
S1132840C3F302638371704700E001404378022BB5
S113285016D8D0ED017AB3EE0E7AF4EEC77AF1EE23
S113286010FA0DDCB2EE047AF4EEC77AF1EE10FA47
S113287006D40078032805D0B0FA80F040097047E8
S11328800020704701207047062828D8DFE800F0B0
S1132890090E13181D220400124B186AC0F30260BB
S11328A07047104B186AC0F3023070470D4B186A1A
S11328B0C0F3022070470B4B186AC0F30210704734
S11328C0084B186A00F007007047064B186AC0F3FB
S11328D002407047034B186AC0F30270704700202F
S11328E0704700BF00E0014008B5FFF7CDFF054B7E
S11328F0054A93F8263003F0070352F8233023FAED
S113290000F008BD00E001406004FE1F024B53F8D4
S11329102000C840704700BF6004FE1F0F4BB3F88F
S1132920FE2392B242F4254242F00102A3F8FE23B0
S113293093F8402062F07F0283F8402093F840200F
S113294042F0010283F84020B3F8FE2345F6FE214D
S11329500A4042F42542A3F8FE23704700E00140F8
S11329600F4BB3F8FE2392B242F4254242F0010227
S1132970A3F8FE2393F8402022F0010283F84020BC
S113298093F8402002F07F0283F84020B3F8FE233E
S113299045F6FE210A4042F42542A3F8FE2370477F
S11329A000E00140024B93F84000C009704700BFAB
S11329B000E00140024B93F8410000F00100704731
S11329C000E00140114A92F8410010F0010001D1E9
S11329D000207047B2F8FE339BB243F4254343F022
S11329E00103A2F8FE3392F8413023F0010382F888
S11329F04130B2F8FE3323F4145323F001035B0493
S1132A005B0C43F42543A2F8FE33704700E0014019
S1132A100E4AB2F8FE339BB243F4254343F001035C
S1132A20A2F8FE3392F8303000F0010023F00103E5
S1132A30184382F83000B2F8FE3345F6FE210B400D
S1132A4043F42543A2F8FE33704700BF00E0014081
S1132A500C4AB2F8FE339BB243F4254343F001031E
S1132A60A2F8FE3392F8523043F0010382F8523058
S1132A70B2F8FE3345F6FE210B4043F42543A2F899
S1132A80FE33704700E001400C4AB2F8FE339BB2BB
S1132A9043F4254343F00103A2F8FE3392F8523085
S1132AA023F0010382F85230B2F8FE3345F6FE21DA
S1132AB00B4043F42543A2F8FE33704700E0014085
S1132AC0164BB3F8FE2392B242F4254242F00102BF
S1132AD0A3F8FE2393F83E2002F07F0283F83E2001
S1132AE093F83E2001F0070122F0700242EA01123D
S1132AF083F83E2093F83E2000F0070022F00702FE
S1132B00104383F83E00B3F8FE2345F6FE210A4045
S1132B1042F42542A3F8FE23704700BF00E00140C1
S1132B200C4AB2F8FE339BB243F4254343F001034D
S1132B30A2F8FE3392F83E3063F07F0382F83E3011
S1132B40B2F8FE3345F6FE210B4043F42543A2F8C8
S1132B50FE33704700E001400C4AB2F8FE339BB2EA
S1132B6043F4254343F00103A2F8FE3392F83E30C8
S1132B7003F07F0382F83E30B2F8FE3345F6FE21BF
S1132B800B4043F42543A2F8FE33704700E00140B4
S1132B900C4AB2F8FE339BB243F4254343F00103DD
S1132BA0A2F8FE3392F8533043F0010382F8533015
S1132BB0B2F8FE3345F6FE210B4043F42543A2F858
S1132BC0FE33704700E001400C4AB2F8FE339BB27A
S1132BD043F4254343F00103A2F8FE3392F8533043
S1132BE023F0010382F85330B2F8FE3345F6FE2198
S1132BF00B4043F42543A2F8FE33704700E0014044
S1132C000E4AB2F8FE339BB243F4254343F001036A
S1132C10A2F8FE3392F8243000F0070023F070038A
S1132C2043EA001382F82430B2F8FE3345F6FE215D
S1132C300B4043F42543A2F8FE33704700E0014003
S1132C400E4B19681A68920715D501380022B0F1A5
S1132C50807F1A6002D319601046704710B4084C84
S1132C605860F02084F82300072101209A6019603D
S1132C705DF8044B70470120704700BF10E000E08E
S1132C8000ED00E00C4B1A7902F00E0242F0F00263
S1132C901A711A7A00F0010022F0040242EA80025A
S1132CA01A721A7A22F0080242EAC00018721A79DB
S1132CB042F0F1021A71704700200040094B1A7962
S1132CC042F0F1021A711A7A00F0010022F01002A7
S1132CD042EA00121A721A7902F00E0242F0F0026D
S1132CE01A71704700200040054A92F81C3100F028
S1132CF0070023F00703184382F81C01704700BF44
S1132D0000C00140024B93F81C0100F0070070471B
S1132D1000C0014000207047002070470020704729
S1132D20024B1B6803600020704700BF385C000042
S1132D3038B50C460546FFF79BFC28702046FFF784
S1132D4065FD002038BD00BF70B500240C600D4641
S1132D500646FFF787FC10B90324204670BD3046B1
S1132D60FFF7C2FD2860204670BD00BF10B5FFF715
S1132D7021FE68B1FFF77CFC0446FFF7A1FC052C9B
S1132D8004D0032C04D140F2971010BD0328FAD0CC
S1132D90FFF718FE002010BD08B5FFF739FE00202C
S1132DA008BD00BF08B5FFF753FE002008BD00BFF3
S1132DB008B5FFF769FE002008BD00BF08B5FFF79E
S1132DC07FFE002008BD00BF08B5FFF7A9FE002064
S1132DD008BD00BF08B5FFF7BFFE002008BD00BF57
S1132DE008B5FFF7D5FE002008BD00BF08B5FFF702
S1132DF0EBFE002008BD00BF08B5FFF701FF00206F
S1132E0008BD00BF00B583B04FF6FF730193FFF711
S1132E104FFA0420FFF730FB04E0019B3BB1019B18
S1132E20013B01930420FFF793FB0028F5D1019B9C
S1132E3023B94FF4CD7003B05DF804FB05210420E1
S1132E40FFF7C2FB0020FFF7A7FA002003B05DF8EC
S1132E5004FB00BF10B50446FFF7FEFB08B90320CE
S1132E6010BD631E012B0FD9042C0DD02CB1032CE3
S1132E7003D0052C01D0002010BD2046FFF768FBCD
S1132E8068B94FF4C87010BD2046FFF761FB40F2EB
S1132E909113002814BF18464FF4C87010BD204683
S1132EA0FFF73AFB40F2931300280CBF18464FF487
S1132EB0C97010BD70B582B00E460546FFF7CCFB55
S1132EC010B9032002B070BD052D28460FD0FFF7BE
S1132ED03FFB18B140F2911002B070BD6A1E012A86
S1132EE04ED9042D25D0BDB1032D3AD0EAE7FFF722
S1132EF02FFBC8B9B6B1FFF7BBFB0528EAD03046B3
S1132F00FFF7A4FC0028DCD03078FFF721FB002871
S1132F103BD14FF4CA70D5E7FFF7FEFA80B340F215
S1132F209310CFE70120CDE7FFF7DCF940F29110D1
S1132F30C8E72846FFF750FA4FF6FF73019304E001
S1132F40019B3BB1019B013B01930420FFF700FB74
S1132F500028F5D0019B002B0CBF4FF4CD7000204E
S1132F60B0E72846FFF7D8FA04460028D7D1FFF780
S1132F70F3F92046FFF730FB28460921FFF74CFB05
S1132F802846FFF729FA00209CE72846FFF7C4FAF1
S1132F9004460028C3D13078FFF79CFB7078FFF714
S1132FA0E3FB96ED010AFFF7B9FBFFF79BF928460F
S1132FB0FFF712FA204685E710B582B00446FFF702
S1132FC04BFB10B9032002B010BDFFF751FB844244
S1132FD016D0052810D0012C15D02046FFF7B8FADA
S1132FE040B1022C39D0042C1AD094B1032C10D047
S1132FF0052C0ED00020E6E7FFF762FBA042EAD1E1
S113300040F29110DFE7FFF7CDFC08B340F29510D2
S1133010D9E72046FFF780FAF8B940F29310D2E7D7
S11330202046FFF729FA4FF6FF73019304E0019B52
S11330303BB1019B013B01930420FFF789FA00286F
S1133040F5D1019B002B0CBF4FF4CD700020BAE7E3
S11330502046FFF77DFA0028CCD02046FFF70CFA73
S1133060C8E700BF00B583B071B148B10146012083
S113307000F022F9FFF752FC002003B05DF804FBD6
S1133080012003B05DF804FBFFF794FC20B14FF47A
S1133090CB7003B05DF804FB0190FFF761FC01986D
S11330A0EBE700BF08B500F0EBF807EE900AB8EEC6
S11330B0677AF7EE007A87EE877ADFED097ADFED3B
S11330C0096A67EE277AC6EEA77AFCEEE77A17EE6E
S11330D0900AFFF7B5FD00280CBF1220002008BDA0
S11330E00024744900401C4608B903207047FFF7C8
S11330F0D9BF00BF70B50C460546FFF7ADFA08B955
S1133100032070BD002C3DD0A17963798B42F7D3A5
S113311063788B42F4D323788B42F1D323798B42A7
S1133120EED32846FFF7F2FB294B9842064633D8E4
S11331300020FFF7A7FD0020FFF7C0FD254B9E42AE
S113314033D8FFF7DFFD0026FFF792FA854207D058
S1133150D5B1032D18D0052D16D02846FFF790FAC7
S11331602046FFF723FB00F08BF81B4B1860FFF79A
S113317099FFFFF7C7FD864224D03046FFF7B4FD20
S1133180002070BD012070BD2846FFF7C5F9002856
S1133190E3D14FF4C97070BD0120FFF773FD0F4BED
S11331A09E4211D90120FFF789FD0D4B9E4294BF29
S11331B001260226FFF7A6FD8642C5D93046FFF751
S11331C093FDC1E7002070BD0020FFF777FDECE719
S11331D0FF0D2707FFB3C404BC0EFE1FFFC1EB0B9A
S11331E0FF67890970B5234D82B02B689847002189
S11331F06E680320B04701211F4AAC698DF80110A5
S1133200032301928DF800300320A047B0F5C97F55
S1133210FAD169460520B047184A92F8003143F0C4
S1133220010382F800310520A047B0F5C97FFAD127
S113323000220124022369468DF806208DF801300E
S11332408DF802308DF805308DF80040EB688DF86C
S113325003408DF80440052098472B6D04209847BF
S11332606B6A20469847AB6A9847AB6C984702B0A4
S113327070BD00BFDC5B00000000A04100C0014045
S113328000B583B002A9002341F8043D034B062096
S11332905B699847019803B05DF804FBDC5B0000B0
S11332A0044B002103F1300243F8041B9342FBD189
S11332B0704700BF140CFE1F024B43F8201000207F
S11332C0704700BF140CFE1F08B57A4BB3F84031A9
S11332D0D90700F1C180774BB3F840319A0700F168
S11332E0B080744BB3F840315B0700F19F80714BA1
S11332F0B3F84031180700F18E806E4BB3F84031BB
S1133300D9067CD46B4BB3F84001C0F3801000287D
S113331069D1684BB3F840311A0658D4654BB3F8F9
S11333204031DB0547D4634BB3F84031980536D4BC
S1133330604BB3F84031590524D45E4BB3F84031A7
S11333401A0512D45B4BB3F84031DB0400D408BD3A
S1133350594BDB6A002B40F0AA80564AB2F8303150
S113336043F48053A2F8303108BD534B9B6A002BC1
S113337040F09A804F4AB2F8303143F40063A2F827
S11333803031DFE74C4B5B6A002B40F08A80494ABE
S1133390B2F8303143F48063A2F83031CDE7464BC4
S11333A01B6A002B7AD1434AB2F8303143F40073DC
S11333B0A2F83031BCE7404BDB69002B6BD13D4AAE
S11333C0B2F8303143F48073A2F83031ABE73A4BB2
S11333D01B68002B5CD1374AB2F8303143F08003CC
S11333E0A2F830319AE7344B5B68002B4ED1314A56
S11333F0B2F8303143F04003A2F8303189E72E4B64
S11334009B69002B3FD12B4AB2F8303143F01003B3
S1133410A2F8303176E7284B5B698BBB254AB2F8BA
S1133420303143F00803A2F8303166E7224B1B69C0
S11334301BBB204AB2F8303143F00403A2F8303108
S113344055E71D4B9B68ABB91A4AB2F8303143F0CB
S11334500203A2F8303144E7174BDB683BB9154A45
S1133460B2F8303143F00103A2F8303133E70320DE
S11334709847F4E702209847E6E704209847D8E7FE
S113348005209847CAE706209847BCE79847AEE767
S1133490002098479FE70720984790E7082098471F
S11334A081E70920984772E70A20984762E70B20D2
S11334B0984752E700600040140CFE1F002808DB08
S11334C0800000F1804000F5C640036823F4803397
S11334D003607047F0B50E4BDFF844E00D4E0E4C20
S11334E00E4960224FF4BA7C40F275174FF4BB7555
S11334F083F8002340F27710CEF800C083F801234C
S1133500376083F80223256083F803230860F0BD45
S113351000E100E004630040086300400C630040E5
S113352000630040084B0121034402E0C3E8401F4C
S113353040B1D3E84F2F12F0FF0FF7D0BFF32F8F16
S113354008207047704700BF440CFE1F014B002247
S11335501A547047440CFE1F044B002103F17802F7
S113356003F8011F9342FBD1704700BF430CFE1FB9
S11335700E4B33F8102092B22AB133F81020013ADE
S113358092B223F8102033F810309BB263B9084A82
S11335900849B2F8FE3331F810109BB243F42543C6
S11335A023EA0103A2F8FE33704700BFBC0CFE1FE0
S11335B000E001403C5C0000104A32F810309BB23D
S11335C0ABB910B40E4C0F49B4F8FE3331F81010F7
S11335D09BB243F425430B43A4F8FE3332F8103076
S11335E05DF8044B01339BB222F81030704732F877
S11335F0103001339BB222F810307047BC0CFE1F10
S113360000E001403C5C0000024B00221A805A801A
S11336109A807047BC0CFE1FF8B50788AFB34168A9
S11336201B4C002601EBC70E4FF0010C374688886F
S1133630002334F81320824216D00133032BF8D12F
S113364008317145F3D1F643F6B20120FFF7B4FF18
S1133650104A92F8BB341F433E4082F8BB640120F9
S1133660BDE8F840FFF784BF0A6802F0B852B2F12F
S1133670807F05D00CFA03F546EA0502D6B2DCE7F2
S11336800CFA03F21743FFB2D7E7FF26DDE700BFCA
S1133690445C000000E00140034638B1054A92E86A
S11336A00300002283E803001046704701221046FD
S11336B0704700BF585C0000A0F101000028FBD156
S11336C0704700BF38B50D4601FB00F4FFF7D8FD85
S11336D0B0F5004F01D8012D19D00F4AB2FBF0F01C
S11336E0844208D24FF47A7202FB04F3B3FBF0F085
S11336F0800808D138BD4FF47A72B4FBF0F002FBB5
S113370000F08008F6D0BDE83840FFF7D5BF284662
S1133710BDE83840FFF7D0BF00CA9A3BFEE700BFC0
S113372008B500F005F800F081F9FEE7704700BF26
S1133730204A08B5D2F8883043F47003C2F88830C0
S11337400020FFF7F3FFFFF7ABFDFFF74BFDFFF79B
S11337505BFFFEF707FA184B18481B689847184A8E
S1133760184B9B1A05D01344002103F8011D9A42FB
S1133770FBD11548154BC01A07D0154A184412F846
S1133780011B03F8011B8342F9D1FFF779FD114BAB
S113379018600120FFF7CAFFFFF7DEFEFFF79AFE6D
S11337A00D4B0E481B6898470020BDE8084000F008
S11337B017B800BF00ED00E0445B0000045D0000AA
S11337C00008FE1F2811FE1F6004FE1F0000FE1FDC
S11337D02C610000BC0EFE1F7C5B00004C5C0000F2
S11337E000F044B882B04FF0C84300210091009A21
S11337F01A7D61F300021A751A8DD0B1202161F38C
S11338000F221A851A8D4FF0C04142F080021A85AA
S11338100A68009240F6FF721946019204E0019B87
S1133820013B0193019A12B18A6A5206F7D502B09C
S113383070474FF0C04142F47F421A850A680092F3
S11338401A8D60F3C7121A850A68009240F6FF7158
S11338501A46019105E0019B013B0193019B002B5A
S1133860E5D0936A5B06F6D402B07047F8B5494ACE
S113387013684FF0C84423F040031360237A6FF3B6
S113388004032372237DFF2243F001032375226185
S1133890237D662243F0010323752261237D99224F
S11338A043F0010323752261237D43F00103237553
S11338B001212320FFF706FF9F232361364B226952
S11338C01A7022695A702169227D997042F00102AE
S11338D022751A78EF2A04D000221A705A709A704E
S11338E0F8BD5A78402AF7D19A78172AF4D10520DE
S11338F020612A4923690B70227D294B42F0010281
S113390035262275266122691A70227D42F0010251
S11339102275228D042565F303022285227950271E
S113392065F3030222712761227D42F001022275B0
S11339301A78012742F002021A7027610A7822617C
S11339401A782261227D3A4322752561227D3A4309
S11339502275228860F302022280206122690A70A3
S1133960227D3A432275266122691A70237D3B43E6
S11339702375238843F040032380A369DB074FF0BA
S1133980C845FAD40120FFF72DFF2B7D6FF3000308
S11339902B75F8BD00700440C40CFE1FC80CFE1F3C
S11339A0CC0CFE1F704700BF08B5054B05481B68CB
S11339B00549984700B1FEE7BDE8084000F03CB86F
S11339C0A05A0000800FFE1FA85C000000B589B05B
S11339D00A4B00934FF480610123B02201910293BA
S11339E003930493059306920549064A0648002367
S11339F000F03CFA09B05DF804FB00BF2831FE1F5B
S1133A00C05C0000A9390000C00EFE1F704700BF53
S1133A10FFF7FCBF704700BF10B50446FFF7D6FFA1
S1133A20FFF7F6FF2046FFF7F5FF10BD08B572B6A5
S1133A3000F0E4FC002008BD70B50E4D0FCD8CB035
S1133A4003AC0FC40FCD0FC42B68238001A8FFF76C
S1133A5023FEBDF8043063B1074B9E681D68F4680B
S1133A60284603A922220023A047322001F0DCF9D2
S1133A70F5E7FEE7FC600000AC5C000008B1242A16
S1133A8001D006207047F8B5EFF3108372B61D4FCE
S1133A903A6801323A6083F310881B4A1B4B126860
S1133AA01C6852B1A04218BF002302D105E0A04215
S1133AB003D001339342A469F9D105460E46EFF3CE
S1133AC0108372B63A68013A3A6083F3108801F0C1
S1133AD0D9F9A54214D0EFF305830D4A11680B43BD
S1133AE008D0EFF3058312681343B3F1F03F01D21A
S1133AF01320F8BD28463146BDE8F84000F058BA16
S1133B000620F8BD7010FE1FC80FFE1FA40FFE1F75
S1133B102000FE1F18B10268074B9A4201D006200C
S1133B207047EFF30583054A1268134301D013204D
S1133B30704700F065BA00BF4E4456442000FE1F93
S1133B4070B4039E18B10D4C0568A54202D006203E
S1133B5070BC704783B13EB1EFF30584084D2D6806
S1133B602C4301D00420F3E7032A01D90820EFE70E
S1133B70039670BC00F092BA0320E9E74E44564421
S1133B802000FE1F78B130B4084B04689C4202D078
S1133B90062030BC704732F0020301D00820F8E759
S1133BA030BC00F0DFBA0620704700BF4E445644D4
S1133BB008B1342B01D01C207047F8B5EFF3108303
S1133BC072B6DFF898E0DEF800400134CEF8004029
S1133BD083F310881E4C1F4B25681C6855B1A04206
S1133BE018BF002302D105E0A04203D00133AB4249
S1133BF0246AF9D1054617460E46EFF3108372B6D0
S1133C00DEF80020013ACEF8002083F3108801F09A
S1133C1039F9A54219D0012F0ED8EFF305830E4AC6
S1133C2011680B430AD0EFF3058312681343B3F111
S1133C30F03F03D21320F8BD1F20F8BD28463146BB
S1133C403A46BDE8F84000F0FBBB1C20F8BD00BFBD
S1133C50A80FFE1FAC0FFE1F2000FE1F7010FE1FDA
S1133C6018B10268074B9A4201D01C207047EFF349
S1133C700583054A1268134301D01320704700F0EE
S1133C800FBC00BF4554554D2000FE1F18B1134B07
S1133C9002689A4201D01C20704710B489B9104AB6
S1133CA0EFF3058314680E4A234312D0EFF3058320
S1133CB012681343B3F1F03F0BD213205DF8044BA9
S1133CC07047EFF30583064A14682343E8D00420C1
S1133CD0F4E75DF8044B00F043BC00BF4554554D78
S1133CE02000FE1F18B10B4B02689A4201D01C2021
S1133CF07047EFF30583084A11680B4308D0EFF3CC
S1133D00058312681343B3F1F03F01D213207047C7
S1133D1000F0FABC4554554D2000FE1F2DE9F04734
S1133D20DDF82080099C08B1382C02D00920BDE8B8
S1133D30F087EFF3108472B6DFF8ACE0DEF80050E1
S1133D400135CEF8005084F31088244D244C2E689D
S1133D50246856B1A04218BF002502D105E0A04254
S1133D6003D00135B542246BF9D105461F461646EA
S1133D708946EFF3108372B6DEF80020013ACEF8DC
S1133D80002083F3108801F07DF8A542CED0C7B19E
S1133D90731E0F2B12D8B6EB980F0FD8EFF30583D1
S1133DA0104A11680B430FD0EFF3058312681343D5
S1133DB0B3F1F03F08D21320BDE8F0870520BDE839
S1133DC0F0870320BDE8F087CDF8208028464946D7
S1133DD032463B46BDE8F04700F09EBDB00FFE1FE3
S1133DE0D00FFE1F2000FE1F7010FE1FB0B110B4D4
S1133DF00C4B04689C4203D009205DF8044B7047C7
S1133E0071B13AB1EFF30583074C2468234301D021
S1133E100420F2E75DF8044B00F0B4BD09207047BC
S1133E200320EAE7554555512000FE1FB0B110B4F8
S1133E300C4B04689C4203D009205DF8044B704786
S1133E4071B13AB1EFF30583074C2468234301D0E1
S1133E500420F2E75DF8044B00F080BE09207047AF
S1133E600320EAE7554555512000FE1F2DE9F04F88
S1133E7085B00EAD129C0194139C009495E8200724
S1133E80149C08B1B02C03D00E2005B0BDE8F08F0F
S1133E90EFF3108472B6DFF814E1DEF80060013647
S1133EA0CEF8006084F310883D4E3E4C366802968E
S1133EB0246836B3A04224D008F1FF362E440027EC
S1133EC08B460393E1688D423ED323699D423BD2E6
S1133ED04FF0010C00258E4207F1010705D321693B
S1133EE08E423CBF4FF0010C00250299D4F8884063
S1133EF08F4204D0A04202D0BCF1010FE2D1039B57
S1133F0059460746029316468B46EFF3108372B662
S1133F10DEF80020013ACEF8002083F3108800F088
S1133F20B1FFA742B0D06DB166B1B8F1C70F0ED9D9
S1133F30B9F11F0F0DD8D1450DD3009B012B0CD91E
S1133F401020A2E70320A0E74FF0000CC3E70520F0
S1133F509BE70F2099E7182097E7EFF30583124AB0
S1133F6011680B4308D0EFF3058312681343B3F1D0
S1133F70F03F01D2132088E7019B1293009B139317
S1133F80029B0E95384659463246CDF83C80CDF812
S1133F904090CDF844A005B0BDE8F04F00F068BEF5
S1133FA06810FE1F6010FE1F2000FE1F7010FE1F11
S1133FB038B504460D462422002101F06FFC6560EB
S1133FC0EFF3108072B60B4A0B49136821600B495A
S1133FD05BB10968CD69CC61AC61E561A161013374
S1133FE0136080F31088002038BDA461E4610C6084
S1133FF0F5E700BFC80FFE1F4E445644A40FFE1F32
S11340002DE9F0410346EFF3108672B620490A68A1
S11340100020013A18600A60002A2ED11D490A6066
S11340201D4F18693A685C69002501323A601D61C8
S11340305D6186F310889CB10126013CEFF3108387
S113404072B63A6885660132C0F884603A60D0F886
S1134050708083F3108800F033FF4046002CECD1CD
S1134060EFF3108372B63A68013A3A6083F310882A
S113407000F008FF0020BDE8F08106489A69046852
S1134080D969D1619C428A6108BF0260C8E700BF58
S1134090C80FFE1FA40FFE1F7010FE1FF8B50446C4
S11340A0EFF3108672B6056A806802F002070DB15C
S11340B020EA050000EA01053FB945B11860D307BD
S11340C00BD4002086F31088F8BD8D4237D00698B3
S11340D070B9072086F31088F8BD636913B12069AD
S11340E0002835D0A36823EA0101A1600020E9E794
S11340F01948676905681948A967C5F88020EB67FE
S1134100EC66A866EFB925612D676D67144A1368DC
S113411001330137072001211360069B6761EB64BB
S11341202863A96386F31088284600F03FFFEFF365
S1134130108672B6D5F8840086F31088F8BD0D4653
S1134140BBE723692B675A6F6A6715675D67DDE70D
S1134150236A0B432362BDE77410FE1FD954000089
S11341607010FE1F2DE9F04F83B0EFF3108472B688
S113417093070BD54369002B5BD183681940816099
S113418084F31088002003B0BDE8F08F8568036ACB
S11341900D43856013B123EA01010162016942699B
S11341A00346002900F0A680012A00F0AE806E4F7D
S11341B038680026013038601E618846B44601968E
S11341C02DE09A68002115435A69D960C646DEF885
S11341D080A0DEF87890DEF870101AF0020F05EA7D
S11341E0090B2ED1DEF83000072869D08E4530D077
S11341F0DEF874004867F045016772D058690138E9
S11342005861BCF1000F2CD00EB1C6F870E000204C
S1134210CEF87000012076460190013A29D084F34B
S11342201088EFF3108472B6D8680028C9D18E467E
S1134230CDE70369002BA0D1036A63EA010303629B
S11342409EE7CB454BD0DEF830000728E5D08E45FD
S1134250CED1586901384FF000085861BCF1000F05
S1134260D2D10120013ACEF870C07646F4460190CE
S1134270D5D1196ADDF804B0C3F81080604699BB43
S113428084F3108868B1046FEFF3108372B63A6850
S113429001323A6083F3108800F012FE2046002CAD
S11342A0F1D1EFF3108472B63B68013B3B6084F3B9
S11342B01088BBF1010F7FF465AF00F0E3FD61E707
S11342C0BBF1000FA9D0DEF87C001AF0010F0560E5
S11342D016D10020CEF86800CEF8840086E7CB46DD
S11342E080E7D8F8708089E79D681A6225EA0101A1
S11342F09960C5E76AB3C26801328B46C260D6E7EB
S1134300986820EA09009860E3E7D1F88020886F74
S1134310970705EA00061ED4C6B1CE6FD2073560F2
S11343201DD4114D2868002201301A615A61286099
S11343308A66C1F8842084F31088084600F0C0FD22
S1134340EFF3108472B64FF0010BB0E74FF0000B9F
S1134350ADE79346ABE78642F8D10646DCE79A68B8
S113436022EA00029A60DCE77010FE1F2DE9F04794
S113437000F002FD144BDFF870A0DFF87090DFF856
S11343807080124F124E134D134C01221A6000F02C
S1134390ABFEDFF860C0DFF860E010481049114A56
S11343A00023CAF80030C9F80030C8F80030CCF84F
S11343B00030CEF800303B6033602B602360036034
S11343C00B601360BDE8F0877010FE1FC80FFE1F5E
S11343D0CC0FFE1FC00FFE1FB80FFE1FD40FFE1F11
S11343E0AC0FFE1FA80FFE1FB40FFE1FC40FFE1F4D
S11343F0D00FFE1FB00FFE1FA40FFE1F10B50C4CF4
S1134400236813F10F3F06D04FF0F033236000F020
S1134410FBFEFFF7ABFF074A4FF0F0331068236051
S1134420FFF7FAFA00232360BDE8104000F02CBF28
S11344302000FE1FBC0FFE1F704700BF704700BF67
S113444070B504460E4615460021342201F026FAC2
S113445066602561EFF3108072B60C4A0C4913684C
S11344600C4E0D4D26600D600C495BB109684D6A18
S11344704C622C62656221620133136080F3108800
S1134480002070BD246264620C60F5E7A80FFE1F73
S11344905810FE1F4554554DB1550000AC0FFE1F7A
S11344A02DE9F843EFF3108272B62A490B68002411
S11344B0013B04600B60002B42D127490B60DFF8FD
S11344C09C80C168D8F800308469C569002601332E
S11344D0C8F800308661C66141B10123836082F36C
S11344E0108800F011F9EFF3108272B682F310888D
S11344F0BDB100270126013DEFF3108372B6D8F851
S11345000020A7660132C4F88460C8F80020D4F8FB
S1134510709083F31088204600F0D2FC4C46002DA6
S1134520E9D1EFF3108372B6D8F80020013AC8F845
S1134530002083F3108800F0A5FC0020BDE8F88378
S1134540054C036A2568416A596285420B6208BFBB
S11345502360B4E7A80FFE1FAC0FFE1F7010FE1FF0
S1134560F8B5EFF3108572B6334A83681468C3B99B
S11345700123C460836084B10369012B3ED0D4F865
S1134580A830002B46D01A6B1863D0620263C36252
S1134590D4F8A4300133C4F8A43085F31088002083
S11345A0F8BDC268A24204D031B985F310881D2039
S11345B0F8BD01338360F0E7C369204EE066A66668
S11345C00BBB8461246764671D4F3E680133013669
S11345D04FF00D0C4FF0010EC3613E60E164C4F86E
S11345E030C0C4F838E085F310880369734516D0E9
S11345F0204600F0DBFCD4F88400F8BDE36A436194
S113460020238362BBE786692667776F67673C6709
S11346107467D9E7C4F8A800C0620063B8E7E16A28
S1134620836A8B42D36A88BF81629942E0D2104682
S113463000F008F8DCE700BF7410FE1F45550000C9
S11346407010FE1F2DE9F843EFF3108672B6026B6B
S1134650C0F8A01052B1D0F89C20C162914228BF8A
S11346601146C16386F31088BDE8F8830D462349DB
S1134670DFF890900B68C26402334FF0030E0122FE
S113468004460B60D9F80070C0F830E08263D0F8BB
S11346902C8086F3108800F089FCEFF3108372B647
S11346A0D4F89C20E562AA4228BF2A46E26383F339
S11346B01088204600F004FCEFF3108272B6D9F89B
S11346C000309C4207D0216B29B9D96AE36A8B4236
S11346D005D8BC4208D082F31088BDE8F883E06BAB
S11346E08342F8D98142F6D3454588BF0449C9F8C5
S11346F0004088BF41F82340EDE700BF7010FE1F63
S1134700D80FFE1F7810FE1FEFF3108272B6816877
S113471019B982F310881E2070472DE9F0417C4CB2
S1134720C3682468A34282B0164603D0794C246837
S1134730002C49D00139816000294BD1002B49D08C
S1134740D3F8A4100139C3F8A410002946D1C3F842
S1134750A81081690469002971D0012CD3F898103C
S11347606C4C00F08F80C369012B05464ED9026959
S1134770012A3CD08769002F00F0A9804FF000087F
S1134780D7F8A420002A4FD1C7F8A850ED622D63B2
S11347900132013B0120C7F8A420EB61EF60A8605F
S11347A0002B3BD1AB612368002201332360BA663E
S11347B0C7F8842086F310882B69012B46D038462D
S11347C000F07EFB002002E082F310881E2002B07D
S11347D0BDE8F08182F310880020F8E7D3F8A850F0
S11347E0C16A046B0C638542E162B2D1AFE723680E
S11347F001910133236086F3108800F0FBFEEFF390
S1134800108672B623680199013B2360AF69002FBB
S11348105DD02B69012B52D0EB69AFE73B6F7A6F08
S1134820AB615A671367BEE7D7F8A800D0F830E049
S11348300563CEF82C50C5F830E0E862A8E7002CF8
S11348408BD1C46082F310882046C0E7EB6953B96A
S1134850B8F1000FB3D0D8F82C308B42AFD040461B
S1134860FFF7F0FEABE72846019100F0C3FEEFF33B
S1134870108272B6AB6901990BB1DB6AAB6282F349
S11348801088E5E725680135256082F31088D3F8A0
S1134890A8506DB12B4603E0DB6A9D4208D03BB1C2
S11348A01A69012AF8D19A6A914228BF1146F3E79E
S11348B0EFF3108672B62368013B236053E7FB6A6B
S11348C06B612023AB62D5F80C80EB6958E7236851
S11348D00133236086F310882B69012B0ED0EFF38C
S11348E0108172B62368AA68013B236002B9EA60AA
S11348F081F3108800F0C6FA002068E7E868C36A0C
S113490020228B42AA62EAD0FFF79CFEE7E700BFB1
S11349107410FE1F7010FE1FF8B517460D4638229E
S1134920002104461E4600F0B9FFBB00069AB2FB04
S1134930F3F203FB02636560A760E3616261E26016
S1134940A66126626662EFF3108072B60A4A0B49CA
S1134950136821600A495BB109684D6B4C632C6391
S1134960656321630133136080F310880020F8BD70
S1134970246364630C60F5E7B00FFE1F5545555181
S1134980D00FFE1F2DE9F843EFF3108572B60669C8
S1134990C46A46B374BB076AD0F808E03B680B608E
S11349A0BEF1010F07F104070ED90EF1FF333A46A9
S11349B052F8044B41F8044F013BF9D10EF1804EFB
S11349C00EF1FF3E07EB8E07C369BB42436908BF84
S11349D087690762013E01330661436185F31088EC
S11349E00020BDE8F883002A64D185F310880A20EA
S11349F0BDE8F883866AD6F88030012B7DD0036A3F
S1134A0087681A680A60012F03F1040C0CD97B1E15
S1134A10624652F804EB41F804EF013BF9D107F187
S1134A208043013B0CEB830CDFF82C81F16FD8F849
S1134A300030D1F800E0D0F81C90426A0133C8F885
S1134A400030D8F80030E14508BFD0F818C0C0F8ED
S1134A5020C0013B012FC8F8003002F1040CC2F859
S1134A6000E00CD904317B1E51F804EB42F804EF4A
S1134A70013BF9D107F18047013F0CEB870CCC4592
S1134A8008BFD0F818C0C0F824C0013C51D18462DA
S1134A90D8F80030C46201330024C8F80030B4668A
S1134AA0C6F8844085F31088304600F009FA2046A1
S1134AB0BDE8F883264F274B3F68F866F967C7F8C7
S1134AC08060BB66002C3AD187623F677F672249CA
S1134AD00B68013401334FF0050E0126C4620B60EC
S1134AE0FA64C7F830E0BE6385F31088384600F0F6
S1134AF05DFAD7F88400BDE8F883F26F836817681D
S1134B000F60012B07D9013B043252F8047B41F8B2
S1134B10047F013BF9D1013C18D0336F726F83627B
S1134B205A6713670C4AC462136801330024136084
S1134B30B5E7336F726F83625A671367A8E7836AB6
S1134B403B67596F79670F675F67C0E78462E9E77E
S1134B507410FE1F9D5600007010FE1FF8B5EFF391
S1134B60108572B64469C36A2CB34BBB036986686B
S1134B70426AD1F800E0013C0133012E4461036133
S1134B8002F10407C2F800E00CD90431731E51F895
S1134B90044B42F8044F013BF9D106F18046013E33
S1134BA007EB8607C369BB4208BF8769476285F381
S1134BB010880020F8BD5ABB85F310880B20F8BD7F
S1134BC05C1E866A45D0336F726F83625A671367BF
S1134BD08368F26F0F68C462012B4FF00000B06667
S1134BE0176007D9013B043151F8044B42F8044FD4
S1134BF0013BF9D11B4A1368002401331360C6F842
S1134C00844085F31088304600F05AF92046F8BDF8
S1134C10154E164F3668F066F167C6F88040B766E1
S1134C20CBB98662366776670E4C21680133013151
S1134C304FF0050E0127C3622160F264C6F830E02C
S1134C40B76385F31088304600F0B0F9D6F88400D5
S1134C50F8BD8462BCE7816A31674C6F746726676C
S1134C604E67E1E77010FE1F7410FE1F9D56000092
S1134C702DE9F84FDDF828800B9D0C9C0E9F06460D
S1134C808B469246EF212A464046994600F006FE9E
S1134C900021B022304600F001FE0D9BC6F828B07A
S1134CA06A1E424420219C42C6F844A0C6F848909B
S1134CB0C6F80C8075613261F462C6F89840B76139
S1134CC0F761C6F8A0103ED00023F363C6F89C3009
S1134CD00322234BB665326373653046214900F0E5
S1134CE06DFBEFF3108472B61F48204A03683260EC
S1134CF01F4AE3B9C6F88860C6F88C6016601D4A7E
S1134D000133116803600F9B0131012B11601ED028
S1134D1084F31088EFF3108372B6116801391160BF
S1134D2083F3108800F0AEF80020BDE8F88F126815
S1134D30D2F88C10C2F88C60C1F88860C6F88C1068
S1134D40C6F88820DBE7F463C6F89C40C0E784F328
S1134D501088304600F0B4F80020BDE8F88F00BF9A
S1134D60BD500000E14D00006810FE1F445248543D
S1134D706010FE1F7010FE1FF8B500240E4BDFF804
S1134D805CE00E4E0E4F0F483460214620258022F1
S1134D901D60CEF800403C6000F080FD0A4A0B4ED6
S1134DA013680B4D0B480C49346043F0C5732C60F9
S1134DB004600C601360F8BD7C10FE1F5C10FE1FC5
S1134DC07810FE1FD80FFE1F6410FE1F6010FE1F18
S1134DD06810FE1F7010FE1F5810FE1F7410FE1F77
S1134DE038B50E4B1C68636CA06C98470C4B1B6861
S1134DF00BB120469847EFF3108372B60948026856
S1134E00012100250132E56402602163A16383F37B
S1134E1010882046BDE8384000F0C8B87410FE1F62
S1134E205810FE1F7010FE1F38B5EFF3108172B6D4
S1134E30114B1C682CB1EFF30583104A126813431D
S1134E4003D081F31088132038BD10B981F3108882
S1134E5038BD0B4AC4F884301368E0640133042578
S1134E60012013602563A06381F31088204600F0BD
S1134E709DF8D4F8840038BD7410FE1F2000FE1F76
S1134E807010FE1F0A4B1B688BB90A4A0A4B126842
S1134E901B689A420BD0094B4FF080525A60EFF3D3
S1134EA0058323B9EFF3108362B683F31088704748
S1134EB07010FE1F7410FE1F7810FE1F00ED00E03E
S1134EC0F8B5436E0446002B41D04C3000F07EF917
S1134ED0EFF3108172B62E4AA06B1368013B136086
S1134EE0236BB8B9FBB92B4D2B4B186881F3108891
S1134EF02B6898420DD013685BB9284B4FF0805251
S1134F005A60EFF3058323B9EFF3108362B683F39A
S1134F101088F8BD013B012BE5D9636B93B91D4D96
S1134F20A3632363E0E7636B63B9E06A1C4D236307
S1134F3055F820306BB1586A164D04625C626062A9
S1134F402362D1E70020032360632363CBE7C364B8
S1134F50BEE7144F45F820403B68134E24620125F8
S1134F6085402B433B60336864629842094DBBD251
S1134F702B6830604BB1DB6B9842B5D22C6081F367
S1134F8010881368002BB8D0C3E72C60ACE700BFCF
S1134F907010FE1F7810FE1F7410FE1F00ED00E05D
S1134FA0D80FFE1F5C10FE1F7C10FE1FF8B53B4B94
S1134FB004461D68EFF3108072B6AC423BD0384A09
S1134FC0A16B1368012903F1FF33136014D0354B2F
S1134FD080F310881B689D420DD013685BB9324B77
S1134FE04FF080525A60EFF3058323B9EFF3108337
S1134FF062B683F31088F8BD236AE66A4FF0000EA8
S1135000A342C4F838E027D0284F616A57F826E055
S11350105962A6450B6234D0224B19688C42D7D111
S11350202349096857F82110196080F31088136820
S1135030002BD4D0DFE7E36C013B033308D880F3C3
S1135040108804F14C0000F087F8EFF3108072B67A
S1135050184BE2691A60B2E7174B144FB14047F896
S113506026E01E6826EA0101196069B9104C0D4B4F
S113507020252560196080F310881368002BAED0BA
S1135080B9E747F82630C7E74B42094E0B40B3FA5D
S113509083F3C3F11F033360BEE700BF7410FE1F28
S11350A07010FE1F7810FE1F00ED00E0D80FFE1FE9
S11350B07C10FE1F0811FE1F5C10FE1FEFF3108111
S11350C072B6026B042A05D0836E81F3108803B193
S11350D018477047034A13680133136081F310883B
S11350E0FFF7EEBE7010FE1FF8B5104D104E114BB9
S11350F0DFF860E0104F0024214680223460284607
S11351000E4E3C601C60CEF800400D4F00F0C6FB14
S11351100C480D490D4A0E4B356005F180063D6083
S113512006600C6014601C60F8BD00BF8410FE1F94
S11351302011FE1F0411FE1F0811FE1F1411FE1F73
S11351408010FE1F0C11FE1F1011FE1F1811FE1FF0
S11351501C11FE1F2411FE1FEFF3108172B60268AA
S1135160531E13F1030F07D810B484693CB181F3C3
S113517010885DF8044B704781F310887047104C19
S1135180202A104A2468126894BF9B007C2323447D
S1135190934203D30C4C24689B1A23441A6852B1DB
S11351A054692061506144610261836181F3108814
S11351B05DF8044B7047006140611860F5E700BF7B
S11351C08010FE1F0C11FE1F1411FE1F10B4EFF30C
S11351D0108472B6826962B1036998420ED0416943
S11351E059610B611168814204BF9A611360002305
S11351F0836184F310885DF8044B7047136883421D
S1135200F5D100231360F2E710B472B6154A164BB9
S113521016491468164A1A600A681648164B046040
S113522042F001020A6015481B68A0FB03235B09D6
S1135230013BB3F1807F09D2114A12485360F02434
S11352400021072380F82340916013600D4BF02266
S11352500021DA7783F8222083F823105DF8044BC9
S1135260704700BF00000000BC0FFE1F001000E0EC
S11352702C35FE1F6C10FE1FBC0EFE1F1F85EB514C
S113528010E000E000ED00E0114B124C124813490D
S1135290002222609A809A821A801A829860D960C9
S11352A09861D961EFF3088282F309880C48B0F859
S11352B0202192B2012142F48052A0F82021998049
S11352C0998262B6074B4FF080525A60FEE700BFE6
S11352D0000D00407010FE1F2821FE1F2835FE1F00
S11352E00060004000ED00E02E4B1A68002A56D002
S11352F0EFF3098CACF1200C8CF309880CF1200C31
S11353002CE9F00F1EF0100F07D1ACF1400C8CF318
S113531009880CF1400C2CED108A7146C2F89010EB
S1135320614621489160016811B1002491610460D3
S113533072B61E490A68002A27D01A6062B61A6833
S11353401B495468956905600134002054608882C3
S1135350D0688861106940F00300C861D2F89020D9
S113536096461B689B689C461EF0100F01D1BCEC4E
S1135370108ABCE8F00F8CF3098801238B827047F4
S1135380FEE762B630BFBFF36F8F72B60A6812468B
S11353901A60002AF5D0074A1B215160CEE7024863
S11353A0C6E700BF7410FE1F0811FE1F7810FE1F11
S11353B0000D004000ED00E000F024B80269A2F105
S11353C0400222F007024FF0000313605360936021
S11353D0D36013615361C36893614FF00003D361D9
S11353E0136253629362D36213634FF0FF335363C8
S11353F091634FF08073D36382606FF00203C0F84F
S11354009030704729492A480A680368013210B568
S11354100A601BB1013B0360002B2AD0254B264CAC
S11354201A682168106800282ED0244B01221A60C3
S113543000F0AAF92368CBB9214B1B685BB1214A60
S11354401268934207D0204B1B6823B91F4B4FF0BF
S113545080525A6010BD10BD1D480068043282425B
S11354601A601ED0154B1B68002BE1D100F052F9D5
S1135470E2E7104B104C1A681068012121600028E3
S1135480EAD00E4B1960D3E7114800680432824217
S11354901A6006D00029E5D1084B1B68002BCBD03D
S11354A0C6E70C4A12681A60F4E700BF2411FE1F15
S11354B00811FE1F8010FE1F2011FE1F0411FE1F85
S11354C07810FE1F7410FE1F7010FE1F00ED00E028
S11354D00C11FE1F1411FE1F38B5EFF3108272B6C3
S11354E0C36E2BB1816E19B114491C688C4202D071
S11354F082F3108838BD59690029F9D01C69002548
S1135500856644B101395961B1B1016F456F4D6789
S11355108442296710D0036B072BE9D10849C0F8EE
S113552084300B6801330B6082F31088FFF7C8FCEA
S1135530EFF3108272B6DBE71961ECE74E44564490
S11355407010FE1F38B5EFF3108272B6C36E2BB124
S1135550816E19B114491C688C4202D082F3108800
S113556038BDD9690029F9D0013900248466D9618C
S1135570C1B19D69016F446F4C678542216711D0A9
S1135580036B0D2BEAD109490B681D2401330B6011
S1135590C0F8844082F31088FFF792FCEFF3108286
S11355A072B6DBE79961EBE74554554D7010FE1F69
S11355B070B50446EFF3108372B60D4ED0F8A80010
S11355C0326801323260012558B1856083F3108856
S11355D0FFF79AF8EFF3108372B6D4F8A800002806
S11355E0F2D13268013A326083F3108870BD00BF93
S11355F07010FE1FF8B5EFF3108472B6C769012F5F
S113560043D9022F3AD0DFF890E08269DEF8003007
S1135610116F0133CEF80030154605E0C769196FE4
S11356201A46994212D01D46D36ACE6A9E4238BFAA
S11356300A4684F31088EFF3108472B68369AB4290
S1135640ECD1C569BD4224D02F46E8E7DEF800302E
S1135650914203F1FF33CEF8003009D0166F556F35
S113566075674B6F2E67536711671A674A678261C4
S113567084F31088FFF706FC0020F8BD83691A6FD5
S1135680DB6AD16A994238BF826184F310880020B2
S1135690F8BD096FC5E700BF7010FE1F38B5EFF302
S11356A0108272B6C36E2BB1816E19B117491C6892
S11356B08C4202D082F3108838BDD96A0029F9D00F
S11356C0013900248466D962D1B19D6A016F446FA7
S11356D04C678542216713D0016B0529EAD11B6908
S11356E083B90A23C0F8843009490B6801330B607D
S11356F082F31088FFF7E4FBEFF3108272B6D9E768
S11357009962E9E70B23C0F88430EDE7554555511C
S11357107010FE1F164B1B68EFF3108272B615490A
S11357200020086093B1196B81B9186AD96910B463
S1135730114C99619842216003D0D96ADB6B99427C
S113574007D082F310885DF8044B704782F3108809
S113575070470A4B0A4C43F821002068094953F862
S113576020300B6082F310885DF8044B704700BF53
S11357707410FE1F2011FE1F0811FE1FD80FFE1FFC
S11357807C10FE1F7810FE1F2DE9F04F83B000231C
S11357900193EFF3108072B6DFF8F490D9F800406B
S11357A0002C56D1384B1B68002B52D00123374EA6
S11357B0DFF8E080DFF8E0B0C9F8003033681B6838
S11357C000930BB1C3F818D0336800221A60336811
S11357D0D8F800200433934233604FD02A4B00257D
S11357E01D6080F31088EFF3108072B612E0203A47
S11357F00DF1040A3A603F61C7F818A0002280F353
S113580010880AB120469047EFF3108072B6BA6947
S1135810524529D0009FB7B13A69974222D079699D
S1135820516100920A61C2F818D03A68202ADED881
S113583079683960BA68FC6881B10DF1040A3F6186
S1135840C7F818A0DBE7104B1B68002BB6D1C9F8CA
S1135850003080F3108803B0BDE8F08FB9610DF11A
S1135860040ACCE70095E0E7BD6180F31088384670
S1135870FFF772FCEFF3108072B6CBE7034ADBF854
S113588000301360AAE700BF0411FE1F8010FE1F42
S11358901011FE1F0C11FE1F1411FE1F70B484079B
S11358A046D0541E002A41D0CDB2034602E0621E07
S11358B0E4B3144603F8015B9A07F8D1032C2ED9FC
S11358C0CDB245EA05250F2C45EA054519D903F162
S11358D010022646103E0F2E42F8105C42F80C5C73
S11358E042F8085C42F8045C02F11002F2D8A4F118
S11358F0100222F00F0204F00F041032032C1344A0
S11359000DD91E462246043A032A46F8045BFAD807
S1135910221F22F003020432134404F003042CB1C6
S1135920C9B21C4403F8011BA342FBD170BC7047ED
S113593014460346C2E700BF024B13B1024800F00D
S113594005B87047000000005959000001460020C6
S11359500246034600F016B838B5084B084DED1A58
S1135960AC1018BFED1805D0013C55F8043D98471C
S1135970002CF9D1BDE8384000F08CB85804FE1F63
S11359805C04FE1F2DE9F047254C2568D5F84841F5
S11359900646884692469946CCB360681F2818DCB0
S11359A0431C7EB104EB80050121C5F888A0D4F81E
S11359B0887101FA00F21743022EC4F88871C5F801
S11359C008911ED00230636044F820800020BDE8B6
S11359D0F087144B03B34FF4C870AFF30080044650
S11359E0D0B1D5F84831002780E88800C5F848418F
S11359F038460123C4F88871C4F88C71002EE1D0B4
S1135A00D0E7D4F88C110A43C4F88C21DAE705F501
S1135A10A674C5F84841C0E74FF0FF30BDE8F087F1
S1135A2024610000000000004275696C74207769ED
S1135A3074682052656E657361732053796E657264
S1135A4067792028544D2920536F667477617265F5
S1135A50205061636B6167652076657273696F6E50
S1135A6020312E312E302B6275696C642E303263F6
S1135A70336638626134323234000000312E312E04
S1135A803000000000000101F8B500BFF8BC08BCFC
S1135A909E467047F8B500BFF8BC08BC9E467047E8
S1135AA06D050000890600000D08000029070000AC
S1135AB0C1060000F90600005D050000554152547E
S1135AC02057726974650000554152542052656133
S1135AD06400FFFF0101010106000000010008004D
S1135AE00101000010000001000018000000010185
S1135AF020000000000040000001000160000000E0
S1135B000102800000000001000100010002800188
S1135B100000010300020000000200040001000371
S1135B20000800000003FFFF450E0000510A0000BA
S1135B30290C00000D0D000039090000A90900001E
S1135B4099090000351C0000691C0000611D00005B
S1135B50A51D0000011E0000351E0000A51C00004C
S1135B60111D0000311D0000811D0000E11D000019
S1135B70C91C0000ED1C0000251C0000D91E0000FB
S1135B80AD1E0000511E0000611E0000711E0000C9
S1135B90851E0000991E000001010101010101019F
S1135BA05121000051200000311F0000951F00000A
S1135BB0291F00002D1F0000C91F0000052100003F
S1135BC03D200000010002000300FFFF000001006F
S1135BD00200FFFF0100010001000000052E00008B
S1135BE0B52E0000B92F0000F5300000312D000063
S1135BF0492D0000552E0000653000006D2D000079
S1135C00992D0000A52D0000B12D0000BD2D000030
S1135C10C92D0000D52D0000152D0000192D000000
S1135C201D2D0000E12D0000ED2D0000F92D0000D8
S1135C30E9300000212D00000101010101000200F2
S1135C400800FFFF020403040404FFFF0100000036
S1135C50000000000000000003000000605C000081
S1135C60000601060206FFFF0000FE1F740100008B
S1135C70000000009C5C0000000000000000000028
S1135C8080250000000000009C5C0000F85C00001F
S1135C90A5390000D85C0000D05C0000780FFE1F1E
S1135CA0685C0000A05B0000B85C0000800FFE1F71
S1135CB0A85C0000A05A0000D85C0000D00CFE1FB5
S1135CC0426C696E6B792054687265616400FFFFF1
S1135CD00000010000000000840FFE1F7C5C000037
S1135CE0285B00001000FE1F75010000000000008A
S1135CF0F85C000000000000700FFE1FE45C000070
S1135D00A05B00007E0000000C5D0000008000002D
S1135D10000000000080000001000000008000007E
S1135D20020000000000000003000000004000002A
S1135D3004000000004000000500000000400000D6
S1135D4006000000000000000700000000800000C2
S1135D50080000000080000009000000004000006E
S1135D600A000000008000000E0000000080000017
S1135D700F000000000401060001000000040106F9
S1135D8001010000000401060201000000040106F4
S1135D9003010000000401040401000000040104E4
S1135DA005010000000C01040601000004040000C9
S1135DB007010000000001000801000000000100CC
S1135DC009010000000001000A0100000040000079
S1135DD00B010000000000000C010000040400009E
S1135DE00D010000000000000E0100000000000092
S1135DF00F0100000000000000020000000000008D
S1135E0001020000000C0104020200000000000076
S1135E10030200000000010C040200000000010C59
S1135E20050200000000010C060200000000010C45
S1135E3007020000000000000C0200000000000047
S1135E400D02000000000100000300000004010432
S1135E50010300000004010402030000000000002C
S1135E60030300000004010404030000000401040F
S1135E7005030000000C01040603000004040000F4
S1135E8007030000000000000803000004040000F1
S1135E9009030000000000000A03000000000000E5
S1135EA00B030000000000000C03000000040119B3
S1135EB00D030000000401190E0300000004011981
S1135EC00F03000000400000000400000000011067
S1135ED00104000000000110020400000004011786
S1135EE0030400000004011704040000000C01175F
S1135EF005040000000C0117060400000000011353
S1135F00070400000000010C080400000000010C5C
S1135F1009040000000401040A0400000004010450
S1135F200B040000000C01040C0400000404000035
S1135F300D0400000000010C0E0400000000010C20
S1135F400F040000000C011100050000000C0111F9
S1135F5001050000000C011102050000000C0111F4
S1135F6003050000000C011104050000000C0111E0
S1135F700505000000000000060500000000000008
S1135F8007050000000000000B05000000000000F1
S1135F900C050000000000000D05000004040000D2
S1135FA000060000040400000106000004040000D0
S1135FB002060000000000000306000000000000CC
S1135FC0040600000000000005060000000401199A
S1135FD00606000000040119070600000000000086
S1135FE00806000000000000090600000000000090
S1135FF00A060000000000000B060000000000007C
S11360000C060000000000000D0600000000000067
S11360100E060000000401190F060000000C011711
S113602000070000000C011701070000000C011715
S113603002070000000C011703070000000C011701
S113604004070000000C0117050700000004010507
S1136050060700000004010507070000040400000F
