S0180000424D45323830535049546573744E65772E73726563E8
S11300006031FE1F1D510000D94B00001951000042
S1130010195100001951000019510000000000009E
S11300200000000000000000000000001951000062
S1130030195100000000000019510000195100007E
S1130040B92C00004D2C0000912D0000252D00003E
S1130050DD2C0000712C0000B52D0000492D00009E
S1130060012D0000952C0000D92D00006D2D0000FD
S1130070000000000000000000000000000000007C
S1130080000000000000000000000000000000006C
S1130090000000000000000000000000000000005C
S11300A0000000000000000000000000000000004C
S1130400FFFFFFFFFFFDFFFFFFFFFFFFFFFFFFFFFA
S1130410FFFFFFFFFFFFFFFFFFFFFFFFFFFFFFFFE8
S1130420FFFFFFFFFFFFFFFFFFFFFFFFFFFFFFFFD8
S1130430FFFFFFFFFFFFFFFFFFFFFFFFFFFFFFFFC8
S1130440FFFFFFFFFFFFFFFFFFFFFFFFFFFFFFFFB8
S1130450FFFFFFFFFFFFFFFFFFFFFFFFFFFFFFFFA8
S1130460FFFFFFFFFFFFFFFFFFFFFFFFFFFFFFFF98
S1130470FFFFFFFFFFFFFFFFFFFFFFFFFFFFFFFF88
S1130480FFFFFFFFFFFFFFFFFFFFFFFFFFFFFFFF78
S1130490FFFFFFFFFFFFFFFFFFFFFFFFFFFFFFFF68
S11304A0FFFFFFFFFFFFFFFFFFFFFFFFFFFFFFFF58
S11304B0FFFFFFFFFFFFFFFFFFFFFFFFFFFFFFFF48
S11304C0FFFFFFFFFFFFFFFFFFFFFFFFFFFFFFFF38
S11304D0FFFFFFFFFFFFFFFFFFFFFFFFFFFFFFFF28
S11304E0FFFFFFFFFFFFFFFFFFFFFFFFFFFFFFFF18
S11304F0FFFFFFFFFFFFFFFFFFFFFFFFFFFFFFFF08
S113050010B5054C237833B9044B13B10448AFF349
S113051000800123237010BDC408FE1F00000000EA
S1130520A8C20000084B10B51BB108480849AFF336
S113053000800848036803B910BD074B002BFBD0AB
S1130540BDE81040184700BF00000000A8C200002A
S1130550C808FE1FA808FE1F0000000000F01F01CD
S113056001234009024A8B4042F82030704700BF03
S113057000E100E04309203300F01F00012202499A
S1130580824041F82320704700E100E020B319B312
S113059030B54368002283B005460C464A600A60C1
S11305A0E3B19A68AAB192699AB11868694690470A
S11305B080B9009B6360A868A0B183684BB19B6954
S11305C03BB100686946984720B9009B236003B09B
S11305D030BD012003B030BD012070474FF0FF3320
S11305E04B60E8E74FF0FF332360F3E70123037028
S11305F043708370C3700020704700BF08B338B5E0
S113060004460068104A0301D35C012B05D0002581
S1130610A56102F073FA284638BD63682BB19A6865
S11306206AB1186858B1D3699847A3682BB19A681E
S11306302AB1186818B1D36998472068E7E7012000
S113064038BD0120704700BF780CFE1F58B151B16E
S113065070B40568124E2C01345D013C042C04D99D
S1130660052070BC70470120704705F1007505F541
S113067060556D01AC79E40608D562B143689A68A7
S11306805AB11868B0FA80F04009EAE71943CB0779
S1130690F3D50320E5E71046E3E70120E1E700BFD7
S11306A0780CFE1F2DE9F0411346144642680546B6
S11306B00E46FFF7CBFF88B994B12B68174F03F1AF
S11306C0007101F5605149011B018A79FB5C12F04C
S11306D0100F14BF01220222012B04D0BDE8F081C7
S11306E02046BDE8F08168680028F7D0B4FBF2F436
S11306F0836800684FF6FF77BC4228BF3C465F68BA
S1130700022A4FF0010E3246A3B285F814E0BC462B
S11307100CBF10311131BDE8F0416047780CFE1F69
S11307200AB90320704700297CD12DE9F04F514BC1
S1130730514F5E6985B042F21078144601900D461F
S11307408B46C1464FF0FF0A002003A9B0470BEBCC
S11307504B03002840F0898037F81330039ADFF800
S113076018C104FB03F3B2FBF3FE0EF1FF31BEF13B
S1130770000F12D003FB0EF3520AFF2909FB02F209
S11307804FEA532309D8B2FBF3F2A2F51C53103BF2
S1130790434502DA98468A465D460BF1010BBBF1EC
S11307A00D0FD1D142F2107398455ED0019B03F135
S11307B0007303F560535B0105EB45059A780CEB78
S11307C0450C5FFA8AFA22F003029A7083F801A0BA
S11307D0DA799CF8021022F0400201F0010142EAA9
S11307E08112DA71DA799CF8031022F0100201F018
S11307F0010142EA0112DA71DA799CF8041022F05C
S1130800080201F0010142EAC102DA719CF80520F4
S11308101C7802F0030124F003020A431A7005B0A5
S1130820BDE8F08F00F1007000F560504001FF2337
S11308304370C37923F04003C371C37923F00803E1
S1130840C371037823F003030370837823F0030355
S113085043F002038370C37902290CBF43F01003F1
S113086023F01003C37100207047032005B0BDE8D6
S1130870F08F00BFD8BA000040B90000F0B51346AD
S113088083B01546826804460E46FFF7DFFE10B9B2
S1130890E06810B1082003B0F0BD236833491A01A1
S11308A08F188A5C012AF6D1797801B97A7003F13C
S11308B0007303F560535A01A168937913F0100F84
S11308C014BF01230223002949D0012D47D9022B4B
S11308D0A5EB03004FF6FF77B5FBF3F5236105F1B4
S11308E0FF330CBF0E320F328D68BB42304428BF39
S11308F03B46E0606D6808689BB23146A847002813
S1130900C9D1226802F1007202F560525201937853
S113091043F0200393702468042C25D0082C21D0A4
S1130920002C0CBF01200C20FFF718FE04F100730B
S113093003F560535B0100209A78D2B28DF807204A
S11309409A78D2B28DF807209A78D2B28DF807201F
S11309509A7862F07F029A709DF807309BE7E66010
S11309602561D4E70920DFE70520DDE7780CFE1FC9
S113097068B370B50468042C82B005460E4600F0D6
S1130980B180082C25D0002C00F0B7800C20FFF794
S1130990F1FD042C00F0A980082C1DD0002C00F0DF
S11309A0AF800C20FFF7E6FD042C00F0A180082C9A
S11309B015D0002C00F0A7800C20FFF7DBFD042CE1
S11309C000F09980082C0DD00C2064B99EE0012021
S11309D070470920FFF7CEFD0A20FFF7CBFD082062
S11309E0FFF7C8FD0B20FFF7C5FD04F1007303F505
S11309F060535B019A78D2B28DF806209A78D2B20D
S1130A008DF806209A78D2B28DF806209A7802F0F2
S1130A107F029A709A7822F004029A709A7822F0EF
S1130A2040029A702B689DF8062003F1007303F5C9
S1130A3060535B019A7802F0DF029A702B6803F12D
S1130A40007303F560535B019A7802F0EF029A7029
S1130A50286800F1007303F560535B01997811F085
S1130A60030105D0DB7913F0100F14BF0221032119
S1130A703246FFF755FE2B6803F1007303F560530C
S1130A805B0106469A7842F010029A702C68042C96
S1130A9048D0082C41D0002C3AD00C20FFF75EFD42
S1130AA0042C42D0082C3BD00C20A4B3FFF756FDF5
S1130AB004F1007303F560535B0130469A78D2B2B7
S1130AC08DF807209A78D2B28DF807209A78D2B29E
S1130AD08DF807209A7842F040029A709DF807300A
S1130AE002B070BD0520FFF745FD0620FFF742FD6B
S1130AF00420FFF73FFD072075E70120FFF73AFDCB
S1130B000220FFF737FD0020FFF734FD03206AE7DA
S1130B102046FFF723FD0320C8E72046FFF71EFD0C
S1130B200B20C3E72046FFF719FD0720BEE700BFEF
S1130B302DE9F04F87B0A8B1A1B1064608680C466C
S1130B4002F07EF848B92068194F0301FB5C73B1C9
S1130B500825284607B0BDE8F08F0546284607B0AB
S1130B60BDE8F08F0125284607B0BDE8F08F237A51
S1130B70022B04D90325284607B0BDE8F08FA37AD9
S1130B80012BF7D8637A022BF4D8D4F81C80B8F17F
S1130B90000F07D098F80030002B40F0A283636860
S1130BA0002BE7D001F08EFF054618B10A25D0E7E7
S1130BB0780CFE1FE3682269B2607360002B4CD08E
S1130BC0D3F808C0BCF1000FCCD0D3F80090B9F131
S1130BD0000FC7D05A68002AC4D01368002BC1D0B4
S1130BE0D878997894F808E04FF0020A65F38710F2
S1130BF06AF3830165F3830065F34511D645D87024
S1130C00997000F0BC82D97865F30511D970D4F8D5
S1130C1000B0BBF1040F05D0BBF1080F02D0BBF14B
S1130C20000F9FD19246BAE80F000DF1040EAEE812
S1130C300F00604BDAF80020CEF8002033F81B20B8
S1130C40DCF80030ADF80820002248468DF80A2070
S1130C5001A99847002880D12269002A51D0D2F8EE
S1130C6008C0BCF1000F3FF47DAFD2F80090B9F199
S1130C70000F3FF477AF5268002A3FF473AF136854
S1130C80002B3FF46FAFD878997894F808E04FF0D0
S1130C90020A00F03F0001F0F3016AF383006FF3EE
S1130CA04511D645D870997000F01583D9786FF343
S1130CB00511D970D4F800B0BBF1040F06D0BBF114
S1130CC0080F03D0BBF1000F7FF44CAF9246BAE893
S1130CD00F000DF1040EAEE80F00374BDAF80020D8
S1130CE0CEF8002033F81B20DCF80030ADF80820E3
S1130CF0002248468DF80A2001A9984700287FF46D
S1130D002CAF0120D4F8009004F044F92B4AC9F127
S1130D101F0913684FF0010A0AFA09F123EA0103D3
S1130D201360504604F012F9236803F1007303F5CD
S1130D3060535B0106221A77D4F80090B9F1040FCE
S1130D4000F04382B9F1080F00F05582B9F1000FA9
S1130D5000F046820C20FFF70DFCB9F1040F00F0FF
S1130D603782B9F1080F00F04982B9F1000F00F0A1
S1130D703A820C20FFF7FEFBB9F1040F00F02B823E
S1130D80B9F1080F00F03D82B9F1000F00F02E8296
S1130D900C20FFF7EFFBB9F1040F00F01F82B9F14B
S1130DA0080F00F031820C20B9F1000F00F021820D
S1130DB006E000BF2CB9000090B9000000700440A8
S1130DC0FFF7D8FB09F1007303F560535B019A78D0
S1130DD0D2B28DF803209A78D2B28DF803209A7893
S1130DE0D2B28DF803209A7802F07F029A709A7832
S1130DF022F004029A709A7822F040029A702368D2
S1130E009DF8032003F1007303F560535B019A78A6
S1130E1002F0EF029A70236803F1007303F5605344
S1130E205B019A7802F0DF029A70236803F1007381
S1130E3003F560535B019A8A22F001029A822368C7
S1130E4003F1007303F560535B019A8A42F00202D6
S1130E509A822369002B00F02482236803F1007333
S1130E6003F560535B019A8A22F470629A822368C4
S1130E7003F1007303F560535B019A8A6FEA02522F
S1130E806FEA12529A82226802F1007202F56052ED
S1130E905201938A43F004039382938A5907FCD442
S1130EA02369002B00F0B281236803F1007303F57A
S1130EB060535B019A8A22F0F0029A82B8F1000F23
S1130EC000F0258198F80230002B00F04D81236852
S1130ED003F1007303F560535B01DA7962F07F027A
S1130EE0DA7198F80330002B00F01B81236803F1BA
S1130EF0007303F560535B010021DA7942F02002AC
S1130F00DA7119722368D4F81C8003F1007303F5B5
S1130F1060535B015A7A22F001025A72236803F18A
S1130F20007303F560535B015A7B02F07F025A732E
S1130F30236803F1007303F560535B015A7B22F0CD
S1130F4040025A73637A002B00F00381236803F193
S1130F50007303F560535B011A7842F020021A70A3
S1130F60637A012B236803F1007303F560534FEA9E
S1130F7043131A780CBF42F0100222F010021A70C8
S1130F80237A012B00F00181022B236803F1007303
S1130F9003F560534FEA43131A7822F040021A70A3
S1130FA09A790CBF22F0100242F010029A71A37ACF
S1130FB0012B236803F1007303F560534FEA4313D5
S1130FC01A780CBF42F0080222F008021A70E37A81
S1130FD0002B00F0B380236803F1007303F5605322
S1130FE05B015A7B42F002025A73B8F1000F00F021
S1130FF0188198F8001029B1022903D003290CBFE5
S11310000321002194E80500FFF78AFB032800F080
S1131010108198F80130002B40F0C680236803F15A
S1131020007303F560535B019A78997802F0020229
S113103021F003010A439A70226802F1007202F55A
S113104060525201938A9B07FCD4938AC3F38003B2
S1131050002BFAD1918A41F001019182226802F1B8
S1131060007202F5605252014FF0010E918A21F094
S1131070080191822268A069616932604FEA02180E
S113108002F1007207EB080C02F56052F061B161E5
S1131090F36033613375520107F808E08CF80130CE
S11310A0CCF80460937843F0100393702468042C04
S11310B000F00C81082C00F00481002C00F0FC806E
S11310C00C20FFF74BFA042C00F00381082C00F0ED
S11310D0FB800C20002C00F0F280FFF73FFA04F1B3
S11310E0007303F560535B019A78D2B28DF8042043
S11310F09A78D2B28DF804209A78D2B28DF804206E
S11311009A7842F040029A709DF8043021E52368F1
S113111003F1007303F560535B01DA7902F07F0297
S1131120DA71236803F1007303F560535B01002156
S1131130DA7922F02002DA711972E3E6236803F106
S1131140007303F560535B015A7B22F002025A7369
S11311504BE7236803F1007303F560535B011A78CE
S113116022F020021A70FBE6236803F1007303F5F2
S113117060535B01DA7902F07F02DA71B1E6C1B241
S1131180012060F30511D97041E5236803F1007370
S113119003F560535B011A7842F040021A709A79A1
S11311A042F010029A7102E7236803F1007303F519
S11311B060535B019A78997802F0030242F00102CD
S11311C021F003010A439A7036E70520FFF7D2F9AC
S11311D00620FFF7CFF90420FFF7CCF90720EFE54D
S11311E05046FFF7C7F90220FFF7C4F90020FFF7C4
S11311F0C1F90320E4E50920FFF7BCF90A20FFF751
S1131200B9F90820FFF7B6F90B20D9E5236803F1F3
S1131210007303F560535B019A8A42F0F0029A82EC
S11312204CE6414694E80500FFF77AFA03287FF478
S1131230F5AE236803F1007303F560535B019A78FC
S1131240997802F0020221F003010A439A7073684C
S11312501BB19A681868D3699847B3681BB19A6838
S11312601868D3699847236803F1007303F5605342
S11312705B010120DA7902F07F02DA71256803F05C
S113128089FE1A4A01201368C5F11F0500FA05F109
S11312900B43136003F05AFE206801F025FC03257C
S11312A057E4236803F1007303F560535B019A8AE2
S11312B042F470629A82DAE52046FFF74FF9032080
S11312C00BE72046FFF74AF90B2006E72046FFF715
S11312D045F9072001E7C1B2012060F30511D97077
S11312E0E8E4023B012B3FF645AC5BE400700440AC
S11312F0734B03EB0013F0B55C682268A76800F138
S1131300007502F1007202F5605305F560555B014A
S11313106D0183B0EE8A997911F0100FC6F3042E93
S113132014BF01210221002F69D0BEF1000F0FD19B
S1131330E26816781A79D209FCD0B2B2DA8123694C
S1131340E2685B1A11442361E16023B103B0F0BD8C
S11313502369002BFAD10428064600F09980082856
S113136036D000287DD00C20FFF7F8F8AB78DBB23C
S11313708DF80630AB78DBB28DF80630AB78DBB293
S11313808DF80630AB7843F00403AB70042E9DF85F
S1131390063000F09280082E2FD00C20002E75D03D
S11313A0FFF7E8F8AB78DBB28DF80730AB78DBB247
S11313B08DF80730AB78DBB28DF80730AB7803F0EB
S11313C07F03AB709DF807200023E36003B0F0BDFA
S11313D00A20FFF7C3F8AB78DBB28DF80630AB78A0
S11313E0DBB28DF80630AB78DBB28DF80630AB7823
S11313F043F00403AB709DF806300920D0E726695A
S11314004EB3CEF11006002E25DDE368012902F566
S113141060520CBF93F800E0B3F800E05201137976
S1131420DB09FCD05FFA8EF3D3812269E368521A98
S11314300F440B44BA4206F1FF362261E36004D93B
S11314401EB1226802F10072E0E7236803F1007321
S113145003F560535B011A7902F07F021A71236964
S113146073E70220FFF77AF8AB78DBB28DF8063029
S1131470AB78DBB28DF80630AB78DBB28DF8063092
S1131480AB7843F00403AB709DF80630012087E786
S11314900620FFF763F8AB78DBB28DF80630AB7843
S11314A0DBB28DF80630AB78DBB28DF80630AB7862
S11314B043F00403AB709DF80630052070E700BFCD
S11314C0780CFE1F2E4B03EB00132DE9F04FD3F8DD
S11314D004B0DBF80030DBF8042000F1007403F101
S11314E0007303F5605304F560545B01640185B037
S11314F0E58A9B7913F0100F064605F01F0514BF0B
S11315004FF001084FF0020812B19BF8143023BBCE
S11315104FF0000AD146802712E0238ADBF8182016
S11315209BB2DBB252B1DBF81C10009602938DF82B
S1131530047003919047B8F1020F07D00AF1010A31
S113154055456846E9D105B0BDE8F08FCDF808905F
S1131550DBF8183068469847F0E7DBF818300022CB
S11315608BF81420002BD3D0DBF81C100090012042
S11315708DF804000292039168469847C8E700BFBB
S1131580780CFE1FF0B51E4E05017319042887B0B0
S113159004465F682FD008282FD000280CBF0220F3
S11315A00C20FEF7E7FF04F1007303F560535B01C1
S11315B09A78D2B28DF807209A78D2B28DF80720A3
S11315C09A78D2B28DF807209A7822F004029A70A1
S11315D0BB699DF807204BB1FA69059200210222EC
S11315E0029404918DF80C2002A8984735440023F6
S11315F06B7007B0F0BD0620D3E70A20D1E700BF27
S1131600780CFE1F10B500F1007303F560535B0105
S113161016491C8A1A7901EB001122F0400249682C
S11316201A711A7922F001021A711A79920684B099
S1131630E4B20CD520238DF804308B692BB1CA6930
S11316400090039202946846984704B010BD1A793A
S1131650D20607D51B7FDB0754BF102308238DF860
S11316600430EAE704238DF80430E6E7780CFE1F23
S113167000F01F0101234009024A8B4042F8203048
S1131680704700BF00E100E04309203300F01F0071
S113169001220249824041F82320704700E100E022
S11316A0012343700370C37083700020704700BF30
S11316B0A1B198B12DE9F04F05468BB008680C46EE
S11316C001F0BEFA38B92668B54B4FEA061813F88C
S11316D008302BB108200BB0BDE8F08F0120704713
S11316E04FEA8609DFF8CCA209EB06030AEB830371
S11316F09B78002BEED1304601F0E4F908B10A20C2
S1131700E9E76369002B40D09A68009282B11A68B5
S113171001926AB15B685BB1D3F800E0BEF1000FDF
S113172006D022680292042A04D0082A02D00AB100
S11317300120D0E79EF802C09EF803B01F460223A2
S113174063F3830C0FCF0BF0330B6FF3451C6FF374
S1131750051B8EF802C08EF803B00DF1140EAEE82E
S11317600F003A68CEF8002002998E4A019832F8A8
S11317701110009A002307931268ADF818108DF821
S11317801A3005A990470028A5D12369002B00F041
S113179004819A680192002ACAD01A680292002A27
S11317A0C6D05B68002BC3D01A680092002ABFD051
S11317B022680392042A03D0082A01D0002AB7D150
S11317C0009F97F803C097F802B09E460CF03F0CB8
S11317D0022363F3830CBEE80F006FF3051C0BF0C8
S11317E0F30B87F803C06FF3451B0DF1140C87F856
S11317F002B0ACE80F00DEF80020CCF8002003991A
S1131800694A029832F81110019A002307930DF1E6
S1131810140B1268ADF818108DF81A305946904719
S113182000287FF458AF012003F0B4FB5F49012383
S11318300A68C6F11F0003FA00F022EA00020A60F7
S11318401846009303F082FB042E00F09B80082EC0
S113185000F08D80009B002E7ED00C20FFF714FF3B
S1131860042E00F09280082E00F08480002E76D0A2
S11318700C20FFF709FF042E00F08A80082E7CD08C
S1131880002E6FD00C20FFF7FFFE042E00F08380A3
S1131890082E75D00C20002E67D0FFF7F5FE06F158
S11318A0007303F560535B01414A99785269C9B2E8
S11318B08DF812109978C9B28DF812109978C9B2BE
S11318C08DF81210997801F07F019970997821F0C0
S11318D004019970997821F0400199709DF81210D3
S11318E0998A21F0010199829979009321F00101EB
S11318F09971597A21F001015972197861F07F01C7
S11319001970587B4FF0000E20F0010058735946AF
S11319107046D4F80CB08DF813E09047C0B9BBF111
S1131920000F15D00A2E13D8DDF814C0DFF888E0B4
S1131930009B01463EF801200BFB02F2BCFBF2F2D5
S1131940013AFE2A01F1060138D901300428F1D107
S1131950304601F0C9F8EBE61846FFF795FE022081
S1131960FFF792FE0020FFF78FFE032095E7092082
S1131970FFF78AFE0A20FFF787FE0820FFF784FEA0
S11319800B208AE70520FFF77FFE0620FFF77CFE89
S11319900420FFF779FE07207FE70DF1140B42E7DF
S11319A0780CFE1FC0B9000004BA000000700440A7
S11319B0D8BA0000E008FE1FD4B90000C0B28DF808
S11319C01300D1B29DF813205970197802F0030264
S11319D021F003010A431A709A7822F003029A70E4
S11319E02279E179012A0CBF0422002209B942F0CC
S11319F01002617901292FD039B9A07942F0800110
S1131A0001280CBF42F0C0020A465A73227A1AB95E
S1131A109A7942F008029A7109EB060311489B0077
S1131A200AEB0302F6B2032100F8081000EB0807E2
S1131A30A169E0692E704FF0010ED16061692469DB
S1131A40106185F802E0A9606C600AF8036082F80E
S1131A5002E000207D603EE6A1790029D5D142F064
S1131A604002D2E7780CFE1F88B1F0B504780A2C46
S1131A7083B002D9042003B0F0BDA5004C4E2B194D
S1131A8006EB83039B7823B9072003B0F0BD012044
S1131A907047042C6AD0082C7ED0002C71D00C2006
S1131AA0FFF7F2FD042C64D0082C78D0002C6BD006
S1131AB00C20FFF7E9FD042C5ED0082C72D0002C1A
S1131AC065D00C20FFF7E0FD042C58D0082C6CD016
S1131AD00C20002C5ED0FFF7D7FD04F1007303F552
S1131AE060535B01334F9A78D2B28DF807209A780D
S1131AF0D2B28DF807209A78D2B28DF807209A785E
S1131B0002F07F029A709A7822F004029A70987810
S1131B104FEA041E254407EB0E0206EB850120F074
S1131B204000002598708D7007F80E500120557004
S1131B30556095609DF8073003F02CFA1E4A012089
S1131B401368C4F11F0100FA01F10B43136003F0A1
S1131B50FDF91A4B04EB440003EBC000153003F00D
S1131B60CBF9204600F0C0FF284684E70520FFF7A4
S1131B708BFD0620FFF788FD0420FFF785FD072075
S1131B80A9E70120FFF780FD0220FFF77DFD00207B
S1131B90FFF77AFD03209EE70920FFF775FD0A2071
S1131BA0FFF772FD0820FFF76FFD0B2093E700BFDE
S1131BB0E008FE1F780CFE1F00700440A809FE1FF9
S1131BC02DE9F04F0646D048347804EB840500EB49
S1131BD0850085B080789DF838A09DF83C7020B9C8
S1131BE00725284605B0BDE8F08F98464FEA440B18
S1131BF0C64B00910BEB040003EBC000153091467B
S1131C0003F06AF90099054620B10A25284605B073
S1131C10BDE8F08F042C00F01D81082C00F02B810E
S1131C20002C00F039810C20FFF72EFD042C0099C4
S1131C3000F01581082C00F02381002C00F0318184
S1131C400C20FFF721FD042C009900F00D81082CD5
S1131C5000F01B81002C00F029810C20FFF714FDFB
S1131C60042C009900F00581082C00F013810C204D
S1131C70002C00F020810191FFF706FD04F1007CA7
S1131C800CF5605C4FEA4C1CA0499CF80220D2B2CF
S1131C908DF80D209CF80220D2B28DF80D209CF80E
S1131CA00220D2B28DF80D209CF8022002F07F02AF
S1131CB08CF802209CF8022022F004028CF8022006
S1131CC09CF802200BEB0403DB00C81822F040024E
S1131CD08CF8022000F1080200920A460199D150C2
S1131CE0009A9DF80DE0C2F804804FF0000E00F158
S1131CF01003A2F802E017F0010218BF01229A7043
S1131D00824ADF700BEB040302EBC30B002380F861
S1131D1010A0C0F80490A0F808E08BF811309CF8EB
S1131D200D30019123F010038CF80D302046CDF8CE
S1131D3000C001F063F87368DDF800C001991BB1BD
S1131D4007F0FD02012A6ED0B3681BB1BA1E012A46
S1131D5040F23381042C00F00481082C00F0DA8076
S1131D60002C00F0AA800C20CDF800C0FFF780FC06
S1131D70042CDDF800C000F0FB80082C00F0D180BA
S1131D80002C00F0A1800C20FFF772FCDDF800C0ED
S1131D909CF80230DBB28DF80E309CF80230DBB2D6
S1131DA08DF80E309CF80230DBB28DF80E309CF8C2
S1131DB0023043F040038CF80230042C9DF80E30BE
S1131DC000F0F480082C00F0CA800C20002C00F0F5
S1131DD09980CDF800C0FFF74BFCDDF800C09CF8FB
S1131DE00230DBB28DF80F309CF80230DBB28DF894
S1131DF00F309CF80230DBB28DF80F309CF80230C3
S1131E0063F07F038CF802309DF80F309CF80230A9
S1131E1043F030038CF802307368002B00F0C88064
S1131E209CF80530DDE696F800E0D3F808A0384ABF
S1131E301868DAF804A0CDF800C04FEA4E131A442B
S1131E401FFA88F3D047DDF800C000283FF47CAFC8
S1131E500546C6E605200091FFF716FC009900919F
S1131E600620FFF711FC009900910420FFF70CFCF9
S1131E7000990720FFE609200091FFF705FC00996F
S1131E8000910A20FFF700FC009900910820FFF759
S1131E90FBFB00990B20EEE601200091FFF7F4FB19
S1131EA0009900910220FFF7EFFB009900910020B8
S1131EB0FFF7EAFB00990320DDE62046CDF800C0D9
S1131EC0FFF7D6FBDDF800C0CDF800C00320FFF714
S1131ED0CFFBDDF800C09CF80230DBB28DF80E3089
S1131EE09CF80230DBB28DF80E309CF80230DBB285
S1131EF08DF80E309CF8023043F040038CF8023029
S1131F009DF80E30012064E7E008FE1FA809FE1FBB
S1131F10030007402046CDF800C0FFF7A9FBDDF819
S1131F2000C0CDF800C00B20FFF7A2FBDDF800C015
S1131F309CF80230DBB28DF80E309CF80230DBB234
S1131F408DF80E309CF80230DBB28DF80E309CF820
S1131F50023043F040038CF802309DF80E30092023
S1131F6037E72046CDF800C0FFF782FBDDF800C05C
S1131F70CDF800C00720FFF77BFBDDF800C09CF81C
S1131F800230DBB28DF80E309CF80230DBB28DF8F3
S1131F900E309CF80230DBB28DF80E309CF8023023
S1131FA043F040038CF802309DF80E30052010E712
S1131FB0B368002B7FF434AF13E63278D3F808E02B
S1131FC013491868DEF804A0CDF800C053011FFAC5
S1131FD088F819444A464346D0470146A8B9022F17
S1131FE0DDF800C07FF4B6AE7368002B3FF4B2AEE8
S1131FF09A681868576843460A46B847DDF800C02F
S113200000283FF4A7AE0546EBE50546E9E500BF29
S11320100500074008B1012B01D0012070473AB1F7
S113202010B504780A2C82B004D9042002B010BD83
S1132030184670471C4613460A4602210191009433
S11320400021FFF7BDFDF1E708B1012B01D001200C
S113205070473AB110B504780A2C82B004D9042030
S113206002B010BD184670471C46009413460194F4
S11320700022FFF7A5FDF3E770B582B09DF8184084
S113208008B1012C02D0012002B070BD2BB105783B
S11320900A2D05D9042002B070BD204602B070BDDF
S11320A003258DE83000FFF78BFDEDE7AA4B03EB2A
S11320B000122DE9F04F4700A84E55683B18DB008D
S11320C0F2180446A868F358D2F8049092F81080E5
S11320D089B002F1100E002800F0E380012900F01D
S11320E04181022902D009B0BDE8F08F6B685B68BA
S11320F01B68DB899BB2002BF5D104F1007505F553
S113210060556D01042CAB7803F0CF03AB7000F085
S11321109981082C00F08B81002C00F065810C2043
S1132120FFF7B2FA042C00F09081082C00F08281B1
S1132130002C00F05C810C20FFF7A6FA042C00F0C0
S11321408781082C00F07981002C00F053810C2049
S1132150FFF79AFA042C00F07E81082C00F07081BD
S11321600C20002C00F04981FFF78EFAAB787C4AF2
S11321700594DBB28DF81030AB78DBB28DF81030FB
S1132180AB78DBB28DF81030AB7803F07F03AB7023
S1132190AB7823F00403AB70A97804EB840302EB5F
S11321A0830321F04002AA701969079101228DF876
S11321B01820DB689DF8102005A89847042C00F02F
S11321C07B81082C00F0A781002C00F046810C20B4
S11321D0FFF75AFA042C00F07281082C00F09E815B
S11321E0002C00F03D810C20FFF74EFAAB78DBB2F7
S11321F08DF81130AB78DBB28DF81130AB78DBB2EF
S11322008DF81130AB7823F04003AB70042C9DF8AB
S1132210113000F06981082C00F09581002C00F049
S113222034810C20FFF730FAAB78DBB28DF8123032
S1132230AB78DBB28DF81230AB78DBB28DF81230AC
S1132240AB7803F07F03AB70042C9DF8123000F0E0
S11322506081082C00F08C810C20002C00F02A8175
S1132260FFF712FAAB78DBB28DF81330AB78DBB240
S11322708DF81330AB78DBB28DF81330AB7823F0E4
S11322800403AB709DF81330AB783C4403F0CF03E8
S113229006EBC4001530AB7002F02EFE09B0BDE8A9
S11322A0F08F686800287FF419AF04F100750129E4
S11322B005F5605500F08E814FEA451C50899CF865
S11322C005C001305FFA8CFC1FFA80FB8EF804C055
S11322D0A2F80AB03A1906EBC202B2F808E0D068D4
S11322E086450ED2927C002A00F08781B8F1010F56
S11322F000F099823B1906EBC3030EF1010EA3F81B
S113230008E03B1906EBC3035B7C2BB1B8F1010F6A
S113231004BFD94409F801CC3B1906EBC303DB68BD
S11323205B4500F0A78101297FF4DDAE3B1906EB84
S1132330C303DA7C91077FF5D6AE6D016A7B520741
S113234003D51B89012B7FF6CEAE3C4406EBC406B5
S113235001237374C7E600BF780CFE1FA809FE1F93
S1132360E008FE1F042C00F01D81082C00F00281FF
S1132370002C44D004F1007505F560556D010C2066
S1132380FFF782F9AB78DBB28DF80F30AB78DBB2B4
S11323908DF80F30AB78DBB28DF80F30AB7803F0EB
S11323A07F03AB70042C9DF80F3000F01181082CD2
S11323B000F0F6800C20002C37D0FFF759F9AB78E9
S11323C0DBB28DF81430AB78DBB28DF81430AB7817
S11323D0DBB28DF81430AB7843F00403AB709DF896
S11323E0143009B0BDE8F08F0120FFF74DF9022049
S11323F0FFF74AF90020FFF747F90320B4E69A4DA6
S11324000846FFF741F9AB78DBB28DF80F30AB78B3
S1132410DBB28DF80F30AB78DBB28DF80F30AB78D0
S113242003F07F03AB709DF80F300220C5E709204D
S1132430FFF72AF90A20FFF727F90820FFF724F904
S11324400B2091E60520FFF71FF90620FFF71CF982
S11324500420FFF719F9072086E62046FFF714F950
S11324600320FFF711F9AB78DBB28DF81130AB78AC
S1132470DBB28DF81130AB78DBB28DF81130AB786C
S113248023F04003AB709DF811300120FFF7FCF8F6
S1132490AB78DBB28DF81230AB78DBB28DF812304A
S11324A0AB78DBB28DF81230AB7803F07F03AB70FE
S11324B09DF812300220D3E62046FFF7E5F8072006
S11324C0FFF7E2F8AB78DBB28DF81130AB78DBB212
S11324D08DF81130AB78DBB28DF81130AB7823F086
S11324E04003AB709DF811300520FFF7CDF8AB78B1
S11324F0DBB28DF81230AB78DBB28DF81230AB78EA
S1132500DBB28DF81230AB7803F07F03AB709DF82B
S113251012300620A4E62046FFF7B6F80B20FFF79A
S1132520B3F8AB78DBB28DF81130AB78DBB28DF851
S11325301130AB78DBB28DF81130AB7823F0400367
S1132540AB709DF811300920FFF79EF8AB78DBB231
S11325508DF81230AB78DBB28DF81230AB78DBB289
S11325608DF81230AB7803F07F03AB709DF8123016
S11325700A2075E63D4D0920FFF786F8AB78DBB2FB
S11325808DF80F30AB78DBB28DF80F30AB78DBB25F
S11325908DF80F30AB7803F07F03AB709DF80F30EC
S11325A00A200AE7324D0520FFF76EF8AB78DBB25C
S11325B08DF80F30AB78DBB28DF80F30AB78DBB22F
S11325C08DF80F30AB7803F07F03AB709DF80F30BC
S11325D00620F2E64FEA451B9BF805C05FFA8CFC27
S11325E08EF804C09BF80D0010F0040F0CD0108975
S11325F0083248B9B2F802B06CE66A011379DB0913
S1132600FCD0FF23D37075E6042C00F01781082C4E
S113261000F01281002C0CBF01200C2001910093CA
S1132620FFF732F89BF80220009B0199D2B28DF893
S11326300B209BF80220D2B28DF80B209BF80220CD
S1132640D2B28DF80B209BF80220381902F07F02D9
S113265006EBC00E8BF802209DF80B20BEF80AB0E2
S11326609EF814C036E600BF000007400001074092
S1132670800007404FEA4518042C98F80230009176
S113268003F0CF0388F8023000F0DA80082C00F061
S1132690F780002C00F0E4800C20FEF7F5FF042CFA
S11326A0009900F0D180082C00F0EE80002C00F09E
S11326B0DB800C20FEF7E8FF042C009900F0C980B1
S11326C0082C00F0E680002C00F0D3800C20FEF7EC
S11326D0DBFF042C009900F0C180082C00F0DE80A0
S11326E00C20002C00F0CA800091FEF7CDFF98F872
S11326F00230A04A0099DBB28DF80C3098F8023011
S1132700DBB28DF80C3098F80230DBB28DF80C3067
S113271098F8023003F07F0388F8023098F802300A
S113272023F0040388F8023004EB840398F80200D1
S113273002EB830320F04002D3F80CC088F8022097
S11327409DF80C20BCF1000F64D01B690793012392
S113275005948DF8183005A8E047042C009900F082
S1132760E580082C00F0BF80002C00F099800C203C
S1132770FEF78AFF042C009900F0DD80082C00F09D
S1132780B780002C00F091800C20FEF77DFF98F8B4
S113279002300099DBB28DF80D3098F80230DBB2CC
S11327A08DF80D3098F80230DBB28DF80D3098F8C2
S11327B0023023F0400388F80230042C9DF80D30D9
S11327C000F0D580082C00F0AF800C20002C00F025
S11327D088800091FEF758FF98F802300099DBB228
S11327E08DF80E3098F80230DBB28DF80E3098F880
S11327F00230DBB28DF80E3098F8023003F07F031C
S113280088F802309DF80E3098F8023003F0CF03B8
S113281088F80230381906EBC0001530009102F038
S11328206BFB00997FE513F80EA06A011379DB09AD
S1132830FCD082F803A05DE50920EFE60520EDE673
S11328400520FEF721FF009900910620FEF71CFFEA
S1132850009900910420FEF717FF0099072043E731
S11328600120FEF711FF009900910220FEF70CFFF2
S1132870009900910020FEF707FF0099032033E739
S11328800920FEF701FF009900910A20FEF7FCFEE3
S1132890009900910820FEF7F7FE00990B2023E72A
S11328A020460091FEF7F0FE009900910320FEF708
S11328B0EBFE98F802300099DBB28DF80D3098F8F1
S11328C00230DBB28DF80D3098F80230DBB28DF8AF
S11328D00D3098F8023023F0400388F802309DF858
S11328E00D30012075E720460091FEF7CDFE0099DA
S11328F000910B20FEF7C8FE98F802300099DBB275
S11329008DF80D3098F80230DBB28DF80D3098F860
S11329100230DBB28DF80D3098F8023023F040031A
S113292088F802309DF80D30092052E720460091C6
S1132930FEF7AAFE009900910720FEF7A5FE98F87D
S113294002300099DBB28DF80D3098F80230DBB21A
S11329508DF80D3098F80230DBB28DF80D3098F810
S1132960023023F0400388F802309DF80D30052032
S11329702FE700BFE008FE1F1C4B10B500EB8002E0
S113298003EB820384B0DA68044682B100F1007379
S113299003F560535B0101901979890614D4197900
S11329A0080715D505238DF8083001A89047104B6A
S11329B004EB440003EBC000153002F09DFA2046FE
S11329C000F092F804B010BD06238DF80830ECE74F
S11329D0597BC90603D503238DF80830E5E71B7935
S11329E0DB0644BF07238DF80830DEE7E008FE1F4E
S11329F0A809FE1F4309203300F01F0001220249E9
S1132A00824041F82320704700E100E0064A0301B8
S1132A10D35C012B05D0032B00D070470121FFF7B5
S1132A2045BBFEF765BC00BF780CFE1F03010C4AD2
S1132A30D35C012B10B504460ED0032B09D004F14E
S1132A40007000F560504001037903F0C70303717F
S1132A5010BDFFF791FFF2E7FEF7D4FDEFE700BFEB
S1132A60780CFE1F064A0301D35C012B05D0032B0F
S1132A7000D070470221FFF719BBFEF783BD00BFEA
S1132A80780CFE1F02010E498A5C012A05D0032A34
S1132A9000D070470021FFF709BB10B50446FEF7CC
S1132AA011FD04F1007303F560535B011A7922F000
S1132AB040021A711A7922F001021A7110BD00BF86
S1132AC0780CFE1F092808B507D00730C0B202F001
S1132AD017FA082806D0002008BD102002F010FACA
S1132AE00828F8D10A2008BD092803D00730C0B24D
S1132AF002F01ABA102002F017BA00BF30B5042849
S1132B0083B0044600F08C8008287ED0002871D061
S1132B100C20FFF76FFF042C00F08580082C77D081
S1132B20002C6AD00C20FFF765FF042C7ED0082C03
S1132B3071D0002C64D00C20FFF75CFF042C78D0FB
S1132B40082C6BD00C20002C5DD0FFF753FF04F150
S1132B50007303F560535B0100259A78D2B28DF8B7
S1132B6007209A78D2B28DF807209A78D2B28DF8DD
S1132B7007209A7802F07F029A709A7822F0040271
S1132B809A709A7822F040029A709DF807209A78F9
S1132B9002F0EF029A709A7802F0DF029A70997844
S1132BA09A7801F0020122F003020A439A70DA795A
S1132BB002F07F02DA71DA7922F02002DA71012060
S1132BC01D7202F0E7F91C4A01201368C4F11F01C9
S1132BD000FA01F10B43136002F0B8F92046FFF745
S1132BE083FF164A2401131915555D705D609D60BD
S1132BF003B030BD0120FFF7FDFE0220FFF7FAFE0F
S1132C000020FFF7F7FE03209FE70920FFF7F2FEFD
S1132C100A20FFF7EFFE0820FFF7ECFE0B2094E7F5
S1132C200520FFF7E7FE0620FFF7E4FE0420FFF788
S1132C30E1FE072089E700BF00700440780CFE1F06
S1132C4009288CBF04200020704700BF00B5002075
S1132C5083B0FFF7DBFE012002F0B8F8034BD3F892
S1132C6004330193019B03B05DF804FB0060004052
S1132C7000B5042083B0FFF7C9FE052002F0A6F8D2
S1132C80034BD3F814330193019B03B05DF804FBA9
S1132C900060004000B5082083B0FFF7B7FE0920AC
S1132CA002F094F8034BD3F824330193019B03B04F
S1132CB05DF804FB0060004000B5002083B0FFF71E
S1132CC0E1FE002002F082F8034BD3F800330193B5
S1132CD0019B03B05DF804FB0060004000B50420D4
S1132CE083B0FFF7CFFE042002F070F8034BD3F853
S1132CF010330193019B03B05DF804FB00600040B6
S1132D0000B5082083B0FFF7BDFE082002F05EF88E
S1132D10034BD3F820330193019B03B05DF804FB0C
S1132D200060004000B5002083B0FFF77FFE032061
S1132D3002F04CF8034BD3F80C330193019B03B01E
S1132D405DF804FB0060004000B5042083B0FFF789
S1132D506DFE072002F03AF8034BD3F81C330193BD
S1132D60019B03B05DF804FB0060004000B508203F
S1132D7083B0FFF75BFE0B2002F028F8034BD3F877
S1132D802C330193019B03B05DF804FB0060004009
S1132D9000B5002083B0FFF765FE022002F016F8AC
S1132DA0034BD3F808330193019B03B05DF804FB94
S1132DB00060004000B5042083B0FFF753FE0620F6
S1132DC002F004F8034BD3F818330193019B03B0CA
S1132DD05DF804FB0060004000B5082083B0FFF7F5
S1132DE041FE0A2001F0F2FF034BD3F8283301938C
S1132DF0019B03B05DF804FB00600040042810B59B
S1132E00044619D008280CD000B110BD012001F0EF
S1132E10DDFF204601F0DAFF0320BDE8104001F099
S1132E20D5BF092001F0D2FF204601F0CFFF0B20CF
S1132E30BDE8104001F0CABF052001F0C7FF2046DD
S1132E4001F0C4FF0720BDE8104001F0BFBF00BF80
S1132E50012907D029B9074A1378184300F0300034
S1132E6010707047034A137803F0300323EA00001C
S1132E7010707047000D0440012900F47F4208D00F
S1132E804FF4803181400023D20804481943115083
S1132E90704781408BB20021F6E700BF0800044070
S1132EA0000A4001024B41EA0242C250704700BF8F
S1132EB008000440000A400100F1804000F10410C1
S1132EC00068000C704700BF034B000A03EB40137B
S1132ED041EA02425A60704708000440030AC0B243
S1132EE000EB03139B0003F1804303F5812318686F
S1132EF0C0F34000704700BF000A400100F1804069
S1132F0000F10410006880B2704700BF000A40015D
S1132F1000F1804000F58020006880B2704700BF57
S1132F20000A400100F1804000F5802003681B0C7A
S1132F301B04194301607047014B00221A8070473B
S1132F40980AFE1F030AC0B200EB03139B0003F1AF
S1132F50804370B403F58123EFF3108472B6174AEB
S1132F60108880B218B9164D4026E870EE701088AB
S1132F70013080B2108084F31088CC03186805D522
S1132F8020F4803021F4803418601C601960EFF361
S1132F90108172B6138809489BB21BB10388013BA8
S1132FA09BB2038013889BB21BB9054A8020D3705F
S1132FB0D07081F3108870BC704700BF980AFE1F60
S1132FC0000D0440020AC3B203EB02139B0003F199
S1132FD0804303F581231B6829B1064943F00403A8
S1132FE01940FFF7AFBF034923F004031940FFF76B
S1132FF0A9BF00BFD5FC011F012343700370C37038
S113300083700020704700BFA8B138B5054601F0B1
S1133010F1FF2B88002463B16B6803EBC40253F8FF
S113302034109088FFF78EFF01342B88A4B2A3429A
S1133030F2D8002038BD0120704700BF10B540F61B
S11330400733984286B0044602D9032006B010BD67
S1133050012204AB02A804910191ADF80820039366
S1133060ADF8144001F0C6FF20460199FFF76AFF4E
S1133070002006B010BD00BF40F60733984202D9C5
S113308003231846704739B110B50C46FFF726FFE5
S113309000232070184610BD0123F2E7B0F5306F0D
S11330A002D903231846704739B110B50C46FFF70F
S11330B023FF00232080184610BD0123F2E700BF40
S11330C00AB903207047B0F5306F08B501D9032061
S11330D008BD0B46114022EA0302FFF7E1FE00207F
S11330E008BD00BF012901D90320704740F607320B
S11330F0904208B501D9032008BDFFF7BDFE0020AA
S113310008BD00BF0AB903207047B0F5306FFAD884
S113311070B514460E460546FFF7F8FE04EA0603AA
S1133120184383B266EA040128461940FFF7F8FE03
S1133130002070BD012901D90320704740F60732F1
S1133140904208B501D9032008BDFFF73BFF0020DA
S113315008BD00BFB0F5306F02D90323184670478D
S113316039B110B50C46FFF7A5FE002320801846A0
S113317010BD0123F2E700BF38B540F6073398428B
S1133180044601D9032038BD0D4681B100F47F40C7
S1133190FFF790FEE4B2012202FA04F39BB2184056
S11331A083420BBF002000202A70287038BD012004
S11331B038BD00BFB0F5306F01D903207047002A35
S11331C0FBD008B50B46114022EA0302FFF77CFE50
S11331D0002008BD40F60733984201D90320704708
S11331E00129FBD810B5C3B200F47F4408D00122F2
S11331F09A4092B200212046FFF766FE002010BDDF
S1133200994089B20022F6E7202801D903207047AB
S1133210012908B501D9032008BDFFF719FE0020D4
S113322008BD00BF38B1037A094A52F8232082420C
S113323003D0072070470120704703F5800303F58E
S1133240F0631B020020DA6A22F00102DA6270479E
S11332509C0AFE1F38B1037A094A52F8232082429D
S113326003D0072070470120704703F5800303F55E
S1133270F0631B020020DA6A42F00102DA6270474E
S11332809C0AFE1F40B139B1037A094A52F823203F
S1133290824203D0072070470120704703F5800362
S11332A003F5F0631B0200209B6C0B60704700BFAA
S11332B09C0AFE1F20B1034B1B680360002070476B
S11332C0012070479CBA000060B159B170B5264A1C
S11332D0037A52F82350854282B018BF072003D0E6
S11332E002B070BD0120704703F5800303F5F0635D
S11332F01B0200225B6E019201338B602B7A03F573
S1133300800303F5F0631B020C46DB6AC3F302631C
S1133310013BDBB2042B9CBF144A52F82360144BCC
S11333204FF003005B6901A988BF01269847019B00
S1133330B3FBF6F363602B7A03F5800303F5F063C4
S11333401B021B6B03F0010323702B7A03F580032C
S113335003F5F0631B02D86A10F0010015BF0020CA
S1133360012320732373BBE79C0AFE1F50BA00009D
S1133370D8BA000038B1184B027A53F8223083428D
S113338003D0072070470120704710B472B61A7A30
S113339002F5800202F5F06212020020D16AD46ABA
S11333A024F00104D4621A7A02F5800202F5F06274
S11333B0120201F0010190641B7A03F5800303F506
S11333C0F0631B02DA6A22F001020A43DA6262B68F
S11333D05DF8044B704700BF9C0AFE1FFFFFFFFF10
S11333E02DE9F04383B002AC002544F8045D324D6E
S11333F0884681466D69214603201F461646A84724
S1133400B8F1060F28D8DFE808F03C043E484C50D9
S11334102B00019826A3D3E90023A9FB000103F0A4
S113342057F902460B4600254FF0FF349D4208BF72
S113343094424FF000011ED290084FEA930E40EAE6
S11334408370754501F1010108BF84420246734649
S1133450C9B210D20529EFD1032003B0BDE8F0832F
S11334604FF47A72002102FB09F20B46019803F033
S11334702FF90246002100203970326003B0BDE804
S1133480F0834A46F6E701980C4A0023A9FB0001A1
S113349003F01EF902460B46C5E701984FF47A7211
S11334A0F3E7019AA9FB0223BDE700214A46DCE7C2
S11334B000CA9A3B00000000D8BA000040420F0046
S11334C058B130B51E4B047A53F82430834283B08C
S11334D018BF072003D003B030BD0120704709B9DD
S11334E00320F8E70846002511460DF1030301AA5D
S11334F001958DF80350FFF773FF02460028EAD1C7
S113350004F5800303F5F0631B02D96ADC6A24F036
S11335100104DC62DC6A9DF8035024F0E06405F0E9
S1133520070544EA0564DC62019C013C5C669A641C
S1133530DC6A01F0010224F001010A43DA62CAE7FD
S11335409C0AFE1F19B972B1012A2BD070474B1C7B
S11335501BD000F5800000F5F06000027AB1012A6A
S113356036D08165704700F5800000F5F0600002F8
S1133570036B23F4403343F4003303637047036B5A
S113358023F44033036341657047BAB1012ADDD1A6
S113359000F5800000F5F0600002036B43F0407317
S11335A00363704700F5800000F5F0600002036BD0
S11335B023F0407343F000730363704700F5800009
S11335C000F5F0600002036B43F44033036370477B
S11335D0036B23F040730363C3E700BF012938B5CD
S11335E014461D460CD01FD302291BD1134B9842FD
S11335F01CD0A0FB02010023104A03F069F807E085
S1133600642813D0A0FB02010023642203F060F8B5
S1133610002908BFB0F1FF3F08D000238B4208BF48
S1133620844205D2032038BD904204D14FF0FF30CC
S11336302860002038BD0021EAE700BFA086010011
S113364020B3F0B5047A0D2C83B002D9012003B065
S1133650F0BD04F5800404F5F064240216461F4608
S1133660626E02AB05460846002143F8041D013290
S11336703146FFF7B3FF04460028E8D1287A0199C0
S11336803A46FFF75FFF204603B0F0BD01207047C4
S113369040B138B52C4D037A55F82340844203D009
S11336A0072038BD0120704703F5800303F5F0635C
S11336B01B0226499A6B22F0C0029A63237A03F50F
S11336C0800303F5F0631B02DA6A22F00102DA6276
S11336D0237AC95C4AB20B2A29DD03F5800303F57A
S11336E0F0631B02DA8E22F48072DA86237A03F501
S11336F0800303F5F0631B029A8E22F480729A868B
S1133700207A4630C0B201F00FFC1148247A0368D5
S113371055F824100C4D0122A24023EA0203036051
S113372081B100200860486045F8240038BD520982
S1133730203201F01F01012306488B4040F822305B
S1133740237ACAE7084638BD9C0AFE1F8CBA0000DB
S1133750D40AFE1F00E100E02DE9F04184B000230B
S11337608DF80730029319B110B14B7C0D2B03D99E
S1133770012004B0BDE8F0814633DFB20446384688
S11337800D4601F0BDFB18B1082004B0BDE8F0817E
S11337906868297A02AA0DF10703FFF721FE06469D
S11337A0002840F0D0806B69002B00F09781B2496B
S11337B06A7C8A560B2A00F38C81AA6962602360B2
S11337C06E7C26722B78697CAC4A012B42F821402E
S11337D004D1AB490A68B34013430B60012001F0E4
S11337E0D9FB072E00F2B480A64A936823F0200385
S11337F09360012001F0AAFB237A03F5800303F50B
S1133800F0631B024FF0FF31DA6A22F00102DA6240
S1133810207A00F5800303F5F0631B0200224FF4C5
S11338202547012607281F601A615A615A61DA6127
S11338301A625A629A62DA621E635A639A63DA639C
S11338401A649A64D96419655965996559669966C3
S1133850C3F88820C3F88C1011D85A64D966196744
S1133860D9675967C3F880109967C3F88410C3F8FF
S11338709010C3F89410C3F89810C3F8A0202B78C4
S11338800026022B039669D094F808809DF807302F
S1133890029908F5800404F5F064240203F0070299
S11338A0E36A23F4E023E362236B43F0020323631C
S11338B0236B43F001032363236B23F0020323638D
S11338C0E36A23F0E06343EA026301390022E3621E
S11338D06166A264EF6937B13B78002B40F08880C1
S11338E0BB78002B45D1A36B23F0C00343F0400306
S11338F0A3636B69002B00F0BA806B7C5E4A624E56
S1133900D25C53B203F1C0075B099B0056F8270051
S113391003F1604302F01F0103F5614301228A4071
S113392020F4803146F82710C3F880211A60A87C5F
S113393000283FF41EAFE36A002043F00103E36272
S113394004B0BDE8F081384601F0EEFA304610E7E5
S11339504C4A936823F0400393604AE7E868297C63
S1133960029A03ABFFF73AFE00287FF402AF039EEE
S11339708AE7A28EF978287801F0010322F0100278
S113398042EA0312A286A38E01F0030123F0C003CE
S113399043EA8113A386A38E012843F00C03A38674
S11339A000F08280A38E00287AD023F00C0343F029
S11339B00803A386A38E23F0030343F00103A38625
S11339C0236C23F4402343F480232364404631468C
S11339D00122FFF7B7FD236B002E73D123F0407350
S11339E043F000732363A38E43F48073A3867AE7C2
S11339F0E18E787895F800E000F0010321F01001E1
S1133A0041EA0311E186E38E00F0030023F0C003D2
S1133A1043EA8013E386E38EBEF1010F43F00C0307
S1133A20E38637D0E38EBEF1000F2FD023F00C03D2
S1133A3043F00803E386E38E23F0030343F001031A
S1133A40E386236C23F4403343F4803323644046F9
S1133A503146FFF777FD236B6EBB23F4403343F409
S1133A6000332363E38E43F48073E38638E72B78D3
S1133A70012B7FF45CAF40E78CBA00009C0AFE1F68
S1133A80D40AFE1F007004400060004023F00303CA
S1133A90E386E7E7E264E38E43F00303E386E1E7CA
S1133AA023F00303A3869EE700232365A38E43F03C
S1133AB00303A38697E7711C15D023F440332363D3
S1133AC06665CFE7721C12D023F040732363A665AA
S1133AD089E7384601F028FA0B204AE62A78012AB9
S1133AE07FF46EAE63E643F440332363BAE743F0F6
S1133AF04073236377E700BF024B23F820100020B4
S1133B00704700BF10100440024A002342F82030DE
S1133B101846704710100440034A137863F07F037B
S1133B2013700020704700BF00100440034A13784C
S1133B3003F07F0313700020704700BF001004409F
S1133B4020B1034B1B6803600020704701207047BD
S1133B50BCBA000058B1012807D1084B002040210D
S1133B604122187119711A71704701207047034B73
S1133B7040214122987099709A7070470010044057
S1133B80E8B130B40F4A536823F480435360456866
S1133B905DB1836803EB85055C8813F8041B0A4A4E
S1133BA089000A44AB421480F6D1007828B1074A50
S1133BB0137863F07F031370002030BC704701203A
S1133BC0704700BF0070044010100440001004400F
S1133BD0084B094A094810B40021094C1A604FF4F3
S1133BE000425C60D86059619A601A615DF8044BC8
S1133BF0704700BFAC08FE1F002D310100366E0176
S1133C0000127A0019491A4A0B8D03F0030332F8A3
S1133C10132052B310B40C8D16480B8D14F0100FF2
S1133C2014BF0021032107EE902A50F821205DF8EB
S1133C30044B07EE102AF8EE676AB8EE477AC3F32E
S1133C40052387EE267A07EE903AF8EEE77AF7EE48
S1133C50006A77EEA67AF6EE006A67EEA67A67EE59
S1133C60277AFCEEE77AC0ED057A704700E0014060
S1133C70C0BA0000AC08FE1F0E4AB2F8FE339BB275
S1133C8043F4254343F00103A2F8FE3392F81334BE
S1133C90000100F0300003F0CF03034382F8133433
S1133CA0B2F8FE3345F6FE210B4043F42543A2F857
S1133CB0FE33704700E001400E4AB2F8FE339BB277
S1133CC043F4254343F00103A2F8FE3392F8813410
S1133CD0400000F0020003F0FD03034382F8813446
S1133CE0B2F8FE3345F6FE210B4043F42543A2F817
S1133CF0FE33704700E00140264AB2F8FE339BB21F
S1133D0043F4254343F00103A2F8FE3305280BD8FE
S1133D10DFE800F02028300338181E4A92F83230C9
S1133D2023F0010382F832301A4AB2F8FE3323F446
S1133D30145323F001035B045B0C43F42543A2F802
S1133D40FE337047134A92F82A3023F0010382F8B5
S1133D502A30E9E70F4A92F8363023F0010382F85B
S1133D603630E1E70B4A92F8383023F0010382F849
S1133D703830D9E7074A92F8903423F0010382F8E7
S1133D809034D1E7034A92F8803423F0010382F897
S1133D908034C9E700E00140264AB2F8FE339BB202
S1133DA043F4254343F00103A2F8FE3305280BD85E
S1133DB0DFE800F02028300338181E4A92F8323029
S1133DC043F0010382F832301A4AB2F8FE3323F486
S1133DD0145323F001035B045B0C43F42543A2F862
S1133DE0FE337047134A92F82A3043F0010382F8F5
S1133DF02A30E9E70F4A92F8363043F0010382F89B
S1133E003630E1E70B4A92F8383043F0010382F888
S1133E103830D9E7074A92F8903443F0010382F826
S1133E209034D1E7034A92F8803443F0010382F8D6
S1133E308034C9E700E00140032810D0052808D0E9
S1133E4008B100207047094B93F83C0000F00100D2
S1133E507047064B93F83C00C0F340107047034B87
S1133E6093F83C00C0F3C000704700BF00E001407D
S1133E70052834D8DFE800F00B131B232B03194B60
S1133E8093F82A0000F0010080F001007047154B00
S1133E9093F8360000F0010080F001007047114BE8
S1133EA093F8380000F0010080F0010070470D4BDA
S1133EB093F8900400F0010080F001007047094B72
S1133EC093F8320000F0010080F001007047054BC8
S1133ED093F8800400F0010080F001007047002096
S1133EE0704700BF00E00140024B1A6A93F8263085
S1133EF0704700BF00E001400E4AB2F8FE339BB2A7
S1133F0043F4254343F00103A2F8FE3392F813343B
S1133F1000F0010023F0400343EA801382F81334D5
S1133F20B2F8FE3345F6FE210B4043F42543A2F8D4
S1133F30FE33704700E001400E4AB2F8FE339BB2F4
S1133F4043F4254343F00103A2F8FE3392F8A23070
S1133F5001F00F0123F00F03194382F8A210B2F805
S1133F60FE3345F6FE210B4043F42543A2F8FE330D
S1133F70704700BF00E0014005288CBF00200120ED
S1133F80704700BF06288CBF00200120704700BF87
S1133F90024B93F8260000F00700704700E0014050
S1133FA00E4AB2F8FE339BB243F4254343F00103B7
S1133FB0A2F8FE3392F8263000F0070023F007033E
S1133FC0184382F82600B2F8FE3345F6FE210B4072
S1133FD043F42543A2F8FE33704700BF00E00140DC
S1133FE0034B1B8D13F0100F0CBF032000207047F0
S1133FF000E001400F4A1049B2F8FE3311F81010E6
S11340009BB243F4254343F00103A2F8FE33138D1E
S113401001F0010123F0100343EA01131385B2F800
S1134020FE3345F6FE210B4043F42543A2F8FE334C
S1134030704700BF00E00140D0BA0000114AB2F856
S1134040FE3330EE000A9BB243F42543FCEEC07A03
S113405043F00103A2F8FE3317EE903A118D013BB1
S113406021F47C5103F03F0341EA03231385B2F8A2
S1134070FE3345F6FE210B4043F42543A2F8FE33FC
S1134080704700BF00E001400E4A0F49B2F8FE330A
S113409031F810109BB243F4254343F00103A2F816
S11340A0FE33138D01F0030123F003030B43138547
S11340B0B2F8FE3345F6FE210B4043F42543A2F843
S11340C0FE33704700E00140C8BA0000F0B5164A5C
S11340D0B2F8FE339BB243F4254343F00103A2F844
S11340E0FE3390F800C090F802E0077946794578ED
S11340F0C478817900236CF30E336EF3061367F3EF
S1134100124366F31E7365F30A2364F3020361F337
S11341101A631362B2F8FE3345F6FE210B4043F4F2
S11341202543A2F8FE33F0BD00E001400E4B1A6AAD
S1134130C2F3023202701A6AC2F3022242701A6A8D
S1134140C2F3021282701A6A02F00702C2701A6A7B
S1134150C2F3024202711A6AC2F3027242711B6A0A
S1134160C3F302638371704700E001404378022B7C
S113417016D8D0ED017AB3EE0E7AF4EEC77AF1EEEA
S113418010FA0DDCB2EE047AF4EEC77AF1EE10FA0E
S113419006D40078032805D0B0FA80F040097047AF
S11341A00020704701207047062828D8DFE800F077
S11341B0090E13181D220400124B186AC0F3026082
S11341C07047104B186AC0F3023070470D4B186AE1
S11341D0C0F3022070470B4B186AC0F302107047FB
S11341E0084B186A00F007007047064B186AC0F3C2
S11341F002407047034B186AC0F3027070470020F6
S1134200704700BF00E0014008B5FFF7CDFF054B44
S1134210054A93F8263003F0070352F8233023FAB3
S113422000F008BD00E00140AC08FE1F024B53F84B
S11342302000C840704700BFAC08FE1F0F4BB3F806
S1134240FE2392B242F4254242F00102A3F8FE2377
S113425093F8402062F07F0283F8402093F84020D6
S113426042F0010283F84020B3F8FE2345F6FE2114
S11342700A4042F42542A3F8FE23704700E00140BF
S11342800F4BB3F8FE2392B242F4254242F00102EE
S1134290A3F8FE2393F8402022F0010283F8402083
S11342A093F8402002F07F0283F84020B3F8FE2305
S11342B045F6FE210A4042F42542A3F8FE23704746
S11342C000E00140024B93F84000C009704700BF72
S11342D000E00140024B93F8410000F001007047F8
S11342E000E00140114A92F8410010F0010001D1B0
S11342F000207047B2F8FE339BB243F4254343F0E9
S11343000103A2F8FE3392F8413023F0010382F84E
S11343104130B2F8FE3323F4145323F001035B0459
S11343205B0C43F42543A2F8FE33704700E00140E0
S11343300E4AB2F8FE339BB243F4254343F0010323
S1134340A2F8FE3392F8303000F0010023F00103AC
S1134350184382F83000B2F8FE3345F6FE210B40D4
S113436043F42543A2F8FE33704700BF00E0014048
S11343700C4AB2F8FE339BB243F4254343F00103E5
S1134380A2F8FE3392F8523043F0010382F852301F
S1134390B2F8FE3345F6FE210B4043F42543A2F860
S11343A0FE33704700E001400C4AB2F8FE339BB282
S11343B043F4254343F00103A2F8FE3392F852304C
S11343C023F0010382F85230B2F8FE3345F6FE21A1
S11343D00B4043F42543A2F8FE33704700E001404C
S11343E0164BB3F8FE2392B242F4254242F0010286
S11343F0A3F8FE2393F83E2002F07F0283F83E20C8
S113440093F83E2001F0070122F0700242EA011203
S113441083F83E2093F83E2000F0070022F00702C4
S1134420104383F83E00B3F8FE2345F6FE210A400C
S113443042F42542A3F8FE23704700BF00E0014088
S11344400C4AB2F8FE339BB243F4254343F0010314
S1134450A2F8FE3392F83E3063F07F0382F83E30D8
S1134460B2F8FE3345F6FE210B4043F42543A2F88F
S1134470FE33704700E001400C4AB2F8FE339BB2B1
S113448043F4254343F00103A2F8FE3392F83E308F
S113449003F07F0382F83E30B2F8FE3345F6FE2186
S11344A00B4043F42543A2F8FE33704700E001407B
S11344B00C4AB2F8FE339BB243F4254343F00103A4
S11344C0A2F8FE3392F8533043F0010382F85330DC
S11344D0B2F8FE3345F6FE210B4043F42543A2F81F
S11344E0FE33704700E001400C4AB2F8FE339BB241
S11344F043F4254343F00103A2F8FE3392F853300A
S113450023F0010382F85330B2F8FE3345F6FE215E
S11345100B4043F42543A2F8FE33704700E001400A
S11345200E4AB2F8FE339BB243F4254343F0010331
S1134530A2F8FE3392F8243000F0070023F0700351
S113454043EA001382F82430B2F8FE3345F6FE2124
S11345500B4043F42543A2F8FE33704700E00140CA
S11345600B4B01380022B0F1807F19681A600CD21D
S113457010B4084C5860F02084F82300072101206F
S11345809A6019605DF8044B7047196010467047D3
S113459010E000E000ED00E00C4B1A7902F00E028E
S11345A042F0F0021A711A7A00F0010022F00402BB
S11345B042EA80021A721A7A22F0080242EAC00021
S11345C018721A7942F0F1021A7170470020004003
S11345D0094B1A7942F0F1021A711A7A00F00100BB
S11345E022F0100242EA00121A721A7902F00E0244
S11345F042F0F0021A71704700200040054A92F818
S11346001C3100F0070023F00703184382F81C0153
S1134610704700BF00C00140024B93F81C0100F03A
S11346200700704700C00140002070470020704719
S113463000207047024B1B6803600020704700BFD6
S113464034BB000038B50C460546FFF7A1FC2870C2
S11346502046FFF76BFD002038BD00BF70B5002475
S11346600C600D460646FFF78DFC10B90324204666
S113467070BD3046FFF7C8FD2860204670BD00BFFE
S113468010B5FFF727FE68B1FFF782FC0446FFF779
S1134690A7FC052C04D0032C04D140F2971010BDC4
S11346A00328FAD0FFF71EFE002010BD08B5FFF75F
S11346B03FFE002008BD00BF08B5FFF759FE0020EB
S11346C008BD00BF08B5FFF76FFE002008BD00BF9E
S11346D008B5FFF785FE002008BD00BF08B5FFF749
S11346E0AFFE002008BD00BF08B5FFF7C5FE0020DF
S11346F008BD00BF08B5FFF7DBFE002008BD00BF02
S113470008B5FFF7F1FE002008BD00BF08B5FFF7AC
S113471007FF002008BD00BF00B583B04FF6FF734C
S11347200193FFF755FA0420FFF736FB04E0019BE1
S11347303BB1019B013B01930420FFF799FB002847
S1134740F5D1019B23B94FF4CD7003B05DF804FBA0
S113475005210420FFF7C8FB0020FFF7ADFA002075
S113476003B05DF804FB00BF10B50446FFF704FC7A
S113477008B9032010BD631E012B0FD9042C0DD0E2
S11347802CB1032C03D0052C01D0002010BD2046F1
S1134790FFF76EFB68B94FF4C87010BD2046FFF7F1
S11347A067FB40F29113002814BF18464FF4C870F9
S11347B010BD2046FFF740FB40F2931300280CBFC6
S11347C018464FF4C97010BD70B582B00E46054648
S11347D0FFF7D2FB10B9032002B070BD052D2846A7
S11347E00FD0FFF745FB18B140F2911002B070BD35
S11347F06A1E012A4ED9042D25D0BDB1032D3AD00D
S1134800EAE7FFF735FBC8B9B6B1FFF7C1FB0528E6
S1134810EAD03046FFF7AAFC0028DCD03078FFF756
S113482027FB00283BD14FF4CA70D5E7FFF704FB00
S113483080B340F29310CFE70120CDE7FFF7E2F910
S113484040F29110C8E72846FFF756FA4FF6FF7377
S1134850019304E0019B3BB1019B013B01930420C4
S1134860FFF706FB0028F5D0019B002B0CBF4FF48B
S1134870CD700020B0E72846FFF7DEFA0446002892
S1134880D7D1FFF7F9F92046FFF736FB284609216F
S1134890FFF752FB2846FFF72FFA00209CE7284633
S11348A0FFF7CAFA04460028C3D13078FFF7A2FB09
S11348B07078FFF7E9FB96ED010AFFF7BFFBFFF7FE
S11348C0A1F92846FFF718FA204685E710B582B00B
S11348D00446FFF751FB10B9032002B010BDFFF7E7
S11348E057FB844216D0052810D0012C15D0204641
S11348F0FFF7BEFA40B1022C39D0042C1AD094B17F
S1134900032C10D0052C0ED00020E6E7FFF768FB3F
S1134910A042EAD140F29110DFE7FFF7D3FC08B3DD
S113492040F29510D9E72046FFF786FAF8B940F22D
S11349309310D2E72046FFF72FFA4FF6FF73019347
S113494004E0019B3BB1019B013B01930420FFF771
S11349508FFA0028F5D1019B002B0CBF4FF4CD70CA
S11349600020BAE72046FFF783FA0028CCD020467F
S1134970FFF712FAC8E700BF70B50C460546FFF70B
S1134980FBFA08B9032070BD002C3BD0A1796379F0
S11349908B42F7D363788B42F4D323788B42F1D3E1
S11349A023798B42EED32846FFF740FC284B9842EC
S11349B0064631D80020FFF7EFFD0020FFF708FE80
S11349C0244B9E4231D8FFF727FE0026FFF7E0FA7A
S11349D0854207D0C5B1032D16D0052D14D0284625
S11349E0FFF7DEFA2046FFF771FB00F0D1F81A4B0F
S11349F01860FFF711FE864224D03046FFF7FEFD13
S1134A00002070BD012070BD2846FFF715FA00286C
S1134A10E5D14FF4C97070BD0120FFF7BDFD0F4B08
S1134A209E4211D90120FFF7D3FD0D4B9E4294BF46
S1134A3001260226FFF7F0FD8642C7D93046FFF76C
S1134A40DDFDC3E7002070BD0020FFF7C1FDECE7EA
S1134A50FF0D2707FFB3C404180DFE1FFFC1EB0BA6
S1134A60FF67890900B583B071B148B101460120DF
S1134A7000F0AAF8FFF7E2FB002003B05DF804FBA6
S1134A80012003B05DF804FBFFF724FC20B14FF4D0
S1134A90CB7003B05DF804FB0190FFF7F1FB0198C4
S1134AA0EBE700BF08B90320704738B50D4604464C
S1134AB000F06EF807EE900AF8EE676AF7EE007AF7
S1134AC0C7EEA66A07EE905A07EE104AF8EE677A28
S1134AD0B8EE477A66EEA77AC7EE277AFCEEE77A55
S1134AE017EE900AFFF73CFD00280CBF12200020AF
S1134AF038BD00BF70B5234D82B02B6898470021A4
S1134B006E680320B04701211F4AAC698DF801107B
S1134B10032301928DF800300320A047B0F5C97F2C
S1134B20FAD169460520B047184A92F8003143F09B
S1134B30010382F800310520A047B0F5C97FFAD1FE
S1134B4000220124022369468DF806208DF80130E5
S1134B508DF802308DF805308DF80040EB688DF843
S1134B6003408DF80440052098472B6D0420984796
S1134B706B6A20469847AB6A9847AB6C984702B07B
S1134B8070BD00BFD8BA00000000A04100C00140C1
S1134B9000B583B002A9002341F8043D034B06206D
S1134BA05B699847019803B05DF804FBD8BA00002C
S1134BB0044B002103F1300243F8041B9342FBD160
S1134BC0704700BFD80AFE1F024B43F82010002094
S1134BD0704700BFD80AFE1F08B57A4BB3F84031BE
S1134BE0D90700F1C180774BB3F840319A0700F13F
S1134BF0B080744BB3F840315B0700F19F80714B78
S1134C00B3F84031180700F18E806E4BB3F8403191
S1134C10D9067CD46B4BB3F84001C0F38010002854
S1134C2069D1684BB3F840311A0658D4654BB3F8D0
S1134C304031DB0547D4634BB3F84031980536D493
S1134C40604BB3F84031590524D45E4BB3F840317E
S1134C501A0512D45B4BB3F84031DB0400D408BD11
S1134C60594BDB6A002B40F0AA80564AB2F8303127
S1134C7043F48053A2F8303108BD534B9B6A002B98
S1134C8040F09A804F4AB2F8303143F40063A2F8FE
S1134C903031DFE74C4B5B6A002B40F08A80494A95
S1134CA0B2F8303143F48063A2F83031CDE7464B9B
S1134CB01B6A002B7AD1434AB2F8303143F40073B3
S1134CC0A2F83031BCE7404BDB69002B6BD13D4A85
S1134CD0B2F8303143F48073A2F83031ABE73A4B89
S1134CE01B68002B5CD1374AB2F8303143F08003A3
S1134CF0A2F830319AE7344B5B68002B4ED1314A2D
S1134D00B2F8303143F04003A2F8303189E72E4B3A
S1134D109B69002B3FD12B4AB2F8303143F010038A
S1134D20A2F8303176E7284B5B698BBB254AB2F891
S1134D30303143F00803A2F8303166E7224B1B6997
S1134D401BBB204AB2F8303143F00403A2F83031DF
S1134D5055E71D4B9B68ABB91A4AB2F8303143F0A2
S1134D600203A2F8303144E7174BDB683BB9154A1C
S1134D70B2F8303143F00103A2F8303133E70320B5
S1134D809847F4E702209847E6E704209847D8E7D5
S1134D9005209847CAE706209847BCE79847AEE73E
S1134DA0002098479FE70720984790E708209847F6
S1134DB081E70920984772E70A20984762E70B20A9
S1134DC0984752E700600040D80AFE1F002808DB1D
S1134DD0800000F1804000F5C640036823F480336E
S1134DE0036070472DE9F04F2E4BDFF8D4B0DFF8A5
S1134DF0D4A0DFF8D490DFF8D480DFF8D4C0DFF893
S1134E00D4E0294F294E2A4D2A4C2B482B49E02225
S1134E1083F8002383F8012383F8022383F8032310
S1134E2083F8042383F8052383F8062383F80723F0
S1134E3083F8082383F8092383F80A2383F80B23D0
S1134E404FF4BA7340F27512CBF80030CAF8002060
S1134E504FF4BB7B40F277134FF4C67AC9F800B025
S1134E6040F28D12C8F800304FF4C77BCCF800A094
S1134E7040F28F194FF4D27840F2A5134FF4D37A4D
S1134E8040F2A71CCEF80020C7F800B0C6F8009086
S1134E90C5F800802360C0F800A0C1F800C0BDE8D8
S1134EA0F08F00BF00E100E0186300401C63004085
S1134EB02063004024630040286300402C630040CA
S1134EC00063004004630040086300400C6300403A
S1134ED01063004014630040012202E0C0E8432F45
S1134EE043B1D0E84F3F13F0FF0FF7D0BFF32F8F3C
S1134EF0082070471846704700230370704700BFAE
S1134F00084B0121034402E0C3E8401F40B1D3E849
S1134F104F2F12F0FF0FF7D0BFF32F8F08207047E9
S1134F20704700BF080BFE1F014B00221A54704744
S1134F30080BFE1F044B002103F1780203F8011F44
S1134F409342FBD1704700BF070BFE1F0E4B33F893
S1134F50102092B22AB133F81020013A92B223F809
S1134F60102033F810309BB263B9084A0849B2F8EC
S1134F70FE3331F810109BB243F4254323EA0103B6
S1134F80A2F8FE33704700BF800BFE1F00E0014013
S1134F9038BB0000104A32F810309BB2ABB910B4E1
S1134FA00E4C0F49B4F8FE3331F810109BB243F4A1
S1134FB025430B43A4F8FE3332F810305DF8044B5C
S1134FC001339BB222F81030704732F810300133AD
S1134FD09BB222F810307047800BFE1F00E00140A6
S1134FE038BB0000024B00221A805A809A80704716
S1134FF0800BFE1FF8B50788AFB341681B4C002631
S113500001EBC70E4FF0010C37468888002334F8B3
S11350101320824216D00133032BF8D10831714595
S1135020F3D1F643F6B20120FFF7B4FF104A92F829
S1135030BB341F433E4082F8BB640120BDE8F84006
S1135040FFF784BF0A6802F0B852B2F1807F05D03E
S11350500CFA03F546EA0502D6B2DCE70CFA03F2D1
S11350601743FFB2D7E7FF26DDE700BF40BB0000D0
S113507000E00140A0F101000028FBD1704700BF0F
S113508038B50D4601FB00F4FFF782FDB0F5004F83
S113509001D8012D19D00F4AB2FBF0F0844208D296
S11350A04FF47A7202FB04F3B3FBF0F0800808D1EA
S11350B038BD4FF47A72B4FBF0F002FB00F08008C4
S11350C0F6D0BDE83840FFF7D5BF2846BDE83840E4
S11350D0FFF7D0BF00CA9A3B0C4A08B513688BB1DE
S11350E0033020F003000A491844884202D81060B3
S11350F0184608BD01F0BAFD0C2303604FF0FF33DE
S1135100184608BD034B1360EAE700BF880BFE1F77
S11351106021FE1F6011FE1FFEE700BF08B500F00E
S113512005F800F03DF9FEE7704700BF204A08B5D6
S1135130D2F8883043F47003C2F888300020FFF7B7
S1135140F3FFFFF735FDFFF7D5FCFFF74BFFFDF746
S1135150F3FE184B18481B689847184A184B9B1ABB
S113516005D01344002103F8011D9A42FBD11548D0
S1135170154BC01A07D0154A184412F8011B03F83E
S1135180011B8342F9D1FFF703FD114B1860012085
S1135190FFF7CAFFFFF7CEFEFFF724FE0D4B0E48C4
S11351A01B6898470020BDE8084000F017B800BF0E
S11351B000ED00E018BA0000E8BB0000C408FE1FC0
S11351C05C11FE1FAC08FE1F0000FE1FB4C20000ED
S11351D0180DFE1FA0BA000048BB000000F044B840
S11351E082B04FF0C84300210091009A1A7D61F308
S11351F000021A751A8DD0B1202161F30F221A858D
S11352001A8D4FF0C04142F080021A850A6800925C
S113521040F6FF721946019204E0019B013B0193A1
S1135220019A12B18A6A5206F7D502B070474FF05C
S1135230C04142F47F421A850A6800921A8D60F3D5
S1135240C7121A850A68009240F6FF711A46019146
S113525005E0019B013B0193019B002BE5D0936A80
S11352605B06F6D402B07047F8B5494A13684FF0AC
S1135270C84423F040031360237A6FF304032372BA
S1135280237DFF2243F0010323752261237D6622DF
S113529043F0010323752261237D992243F0010326
S11352A023752261237D43F001032375012123200B
S11352B0FFF7E6FE9F232361364B22691A702269A9
S11352C05A702169227D997042F0010222751A7880
S11352D0EF2A04D000221A705A709A70F8BD5A78D6
S11352E0402AF7D19A78172AF4D1052020612A4957
S11352F023690B70227D294B42F001023526227569
S1135300266122691A70227D42F001022275228DE3
S1135310042565F3030222852279502765F30302ED
S113532022712761227D42F0010222751A78012739
S113533042F002021A7027610A7822611A78226107
S1135340227D3A4322752561227D3A4322752288C3
S113535060F302022280206122690A70227D3A43AE
S11353602275266122691A70237D3B4323752388A5
S113537043F040032380A369DB074FF0C845FAD408
S11353800120FFF72DFF2B7D6FF300032B75F8BD74
S1135390007004408C0BFE1F900BFE1F940BFE1F2D
S11353A008B500F0B9FB002008BD00BF002070471D
S11353B038B501220C46D021054600F0F5FA00B1BB
S11353C038BD024621462846BDE8384000F008BBF7
S11353D030B585B00DF103010446FFF7E9FF30B99C
S11353E09DF80330602B18BF4FF6FF7001D005B055
S11353F030BD104D2A88ADF80420034601A920468B
S1135400022200F0C3FA0028F1D1AA88ADF80820DE
S1135410034602A92046022200F0B8FA03460028F7
S1135420E5D12A89ADF80C20204603A9022200F018
S1135430ADFADCE7E0BF00002DE9F04F01228FB0A8
S11354400C468821054600F0AFFA10B10FB0BDE854
S1135450F08F034607A92846192200F0B3FA002862
S1135460F4D12846E121012200F09EFA03460028E7
S1135470ECD1284605A9072200F0A4FA0028E5D1BA
S11354809DF826309DF8238001939DF822109DF805
S1135490293002939DF828309DF82190039341EA26
S11354A008219DF820509DF81DB09DF81FA09DF87F
S11354B027E09DF81C709DF81E60019BE180039914
S11354C09DF825C09DF8242045EA092547EA0B27C5
S11354D046EA0A2643EA0E2388469DF831E0A58071
S11354E002999DF830509DF82D90278042EA0C22B5
S11354F09DF82C709DF82FC066809DF82E609DF855
S11355002BA09DF82AB0228148EA0121638145EA53
S11355100E259DF81830A18147EA092746EA0C2692
S11355209DF83410A5829DF833909DF832509DF873
S113553017809DF819C09DF815E09DF81420217678
S113554003F00F011B094BEA0A2B278266829DF8A0
S113555016709DF81A60A4F80EB045EA092541EAD0
S1135560081143EA0C1342EA0E22E582E183238404
S11355706283277784F8226068E700BF2DE9F04151
S11355800B4682B01546FA2101221E885F889C884A
S1135590804600F009FA034610B102B0BDE8F0817C
S11355A0404601A9032200F00DFA0028F5D19DF828
S11355B005209DF804309DF80610120242EA0343C8
S11355C00B43C6EB132202FB02F2121324B2760041
S11355D03FB204FB02F4C6EBD316A41307FB06F692
S11355E004EBE6232B6002B0BDE8F08110B582B075
S11355F0144601AAFFF7C2FF70B9019B9FED077A19
S113560003EB830380331B1207EE903AF8EEE77A3C
S1135610C7EE877AC4ED007A02B010BD0000C8421C
S11356202DE9F04F91B04D8ACC88039592468D8A2E
S1135630CB8A00940FAA04950E894C89B1F80C907A
S1135640B1F80E80B1F810B005930546FFF796FF48
S113565010B111B0BDE8F08F2846F721012200F007
S1135660A3F903460028F4D128460EA9032200F02A
S1135670A9F984460028ECD10F989DF838E0B0F5DC
S1135680FA324FEAE07141F1FF33194610461346EE
S1135690CDE9060103FB01F3A0FB000101EB430389
S11356A0CDE90801099332B2DDE9086724B2E517B0
S11356B0314601FB05F104FB0711A6FB0445DDE9B6
S11356C00667384602FB00F0D31706FB030306986F
S11356D0A2FB00673B440D441F46200A40EA0560D4
S11356E03B0332031218009F9DF839404FEA2521ED
S11356F043EA16534B410032A2FB070143F5004332
S113570007FB03114E10CF1756EA07039DF83A2002
S113571002D14FF6FF709CE74FEA0E4343EA04259B
S1135720079B0FFA88F01543069AC11700FB03F391
S113573002FB0133A0FB0201CDE90001019A1A44E6
S113574001920FFA8BF2D31719462D11019BC5F55F
S1135750801510465C042A46EB17CDE90C23002281
S11357600023CDE90A23009B44EAD3340794DDE9FE
S113577008230D9CE4070B94CDE90C01144604FBAB
S113578001F4DDE90C010099CDF800C000FB0344ED
S1135790089B4904A3FB0023069123440FFA89F8CC
S11357A00B9C4FEAC801DDE9068944EA55040B94D1
S11357B0EC0718EB02080A9449EB0309DDE90A2314
S11357C01CEB080441EB0905121B63EB050390185D
S11357D043EB03018018594114461D4682018B0195
S11357E043EA9063801859418B00820043EA907326
S11357F0101943EB05018B00820043EA90731046B5
S11358000019194632463B46694100F045FFBDF98F
S11358101440BDF910204F13460B46EAC14604FB61
S113582007F3E51706FB0533A4FB06451D4406FBF9
S113583005F507FB045702FB01FEA6FB0445D3173D
S113584000FB03EE3D44A2FB0023660E734446EACC
S1135850C5164FEAD2488019BDF90C204FEA656796
S113586048EA433879414FEAE34918EB000849EB29
S11358700109D3174FEA18201D01140140EA0960F9
S113588045EA127500194FEA2921694100F0C6FE64
S1135890DFED057ADDF800C007EE100AC7EE277ABF
S11358A06046CAED007AD4E60000C8462DE9F04F00
S11358B083B0924601AA91F818904C8B0D7FB1F8F1
S11358C01E800E8C91F822708346FFF757FE10B1AC
S11358D003B0BDE8F08F5846FD21012200F064F8C2
S11358E003460028F4D158466946022200F06AF8BB
S11358F00028EDD1019B9DF800E09DF80110A3F56F
S1135900963303FB05F57AB203FB02F2ED1205F5BB
S11359100045921241EA0E2105FB02F24FEA0858B3
S113592009B2921236B224B2C8EB813802F50012E1
S113593003FB168304FB02F202F5005203F58043D5
S11359409213DB1302FB03F3DA1302FB02F2D2110C
S113595009FB02F9A3EB291323EAE373B3F1C85F4C
S1135960A8BF4FF0C8531B1307EE903AFAEECB7A58
S1135970CAED007AACE700BF00207047024B9A687A
S1135980186812685968104754BB0000054B10B4DE
S11359909C68A46801220146A44618685DF8044B7B
S11359A01346604754BB0000054B10B49C68A468C0
S11359B001220146A44618685DF8044B134660476B
S11359C054BB0000054B9A68186810B4546801234E
S11359D0A44604225DF8044B604700BF54BB00009A
S11359E0054B9A68186810B454680123A44604222D
S11359F05DF8044B604700BF54BB0000024B9A683B
S1135A00186812685968104780BB0000F0B5124B43
S1135A1083B004465B69002001A9984708B103B02C
S1135A20F0BD0E4B019D1F689E683846F368984789
S1135A300028F4D10A4BA3FB0535AD0905FB04F49A
S1135A4002E0009B9C42EAD933693846694698478C
S1135A500028F6D003B0F0BDD8BA000080BB000027
S1135A60D34D621038B5084B084C9A68186893688F
S1135A70002525700122984720B92378002BFCD0FB
S1135A80012038BD284638BDB8BB00005411FE1FA4
S1135A9038B5084B084C9A68186853680025257077
S1135AA00122984720B92378002BFCD0012038BD6F
S1135AB0284638BDB8BB0000500DFE1F00207047BB
S1135AC0094B9A6818681268596810B590470446DB
S1135AD040B9064B1B680146022298684FF4806364
S1135AE001F066F9204610BDB8BB00002804FE1F73
S1135AF00379022B08D0802B02D0012B00D07047F1
S1135B00034B01221A707047024B01221A7070472E
S1135B10500DFE1F5411FE1F30B591B0FFF7CEFF9C
S1135B2000B1FEE7FFF7CCFF00B1FEE7584801F0F3
S1135B30F1F8584801F0EEF8574801F0EBF85748EF
S1135B4001F0E8F8FFF75AFF18B1554801F028F9B9
S1135B50FEE7544801F024F9534801F0DBF8FFF75D
S1135B600BFF18B14E4801F01BF9FEE74D4801F058
S1135B7017F94E4801F0CEF8FFF700FF18B1484876
S1135B8001F00EF9FEE7474801F00AF9484801F030
S1135B90C1F87720FFF70AFC18B1414801F000F979
S1135BA0FEE7404801F0FCF8424801F0B3F87720E2
S1135BB0FFF70EFC18B13A4801F0F2F8FEE7394855
S1135BC001F0EEF83C4801F0A5F877200DF10F0143
S1135BD0FFF7EEFB18B1324801F0E2F8FEE79DF85A
S1135BE00F10364801F096F8354801F093F807A9EC
S1135BF07720FFF721FC18B1294801F0D1F8FEE71E
S1135C00284801F0CDF82F4801F0CAF82E4801F0D9
S1135C1081F807A904AA7720FFF7E8FC07A905AAD9
S1135C207720FFF7FDFC06AA07A97720FFF73EFEC1
S1135C30049800F0BDF90022244B04460D4600F000
S1135C400BFA0022224B00F031FB0022214B00F022
S1135C5051F822462B46CDE900011F4801F05AF8BD
S1135C60059800F0A5F902460B461C4801F052F8CD
S1135C70069800F09DF902460B46194801F04AF8CF
S1135C80184801F047F84FF4FA70FFF7BFFEC0E779
S1135C90ECBF0000F4BF0000F8BF000000C000002B
S1135CA018C0000024C000002CC0000040C0000048
S1135CB050C0000068C000007CC0000088C0000024
S1135CC094C00000BCC00000C0C00000000022401E
S1135CD00000144000004040C4C00000E4C00000C4
S1135CE000C100001CC1000081F0004102E000BFBF
S1135CF083F0004330B54FEA41044FEA430594EA88
S1135D00050F08BF90EA020F1FBF54EA000C55EAC2
S1135D10020C7FEA645C7FEA655C00F0E2804FEA93
S1135D205454D4EB5555B8BF6D420CDD2C4480EA75
S1135D30020281EA030382EA000083EA010180EAA5
S1135D40020281EA0303362D88BF30BD11F0004FF3
S1135D504FEA01314FF4801C4CEA113102D0404229
S1135D6061EB410113F0004F4FEA03334CEA133364
S1135D7002D0524263EB430394EA050F00F0A7807C
S1135D80A4F10104D5F1200E0DDB02FA0EFC22FA77
S1135D9005F2801841F1000103FA0EF2801843FA6B
S1135DA005F359410EE0A5F120050EF1200E012A5C
S1135DB003FA0EFC28BF4CF0020C43FA05F3C0189A
S1135DC051EBE37101F0004507D54FF0000EDCF113
S1135DD0000C7EEB00006EEB0101B1F5801F1BD3BC
S1135DE0B1F5001F0CD349085FEA30004FEA3C0CC0
S1135DF004F101044FEA445212F5800F80F09A80B6
S1135E00BCF1004F08BF5FEA500C50F1000041EBB9
S1135E10045141EA050130BD5FEA4C0C404141EBBD
S1135E20010111F4801FA4F10104E9D191F0000FE4
S1135E3004BF01460020B1FA81F308BF2033A3F167
S1135E400B03B3F120020CDA0C3208DD02F1140C5E
S1135E50C2F10C0201FA0CF021FA02F10CE002F199
S1135E601402D8BFC2F1200C01FA02F120FA0CFC92
S1135E70DCBF41EA0C019040E41AA2BF01EB0451DB
S1135E80294330BD6FEA04041F3C1CDA0C340EDCD9
S1135E9004F11404C4F1200220FA04F001FA02F31C
S1135EA040EA030021FA04F345EA030130BDC4F1DA
S1135EB00C04C4F1200220FA02F001FA04F340EACF
S1135EC00300294630BD21FA04F0294630BD94F080
S1135ED0000F83F4801306BF81F480110134013D67
S1135EE04EE77FEA645C18BF7FEA655C29D094EAD8
S1135EF0050F08BF90EA020F05D054EA000C04BF56
S1135F001946104630BD91EA030F1EBF0021002040
S1135F1030BD5FEA545C05D14000494128BF41F0DF
S1135F20004130BD14F580043CBF01F5801130BD43
S1135F3001F0004545F0FE4141F470014FF00000CE
S1135F4030BD7FEA645C1ABF194610467FEA655C7F
S1135F501CBF0B46024650EA013406BF52EA033521
S1135F6091EA030F41F4002130BD00BF90F0000F0F
S1135F7004BF0021704730B54FF4806404F132044B
S1135F804FF000054FF0000150E700BF90F0000F04
S1135F9004BF0021704730B54FF4806404F132042B
S1135FA010F0004548BF40424FF000013EE700BFFB
S1135FB042004FEAE2014FEA31014FEA02701FBF8B
S1135FC012F07F4393F07F4F81F06051704792F05D
S1135FD0000F14BF93F07F4F704730B54FF46074D7
S1135FE001F0004521F0004120E700BF50EA010222
S1135FF008BF704730B54FF000050AE050EA0102CF
S113600008BF704730B511F0004502D5404261EB3E
S113601041014FF4806404F132045FEA915C3FF47F
S1136020DCAE4FF003025FEADC0C18BF03325FEA18
S1136030DC0C18BF033202EBDC02C2F1200300FACD
